:020000040800F2
:10000000F824002045010008F3B80008B990000862
:10001000D5B800080D12000889070108000000008B
:10002000000000000000000000000000C1C1000846
:100030008D3400080000000035BD00084DC50008E3
:100040005F0100085F0100085F0100087DBE000835
:100050005F0100085F0100085F0100085F01000800
:100060005F0100085F0100085F0100085F010008F0
:100070005F0100085F0100085F0100085F010008E0
:100080005F0100085F0100085F0100085F010008D0
:10009000D10601085F0100085F0100085F01000848
:1000A0005F0100085F0100085F0100085F010008B0
:1000B000E5C500085F0100085F0100085F01000856
:1000C0005F0100085F0100085F0100085F01000890
:1000D0005F0100085F0100085F0100085F01000880
:1000E0005F0100085F0100085F0100085F01000870
:1000F0005F0100085F0100085F0100085F01000860
:100100005F0100085F0100085F0100085F0100084F
:100110005F0100085F0100085F0100085F0100083F
:100120005F0100085F0100085F0100085F0100082F
:10013000DFF80CD000F020FD00480047452C0108F6
:10014000F82400200648804706480047FEE7FEE7FF
:10015000FEE7FEE7FEE7FEE7FEE7FEE7FEE7FEE777
:10016000E3C50008310100082DE9F05F05460020D5
:1001700092469B4688460646814640241BE0284618
:1001800041464746224600F020F853465A46C01AD8
:10019000914110D311461846224600F081FB2D1ADA
:1001A00067EB01084F4622460120002100F078FB52
:1001B00017EB00094E41201EA4F10104DFDC484684
:1001C00031462A464346BDE8F09F202A04DB203A08
:1001D00021FA02F00021704721FA02F3D040C2F167
:1001E0002002914008431946704740EA01039B07EB
:1001F00003D009E008C9121F08C0042AFAD203E09C
:1002000011F8013B00F8013B521EF9D27047D2B2FF
:1002100001E000F8012B491EFBD270470022F6E7EF
:1002200010B513460A4604461946FFF7F0FF20466C
:1002300010BD421E12F8013F002BFBD111F8013B0B
:1002400002F8013B002BF9D17047421C10F8011B4A
:100250000029FBD1801A704710B5002200E0521C23
:10026000835C8C5CA34201D1002BF8D1D8B2E1B2FF
:10027000401A10BD034611F8012B00F8012B002A8B
:10028000F9D11846704770B5064610F06FFF046844
:1002900005460A220021304600F072FB2C6070BD3A
:1002A000F0B480EA0102D40F4200B2EB410F02D257
:1002B0000246084611464A0042D0C30DDDB2C1F3E2
:1002C000C752AD1A202D35DAC1F3160141F40002F0
:1002D00004B15242C5F1200602FA06F12A41104447
:1002E000B3EBD05F23D0C4B1012DA0EBC35009DC28
:1002F000F0BC4FF0004202EAC352DBB200F500004E
:1003000000F07FBB400000F1807000EBC350A0F113
:10031000807040EAD170490009E0490841EAC071A3
:10032000A0EBC35000F50000400800EBC350F0BC48
:1003300000F05EBB6142012202EB4101001BF6E7C7
:10034000F0BC704781F00041AAE780F00040A7E7C9
:1003500080EA010210B502F00043400022D04A00BA
:100360001FD0010E01EB1261C0F35600C2F356021A
:1003700040F4000042F40002A0FB022000047F3998
:10038000140400D0401C50EA124001D44000491E21
:10039000C2B20C0604EBD010401C4008802A02D0E8
:1003A00003E0002010BD20F00100002900DA002049
:1003B000184310BD30B480EA010202F0004530F06D
:1003C000004221F0004013D090B1C30DD40DC2F310
:1003D0001601C0F31600E41A41F4000140F40002D3
:1003E0007D34914201D3641C00E04900002C02DA04
:1003F00030BC002070474FF400000023914201D32D
:10040000891A034340084FEA4101F7D151B19142A3
:1004100002D14FF0004105E002D24FF0010101E0AE
:100420006FF0010103EBC450284430BC00F0E0BA87
:100430002DE9FE4F804681EA0300C00F0C46009074
:1004400021F0004123F00045B8EB0200A94105D29C
:100450004046214690461C460B46024623F000408B
:10046000104347D0270DC7F30A00C3F30A51029087
:10047000401A019040286BDAC3F3130040F4801B4C
:100480000098924620B10023D2EB030A63EB0B0BDA
:1004900001985946C0F14002504600F001FA064664
:1004A0000D4650465946019A00F009FA10EB080033
:1004B0006141002487EA115284EAE7731A4340D06D
:1004C000009A62B3019A012A4FEA075215DC001B19
:1004D00061EB02014FF0004202EA0752CDE900420F
:1004E000001C41F5801132462B4600F0C7FA03B0DC
:1004F000BDE8F08F40462146F9E7001B61EB0201A1
:10050000001C41F5801300185B412018A2F500176C
:1005100047EB030140EAD570B6196D4111E06D0853
:100520004FEA360645EAC0754FEA0752001B61EBF9
:100530000201001C41F5801149084FEA3000001902
:10054000514132462B4603B0BDE8F04F00F087BA68
:100550000098012240000023D0EB020263EBE0731D
:10056000009821464FEAE074B8EB000061EB04010B
:10057000E9E783F000435BE781F0004158E72DE9AC
:10058000FE4F81EA030404F0004421F0004100948E
:100590004FF0000B23F0004350EA01045ED052EA12
:1005A00003045BD0C3F30A54C1F30A552C44A4F2EC
:1005B000F3340194A0FB0254C1F3130141F4801100
:1005C000C3F3130343F4801301FB024400FB034E07
:1005D000840A970A44EA815447EA8357A4FB0768D0
:1005E00002958D0A05FB07854FEA932C04FB0C54FA
:1005F0002705029D4FEA065847EA1637B5EB08056E
:100600006EEB070C870E920E47EA811742EA8312BF
:10061000A7FB0201B6EB0B0164EB00042B0D43EAD0
:100620000C335E1844EB1C50DA465146E7FB0201DE
:10063000C5F313044FEA0B3343EA14534FEA043271
:10064000019C43EA0603A4F10C040294009CCDE94A
:1006500000B400F013FA03B0BDE8F08F00200146AB
:10066000F9E72DE9F04D81EA030404F0004B21F095
:10067000004514464FF0000A23F0004150EA0502FD
:1006800020D054EA01021DD0C5F30A570246C5F333
:100690001303C1F31300C1F30A5640F4801543F469
:1006A0008013A7EB0608101BD64608F2FD3873EB43
:1006B000050002D308F1010801E092185B41B8F18E
:1006C000000F03DA00200146BDE8F08D00204FF452
:1006D0008011064684460EE0171B73EB050705D311
:1006E000121B63EB050306434CEA010C49084FEA71
:1006F000300092185B4150EA0107EDD152EA030045
:1007000012D082EA040083EA0501084305D0101BD9
:10071000AB4106D20122002306E000224FF0004345
:1007200002E06FF0010253101AEB06004CEB085187
:1007300010EB0A0041EB0B01BDE8F04D00F08FB962
:10074000C10F80EAE0700844CA079623002100F038
:1007500058B996230022114600F053B90EB5C10FC7
:1007600080EAE0700844CA07002140F233438DE874
:100770000E000A460B4600F081F903B000BD00F000
:10078000004220F00040C10DC0F3160040F400000C
:100790007F2901DA00207047962903DCC1F1960118
:1007A000C84001E096398840002AF4D040427047A2
:1007B00020F00040C10DC0F3160040F400007F2976
:1007C00001DA00207047962903DCC1F19601C84088
:1007D000704796398840704770B5C1F30A5201F0EE
:1007E00000450024C1F3130140F2FF3341F48011AE
:1007F0009A4201DA002070BD40F233439A42A2F2DD
:10080000334203DC5242FFF7E0FC00E090402C430F
:10081000F1D0404270BD00F0004230F000400AD0FC
:10082000C10D01F56071C0F3160042EA0151C20822
:1008300040071143704700200146704701F0004314
:1008400030B421F0004150EA010206D00A0DA2F5B1
:100850006072C1F31301002A02DC30BC0020704733
:10086000440F44EAC104C100E01830BC00EBC250A0
:1008700000F0BEB830B50B4601460020202201240E
:1008800009E021FA02F59D4205D303FA02F5491B5E
:1008900004FA02F52844151EA2F10102F1DC30BD74
:1008A000202A04DB203A00FA02F100207047914030
:1008B000C2F1200320FA03F3194390407047202A25
:1008C00006DBCB17203A41FA02F043EAE07306E078
:1008D00041FA02F3D040C2F1200291400843194688
:1008E000704700000FB4002300B589B00CA9009137
:1008F0000B996FF00042CB601E4B06931E4B079383
:100900000423CDE901321D4A089202466B460020BD
:1009100000F0E6F909B05DF814FB70B586B0064644
:100920004FF0FF300091CDE90101002015460C4643
:1009300004903246694604A8FFF7D4FF02460498A3
:10094000211825B108B1084600E020462860049827
:1009500000280DD0002A02DD0098884208D0081B2C
:100960000094CDE901043246694604A8FFF7BAFFB6
:1009700006B070BD190F0008370F0008A50B00085E
:100980002DE9F04791460F4680460446002614F8AC
:10099000015B2DB100F002F90068405DC007F6D19F
:1009A0002B2D02D02D2D18D0641E4A4639462046E4
:1009B00000F0D2FA27B13968A14201D1C7F800800E
:1009C00071054FF002040BD54042002803DD10F002
:1009D000CDFB0460A007BDE8F08746F48066E4E73D
:1009E0000028F8DA10F0C2FB04606FF00040F2E774
:1009F0000029A8BF7047401C490008BF20F0010033
:100A0000704710B4B0FA80FC00FA0CF050EA010410
:100A100004BF10BC704749B1CCF1200421FA04F4A2
:100A200011FA0CF118BF012121430843A3EB0C017B
:100A3000CB1D4FEA00614FEA102042BF002010BCDE
:100A4000704700EBC35010440029A4BF10BC70478E
:100A5000401C490008BF20F0010010BC704710B5D1
:100A6000141E73F1000408DA401C41F100019218D1
:100A70005B411A4301D120F0010010BD2DE9F04D7A
:100A800092469B4611B1B1FA81F202E0B0FA80F2CF
:100A900020329046FFF704FF04460F4640EA0A0062
:100AA00041EA0B0153465A46084313D0114653EA14
:100AB000010019D0C8F140025046FFF786FB0546F9
:100AC0000E46504659464246FFF7EAFE084305D017
:100AD000012004E020463946BDE8F08D00200543A2
:100AE00046EAE0762C4337430A986305E40AA0EB14
:100AF00008000022FD0A44EA47540A3002D50020CB
:100B00000146E9E7010510196941DDE908450019C9
:100B10006941BDE8F04DA2E7C1F30A52C1F31301E8
:100B200040F2FF3341F480119A4202DA002001467C
:100B3000704740F233439A42A2F2334202DC5242FF
:100B4000FFF743BBFFF7ACBE30B5041E71F10004E4
:100B500004DB4FF00044404264EB0101141E73F1CA
:100B6000000405DB1C464FF00043524263EB0403D4
:100B7000994208BF904230BD064C074D06E0E06840
:100B800040F0010394E8070098471034AC42F6D3D4
:100B9000FFF7D2FAFC5702081C58020800487047B9
:100BA000F857020810B50446FFF7F8FF0068005D2B
:100BB00000F0010010BD00002DE9FF4F087883B060
:100BC0009946FF2805D0491C2D2804D00024002078
:100BD00008E000200BE00124F9E700EB800003EBC4
:100BE0004000491C0B78FF2BF7D104B14042002391
:100BF0000293147819461D462D2C01D02B2C04D1BC
:100C0000521C2D2C13D000240294AA461478FF2CD9
:100C10000FD00A25A3FB057801FB05814FF0000CDE
:100C200003FB0C11521CE3194AEB0101EEE701240E
:100C3000EAE7814453EA010002D019F5C87F06DAD9
:100C400003980021C0E9001107B0BDE8F08F00252E
:100C5000AE4E2F46DFF8B882184600F0DAF9CDE93B
:100C60000001B9F1000002DAC9F1000400E0044615
:100C70000023A74A1AEB030B42EB045A12E0E007E9
:100C800007D02A46334638464146FFF778FC0746E8
:100C900088462A46334610461946FFF770FC05463B
:100CA0000E466410002CEAD1DDE90001B9F1000F15
:100CB0005A46534606DAFFF7D4FC3A464346FFF756
:100CC000D0FC05E0FFF75BFC3A464346FFF757FCD4
:100CD000029A0AB181F00041039AC2E90001B3E728
:100CE0002DE9FF4F1F468DB0D7E901464FF0FF3881
:100CF0002E2045464FF000090B90B9696D1C0E98E7
:100D00008847396A824688470028F6D1BAF1FF3F02
:100D10000AD024F4D064002E11DDBAF12B0F08D0D4
:100D2000BAF12D0F0BD102E0404611B08DE744F42B
:100D30008064B9696D1C0E9888478246761E6946A4
:100D4000600501D52D2000E02B208DF8000001F179
:100D5000010B0DF1200809E0B9696D1C0E98884758
:100D600082460F9844F40074761E0560002E02DD62
:100D7000BAF1300FF0D00B998A453ED144F080048F
:100D800006E00F99681CA9F1010944F40074086099
:100D9000B9696D1C761E0E98884782463028F0D0BF
:100DA0002BE00B998A4505D1200603D444F080043A
:100DB000761E18E0504610F0B1FB08B30DF1130198
:100DC000761E44F400748B4508D2AAF130000BF86B
:100DD000010B200607D5A9F1010003E0200602D48B
:100DE00009F101008146A00502D50F99681C086031
:100DF000B9696D1C0E9888478246002ED1DC53E0FD
:100E0000002E51DDBAF1650F02D0BAF1450F4BD17A
:100E1000A00549D5B9696D1C24F44074761E0E985E
:100E200088478246002E0CDD2B2804D0BAF12D0F06
:100E300007D144F48074B9696D1C0E9888478246C6
:100E4000761EE00501D52D2100E02B2108F8011BBD
:100E5000CDF82C8021E00DF12901761E44F40074B8
:100E600088450CD2AAF1300010F0FF0088F800008D
:100E700002D10B99884509D908F1010806E0E0057F
:100E800001D5244801E042F20F708146B9696D1C1A
:100E90000E98884782460F980560002E04DD504664
:100EA00010F03CFB0028D6D1F9690E988847FF2046
:100EB0008BF8000088F800000020069007904B4651
:100EC0006A4608A906A8FFF777FEA00502D46FF0CE
:100ED00001002AE714F0240F0AD0E00714D1DDE95D
:100EE00006123868031D3B600068C0E900120BE081
:100EF000DDE90601FFF7A2FC0146E00704D13868EE
:100F0000021D3A600068016028460EE700001440A8
:100F10000000F03FF1D8FFFF426842B1016811F8CC
:100F2000013B23B1521EC0E900121846704701214F
:100F3000C160881E704742685AB1C368016843B9EE
:100F400083688B4205D0491E521CC0E90012002064
:100F500070474FF0FF3070472DE9F05F8246007810
:100F6000002715468B460AF10104B946302801D006
:100F70009DB113E014F8010B0127782803D05828FD
:100F800001D045B10AE00DB1102D07D10027102581
:100F900014F8010B02E0082500E00A250026B046FF
:100FA0000EE005FB080005FB06F1012701EB1046EA
:100FB0001FFA80F8B6F5803F00D3B94614F8010B4C
:100FC000294600F018F80028EBDABBF1000F05D035
:100FD0000FB1641E00E05446CBF80040B9F1000F99
:100FE00006D010F0C3F802210160C81EBDE8F09FD2
:100FF00048EA0640FAE73A2800D2303820F02002CA
:10100000412A01D3A2F13700884201D34FF0FF30CB
:1010100070470EB540F2334202920022CDE9002221
:101020001346FFF72BFD03B000BD70B58C1810F808
:10103000015B15F0070301D110F8013B2A1106D11D
:1010400010F8012B03E010F8016B01F8016B5B1E37
:10105000F9D12B0705D40023521E0DD401F8013B12
:10106000FAE710F8013BCB1A921C03E013F8015B7E
:1010700001F8015B521EF9D5A142D8D3002070BD02
:1010800070B5044600252068806800F0010018B3A0
:101090002068806820F001002168886005F0E4FA8B
:1010A000054613E005F0E0FA401B02280ED920683F
:1010B000806800F0010048B1A06A40F01000A06212
:1010C000E06A40F00100E062012070BD20688068A5
:1010D00000F001000028E5D10020F6E738B504460D
:1010E0000025002000902068806800F0010078BB97
:1010F0002068806840F00100216888601948006815
:101100001949B0FBF1F0009002E00098401E0090F9
:1011100000980028F9D105F0A7FA054619E005F076
:10112000A3FA401B022814D92068806800F001004F
:1011300078B9A06A40F01000A062E06A40F00100B7
:10114000E06200BF002084F8240000BF012038BD09
:1011500005E02068806800F001000028DFD0002052
:10116000F5E700002001002040420F0010B50022EA
:101170004FF48051014805F071FA10BD000C014098
:1011800010B501221103024805F068FA10BD0000F5
:10119000000C014010B50122D102064805F05EFAAC
:1011A0000A2011F0CDFB00224FF40061014805F048
:1011B00055FA10BD000C01401248407D05281DD293
:1011C000DFE800F003080D12170032200E4909680D
:1011D000486314E03C200C49096848630FE046204E
:1011E0000949096848630AE05020074909684863CB
:1011F00005E0632004490968486300E000BF00BFC0
:101200007047000034050020A404002000BFFEE762
:1012100010B501220421024805F020FA10BD00009B
:101220000010014010B500220421024805F016FA12
:1012300010BD00000010014010B50122022102483B
:1012400005F00CFA10BD00000010014010B500229E
:101250000221024805F002FA10BD00000010014012
:1012600010B50446392012F031F8E0B212F03FF820
:10127000C4F3072012F03BF8C4F3074012F037F82C
:10128000200E12F034F812F013F80FF02DFF10BDFD
:101290002DE9F04107460E4614463C2012F016F8A0
:1012A000F0B212F024F8301212F021F812F000F827
:1012B0000CB10020208016E00FF016FF05461E2D11
:1012C0000ED1384600F055F905463D2011F0FEFFDD
:1012D00011F0EEFF2F4434B120882844208002E032
:1012E0002846BDE8F081E7E710B50AF025FD08B112
:1012F00000F082F8302000F0CDF810BD10B531209C
:1013000000F0C8F810BD10B504462146362000F0A4
:10131000B3F810BD10B5044614B1204600F0DBF858
:10132000342000F0B7F810BD70B50646304600F026
:10133000BBF8054685B12946304600F024F804463E
:10134000412C09D0142C01D1432070BD422C01D175
:10135000B320FAE72046F8E77019FFF7DBFFF4E760
:1013600010B50446204600F0B6F820785C2802D07C
:1013700020782F2803D10021642000F011F93220B9
:1013800000F088F810BD2DE9F04105460F46002613
:10139000012429E001E0601CC4B2285D5C2805D06E
:1013A000285D2F2802D0285D0028F4D1285D10B1D7
:1013B000601CC4B200E00024A819FFF7D1FF064664
:1013C00084B1BC420ED0412E0AD0142E02D143204B
:1013D000BDE8F081422E01D1B320F9E73046F7E7AE
:1013E000264601E03046F3E7D4E710B50446FF2176
:1013F0002046FFF7C8FF10BD10B5222011F066FF90
:10140000322011F0BBFA11F057FF044611F050FFE3
:10141000204610BD2DE9F04111F04EFF044611F0B9
:101420004BFF054611F048FF064611F045FF074601
:1014300011F03EFF44EA052040EA064040EA07601A
:10144000BDE8F08110B504460C2011F03FFF2046A6
:1014500011F04DFFFFF7DEFF10BD70B504460A2006
:1014600011F034FF204611F042FF11F025FF054630
:1014700011F01EFF284670BD70B505460C46284683
:1014800011F024FF204611F032FF11F011FF0FF090
:101490002BFE70BD10B50446204611F017FF11F069
:1014A00007FF0FF021FE10BD0246114600E0491C67
:1014B00008780028FBD100E0491E08785C2804D099
:1014C00008782F2801D09142F6D1914200D0491CD2
:1014D000881AC0B270472DE9F0410646012011F08C
:1014E000F5FE11F0E9FE43282BDA2B20FFF7B5FFBC
:1014F000102826DA2F2011F0E9FE002011F0F7FE67
:101500003220FFF7C7FF0446142C1AD1CF20FFF773
:10151000A4FF0446ACB14C20FFF794FF00EB042776
:1015200039464C2000F03CF85020FFF78BFF00EBD1
:1015300004273946502000F033F80021702000F0D5
:101540002FF82F2011F0C2FE3578284611F0CFFE7B
:1015500009E0761C35785C2D01D02F2D00D10025B7
:10156000284611F0C4FE002DF3D111F0A1FEBDE814
:10157000F08170B504462D2011F0A8FE11F09CFEFC
:101580000646054646B100BF207811F0B0FE641C47
:10159000701EC0B2061EF7D111F08AFE284670BD3B
:1015A00070B505460C460D2011F090FE284611F04E
:1015B0009EFEE0B211F09BFEC4F3072011F097FEEF
:1015C000C4F3074011F093FE200E11F090FE11F0CD
:1015D0006FFE70BD10B500221021024805F03EF8E4
:1015E00010BD00000008014010B501221021024882
:1015F00005F034F810BD00000008014010B50122CC
:101600008021024805F02AF810BD0000000C0140BE
:1016100010B500228021024805F020F810BD00001E
:10162000000C014010B501224021024805F016F8D7
:1016300010BD00000014014010B5002240210248F6
:1016400005F00CF810BD00000014014010B5012297
:101650005103024805F002F810BD000000140140DB
:1016600010B500224FF40051014804F0F7FF10BDFF
:101670000014014010B501221103024804F0EEFFEE
:1016800010BD00000014014010B500224FF480513D
:10169000014804F0E3FF10BD0014014010B5012221
:1016A0001146024804F0DAFF10BD0000000C0140B2
:1016B00010B500220121024804F0D0FF10BD000047
:1016C000000C014010B501222021024804F0C6FFA1
:1016D00010BD00000010014010B50022202102487A
:1016E00004F0BCFF10BD000000100140F0B504463E
:1016F0000D46FF22FF21002319E0E05C4140002756
:1017000011E001F0010602F0010C52104910BCF189
:10171000000F01D041F080011EB182F0A00281F0E3
:101720000101781CC7B2082FEBDB581CC3B2AB42D7
:10173000E3DB41EA0220F0BD002070470020704743
:101740002DE9F04106460F4601210C480DF047F8FF
:101750000B4908700948D0F8B852002403E0285D0E
:1017600008490855641C064800788442F7DB0120CC
:10177000054908700020BDE8F08100006C180020C9
:10178000F4010020701B0020F501002033B50C4649
:1017900000252DE09DF801109DF8030004F02EF9BE
:1017A00005469DF802002044A8421AD99DF802007F
:1017B000281A241A9DF80100401CC0B28DF80100BF
:1017C00000208DF802009DF801000D2810D10120A5
:1017D0008DF801009DF80300401CC0B28DF8030095
:1017E00006E09DF802002044C0B28DF8020000E03F
:1017F000D0E700BF0720B4FBF0F100FB114009491E
:1018000009780844C0B28DF800009DF80000072850
:1018100005DB9DF80000C01FC0B28DF800000098E5
:101820003CBD0000EE00002038B5174800780128C4
:1018300029DD6FF07F400AF0A1FA044600200AF08B
:101840009DFA0546104800940078801E692202EB3C
:10185000C00081B22B4691220CA009F035FD0A4848
:101860000078401E08490870002107480078401E93
:10187000074A11540448007806490978884202D181
:1018800000200449087038BD3E01002020000000FF
:10189000740600203F01002038B5044600200AF0FD
:1018A0006DFA054614234FF49B72022100904FF409
:1018B000967009F015FB4FF46E400AF05FFA05468A
:1018C000052340F2331202210090101F09F008FB9B
:1018D0004FF46E400AF052FA054614234FF49B72FF
:1018E000052100904FF4967009F062FC4FF46E40B1
:1018F0000AF044FA0546132340F2351206210090FF
:1019000040F22D1009F0ECFA192C0DDA00200AF043
:1019100035FA05460F2340F235120621009040F2B9
:101920002D1009F0DDFA24E0192C0FDB322C0DDA32
:1019300000200AF023FA05460C2340F23512062156
:10194000009040F22D1009F0CBFA12E0322C0FDBA0
:101950004B2C0DDA00200AF011FA0546092340F25B
:1019600035120621009040F22D1009F0B9FA00E07E
:1019700000BF38BD10B50020054908700AF0FEF917
:10198000044609F095FA042001F016FB10BD000092
:1019900031010020F8B5044600200AF0EFF90546B1
:1019A0004FF47F000AF0EAF90646601E00EB4001A2
:1019B00001EBC0001E2101EB400082B233468C21B6
:1019C0000248009509F080FCF8BD00009538010838
:1019D00038B500200AF0D2F9044614234FF49B7264
:1019E000022100904FF4967009F07AFA4FF46E409D
:1019F0000AF0C4F9044623460522022140F22F10C2
:101A000009F028FC4FF46E400AF0B8F9044623466A
:101A10000522022140F2331009F01CFC4FF46E4005
:101A20000AF0ACF9044623460B2207214FF49670C6
:101A300009F036FB4FF46E400AF0A0F904460F237C
:101A40004FF49A7208210090901F09F049FA4FF460
:101A50006E400AF093F9044623460522102140F215
:101A60002F1009F01DFB4FF46E400AF087F9044671
:101A70002346032211214FF4987009F011FB4FF413
:101A80006E400AF07BF9044623460422112140F2FD
:101A9000311009F0DFFB38BD2DE9FC41002440E0A6
:101AA000621C22A101A80FF031FB204604EBD0718B
:101AB0004910A4EB4101C9B100200AF05FF90646C4
:101AC0001C480AF05BF9074604EBD470401000EBA9
:101AD000400101EB00102A2101EB400082B23B469D
:101AE000A82101A8009609F0EFFB18E000200AF0F9
:101AF00045F906460F480AF041F9074604EBD47051
:101B0000401000EB400101EB00102A2101EB4000E6
:101B100082B23B46082101A8009609F0D5FB601C63
:101B2000C4B2082CBCDBBDE8FC8100002530326467
:101B30003A00000032F0F00038B511F051FB0C49CA
:101B4000B1F9000000230522012107F0B7FA0020B7
:101B50000AF014F904464FF46E400AF00FF90546F6
:101B60002B46022264210348009409F0ADFB38BDE6
:101B7000820100206806002038B54FF46E400AF05C
:101B8000FDF80446122340F20F1208210090501E67
:101B900009F0A6F94FF46E400AF0F0F80446234627
:101BA000062207214FF4867009F07AFA4FF46E404E
:101BB0000AF0E4F8044623460422062140F20D1000
:101BC00009F06EFA4FF46E400AF0D8F80446234646
:101BD000022205214FF4877009F062FA4FF46E403B
:101BE0000AF0CCF804460F234FF48A7205210090C6
:101BF000501E09F075F94FF46E400AF0BFF8044624
:101C000023460622102140F2111009F049FA4FF440
:101C10006E400AF0B3F804462346042211214FF423
:101C2000897009F03DFA4FF46E400AF0A7F80446B7
:101C300023460222122140F2131009F031FA38BD76
:101C40007CB5012085490870854908706FF07F4098
:101C50000AF094F80546F0234FF4A0728221009018
:101C6000002009F03DF96FF07F400AF087F8054643
:101C700000200AF083F806467A490095097DC1EBF9
:101C80000111794A02EB4100334691223C2109F0CF
:101C90001BFB00200AF072F80546A323C8228F21FF
:101CA0000090642009F084FA43F2FF300AF066F8ED
:101CB00005461A233C228C210090FF2001F01CFADB
:101CC00043F2FF300AF05AF805466FF07F400AF001
:101CD00055F8064663490095097DC1EB0111624A3A
:101CE00002EB4101881D334691224FF48C7109F0BB
:101CF000EBFA43F2FF300AF041F805461A233E2280
:101D0000D2210090052001F0F7F943F2FF300AF0EC
:101D100035F805466FF07F400AF030F80646514925
:101D20000095097DC1EB01114F4A02EB410101F120
:101D30000C003346D722142109F0C6FA43F2FF30D3
:101D40000AF01CF805461A233E22D2210090E12019
:101D500001F0D2F943F2FF300AF010F805466FF0B7
:101D60007F400AF00BF806463E490095097DC1EB1D
:101D700001113D4A02EB410101F112003346D72225
:101D8000F02109F0A1FA002009F0F8FF0546CA2366
:101D900040F23912AA210090072009F0A1F800248E
:101DA0002BE0621C31A101A80FF0B0F94FF47F00C5
:101DB00009F0E4FF054604EB04110722009002EB52
:101DC00041001F231A46AA2101F096F94FF47F0023
:101DD00009F0D4FF05466FF07F4009F0CFFF0646BB
:101DE00004EB0410132202EB40013346B12201A898
:101DF000009509F069FA601CC4B2092CD1DB0024FB
:101E000028E043F2FF3009F0B9FF054604EB041166
:101E10005722009002EB41001F231A46CC2101F00B
:101E20006BF943F2FF3009F0A9FF05466FF07F40E0
:101E300009F0A4FF064604EB0412632303EB4201FE
:101E40000B4A02EB44003346D322009509F03CFADA
:101E5000601CC4B2032CD4DB7CBD00003D0100201B
:101E60003E01002034050020363C010825640000B6
:101E7000723C010831B582B01A4800780A2830DA7D
:101E80001948007818B19DF808002E2829D002A919
:101E90001648FEF7CEF96FF07F4009F06FFF044659
:101EA000002009F06BFF05460E4800940078401EA4
:101EB000692202EBC00081B22B46912202A809F0F0
:101EC00003FA0948007838B99DF808002E2803D194
:101ED000044800780449087002480078401C014911
:101EE00008703EBD3E0100203F0100207406002026
:101EF00010B500201449087014490870144908707E
:101F000014480078012806D0022807D0032808D0FA
:101F100004280CD108E000F067FF09E000F03CFC69
:101F200006E000F0A3FC03E0FFF724FD00E000BFA3
:101F300000BF0848007807F0C1FB07480178054852
:101F4000007800F00BF810BD3E0100203D0100209C
:101F50003F010020320100203101002003B587B08D
:101F60000798012806D0022805D003287ED004282F
:101F70007DD12AE3C5E3FE480078012817D1FD484A
:101F800009F0FCFE0390002009F0F8FE029003988F
:101F90000090F9488078401E00EB8000F749084423
:101FA00001901E225021029B09F08EF916E00020BC
:101FB00009F0E4FE0390EF4809F0E0FE0290039878
:101FC0000090ED488078401E00EB8000EB4908440B
:101FD00001901E225021029B09F076F9E448007816
:101FE00002281BD1E34809F0C9FE0390002009F044
:101FF000C5FE029003980090DF48007D00EB800052
:10200000DF4901EBC000DC49C97A00EBC100019057
:1020100034225021029B09F057F91AE0002009F000
:10202000ADFE0390D34809F0A9FE029003980090FA
:10203000D148007D00EB8000D14901EBC000CE49C2
:10204000C97A00EBC100019034225021029B09F0B3
:102050003BF9C948B0F90D00002305220121039086
:1020600007F02CF8C2480078032801E01FE147E39D
:1020700010D1C04809F082FE0390002009F07EFED6
:102080000290039800904A225021BE48029B09F01A
:102090001BF90FE0002009F071FE0390B54809F02C
:1020A0006DFE0290039800904A225021B548029B91
:1020B00009F00AF9B048B0F90F0000230522012108
:1020C000039006F0FBFFAA480078042810D1A94825
:1020D00009F054FE0390002009F050FE029003988E
:1020E000009060225021A748029B09F0EDF80FE014
:1020F000002009F043FE03909E4809F03FFE029045
:1021000003980090602250219E48029B09F0DCF861
:1021100097480078052816D1964809F02FFE0390BD
:10212000002009F02BFE0290039800909248807ADC
:1021300000EB40009449084401901E22F021029BCC
:1021400009F0C2F815E0002009F018FE0390894854
:1021500009F014FE0290039800908748807A00EB03
:1021600040008949084401901E22F021029B09F099
:10217000ABF87F48007806281DD17E4809F0FEFDA7
:102180000390002009F0FAFD0290039800907A482D
:10219000007D00EBC00101EB00107C49084476494A
:1021A000097B01EB8101084401903422F021029B5C
:1021B00009F08AF81CE0002009F0E0FD03906D486A
:1021C00009F0DCFD0290039800906B48007D00EB65
:1021D000C00101EB00106D4908446749097B01EB20
:1021E0008101084401903422F021029B09F06CF82F
:1021F0005F480078072816D15E4809F0BFFD0390BC
:10220000002009F0BBFD0290039800905A48407CE2
:1022100000EB80005E49084401904A22F021029BB5
:1022200009F052F815E0002009F0A8FD039051488C
:1022300009F0A4FD0290039800904F48407C00EB09
:1022400080005349084401904A22F021029B09F082
:102250003BF84948408A02464EA1039004A80EF07C
:1022600055FF43480078082810D1424809F086FD00
:102270000390002009F082FD0290039800906022F4
:10228000F02104A8029B09F01FF80FE0002009F0DC
:1022900075FD0390374809F071FD02900398009096
:1022A0006022F02104A8029B09F00EF829E23048D0
:1022B0000078012817D12F4809F060FD0390002015
:1022C00009F05CFD0290039800902B48007D00EB24
:1022D0008000324901EB4000019082225021029B94
:1022E00008F0F2FF16E0002009F048FD03902148B5
:1022F00009F044FD0290039800901F48007D00EB18
:102300008000264901EB4000019082225021029B6F
:1023100008F0DAFF16480078022817D1154809F0AE
:102320002DFD0390002009F029FD029003980090F4
:102330001148407D00EB8000194901EB40000190FD
:1023400094225021029B08F0BFFF31E0002009F0E9
:1023500015FD0390074809F011FD029003980090C5
:102360000548407D00EB80000D4901EB400019E07D
:102370003101002032F0F00034050020CB38010894
:102380002039010868060020F33801087039010877
:10239000DE3901082530346400000000743A010879
:1023A000A63A0108019094225021029B08F08CFF6C
:1023B000D748007803281FD1D64809F0DFFC0390E6
:1023C000002009F0DBFC029003980090D248007DC9
:1023D00000EBC00101EB0010D04901EB4000CE49F9
:1023E000897D01EB810100EB41000190A622502183
:1023F000029B08F069FF1EE0002009F0BFFC03907B
:10240000C44809F0BBFC029003980090C248007DCC
:1024100000EBC00101EB0010C04901EB4000BE49D8
:10242000897D01EB810100EB41000190A622502142
:10243000029B08F049FFB648007804281FD1B54830
:1024400009F09CFC0390002009F098FC029003988E
:102450000090B148007D00EBC00101EB0010AF49D6
:1024600001EB4000AC49097E01EB810100EB41002A
:102470000190B8225021029B08F026FF1EE00020A8
:1024800009F07CFC0390A34809F078FC02900398C3
:102490000090A148007D00EBC00101EB00109F49B6
:1024A00001EB40009C49097E01EB810100EB4100FA
:1024B0000190B8225021029B08F006FF9448007852
:1024C00007281FD1934809F059FC0390002009F018
:1024D00055FC0290039800908F48007D00EBC001EE
:1024E00001EB00108E4901EB40008B49C97D01EBE7
:1024F000810100EB41000190A622F021029B08F02F
:10250000E3FE1EE0002009F039FC0390814809F049
:1025100035FC0290039800907F48007D00EBC001DD
:1025200001EB00107E4901EB40007B49C97D01EBC6
:10253000810100EB41000190A622F021029B08F0EE
:10254000C3FE7348007808281FD1724809F016FCB2
:102550000390002009F012FC0290039800906E484E
:10256000007D00EBC00101EB00106E4901EB400063
:102570006949497E01EB810100EB41000190B822DD
:10258000F021029B08F0A0FE1EE0002009F0F6FBFF
:102590000390604809F0F2FB0290039800905E48B7
:1025A000007D00EBC00101EB00105E4901EB400033
:1025B0005949497E01EB810100EB41000190B822AD
:1025C000F021029B08F080FE9BE051480078012832
:1025D00010D1504809F0D2FB0390002009F0CEFB47
:1025E0000290039800901E2250214F48029B08F051
:1025F0006BFE0FE0002009F0C1FB0390454809F095
:10260000BDFB0290039800901E2250214648029B79
:1026100008F05AFE3E480078022811D13D4809F0E2
:10262000ADFB0390002009F0A9FB029003980090F5
:10263000342250213C480F30029B08F045FE10E048
:10264000002009F09BFB0390324809F097FB0290B1
:10265000039800903422502133480F30029B08F039
:1026600033FE2B480078032811D12A4809F086FB55
:102670000390002009F082FB0290039800904A2208
:10268000502129481E30029B08F01EFE10E0002059
:1026900009F074FB03901F4809F070FB0290039847
:1026A00000904A22502120481E30029B08F00CFE68
:1026B00017480078042811D1164809F05FFB0390F1
:1026C000002009F05BFB02900398009060225021EB
:1026D00015482D30029B08F0F7FD10E0002009F0AE
:1026E0004DFB03900B4809F049FB029003980090C2
:1026F000602250210C482D30029B08F0E5FD00E0DF
:1027000000BF00BF079806F0D9FF09B000BD000068
:102710003101002032F0F00034050020D83A0108E1
:102720003C3B0108A03B010859380108F8B50020DE
:1027300009F024FB054608F0BBFB9621322000F08F
:10274000BDFE4FF4487010F0FBF8002009F016FBB6
:10275000054608F0ADFB002419E0002009F00EFB4F
:1027600005466FF07F4009F009FB064604EBC40103
:1027700049008A1C074901EB4410334602210095A9
:1027800008F0A2FDC82000F082FE601CC4B20A2C32
:10279000E3DBF8BD913C0108F8B500203049087032
:1027A00009F0ECFA054608F083FB022000F004FC77
:1027B000002451E0204604EBD0714910A4EB410104
:1027C00021B3002009F0DAFA064647F2CE1009F0EC
:1027D000D5FA074604EBD471491001EB410303EB32
:1027E000C1011E2303EB41018AB21E490096097DF7
:1027F00001EB81011C4B03EB011104EB840301EBA2
:1028000043003B46A82108F05FFD23E0002009F0CB
:10281000B5FA064647F2CE1009F0B0FA074604EBC7
:10282000D471491001EB410303EBC1011E2303EBFB
:1028300041018AB20B490096097D01EB81010A4BE7
:1028400003EB011104EB840301EB43003B46082139
:1028500008F03AFD601CC4B2082CABDBF8BD0000E8
:10286000310100203405002015360108F8B500209C
:102870005149087009F082FA054608F019FB032057
:1028800000F09AFB002420E0002009F077FA0546CA
:1028900047F2CE1009F072FA064648490095097DC4
:1028A000C1EB0111C1EBC101454B03EB4101C4EB8D
:1028B0000413C81804EBC401162303EB410233468A
:1028C000082108F001FD601CC4B20A2CDCDB0024E6
:1028D00023E0002009F052FA054647F2CE1009F035
:1028E0004DFA064635490095097DC1EB0111C1EB52
:1028F000C101334B03EB410304F10A01C1EB0111A8
:102900005818A11D01EBC101162303EB4102334608
:10291000A82108F0D9FC601CC4B2042CD9DB002427
:1029200035E0022C18DA002009F028FA05466FF08D
:102930007F4009F023FA064604EBC401162303EB9B
:10294000410204EB84011F4B03EB810033469021CD
:10295000009508F0B9FC18E0002009F00FFA0546D0
:102960006FF07F4009F00AFA0646611C01EBC101D5
:10297000162303EB410204EB8401124B03EB8100AD
:1029800033469021009508F09FFC601CC4B2052CD2
:10299000C7DB002009F0F2F905466FF07F4009F02F
:1029A000EDF9064633463A22902104481A30009544
:1029B00008F08AFCF8BD0000310100203405002039
:1029C000B5360108103A010838B5002009F0D6F9EB
:1029D00004466FF07F4009F0D1F90546064900949E
:1029E0008978491E01EB8101044A88182B4601228F
:1029F0005F2108F069FC38BD34050020CB380108A0
:102A00002DE9F84300250024C6E1204604EBD071EF
:102A10004910A4EB410100297ED0EB4830F91400A5
:102A200047F6FF7188423AD1601CE849097888422C
:102A30001AD16FF07F4009F0A1F90746002009F094
:102A40009DF9804604EBD470401000EB400101EB8F
:102A500000102A2101EB400082B24346D021DCA0C5
:102A6000009708F0CFFB95E1002009F087F90746B1
:102A70006FF07F4009F082F9804604EBD47040107B
:102A800000EB400101EB00102A2101EB400082B273
:102A90004346D021CEA0009708F0B4FB7AE1CA48A3
:102AA00030F81410CC4800EB44000088084400B211
:102AB000CA4921F8140031F914000023052201212C
:102AC00006F0FCFAC54830F91400C3492E39B1F9B3
:102AD0000D10884208DCC14830F91400BE492E3977
:102AE000B1F90F1088423DDA0125601CB749097819
:102AF00088421CD14FF47F0009F040F907460020BE
:102B000009F03CF9804604EBD470401000EB400122
:102B100001EB00102A2100E05FE001EB400082B2EF
:102B20004346D021AE48009708F06CFB32E100200C
:102B300009F024F907464FF47F0009F01FF9804699
:102B400004EBD470401000EB400101EB00102A218F
:102B500001EB400082B24346D021A148009708F023
:102B600051FB17E1601C9949097888421AD14FF44A
:102B70006E4009F003F90746002009F0FFF880468F
:102B800004EBD470401000EB400101EB00102A214F
:102B900001EB400082B24346D0219148009708F0F3
:102BA00031FBF7E0002009F0E9F807464FF46E40EA
:102BB00009F0E4F8804604EBD470401000EB4001CB
:102BC00001EB00102A2101EB400082B24346D021E4
:102BD0008348009708F016FBDCE07B4830F91400CE
:102BE00047F6FF7188423AD1601C784909788842DB
:102BF0001AD16FF07F4009F0C1F80746002009F0B4
:102C0000BDF8804604EBD470401000EB400101EBAE
:102C100000102A2101EB400082B2434630216CA013
:102C2000009708F0EFFAB5E0002009F0A7F8074692
:102C30006FF07F4009F0A2F8804604EBD47040109A
:102C400000EB400101EB00102A2101EB400082B2B1
:102C5000434630215EA0009708F0D4FA9AE05A4823
:102C600030F814105C4800EB44000088084400B2BF
:102C70005A4921F8140031F91400002305220121DA
:102C800006F01CFA554830F9140053492E39B1F9B1
:102C90000D10884208DC514830F914004E492E3995
:102CA000B1F90F1088423BDA0125601C47490978C9
:102CB00088421AD14FF47F0009F060F807460020DF
:102CC00009F05CF8804604EBD470401000EB400142
:102CD00001EB00102A2101EB400082B24346302173
:102CE0003F48009708F08EFA54E0002009F046F8BB
:102CF00007464FF47F0009F041F8804604EBD4709A
:102D0000401000EB400101EB00102A2101EB4000D4
:102D100082B2434630213248009708F073FA39E016
:102D2000601C2A49097888421AD14FF46E4009F094
:102D300025F80746002009F021F8804604EBD470FE
:102D4000401000EB400101EB00102A2101EB400094
:102D500082B2434630212248009708F053FA19E026
:102D6000002009F00BF807464FF46E4009F006F812
:102D7000804604EBD470401000EB400101EB0010E2
:102D80002A2101EB400082B24346302114480097CB
:102D900008F038FA601CC4B2082CFFF636AE012DDC
:102DA00009D10D482E38007B28B90122D1020D48E7
:102DB00003F054FC05E000224FF40061094803F0E1
:102DC0004DFCBDE8F8830000900600203101002092
:102DD0002D2D2D2D2D2D00006205002072050020C7
:102DE00068060020000C014070B500201D490870E5
:102DF00008F0C4FF054608F05BF8012000F0DCF89D
:102E0000FFF7E2FD00F0F2F8FEF746FE002411E0C5
:102E10006FF07F4008F0B2FF0546262204FB02F067
:102E200000F11E012B4640F23F12012008F038F954
:102E3000601CC4B2052CEBDB002410E06FF07F4077
:102E400008F09CFF054604EB84014901491C88B247
:102E50002B4698221E2108F0FDF9601CC4B2032CF9
:102E6000ECDB70BD3101002030B587B044494548E6
:102E700008F0D0FF424880780090414843780278BB
:102E800041A104A80EF042F93E48807800903D48E8
:102E90004378C27840A101A80EF038F94348007881
:102EA000012802D0032866D11EE0002008F066FF4A
:102EB00004463F4808F062FF05462B460122AA213E
:102EC00004A8009408F000FA002008F057FF044618
:102ED000374808F053FF05462B46C022B42101A80D
:102EE000009408F0F1F947E03248007805280FD146
:102EF0002F4808F043FF0446002008F03FFF054636
:102F00002B468222F02101A8009408F0DDF90EE0A2
:102F1000002008F033FF0446254808F02FFF05463F
:102F20002B468222F02101A8009408F0CDF9214817
:102F3000007806280FD11E4808F020FF0446002024
:102F400008F01CFF05462B469422F02104A80094AB
:102F500008F0BAF90EE0002008F010FF044614480B
:102F600008F00CFF05462B469422F02104A800949B
:102F700008F0AAF900E000BF00BF07B030BD0000B4
:102F80002801002024010020253032643A25303207
:102F9000643A2530326400003230253032642D2509
:102FA0003032642D253032640000000032010020F0
:102FB00032F0F00031010020F8B504464FF46E40C5
:102FC00008F0DCFE0546002008F0D8FE0646611E2B
:102FD000C1EB0111044A88183346012211460095BD
:102FE00008F072F9F8BD00007F35010838B50020FF
:102FF00008F0C4FE04466FF07F4008F0BFFE0546AF
:103000002B4603227F2115A0009408F05DF90020D3
:1030100008F0B4FE04466FF07F4008F0AFFE0546AE
:103020002B4603229F210EA0009408F04DF90020AA
:1030300008F0A4FE04466FF07F4008F09FFE0546AE
:1030400008490094897A01EB4101074A88182B4608
:1030500001228F2108F038F938BD00002800000057
:103060002900000034050020F338010838B5214854
:1030700008F084FE044609234FF480720621009074
:10308000FA2007F02DFF002008F078FE0446072301
:10309000FC2219460090104607F022FF002008F09D
:1030A0006DFE04460723FE2219460090104607F0E5
:1030B00017FF104808F062FE0446112340F2011287
:1030C0000A210090F92007F00BFF0A4808F056FE8D
:1030D0000446234607221221FA2007F0E1FF0548A3
:1030E00008F04CFE0446234603221321FC2007F07F
:1030F000D7FF38BD2176EE002DE9F84304460D4692
:1031000017461E46DDF820806FF07F4008F036FE3F
:1031100081467B1E9AB26B1C99B2631C98B24B46D7
:1031200007F0BEFF6FF07F4008F028FE8146731E57
:103130009AB26B1C99B2631C98B24B4608F08AF89D
:103140006FF07F4008F01AFE8146731E9AB26B1C26
:1031500099B2A31C98B24B4608F07CF8002008F006
:103160000DFE81464B463A462946204607F098FF19
:10317000002008F003FE81464B4632462946204691
:1031800008F068F8002008F0F9FD8146E11988B2DE
:103190004B463246294608F05DF8002008F0EEFD67
:1031A0008146711C8AB2E119491C88B24B462946F6
:1031B00008F050F8002008F0E1FD8146781C82B24A
:1031C000A81981B24B46204607F06AFF05EB060CB2
:1031D000ACF1010C1FFA8CF304EB070CACF1010C01
:1031E0001FFA8CF205F1020C1FFA8CF104F1030CAA
:1031F0001FFA8CF0CDF8008007F072FEBDE8F8836E
:1032000070B504466FF07F4008F0B8FD054607F042
:103210004FFE012C06D0022C1BD0032C32D0042CE4
:1032200060D146E04FF47F0008F0A8FD05462B462C
:103230000A221421084607F033FF4FF47F0008F0FC
:103240009DFD05462B460A220F21192008F002F8A1
:1032500048E04FF47F0008F091FD05462B460A2216
:1032600014214FF4967007F01BFF4FF47F0008F015
:1032700085FD05462B460A220F2140F2311007F04A
:10328000E9FF2FE04FF47F0008F078FD05462B465C
:103290000A22DC21142007F003FF4FF47F0008F01E
:1032A0006DFD05462B460A22D721192007F0D2FFD3
:1032B00018E04FF47F0008F061FD05462B460A2216
:1032C000DC214FF4967007F0EBFE4FF47F0008F01E
:1032D00055FD05462B460A22D72140F2311007F052
:1032E000B9FF00BF00BF70BD10B5012280210448A6
:1032F00003F0B4F900F080F800F022F810BD0000EF
:10330000001001401FB58020009001200290002095
:103310000190032003906946014802F0F7FF1FBDAA
:10332000001001401FB58020009001200190032073
:1033300003906946014802F0E9FF1FBD00100140FB
:1033400010B50024FFF7DEFF04E0601CC4B20120CA
:103350000FF014FB80210F4803F078F908B1642CBA
:10336000F3DB642C01DB012010BD002404E0601CB1
:10337000C4B201200FF002FB8021064803F066F979
:1033800008B9F02CF3DBF02C01DB0120ECE7002086
:10339000EAE700000010014010B5FFF7C3FF00226C
:1033A00080210B4803F05AF90A200FF0E7FAFFF7E3
:1033B000A9FF8021064803F049F9012801D1012421
:1033C00000E000242D200FF0D9FA204610BD0000A7
:1033D0000010014070B50026002408E0FFF7DCFF74
:1033E000054605FA04F03043C6B2601CC4B2082C8E
:1033F000F4DB304670BD000010B5FFF793FF0022EC
:103400008021084803F02AF940F2EE200FF0B6FAC6
:1034100001228021034803F021F90F200FF0AEFABA
:1034200010BD00000010014070B50446FFF77AFFA0
:10343000002526E004F00106641086B100228021F8
:10344000114803F00BF908200FF098FA01228021AF
:103450000D4803F003F93A200FF090FA0FE0002234
:103460008021094803F0FAF846200FF087FA01227C
:103470008021054803F0F2F802200FF07FFA681C63
:10348000C5B2082DD6DB70BD00100140704706E0C4
:1034900042F63D0100E0491E0029FCD1401E0028F3
:1034A000F6D1704706E00A2101E04A1ED1B2002998
:1034B000FBDC401E0028F6D17047000003B587B042
:1034C000FE4808F05BFC034629220690DDE907016F
:1034D00007F0E6FDF94808F051FC06900898401EF8
:1034E00080B205900798401E80B204902C22DDE93E
:1034F000051307F0D5FDF14808F040FC0690089848
:10350000801E80B205900798401E80B204902E2243
:10351000DDE9051307F0C4FDE84808F02FFC06902C
:103520000898C01E80B205902E220146DDE90630C3
:1035300007F0B6FDE14808F021FC06900898001F4E
:1035400080B205900798801C80B204902E22DDE99D
:10355000051307F0A5FDD94808F010FC069008985F
:10356000401F80B205900798233080B204900E224D
:10357000DDE9051307F094FDD04808F0FFFB069045
:103580000898801F80B205900798233080B204907D
:103590000F22DDE9051307F083FDC84808F0EEFBB4
:1035A00006900898C01F80B205900798233080B21B
:1035B00004900F22DDE9051307F072FDBF4808F003
:1035C000DDFB06900898083880B2059007982430F3
:1035D00080B204900E22DDE9051307F061FDB748C3
:1035E00008F0CCFB06900898093880B2059007983F
:1035F000243080B204900F22DDE9051307F050FD5E
:10360000AE4808F0BBFB069008980A3880B20590D7
:103610000798253080B204900E22DDE9051307F0EB
:103620003FFDA64808F0AAFB069008980B3880B228
:1036300005900798253080B204900E22DDE905132D
:1036400007F02EFD9D4808F099FB069008980C386D
:1036500080B205900798253080B204900E22DDE9F3
:10366000051307F01DFD954808F088FB06900898A3
:103670000D3880B205900798263080B204900E2253
:10368000DDE9051307F00CFD8C4808F077FB069088
:1036900008980E3880B205900798253080B20490C3
:1036A0000F22DDE9051307F0FBFC844808F066FBF8
:1036B000069008980F3880B205900798263080B29F
:1036C00004900E22DDE9051307F0EAFC7B4808F0C0
:1036D00055FB06900898103880B205900798263060
:1036E00080B204900E22DDE9051307F0D9FC73487F
:1036F00008F044FB06900898113880B205900798AE
:10370000263080B204900F22DDE9051307F0C8FCD3
:103710006A4808F033FB06900898123880B205908A
:103720000798273080B204900E22DDE9051307F0D8
:10373000B7FC624808F022FB06900898133880B264
:1037400005900798273080B204900E22DDE905131A
:1037500007F0A6FC594808F011FB069008981438A9
:1037600080B205900798273080B204900F22DDE9DF
:10377000051307F095FC514808F000FB06900898E7
:10378000153880B205900798283080B204900E2238
:10379000DDE9051307F084FC484808F0EFFA0690CD
:1037A0000898163880B205900798283080B20490A7
:1037B0000E22DDE9051307F073FC404808F0DEFA3D
:1037C00006900898173880B205900798283080B284
:1037D00004900E22DDE9051307F062FC374808F07B
:1037E000CDFA06900898183880B2059007982830CE
:1037F00080B204900E22DDE9051307F051FC2F483A
:1038000008F0BCFA06900898193880B2059007981D
:10381000293080B204900D22DDE9051307F040FC49
:10382000264808F0ABFA069008981A3880B205903E
:103830000798293080B204900E22DDE9051307F0C5
:103840002FFC1E4808F09AFA069008981B3880B2A0
:1038500005900798293080B204900E22DDE9051307
:1038600007F01EFC154808F089FA069008981C38E5
:1038700080B2059007982A3080B204900E22DDE9CC
:10388000051307F00DFC0D4808F078FA069008982B
:103890001D3880B2059007982A3080B204900E221D
:1038A000DDE9051307F0FCFB044808F067FA069011
:1038B00008981E3880B20590079801E02176EE0046
:1038C0002A3080B204900E22DDE9051307F0E8FBF0
:1038D000FE4808F053FA069008981F3880B2059009
:1038E00007982A3080B204900F22DDE9051307F013
:1038F000D7FBF64808F042FA06900898203880B2C4
:10390000059007982A3080B204900F22DDE9051354
:1039100007F0C6FBED4808F031FA06900898213808
:1039200080B2059007982B3080B204900D22DDE91B
:10393000051307F0B5FBE54808F020FA0690089853
:10394000223880B2059007982B3080B204900E2266
:10395000DDE9051307F0A4FBDC4808F00FFA069038
:103960000898233880B2059007982C3080B20490D4
:103970000D22DDE9051307F093FBD44808F0FEF9AA
:1039800006900898243880B2059007982C3080B2B1
:1039900004900E22DDE9051307F082FBCB4808F006
:1039A000EDF906900898253880B2059007982C30DC
:1039B00080B204900E22DDE9051307F071FBC348C5
:1039C00008F0DCF906900898263880B20590079830
:1039D0002C3080B204900F22DDE9051307F060FB64
:1039E000BA4808F0CBF906900898273880B20590BD
:1039F00007982C3080B204900F22DDE9051307F000
:103A00004FFBB24808F0BAF906900898283880B2FF
:103A1000059007982D3080B204900E22DDE9051341
:103A200007F03EFBA94808F0A9F906900898293844
:103A300080B2059007982D3080B204900E22DDE907
:103A4000051307F02DFBA14808F098F90690089897
:103A50002A3880B2059007982D3080B204900F224A
:103A6000DDE9051307F01CFB984808F087F906907C
:103A700008982B3880B2059007982D3080B20490BA
:103A80000F22DDE9051307F00BFB904808F076F9EB
:103A9000069008982C3880B2059007982E3080B296
:103AA00004900E22DDE9051307F0FAFA874808F0C2
:103AB00065F9069008982D3880B2059007982E3049
:103AC00080B204900E22DDE9051307F0E9FA7F4881
:103AD00008F054F9069008982E3880B2059007989F
:103AE0002E3080B204900F22DDE9051307F0D8FADA
:103AF000764808F043F9069008982F3880B2059070
:103B000007982F3080B204900E22DDE9051307F0EC
:103B1000C7FA6E4808F032F906900898303880B23B
:103B2000059007982F3080B204900E22DDE905132E
:103B300007F0B6FA654808F021F906900898313880
:103B400080B2059007982F3080B204900F22DDE9F3
:103B5000051307F0A5FA5D4808F010F906900898DB
:103B6000323880B2059007982F3080B204900F222F
:103B7000DDE9051307F094FA544808F0FFF80690C1
:103B80000898333880B205900798303080B204909E
:103B90000E22DDE9051307F083FA4C4808F0EEF831
:103BA00006900898343880B205900798303080B27B
:103BB00004900E22DDE9051307F072FA434808F07D
:103BC000DDF806900898353880B2059007983030B7
:103BD00080B204900E22DDE9051307F061FA3B483C
:103BE00008F0CCF806900898363880B2059007980F
:103BF000313080B204900D22DDE9051307F050FA50
:103C0000324808F0BBF806900898373880B2059023
:103C10000798313080B204900E22DDE9051307F0D9
:103C20003FFA2A4808F0AAF806900090089833381E
:103C300080B205900798543080B2049008983638C6
:103C400080B203900798483080B2029003A90EC951
:103C500007F046F91D4808F091F8069008983438A6
:103C600080B205900798473080B204900D22DDE9BC
:103C7000051307F015FA154808F080F80690009033
:103C800008982F3880B205900798533080B204907E
:103C90000898333880B203900798473080B202907A
:103CA00003A90EC907F01CF9084808F067F8069048
:103CB000009008982C3880B205900798523080B256
:103CC000049008982F3880B2039001E02176EE002E
:103CD0000798463080B2029003A90EC907F000F998
:103CE000FE4808F04BF806900898283880B20590F6
:103CF0000798443080B204900E22DDE9051307F0E6
:103D0000CFF9F64808F03AF806900898273880B2BC
:103D100005900798453080B204900D22DDE9051327
:103D200007F0BEF9ED4808F029F806900898263803
:103D300080B205900798443080B204900D22DDE9EE
:103D4000051307F0ADF9E54808F018F80690089853
:103D5000253880B205900798443080B204900C2238
:103D6000DDE9051307F09CF9DC4808F007F8069038
:103D700000900898213880B205900798503080B2A2
:103D800004900898243880B203900798433080B29A
:103D9000029003A90EC907F0A3F8D04807F0EEFF80
:103DA00006900898213880B205900798433080B279
:103DB00004900C22DDE9051307F072F9C74807F0FB
:103DC000DDFF0690009008981D3880B20590079896
:103DD0004F3080B204900898203880B20390079842
:103DE000423080B2029003A90EC907F079F8BB48AF
:103DF00007F0C4FF069008981D3880B20590079818
:103E0000423080B204900C22DDE9051307F048F936
:103E1000B24807F0B3FF0690009008981A3880B2B5
:103E2000059007984E3080B2049008981C3880B2F4
:103E300003900798413080B2029003A90EC907F0A1
:103E40004FF8A64807F09AFF069008981A3880B2F3
:103E500005900798413080B204900C22DDE90513EB
:103E600007F01EF99D4807F089FF0690009008981A
:103E7000163880B2059007984D3080B204900898AB
:103E8000193880B203900798403080B2029003A99D
:103E90000EC907F025F8914807F070FF06900898C2
:103EA000163880B2059007983F3080B204900E22F9
:103EB000DDE9051307F0F4F8884807F05FFF069086
:103EC00000900898133880B2059007984C3080B263
:103ED00004900898153880B2039007983F3080B25C
:103EE000029003A90EC906F0FBFF7C4807F046FFCD
:103EF000069000900898113880B2059007984B30D2
:103F000080B204900898133880B2039007983F302D
:103F100080B2029003A90EC906F0E2FF6F4807F0D5
:103F20002DFF06900898113880B2059007983E3012
:103F300080B204900D22DDE9051307F0B1F867485F
:103F400007F01CFF0690009008980E3880B205908C
:103F500007984A3080B204900898103880B20390D5
:103F600007983E3080B2029003A90EC906F0B8FF50
:103F70005A4807F003FF0690009008980B3880B26B
:103F8000059007984A3080B2049008980E3880B2A5
:103F9000039007983D3080B2029003A90EC906F045
:103FA0009FFF4E4807F0EAFE069008980B3880B253
:103FB000059007983D3080B204900C22DDE905138E
:103FC00007F06EF8454807F0D9FE06900090089873
:103FD000C01F80B205900798493080B204900898BD
:103FE0000A3880B2039007983C3080B2029003A94F
:103FF0000EC906F075FF394807F0C0FE0690009024
:104000000898401F80B205900798483080B204900D
:104010000898C01F80B2039007983B3080B202908E
:1040200003A90EC906F05CFF2C4807F0A7FE069016
:1040300000900898C01E80B205900798473080B263
:1040400004900898401F80B2039007983A3080B2DD
:10405000029003A90EC906F043FF204807F08EFE28
:1040600006900898C01E80B2059007983A3080B23A
:1040700004900E22DDE9051307F012F8174807F047
:104080007DFE06900090089880B205900798473012
:1040900080B204900898801E80B2039007983A304E
:1040A00080B2029003A90EC906F01AFF0B4807F070
:1040B00065FE069007983A3080B205900C22069B68
:1040C000089906F0EDFF054807F058FE069008989D
:1040D000283880B205900798583001E02176EE002C
:1040E00080B204901722DDE9051306F0D9FFFE48DF
:1040F00007F044FE06900898273880B2059007988C
:10410000553080B204901B22DDE9051306F0C8FF8C
:10411000F54807F033FE06900898263880B20590DF
:104120000798543080B204901E22DDE9051306F092
:10413000B7FFED4807F022FE06900898253880B2B8
:1041400005900798533080B204902022DDE90513D2
:1041500006F0A6FFE44807F011FE06900898243800
:1041600080B205900798533080B204900322DDE9B5
:10417000051306F095FFDC4807F000FE069008984E
:10418000243880B205900798683080B204900C22E1
:10419000DDE9051306F084FFD34807F0EFFD069034
:1041A0000898233880B205900798533080B2049065
:1041B0000122DDE9051306F073FFCB4807F0DEFDB1
:1041C00006900898233880B205900798683080B22E
:1041D00004900C22DDE9051306F062FFC24807F0E7
:1041E000CDFD0690009008981F3880B20590079882
:1041F000743080B204900898223880B203900798F7
:10420000683080B2029003A90EC906F069FEB64874
:1042100007F0B4FD0690009008981C3880B2059015
:104220000798743080B2049008981F3880B20390C9
:104230000798673080B2029003A90EC906F050FEBD
:10424000A94807F09BFD069008981C3880B205909D
:104250000798663080B204900D22DDE9051306F060
:104260001FFFA14807F08AFD069008981B3880B20E
:1042700005900798673080B204900C22DDE90513A1
:1042800006F00EFF984807F079FD069008981A3856
:1042900080B205900798663080B204900D22DDE967
:1042A000051306F0FDFE904807F068FD06900090AB
:1042B0000898173880B205900798723080B2049041
:1042C0000898193880B203900798653080B2029040
:1042D00003A90EC906F004FE834807F04FFD0690BF
:1042E00000900898153880B205900798713080B218
:1042F00004900898173880B203900798653080B210
:10430000029003A90EC906F0EBFD774807F036FDD1
:10431000069000900898123880B205900798713086
:1043200080B204900898153880B2039007986430E2
:1043300080B2029003A90EC906F0D2FD6A4807F0C8
:104340001DFD0690009008980F3880B205900798E0
:10435000703080B204900898123880B203900798A9
:10436000633080B2029003A90EC906F0B9FD5E4821
:1043700007F004FD069008980F3880B20590079862
:10438000633080B204900C22DDE9051306F088FE4C
:10439000554807F0F3FC0690009008980B3880B25F
:1043A000059007986F3080B2049008980E3880B25C
:1043B00003900798623080B2029003A90EC906F0FC
:1043C0008FFD494807F0DAFC069008980B3880B258
:1043D00005900798623080B204900C22DDE9051345
:1043E00006F05EFE404807F0C9FC069008980A38BF
:1043F00080B205900798613080B204900D22DDE90B
:10440000051306F04DFE384807F0B8FC0690009002
:104410000898401F80B2059007986D3080B20490D4
:104420000898093880B203900798613080B20290F2
:1044300003A90EC906F054FD2B4807F09FFC069017
:1044400000900898801E80B2059007986C3080B26A
:1044500004900898401F80B203900798603080B2A3
:10446000029003A90EC906F03BFD1F4807F086FC29
:10447000069000900898401C80B2059007986C3018
:1044800080B204900898801E80B2039007985F3035
:1044900080B2029003A90EC906F022FD124807F06F
:1044A0006DFC06900898383880B2059007987F30E8
:1044B00080B204900C22DDE9051306F0F1FD0A48F4
:1044C00007F05CFC069000900898343880B20590A4
:1044D00007988B3080B204900898373880B20390E8
:1044E00007987E3080B201E02176EE00029003A9A9
:1044F0000EC906F0F5FCFE4807F040FC069000905F
:104500000898323880B2059007988A3080B20490BB
:104510000898343880B2039007987E3080B20290B9
:1045200003A90EC906F0DCFCF14807F027FC069051
:1045300000900898303880B205900798893080B292
:1045400004900898323880B2039007987D3080B28A
:10455000029003A90EC906F0C3FCE54807F00EFC63
:1045600006900898303880B2059007987C3080B269
:1045700004900D22DDE9051306F092FDDC4807F0FA
:10458000FDFB069008982F3880B2059007987C3084
:1045900080B204900C22DDE9051306F081FDD448B9
:1045A00007F0ECFB069008982E3880B2059007982B
:1045B0007C3080B204900D22DDE9051306F070FD19
:1045C000CB4807F0DBFB069008982D3880B20590A9
:1045D00007987C3080B204900C22DDE9051306F0C8
:1045E0005FFDC34807F0CAFB0690009008982A3880
:1045F00080B205900798883080B2049008982C38D3
:1046000080B2039007987B3080B2029003A90EC954
:1046100006F066FCB64807F0B1FB069000900898DB
:10462000273880B205900798873080B204900898A8
:104630002A3880B2039007987B3080B2029003A999
:104640000EC906F04DFCAA4807F098FB06900898A2
:10465000293880B205900798993080B204900C22D6
:10466000DDE9051306F01CFDA14807F087FB069065
:104670000898283880B205900798973080B2049047
:104680000D22DDE9051306F00BFD994807F076FBD6
:1046900006900898273880B2059007987A3080B243
:1046A00004900D22DDE9051306F0FAFC904807F0AE
:1046B00065FB06900898273880B2059007989630D9
:1046C00080B204900C22DDE9051306F0E9FC88486D
:1046D00007F054FB069000900898243880B20590AB
:1046E0000798863080B204900898263880B20390EC
:1046F00007987A3080B2029003A90EC906F0F0FB49
:104700007B4807F03BFB06900898263880B205905E
:104710000798943080B204900D22DDE9051306F06D
:10472000BFFC734807F02AFB06900898253880B232
:1047300005900798933080B204900C22DDE90513B0
:1047400006F0AEFC6A4807F019FB06900090089846
:10475000213880B205900798863080B2049008987E
:10476000243880B203900798793080B2029003A970
:104770000EC906F0B5FB5E4807F000FB06900898EE
:10478000243880B205900798923080B204900C22B1
:10479000DDE9051306F084FC554807F0EFFA0690B2
:1047A0000898233880B205900798913080B2049021
:1047B0000B22DDE9051306F073FC4D4807F0DEFA25
:1047C00006900898223880B2059007988F3080B202
:1047D00004900C22DDE9051306F062FC444807F062
:1047E000CDFA06900898213880B205900798783065
:1047F00080B204900D22DDE9051306F051FC3C481F
:1048000007F0BCFA06900898213880B20590079806
:104810008D3080B204900D22DDE9051306F040FCD6
:10482000334807F0ABFA06900898203880B205901C
:104830000798793080B204900C22DDE9051306F068
:104840002FFC2B4807F09AFA06900898203880B27F
:10485000059007988C3080B204900C22DDE9051396
:1048600006F01EFC224807F089FA069008981F38C7
:1048700080B205900798783080B204900D22DDE96F
:10488000051306F00DFC1A4807F078FA0690089810
:104890001F3880B2059007988A3080B204900D22AC
:1048A000DDE9051306F0FCFB114807F067FA0690F6
:1048B00008981E3880B205900798783080B204902E
:1048C0000C22DDE9051306F0EBFB094807F056FA68
:1048D000069008981E3880B205900798893080B2FB
:1048E00004900D22DDE9051306F0DAFB004801E033
:1048F0002176EE0007F042FA069008981D3880B243
:1049000005900798773080B204900D22DDE90513F9
:1049100006F0C6FBFE4807F031FA069008981D38ED
:1049200080B205900798873080B204900F22DDE9AD
:10493000051306F0B5FBF64807F020FA0690089834
:104940001C3880B205900798773080B204900C2212
:10495000DDE9051306F0A4FBED4807F00FFA069019
:1049600008981C3880B205900798863080B2049071
:104970001022DDE9051306F093FBE54807F0FEF988
:10498000069008981B3880B205900798773080B25F
:1049900004901F22DDE9051306F082FBDC4807F0D6
:1049A000EDF9069008981A3880B20590079876308D
:1049B00080B204901F22DDE9051306F071FBD44894
:1049C00007F0DCF906900898193880B2059007982E
:1049D000763080B204902022DDE9051306F060FBFA
:1049E000CB4807F0CBF906900898183880B20590AC
:1049F0000798763080B204902022DDE9051306F096
:104A00004FFBC34807F0BAF906900898173880B2F0
:104A100005900798753080B204902122DDE90513D6
:104A200006F03EFBBA4807F0A9F906900898163838
:104A300080B205900798763080B204901322DDE9A9
:104A4000051306F02DFBB24807F098F90690089878
:104A5000163880B2059007988A3080B204900C22F4
:104A6000DDE9051306F01CFBA94807F087F906905D
:104A70000898153880B205900798753080B2049078
:104A80001322DDE9051306F00BFBA14807F076F9C8
:104A900006900898153880B2059007988A3080B241
:104AA00004900C22DDE9051306F0FAFA984807F0A5
:104AB00065F906900898143880B20590079875300B
:104AC00080B204901222DDE9051306F0E9FA90485D
:104AD00007F054F906900898143880B205900798AA
:104AE0008A3080B204900D22DDE9051306F0D8FA71
:104AF000874807F043F906900898133880B205906C
:104B00000798743080B204901122DDE9051306F095
:104B1000C7FA7F4807F032F906900898133880B238
:104B2000059007988A3080B204900D22DDE90513C4
:104B300006F0B6FA764807F021F906900898123880
:104B400080B205900798743080B204901022DDE99D
:104B5000051306F0A5FA6E4807F010F906900898BC
:104B6000123880B2059007988A3080B204900E22E5
:104B7000DDE9051306F094FA654807F0FFF80690A2
:104B80000898113880B205900798743080B204906C
:104B90000E22DDE9051306F083FA5D4807F0EEF812
:104BA00006900898113880B2059007988A3080B234
:104BB00004900E22DDE9051306F072FA544807F05E
:104BC000DDF806900898103880B205900798743088
:104BD00080B204900D22DDE9051306F061FA4C481D
:104BE00007F0CCF806900898103880B20590079826
:104BF0008A3080B204900E22DDE9051306F050FAE7
:104C0000434807F0BBF80690009008980C3880B233
:104C100005900798803080B2049008980F3880B2D1
:104C200003900798733080B2029003A90EC906F072
:104C300057F9374807F0A2F8069008980C3880B268
:104C400005900798733080B204900C22DDE90513BB
:104C500006F026FA2E4807F091F806900090089882
:104C6000083880B2059007987F3080B20490089889
:104C70000B3880B203900798723080B2029003A97B
:104C80000EC906F02DF9224807F078F8069008982A
:104C9000083880B205900798723080B204900C22D8
:104CA000DDE9051306F0FCF9194807F067F80690EE
:104CB00000900898001F80B2059007987E3080B25F
:104CC00004900898C01F80B203900798713080B29A
:104CD000029003A90EC906F003F90D4807F04EF83B
:104CE00006900898001F80B205900798703080B237
:104CF00004900E22DDE9051306F0D2F9044807F00E
:104D00003DF806900090089880B20590079801E061
:104D10002176EE007D3080B204900898C01E80B2EB
:104D200003900798703080B2029003A90EC906F074
:104D3000D7F8FE4807F022F806900798703080B246
:104D400005900C22069B089906F0AAF9F74807F08F
:104D500015F80690009008980C3880B205900798D6
:104D6000983080B2049008980F3880B2039007986A
:104D70008B3080B2029003A90EC906F0B1F8EB485F
:104D800006F0FCFF0690009008980A3880B2059063
:104D90000798993080B2049008980C3880B203903C
:104DA00007988B3080B2029003A90EC906F098F8DC
:104DB000DE4806F0E3FF069000900898C01F80B21E
:104DC00005900798993080B2049008980A3880B20C
:104DD000039007988C3080B2029003A90EC906F0A8
:104DE0007FF8D24806F0CAFF069000900898001F8E
:104DF00080B2059007989A3080B204900898C01F3E
:104E000080B2039007988C3080B2029003A90EC93B
:104E100006F066F8C54806F0B1FF069000900898C5
:104E2000801E80B2059007989B3080B2049008984D
:104E3000001F80B2039007988C3080B2029003A9C3
:104E40000EC906F04DF8B94806F098FF069008988C
:104E5000801E80B2059007988D3080B204900E229B
:104E6000DDE9051306F01CF9B04806F087FF06904F
:104E70000898401E80B2059007988F3080B2049049
:104E80000C22DDE9051306F00BF9A84806F076FFC1
:104E900006900798913080B205900A22069B0899E7
:104EA00006F0FEF8A14806F069FF06900898293838
:104EB00080B205900798AD3080B204902322DDE9DE
:104EC000051306F0EDF8994806F058FF069008988B
:104ED000283880B205900798AB3080B20490272222
:104EE000DDE9051306F0DCF8904806F047FF069070
:104EF0000898273880B205900798A93080B20490AE
:104F00002922DDE9051306F0CBF8884806F036FFC4
:104F100006900898263880B205900798A83080B28D
:104F200004902B22DDE9051306F0BAF87F4806F05D
:104F300025FF06900898253880B205900798A7307D
:104F400080B204900D22DDE9051306F0A9F8774838
:104F500006F014FF06900898253880B2059007984F
:104F6000C63080B204900D22DDE9051306F098F8F2
:104F70006E4806F003FF06900898243880B205902A
:104F80000798A63080B204900D22DDE9051306F0E3
:104F900087F8664806F0F2FE06900898243880B23A
:104FA00005900798C73080B204900D22DDE9051303
:104FB00006F076F85D4806F0E1FE06900898233882
:104FC00080B205900798A63080B204900C22DDE9EB
:104FD000051306F065F8554806F0D0FE06900898CF
:104FE000233880B205900798C63080B204900E2214
:104FF000DDE9051306F054F84C4806F0BFFE0690B4
:105000000898223880B205900798A53080B20490A5
:105010000D22DDE9051306F043F8444806F0AEFE24
:1050200006900898223880B205900798C63080B262
:1050300004900E22DDE9051306F032F83B4806F035
:105040009DFE06900898213880B205900798A530FB
:1050500080B204900D22DDE9051306F021F83348F3
:1050600006F08CFE06900898213880B205900798CB
:10507000C63080B204900D22DDE9051306F010F869
:105080002A4806F07BFE06900898203880B20590EA
:105090000798A53080B204900D22DDE9051305F0D4
:1050A000FFFF224806F06AFE06900898203880B27A
:1050B00005900798C63080B204900D22DDE90513F3
:1050C00005F0EEFF194806F059FE0690009008988A
:1050D0001D3880B205900798B23080B204900898CD
:1050E0001F3880B203900798A43080B2029003A9C1
:1050F0000EC905F0F5FE0D4806F040FE0690009042
:1051000008981D3880B205900798D33080B204907B
:1051100008981F3880B203900798C53080B202907B
:1051200003A90EC905F0DCFE004801E02176EE007F
:1051300006F024FE069008981D3880B20590079866
:10514000A43080B204900D22DDE9051305F0A8FF1C
:10515000FE4806F013FE069008981D3880B20590B0
:105160000798C53080B204900D22DDE9051305F0E3
:1051700097FFF64806F002FE0690009008981A384D
:1051800080B205900798B13080B2049008981C381E
:1051900080B203900798A33080B2029003A90EC991
:1051A00005F09EFEE94806F0E9FD0690009008989B
:1051B0001A3880B205900798D23080B204900898CF
:1051C0001C3880B203900798C43080B2029003A9C3
:1051D0000EC905F085FEDD4806F0D0FD0690089862
:1051E0001A3880B205900798A33080B204900D223F
:1051F000DDE9051305F054FFD44806F0BFFD069025
:1052000008981A3880B205900798C43080B204908C
:105210000D22DDE9051305F043FFCC4806F0AEFD95
:1052200006900898193880B205900798A23080B28D
:1052300004900E22DDE9051305F032FFC34806F0A5
:105240009DFD06900898193880B205900798C430E3
:1052500080B204900D22DDE9051305F021FFBB4863
:1052600006F08CFD06900898193880B205900798D2
:10527000A23080B204900D22DDE9051305F010FF85
:10528000B24806F07BFD06900898193880B2059068
:105290000798C33080B204900E22DDE9051305F0B3
:1052A000FFFEAA4806F06AFD06900898183880B2FA
:1052B00005900798A23080B204900E22DDE9051314
:1052C00005F0EEFEA14806F059FD06900898183842
:1052D00080B205900798C33080B204900D22DDE9BA
:1052E000051305F0DDFE994806F048FD0690089884
:1052F000173880B205900798A23080B204900D2232
:10530000DDE9051305F0CCFE904806F037FD069068
:105310000898173880B205900798C33080B204907F
:105320000D22DDE9051305F0BBFE884806F026FDD9
:1053300006900898163880B205900798A13080B280
:1053400004900E22DDE9051305F0AAFE7F4806F061
:1053500015FD06900898163880B205900798C2305F
:1053600080B204900E22DDE9051305F099FE77481E
:1053700006F004FD06900898153880B2059007984D
:10538000A13080B204900E22DDE9051305F088FEFD
:105390006E4806F0F3FC06900898153880B2059028
:1053A0000798C23080B204900E22DDE9051305F0A3
:1053B00077FE664806F0E2FC06900898143880B242
:1053C00005900798A13080B204900D22DDE9051305
:1053D00005F066FE5D4806F0D1FC0690089814388A
:1053E00080B205900798C23080B204900D22DDE9AA
:1053F000051305F055FE554806F0C0FC06900898C8
:10540000133880B205900798A03080B204900E2225
:10541000DDE9051305F044FE4C4806F0AFFC0690AC
:105420000898133880B205900798C23080B2049073
:105430000D22DDE9051305F033FE444806F09EFC1D
:1054400006900898123880B205900798A03080B274
:1054500004900E22DDE9051305F022FE3B4806F01C
:105460008DFC06900898123880B205900798C130DC
:1054700080B204900E22DDE9051305F011FE3348D9
:1054800006F07CFC06900898113880B205900798C9
:10549000A03080B204900D22DDE9051305F000FE76
:1054A0002A4806F06BFC06900898113880B20590E7
:1054B0000798C13080B204900E22DDE9051305F093
:1054C000EFFD224806F05AFC06900898103880B28A
:1054D000059007989F3080B204900E22DDE90513F5
:1054E00005F0DEFD194806F049FC069008981038D2
:1054F00080B205900798C13080B204900E22DDE999
:10550000051305F0CDFD114806F038FC069008980B
:105510000F3880B205900798A03080B204900D2219
:10552000DDE9051305F0BCFD084806F027FC0690F0
:1055300008980F3880B205900798C13080B2049067
:105540000D22DDE9051305F0ABFD01E02176EE004B
:10555000874806F013FC0690009008980A3880B23D
:1055600005900798AC3080B2049008980E3880B24D
:10557000039007989F3080B2029003A90EC905F0EE
:10558000AFFC7B4806F0FAFB069008980E3880B214
:1055900005900798C03080B204900E22DDE9051313
:1055A00005F07EFD724806F0E9FB06900090089831
:1055B0000A3880B205900798CD3080B204900898E0
:1055C0000D3880B203900798C03080B2029003A9D2
:1055D0000EC905F085FC664806F0D0FB06900090E9
:1055E0000898C01F80B205900798AB3080B2049035
:1055F00008980A3880B2039007989F3080B20290D2
:1056000003A90EC905F06CFC594806F0B7FB0690DB
:1056100000900898083880B205900798CC3080B286
:10562000049008980A3880B203900798BF3080B27F
:10563000029003A90EC905F053FC4D4806F09EFBED
:1056400006900898083880B205900798BE3080B25E
:1056500004900D22DDE9051305F022FD444806F013
:105660008DFB06900898C01F80B2059007989F3068
:1056700080B204900E22DDE9051305F011FD3C48CF
:1056800006F07CFB06900898C01F80B20590079832
:10569000BC3080B204900E22DDE9051305F000FD58
:1056A000334806F06BFB06900898801F80B2059087
:1056B00007989F3080B204902B22DDE9051305F096
:1056C000EFFC2B4806F05AFB06900898401F80B26A
:1056D00005900798A03080B204902922DDE90513D7
:1056E00005F0DEFC224806F049FB06900898001FF2
:1056F00080B205900798A13080B204902722DDE99E
:10570000051305F0CDFC1A4806F038FB0690089802
:10571000C01E80B205900798A23080B20490242267
:10572000DDE9051305F0BCFC114806F027FB0690E7
:105730000898801E80B205900798A33080B204902C
:105740002222DDE9051305F0ABFC094806F016FB43
:1057500006900898401E80B205900798A43080B249
:1057600004902022DDE9051305F09AFC09B000BD84
:105770002176EE0072B600BFFEE7000010B500F023
:105780006FFD00BF34200349C86000BF00F006FD74
:1057900010BD0000002002400021074AD1610749E6
:1057A000096941F00401054A11611146096941F096
:1057B00040011161704700004806002000200240AF
:1057C0000021074AD1610749096941F00201054AF0
:1057D000116111464861096941F04001116170474A
:1057E00048060020002002400022054BDA61054AED
:1057F000126942F00102034B1A61018070470000F8
:10580000480600200020024000201E49C96801F01F
:10581000100139B11C49C96941F002011A4AD1612C
:1058200040F010001749C96801F0040139B1164968
:10583000C96941F00101144AD16140F004001149E5
:10584000C96901F0010169B10F49C96941F0040159
:105850000D4AD16100BF0B49C96921F00101094A14
:10586000D16100BF00BF40F20111884206D1054955
:10587000C96921F00101034AD16101E00149C86011
:1058800000BF7047002002404806002070B5044663
:1058900000F0EAFE054609E0601C38B124B100F0D2
:1058A000E3FE401BA04201D9032070BD1248C0682E
:1058B00000F001000028EFD10F48C06800F0200080
:1058C00020B100BF20200C49C86000BF0A48C06852
:1058D00000F0100048B90848C06900F0010020B984
:1058E0000548C06800F0040018B1FFF78DFF0120E3
:1058F000DBE70020D9E700000020024070B5044635
:10590000B3F5804F13D1D1E9000540EA05108D6849
:1059100040EA05208D6928438D8940EA054054F806
:105920002250064E3540284344F8220003E06FF031
:10593000704044F82200002070BD00000000F0CF4D
:1059400070B50246086852F8200020F001000E6889
:1059500042F826008868082801D1402300E000238F
:10596000486818438E683043CE6830430E69304330
:105970004E693043CE6930430E6A30434E6A30433D
:105980008E6A3043CE6A30430E6B40EA0604886963
:105990000443486B0443074D45F4806545F4E02516
:1059A000086852F82000A84320430E6842F82600F9
:1059B000002070BD7FFB080010B50346D1E900044C
:1059C00040EA04108C6840EA04208C8940EA0444D0
:1059D000088A401E44EA0054087D801E44EA0060A4
:1059E0008C692043541C53F8244004F04044204365
:1059F000541C43F82400002010BD00001EB50246D0
:105A000012A4D4E90030A468CDE90104009302296E
:105A100017D14FF4C87392FBF3F403FB142363B163
:105A2000D31702EB93739B10A2EB83033BB9642360
:105A300092FBF3F403FB14230BB11D201EBD1C20AD
:105A4000FCE7481E1DF80000F8E700001F1C1F1EA1
:105A50001F1E1F1F1E1F1E1F13B500242FE09DF8C1
:105A600003009DF8071088420CD19DF801009DF8B5
:105A70000510884206D19DF806009DF80210401AD4
:105A800004441DE09DF8060004449DF80500401EF6
:105A9000C0B28DF805009DF8050040B90C208DF8C6
:105AA00005009DF80700401EC0B28DF807009DF864
:105AB00005109DF80700FFF7A1FF8DF80600CEE75F
:105AC00000BF20461CBD000070B50A480468001DD8
:105AD0000568001D0668344454B108220649204672
