:020000040800F2
:100000000025002045010008BFB90008199100082B
:10001000A1B900080D12000819080108000000002D
:1000200000000000000000000000000095C2000871
:10003000ED3400080000000001BE00081DC60008E5
:100040005F0100085F0100085F01000849BF000868
:100050005F0100085F0100085F0100085F01000800
:100060005F0100085F0100085F0100085F010008F0
:100070005F0100085F0100085F0100085F010008E0
:100080005F0100085F0100085F0100085F010008D0
:10009000610701085F0100085F0100085F010008B7
:1000A0005F0100085F0100085F0100085F010008B0
:1000B000B5C600085F0100085F0100085F01000885
:1000C0005F0100085F0100085F0100085F01000890
:1000D0005F0100085F0100085F0100085F01000880
:1000E0005F0100085F0100085F0100085F01000870
:1000F0005F0100085F0100085F0100085F01000860
:100100005F0100085F0100085F0100085F0100084F
:100110005F0100085F0100085F0100085F0100083F
:100120005F0100085F0100085F0100085F0100082F
:10013000DFF80CD000F020FD00480047D12C01086A
:10014000002500200648804706480047FEE7FEE7F6
:10015000FEE7FEE7FEE7FEE7FEE7FEE7FEE7FEE777
:10016000B3C60008310100082DE9F05F0546002004
:1001700092469B4688460646814640241BE0284618
:1001800041464746224600F020F853465A46C01AD8
:10019000914110D311461846224600F081FB2D1ADA
:1001A00067EB01084F4622460120002100F078FB52
:1001B00017EB00094E41201EA4F10104DFDC484684
:1001C00031462A464346BDE8F09F202A04DB203A08
:1001D00021FA02F00021704721FA02F3D040C2F167
:1001E0002002914008431946704740EA01039B07EB
:1001F00003D009E008C9121F08C0042AFAD203E09C
:1002000011F8013B00F8013B521EF9D27047D2B2FF
:1002100001E000F8012B491EFBD270470022F6E7EF
:1002200010B513460A4604461946FFF7F0FF20466C
:1002300010BD421E12F8013F002BFBD111F8013B0B
:1002400002F8013B002BF9D17047421C10F8011B4A
:100250000029FBD1801A704710B5002200E0521C23
:10026000835C8C5CA34201D1002BF8D1D8B2E1B2FF
:10027000401A10BD034611F8012B00F8012B002A8B
:10028000F9D11846704770B5064610F0B5FF0468FE
:1002900005460A220021304600F072FB2C6070BD3A
:1002A000F0B480EA0102D40F4200B2EB410F02D257
:1002B0000246084611464A0042D0C30DDDB2C1F3E2
:1002C000C752AD1A202D35DAC1F3160141F40002F0
:1002D00004B15242C5F1200602FA06F12A41104447
:1002E000B3EBD05F23D0C4B1012DA0EBC35009DC28
:1002F000F0BC4FF0004202EAC352DBB200F500004E
:1003000000F07FBB400000F1807000EBC350A0F113
:10031000807040EAD170490009E0490841EAC071A3
:10032000A0EBC35000F50000400800EBC350F0BC48
:1003300000F05EBB6142012202EB4101001BF6E7C7
:10034000F0BC704781F00041AAE780F00040A7E7C9
:1003500080EA010210B502F00043400022D04A00BA
:100360001FD0010E01EB1261C0F35600C2F356021A
:1003700040F4000042F40002A0FB022000047F3998
:10038000140400D0401C50EA124001D44000491E21
:10039000C2B20C0604EBD010401C4008802A02D0E8
:1003A00003E0002010BD20F00100002900DA002049
:1003B000184310BD30B480EA010202F0004530F06D
:1003C000004221F0004013D090B1C30DD40DC2F310
:1003D0001601C0F31600E41A41F4000140F40002D3
:1003E0007D34914201D3641C00E04900002C02DA04
:1003F00030BC002070474FF400000023914201D32D
:10040000891A034340084FEA4101F7D151B19142A3
:1004100002D14FF0004105E002D24FF0010101E0AE
:100420006FF0010103EBC450284430BC00F0E0BA87
:100430002DE9FE4F804681EA0300C00F0C46009074
:1004400021F0004123F00045B8EB0200A94105D29C
:100450004046214690461C460B46024623F000408B
:10046000104347D0270DC7F30A00C3F30A51029087
:10047000401A019040286BDAC3F3130040F4801B4C
:100480000098924620B10023D2EB030A63EB0B0BDA
:1004900001985946C0F14002504600F001FA064664
:1004A0000D4650465946019A00F009FA10EB080033
:1004B0006141002487EA115284EAE7731A4340D06D
:1004C000009A62B3019A012A4FEA075215DC001B19
:1004D00061EB02014FF0004202EA0752CDE900420F
:1004E000001C41F5801132462B4600F0C7FA03B0DC
:1004F000BDE8F08F40462146F9E7001B61EB0201A1
:10050000001C41F5801300185B412018A2F500176C
:1005100047EB030140EAD570B6196D4111E06D0853
:100520004FEA360645EAC0754FEA0752001B61EBF9
:100530000201001C41F5801149084FEA3000001902
:10054000514132462B4603B0BDE8F04F00F087BA68
:100550000098012240000023D0EB020263EBE0731D
:10056000009821464FEAE074B8EB000061EB04010B
:10057000E9E783F000435BE781F0004158E72DE9AC
:10058000FE4F81EA030404F0004421F0004100948E
:100590004FF0000B23F0004350EA01045ED052EA12
:1005A00003045BD0C3F30A54C1F30A552C44A4F2EC
:1005B000F3340194A0FB0254C1F3130141F4801100
:1005C000C3F3130343F4801301FB024400FB034E07
:1005D000840A970A44EA815447EA8357A4FB0768D0
:1005E00002958D0A05FB07854FEA932C04FB0C54FA
:1005F0002705029D4FEA065847EA1637B5EB08056E
:100600006EEB070C870E920E47EA811742EA8312BF
:10061000A7FB0201B6EB0B0164EB00042B0D43EAD0
:100620000C335E1844EB1C50DA465146E7FB0201DE
:10063000C5F313044FEA0B3343EA14534FEA043271
:10064000019C43EA0603A4F10C040294009CCDE94A
:1006500000B400F013FA03B0BDE8F08F00200146AB
:10066000F9E72DE9F04D81EA030404F0004B21F095
:10067000004514464FF0000A23F0004150EA0502FD
:1006800020D054EA01021DD0C5F30A570246C5F333
:100690001303C1F31300C1F30A5640F4801543F469
:1006A0008013A7EB0608101BD64608F2FD3873EB43
:1006B000050002D308F1010801E092185B41B8F18E
:1006C000000F03DA00200146BDE8F08D00204FF452
:1006D0008011064684460EE0171B73EB050705D311
:1006E000121B63EB050306434CEA010C49084FEA71
:1006F000300092185B4150EA0107EDD152EA030045
:1007000012D082EA040083EA0501084305D0101BD9
:10071000AB4106D20122002306E000224FF0004345
:1007200002E06FF0010253101AEB06004CEB085187
:1007300010EB0A0041EB0B01BDE8F04D00F08FB962
:10074000C10F80EAE0700844CA079623002100F038
:1007500058B996230022114600F053B90EB5C10FC7
:1007600080EAE0700844CA07002140F233438DE874
:100770000E000A460B4600F081F903B000BD00F000
:10078000004220F00040C10DC0F3160040F400000C
:100790007F2901DA00207047962903DCC1F1960118
:1007A000C84001E096398840002AF4D040427047A2
:1007B00020F00040C10DC0F3160040F400007F2976
:1007C00001DA00207047962903DCC1F19601C84088
:1007D000704796398840704770B5C1F30A5201F0EE
:1007E00000450024C1F3130140F2FF3341F48011AE
:1007F0009A4201DA002070BD40F233439A42A2F2DD
:10080000334203DC5242FFF7E0FC00E090402C430F
:10081000F1D0404270BD00F0004230F000400AD0FC
:10082000C10D01F56071C0F3160042EA0151C20822
:1008300040071143704700200146704701F0004314
:1008400030B421F0004150EA010206D00A0DA2F5B1
:100850006072C1F31301002A02DC30BC0020704733
:10086000440F44EAC104C100E01830BC00EBC250A0
:1008700000F0BEB830B50B4601460020202201240E
:1008800009E021FA02F59D4205D303FA02F5491B5E
:1008900004FA02F52844151EA2F10102F1DC30BD74
:1008A000202A04DB203A00FA02F100207047914030
:1008B000C2F1200320FA03F3194390407047202A25
:1008C00006DBCB17203A41FA02F043EAE07306E078
:1008D00041FA02F3D040C2F1200291400843194688
:1008E000704700000FB4002300B589B00CA9009137
:1008F0000B996FF00042CB601E4B06931E4B079383
:100900000423CDE901321D4A089202466B460020BD
:1009100000F0E6F909B05DF814FB70B586B0064644
:100920004FF0FF300091CDE90101002015460C4643
:1009300004903246694604A8FFF7D4FF02460498A3
:10094000211825B108B1084600E020462860049827
:1009500000280DD0002A02DD0098884208D0081B2C
:100960000094CDE901043246694604A8FFF7BAFFB6
:1009700006B070BD190F0008370F0008A50B00085E
:100980002DE9F04791460F4680460446002614F8AC
:10099000015B2DB100F002F90068405DC007F6D19F
:1009A0002B2D02D02D2D18D0641E4A4639462046E4
:1009B00000F0D2FA27B13968A14201D1C7F800800E
:1009C00071054FF002040BD54042002803DD10F002
:1009D00013FC0460A007BDE8F08746F48066E4E7F6
:1009E0000028F8DA10F008FC04606FF00040F2E72D
:1009F0000029A8BF7047401C490008BF20F0010033
:100A0000704710B4B0FA80FC00FA0CF050EA010410
:100A100004BF10BC704749B1CCF1200421FA04F4A2
:100A200011FA0CF118BF012121430843A3EB0C017B
:100A3000CB1D4FEA00614FEA102042BF002010BCDE
:100A4000704700EBC35010440029A4BF10BC70478E
:100A5000401C490008BF20F0010010BC704710B5D1
:100A6000141E73F1000408DA401C41F100019218D1
:100A70005B411A4301D120F0010010BD2DE9F04D7A
:100A800092469B4611B1B1FA81F202E0B0FA80F2CF
:100A900020329046FFF704FF04460F4640EA0A0062
:100AA00041EA0B0153465A46084313D0114653EA14
:100AB000010019D0C8F140025046FFF786FB0546F9
:100AC0000E46504659464246FFF7EAFE084305D017
:100AD000012004E020463946BDE8F08D00200543A2
:100AE00046EAE0762C4337430A986305E40AA0EB14
:100AF00008000022FD0A44EA47540A3002D50020CB
:100B00000146E9E7010510196941DDE908450019C9
:100B10006941BDE8F04DA2E7C1F30A52C1F31301E8
:100B200040F2FF3341F480119A4202DA002001467C
:100B3000704740F233439A42A2F2334202DC5242FF
:100B4000FFF743BBFFF7ACBE30B5041E71F10004E4
:100B500004DB4FF00044404264EB0101141E73F1CA
:100B6000000405DB1C464FF00043524263EB0403D4
:100B7000994208BF904230BD064C074D06E0E06840
:100B800040F0010394E8070098471034AC42F6D3D4
:100B9000FFF7D2FAA4580208C45802080048704768
:100BA000A058020810B50446FFF7F8FF0068005D82
:100BB00000F0010010BD00002DE9FF4F087883B060
:100BC0009946FF2805D0491C2D2804D00024002078
:100BD00008E000200BE00124F9E700EB800003EBC4
:100BE0004000491C0B78FF2BF7D104B14042002391
:100BF0000293147819461D462D2C01D02B2C04D1BC
:100C0000521C2D2C13D000240294AA461478FF2CD9
:100C10000FD00A25A3FB057801FB05814FF0000CDE
:100C200003FB0C11521CE3194AEB0101EEE701240E
:100C3000EAE7814453EA010002D019F5C87F06DAD9
:100C400003980021C0E9001107B0BDE8F08F00252E
:100C5000AE4E2F46DFF8B882184600F0DAF9CDE93B
:100C60000001B9F1000002DAC9F1000400E0044615
:100C70000023A74A1AEB030B42EB045A12E0E007E9
:100C800007D02A46334638464146FFF778FC0746E8
:100C900088462A46334610461946FFF770FC05463B
:100CA0000E466410002CEAD1DDE90001B9F1000F15
:100CB0005A46534606DAFFF7D4FC3A464346FFF756
:100CC000D0FC05E0FFF75BFC3A464346FFF757FCD4
:100CD000029A0AB181F00041039AC2E90001B3E728
:100CE0002DE9FF4F1F468DB0D7E901464FF0FF3881
:100CF0002E2045464FF000090B90B9696D1C0E98E7
:100D00008847396A824688470028F6D1BAF1FF3F02
:100D10000AD024F4D064002E11DDBAF12B0F08D0D4
:100D2000BAF12D0F0BD102E0404611B08DE744F42B
:100D30008064B9696D1C0E9888478246761E6946A4
:100D4000600501D52D2000E02B208DF8000001F179
:100D5000010B0DF1200809E0B9696D1C0E98884758
:100D600082460F9844F40074761E0560002E02DD62
:100D7000BAF1300FF0D00B998A453ED144F080048F
:100D800006E00F99681CA9F1010944F40074086099
:100D9000B9696D1C761E0E98884782463028F0D0BF
:100DA0002BE00B998A4505D1200603D444F080043A
:100DB000761E18E0504610F0F7FB08B30DF1130152
:100DC000761E44F400748B4508D2AAF130000BF86B
:100DD000010B200607D5A9F1010003E0200602D48B
:100DE00009F101008146A00502D50F99681C086031
:100DF000B9696D1C0E9888478246002ED1DC53E0FD
:100E0000002E51DDBAF1650F02D0BAF1450F4BD17A
:100E1000A00549D5B9696D1C24F44074761E0E985E
:100E200088478246002E0CDD2B2804D0BAF12D0F06
:100E300007D144F48074B9696D1C0E9888478246C6
:100E4000761EE00501D52D2100E02B2108F8011BBD
:100E5000CDF82C8021E00DF12901761E44F40074B8
:100E600088450CD2AAF1300010F0FF0088F800008D
:100E700002D10B99884509D908F1010806E0E0057F
:100E800001D5244801E042F20F708146B9696D1C1A
:100E90000E98884782460F980560002E04DD504664
:100EA00010F082FB0028D6D1F9690E988847FF2000
:100EB0008BF8000088F800000020069007904B4651
:100EC0006A4608A906A8FFF777FEA00502D46FF0CE
:100ED00001002AE714F0240F0AD0E00714D1DDE95D
:100EE00006123868031D3B600068C0E900120BE081
:100EF000DDE90601FFF7A2FC0146E00704D13868EE
:100F0000021D3A600068016028460EE700001440A8
:100F10000000F03FF1D8FFFF426842B1016811F8CC
:100F2000013B23B1521EC0E900121846704701214F
:100F3000C160881E704742685AB1C368016843B9EE
:100F400083688B4205D0491E521CC0E90012002064
:100F500070474FF0FF3070472DE9F05F8246007810
:100F6000002715468B460AF10104B946302801D006
:100F70009DB113E014F8010B0127782803D05828FD
:100F800001D045B10AE00DB1102D07D10027102581
:100F900014F8010B02E0082500E00A250026B046FF
:100FA0000EE005FB080005FB06F1012701EB1046EA
:100FB0001FFA80F8B6F5803F00D3B94614F8010B4C
:100FC000294600F018F80028EBDABBF1000F05D035
:100FD0000FB1641E00E05446CBF80040B9F1000F99
:100FE00006D010F009F902210160C81EBDE8F09F8B
:100FF00048EA0640FAE73A2800D2303820F02002CA
:10100000412A01D3A2F13700884201D34FF0FF30CB
:1010100070470EB540F2334202920022CDE9002221
:101020001346FFF72BFD03B000BD70B58C1810F808
:10103000015B15F0070301D110F8013B2A1106D11D
:1010400010F8012B03E010F8016B01F8016B5B1E37
:10105000F9D12B0705D40023521E0DD401F8013B12
:10106000FAE710F8013BCB1A921C03E013F8015B7E
:1010700001F8015B521EF9D5A142D8D3002070BD02
:1010800070B5044600252068806800F0010018B3A0
:101090002068806820F001002168886005F014FB5A
:1010A000054613E005F010FB401B02280ED920680E
:1010B000806800F0010048B1A06A40F01000A06212
:1010C000E06A40F00100E062012070BD20688068A5
:1010D00000F001000028E5D10020F6E738B504460D
:1010E0000025002000902068806800F0010078BB97
:1010F0002068806840F00100216888601948006815
:101100001949B0FBF1F0009002E00098401E0090F9
:1011100000980028F9D105F0D7FA054619E005F046
:10112000D3FA401B022814D92068806800F001001F
:1011300078B9A06A40F01000A062E06A40F00100B7
:10114000E06200BF002084F8240000BF012038BD09
:1011500005E02068806800F001000028DFD0002052
:10116000F5E700002C01002040420F0010B50022DE
:101170004FF48051014805F0A1FA10BD000C014068
:1011800010B501221103024805F098FA10BD0000C5
:10119000000C014010B50122D102064805F08EFA7C
:1011A0000A2011F013FC00224FF40061014805F001
:1011B00085FA10BD000C01401248407D05281DD263
:1011C000DFE800F003080D12170032200E4909680D
:1011D000486314E03C200C49096848630FE046204E
:1011E0000949096848630AE05020074909684863CB
:1011F00005E0632004490968486300E000BF00BFC0
:101200007047000040050020B004002000BFFEE74A
:1012100010B501220421024805F050FA10BD00006B
:101220000010014010B500220421024805F046FAE2
:1012300010BD00000010014010B50122022102483B
:1012400005F03CFA10BD00000010014010B500226E
:101250000221024805F032FA10BD000000100140E2
:1012600010B50446392012F085F8E0B212F093F878
:10127000C4F3072012F08FF8C4F3074012F08BF884
:10128000200E12F088F812F067F80FF073FF10BD0F
:101290002DE9F04107460E4614463C2012F06AF84C
:1012A000F0B212F078F8301212F075F812F054F82B
:1012B0000CB10020208016E00FF05CFF05461E2DCB
:1012C0000ED1384600F055F905463D2012F052F88F
:1012D00012F042F82F4434B120882844208002E0E4
:1012E0002846BDE8F081E7E710B50AF08BFD08B1AC
:1012F00000F082F8302000F0CDF810BD10B531209C
:1013000000F0C8F810BD10B504462146362000F0A4
:10131000B3F810BD10B5044614B1204600F0DBF858
:10132000342000F0B7F810BD70B50646304600F026
:10133000BBF8054685B12946304600F024F804463E
:10134000412C09D0142C01D1432070BD422C01D175
:10135000B320FAE72046F8E77019FFF7DBFFF4E760
:1013600010B50446204600F0B6F820785C2802D07C
:1013700020782F2803D10021642000F011F93220B9
:1013800000F088F810BD2DE9F04105460F46002613
:10139000012429E001E0601CC4B2285D5C2805D06E
:1013A000285D2F2802D0285D0028F4D1285D10B1D7
:1013B000601CC4B200E00024A819FFF7D1FF064664
:1013C00084B1BC420ED0412E0AD0142E02D143204B
:1013D000BDE8F081422E01D1B320F9E73046F7E7AE
:1013E000264601E03046F3E7D4E710B50446FF2176
:1013F0002046FFF7C8FF10BD10B5222011F0BAFF3C
:10140000322011F001FB11F0ABFF044611F0A4FFF4
:10141000204610BD2DE9F04111F0A2FF044611F065
:101420009FFF054611F09CFF064611F099FF074605
:1014300011F092FF44EA052040EA064040EA0760C6
:10144000BDE8F08110B504460C2011F093FF204652
:1014500011F0A1FFFFF7DEFF10BD70B504460A20B2
:1014600011F088FF204611F096FF11F079FF054634
:1014700011F072FF284670BD70B505460C4628462F
:1014800011F078FF204611F086FF11F065FF0FF094
:1014900071FE70BD10B50446204611F06BFF11F0CF
:1014A0005BFF0FF067FE10BD0246114600E0491CCD
:1014B00008780028FBD100E0491E08785C2804D099
:1014C00008782F2801D09142F6D1914200D0491CD2
:1014D000881AC0B270472DE9F0410646012011F08C
:1014E00049FF11F03DFF43282BDA2B20FFF7B5FF12
:1014F000102826DA2F2011F03DFF002011F04BFFBD
:101500003220FFF7C7FF0446142C1AD1CF20FFF773
:10151000A4FF0446ACB14C20FFF794FF00EB042776
:1015200039464C2000F03CF85020FFF78BFF00EBD1
:1015300004273946502000F033F80021702000F0D5
:101540002FF82F2011F016FF3578284611F023FFD1
:1015500009E0761C35785C2D01D02F2D00D10025B7
:10156000284611F018FF002DF3D111F0F5FEBDE86B
:10157000F08170B504462D2011F0FCFE11F0F0FE54
:101580000646054646B100BF207811F004FF641CF2
:10159000701EC0B2061EF7D111F0DEFE284670BDE7
:1015A00070B505460C460D2011F0E4FE284611F0FA
:1015B000F2FEE0B211F0EFFEC4F3072011F0EBFEF3
:1015C000C4F3074011F0E7FE200E11F0E4FE11F025
:1015D000C3FE70BD10B500221021024805F06EF860
:1015E00010BD00000008014010B501221021024882
:1015F00005F064F810BD00000008014010B501229C
:101600008021024805F05AF810BD0000000C01408E
:1016100010B500228021024805F050F810BD0000EE
:10162000000C014010B501224021024805F046F8A7
:1016300010BD00000014014010B5002240210248F6
:1016400005F03CF810BD00000014014010B5012267
:101650005103024805F032F810BD000000140140AB
:1016600010B500224FF40051014805F027F810BDD5
:101670000014014010B501221103024805F01EF8C4
:1016800010BD00000014014010B500224FF480513D
:10169000014805F013F810BD0014014010B50122F7
:1016A0001146024805F00AF810BD0000000C014088
:1016B00010B500220121024805F000F810BD00001D
:1016C000000C014010B501222021024804F0F6FF71
:1016D00010BD00000010014010B50022202102487A
:1016E00004F0ECFF10BD000000100140F0B504460E
:1016F0000D46FF22FF21002319E0E05C4140002756
:1017000011E001F0010602F0010C52104910BCF189
:10171000000F01D041F080011EB182F0A00281F0E3
:101720000101781CC7B2082FEBDB581CC3B2AB42D7
:10173000E3DB41EA0220F0BD002070470020704743
:101740002DE9F04106460F4601210C480DF08FF8B7
:101750000B4908700948D0F8B852002403E0285D0E
:1017600008490855641C064800788442F7DB0120CC
:10177000054908700020BDE8F081000074180020C1
:1017800000020020781B00200102002033B50C4627
:1017900000252DE09DF801109DF8030004F05EF98E
:1017A00005469DF802002044A8421AD99DF802007F
:1017B000281A241A9DF80100401CC0B28DF80100BF
:1017C00000208DF802009DF801000D2810D10120A5
:1017D0008DF801009DF80300401CC0B28DF8030095
:1017E00006E09DF802002044C0B28DF8020000E03F
:1017F000D0E700BF0720B4FBF0F100FB114009491E
:1018000009780844C0B28DF800009DF80000072850
:1018100005DB9DF80000C01FC0B28DF800000098E5
:101820003CBD0000FC00002038B5174800780128B6
:1018300029DD6FF07F400AF007FB044600200AF024
:1018400003FB0546104800940078801E692202EBD5
:10185000C00081B22B4691220CA009F09BFD0A48E2
:101860000078401E08490870002107480078401E93
:10187000074A11540448007806490978884202D181
:1018800000200449087038BD4A01002020000000F3
:101890007C0600204B01002038B5044600200AF0E9
:1018A000D3FA054614234FF49B72022100904FF4A3
:1018B000967009F07BFB4FF46E400AF0C5FA0546BE
:1018C000052340F2331202210090101F09F06EFB35
:1018D0004FF46E400AF0B8FA054614234FF49B7299
:1018E000052100904FF4967009F0C8FC4FF46E404B
:1018F0000AF0AAFA0546132340F235120621009099
:1019000040F22D1009F052FB192C0DDA00200AF0DC
:101910009BFA05460F2340F235120621009040F253
:101920002D1009F043FB24E0192C0FDB322C0DDACB
:1019300000200AF089FA05460C2340F235120621F0
:10194000009040F22D1009F031FB12E0322C0FDB39
:101950004B2C0DDA00200AF077FA0546092340F2F5
:1019600035120621009040F22D1009F01FFB00E017
:1019700000BF38BD10B50020054908700AF064FAB0
:10198000044609F0FBFA042001F046FB10BD0000FC
:101990003D010020F8B5044600200AF055FA05463E
:1019A0004FF47F000AF050FA0646601E00EB40013B
:1019B00001EBC0001E2101EB400082B233468C21B6
:1019C0000248009509F0E6FCF8BD00003D39010829
:1019D00038B500200AF038FA044614234FF49B72FD
:1019E000022100904FF4967009F0E0FA4FF46E4037
:1019F0000AF02AFA044623460522022140F22F105B
:101A000009F08EFC4FF46E400AF01EFA044623469D
:101A10000522022140F2331009F082FC4FF46E409F
:101A20000AF012FA044623460B2207214FF496705F
:101A300009F09CFB4FF46E400AF006FA04460F23AF
:101A40004FF49A7208210090901F09F0AFFA4FF4FA
:101A50006E400AF0F9F9044623460522102140F2AF
:101A60002F1009F083FB4FF46E400AF0EDF90446A5
:101A70002346032211214FF4987009F077FB4FF4AD
:101A80006E400AF0E1F9044623460422112140F297
:101A9000311009F045FC38BD2DE9FC41002440E03F
:101AA000621C22A101A80FF077FB204604EBD07145
:101AB0004910A4EB4101C9B100200AF0C5F906465E
:101AC0001C480AF0C1F9074604EBD470401000EB43
:101AD000400101EB00102A2101EB400082B23B469D
:101AE000A82101A8009609F055FC18E000200AF092
:101AF000ABF906460F480AF0A7F9074604EBD47085
:101B0000401000EB400101EB00102A2101EB4000E6
:101B100082B23B46082101A8009609F03BFC601CFC
:101B2000C4B2082CBCDBBDE8FC8100002530326467
:101B30003A00000032F0F00038B511F0A5FB0C4976
:101B4000B1F9000000230522012107F0E7FA002087
:101B50000AF07AF904464FF46E400AF075F905462A
:101B60002B46022264210348009409F013FC38BD7F
:101B70008E0100207006002038B54FF46E400AF048
:101B800063F90446122340F20F1208210090501E00
:101B900009F00CFA4FF46E400AF056F90446234659
:101BA000062207214FF4867009F0E0FA4FF46E40E8
:101BB0000AF04AF9044623460422062140F20D1099
:101BC00009F0D4FA4FF46E400AF03EF90446234679
:101BD000022205214FF4877009F0C8FA4FF46E40D5
:101BE0000AF032F904460F234FF48A72052100905F
:101BF000501E09F0DBF94FF46E400AF025F9044657
:101C000023460622102140F2111009F0AFFA4FF4DA
:101C10006E400AF019F904462346042211214FF4BC
:101C2000897009F0A3FA4FF46E400AF00DF90446EA
:101C300023460222122140F2131009F097FA38BD10
:101C40007CB5012085490870854908706FF07F4098
:101C50000AF0FAF80546F0234FF4A07282210090B2
:101C6000002009F0A3F96FF07F400AF0EDF8054677
:101C700000200AF0E9F806467A490095097DC1EB93
:101C80000111794A02EB4100334691223C2109F0CF
:101C900081FB00200AF0D8F80546A323C8228F2133
:101CA0000090642009F0EAFA43F2FF300AF0CCF821
:101CB00005461A233C228C210090FF2001F04CFAAB
:101CC00043F2FF300AF0C0F805466FF07F400AF09B
:101CD000BBF8064663490095097DC1EB0111624AD4
:101CE00002EB4101881D334691224FF48C7109F0BB
:101CF00051FB43F2FF300AF0A7F805461A233E22B3
:101D0000D2210090052001F027FA43F2FF300AF0BB
:101D10009BF805466FF07F400AF096F80646514959
:101D20000095097DC1EB01114F4A02EB410101F120
:101D30000C003346D722142109F02CFB43F2FF306C
:101D40000AF082F805461A233E22D2210090E120B3
:101D500001F002FA43F2FF300AF076F805466FF020
:101D60007F400AF071F806463E490095097DC1EBB7
:101D700001113D4A02EB410101F112003346D72225
:101D8000F02109F007FB00200AF05EF80546CA239F
:101D900040F23912AA210090072009F007F9002427
:101DA0002BE0621C31A101A80FF0F6F94FF47F007F
:101DB0000AF04AF8054604EB04110722009002EBF2
:101DC00041001F231A46AA2101F0C6F94FF47F00F3
:101DD0000AF03AF805466FF07F400AF035F80646FB
:101DE00004EB0410132202EB40013346B12201A898
:101DF000009509F0CFFA601CC4B2092CD1DB002495
:101E000028E043F2FF300AF01FF8054604EB041106
:101E10005722009002EB41001F231A46CC2101F00B
:101E20009BF943F2FF300AF00FF805466FF07F4050
:101E30000AF00AF8064604EB0412632303EB42019E
:101E40000B4A02EB44003346D322009509F0A2FA74
:101E5000601CC4B2032CD4DB7CBD0000490100200F
:101E60004A01002040050020DE3C010825640000F6
:101E70001A3D010831B582B01A4800780A2830DAD4
:101E80001948007818B19DF808002E2829D002A919
:101E90001648FEF7CEF96FF07F4009F0D5FF0446F3
:101EA000002009F0D1FF05460E4800940078401E3E
:101EB000692202EBC00081B22B46912202A809F0F0
:101EC00069FA0948007838B99DF808002E2803D12E
:101ED000044800780449087002480078401C014911
:101EE00008703EBD4A0100204B0100207C06002006
:101EF00010B500201449087014490870144908707E
:101F000014480078012806D0022807D0032808D0FA
:101F100004280CD108E000F079FF09E000F03CFC57
:101F200006E000F0A3FC03E0FFF724FD00E000BFA3
:101F300000BF0848007807F0F1FB07480178054822
:101F4000007800F00BF810BD4A0100204901002084
:101F50004B0100203E0100203D01002003B587B069
:101F60000798012806D0022805D003287ED004282F
:101F70007DD12AE3C5E3FE480078012817D1FD484A
:101F800009F062FF0390002009F05EFF02900398C1
:101F90000090F9488078401E00EB8000F749084423
:101FA00001901E225021029B09F0F4F916E0002056
:101FB00009F04AFF0390EF4809F046FF02900398AA
:101FC0000090ED488078401E00EB8000EB4908440B
:101FD00001901E225021029B09F0DCF9E4480078B0
:101FE00002281BD1E34809F02FFF0390002009F0DD
:101FF0002BFF029003980090DF48007D00EB8000EB
:10200000DF4901EBC000DC49C97A00EBC100019057
:1020100034225021029B09F0BDF91AE0002009F09A
:1020200013FF0390D34809F00FFF0290039800902C
:10203000D148007D00EB8000D14901EBC000CE49C2
:10204000C97A00EBC100019034225021029B09F0B3
:10205000A1F9C948B0F90D00002305220121039020
:1020600007F05CF8C2480078032801E01FE147E36D
:1020700010D1C04809F0E8FE0390002009F0E4FE0A
:102080000290039800904A225021BE48029B09F01A
:1020900081F90FE0002009F0D7FE0390B54809F060
:1020A000D3FE0290039800904A225021B548029B2B
:1020B00009F070F9B048B0F90F00002305220121A2
:1020C000039007F02BF8AA480078042810D1A948FB
:1020D00009F0BAFE0390002009F0B6FE02900398C2
:1020E000009060225021A748029B09F053F90FE0AD
:1020F000002009F0A9FE03909E4809F0A5FE029079
:1021000003980090602250219E48029B09F042F9FA
:1021100097480078052816D1964809F095FE039057
:10212000002009F091FE0290039800909248807A76
:1021300000EB40009449084401901E22F021029BCC
:1021400009F028F915E0002009F07EFE0390894887
:1021500009F07AFE0290039800908748807A00EB9D
:1021600040008949084401901E22F021029B09F099
:1021700011F97F48007806281DD17E4809F064FED9
:102180000390002009F060FE0290039800907A48C6
:10219000007D00EBC00101EB00107C49084476494A
:1021A000097B01EB8101084401903422F021029B5C
:1021B00009F0F0F81CE0002009F046FE03906D489D
:1021C00009F042FE0290039800906B48007D00EBFE
:1021D000C00101EB00106D4908446749097B01EB20
:1021E0008101084401903422F021029B09F0D2F8C9
:1021F0005F480078072816D15E4809F025FE039055
:10220000002009F021FE0290039800905A48407C7B
:1022100000EB80005E49084401904A22F021029BB5
:1022200009F0B8F815E0002009F00EFE03905148BF
:1022300009F00AFE0290039800904F48407C00EBA2
:1022400080005349084401904A22F021029B09F082
:10225000A1F84948408A02464EA1039004A80EF016
:102260009BFF43480078082810D1424809F0ECFD54
:102270000390002009F0E8FD02900398009060228E
:10228000F02104A8029B09F085F80FE0002009F076
:10229000DBFD0390374809F0D7FD029003980090CA
:1022A0006022F02104A8029B09F074F829E230486A
:1022B0000078012817D12F4809F0C6FD03900020AF
:1022C00009F0C2FD0290039800902B48007D00EBBE
:1022D0008000324901EB4000019082225021029B94
:1022E00009F058F816E0002009F0AEFD03902148EF
:1022F00009F0AAFD0290039800901F48007D00EBB2
:102300008000264901EB4000019082225021029B6F
:1023100009F040F816480078022817D1154809F04E
:1023200093FD0390002009F08FFD02900398009028
:102330001148407D00EB8000194901EB40000190FD
:1023400094225021029B09F025F831E0002009F089
:102350007BFD0390074809F077FD029003980090F9
:102360000548407D00EB80000D4901EB400019E07D
:102370003D01002032F0F0004005002073390108D3
:10238000C8390108700600209B390108183A010875
:10239000863A010825303464000000001C3B010827
:1023A0004E3B0108019094225021029B08F0F2FF5D
:1023B000D748007803281FD1D64809F045FD03907F
:1023C000002009F041FD029003980090D248007D62
:1023D00000EBC00101EB0010D04901EB4000CE49F9
:1023E000897D01EB810100EB41000190A622502183
:1023F000029B08F0CFFF1EE0002009F025FD0390AE
:10240000C44809F021FD029003980090C248007D65
:1024100000EBC00101EB0010C04901EB4000BE49D8
:10242000897D01EB810100EB41000190A622502142
:10243000029B08F0AFFFB648007804281FD1B548CA
:1024400009F002FD0390002009F0FEFC02900398C1
:102450000090B148007D00EBC00101EB0010AF49D6
:1024600001EB4000AC49097E01EB810100EB41002A
:102470000190B8225021029B08F08CFF1EE0002042
:1024800009F0E2FC0390A34809F0DEFC02900398F7
:102490000090A148007D00EBC00101EB00109F49B6
:1024A00001EB40009C49097E01EB810100EB4100FA
:1024B0000190B8225021029B08F06CFF94480078EC
:1024C00007281FD1934809F0BFFC0390002009F0B2
:1024D000BBFC0290039800908F48007D00EBC00188
:1024E00001EB00108E4901EB40008B49C97D01EBE7
:1024F000810100EB41000190A622F021029B08F02F
:1025000049FF1EE0002009F09FFC0390814809F07C
:102510009BFC0290039800907F48007D00EBC00177
:1025200001EB00107E4901EB40007B49C97D01EBC6
:10253000810100EB41000190A622F021029B08F0EE
:1025400029FF7348007808281FD1724809F07CFCE5
:102550000390002009F078FC0290039800906E48E8
:10256000007D00EBC00101EB00106E4901EB400063
:102570006949497E01EB810100EB41000190B822DD
:10258000F021029B08F006FF1EE0002009F05CFC31
:102590000390604809F058FC0290039800905E4850
:1025A000007D00EBC00101EB00105E4901EB400033
:1025B0005949497E01EB810100EB41000190B822AD
:1025C000F021029B08F0E6FE9BE0514800780128CC
:1025D00010D1504809F038FC0390002009F034FC79
:1025E0000290039800901E2250214F48029B08F051
:1025F000D1FE0FE0002009F027FC0390454809F0C8
:1026000023FC0290039800901E2250214648029B12
:1026100008F0C0FE3E480078022811D13D4809F07C
:1026200013FC0390002009F00FFC02900398009027
:10263000342250213C480F30029B08F0ABFE10E0E2
:10264000002009F001FC0390324809F0FDFB0290E4
:10265000039800903422502133480F30029B08F039
:1026600099FE2B480078032811D12A4809F0ECFB89
:102670000390002009F0E8FB0290039800904A22A2
:10268000502129481E30029B08F084FE10E00020F3
:1026900009F0DAFB03901F4809F0D6FB029003987B
:1026A00000904A22502120481E30029B08F072FE02
:1026B00017480078042811D1164809F0C5FB03908B
:1026C000002009F0C1FB0290039800906022502185
:1026D00015482D30029B08F05DFE10E0002009F047
:1026E000B3FB03900B4809F0AFFB029003980090F6
:1026F000602250210C482D30029B08F04BFE00E078
:1027000000BF00BF079807F009F809B000BD00003E
:102710003D01002032F0F00040050020803B010820
:10272000E43B0108483C010801390108F8B50020E4
:1027300009F08AFB054608F021FC9621322000F0C2
:10274000EDFE4FF4487010F041F9002009F07CFBD9
:10275000054608F013FC002419E0002009F074FB82
:1027600005466FF07F4009F06FFB064604EBC4019D
:1027700049008A1C074901EB4410334602210095A9
:1027800008F008FEC82000F0B2FE601CC4B20A2C9B
:10279000E3DBF8BD393D0108F8B500203049087089
:1027A00009F052FB054608F0E9FB022000F034FC7A
:1027B000002451E0204604EBD0714910A4EB410104
:1027C00021B3002009F040FB064647F2CE1009F085
:1027D0003BFB074604EBD471491001EB410303EBCB
:1027E000C1011E2303EB41018AB21E490096097DF7
:1027F00001EB81011C4B03EB011104EB840301EBA2
:1028000043003B46A82108F0C5FD23E0002009F065
:102810001BFB064647F2CE1009F016FB074604EBF9
:10282000D471491001EB410303EBC1011E2303EBFB
:1028300041018AB20B490096097D01EB81010A4BE7
:1028400003EB011104EB840301EB43003B46082139
:1028500008F0A0FD601CC4B2082CABDBF8BD000082
:102860003D01002040050020BD360108F8B50020DC
:102870005649087009F0E8FA054608F07FFB032086
:1028800000F0CAFB002420E0002009F0DDFA054634
:1028900047F2CE1009F0D8FA06464D490095097D59
:1028A000C1EB0111C1EBC1014A4B03EB4101C4EB88
:1028B0000413C81804EBC401162303EB410233468A
:1028C000082108F067FD601CC4B20A2CDCDB002480
:1028D00023E0002009F0B8FA054647F2CE1009F0CF
:1028E000B3FA06463A490095097DC1EB0111C1EBE7
:1028F000C101384B03EB410304F10A01C1EB0111A3
:102900005818A11D01EBC101162303EB4102334608
:10291000A82108F03FFD601CC4B2042CD9DB0024C0
:1029200035E0022C18DA002009F08EFA05466FF027
:102930007F4009F089FA064604EBC401162303EB35
:10294000410204EB8401244B03EB810033469021C8
:10295000009508F01FFD18E0002009F075FA054603
:102960006FF07F4009F070FA0646611C01EBC1016F
:10297000162303EB410204EB8401174B03EB8100A8
:1029800033469021009508F005FD601CC4B2052C6B
:10299000C7DB002009F058FA05466FF07F4009F0C8
:1029A00053FA064633463A22902109481A300095D8
:1029B00008F0F0FC09480A490A8802808978817089
:1029C0000848094909680160F8BD00003D01002080
:1029D000400500205D370108B83A01085101002088
:1029E000340100204D0100203001002038B50020C6
:1029F00009F02AFA04466FF07F4009F025FA0546EF
:102A0000064900948978491E01EB8101044A88181F
:102A10002B4601225F2108F0BDFC38BD4005002097
:102A2000733901082DE9F84300250024C6E120464A
:102A300004EBD0714910A4EB410100297ED0EB4892
:102A400030F9140047F6FF7188423AD1601CE8491A
:102A5000097888421AD16FF07F4009F0F5F90746EE
:102A6000002009F0F1F9804604EBD470401000EB2F
:102A7000400101EB00102A2101EB400082B24346E5
:102A8000D021DCA0009708F023FC95E1002009F09C
:102A9000DBF907466FF07F4009F0D6F9804604EB7A
:102AA000D470401000EB400101EB00102A2101EB33
:102AB000400082B24346D021CEA0009708F008FC27
:102AC0007AE1CA4830F81410CC4800EB4400008882
:102AD000084400B2CA4921F8140031F91400002357
:102AE0000522012106F01AFBC54830F91400C3493C
:102AF0003039B1F90D10884208DCC14830F91400B2
:102B0000BE493039B1F90F1088423DDA0125601C09
:102B1000B749097888421CD14FF47F0009F094F935
:102B20000746002009F090F9804604EBD47040106D
:102B300000EB400101EB00102A2100E05FE001EB17
:102B4000400082B24346D021AE48009708F0C0FB57
:102B500032E1002009F078F907464FF47F0009F0D0
:102B600073F9804604EBD470401000EB400101EB98
:102B700000102A2101EB400082B24346D021A14837
:102B8000009708F0A5FB17E1601C99490978884275
:102B90001AD14FF46E4009F057F90746002009F0AA
:102BA00053F9804604EBD470401000EB400101EB78
:102BB00000102A2101EB400082B24346D021914807
:102BC000009708F085FBF7E0002009F03DF9074683
:102BD0004FF46E4009F038F9804604EBD470401091
:102BE00000EB400101EB00102A2101EB400082B212
:102BF0004346D0218348009708F06AFBDCE07B481D
:102C000030F9140047F6FF7188423AD1601C7849C8
:102C1000097888421AD16FF07F4009F015F907460C
:102C2000002009F011F9804604EBD470401000EB4D
:102C3000400101EB00102A2101EB400082B2434623
:102C400030216CA0009708F043FBB5E0002009F0AC
:102C5000FBF807466FF07F4009F0F6F8804604EB7A
:102C6000D470401000EB400101EB00102A2101EB71
:102C7000400082B2434630215EA0009708F028FB56
:102C80009AE05A4830F814105C4800EB4400008881
:102C9000084400B25A4921F8140031F91400002305
:102CA0000522012106F03AFA554830F9140053493B
:102CB0003039B1F90D10884208DC514830F9140060
:102CC0004E493039B1F90F1088423BDA0125601CBA
:102CD0004749097888421AD14FF47F0009F0B4F8C7
:102CE0000746002009F0B0F8804604EBD47040108D
:102CF00000EB400101EB00102A2101EB400082B201
:102D0000434630213F48009708F0E2FA54E00020A3
:102D100009F09AF807464FF47F0009F095F88046CD
:102D200004EBD470401000EB400101EB00102A21AD
:102D300001EB400082B2434630213248009708F050
:102D4000C7FA39E0601C2A49097888421AD14FF441
:102D50006E4009F079F80746002009F075F88046C2
:102D600004EBD470401000EB400101EB00102A216D
:102D700001EB400082B2434630212248009708F020
:102D8000A7FA19E0002009F05FF807464FF46E40FB
:102D900009F05AF8804604EBD470401000EB400173
:102DA00001EB00102A2101EB400082B243463021A2
:102DB0001448009708F08CFA601CC4B2082CFFF687
:102DC00036AE012D09D10D483038007B28B90122DB
:102DD000D1020D4803F072FC05E000224FF40061BF
:102DE000094803F06BFCBDE8F8830000980600205A
:102DF0003D0100202D2D2D2D2D2D000070050020D2
:102E00008005002070060020000C014070B50020F5
:102E10001D49087009F018F8054608F0AFF80120C0
:102E200000F0FAF8FFF7E2FD00F010F9FEF734FECB
:102E3000002411E06FF07F4009F006F805462622D5
:102E400004FB02F000F11E012B4640F23F1201206C
:102E500008F08CF9601CC4B2052CEBDB002410E0F8
:102E60006FF07F4008F0F0FF054604EB8401490154
:102E7000491C88B22B4698221E2108F051FA601C8A
:102E8000C4B2032CECDB70BD3D01002030B587B02F
:102E900051480078012802D003287CD136E04F4900
:102EA0004F4809F01DF84D48807800904B48437812
:102EB00002784CA104A80EF06FF949488078009080
:102EC00047484378C2784BA101A80EF065F900206D
:102ED00008F0BAFF04464C4808F0B6FF05462B46FA
:102EE0000122AA2104A8009408F054FA002008F056
:102EF000ABFF0446444808F0A7FF05462B46C02216
:102F0000B42101A8009408F045FA61E0334934483F
:102F100008F0E6FF3D48807800903C48437802780E
:102F200030A104A80EF038F939488078009038486C
:102F30004378C2782FA101A80EF02EF93548007809
:102F400005280FD1304808F07FFF0446002008F024
:102F50007BFF05462B468222F02101A8009408F051
:102F600019FA0EE0002008F06FFF0446264808F02A
:102F70006BFF05462B468222F02101A8009408F041
:102F800009FA24480078062811D11F4808F05CFF90
:102F90000446002000E01AE008F056FF05462B46E4
:102FA0009422F02104A8009408F0F4F90EE0002027
:102FB00008F04AFF0446144808F046FF05462B4631
:102FC0009422F02104A8009408F0E4F900E000BF86
:102FD00000BF07B030BD00003E01002034010020DA
:102FE00030010020253032643A253032643A2530F1
:102FF000326400003230253032642D253032642DA9
:10300000253032640000000032F0F0005101002051
:103010004D0100203D010020F8B504464FF46E40FC
:1030200008F012FF0546002008F00EFF0646611E5C
:10303000C1EB0111044A881833460122114600955C
:1030400008F0A8F9F8BD00002736010838B50020BF
:1030500008F0FAFE04466FF07F4008F0F5FE0546E2
:103060002B4603227F2115A0009408F093F900203D
:1030700008F0EAFE04466FF07F4008F0E5FE0546E2
:103080002B4603229F210EA0009408F083F9002014
:1030900008F0DAFE04466FF07F4008F0D5FE0546E2
:1030A00008490094897A01EB4101074A88182B46A8
:1030B00001228F2108F06EF938BD000028000000C1
:1030C00029000000400500209B39010838B521483F
:1030D00008F0BAFE044609234FF4807206210090DE
:1030E000FA2007F063FF002008F0AEFE0446072335
:1030F000FC2219460090104607F058FF002008F007
:10310000A3FE04460723FE2219460090104607F04E
:103110004DFF104808F098FE0446112340F20112BA
:103120000A210090F92007F041FF0A4808F08CFEC0
:103130000446234607221221FA2008F017F8054812
:1031400008F082FE0446234603221321FC2008F0E7
:103150000DF838BD2176EE002DE9F84304460D4602
:1031600017461E46DDF820806FF07F4008F06CFEA9
:1031700081467B1E9AB26B1C99B2631C98B24B4677
:1031800007F0F4FF6FF07F4008F05EFE8146731E8B
:103190009AB26B1C99B2631C98B24B4608F0C0F807
:1031A0006FF07F4008F050FE8146731E9AB26B1C90
:1031B00099B2A31C98B24B4608F0B2F8002008F070
:1031C00043FE81464B463A462946204607F0CEFF4D
:1031D000002008F039FE81464B46324629462046FB
:1031E00008F09EF8002008F02FFE8146E11988B211
:1031F0004B463246294608F093F8002008F024FE9A
:103200008146711C8AB2E119491C88B24B46294695
:1032100008F086F8002008F017FE8146781C82B27C
:10322000A81981B24B46204607F0A0FF05EB060C1B
:10323000ACF1010C1FFA8CF304EB070CACF1010CA0
:103240001FFA8CF205F1020C1FFA8CF104F1030C49
:103250001FFA8CF0CDF8008007F0A8FEBDE8F883D7
:1032600070B504466FF07F4008F0EEFD054607F0AC
:1032700085FE012C06D0022C1BD0032C32D0042C4E
:1032800060D146E04FF47F0008F0DEFD05462B4696
:103290000A221421084607F069FF4FF47F0008F066
:1032A000D3FD05462B460A220F21192008F038F8D5
:1032B00048E04FF47F0008F0C7FD05462B460A2280
:1032C00014214FF4967007F051FF4FF47F0008F07F
:1032D000BBFD05462B460A220F2140F2311008F0B3
:1032E0001FF82FE04FF47F0008F0AEFD05462B4697
:1032F0000A22DC21142007F039FF4FF47F0008F088
:10330000A3FD05462B460A22D721192008F008F80C
:1033100018E04FF47F0008F097FD05462B460A227F
:10332000DC214FF4967007F021FF4FF47F0008F086
:103330008BFD05462B460A22D72140F2311007F0BB
:10334000EFFF00BF00BF70BD10B50122802104480F
:1033500003F0B4F900F080F800F022F810BD00008E
:10336000001001401FB58020009001200290002035
:103370000190032003906946014802F0F7FF1FBD4A
:10338000001001401FB58020009001200190032013
:1033900003906946014802F0E9FF1FBD001001409B
:1033A00010B50024FFF7DEFF04E0601CC4B201206A
:1033B0000FF02AFB80210F4803F078F908B1642C44
:1033C000F3DB642C01DB012010BD002404E0601C51
:1033D000C4B201200FF018FB8021064803F066F903
:1033E00008B9F02CF3DBF02C01DB0120ECE7002026
:1033F000EAE700000010014010B5FFF7C3FF00220C
:1034000080210B4803F05AF90A200FF0FDFAFFF76C
:10341000A9FF8021064803F049F9012801D10124C0
:1034200000E000242D200FF0EFFA204610BD000030
:103430000010014070B50026002408E0FFF7DCFF13
:10344000054605FA04F03043C6B2601CC4B2082C2D
:10345000F4DB304670BD000010B5FFF793FF00228B
:103460008021084803F02AF940F2EE200FF0CCFA50
:1034700001228021034803F021F90F200FF0C4FA44
:1034800010BD00000010014070B50446FFF77AFF40
:10349000002526E004F00106641086B10022802198
:1034A000114803F00BF908200FF0AEFA0122802139
:1034B0000D4803F003F93A200FF0A6FA0FE00022BE
:1034C0008021094803F0FAF846200FF09DFA012206
:1034D0008021054803F0F2F802200FF095FA681CED
:1034E000C5B2082DD6DB70BD00100140704706E064
:1034F00042F63D0100E0491E0029FCD1401E002893
:10350000F6D1704706E00A2101E04A1ED1B2002937
:10351000FBDC401E0028F6D17047000003B587B0E1
:10352000FE4808F091FC034629220690DDE90701D8
:1035300007F01CFEF94808F087FC06900898401E2A
:1035400080B205900798401E80B204902C22DDE9DD
:10355000051307F00BFEF14808F076FC069008987A
:10356000801E80B205900798401E80B204902E22E3
:10357000DDE9051307F0FAFDE84808F065FC069060
:103580000898C01E80B205902E220146DDE9063063
:1035900007F0ECFDE14808F057FC06900898001F82
:1035A00080B205900798801C80B204902E22DDE93D
:1035B000051307F0DBFDD94808F046FC0690089893
:1035C000401F80B205900798233080B204900E22ED
:1035D000DDE9051307F0CAFDD04808F035FC069078
:1035E0000898801F80B205900798233080B204901D
:1035F0000F22DDE9051307F0B9FDC84808F024FCE7
:1036000006900898C01F80B205900798233080B2BA
:1036100004900F22DDE9051307F0A8FDBF4808F06C
:1036200013FC06900898083880B20590079824305B
:1036300080B204900E22DDE9051307F097FDB7482C
:1036400008F002FC06900898093880B205900798A7
:10365000243080B204900F22DDE9051307F086FDC7
:10366000AE4808F0F1FB069008980A3880B2059041
:103670000798253080B204900E22DDE9051307F08B
:1036800075FDA64808F0E0FB069008980B3880B25C
:1036900005900798253080B204900E22DDE90513CD
:1036A00007F064FD9D4808F0CFFB069008980C38A1
:1036B00080B205900798253080B204900E22DDE993
:1036C000051307F053FD954808F0BEFB06900898D7
:1036D0000D3880B205900798263080B204900E22F3
:1036E000DDE9051307F042FD8C4808F0ADFB0690BC
:1036F00008980E3880B205900798253080B2049063
:103700000F22DDE9051307F031FD844808F09CFB2A
:10371000069008980F3880B205900798263080B23E
:1037200004900E22DDE9051307F020FD7B4808F028
:103730008BFB06900898103880B2059007982630C9
:1037400080B204900E22DDE9051307F00FFD7348E7
:1037500008F07AFB06900898113880B20590079817
:10376000263080B204900F22DDE9051307F0FEFC3D
:103770006A4808F069FB06900898123880B20590F4
:103780000798273080B204900E22DDE9051307F078
:10379000EDFC624808F058FB06900898133880B298
:1037A00005900798273080B204900E22DDE90513BA
:1037B00007F0DCFC594808F047FB069008981438DD
:1037C00080B205900798273080B204900F22DDE97F
:1037D000051307F0CBFC514808F036FB069008981B
:1037E000153880B205900798283080B204900E22D8
:1037F000DDE9051307F0BAFC484808F025FB069000
:103800000898163880B205900798283080B2049046
:103810000E22DDE9051307F0A9FC404808F014FB6F
:1038200006900898173880B205900798283080B223
:1038300004900E22DDE9051307F098FC374808F0E4
:1038400003FB06900898183880B205900798283036
:1038500080B204900E22DDE9051307F087FC2F48A3
:1038600008F0F2FA06900898193880B20590079887
:10387000293080B204900D22DDE9051307F076FCB3
:10388000264808F0E1FA069008981A3880B20590A8
:103890000798293080B204900E22DDE9051307F065
:1038A00065FC1E4808F0D0FA069008981B3880B2D4
:1038B00005900798293080B204900E22DDE90513A7
:1038C00007F054FC154808F0BFFA069008981C3819
:1038D00080B2059007982A3080B204900E22DDE96C
:1038E000051307F043FC0D4808F0AEFA069008985F
:1038F0001D3880B2059007982A3080B204900E22BD
:10390000DDE9051307F032FC044808F09DFA069043
:1039100008981E3880B20590079801E02176EE00E5
:103920002A3080B204900E22DDE9051307F01EFC58
:10393000FE4808F089FA069008981F3880B2059072
:1039400007982A3080B204900F22DDE9051307F0B2
:103950000DFCF64808F078FA06900898203880B2F6
:10396000059007982A3080B204900F22DDE90513F4
:1039700007F0FCFBED4808F067FA0690089821383C
:1039800080B2059007982B3080B204900D22DDE9BB
:10399000051307F0EBFBE54808F056FA0690089887
:1039A000223880B2059007982B3080B204900E2206
:1039B000DDE9051307F0DAFBDC4808F045FA06906C
:1039C0000898233880B2059007982C3080B2049074
:1039D0000D22DDE9051307F0C9FBD44808F034FADD
:1039E00006900898243880B2059007982C3080B251
:1039F00004900E22DDE9051307F0B8FBCB4808F070
:103A000023FA06900898253880B2059007982C3044
:103A100080B204900E22DDE9051307F0A7FBC3482E
:103A200008F012FA06900898263880B20590079898
:103A30002C3080B204900F22DDE9051307F096FBCD
:103A4000BA4808F001FA06900898273880B2059025
:103A500007982C3080B204900F22DDE9051307F09F
:103A600085FBB24808F0F0F906900898283880B233
:103A7000059007982D3080B204900E22DDE90513E1
:103A800007F074FBA94808F0DFF906900898293878
:103A900080B2059007982D3080B204900E22DDE9A7
:103AA000051307F063FBA14808F0CEF906900898CB
:103AB0002A3880B2059007982D3080B204900F22EA
:103AC000DDE9051307F052FB984808F0BDF90690B0
:103AD00008982B3880B2059007982D3080B204905A
:103AE0000F22DDE9051307F041FB904808F0ACF91F
:103AF000069008982C3880B2059007982E3080B236
:103B000004900E22DDE9051307F030FB874808F02A
:103B10009BF9069008982D3880B2059007982E30B2
:103B200080B204900E22DDE9051307F01FFB7F48E9
:103B300008F08AF9069008982E3880B20590079808
:103B40002E3080B204900F22DDE9051307F00EFB42
:103B5000764808F079F9069008982F3880B20590D9
:103B600007982F3080B204900E22DDE9051307F08C
:103B7000FDFA6E4808F068F906900898303880B26F
:103B8000059007982F3080B204900E22DDE90513CE
:103B900007F0ECFA654808F057F9069008983138B4
:103BA00080B2059007982F3080B204900F22DDE993
:103BB000051307F0DBFA5D4808F046F9069008980F
:103BC000323880B2059007982F3080B204900F22CF
:103BD000DDE9051307F0CAFA544808F035F90690F4
:103BE0000898333880B205900798303080B204903E
:103BF0000E22DDE9051307F0B9FA4C4808F024F964
:103C000006900898343880B205900798303080B21A
:103C100004900E22DDE9051307F0A8FA434808F0E6
:103C200013F906900898353880B20590079830301F
:103C300080B204900E22DDE9051307F097FA3B48A5
:103C400008F002F906900898363880B20590079877
:103C5000313080B204900D22DDE9051307F086FAB9
:103C6000324808F0F1F806900898373880B205908D
:103C70000798313080B204900E22DDE9051307F079
:103C800075FA2A4808F0E0F8069000900898333852
:103C900080B205900798543080B204900898363866
:103CA00080B203900798483080B2029003A90EC9F1
:103CB00007F07CF91D4808F0C7F8069008983438DA
:103CC00080B205900798473080B204900D22DDE95C
:103CD000051307F04BFA154808F0B6F80690009067
:103CE00008982F3880B205900798533080B204901E
:103CF0000898333880B203900798473080B202901A
:103D000003A90EC907F052F9084808F09DF806907B
:103D1000009008982C3880B205900798523080B2F5
:103D2000049008982F3880B2039001E02176EE00CD
:103D30000798463080B2029003A90EC907F036F901
:103D4000FE4808F081F806900898283880B205905F
:103D50000798443080B204900E22DDE9051307F085
:103D600005FAF64808F070F806900898273880B2EF
:103D700005900798453080B204900D22DDE90513C7
:103D800007F0F4F9ED4808F05FF806900898263837
:103D900080B205900798443080B204900D22DDE98E
:103DA000051307F0E3F9E54808F04EF80690089887
:103DB000253880B205900798443080B204900C22D8
:103DC000DDE9051307F0D2F9DC4808F03DF806906C
:103DD00000900898213880B205900798503080B242
:103DE00004900898243880B203900798433080B23A
:103DF000029003A90EC907F0D9F8D04808F024F8BA
:103E000006900898213880B205900798433080B218
:103E100004900C22DDE9051307F0A8F9C74808F063
:103E200013F80690009008981D3880B20590079806
:103E30004F3080B204900898203880B203900798E1
:103E4000423080B2029003A90EC907F0AFF8BB4818
:103E500007F0FAFF069008981D3880B20590079881
:103E6000423080B204900C22DDE9051307F07EF9A0
:103E7000B24807F0E9FF0690009008981A3880B21F
:103E8000059007984E3080B2049008981C3880B294
:103E900003900798413080B2029003A90EC907F041
:103EA00085F8A64807F0D0FF069008981A3880B227
:103EB00005900798413080B204900C22DDE905138B
:103EC00007F054F99D4807F0BFFF0690009008984E
:103ED000163880B2059007984D3080B2049008984B
:103EE000193880B203900798403080B2029003A93D
:103EF0000EC907F05BF8914807F0A6FF06900898F6
:103F0000163880B2059007983F3080B204900E2298
:103F1000DDE9051307F02AF9884807F095FF0690B8
:103F200000900898133880B2059007984C3080B202
:103F300004900898153880B2039007983F3080B2FB
:103F4000029003A90EC907F031F87C4807F07CFF06
:103F5000069000900898113880B2059007984B3071
:103F600080B204900898133880B2039007983F30CD
:103F700080B2029003A90EC907F018F86F4807F045
:103F800063FF06900898113880B2059007983E307C
:103F900080B204900D22DDE9051307F0E7F86748C9
:103FA00007F052FF0690009008980E3880B20590F6
:103FB00007984A3080B204900898103880B2039075
:103FC00007983E3080B2029003A90EC906F0EEFFBA
:103FD0005A4807F039FF0690009008980B3880B2D5
:103FE000059007984A3080B2049008980E3880B245
:103FF000039007983D3080B2029003A90EC906F0E5
:10400000D5FF4E4807F020FF069008980B3880B285
:10401000059007983D3080B204900C22DDE905132D
:1040200007F0A4F8454807F00FFF069000900898A5
:10403000C01F80B205900798493080B2049008985C
:104040000A3880B2039007983C3080B2029003A9EE
:104050000EC906F0ABFF394807F0F6FE0690009057
:104060000898401F80B205900798483080B20490AD
:104070000898C01F80B2039007983B3080B202902E
:1040800003A90EC906F092FF2C4807F0DDFE06904A
:1040900000900898C01E80B205900798473080B203
:1040A00004900898401F80B2039007983A3080B27D
:1040B000029003A90EC906F079FF204807F0C4FE5C
:1040C00006900898C01E80B2059007983A3080B2DA
:1040D00004900E22DDE9051307F048F8174807F0B1
:1040E000B3FE06900090089880B20590079847307C
:1040F00080B204900898801E80B2039007983A30EE
:1041000080B2029003A90EC906F050FF0B4807F0D9
:104110009BFE069007983A3080B205900C22069BD1
:10412000089907F023F8054807F08EFE06900898D6
:10413000283880B205900798583001E02176EE00CB
:1041400080B204901722DDE9051307F00FF8FE484E
:1041500007F07AFE06900898273880B205900798F5
:10416000553080B204901B22DDE9051306F0FEFFF6
:10417000F54807F069FE06900898263880B2059049
:104180000798543080B204901E22DDE9051306F032
:10419000EDFFED4807F058FE06900898253880B2EC
:1041A00005900798533080B204902022DDE9051372
:1041B00006F0DCFFE44807F047FE06900898243834
:1041C00080B205900798533080B204900322DDE955
:1041D000051306F0CBFFDC4807F036FE0690089882
:1041E000243880B205900798683080B204900C2281
:1041F000DDE9051306F0BAFFD34807F025FE069067
:104200000898233880B205900798533080B2049004
:104210000122DDE9051306F0A9FFCB4807F014FEE3
:1042200006900898233880B205900798683080B2CD
:1042300004900C22DDE9051306F098FFC24807F050
:1042400003FE0690009008981F3880B205900798EA
:10425000743080B204900898223880B20390079896
:10426000683080B2029003A90EC906F09FFEB648DE
:1042700007F0EAFD0690009008981C3880B205907F
:104280000798743080B2049008981F3880B2039069
:104290000798673080B2029003A90EC906F086FE27
:1042A000A94807F0D1FD069008981C3880B2059007
:1042B0000798663080B204900D22DDE9051306F000
:1042C00055FFA14807F0C0FD069008981B3880B242
:1042D00005900798673080B204900C22DDE9051341
:1042E00006F044FF984807F0AFFD069008981A388A
:1042F00080B205900798663080B204900D22DDE907
:10430000051306F033FF904807F09EFD06900090DD
:104310000898173880B205900798723080B20490E0
:104320000898193880B203900798653080B20290DF
:1043300003A90EC906F03AFE834807F085FD0690F2
:1043400000900898153880B205900798713080B2B7
:1043500004900898173880B203900798653080B2AF
:10436000029003A90EC906F021FE774807F06CFD04
:10437000069000900898123880B205900798713026
:1043800080B204900898153880B203900798643082
:1043900080B2029003A90EC906F008FE6A4807F031
:1043A00053FD0690009008980F3880B2059007984A
:1043B000703080B204900898123880B20390079849
:1043C000633080B2029003A90EC906F0EFFD5E488B
:1043D00007F03AFD069008980F3880B205900798CC
:1043E000633080B204900C22DDE9051306F0BEFEB6
:1043F000554807F029FD0690009008980B3880B2C8
:10440000059007986F3080B2049008980E3880B2FB
:1044100003900798623080B2029003A90EC906F09B
:10442000C5FD494807F010FD069008980B3880B28A
:1044300005900798623080B204900C22DDE90513E4
:1044400006F094FE404807F0FFFC069008980A38F2
:1044500080B205900798613080B204900D22DDE9AA
:10446000051306F083FE384807F0EEFC0690009036
:104470000898401F80B2059007986D3080B2049074
:104480000898093880B203900798613080B2029092
:1044900003A90EC906F08AFD2B4807F0D5FC06904B
:1044A00000900898801E80B2059007986C3080B20A
:1044B00004900898401F80B203900798603080B243
:1044C000029003A90EC906F071FD1F4807F0BCFC5D
:1044D000069000900898401C80B2059007986C30B8
:1044E00080B204900898801E80B2039007985F30D5
:1044F00080B2029003A90EC906F058FD124807F0D9
:10450000A3FC06900898383880B2059007987F3051
:1045100080B204900C22DDE9051306F027FE0A485C
:1045200007F092FC069000900898343880B205900D
:1045300007988B3080B204900898373880B2039087
:1045400007987E3080B201E02176EE00029003A948
:104550000EC906F02BFDFE4807F076FC0690009091
:104560000898323880B2059007988A3080B204905B
:104570000898343880B2039007987E3080B2029059
:1045800003A90EC906F012FDF14807F05DFC069084
:1045900000900898303880B205900798893080B232
:1045A00004900898323880B2039007987D3080B22A
:1045B000029003A90EC906F0F9FCE54807F044FC97
:1045C00006900898303880B2059007987C3080B209
:1045D00004900D22DDE9051306F0C8FDDC4807F064
:1045E00033FC069008982F3880B2059007987C30ED
:1045F00080B204900C22DDE9051306F0B7FDD44823
:1046000007F022FC069008982E3880B20590079893
:104610007C3080B204900D22DDE9051306F0A6FD82
:10462000CB4807F011FC069008982D3880B2059011
:1046300007987C3080B204900C22DDE9051306F067
:1046400095FDC34807F000FC0690009008982A38B2
:1046500080B205900798883080B2049008982C3872
:1046600080B2039007987B3080B2029003A90EC9F4
:1046700006F09CFCB64807F0E7FB0690009008980F
:10468000273880B205900798873080B20490089848
:104690002A3880B2039007987B3080B2029003A939
:1046A0000EC906F083FCAA4807F0CEFB06900898D6
:1046B000293880B205900798993080B204900C2276
:1046C000DDE9051306F052FDA14807F0BDFB069099
:1046D0000898283880B205900798973080B20490E7
:1046E0000D22DDE9051306F041FD994807F0ACFB0A
:1046F00006900898273880B2059007987A3080B2E3
:1047000004900D22DDE9051306F030FD904807F016
:104710009BFB06900898273880B205900798963042
:1047200080B204900C22DDE9051306F01FFD8848D5
:1047300007F08AFB069000900898243880B2059014
:104740000798863080B204900898263880B203908B
:1047500007987A3080B2029003A90EC906F026FCB1
:104760007B4807F071FB06900898263880B20590C8
:104770000798943080B204900D22DDE9051306F00D
:10478000F5FC734807F060FB06900898253880B266
:1047900005900798933080B204900C22DDE9051350
:1047A00006F0E4FC6A4807F04FFB0690009008987A
:1047B000213880B205900798863080B2049008981E
:1047C000243880B203900798793080B2029003A910
:1047D0000EC906F0EBFB5E4807F036FB0690089822
:1047E000243880B205900798923080B204900C2251
:1047F000DDE9051306F0BAFC554807F025FB0690E5
:104800000898233880B205900798913080B20490C0
:104810000B22DDE9051306F0A9FC4D4807F014FB57
:1048200006900898223880B2059007988F3080B2A1
:1048300004900C22DDE9051306F098FC444807F0CB
:1048400003FB06900898213880B2059007987830CD
:1048500080B204900D22DDE9051306F087FC3C4888
:1048600007F0F2FA06900898213880B20590079870
:104870008D3080B204900D22DDE9051306F076FC40
:10488000334807F0E1FA06900898203880B2059086
:104890000798793080B204900C22DDE9051306F008
:1048A00065FC2B4807F0D0FA06900898203880B2B3
:1048B000059007988C3080B204900C22DDE9051336
:1048C00006F054FC224807F0BFFA069008981F38FB
:1048D00080B205900798783080B204900D22DDE90F
:1048E000051306F043FC1A4807F0AEFA0690089844
:1048F0001F3880B2059007988A3080B204900D224C
:10490000DDE9051306F032FC114807F09DFA069028
:1049100008981E3880B205900798783080B20490CD
:104920000C22DDE9051306F021FC094807F08CFA9A
:10493000069008981E3880B205900798893080B29A
:1049400004900D22DDE9051306F010FC004801E09B
:104950002176EE0007F078FA069008981D3880B2AC
:1049600005900798773080B204900D22DDE9051399
:1049700006F0FCFBFE4807F067FA069008981D3821
:1049800080B205900798873080B204900F22DDE94D
:10499000051306F0EBFBF64807F056FA0690089868
:1049A0001C3880B205900798773080B204900C22B2
:1049B000DDE9051306F0DAFBED4807F045FA06904D
:1049C00008981C3880B205900798863080B2049011
:1049D0001022DDE9051306F0C9FBE54807F034FABB
:1049E000069008981B3880B205900798773080B2FF
:1049F00004901F22DDE9051306F0B8FBDC4807F040
:104A000023FA069008981A3880B2059007987630F5
:104A100080B204901F22DDE9051306F0A7FBD448FD
:104A200007F012FA06900898193880B20590079896
:104A3000763080B204902022DDE9051306F096FB63
:104A4000CB4807F001FA06900898183880B2059014
:104A50000798763080B204902022DDE9051306F035
:104A600085FBC34807F0F0F906900898173880B224
:104A700005900798753080B204902122DDE9051376
:104A800006F074FBBA4807F0DFF90690089816386C
:104A900080B205900798763080B204901322DDE949
:104AA000051306F063FBB24807F0CEF906900898AC
:104AB000163880B2059007988A3080B204900C2294
:104AC000DDE9051306F052FBA94807F0BDF9069091
:104AD0000898153880B205900798753080B2049018
:104AE0001322DDE9051306F041FBA14807F0ACF9FC
:104AF00006900898153880B2059007988A3080B2E1
:104B000004900C22DDE9051306F030FB984807F00D
:104B10009BF906900898143880B205900798753074
:104B200080B204901222DDE9051306F01FFB9048C5
:104B300007F08AF906900898143880B20590079813
:104B40008A3080B204900D22DDE9051306F00EFBD9
:104B5000874807F079F906900898133880B20590D5
:104B60000798743080B204901122DDE9051306F035
:104B7000FDFA7F4807F068F906900898133880B26C
:104B8000059007988A3080B204900D22DDE9051364
:104B900006F0ECFA764807F057F9069008981238B4
:104BA00080B205900798743080B204901022DDE93D
:104BB000051306F0DBFA6E4807F046F906900898F0
:104BC000123880B2059007988A3080B204900E2285
:104BD000DDE9051306F0CAFA654807F035F90690D5
:104BE0000898113880B205900798743080B204900C
:104BF0000E22DDE9051306F0B9FA5D4807F024F945
:104C000006900898113880B2059007988A3080B2D3
:104C100004900E22DDE9051306F0A8FA544807F0C7
:104C200013F906900898103880B2059007987430F0
:104C300080B204900D22DDE9051306F097FA4C4886
:104C400007F002F906900898103880B2059007988E
:104C50008A3080B204900E22DDE9051306F086FA50
:104C6000434807F0F1F80690009008980C3880B29D
:104C700005900798803080B2049008980F3880B271
:104C800003900798733080B2029003A90EC906F012
:104C90008DF9374807F0D8F8069008980C3880B29C
:104CA00005900798733080B204900C22DDE905135B
:104CB00006F05CFA2E4807F0C7F8069000900898B6
:104CC000083880B2059007987F3080B20490089829
:104CD0000B3880B203900798723080B2029003A91B
:104CE0000EC906F063F9224807F0AEF8069008985E
:104CF000083880B205900798723080B204900C2278
:104D0000DDE9051306F032FA194807F09DF8069020
:104D100000900898001F80B2059007987E3080B2FE
:104D200004900898C01F80B203900798713080B239
:104D3000029003A90EC906F039F90D4807F084F86E
:104D400006900898001F80B205900798703080B2D6
:104D500004900E22DDE9051306F008FA044807F076
:104D600073F806900090089880B20590079801E0CB
:104D70002176EE007D3080B204900898C01E80B28B
:104D800003900798703080B2029003A90EC906F014
:104D90000DF9FE4807F058F806900798703080B279
:104DA00005900C22069B089906F0E0F9F74807F0F9
:104DB0004BF80690009008980C3880B20590079840
:104DC000983080B2049008980F3880B2039007980A
:104DD0008B3080B2029003A90EC906F0E7F8EB48C9
:104DE00007F032F80690009008980A3880B20590D3
:104DF0000798993080B2049008980C3880B20390DC
:104E000007988B3080B2029003A90EC906F0CEF845
:104E1000DE4807F019F8069000900898C01F80B28D
:104E200005900798993080B2049008980A3880B2AB
:104E3000039007988C3080B2029003A90EC906F047
:104E4000B5F8D24807F000F8069000900898001FC7
:104E500080B2059007989A3080B204900898C01FDD
:104E600080B2039007988C3080B2029003A90EC9DB
:104E700006F09CF8C54806F0E7FF069000900898F9
:104E8000801E80B2059007989B3080B204900898ED
:104E9000001F80B2039007988C3080B2029003A963
:104EA0000EC906F083F8B94806F0CEFF06900898C0
:104EB000801E80B2059007988D3080B204900E223B
:104EC000DDE9051306F052F9B04806F0BDFF069083
:104ED0000898401E80B2059007988F3080B20490E9
:104EE0000C22DDE9051306F041F9A84806F0ACFFF5
:104EF00006900798913080B205900A22069B089987
:104F000006F034F9A14806F09FFF0690089829386A
:104F100080B205900798AD3080B204902322DDE97D
:104F2000051306F023F9994806F08EFF06900898BD
:104F3000283880B205900798AB3080B204902722C1
:104F4000DDE9051306F012F9904806F07DFF0690A2
:104F50000898273880B205900798A93080B204904D
:104F60002922DDE9051306F001F9884806F06CFFF7
:104F700006900898263880B205900798A83080B22D
:104F800004902B22DDE9051306F0F0F87F4806F0C7
:104F90005BFF06900898253880B205900798A730E7
:104FA00080B204900D22DDE9051306F0DFF87748A2
:104FB00006F04AFF06900898253880B205900798B9
:104FC000C63080B204900D22DDE9051306F0CEF85C
:104FD0006E4806F039FF06900898243880B2059094
:104FE0000798A63080B204900D22DDE9051306F083
:104FF000BDF8664806F028FF06900898243880B26D
:1050000005900798C73080B204900D22DDE90513A2
:1050100006F0ACF85D4806F017FF069008982338B4
:1050200080B205900798A63080B204900C22DDE98A
:10503000051306F09BF8554806F006FF0690089801
:10504000233880B205900798C63080B204900E22B3
:10505000DDE9051306F08AF84C4806F0F5FE0690E7
:105060000898223880B205900798A53080B2049045
:105070000D22DDE9051306F079F8444806F0E4FE58
:1050800006900898223880B205900798C63080B202
:1050900004900E22DDE9051306F068F83B4806F09F
:1050A000D3FE06900898213880B205900798A53065
:1050B00080B204900D22DDE9051306F057F833485D
:1050C00006F0C2FE06900898213880B20590079835
:1050D000C63080B204900D22DDE9051306F046F8D3
:1050E0002A4806F0B1FE06900898203880B2059054
:1050F0000798A53080B204900D22DDE9051306F073
:1051000035F8224806F0A0FE06900898203880B2B4
:1051100005900798C63080B204900D22DDE9051392
:1051200006F024F8194806F08FFE069000900898C3
:105130001D3880B205900798B23080B2049008986C
:105140001F3880B203900798A43080B2029003A960
:105150000EC905F02BFF0D4806F076FE0690009074
:1051600008981D3880B205900798D33080B204901B
:1051700008981F3880B203900798C53080B202901B
:1051800003A90EC905F012FF004801E02176EE00E8
:1051900006F05AFE069008981D3880B205900798D0
:1051A000A43080B204900D22DDE9051305F0DEFF86
:1051B000FE4806F049FE069008981D3880B205901A
:1051C0000798C53080B204900D22DDE9051305F083
:1051D000CDFFF64806F038FE0690009008981A3881
:1051E00080B205900798B13080B2049008981C38BE
:1051F00080B203900798A33080B2029003A90EC931
:1052000005F0D4FEE94806F01FFE069000900898CD
:105210001A3880B205900798D23080B2049008986E
:105220001C3880B203900798C43080B2029003A962
:105230000EC905F0BBFEDD4806F006FE0690089894
:105240001A3880B205900798A33080B204900D22DE
:10525000DDE9051305F08AFFD44806F0F5FD069058
:1052600008981A3880B205900798C43080B204902C
:105270000D22DDE9051305F079FFCC4806F0E4FDC9
:1052800006900898193880B205900798A23080B22D
:1052900004900E22DDE9051305F068FFC34806F00F
:1052A000D3FD06900898193880B205900798C4304D
:1052B00080B204900D22DDE9051305F057FFBB48CD
:1052C00006F0C2FD06900898193880B2059007983C
:1052D000A23080B204900D22DDE9051305F046FFEF
:1052E000B24806F0B1FD06900898193880B20590D2
:1052F0000798C33080B204900E22DDE9051305F053
:1053000035FFAA4806F0A0FD06900898183880B22C
:1053100005900798A23080B204900E22DDE90513B3
:1053200005F024FFA14806F08FFD06900898183874
:1053300080B205900798C33080B204900D22DDE959
:10534000051305F013FF994806F07EFD06900898B6
:10535000173880B205900798A23080B204900D22D1
:10536000DDE9051305F002FF904806F06DFD06909B
:105370000898173880B205900798C33080B204901F
:105380000D22DDE9051305F0F1FE884806F05CFD0D
:1053900006900898163880B205900798A13080B220
:1053A00004900E22DDE9051305F0E0FE7F4806F0CB
:1053B0004BFD06900898163880B205900798C230C9
:1053C00080B204900E22DDE9051305F0CFFE774888
:1053D00006F03AFD06900898153880B205900798B7
:1053E000A13080B204900E22DDE9051305F0BEFE67
:1053F0006E4806F029FD06900898153880B2059091
:105400000798C23080B204900E22DDE9051305F042
:10541000ADFE664806F018FD06900898143880B274
:1054200005900798A13080B204900D22DDE90513A4
:1054300005F09CFE5D4806F007FD069008981438BC
:1054400080B205900798C23080B204900D22DDE949
:10545000051305F08BFE554806F0F6FC06900898FB
:10546000133880B205900798A03080B204900E22C5
:10547000DDE9051305F07AFE4C4806F0E5FC0690E0
:105480000898133880B205900798C23080B2049013
:105490000D22DDE9051305F069FE444806F0D4FC51
:1054A00006900898123880B205900798A03080B214
:1054B00004900E22DDE9051305F058FE3B4806F086
:1054C000C3FC06900898123880B205900798C13046
:1054D00080B204900E22DDE9051305F047FE334843
:1054E00006F0B2FC06900898113880B20590079833
:1054F000A03080B204900D22DDE9051305F036FEE0
:105500002A4806F0A1FC06900898113880B2059050
:105510000798C13080B204900E22DDE9051305F032
:1055200025FE224806F090FC06900898103880B2BC
:10553000059007989F3080B204900E22DDE9051394
:1055400005F014FE194806F07FFC06900898103804
:1055500080B205900798C13080B204900E22DDE938
:10556000051305F003FE114806F06EFC069008983E
:105570000F3880B205900798A03080B204900D22B9
:10558000DDE9051305F0F2FD084806F05DFC069024
:1055900008980F3880B205900798C13080B2049007
:1055A0000D22DDE9051305F0E1FD01E02176EE00B5
:1055B000874806F049FC0690009008980A3880B2A7
:1055C00005900798AC3080B2049008980E3880B2ED
:1055D000039007989F3080B2029003A90EC905F08E
:1055E000E5FC7B4806F030FC069008980E3880B247
:1055F00005900798C03080B204900E22DDE90513B3
:1056000005F0B4FD724806F01FFC06900090089863
:105610000A3880B205900798CD3080B2049008987F
:105620000D3880B203900798C03080B2029003A971
:105630000EC905F0BBFC664806F006FC069000901B
:105640000898C01F80B205900798AB3080B20490D4
:1056500008980A3880B2039007989F3080B2029071
:1056600003A90EC905F0A2FC594806F0EDFB06900F
:1056700000900898083880B205900798CC3080B226
:10568000049008980A3880B203900798BF3080B21F
:10569000029003A90EC905F089FC4D4806F0D4FB21
:1056A00006900898083880B205900798BE3080B2FE
:1056B00004900D22DDE9051305F058FD444806F07D
:1056C000C3FB06900898C01F80B2059007989F30D2
:1056D00080B204900E22DDE9051305F047FD3C4839
:1056E00006F0B2FB06900898C01F80B2059007989C
:1056F000BC3080B204900E22DDE9051305F036FDC2
:10570000334806F0A1FB06900898801F80B20590F0
:1057100007989F3080B204902B22DDE9051305F035
:1057200025FD2B4806F090FB06900898401F80B29C
:1057300005900798A03080B204902922DDE9051376
:1057400005F014FD224806F07FFB06900898001F24
:1057500080B205900798A13080B204902722DDE93D
:10576000051305F003FD1A4806F06EFB0690089835
:10577000C01E80B205900798A23080B20490242207
:10578000DDE9051305F0F2FC114806F05DFB06901B
:105790000898801E80B205900798A33080B20490CC
:1057A0002222DDE9051305F0E1FC094806F04CFB77
:1057B00006900898401E80B205900798A43080B2E9
:1057C00004902022DDE9051305F0D0FC09B000BDEE
:1057D0002176EE0072B600BFFEE7000010B500F0C3
:1057E0006FFD00BF34200349C86000BF00F006FD14
:1057F00010BD0000002002400021074AD161074986
:10580000096941F00401054A11611146096941F035
:105810004001116170470000500600200020024046
:105820000021074AD1610749096941F00201054A8F
:10583000116111464861096941F0400111617047E9
:1058400050060020002002400022054BDA61054A84
:10585000126942F00102034B1A6101807047000097
:10586000500600200020024000201E49C96801F0B7
:10587000100139B11C49C96941F002011A4AD161CC
:1058800040F010001749C96801F0040139B1164908
:10589000C96941F00101144AD16140F00400114985
:1058A000C96901F0010169B10F49C96941F00401F9
:1058B0000D4AD16100BF0B49C96921F00101094AB4
:1058C000D16100BF00BF40F20111884206D10549F5
:1058D000C96921F00101034AD16101E00149C860B1
:1058E00000BF7047002002405006002070B50446FB
:1058F00000F0EAFE054609E0601C38B124B100F072
:10590000E3FE401BA04201D9032070BD1248C068CD
:1059100000F001000028EFD10F48C06800F020001F
:1059200020B100BF20200C49C86000BF0A48C068F1
:1059300000F0100048B90848C06900F0010020B923
:105940000548C06800F0040018B1FFF78DFF012082
:10595000DBE70020D9E700000020024070B50446D4
:10596000B3F5804F13D1D1E9000540EA05108D68E9
:1059700040EA05208D6928438D8940EA054054F8A6
:105980002250064E3540284344F8220003E06FF0D1
:10599000704044F82200002070BD00000000F0CFED
:1059A00070B50246086852F8200020F001000E6829
:1059B00042F826008868082801D1402300E000232F
:1059C000486818438E683043CE6830430E693043D0
:1059D0004E693043CE6930430E6A30434E6A3043DD
:1059E0008E6A3043CE6A30430E6B40EA0604886903
:1059F0000443486B0443074D45F4806545F4E025B6
:105A0000086852F82000A84320430E6842F8260098
:105A1000002070BD7FFB080010B50346D1E90004EB
:105A200040EA04108C6840EA04208C8940EA04446F
:105A3000088A401E44EA0054087D801E44EA006043
:105A40008C692043541C53F8244004F04044204304
:105A5000541C43F82400002010BD00001EB502466F
:105A600012A4D4E90030A468CDE90104009302290E
:105A700017D14FF4C87392FBF3F403FB142363B103
:105A8000D31702EB93739B10A2EB83033BB9642300
:105A900092FBF3F403FB14230BB11D201EBD1C204D
:105AA000FCE7481E1DF80000F8E700001F1C1F1E41
:105AB0001F1E1F1F1E1F1E1F13B500242FE09DF861
:105AC00003009DF8071088420CD19DF801009DF855
:105AD0000510884206D19DF806009DF80210401A74
