:020000040800F2
:100000001025002045010008ABC1000869980008D0
:100010008DC100080D120008B90F01080000000092
:1000200000000000000000000000000081CA00087D
:100030003D3C000800000000EDC500082DCE000882
:100040005F0100085F0100085F01000835C7000874
:100050005F0100085F0100085F0100085F01000800
:100060005F0100085F0100085F0100085F010008F0
:100070005F0100085F0100085F0100085F010008E0
:100080005F0100085F0100085F0100085F010008D0
:10009000010F01085F0100085F0100085F0100080F
:1000A0005F0100085F0100085F0100085F010008B0
:1000B000C5CE00085F0100085F0100085F0100086D
:1000C0005F0100085F0100085F0100085F01000890
:1000D0005F0100085F0100085F0100085F01000880
:1000E0005F0100085F0100085F0100085F01000870
:1000F0005F0100085F0100085F0100085F01000860
:100100005F0100085F0100085F0100085F0100084F
:100110005F0100085F0100085F0100085F0100083F
:100120005F0100085F0100085F0100085F0100082F
:10013000DFF80CD000F020FD0048004785340108AE
:10014000102500200648804706480047FEE7FEE7E6
:10015000FEE7FEE7FEE7FEE7FEE7FEE7FEE7FEE777
:10016000C3CE0008310100082DE9F05F05460020EC
:1001700092469B4688460646814640241BE0284618
:1001800041464746224600F020F853465A46C01AD8
:10019000914110D311461846224600F081FB2D1ADA
:1001A00067EB01084F4622460120002100F078FB52
:1001B00017EB00094E41201EA4F10104DFDC484684
:1001C00031462A464346BDE8F09F202A04DB203A08
:1001D00021FA02F00021704721FA02F3D040C2F167
:1001E0002002914008431946704740EA01039B07EB
:1001F00003D009E008C9121F08C0042AFAD203E09C
:1002000011F8013B00F8013B521EF9D27047D2B2FF
:1002100001E000F8012B491EFBD270470022F6E7EF
:1002200010B513460A4604461946FFF7F0FF20466C
:1002300010BD421E12F8013F002BFBD111F8013B0B
:1002400002F8013B002BF9D17047421C10F8011B4A
:100250000029FBD1801A704710B5002200E0521C23
:10026000835C8C5CA34201D1002BF8D1D8B2E1B2FF
:10027000401A10BD034611F8012B00F8012B002A8B
:10028000F9D11846704770B5064611F089FB04682D
:1002900005460A220021304600F072FB2C6070BD3A
:1002A000F0B480EA0102D40F4200B2EB410F02D257
:1002B0000246084611464A0042D0C30DDDB2C1F3E2
:1002C000C752AD1A202D35DAC1F3160141F40002F0
:1002D00004B15242C5F1200602FA06F12A41104447
:1002E000B3EBD05F23D0C4B1012DA0EBC35009DC28
:1002F000F0BC4FF0004202EAC352DBB200F500004E
:1003000000F07FBB400000F1807000EBC350A0F113
:10031000807040EAD170490009E0490841EAC071A3
:10032000A0EBC35000F50000400800EBC350F0BC48
:1003300000F05EBB6142012202EB4101001BF6E7C7
:10034000F0BC704781F00041AAE780F00040A7E7C9
:1003500080EA010210B502F00043400022D04A00BA
:100360001FD0010E01EB1261C0F35600C2F356021A
:1003700040F4000042F40002A0FB022000047F3998
:10038000140400D0401C50EA124001D44000491E21
:10039000C2B20C0604EBD010401C4008802A02D0E8
:1003A00003E0002010BD20F00100002900DA002049
:1003B000184310BD30B480EA010202F0004530F06D
:1003C000004221F0004013D090B1C30DD40DC2F310
:1003D0001601C0F31600E41A41F4000140F40002D3
:1003E0007D34914201D3641C00E04900002C02DA04
:1003F00030BC002070474FF400000023914201D32D
:10040000891A034340084FEA4101F7D151B19142A3
:1004100002D14FF0004105E002D24FF0010101E0AE
:100420006FF0010103EBC450284430BC00F0E0BA87
:100430002DE9FE4F804681EA0300C00F0C46009074
:1004400021F0004123F00045B8EB0200A94105D29C
:100450004046214690461C460B46024623F000408B
:10046000104347D0270DC7F30A00C3F30A51029087
:10047000401A019040286BDAC3F3130040F4801B4C
:100480000098924620B10023D2EB030A63EB0B0BDA
:1004900001985946C0F14002504600F001FA064664
:1004A0000D4650465946019A00F009FA10EB080033
:1004B0006141002487EA115284EAE7731A4340D06D
:1004C000009A62B3019A012A4FEA075215DC001B19
:1004D00061EB02014FF0004202EA0752CDE900420F
:1004E000001C41F5801132462B4600F0C7FA03B0DC
:1004F000BDE8F08F40462146F9E7001B61EB0201A1
:10050000001C41F5801300185B412018A2F500176C
:1005100047EB030140EAD570B6196D4111E06D0853
:100520004FEA360645EAC0754FEA0752001B61EBF9
:100530000201001C41F5801149084FEA3000001902
:10054000514132462B4603B0BDE8F04F00F087BA68
:100550000098012240000023D0EB020263EBE0731D
:10056000009821464FEAE074B8EB000061EB04010B
:10057000E9E783F000435BE781F0004158E72DE9AC
:10058000FE4F81EA030404F0004421F0004100948E
:100590004FF0000B23F0004350EA01045ED052EA12
:1005A00003045BD0C3F30A54C1F30A552C44A4F2EC
:1005B000F3340194A0FB0254C1F3130141F4801100
:1005C000C3F3130343F4801301FB024400FB034E07
:1005D000840A970A44EA815447EA8357A4FB0768D0
:1005E00002958D0A05FB07854FEA932C04FB0C54FA
:1005F0002705029D4FEA065847EA1637B5EB08056E
:100600006EEB070C870E920E47EA811742EA8312BF
:10061000A7FB0201B6EB0B0164EB00042B0D43EAD0
:100620000C335E1844EB1C50DA465146E7FB0201DE
:10063000C5F313044FEA0B3343EA14534FEA043271
:10064000019C43EA0603A4F10C040294009CCDE94A
:1006500000B400F013FA03B0BDE8F08F00200146AB
:10066000F9E72DE9F04D81EA030404F0004B21F095
:10067000004514464FF0000A23F0004150EA0502FD
:1006800020D054EA01021DD0C5F30A570246C5F333
:100690001303C1F31300C1F30A5640F4801543F469
:1006A0008013A7EB0608101BD64608F2FD3873EB43
:1006B000050002D308F1010801E092185B41B8F18E
:1006C000000F03DA00200146BDE8F08D00204FF452
:1006D0008011064684460EE0171B73EB050705D311
:1006E000121B63EB050306434CEA010C49084FEA71
:1006F000300092185B4150EA0107EDD152EA030045
:1007000012D082EA040083EA0501084305D0101BD9
:10071000AB4106D20122002306E000224FF0004345
:1007200002E06FF0010253101AEB06004CEB085187
:1007300010EB0A0041EB0B01BDE8F04D00F08FB962
:10074000C10F80EAE0700844CA079623002100F038
:1007500058B996230022114600F053B90EB5C10FC7
:1007600080EAE0700844CA07002140F233438DE874
:100770000E000A460B4600F081F903B000BD00F000
:10078000004220F00040C10DC0F3160040F400000C
:100790007F2901DA00207047962903DCC1F1960118
:1007A000C84001E096398840002AF4D040427047A2
:1007B00020F00040C10DC0F3160040F400007F2976
:1007C00001DA00207047962903DCC1F19601C84088
:1007D000704796398840704770B5C1F30A5201F0EE
:1007E00000450024C1F3130140F2FF3341F48011AE
:1007F0009A4201DA002070BD40F233439A42A2F2DD
:10080000334203DC5242FFF7E0FC00E090402C430F
:10081000F1D0404270BD00F0004230F000400AD0FC
:10082000C10D01F56071C0F3160042EA0151C20822
:1008300040071143704700200146704701F0004314
:1008400030B421F0004150EA010206D00A0DA2F5B1
:100850006072C1F31301002A02DC30BC0020704733
:10086000440F44EAC104C100E01830BC00EBC250A0
:1008700000F0BEB830B50B4601460020202201240E
:1008800009E021FA02F59D4205D303FA02F5491B5E
:1008900004FA02F52844151EA2F10102F1DC30BD74
:1008A000202A04DB203A00FA02F100207047914030
:1008B000C2F1200320FA03F3194390407047202A25
:1008C00006DBCB17203A41FA02F043EAE07306E078
:1008D00041FA02F3D040C2F1200291400843194688
:1008E000704700000FB4002300B589B00CA9009137
:1008F0000B996FF00042CB601E4B06931E4B079383
:100900000423CDE901321D4A089202466B460020BD
:1009100000F0E6F909B05DF814FB70B586B0064644
:100920004FF0FF300091CDE90101002015460C4643
:1009300004903246694604A8FFF7D4FF02460498A3
:10094000211825B108B1084600E020462860049827
:1009500000280DD0002A02DD0098884208D0081B2C
:100960000094CDE901043246694604A8FFF7BAFFB6
:1009700006B070BD190F0008370F0008A50B00085E
:100980002DE9F04791460F4680460446002614F8AC
:10099000015B2DB100F002F90068405DC007F6D19F
:1009A0002B2D02D02D2D18D0641E4A4639462046E4
:1009B00000F0D2FA27B13968A14201D1C7F800800E
:1009C00071054FF002040BD54042002803DD10F002
:1009D000E7FF0460A007BDE8F08746F48066E4E71F
:1009E0000028F8DA10F0DCFF04606FF00040F2E756
:1009F0000029A8BF7047401C490008BF20F0010033
:100A0000704710B4B0FA80FC00FA0CF050EA010410
:100A100004BF10BC704749B1CCF1200421FA04F4A2
:100A200011FA0CF118BF012121430843A3EB0C017B
:100A3000CB1D4FEA00614FEA102042BF002010BCDE
:100A4000704700EBC35010440029A4BF10BC70478E
:100A5000401C490008BF20F0010010BC704710B5D1
:100A6000141E73F1000408DA401C41F100019218D1
:100A70005B411A4301D120F0010010BD2DE9F04D7A
:100A800092469B4611B1B1FA81F202E0B0FA80F2CF
:100A900020329046FFF704FF04460F4640EA0A0062
:100AA00041EA0B0153465A46084313D0114653EA14
:100AB000010019D0C8F140025046FFF786FB0546F9
:100AC0000E46504659464246FFF7EAFE084305D017
:100AD000012004E020463946BDE8F08D00200543A2
:100AE00046EAE0762C4337430A986305E40AA0EB14
:100AF00008000022FD0A44EA47540A3002D50020CB
:100B00000146E9E7010510196941DDE908450019C9
:100B10006941BDE8F04DA2E7C1F30A52C1F31301E8
:100B200040F2FF3341F480119A4202DA002001467C
:100B3000704740F233439A42A2F2334202DC5242FF
:100B4000FFF743BBFFF7ACBE30B5041E71F10004E4
:100B500004DB4FF00044404264EB0101141E73F1CA
:100B6000000405DB1C464FF00043524263EB0403D4
:100B7000994208BF904230BD064C074D06E0E06840
:100B800040F0010394E8070098471034AC42F6D3D4
:100B9000FFF7D2FA44620208646202080048704714
:100BA0004062020810B50446FFF7F8FF0068005DD8
:100BB00000F0010010BD00002DE9FF4F087883B060
:100BC0009946FF2805D0491C2D2804D00024002078
:100BD00008E000200BE00124F9E700EB800003EBC4
:100BE0004000491C0B78FF2BF7D104B14042002391
:100BF0000293147819461D462D2C01D02B2C04D1BC
:100C0000521C2D2C13D000240294AA461478FF2CD9
:100C10000FD00A25A3FB057801FB05814FF0000CDE
:100C200003FB0C11521CE3194AEB0101EEE701240E
:100C3000EAE7814453EA010002D019F5C87F06DAD9
:100C400003980021C0E9001107B0BDE8F08F00252E
:100C5000AE4E2F46DFF8B882184600F0DAF9CDE93B
:100C60000001B9F1000002DAC9F1000400E0044615
:100C70000023A74A1AEB030B42EB045A12E0E007E9
:100C800007D02A46334638464146FFF778FC0746E8
:100C900088462A46334610461946FFF770FC05463B
:100CA0000E466410002CEAD1DDE90001B9F1000F15
:100CB0005A46534606DAFFF7D4FC3A464346FFF756
:100CC000D0FC05E0FFF75BFC3A464346FFF757FCD4
:100CD000029A0AB181F00041039AC2E90001B3E728
:100CE0002DE9FF4F1F468DB0D7E901464FF0FF3881
:100CF0002E2045464FF000090B90B9696D1C0E98E7
:100D00008847396A824688470028F6D1BAF1FF3F02
:100D10000AD024F4D064002E11DDBAF12B0F08D0D4
:100D2000BAF12D0F0BD102E0404611B08DE744F42B
:100D30008064B9696D1C0E9888478246761E6946A4
:100D4000600501D52D2000E02B208DF8000001F179
:100D5000010B0DF1200809E0B9696D1C0E98884758
:100D600082460F9844F40074761E0560002E02DD62
:100D7000BAF1300FF0D00B998A453ED144F080048F
:100D800006E00F99681CA9F1010944F40074086099
:100D9000B9696D1C761E0E98884782463028F0D0BF
:100DA0002BE00B998A4505D1200603D444F080043A
:100DB000761E18E0504610F0CBFF08B30DF113017A
:100DC000761E44F400748B4508D2AAF130000BF86B
:100DD000010B200607D5A9F1010003E0200602D48B
:100DE00009F101008146A00502D50F99681C086031
:100DF000B9696D1C0E9888478246002ED1DC53E0FD
:100E0000002E51DDBAF1650F02D0BAF1450F4BD17A
:100E1000A00549D5B9696D1C24F44074761E0E985E
:100E200088478246002E0CDD2B2804D0BAF12D0F06
:100E300007D144F48074B9696D1C0E9888478246C6
:100E4000761EE00501D52D2100E02B2108F8011BBD
:100E5000CDF82C8021E00DF12901761E44F40074B8
:100E600088450CD2AAF1300010F0FF0088F800008D
:100E700002D10B99884509D908F1010806E0E0057F
:100E800001D5244801E042F20F708146B9696D1C1A
:100E90000E98884782460F980560002E04DD504664
:100EA00010F056FF0028D6D1F9690E988847FF2028
:100EB0008BF8000088F800000020069007904B4651
:100EC0006A4608A906A8FFF777FEA00502D46FF0CE
:100ED00001002AE714F0240F0AD0E00714D1DDE95D
:100EE00006123868031D3B600068C0E900120BE081
:100EF000DDE90601FFF7A2FC0146E00704D13868EE
:100F0000021D3A600068016028460EE700001440A8
:100F10000000F03FF1D8FFFF426842B1016811F8CC
:100F2000013B23B1521EC0E900121846704701214F
:100F3000C160881E704742685AB1C368016843B9EE
:100F400083688B4205D0491E521CC0E90012002064
:100F500070474FF0FF3070472DE9F05F8246007810
:100F6000002715468B460AF10104B946302801D006
:100F70009DB113E014F8010B0127782803D05828FD
:100F800001D045B10AE00DB1102D07D10027102581
:100F900014F8010B02E0082500E00A250026B046FF
:100FA0000EE005FB080005FB06F1012701EB1046EA
:100FB0001FFA80F8B6F5803F00D3B94614F8010B4C
:100FC000294600F018F80028EBDABBF1000F05D035
:100FD0000FB1641E00E05446CBF80040B9F1000F99
:100FE00006D010F0DDFC02210160C81EBDE8F09FB4
:100FF00048EA0640FAE73A2800D2303820F02002CA
:10100000412A01D3A2F13700884201D34FF0FF30CB
:1010100070470EB540F2334202920022CDE9002221
:101020001346FFF72BFD03B000BD70B58C1810F808
:10103000015B15F0070301D110F8013B2A1106D11D
:1010400010F8012B03E010F8016B01F8016B5B1E37
:10105000F9D12B0705D40023521E0DD401F8013B12
:10106000FAE710F8013BCB1A921C03E013F8015B7E
:1010700001F8015B521EF9D5A142D8D3002070BD02
:1010800070B5044600252068806800F0010018B3A0
:101090002068806820F001002168886005F0BCFEAF
:1010A000054613E005F0B8FE401B02280ED9206863
:1010B000806800F0010048B1A06A40F01000A06212
:1010C000E06A40F00100E062012070BD20688068A5
:1010D00000F001000028E5D10020F6E738B504460D
:1010E0000025002000902068806800F0010078BB97
:1010F0002068806840F00100216888601948006815
:101100001949B0FBF1F0009002E00098401E0090F9
:1011100000980028F9D105F07FFE054619E005F09A
:101120007BFE401B022814D92068806800F0010073
:1011300078B9A06A40F01000A062E06A40F00100B7
:10114000E06200BF002084F8240000BF012038BD09
:1011500005E02068806800F001000028DFD0002052
:10116000F5E700003401002040420F0010B50022D6
:101170004FF48051014805F049FE10BD000C0140BC
:1011800010B501221103024805F040FE10BD000019
:10119000000C014010B50122D102064805F036FED0
:1011A0000A2011F0EDFF00224FF40061014805F024
:1011B0002DFE10BD000C01401248407D05281DD2B7
:1011C000DFE800F003080D12170032200E4909680D
:1011D000486314E03C200C49096848630FE046204E
:1011E0000949096848630AE05020074909684863CB
:1011F00005E0632004490968486300E000BF00BFC0
:10120000704700004C050020BC04002000BFFEE732
:1012100010B501220421024805F0F8FD10BD0000C0
:101220000010014010B500220421024805F0EEFD37
:1012300010BD00000010014010B50122022102483B
:1012400005F0E4FD10BD00000010014010B50022C3
:101250000221024805F0DAFD10BD00000010014037
:1012600010B50446392012F0C3FCE0B212F0D1FCF4
:10127000C4F3072012F0CDFCC4F3074012F0C9FC00
:10128000200E12F0C6FC12F0A5FC10F047FB10BDBA
:101290002DE9F04107460E4614463C2012F0A8FC0A
:1012A000F0B212F0B6FC301212F0B3FC12F092FC65
:1012B0000CB10020208016E010F030FB05461E2DFA
:1012C0000ED1384600F055F905463D2012F090FC4D
:1012D00012F080FC2F4434B120882844208002E0A2
:1012E0002846BDE8F081E7E710B50BF081F908B1B9
:1012F00000F082F8302000F0CDF810BD10B531209C
:1013000000F0C8F810BD10B504462146362000F0A4
:10131000B3F810BD10B5044614B1204600F0DBF858
:10132000342000F0B7F810BD70B50646304600F026
:10133000BBF8054685B12946304600F024F804463E
:10134000412C09D0142C01D1432070BD422C01D175
:10135000B320FAE72046F8E77019FFF7DBFFF4E760
:1013600010B50446204600F0B6F820785C2802D07C
:1013700020782F2803D10021642000F011F93220B9
:1013800000F088F810BD2DE9F04105460F46002613
:10139000012429E001E0601CC4B2285D5C2805D06E
:1013A000285D2F2802D0285D0028F4D1285D10B1D7
:1013B000601CC4B200E00024A819FFF7D1FF064664
:1013C00084B1BC420ED0412E0AD0142E02D143204B
:1013D000BDE8F081422E01D1B320F9E73046F7E7AE
:1013E000264601E03046F3E7D4E710B50446FF2176
:1013F0002046FFF7C8FF10BD10B5222012F0F8FB01
:10140000322011F0DBFE12F0E9FB044612F0E2FBA1
:10141000204610BD2DE9F04112F0E0FB044612F029
:10142000DDFB054612F0DAFB064612F0D7FB074655
:1014300012F0D0FB44EA052040EA064040EA07608B
:10144000BDE8F08110B504460C2012F0D1FB204617
:1014500012F0DFFBFFF7DEFF10BD70B504460A2077
:1014600012F0C6FB204612F0D4FB12F0B7FB054683
:1014700012F0B0FB284670BD70B505460C462846F4
:1014800012F0B6FB204612F0C4FB12F0A3FB10F0E2
:1014900045FA70BD10B50446204612F0A9FB12F0C3
:1014A00099FB10F03BFA10BD0246114600E0491CC2
:1014B00008780028FBD100E0491E08785C2804D099
:1014C00008782F2801D09142F6D1914200D0491CD2
:1014D000881AC0B270472DE9F0410646012012F08B
:1014E00087FB12F07BFB43282BDA2B20FFF7B5FF9D
:1014F000102826DA2F2012F07BFB002012F089FB47
:101500003220FFF7C7FF0446142C1AD1CF20FFF773
:10151000A4FF0446ACB14C20FFF794FF00EB042776
:1015200039464C2000F03CF85020FFF78BFF00EBD1
:1015300004273946502000F033F80021702000F0D5
:101540002FF82F2012F054FB3578284612F061FB5B
:1015500009E0761C35785C2D01D02F2D00D10025B7
:10156000284612F056FB002DF3D112F033FBBDE8F4
:10157000F08170B504462D2012F03AFB12F02EFBDC
:101580000646054646B100BF207812F042FB641CB7
:10159000701EC0B2061EF7D112F01CFB284670BDAB
:1015A00070B505460C460D2012F022FB284612F0BD
:1015B00030FBE0B212F02DFBC4F3072012F029FB40
:1015C000C4F3074012F025FB200E12F022FB12F0AC
:1015D00001FB70BD10B500221021024805F016FC79
:1015E00010BD00000008014010B501221021024882
:1015F00005F00CFC10BD00000008014010B50122F0
:101600008021024805F002FC10BD0000000C0140E2
:1016100010B500228021024805F0F8FB10BD000043
:10162000000C014010B501224021024805F0EEFBFC
:1016300010BD00000014014010B5002240210248F6
:1016400005F0E4FB10BD00000014014010B50122BC
:101650005103024805F0DAFB10BD00000014014000
:1016600010B500224FF40051014805F0CFFB10BD2A
:101670000014014010B501221103024805F0C6FB19
:1016800010BD00000014014010B500224FF480513D
:10169000014805F0BBFB10BD0014014010B501224C
:1016A0001146024805F0B2FB10BD0000000C0140DD
:1016B00010B500220121024805F0A8FB10BD000072
:1016C000000C014010B501222021024805F09EFBCC
:1016D00010BD00000010014010B50022202102487A
:1016E00005F094FB10BD000000100140F0B5044669
:1016F0000D46FF22FF21002319E0E05C4140002756
:1017000011E001F0010602F0010C52104910BCF189
:10171000000F01D041F080011EB182F0A00281F0E3
:101720000101781CC7B2082FEBDB581CC3B2AB42D7
:10173000E3DB41EA0220F0BD002070470020704743
:101740002DE9F04106460F4601210C480DF05FFCE3
:101750000B4908700948D0F8B852002403E0285D0E
:1017600008490855641C064800788442F7DB0120CC
:10177000054908700020BDE8F081000084180020B1
:101780000C020020881B00200D02002033B50C46FF
:1017900000252DE09DF801109DF8030004F006FDE2
:1017A00005469DF802002044A8421AD99DF802007F
:1017B000281A241A9DF80100401CC0B28DF80100BF
:1017C00000208DF802009DF801000D2810D10120A5
:1017D0008DF801009DF80300401CC0B28DF8030095
:1017E00006E09DF802002044C0B28DF8020000E03F
:1017F000D0E700BF0720B4FBF0F100FB114009491E
:1018000009780844C0B28DF800009DF80000072850
:1018100005DB9DF80000C01FC0B28DF800000098E5
:101820003CBD00000801002038B5174800780128A9
:1018300029DD6FF07F400AF0FDFE044600200AF02B
:10184000F9FE0546104800940078801E692202EBDC
:10185000C00081B22B4691220CA00AF087F90A48F9
:101860000078401E08490870002107480078401E93
:10187000074A11540448007806490978884202D181
:1018800000200449087038BD5201002020000000EB
:101890008C0600205301002038B5044600200AF0D1
:1018A000C9FE054614234FF49B72022100904FF4A9
:1018B000967009F067FF4FF46E400AF0BBFE0546D4
:1018C000052340F2331202210090101F09F05AFF45
:1018D0004FF46E400AF0AEFE054614234FF49B729F
:1018E000052100904FF496700AF0B4F84FF46E4062
:1018F0000AF0A0FE0546132340F23512062100909F
:1019000040F22D1009F03EFF192C0DDA00200AF0EC
:1019100091FE05460F2340F235120621009040F259
:101920002D1009F02FFF24E0192C0FDB322C0DDADB
:1019300000200AF07FFE05460C2340F235120621F6
:10194000009040F22D1009F01DFF12E0322C0FDB49
:101950004B2C0DDA00200AF06DFE0546092340F2FB
:1019600035120621009040F22D1009F00BFF00E027
:1019700000BF38BD38B50020254908700AF05AFE6E
:10198000044609F0E7FE042001F0F2FE00200AF010
:1019900051FE04466FF07F400AF04CFE05462B4690
:1019A0001E22C8211B4800940AF0E0F800200AF02B
:1019B00041FE04466FF07F400AF03CFE05462B4690
:1019C0001E22FA211348801D00940AF0CFF800204F
:1019D0000AF030FE044610480AF02CFE05462B465D
:1019E0001E22C8210B480C3000940AF0BFF80020DA
:1019F0000AF020FE044608480AF01CFE05462B4665
:101A00003422C8210348123000940AF0AFF838BDE0
:101A100045010020A043010832F0F000F8B504466B
:101A200000200AF007FE05464FF47F000AF002FE90
:101A30000646601E00EB400101EBC0001E2101EBD9
:101A4000400082B233468C21024800950AF08EF89D
:101A5000F8BD0000C141010838B500200AF0EAFDD8
:101A6000044614234FF49B72022100904FF49670A9
:101A700009F088FE4FF46E400AF0DCFD0446234670
:101A80000522022140F22F100AF036F84FF46E4082
:101A90000AF0D0FD044623460522022140F233100D
:101AA0000AF02AF84FF46E400AF0C4FD04462346BB
:101AB0000B2207214FF4967009F044FF4FF46E405B
:101AC0000AF0B8FD04460F234FF49A7208210090E3
:101AD000901F09F057FE4FF46E400AF0ABFD04462C
:101AE00023460522102140F22F1009F02BFF4FF45E
:101AF0006E400AF09FFD04462346032211214FF455
:101B0000987009F01FFF4FF46E400AF093FD0446F1
:101B100023460422112140F2311009F0EDFF38BDB7
:101B20002DE9FC41484890F84000002845D10024A8
:101B300040E0621C45A101A80FF002FF204604EB23
:101B4000D0714910A4EB4101C9B100200AF072FD27
:101B5000064640480AF06EFD074604EBD47040107C
:101B600000EB400101EB00102A2101EB400082B2A2
:101B70003B46A82101A8009609F0F8FF18E00020D4
:101B80000AF058FD064633480AF054FD074604EBB8
:101B9000D470401000EB400101EB00102A2101EB52
:101BA000400082B23B46082101A8009609F0DEFF02
:101BB000601CC4B2082CBCDB44E0002440E0621C82
:101BC00022A101A80FF0BCFE204604EBD071491001
:101BD000A4EB4101C9B100200AF02CFD06461D48C6
:101BE0000AF028FD074604EBD470401000EB4001DA
:101BF00001EB00103D2101EB800082B23B46A821A1
:101C000001A8009609F0B2FF18E000200AF012FDCA
:101C1000064610480AF00EFD074604EBD47040104B
:101C200000EB400101EB00103D2101EB800082B28E
:101C30003B46082101A8009609F098FF601CC4B239
:101C4000042CBCDBBDE8FC814C050020253032644F
:101C50003A00000032F0F00038B50C49B1F900004C
:101C600000230522012107F001FE00200AF0E2FC1A
:101C700004464FF46E400AF0DDFC05462B46022276
:101C800064210348009409F071FF38BD9A010020D7
:101C90008006002038B54FF46E400AF0CBFC0446B5
:101CA000122340F20F1208210090501E09F06AFD25
:101CB0004FF46E400AF0BEFC04462346062207217C
:101CC0004FF4867009F03EFE4FF46E400AF0B2FC0D
:101CD000044623460422062140F20D1009F032FE8C
:101CE0004FF46E400AF0A6FC04462346022205216A
:101CF0004FF4877009F026FE4FF46E400AF09AFC0C
:101D000004460F234FF48A7205210090501E09F0FB
:101D100039FD4FF46E400AF08DFC0446234606223E
:101D2000102140F2111009F00DFE4FF46E400AF040
:101D300081FC04462346042211214FF4897009F0E6
:101D400001FE4FF46E400AF075FC04462346022261
:101D5000122140F2131009F0F5FD38BD7CB50120C9
:101D600085490870854908706FF07F400AF062FC71
:101D70000546F0234FF4A07282210090002009F064
:101D800001FD6FF07F400AF055FC054600200AF087
:101D900051FC06467A490095097DC1EB0111794A4B
:101DA00002EB4100334691223C2109F0DFFE002086
:101DB0000AF040FC0546A323C8228F21009064202E
:101DC00009F048FE43F2FF300AF034FC05461A23BE
:101DD0003C228C210090FF2001F06AFD43F2FF308D
:101DE0000AF028FC05466FF07F400AF023FC064607
:101DF00063490095097DC1EB0111624A02EB410183
:101E0000881D334691224FF48C7109F0AFFE43F2E6
:101E1000FF300AF00FFC05461A233E22D221009023
:101E2000052001F045FD43F2FF300AF003FC0546B2
:101E30006FF07F400AF0FEFB064651490095097D90
:101E4000C1EB01114F4A02EB410101F10C00334695
:101E5000D722142109F08AFE43F2FF300AF0EAFB90
:101E600005461A233E22D2210090E12001F020FDF8
:101E700043F2FF300AF0DEFB05466FF07F400AF0C8
:101E8000D9FB06463E490095097DC1EB01113D4A4B
:101E900002EB410101F112003346D722F02109F093
:101EA00065FE00200AF0C6FB0546CA2340F239123F
:101EB000AA210090072009F065FC00242BE0621C99
:101EC00031A101A80FF03CFD4FF47F000AF0B2FBF6
:101ED000054604EB04110722009002EB41001F238A
:101EE0001A46AA2101F0E4FC4FF47F000AF0A2FB9D
:101EF00005466FF07F400AF09DFB064604EB041098
:101F0000132202EB40013346B12201A8009509F0EB
:101F10002DFE601CC4B2092CD1DB002428E043F262
:101F2000FF300AF087FB054604EB041157220090AE
:101F300002EB41001F231A46CC2101F0B9FC43F209
:101F4000FF300AF077FB05466FF07F400AF072FB26
:101F5000064604EB0412632303EB42010B4A02EB37
:101F600044003346D322009509F000FE601CC4B241
:101F7000032CD4DB7CBD0000510100205201002065
:101F80004C0500207A45010825640000B64501088B
:101F900031B582B01A4800780A2830DA194800783A
:101FA00018B19DF808002E2829D002A91648FEF77E
:101FB00040F96FF07F400AF03DFB044600200AF034
:101FC00039FB05460E4800940078401E692202EB5A
:101FD000C00081B22B46912202A809F0C7FD094832
:101FE000007838B99DF808002E2803D104480078FD
:101FF0000449087002480078401C014908703EBD41
:1020000052010020530100208C06002010B5002052
:10201000144908701449087014490870144800786D
:10202000012806D0022807D0032808D004280CD1A4
:1020300008E001F077FA09E000F09AFC06E000F011
:1020400001FD03E0FFF796FC00E000BF00BF084879
:10205000007807F019FF074801780548007800F07C
:102060000BF810BD52010020510100205301002047
:10207000460100204501002003B587B007980128DC
:1020800006D0022805D003287ED004287DD12AE37B
:10209000F7E3FE480078012817D1FD480AF0CAFA94
:1020A000039000200AF0C6FA029003980090F948C5
:1020B0008078401E00EB8000F749084401901E2202
:1020C0005021029B09F052FD16E000200AF0B2FAFE
:1020D0000390EF480AF0AEFA029003980090ED48A2
:1020E0008078401E00EB8000EB49084401901E22DE
:1020F0005021029B09F03AFDE448007802281BD1E8
:10210000E3480AF097FA039000200AF093FA02904D
:1021100003980090DF48007D00EB8000DF4901EB71
:10212000C000DC49C97A00EBC10001903422502183
:10213000029B09F01BFD1AE000200AF07BFA0390D5
:10214000D3480AF077FA029003980090D148007DB6
:1021500000EB8000D14901EBC000CE49C97A00EB09
:10216000C100019034225021029B09F0FFFCC948B4
:10217000B0F90D00002305220121039007F076FB42
:10218000C2480078032801E01FE179E310D1C0487C
:102190000AF050FA039000200AF04CFA02900398DB
:1021A00000904A225021BE48029B09F0DFFC0FE05C
:1021B00000200AF03FFA0390B5480AF03BFA02907B
:1021C000039800904A225021B548029B09F0CEFCAA
:1021D000B048B0F90F00002305220121039007F059
:1021E00045FBAA480078042810D1A9480AF022FA31
:1021F000039000200AF01EFA0290039800906022DB
:102200005021A748029B09F0B1FC0FE000200AF022
:1022100011FA03909E480AF00DFA0290039800907C
:10222000602250219E48029B09F0A0FC974800784C
:10223000052816D196480AF0FDF9039000200AF00F
:10224000F9F90290039800909248807A00EB4000E0
:102250009449084401901E22F021029B09F086FC5B
:1022600015E000200AF0E6F9039089480AF0E2F947
:102270000290039800908748807A00EB40008949DB
:10228000084401901E22F021029B09F06FFC7F4858
:10229000007806281DD17E480AF0CCF90390002072
:1022A0000AF0C8F90290039800907A48007D00EB8C
:1022B000C00101EB00107C4908447649097B01EB21
:1022C0008101084401903422F021029B09F04EFC68
:1022D0001CE000200AF0AEF903906D480AF0AAF95C
:1022E0000290039800906B48007D00EBC00101EB69
:1022F00000106D4908446749097B01EB81010844DE
:1023000001903422F021029B09F030FC5F480078F4
:10231000072816D15E480AF08DF9039000200AF0D4
:1023200089F90290039800905A48407C00EB8000A5
:102330005E49084401904A22F021029B09F016FCF4
:1023400015E000200AF076F9039051480AF072F97E
:102350000290039800904F48407C00EB8000534966
:10236000084401904A22F021029B09F0FFFB4948F2
:10237000408A02464EA1039004A80FF0E1FA4348B8
:102380000078082810D142480AF054F90390002040
:102390000AF050F90290039800906022F02104A8FE
:1023A000029B09F0E3FB0FE000200AF043F90390E1
:1023B00037480AF03FF90290039800906022F0211C
:1023C00004A8029B09F0D2FB5BE2304800780128A8
:1023D00017D12F480AF02EF9039000200AF02AF9AD
:1023E0000290039800902B48007D00EB800032495A
:1023F00001EB4000019082225021029B09F0B6FBC4
:1024000016E000200AF016F9039021480AF012F9AC
:102410000290039800901F48007D00EB8000264941
:1024200001EB4000019082225021029B09F09EFBAB
:1024300016480078022817D115480AF0FBF80390D7
:1024400000200AF0F7F80290039800901148407DB0
:1024500000EB8000194901EB4000019094225021CB
:10246000029B09F083FB31E000200AF0E3F80390BF
:1024700007480AF0DFF80290039800900548407D75
:1024800000EB80000D4901EB400019E04501002000
:1024900032F0F0004C050020F74101084C420108E1
:1024A000800600201F4201089C4201080A430108DF
:1024B0002530346400000000B8430108EA430108F5
:1024C000019094225021029B09F050FBF0480078C3
:1024D00003281FD1EF480AF0ADF8039000200AF05E
:1024E000A9F8029003980090EB48007D00EBC00132
:1024F00001EB0010E94901EB4000E749897D01EB60
:10250000810100EB41000190A6225021029B09F0BD
:102510002DFB1EE000200AF08DF80390DD480AF044
:1025200089F8029003980090DB48007D00EBC00121
:1025300001EB0010D94901EB4000D749897D01EB3F
:10254000810100EB41000190A6225021029B09F07D
:102550000DFBCF48007804281FD1CE480AF06AF856
:10256000039000200AF066F8029003980090CA4891
:10257000007D00EBC00101EB0010C84901EB4000F9
:10258000C549097E01EB810100EB41000190B822B1
:102590005021029B09F0EAFA1EE000200AF04AF8F6
:1025A0000390BC480AF046F8029003980090BA489D
:1025B000007D00EBC00101EB0010B84901EB4000C9
:1025C000B549097E01EB810100EB41000190B82281
:1025D0005021029B09F0CAFAAD48007807281FD1A4
:1025E000AC480AF027F8039000200AF023F8029084
:1025F00003980090A848007D00EBC00101EB00109B
:10260000A74901EB4000A449C97D01EB810100EB22
:1026100041000190A622F021029B09F0A7FA1EE0DA
:1026200000200AF007F803909A480AF003F8029095
:10263000039800909848007D00EBC00101EB00106A
:10264000974901EB40009449C97D01EB810100EB02
:1026500041000190A622F021029B09F087FA8C48E4
:10266000007808281FD18B4809F0E4FF0390002070
:1026700009F0E0FF0290039800908748007D00EB8E
:10268000C00101EB0010874901EB40008249497EFF
:1026900001EB810100EB41000190B822F021029B87
:1026A00009F064FA1EE0002009F0C4FF03907948A5
:1026B00009F0C0FF0290039800907748007D00EB7E
:1026C000C00101EB0010774901EB40007249497EDF
:1026D00001EB810100EB41000190B822F021029B47
:1026E00009F044FACDE0704800680023052219463D
:1026F000039007F0BBF8002009F09CFF03904FF413
:102700006E4009F097FF0290039800901E22FA2174
:102710006648029B09F02AFA6348406800230422B5
:102720001946039007F0A2F8002009F083FF0390F8
:102730004FF46E4009F07EFF02900398009034221F
:10274000FA215A48029B09F011FA514800780128F1
:1027500010D1504809F06EFF0390002009F06AFF85
:102760000290039800901E2250215148029B09F0CC
:10277000FDF90FE0002009F05DFF0390454809F0E6
:1027800059FF0290039800901E2250214848029B56
:1027900009F0ECF93E480078022811D13D4809F0D3
:1027A00049FF0390002009F045FF02900398009034
:1027B000342250213E480F30029B09F0D7F910E037
:1027C000002009F037FF0390324809F033FF0290F0
:1027D000039800903422502135480F30029B09F0B5
:1027E000C5F92B480078032811D12A4809F022FFA7
:1027F0000390002009F01EFF0290039800904A22E7
:1028000050212B481E30029B09F0B0F910E0002047
:1028100009F010FF03901F4809F00CFF0290039885
:1028200000904A22502122481E30029B09F09EF956
:1028300017480078042811D1164809F0FBFE0390D0
:10284000002009F0F7FE02900398009060225021CA
:1028500017482D30029B09F089F910E0002009F09B
:10286000E9FE03900B4809F0E5FE02900398009002
:10287000602250210E482D30029B09F077F900E0CC
:1028800000BF00BF079807F0FFFA09B000BD0000C5
:102890004501002032F0F0004C0500201C440108E6
:1028A00080440108E4440108100000208006002054
:1028B00085410108F8B5002009F0BCFE054608F086
:1028C00049FF9621322001F0D1F94FF4487010F001
:1028D00057FC002009F0AEFE054608F03BFF2148FA
:1028E00090F84000F0B9002419E0002009F0A2FEA1
:1028F00005466FF07F4009F09DFE064604EBC401DB
:1029000049008A1C184901EB441033460221009506
:1029100009F02CF9C82001F092F9601CC4B20A2C0D
:10292000E3DB1DE0002419E0002009F083FE0546EA
:102930006FF07F4009F07EFE064604EBC4014900BB
:102940008A1C0A4901EB441033460221009509F024
:102950000DF9C82001F073F9601CC4B2062CE3DB4A
:10296000F8BD00004C050020D545010815470108B9
:10297000F8B500203049087009F05CFE054608F003
:10298000E9FE022000F0F4FE002451E0204604EBB2
:10299000D0714910A4EB410121B3002009F04AFE97
:1029A000064647F2CE1009F045FE074604EBD47107
:1029B000491001EB410303EBC1011E2303EB41016D
:1029C0008AB21E490096097D01EB81011C4B03EB85
:1029D000011104EB840301EB43003B46A82109F0FD
:1029E000C5F823E0002009F025FE064647F2CE1088
:1029F00009F020FE074604EBD471491001EB4103B6
:102A000003EBC1011E2303EB41018AB20B4900967F
:102A1000097D01EB81010A4B03EB011104EB8403F7
:102A200001EB43003B46082109F0A0F8601CC4B24A
:102A3000082CABDBF8BD0000450100204C05002050
:102A4000413F0108F8B500205649087009F0F2FD31
:102A5000054608F07FFE032000F08AFE002420E0F7
:102A6000002009F0E7FD054647F2CE1009F0E2FD2F
:102A700006464D490095097DC1EB0111C1EBC1012D
:102A80004A4B03EB4101C4EB0413C81804EBC40127
:102A9000162303EB41023346082109F067F8601C56
:102AA000C4B20A2CDCDB002423E0002009F0C2FDC4
:102AB000054647F2CE1009F0BDFD06463A4900959D
:102AC000097DC1EB0111C1EBC101384B03EB41039F
:102AD00004F10A01C1EB01115818A11D01EBC1015C
:102AE000162303EB41023346A82109F03FF8601C8E
:102AF000C4B2042CD9DB002435E0022C18DA002003
:102B000009F098FD05466FF07F4009F093FD0646F9
:102B100004EBC401162303EB410204EB8401244BB4
:102B200003EB810033469021009509F01FF818E06F
:102B3000002009F07FFD05466FF07F4009F07AFD27
:102B40000646611C01EBC101162303EB410204EBB5
:102B50008401174B03EB810033469021009509F067
:102B600005F8601CC4B2052CC7DB002009F062FD2B
:102B700005466FF07F4009F05DFD064633463A2278
:102B8000902109481A30009508F0F0FF09480A49D9
:102B90000A880280897881700848094909680160BB
:102BA000F8BD0000450100204C050020E13F010870
:102BB0003C430108590100203C0100205501002040
:102BC0003801002038B5002009F034FD04466FF0CC
:102BD0007F4009F02FFD0546064900948978491E7B
:102BE00001EB8101044A88182B4601225F2108F07D
:102BF000BDFF38BD4C050020F741010800B587B086
:102C000000200590FE4890F8400000287ED10690F4
:102C10002EE20698049000EBD07041100498A0EBCF
:102C20004100002873D0F749069831F9100047F6A3
:102C3000FF71884245D10698401CF34909788842C3
:102C40001FD16FF07F4009F0F5FC0390002009F0E0
:102C5000F1FC0290039800900698049000EBD0706D
:102C6000401000EB400101EB00102A2101EB400075
:102C700080B201900246D021E4A0029B08F014FF2C
:102C8000F2E1002009F0D6FC03906FF07F4009F0DC
:102C9000D1FC0290039800900698049000EBD0704D
:102CA000401000EB400101EB00112A2000EB410035
:102CB00080B201900246D021D4A0029B08F0F4FE1D
:102CC000D2E1D049069831F81020CD48303006992D
:102CD00000EB41000088104401B2CE4A069822F869
:102CE00010101146069831F9100000230522012129
:102CF000049006F0BBFDC749069831F91000C049A1
:102D0000B1F90D1088420BDCC24901E0B5E195E054
:102D1000069831F91000BA49B1F90F10884247DA24
:102D2000012005900698401CB749097888421FD1B8
:102D30004FF47F0009F07EFC0390002009F07AFC3C
:102D40000290039800900698049000EBD070401019
:102D500000EB400101EB00102A2101EB400080B2A2
:102D600001900246D021AC48029B08F09DFE7BE119
:102D7000002009F05FFC03904FF47F0009F05AFC3B
:102D80000290039800900698049000EBD0704010D9
:102D900000EB400101EB00102A2101EB400080B262
:102DA00001900246D0219C48029B08F07DFE5BE129
:102DB0000698401C9449097888421FD14FF46E4010
:102DC00009F038FC0390002009F034FC02900398CD
:102DD00000900698049000EBD070401000EB40018A
:102DE00001EB00112A2000EB410080B20190024665
:102DF000D0218948029B08F057FE35E1002009F0F8
:102E000019FC03904FF46E4009F014FC02900398F3
:102E100000900698049000EBD070401000EB400149
:102E200001EB00102A2101EB400080B20190024624
:102E3000D0217948029B08F037FE15E171490698C8
:102E400031F9100047F6FF71884245D10698401CC1
:102E50006D49097888421FD16FF07F4009F0EAFB85
:102E60000390002009F0E6FB02900398009006987A
:102E7000049000EBD070411001EB410000EB011118
:102E80002A2000EB410080B20190024630215FA071
:102E9000029B08F009FEE7E0002009F0CBFB03905D
:102EA0006FF07F4009F0C6FB0290039800900698EF
:102EB000049000EBD070401000EB400101EB0010DB
:102EC0002A2101EB400080B20190024630214FA040
:102ED000029B08F0E9FDC7E04A49069831F8102046
:102EE00047483030069900EB41000088104401B299
:102EF000484A069822F810101146069831F9100039
:102F0000002305220121049006F0B0FC41490698F7
:102F100031F910003A49B1F90D10884208DC3D49F9
:102F2000069831F910003649B1F90F10884247DA96
:102F3000012005900698401C3349097888421FD12A
:102F40004FF47F0009F076FB0390002009F072FB3C
:102F50000290039800900698049000EBD070401007
:102F600000EB400101EB00102A2101EB400080B290
:102F70000190024630212848029B08F095FD73E03D
:102F8000002009F057FB03904FF47F0009F052FB3B
:102F90000290039800900698049000EBD0704010C7
:102FA00000EB400101EB00102A2101EB400080B250
:102FB0000190024630211848029B08F075FD53E04D
:102FC0000698401C1049097888422ED14FF46E4073
:102FD00009F030FB0390002009F02CFB02900398CD
:102FE00000900698049000EBD070411001EB410076
:102FF00000EB01102A2101EB400080B201900DE0AE
:103000004C050020A8060020450100202D2D2D2D67
:103010002D2D00008E050020800600200246302164
:10302000FE48029B08F040FD1EE0002009F002FB74
:1030300003904FF46E4009F0FDFA0290039800905F
:103040000698049000EBD070401000EB400101EBBB
:1030500000102A2101EB400080B20190024630218D
:10306000EE48029B08F020FD0698401CC0B2069076
:1030700006980828FFF6CDAD37E20020069030E232
:103080000698049000EBD07041100498A0EB41002A
:1030900000287DD0E249069831F9100047F6FF710B
:1030A000884247D10698401CDE490978884220D1E1
:1030B0006FF07F4009F0BEFA0390002009F0BAFAE1
:1030C0000290039800900698049000EBD070411095
:1030D00001EB410000EB01103D2101EB800080B2CB
:1030E00001900246D021AFF2DC00029B08F0DCFC2C
:1030F000F3E1002009F09EFA03906FF07F4009F0A1
:1031000099FA0290039800900698049000EBD07012
:10311000401000EB400101EB00113D2000EB81006D
:1031200080B201900246D021AFF22010029B08F03D
:10313000BBFCD2E1BA49069831F81020BA4806998A
:1031400000EB41000088104401B2B84A069822F80A
:1031500010101146069831F91000002305220121B4
:10316000049006F083FBB149069831F91000AE498E
:103170003039B1F90D10884209DCAC49069831F9B3
:103180001000A9493039B1F90F10884249DA00E03E
:103190008DE0012005900698401CA24909788842DC
:1031A0001FD14FF47F0009F045FA0390002009F089
:1031B00041FA0290039800900698049000EBD070BA
:1031C000411001EB410000EB01113D2000EB8100BB
:1031D00080B201900246D0219048029B08F064FC26
:1031E0007BE1002009F026FA03904FF47F0009F0FC
:1031F00021FA0290039800900698049000EBD0709A
:10320000401000EB400101EB00103D2101EB80007C
:1032100080B201900246D0218048029B08F044FC15
:103220005BE10698401C7F49097888421FD14FF422
:103230006E4009F0FFF90390002009F0FBF90290BD
:10324000039800900698049000EBD070411001EBB9
:10325000410000EB01103D2101EB800080B20190A4
:103260000246D0216D48029B08F01EFC35E100208B
:1032700009F0E0F903904FF46E4009F0DBF9029099
:10328000039800900698049000EBD070401000EB7B
:10329000400101EB00103D2101EB800080B2019064
:1032A0000246D0215D48029B08F0FEFB15E15C4917
:1032B000069831F9100047F6FF71884247D1069809
:1032C000401C58490978884220D16FF07F4009F0AE
:1032D000B1F90390002009F0ADF902900398009035
:1032E0000698049000EBD070401000EB400101EB19
:1032F00000113D2000EB810080B201900246302198
:10330000AFF2F820029B08F0CFFBE6E0002009F0C6
:1033100091F903906FF07F4009F08CF902900398C7
:1033200000900698049000EBD070401000EB400134
:1033300001EB00103D2101EB800080B201900246BC
:103340003021AFF23830029B08F0AEFBC5E03449C3
:10335000069831F810203448069900EB41000088A7
:10336000104401B2314A069822F81010114606980E
:1033700031F91000002305220121049006F076FAAD
:103380002A49069831F9100027493039B1F90D1052
:10339000884209DC2549069831F910002249303964
:1033A000B1F90F10884253DA012005900698401CAD
:1033B0001C49097888421FD14FF47F0009F03AF97F
:1033C0000390002009F036F90290039800900698C7
:1033D000049000EBD070411001EB410000EB0110B4
:1033E0003D2101EB800080B20190024630210B4864
:1033F000029B08F059FB70E0002009F01BF90390D4
:103400004FF47F0009F016F9029003980090069897
:10341000049000EBD07041100AE00000800600200C
:10342000A8060020450100207C0500208E05002014
:1034300001EB410000EB01103D2101EB800080B267
:103440000190024630213348029B08F02DFB44E0F6
:103450000698401C3049097888421FD14FF46E40CD
:1034600009F0E8F80390002009F0E4F802900398CE
:1034700000900698049000EBD070411001EB4100E1
:1034800000EB01103D2101EB800080B2019002466B
:1034900030212048029B08F007FB1EE0002009F0C5
:1034A000C9F803904FF46E4009F0C4F802900398F5
:1034B00000900698049000EBD070411001EB4100A1
:1034C00000EB01103D2101EB800080B2019002462B
:1034D00030211048029B08F0E7FA0698401CC0B261
:1034E000069006980428FFF6CBAD0598012808D170
:1034F0000A48007B28B90122D102094803F086FC62
:1035000005E000224FF40061054803F07FFC07B09E
:1035100000BD000080060020450100204C05002071
:10352000000C014070B500202C49087009F082F8A9
:10353000054608F00FF9012000F01AF9FFF742FBE9
:1035400000F030F9FEF7ECFA00242EE0244890F861
:103550004000012817D1204604EBD0714910A4EB9C
:10356000410101BB6FF07F4009F064F80546262257
:1035700004FB02F000F11E012B4640F23F12012035
:1035800008F0E0F90FE06FF07F4009F053F80546CE
:10359000262204FB02F000F11E012B4640F23F12EE
:1035A000012008F0CFF9601CC4B2052CCEDB00244A
:1035B00010E06FF07F4009F03DF8054604EB840110
:1035C0004901491C88B22B4698221E2108F094FA22
:1035D000601CC4B2032CECDB70BD00004501002070
:1035E0004C05002030B587B051480078012802D042
:1035F00003287CD136E04F494F4809F067F84D4821
:10360000807800904B48437802784CA104A80EF0D3
:1036100097F949488078009047484378C2784BA191
:1036200001A80EF08DF9002009F004F804464C487A
:1036300009F000F805462B460122AA2104A80094AF
:1036400008F094FA002008F0F5FF0446444808F01A
:10365000F1FF05462B46C022B42101A8009408F0D2
:1036600085FA61E03349344809F030F83D48807804
:1036700000903C484378027830A104A80EF060F92D
:1036800039488078009038484378C2782FA101A843
:103690000EF056F93548007805280FD1304808F06B
:1036A000C9FF0446002008F0C5FF05462B468222CC
:1036B000F02101A8009408F059FA0EE0002008F06B
:1036C000B9FF0446264808F0B5FF05462B4682227E
:1036D000F02101A8009408F049FA2448007806284F
:1036E00011D11F4808F0A6FF0446002000E01AE0B0
:1036F00008F0A0FF05462B469422F02104A8009470
:1037000008F034FA0EE0002008F094FF0446144854
:1037100008F090FF05462B469422F02104A800945F
:1037200008F024FA00E000BF00BF07B030BD000081
:10373000460100203C010020380100202530326481
:103740003A253032643A2530326400003230253078
:1037500032642D253032642D2530326400000000A3
:1037600032F0F000590100205501002045010020F1
:10377000F8B504464FF46E4008F05CFF05460020A3
:1037800008F058FF0646611EC1EB0111044A881873
:10379000334601221146009508F0E8F9F8BD000013
:1037A000AB3E010838B5002008F044FF04466FF036
:1037B0007F4008F03FFF05462B4603227F2115A0DE
:1037C000009408F0D3F9002008F034FF04466FF0AD
:1037D0007F4008F02FFF05462B4603229F210EA0B5
:1037E000009408F0C3F9002008F024FF04466FF0AD
:1037F0007F4008F01FFF054608490094897A01EBD5
:103800004101074A88182B4601228F2108F0AEF9A2
:1038100038BD000028000000290000004C050020F1
:103820001F42010838B5214808F004FF0446092367
:103830004FF4807206210090FA2007F0A3FF0020C9
:1038400008F0F8FE04460723FC22194600901046B3
:1038500007F098FF002008F0EDFE04460723FE2243
:1038600019460090104607F08DFF104808F0E2FE60
:103870000446112340F201120A210090F92007F0BA
:1038800081FF0A4808F0D6FE04462346072212218B
:10389000FA2008F057F8054808F0CCFE0446234605
:1038A00003221321FC2008F04DF838BD2176EE00EC
:1038B0002DE9F84304460D4617461E46DDF82080E4
:1038C0006FF07F4008F0B6FE81467B1E9AB26B1CFB
:1038D00099B2631C98B24B4608F034F86FF07F4001
:1038E00008F0A8FE8146731E9AB26B1C99B2631C45
:1038F00098B24B4608F000F96FF07F4008F09AFE4E
:103900008146731E9AB26B1C99B2A31C98B24B46A7
:1039100008F0F2F8002008F08DFE81464B463A464A
:103920002946204608F00EF8002008F083FE814664
:103930004B4632462946204608F0DEF8002008F0C3
:1039400079FE8146E11988B24B463246294608F095
:10395000D3F8002008F06EFE8146711C8AB2E1198E
:10396000491C88B24B46294608F0C6F8002008F0EA
:1039700061FE8146781C82B2A81981B24B4620466E
:1039800007F0E0FF05EB060CACF1010C1FFA8CF31D
:1039900004EB070CACF1010C1FFA8CF205F1020CE0
:1039A0001FFA8CF104F1030C1FFA8CF0CDF80080A3
:1039B00007F0E8FEBDE8F88370B504466FF07F407D
:1039C00008F038FE054607F0C5FE012C06D0022C93
:1039D0001BD0032C32D0042C60D146E04FF47F0082
:1039E00008F028FE05462B460A221421084607F057
:1039F000A9FF4FF47F0008F01DFE05462B460A2262
:103A00000F21192008F078F848E04FF47F0008F003
:103A100011FE05462B460A2214214FF4967007F03A
:103A200091FF4FF47F0008F005FE05462B460A2261
:103A30000F2140F2311008F05FF82FE04FF47F00C3
:103A400008F0F8FD05462B460A22DC21142007F079
:103A500079FF4FF47F0008F0EDFD05462B460A2262
:103A6000D721192008F048F818E04FF47F0008F03B
:103A7000E1FD05462B460A22DC214FF4967007F043
:103A800061FF4FF47F0008F0D5FD05462B460A2262
:103A9000D72140F2311008F02FF800BF00BF70BDF1
:103AA00010B501228021044803F0B0F900F07CF841
:103AB00000F022F810BD0000001001401FB580206A
:103AC000009001200290002001900220039069469E
:103AD000014802F0F3FF1FBD001001401FB5802018
:103AE000009001200190022003906946014802F0F5
:103AF000E5FF1FBD0010014010B50024FFF7DEFFF9
:103B000004E0601CC4B201200FF058FB80210F4874
:103B100003F074F908B1642CF3DB642C01DB0120A1
:103B200010BD002404E0601CC4B201200FF046FB6D
:103B30008021064803F062F908B9F02CF3DBF02C81
:103B400001DB0120ECE70020EAE700000010014063
:103B500070B50024002520E0FFF7C0FF002280217F
:103B6000104803F053F902200FF028FB01228021B6
:103B70000C4803F04BF9FFF7A1FF0A200FF01EFBE2
:103B800064108021074803F039F908B144F080043B
:103B90003C200FF013FB681CC5B2082DDCDB20466F
:103BA00070BD00000010014010B5FFF797FF002224
:103BB0008021084803F02AF940F2EE200FF0FEFAC7
:103BC00001228021034803F021F90F200FF0F6FABB
:103BD00010BD00000010014070B50446FFF77EFFE5
:103BE000002526E004F00106641086B10022802141
:103BF000114803F00BF902200FF0E0FA01228021B6
:103C00000D4803F003F93C200FF0D8FA0FE0002232
:103C10008021094803F0FAF846200FF0CFFA01227C
:103C20008021054803F0F2F802200FF0C7FA681C63
:103C3000C5B2082DD6DB70BD00100140704706E00C
:103C400042F63D0100E0491E0029FCD1401E00283B
:103C5000F6D1704706E00A2101E04A1ED1B20029E0
:103C6000FBDC401E0028F6D17047000003B587B08A
:103C7000FE4808F0DFFC034629220690DDE9070133
:103C800007F060FEF94808F0D5FC06900898401E41
:103C900080B205900798401E80B204902C22DDE986
:103CA000051307F04FFEF14808F0C4FC0690089891
:103CB000801E80B205900798401E80B204902E228C
:103CC000DDE9051307F03EFEE84808F0B3FC069076
:103CD0000898C01E80B205902E220146DDE906300C
:103CE00007F030FEE14808F0A5FC06900898001F98
:103CF00080B205900798801C80B204902E22DDE9E6
:103D0000051307F01FFED94808F094FC06900898A8
:103D1000401F80B205900798233080B204900E2295
:103D2000DDE9051307F00EFED04808F083FC06908D
:103D30000898801F80B205900798233080B20490C5
:103D40000F22DDE9051307F0FDFDC84808F072FCFD
:103D500006900898C01F80B205900798233080B263
:103D600004900F22DDE9051307F0ECFDBF4808F0D1
:103D700061FC06900898083880B2059007982430B6
:103D800080B204900E22DDE9051307F0DBFDB74891
:103D900008F050FC06900898093880B20590079802
:103DA000243080B204900F22DDE9051307F0CAFD2C
:103DB000AE4808F03FFC069008980A3880B205909B
:103DC0000798253080B204900E22DDE9051307F034
:103DD000B9FDA64808F02EFC069008980B3880B272
:103DE00005900798253080B204900E22DDE9051376
:103DF00007F0A8FD9D4808F01DFC069008980C38B7
:103E000080B205900798253080B204900E22DDE93B
:103E1000051307F097FD954808F00CFC06900898EC
:103E20000D3880B205900798263080B204900E229B
:103E3000DDE9051307F086FD8C4808F0FBFB0690D2
:103E400008980E3880B205900798253080B204900B
:103E50000F22DDE9051307F075FD844808F0EAFB41
:103E6000069008980F3880B205900798263080B2E7
:103E700004900E22DDE9051307F064FD7B4808F08D
:103E8000D9FB06900898103880B205900798263024
:103E900080B204900E22DDE9051307F053FD73484C
:103EA00008F0C8FB06900898113880B20590079872
:103EB000263080B204900F22DDE9051307F042FDA1
:103EC0006A4808F0B7FB06900898123880B205904F
:103ED0000798273080B204900E22DDE9051307F021
:103EE00031FD624808F0A6FB06900898133880B2AE
:103EF00005900798273080B204900E22DDE9051363
:103F000007F020FD594808F095FB069008981438F2
:103F100080B205900798273080B204900F22DDE927
:103F2000051307F00FFD514808F084FB0690089830
:103F3000153880B205900798283080B204900E2280
:103F4000DDE9051307F0FEFC484808F073FB069016
:103F50000898163880B205900798283080B20490EF
:103F60000E22DDE9051307F0EDFC404808F062FB86
:103F700006900898173880B205900798283080B2CC
:103F800004900E22DDE9051307F0DCFC374808F049
:103F900051FB06900898183880B205900798283091
:103FA00080B204900E22DDE9051307F0CBFC2F4808
:103FB00008F040FB06900898193880B205900798E1
:103FC000293080B204900D22DDE9051307F0BAFC18
:103FD000264808F02FFB069008981A3880B2059002
:103FE0000798293080B204900E22DDE9051307F00E
:103FF000A9FC1E4808F01EFB069008981B3880B2EA
:1040000005900798293080B204900E22DDE905134F
:1040100007F098FC154808F00DFB069008981C382E
:1040200080B2059007982A3080B204900E22DDE914
:10403000051307F087FC0D4808F0FCFA0690089875
:104040001D3880B2059007982A3080B204900E2265
:10405000DDE9051307F076FC044808F0EBFA06905A
:1040600008981E3880B20590079801E02176EE008E
:104070002A3080B204900E22DDE9051307F062FCBD
:10408000FE4808F0D7FA069008981F3880B20590CD
:1040900007982A3080B204900F22DDE9051307F05B
:1040A00051FCF64808F0C6FA06900898203880B20D
:1040B000059007982A3080B204900F22DDE905139D
:1040C00007F040FCED4808F0B5FA06900898213852
:1040D00080B2059007982B3080B204900D22DDE964
:1040E000051307F02FFCE54808F0A4FA069008989D
:1040F000223880B2059007982B3080B204900E22AF
:10410000DDE9051307F01EFCDC4808F093FA069081
:104110000898233880B2059007982C3080B204901C
:104120000D22DDE9051307F00DFCD44808F082FAF2
:1041300006900898243880B2059007982C3080B2F9
:1041400004900E22DDE9051307F0FCFBCB4808F0D4
:1041500071FA06900898253880B2059007982C309F
:1041600080B204900E22DDE9051307F0EBFBC34893
:1041700008F060FA06900898263880B205900798F3
:104180002C3080B204900F22DDE9051307F0DAFB32
:10419000BA4808F04FFA06900898273880B2059080
:1041A00007982C3080B204900F22DDE9051307F048
:1041B000C9FBB24808F03EFA06900898283880B249
:1041C000059007982D3080B204900E22DDE905138A
:1041D00007F0B8FBA94808F02DFA0690089829388E
:1041E00080B2059007982D3080B204900E22DDE950
:1041F000051307F0A7FBA14808F01CFA06900898E1
:104200002A3880B2059007982D3080B204900F2292
:10421000DDE9051307F096FB984808F00BFA0690C5
:1042200008982B3880B2059007982D3080B2049002
:104230000F22DDE9051307F085FB904808F0FAF935
:10424000069008982C3880B2059007982E3080B2DE
:1042500004900E22DDE9051307F074FB874808F08F
:10426000E9F9069008982D3880B2059007982E300D
:1042700080B204900E22DDE9051307F063FB7F484E
:1042800008F0D8F9069008982E3880B20590079863
:104290002E3080B204900F22DDE9051307F052FBA7
:1042A000764808F0C7F9069008982F3880B2059034
:1042B00007982F3080B204900E22DDE9051307F035
:1042C00041FB6E4808F0B6F906900898303880B285
:1042D000059007982F3080B204900E22DDE9051377
:1042E00007F030FB654808F0A5F9069008983138CA
:1042F00080B2059007982F3080B204900F22DDE93C
:10430000051307F01FFB5D4808F094F90690089824
:10431000323880B2059007982F3080B204900F2277
:10432000DDE9051307F00EFB544808F083F9069009
:104330000898333880B205900798303080B20490E6
:104340000E22DDE9051307F0FDFA4C4808F072F97A
:1043500006900898343880B205900798303080B2C3
:1043600004900E22DDE9051307F0ECFA434808F04B
:1043700061F906900898353880B20590079830307A
:1043800080B204900E22DDE9051307F0DBFA3B480A
:1043900008F050F906900898363880B205900798D2
:1043A000313080B204900D22DDE9051307F0CAFA1E
:1043B000324808F03FF906900898373880B20590E7
:1043C0000798313080B204900E22DDE9051307F022
:1043D000B9FA2A4808F02EF9069000900898333868
:1043E00080B205900798543080B20490089836380F
:1043F00080B203900798483080B2029003A90EC99A
:1044000007F0C0F91D4808F015F9069008983438EF
:1044100080B205900798473080B204900D22DDE904
:10442000051307F08FFA154808F004F9069000907C
:1044300008982F3880B205900798533080B20490C6
:104440000898333880B203900798473080B20290C2
:1044500003A90EC907F096F9084808F0EBF8069092
:10446000009008982C3880B205900798523080B29E
:10447000049008982F3880B2039001E02176EE0076
:104480000798463080B2029003A90EC907F07AF966
:10449000FE4808F0CFF806900898283880B20590BA
:1044A0000798443080B204900E22DDE9051307F02E
:1044B00049FAF64808F0BEF806900898273880B206
:1044C00005900798453080B204900D22DDE9051370
:1044D00007F038FAED4808F0ADF80690089826384D
:1044E00080B205900798443080B204900D22DDE937
:1044F000051307F027FAE54808F09CF8069008989D
:10450000253880B205900798443080B204900C2280
:10451000DDE9051307F016FADC4808F08BF8069081
:1045200000900898213880B205900798503080B2EA
:1045300004900898243880B203900798433080B2E2
:10454000029003A90EC907F01DF9D04808F072F8CF
:1045500006900898213880B205900798433080B2C1
:1045600004900C22DDE9051307F0ECF9C74808F0C8
:1045700061F80690009008981D3880B20590079861
:104580004F3080B204900898203880B2039007988A
:10459000423080B2029003A90EC907F0F3F8BB487D
:1045A00008F048F8069008981D3880B205900798E2
:1045B000423080B204900C22DDE9051307F0C2F905
:1045C000B24808F037F80690009008981A3880B280
:1045D000059007984E3080B2049008981C3880B23D
:1045E00003900798413080B2029003A90EC907F0EA
:1045F000C9F8A64808F01EF8069008981A3880B244
:1046000005900798413080B204900C22DDE9051333
:1046100007F098F99D4808F00DF80690009008986A
:10462000163880B2059007984D3080B204900898F3
:10463000193880B203900798403080B2029003A9E5
:104640000EC907F09FF8914807F0F4FF069008980C
:10465000163880B2059007983F3080B204900E2241
:10466000DDE9051307F06EF9884807F0E3FF0690CF
:1046700000900898133880B2059007984C3080B2AB
:1046800004900898153880B2039007983F3080B2A4
:10469000029003A90EC907F075F87C4807F0CAFF1D
:1046A000069000900898113880B2059007984B301A
:1046B00080B204900898133880B2039007983F3076
:1046C00080B2029003A90EC907F05CF86F4807F0AA
:1046D000B1FF06900898113880B2059007983E30D7
:1046E00080B204900D22DDE9051307F02BF967482D
:1046F00007F0A0FF0690009008980E3880B2059051
:1047000007984A3080B204900898103880B203901D
:1047100007983E3080B2029003A90EC907F032F824
:104720005A4807F087FF0690009008980B3880B22F
:10473000059007984A3080B2049008980E3880B2ED
:10474000039007983D3080B2029003A90EC907F08C
:1047500019F84E4807F06EFF069008980B3880B2A3
:10476000059007983D3080B204900C22DDE90513D6
:1047700007F0E8F8454807F05DFF069000900898BC
:10478000C01F80B205900798493080B20490089805
:104790000A3880B2039007983C3080B2029003A997
:1047A0000EC906F0EFFF394807F044FF069000906D
:1047B0000898401F80B205900798483080B2049056
:1047C0000898C01F80B2039007983B3080B20290D7
:1047D00003A90EC906F0D6FF2C4807F02BFF069060
:1047E00000900898C01E80B205900798473080B2AC
:1047F00004900898401F80B2039007983A3080B226
:10480000029003A90EC906F0BDFF204807F012FF71
:1048100006900898C01E80B2059007983A3080B282
:1048200004900E22DDE9051307F08CF8174807F015
:1048300001FF06900090089880B2059007984730D5
:1048400080B204900898801E80B2039007983A3096
:1048500080B2029003A90EC906F094FF0B4807F03E
:10486000E9FE069007983A3080B205900C22069B2C
:10487000089907F067F8054807F0DCFE06900898ED
:10488000283880B205900798583001E02176EE0074
:1048900080B204901722DDE9051307F053F8FE48B3
:1048A00007F0C8FE06900898273880B20590079850
:1048B000553080B204901B22DDE9051307F042F861
:1048C000F54807F0B7FE06900898263880B20590A4
:1048D0000798543080B204901E22DDE9051307F0DA
:1048E00031F8ED4807F0A6FE06900898253880B20A
:1048F00005900798533080B204902022DDE905131B
:1049000007F020F8E44807F095FE06900898243850
:1049100080B205900798533080B204900322DDE9FD
:10492000051307F00FF8DC4807F084FE069008989E
:10493000243880B205900798683080B204900C2229
:10494000DDE9051306F0FEFFD34807F073FE06907D
:104950000898233880B205900798533080B20490AD
:104960000122DDE9051306F0EDFFCB4807F062FEFA
:1049700006900898233880B205900798683080B276
:1049800004900C22DDE9051306F0DCFFC24807F0B5
:1049900051FE0690009008981F3880B20590079845
:1049A000743080B204900898223880B2039007983F
:1049B000683080B2029003A90EC906F0E3FEB64843
:1049C00007F038FE0690009008981C3880B20590D9
:1049D0000798743080B2049008981F3880B2039012
:1049E0000798673080B2029003A90EC906F0CAFE8C
:1049F000A94807F01FFE069008981C3880B2059061
:104A00000798663080B204900D22DDE9051306F0A8
:104A100099FFA14807F00EFE069008981B3880B257
:104A200005900798673080B204900C22DDE90513E9
:104A300006F088FF984807F0FDFD069008981A38A0
:104A400080B205900798663080B204900D22DDE9AF
:104A5000051306F077FF904807F0ECFD06900090F4
:104A60000898173880B205900798723080B2049089
:104A70000898193880B203900798653080B2029088
:104A800003A90EC906F07EFE834807F0D3FD069009
:104A900000900898153880B205900798713080B260
:104AA00004900898173880B203900798653080B258
:104AB000029003A90EC906F065FE774807F0BAFD1B
:104AC000069000900898123880B2059007987130CF
:104AD00080B204900898153880B20390079864302B
:104AE00080B2029003A90EC906F04CFE6A4807F096
:104AF000A1FD0690009008980F3880B205900798A5
:104B0000703080B204900898123880B203900798F1
:104B1000633080B2029003A90EC906F033FE5E48EE
:104B200007F088FD069008980F3880B20590079826
:104B3000633080B204900C22DDE9051306F002FF19
:104B4000554807F077FD0690009008980B3880B222
:104B5000059007986F3080B2049008980E3880B2A4
:104B600003900798623080B2029003A90EC906F044
:104B700009FE494807F05EFD069008980B3880B2A0
:104B800005900798623080B204900C22DDE905138D
:104B900006F0D8FE404807F04DFD069008980A3808
:104BA00080B205900798613080B204900D22DDE953
:104BB000051306F0C7FE384807F03CFD069000904C
:104BC0000898401F80B2059007986D3080B204901D
:104BD0000898093880B203900798613080B202903B
:104BE00003A90EC906F0CEFD2B4807F023FD069061
:104BF00000900898801E80B2059007986C3080B2B3
:104C000004900898401F80B203900798603080B2EB
:104C1000029003A90EC906F0B5FD1F4807F00AFD72
:104C2000069000900898401C80B2059007986C3060
:104C300080B204900898801E80B2039007985F307D
:104C400080B2029003A90EC906F09CFD124807F03D
:104C5000F1FC06900898383880B2059007987F30AC
:104C600080B204900C22DDE9051306F06BFE0A48C1
:104C700007F0E0FC069000900898343880B2059068
:104C800007988B3080B204900898373880B2039030
:104C900007987E3080B201E02176EE00029003A9F1
:104CA0000EC906F06FFDFE4807F0C4FC06900090A8
:104CB0000898323880B2059007988A3080B2049004
:104CC0000898343880B2039007987E3080B2029002
:104CD00003A90EC906F056FDF14807F0ABFC06909B
:104CE00000900898303880B205900798893080B2DB
:104CF00004900898323880B2039007987D3080B2D3
:104D0000029003A90EC906F03DFDE54807F092FCAC
:104D100006900898303880B2059007987C3080B2B1
:104D200004900D22DDE9051306F00CFEDC4807F0C7
:104D300081FC069008982F3880B2059007987C3047
:104D400080B204900C22DDE9051306F0FBFDD44887
:104D500007F070FC069008982E3880B205900798EE
:104D60007C3080B204900D22DDE9051306F0EAFDE7
:104D7000CB4807F05FFC069008982D3880B205906C
:104D800007987C3080B204900C22DDE9051306F010
:104D9000D9FDC34807F04EFC0690009008982A38C9
:104DA00080B205900798883080B2049008982C381B
:104DB00080B2039007987B3080B2029003A90EC99D
:104DC00006F0E0FCB64807F035FC06900090089825
:104DD000273880B205900798873080B204900898F1
:104DE0002A3880B2039007987B3080B2029003A9E2
:104DF0000EC906F0C7FCAA4807F01CFC06900898EC
:104E0000293880B205900798993080B204900C221E
:104E1000DDE9051306F096FDA14807F00BFC0690AE
:104E20000898283880B205900798973080B204908F
:104E30000D22DDE9051306F085FD994807F0FAFB20
:104E400006900898273880B2059007987A3080B28B
:104E500004900D22DDE9051306F074FD904807F07B
:104E6000E9FB06900898273880B20590079896309D
:104E700080B204900C22DDE9051306F063FD88483A
:104E800007F0D8FB069000900898243880B205906F
:104E90000798863080B204900898263880B2039034
:104EA00007987A3080B2029003A90EC906F06AFC16
:104EB0007B4807F0BFFB06900898263880B2059023
:104EC0000798943080B204900D22DDE9051306F0B6
:104ED00039FD734807F0AEFB06900898253880B27C
:104EE00005900798933080B204900C22DDE90513F9
:104EF00006F028FD6A4807F09DFB06900090089890
:104F0000213880B205900798863080B204900898C6
:104F1000243880B203900798793080B2029003A9B8
:104F20000EC906F02FFC5E4807F084FB0690089837
:104F3000243880B205900798923080B204900C22F9
:104F4000DDE9051306F0FEFC554807F073FB0690FB
:104F50000898233880B205900798913080B2049069
:104F60000B22DDE9051306F0EDFC4D4807F062FB6E
:104F700006900898223880B2059007988F3080B24A
:104F800004900C22DDE9051306F0DCFC444807F030
:104F900051FB06900898213880B205900798783028
:104FA00080B204900D22DDE9051306F0CBFC3C48ED
:104FB00007F040FB06900898213880B205900798CA
:104FC0008D3080B204900D22DDE9051306F0BAFCA5
:104FD000334807F02FFB06900898203880B20590E0
:104FE0000798793080B204900C22DDE9051306F0B1
:104FF000A9FC2B4807F01EFB06900898203880B2C9
:10500000059007988C3080B204900C22DDE90513DE
:1050100006F098FC224807F00DFB069008981F3810
:1050200080B205900798783080B204900D22DDE9B7
:10503000051306F087FC1A4807F0FCFA069008985A
:105040001F3880B2059007988A3080B204900D22F4
:10505000DDE9051306F076FC114807F0EBFA06903F
:1050600008981E3880B205900798783080B2049076
:105070000C22DDE9051306F065FC094807F0DAFAB1
:10508000069008981E3880B205900798893080B243
:1050900004900D22DDE9051306F054FC004801E000
:1050A0002176EE0007F0C6FA069008981D3880B207
:1050B00005900798773080B204900D22DDE9051342
:1050C00006F040FCFE4807F0B5FA069008981D3837
:1050D00080B205900798873080B204900F22DDE9F6
:1050E000051306F02FFCF64807F0A4FA069008987E
:1050F0001C3880B205900798773080B204900C225B
:10510000DDE9051306F01EFCED4807F093FA069062
:1051100008981C3880B205900798863080B20490B9
:105120001022DDE9051306F00DFCE54807F082FAD0
:10513000069008981B3880B205900798773080B2A7
:1051400004901F22DDE9051306F0FCFBDC4807F0A4
:1051500071FA069008981A3880B205900798763050
:1051600080B204901F22DDE9051306F0EBFBD44862
:1051700007F060FA06900898193880B205900798F1
:10518000763080B204902022DDE9051306F0DAFBC8
:10519000CB4807F04FFA06900898183880B205906F
:1051A0000798763080B204902022DDE9051306F0DE
:1051B000C9FBC34807F03EFA06900898173880B23A
:1051C00005900798753080B204902122DDE905131F
:1051D00006F0B8FBBA4807F02DFA06900898163882
:1051E00080B205900798763080B204901322DDE9F2
:1051F000051306F0A7FBB24807F01CFA06900898C2
:10520000163880B2059007988A3080B204900C223C
:10521000DDE9051306F096FBA94807F00BFA0690A6
:105220000898153880B205900798753080B20490C0
:105230001322DDE9051306F085FBA14807F0FAF912
:1052400006900898153880B2059007988A3080B289
:1052500004900C22DDE9051306F074FB984807F072
:10526000E9F906900898143880B2059007987530CF
:1052700080B204901222DDE9051306F063FB90482A
:1052800007F0D8F906900898143880B2059007986E
:105290008A3080B204900D22DDE9051306F052FB3E
:1052A000874807F0C7F906900898133880B2059030
:1052B0000798743080B204901122DDE9051306F0DE
:1052C00041FB7F4807F0B6F906900898133880B282
:1052D000059007988A3080B204900D22DDE905130D
:1052E00006F030FB764807F0A5F9069008981238CA
:1052F00080B205900798743080B204901022DDE9E6
:10530000051306F01FFB6E4807F094F90690089805
:10531000123880B2059007988A3080B204900E222D
:10532000DDE9051306F00EFB654807F083F90690EA
:105330000898113880B205900798743080B20490B4
:105340000E22DDE9051306F0FDFA5D4807F072F95B
:1053500006900898113880B2059007988A3080B27C
:1053600004900E22DDE9051306F0ECFA544807F02C
:1053700061F906900898103880B20590079874304B
:1053800080B204900D22DDE9051306F0DBFA4C48EB
:1053900007F050F906900898103880B205900798E9
:1053A0008A3080B204900E22DDE9051306F0CAFAB5
:1053B000434807F03FF90690009008980C3880B2F7
:1053C00005900798803080B2049008980F3880B21A
:1053D00003900798733080B2029003A90EC906F0BB
:1053E000D1F9374807F026F9069008980C3880B2B2
:1053F00005900798733080B204900C22DDE9051304
:1054000006F0A0FA2E4807F015F9069000900898CB
:10541000083880B2059007987F3080B204900898D1
:105420000B3880B203900798723080B2029003A9C3
:105430000EC906F0A7F9224807F0FCF80690089874
:10544000083880B205900798723080B204900C2220
:10545000DDE9051306F076FA194807F0EBF8069037
:1054600000900898001F80B2059007987E3080B2A7
:1054700004900898C01F80B203900798713080B2E2
:10548000029003A90EC906F07DF90D4807F0D2F885
:1054900006900898001F80B205900798703080B27F
:1054A00004900E22DDE9051306F04CFA044807F0DB
:1054B000C1F806900090089880B20590079801E026
:1054C0002176EE007D3080B204900898C01E80B234
:1054D00003900798703080B2029003A90EC906F0BD
:1054E00051F9FE4807F0A6F806900798703080B290
:1054F00005900C22069B089906F024FAF74807F05D
:1055000099F80690009008980C3880B2059007989A
:10551000983080B2049008980F3880B203900798B2
:105520008B3080B2029003A90EC906F02BF9EB482C
:1055300007F080F80690009008980A3880B205902D
:105540000798993080B2049008980C3880B2039084
:1055500007988B3080B2029003A90EC906F012F9A9
:10556000DE4807F067F8069000900898C01F80B2E8
:1055700005900798993080B2049008980A3880B254
:10558000039007988C3080B2029003A90EC906F0F0
:10559000F9F8D24807F04EF8069000900898001FDE
:1055A00080B2059007989A3080B204900898C01F86
:1055B00080B2039007988C3080B2029003A90EC984
:1055C00006F0E0F8C54807F035F806900090089816
:1055D000801E80B2059007989B3080B20490089896
:1055E000001F80B2039007988C3080B2029003A90C
:1055F0000EC906F0C7F8B94807F01CF806900898DD
:10560000801E80B2059007988D3080B204900E22E3
:10561000DDE9051306F096F9B04807F00BF806909F
:105620000898401E80B2059007988F3080B2049091
:105630000C22DDE9051306F085F9A84806F0FAFF0B
:1056400006900798913080B205900A22069B08992F
:1056500006F078F9A14806F0EDFF06900898293881
:1056600080B205900798AD3080B204902322DDE926
:10567000051306F067F9994806F0DCFF06900898D4
:10568000283880B205900798AB3080B2049027226A
:10569000DDE9051306F056F9904806F0CBFF0690B9
:1056A0000898273880B205900798A93080B20490F6
:1056B0002922DDE9051306F045F9884806F0BAFF0E
:1056C00006900898263880B205900798A83080B2D6
:1056D00004902B22DDE9051306F034F97F4806F02B
:1056E000A9FF06900898253880B205900798A73042
:1056F00080B204900D22DDE9051306F023F9774806
:1057000006F098FF06900898253880B20590079813
:10571000C63080B204900D22DDE9051306F012F9BF
:105720006E4806F087FF06900898243880B20590EE
:105730000798A63080B204900D22DDE9051306F02B
:1057400001F9664806F076FF06900898243880B282
:1057500005900798C73080B204900D22DDE905134B
:1057600006F0F0F85D4806F065FF069008982338CB
:1057700080B205900798A63080B204900C22DDE933
:10578000051306F0DFF8554806F054FF0690089818
:10579000233880B205900798C63080B204900E225C
:1057A000DDE9051306F0CEF84C4806F043FF0690FD
:1057B0000898223880B205900798A53080B20490EE
:1057C0000D22DDE9051306F0BDF8444806F032FF6E
:1057D00006900898223880B205900798C63080B2AB
:1057E00004900E22DDE9051306F0ACF83B4806F004
:1057F00021FF06900898213880B205900798A530BF
:1058000080B204900D22DDE9051306F09BF83348C1
:1058100006F010FF06900898213880B2059007988E
:10582000C63080B204900D22DDE9051306F08AF837
:105830002A4806F0FFFE06900898203880B20590AE
:105840000798A53080B204900D22DDE9051306F01B
:1058500079F8224806F0EEFE06900898203880B2CB
:1058600005900798C63080B204900D22DDE905133B
:1058700006F068F8194806F0DDFE069000900898DA
:105880001D3880B205900798B23080B20490089815
:105890001F3880B203900798A43080B2029003A909
:1058A0000EC905F06FFF0D4806F0C4FE069000908B
:1058B00008981D3880B205900798D33080B20490C4
:1058C00008981F3880B203900798C53080B20290C4
:1058D00003A90EC905F056FF004801E02176EE004D
:1058E00006F0A8FE069008981D3880B2059007982B
:1058F000A43080B204900D22DDE9051306F022F8F1
:10590000FE4806F097FE069008981D3880B2059074
:105910000798C53080B204900D22DDE9051306F02A
:1059200011F8F64806F086FE0690009008981A389E
:1059300080B205900798B13080B2049008981C3866
:1059400080B203900798A33080B2029003A90EC9D9
:1059500005F018FFE94806F06DFE069000900898E3
:105960001A3880B205900798D23080B20490089817
:105970001C3880B203900798C43080B2029003A90B
:105980000EC905F0FFFEDD4806F054FE06900898AB
:105990001A3880B205900798A33080B204900D2287
:1059A000DDE9051305F0CEFFD44806F043FE06906E
:1059B00008981A3880B205900798C43080B20490D5
:1059C0000D22DDE9051305F0BDFFCC4806F032FEDF
:1059D00006900898193880B205900798A23080B2D6
:1059E00004900E22DDE9051305F0ACFFC34806F074
:1059F00021FE06900898193880B205900798C430A7
:105A000080B204900D22DDE9051305F09BFFBB4831
:105A100006F010FE06900898193880B20590079895
:105A2000A23080B204900D22DDE9051305F08AFF53
:105A3000B24806F0FFFD06900898193880B205902C
:105A40000798C33080B204900E22DDE9051305F0FB
:105A500079FFAA4806F0EEFD06900898183880B243
:105A600005900798A23080B204900E22DDE905135C
:105A700005F068FFA14806F0DDFD0690089818388B
:105A800080B205900798C33080B204900D22DDE902
:105A9000051305F057FF994806F0CCFD06900898CD
:105AA000173880B205900798A23080B204900D227A
:105AB000DDE9051305F046FF904806F0BBFD0690B2
:105AC0000898173880B205900798C33080B20490C8
:105AD0000D22DDE9051305F035FF884806F0AAFD23
