:020000040800F2
:1000000070250020450100083FA90008497A000832
:1000100021A90008E511000859F8000800000000B7
:1000200000000000000000000000000015B2000801
:10003000D94000080000000081AD0008C1B50008EB
:100040005F0100085F0100085F010008C9AE0008F9
:100050005F0100085F0100085F0100085F01000800
:100060005F0100085F0100085F0100085F010008F0
:100070005F0100085F0100085F0100085F010008E0
:100080005F0100085F0100085F0100085F010008D0
:10009000A1F700085F0100085F0100085F01000888
:1000A0005F0100085F0100085F0100085F010008B0
:1000B00059B600085F0100085F0100085F010008F1
:1000C0005F0100085F0100085F0100085F01000890
:1000D0005F0100085F0100085F0100085F01000880
:1000E0005F0100085F0100085F0100085F01000870
:1000F0005F0100085F0100085F0100085F01000860
:100100005F0100085F0100085F0100085F0100084F
:100110005F0100085F0100085F0100085F0100083F
:100120005F0100085F0100085F0100085F0100082F
:10013000DFF80CD000F020FD00480047211F010827
:10014000702500200648804706480047FEE7FEE786
:10015000FEE7FEE7FEE7FEE7FEE7FEE7FEE7FEE777
:1001600057B60008310100082DE9F05F0546002070
:1001700092469B4688460646814640241BE0284618
:1001800041464746224600F020F853465A46C01AD8
:10019000914110D311461846224600F081FB2D1ADA
:1001A00067EB01084F4622460120002100F078FB52
:1001B00017EB00094E41201EA4F10104DFDC484684
:1001C00031462A464346BDE8F09F202A04DB203A08
:1001D00021FA02F00021704721FA02F3D040C2F167
:1001E0002002914008431946704740EA01039B07EB
:1001F00003D009E008C9121F08C0042AFAD203E09C
:1002000011F8013B00F8013B521EF9D27047D2B2FF
:1002100001E000F8012B491EFBD270470022F6E7EF
:1002200010B513460A4604461946FFF7F0FF20466C
:1002300010BD421E12F8013F002BFBD111F8013B0B
:1002400002F8013B002BF9D17047421C10F8011B4A
:100250000029FBD1801A704710B5002200E0521C23
:10026000835C8C5CA34201D1002BF8D1D8B2E1B2FF
:10027000401A10BD034611F8012B00F8012B002A8B
:10028000F9D11846704770B5064610F04BF804686F
:1002900005460A220021304600F072FB2C6070BD3A
:1002A000F0B480EA0102D40F4200B2EB410F02D257
:1002B0000246084611464A0042D0C30DDDB2C1F3E2
:1002C000C752AD1A202D35DAC1F3160141F40002F0
:1002D00004B15242C5F1200602FA06F12A41104447
:1002E000B3EBD05F23D0C4B1012DA0EBC35009DC28
:1002F000F0BC4FF0004202EAC352DBB200F500004E
:1003000000F07FBB400000F1807000EBC350A0F113
:10031000807040EAD170490009E0490841EAC071A3
:10032000A0EBC35000F50000400800EBC350F0BC48
:1003300000F05EBB6142012202EB4101001BF6E7C7
:10034000F0BC704781F00041AAE780F00040A7E7C9
:1003500080EA010210B502F00043400022D04A00BA
:100360001FD0010E01EB1261C0F35600C2F356021A
:1003700040F4000042F40002A0FB022000047F3998
:10038000140400D0401C50EA124001D44000491E21
:10039000C2B20C0604EBD010401C4008802A02D0E8
:1003A00003E0002010BD20F00100002900DA002049
:1003B000184310BD30B480EA010202F0004530F06D
:1003C000004221F0004013D090B1C30DD40DC2F310
:1003D0001601C0F31600E41A41F4000140F40002D3
:1003E0007D34914201D3641C00E04900002C02DA04
:1003F00030BC002070474FF400000023914201D32D
:10040000891A034340084FEA4101F7D151B19142A3
:1004100002D14FF0004105E002D24FF0010101E0AE
:100420006FF0010103EBC450284430BC00F0E0BA87
:100430002DE9FE4F804681EA0300C00F0C46009074
:1004400021F0004123F00045B8EB0200A94105D29C
:100450004046214690461C460B46024623F000408B
:10046000104347D0270DC7F30A00C3F30A51029087
:10047000401A019040286BDAC3F3130040F4801B4C
:100480000098924620B10023D2EB030A63EB0B0BDA
:1004900001985946C0F14002504600F001FA064664
:1004A0000D4650465946019A00F009FA10EB080033
:1004B0006141002487EA115284EAE7731A4340D06D
:1004C000009A62B3019A012A4FEA075215DC001B19
:1004D00061EB02014FF0004202EA0752CDE900420F
:1004E000001C41F5801132462B4600F0C7FA03B0DC
:1004F000BDE8F08F40462146F9E7001B61EB0201A1
:10050000001C41F5801300185B412018A2F500176C
:1005100047EB030140EAD570B6196D4111E06D0853
:100520004FEA360645EAC0754FEA0752001B61EBF9
:100530000201001C41F5801149084FEA3000001902
:10054000514132462B4603B0BDE8F04F00F087BA68
:100550000098012240000023D0EB020263EBE0731D
:10056000009821464FEAE074B8EB000061EB04010B
:10057000E9E783F000435BE781F0004158E72DE9AC
:10058000FE4F81EA030404F0004421F0004100948E
:100590004FF0000B23F0004350EA01045ED052EA12
:1005A00003045BD0C3F30A54C1F30A552C44A4F2EC
:1005B000F3340194A0FB0254C1F3130141F4801100
:1005C000C3F3130343F4801301FB024400FB034E07
:1005D000840A970A44EA815447EA8357A4FB0768D0
:1005E00002958D0A05FB07854FEA932C04FB0C54FA
:1005F0002705029D4FEA065847EA1637B5EB08056E
:100600006EEB070C870E920E47EA811742EA8312BF
:10061000A7FB0201B6EB0B0164EB00042B0D43EAD0
:100620000C335E1844EB1C50DA465146E7FB0201DE
:10063000C5F313044FEA0B3343EA14534FEA043271
:10064000019C43EA0603A4F10C040294009CCDE94A
:1006500000B400F013FA03B0BDE8F08F00200146AB
:10066000F9E72DE9F04D81EA030404F0004B21F095
:10067000004514464FF0000A23F0004150EA0502FD
:1006800020D054EA01021DD0C5F30A570246C5F333
:100690001303C1F31300C1F30A5640F4801543F469
:1006A0008013A7EB0608101BD64608F2FD3873EB43
:1006B000050002D308F1010801E092185B41B8F18E
:1006C000000F03DA00200146BDE8F08D00204FF452
:1006D0008011064684460EE0171B73EB050705D311
:1006E000121B63EB050306434CEA010C49084FEA71
:1006F000300092185B4150EA0107EDD152EA030045
:1007000012D082EA040083EA0501084305D0101BD9
:10071000AB4106D20122002306E000224FF0004345
:1007200002E06FF0010253101AEB06004CEB085187
:1007300010EB0A0041EB0B01BDE8F04D00F08FB962
:10074000C10F80EAE0700844CA079623002100F038
:1007500058B996230022114600F053B90EB5C10FC7
:1007600080EAE0700844CA07002140F233438DE874
:100770000E000A460B4600F081F903B000BD00F000
:10078000004220F00040C10DC0F3160040F400000C
:100790007F2901DA00207047962903DCC1F1960118
:1007A000C84001E096398840002AF4D040427047A2
:1007B00020F00040C10DC0F3160040F400007F2976
:1007C00001DA00207047962903DCC1F19601C84088
:1007D000704796398840704770B5C1F30A5201F0EE
:1007E00000450024C1F3130140F2FF3341F48011AE
:1007F0009A4201DA002070BD40F233439A42A2F2DD
:10080000334203DC5242FFF7E0FC00E090402C430F
:10081000F1D0404270BD00F0004230F000400AD0FC
:10082000C10D01F56071C0F3160042EA0151C20822
:1008300040071143704700200146704701F0004314
:1008400030B421F0004150EA010206D00A0DA2F5B1
:100850006072C1F31301002A02DC30BC0020704733
:10086000440F44EAC104C100E01830BC00EBC250A0
:1008700000F0BEB830B50B4601460020202201240E
:1008800009E021FA02F59D4205D303FA02F5491B5E
:1008900004FA02F52844151EA2F10102F1DC30BD74
:1008A000202A04DB203A00FA02F100207047914030
:1008B000C2F1200320FA03F3194390407047202A25
:1008C00006DBCB17203A41FA02F043EAE07306E078
:1008D00041FA02F3D040C2F1200291400843194688
:1008E000704700000FB4002300B589B00CA9009137
:1008F0000B996FF00042CB601E4B06931E4B079383
:100900000423CDE901321D4A089202466B460020BD
:1009100000F0D2F909B05DF814FB70B586B0064658
:100920004FF0FF300091CDE90101002015460C4643
:1009300004903246694604A8FFF7D4FF02460498A3
:10094000211825B108B1084600E020462860049827
:1009500000280DD0002A02DD0098884208D0081B2C
:100960000094CDE901043246694604A8FFF7BAFFB6
:1009700006B070BDF10E00080F0F0008A50B0008AF
:100980002DE9F04791460F4680460446002614F8AC
:10099000015B2DB100F002F90068405DC007F6D19F
:1009A0002B2D02D02D2D18D0641E4A4639462046E4
:1009B00000F0BEFA27B13968A14201D1C7F8008022
:1009C00071054FF002040BD54042002803DD0FF003
:1009D000A9FC0460A007BDE8F08746F48066E4E760
:1009E0000028F8DA0FF09EFC04606FF00040F2E798
:1009F0000029A8BF7047401C490008BF20F0010033
:100A0000704710B4B0FA80FC00FA0CF050EA010410
:100A100004BF10BC704749B1CCF1200421FA04F4A2
:100A200011FA0CF118BF012121430843A3EB0C017B
:100A3000CB1D4FEA00614FEA102042BF002010BCDE
:100A4000704700EBC35010440029A4BF10BC70478E
:100A5000401C490008BF20F0010010BC704710B5D1
:100A6000141E73F1000408DA401C41F100019218D1
:100A70005B411A4301D120F0010010BD2DE9F04D7A
:100A800092469B4611B1B1FA81F202E0B0FA80F2CF
:100A900020329046FFF704FF04460F4640EA0A0062
:100AA00041EA0B0153465A46084313D0114653EA14
:100AB000010019D0C8F140025046FFF786FB0546F9
:100AC0000E46504659464246FFF7EAFE084305D017
:100AD000012004E020463946BDE8F08D00200543A2
:100AE00046EAE0762C4337430A986305E40AA0EB14
:100AF00008000022FD0A44EA47540A3002D50020CB
:100B00000146E9E7010510196941DDE908450019C9
:100B10006941BDE8F04DA2E7C1F30A52C1F31301E8
:100B200040F2FF3341F480119A4202DA002001467C
:100B3000704740F233439A42A2F2334202DC5242FF
:100B4000FFF743BBFFF7ACBE30B5041E71F10004E4
:100B500004DB4FF00044404264EB0101141E73F1CA
:100B6000000405DB1C464FF00043524263EB0403D4
:100B7000994208BF904230BD064C074D06E0E06840
:100B800040F0010394E8070098471034AC42F6D3D4
:100B9000FFF7D2FAEC6802080C69020800487047B7
:100BA000E868020810B50446FFF7F8FF0068005D2A
:100BB00000F0010010BD00002DE9FF4F087881B062
:100BC0009946FF2805D0491C2D2804D00024002375
:100BD00008E000230BE00124F9E703EB830300EBBB
:100BE0004303491C0878FF28F7D104B15B42002079
:100BF0000090147801462D2C01D02B2C04D1521CCE
:100C00002D2C12D00024009400251678FF2E0ED033
:100C10000A24A0FB04C801FB0481002700FB071184
:100C2000521C16EB0C006941EFE70124EBE79944F5
:100C300050EA01020ED00024AA4D2646DFF8A88211
:100C400000F0D3F982468B46B9F1000009DAC9F108
:100C500000071BE001980021C0E9001105B0BDE8C4
:100C6000F08F074612E0F80707D022462B463046A1
:100C70004146FFF784FC0646884622462B4610462E
:100C80001946FFF77CFC04460D467F10002FEAD181
:100C9000B9F1000F324643465046594602DAFFF793
:100CA000E0FC01E0FFF76BFC009A0AB181F0004123
:100CB000019AC2E90001D1E72DE9FF4F1F468DB02F
:100CC000D7E901464FF0FF382E2045464FF0000986
:100CD0000B90B9696D1C0E988847396A824688471F
:100CE0000028F6D1BAF1FF3F0AD024F4D064002ED8
:100CF00011DDBAF12B0F08D0BAF12D0F0BD102E0A4
:100D0000404611B0ABE744F48064B9696D1C0E989D
:100D100088478246761E6946600501D52D2000E091
:100D20002B208DF8000001F1010B0DF1200809E0E6
:100D3000B9696D1C0E98884782460F9844F4007478
:100D4000761E0560002E02DDBAF1300FF0D00B994F
:100D50008A453ED144F0800406E00F99681CA9F151
:100D6000010944F400740860B9696D1C761E0E9880
:100D7000884782463028F0D02BE00B998A4505D170
:100D8000200603D444F08004761E18E050460FF08D
:100D9000A1FC08B30DF11301761E44F400748B45D9
:100DA00008D2AAF130000BF8010B200607D5A9F1F3
:100DB000010003E0200602D409F101008146A005EC
:100DC00002D50F99681C0860B9696D1C0E98884798
:100DD0008246002ED1DC53E0002E51DDBAF1650FC2
:100DE00002D0BAF1450F4BD1A00549D5B9696D1CA8
:100DF00024F44074761E0E9888478246002E0CDD3F
:100E00002B2804D0BAF12D0F07D144F48074B969AE
:100E10006D1C0E9888478246761EE00501D52D216F
:100E200000E02B2108F8011BCDF82C8021E00DF10A
:100E30002901761E44F4007488450CD2AAF13000D2
:100E400010F0FF0088F8000002D10B99884509D9FD
:100E500008F1010806E0E00501D5244801E042F26E
:100E60000F708146B9696D1C0E98884782460F98AD
:100E70000560002E04DD50460FF02CFC0028D6D172
:100E8000F9690E988847FF208BF8000088F8000069
:100E90000020069007904B466A4608A906A8FFF76F
:100EA0008BFEA00502D46FF001002AE714F0240F96
:100EB0000AD0E00714D1DDE906123868031D3B6053
:100EC0000068C0E900120BE0DDE90601FFF7B6FC9F
:100ED0000146E00704D13868021D3A6000680160ED
:100EE00028460EE7000024400000F03FF1D8FFFF45
:100EF000426842B1016811F8013B23B1521EC0E9BA
:100F00000012184670470121C160881E7047426870
:100F10005AB1C368016843B983688B4205D0491E42
:100F2000521CC0E90012002070474FF0FF3070479C
:100F30002DE9F05F82460078002715468B460AF1BE
:100F40000104B946302801D09DB113E014F8010B1B
:100F50000127782803D0582801D045B10AE00DB107
:100F6000102D07D10027102514F8010B02E00825E9
:100F700000E00A250026B0460EE005FB080005FB50
:100F800006F1012701EB10461FFA80F8B6F5803F05
:100F900000D3B94614F8010B294600F018F80028D0
:100FA000EBDABBF1000F05D00FB1641E00E0544630
:100FB000CBF80040B9F1000F06D00FF0B3F90221D1
:100FC0000160C81EBDE8F09F48EA0640FAE73A28EB
:100FD00000D2303820F02002412A01D3A2F137009C
:100FE000884201D34FF0FF3070470EB540F23342D4
:100FF00002920022CDE900221346FFF73FFD03B025
:1010000000BD70B58C1810F8015B15F0070301D115
:1010100010F8013B2A1106D110F8012B03E010F85B
:10102000016B01F8016B5B1EF9D12B0705D400237E
:10103000521E0DD401F8013BFAE710F8013BCB1A20
:10104000921C03E013F8015B01F8015B521EF9D515
:10105000A142D8D3002070BD70B504460025206899
:10106000806800F0010018B32068806820F001005B
:101070002168886003F0C0FF054613E003F0BCFF61
:10108000401B02280ED92068806800F0010048B19A
:10109000A06A40F01000A062E06A40F00100E06247
:1010A000012070BD2068806800F001000028E5D1B3
:1010B0000020F6E738B5044600250020009020689F
:1010C000806800F0010078BB2068806840F0010073
:1010D00021688860194800681949B0FBF1F0009058
:1010E00002E00098401E009000980028F9D103F01B
:1010F00083FF054619E003F07FFF401B022814D947
:101100002068806800F0010078B9A06A40F0100003
:10111000A062E06A40F00100E06200BF002084F8B5
:10112000240000BF012038BD05E02068806800F081
:1011300001000028DFD00020F5E700003401002086
:1011400040420F0010B500224FF48051014803F0D7
:101150004DFF10BD000C014010B5012211030248E3
:1011600003F044FF10BD0000000C014010B5012247
:10117000D102064803F03AFF0A2010F0E1FC0022F9
:101180004FF40061014803F031FF10BD000C014035
:101190001248407D05281DD2DFE800F003080D123B
:1011A000170032200E490968486314E03C200C49BE
:1011B000096848630FE046200949096848630AE066
:1011C000502007490968486305E06320044909681D
:1011D000486300E000BF00BF7047000064050020C6
:1011E000D404002000BFFEE710B50122042102480C
:1011F00003F0FCFE10BD00000010014010B50022FD
:101200000421024803F0F2FE10BD0000001001406E
:1012100010B501220221024803F0E8FE10BD0000D3
:101220000010014010B500220221024803F0DEFE4A
:1012300010BD00000010014010B50446392011F027
:1012400087FAE0B211F095FAC4F3072011F091FA91
:10125000C4F3074011F08DFA200E11F08AFA11F054
:1012600069FA0FF01DF810BD2DE9F04107460E4652
:1012700014463C2011F06CFAF0B211F07AFA3012F8
:1012800011F077FA11F056FA0CB10020208016E028
:101290000FF006F805461E2D0ED1384600F06CF909
:1012A00005463D2011F054FA11F044FA2F4434B1B0
:1012B00020882844208002E02846BDE8F081E7E746
:1012C00010B509F05FFD08B100F082F8302000F0A1
:1012D000E4F810BD10B5312000F0DFF810BD10B5F6
:1012E00004462146362000F0CAF810BD10B5044669
:1012F00014B1204600F0F2F8342000F0CEF810BD12
:1013000070B50646304600F0D2F8054685B129464C
:10131000304600F024F80446412C09D0142C01D1A9
:10132000432070BD422C01D1B320FAE72046F8E7F4
:101330007019FFF7DBFFF4E710B50446204600F014
:10134000CDF820785C2802D020782F2803D1002106
:10135000642000F028F9322000F09FF810BD2DE93C
:10136000F04105460F460026012429E001E0601CFB
:10137000C4B2285D5C2805D0285D2F2802D0285DE6
:101380000028F4D1285D10B1601CC4B200E0002434
:10139000A819FFF7D1FF064684B1BC420ED0412EFA
:1013A0000AD0142E02D14320BDE8F081422E01D193
:1013B000B320F9E73046F7E7264601E03046F3E789
:1013C000D4E710B50446FF212046FFF7C8FF10BD43
:1013D00010B5222011F0BCF9322010F0CFFB11F033
:1013E000ADF9044611F0A6F9204610BD2DE9F041F3
:1013F00011F0A4F9044611F0A1F9054611F09EF987
:10140000064611F09BF9074611F094F944EA0520CD
:1014100040EA064040EA0760BDE8F08170B5044646
:10142000272011F095F911F089F90646054646B1D5
:1014300000BF11F083F92070641C701EC0B2061E3C
:10144000F7D111F077F9284670BD10B504460C208D
:1014500011F07EF9204611F08CF9FFF7C7FF10BD9F
:1014600070B504460A2011F073F9204611F081F995
:1014700011F064F9054611F05DF9284670BD70B5AC
:1014800005460C46284611F063F9204611F071F923
:1014900011F050F90EF004FF70BD10B5044620465F
:1014A00011F056F911F046F90EF0FAFE10BD0246A1
:1014B000114600E0491C08780028FBD100E0491ED5
:1014C00008785C2804D008782F2801D09142F6D102
:1014D000914200D0491C881AC0B270472DE9F041F2
:1014E0000646012011F034F911F028F943282BDACF
:1014F0002B20FFF7B5FF102826DA2F2011F028F94E
:10150000002011F036F93220FFF7C7FF0446142CF3
:101510001AD1CF20FFF7A4FF0446ACB14C20FFF74F
:1015200094FF00EB042739464C2000F03CF8502093
:10153000FFF78BFF00EB04273946502000F033F80B
:101540000021702000F02FF82F2011F001F93578DC
:10155000284611F00EF909E0761C35785C2D01D093
:101560002F2D00D10025284611F003F9002DF3D1CD
:1015700011F0E0F8BDE8F08170B504462D2011F0BF
:10158000E7F811F0DBF80646054646B100BF2078C3
:1015900011F0EFF8641C701EC0B2061EF7D111F0F6
:1015A000C9F8284670BD70B505460C460D2011F0EF
:1015B000CFF8284611F0DDF8E0B211F0DAF8C4F304
:1015C000072011F0D6F8C4F3074011F0D2F8200E2E
:1015D00011F0CFF811F0AEF870BD000010B5002288
:1015E0001021024803F002FD10BD00000008014078
:1015F00010B501221021024803F0F8FC10BD0000D4
:101600000008014010B501228021024803F0EEFCE1
:1016100010BD0000000C014010B5002280210248DE
:1016200003F0E4FC10BD0000000C014010B50122E5
:101630004021024803F0DAFC10BD00000014014014
:1016400010B500224021024803F0D0FC10BD00007C
:101650000014014010B501225103024803F0C6FCFA
:1016600010BD00000014014010B500224FF40051DD
:10167000014803F0BBFC10BD0014014010B501226D
:101680001103024803F0B2FC10BD00000014014039
:1016900010B500224FF48051014803F0A7FC10BDA3
:1016A0000014014010B501221146024803F09EFCCF
:1016B00010BD0000000C014010B5002201210248BD
:1016C00003F094FC10BD0000000C014010B5012295
:1016D0002021024803F08AFC10BD000000100140E8
:1016E00010B500222021024803F080FC10BD00004C
:1016F00000100140F0B504460D46FF22FF210023F3
:1017000019E0E05C4140002711E001F0010602F021
:10171000010C52104910BCF1000F01D041F08001C2
:101720001EB182F0A00281F00101781CC7B2082F1F
:10173000EBDB581CC3B2AB42E3DB41EA0220F0BD55
:1017400000207047002070472DE9F04106460F4603
:1017500001210C480CF0ABF80B4908700948D0F88F
:10176000B852002403E0285D08490855641C064867
:1017700000788442F7DB0120054908700020BDE8AD
:10178000F0810000E418002024020020E81B002063
:101790002502002033B50C4600252DE09DF80110F0
:1017A0009DF8030002F0F2FD05469DF8020020447A
:1017B000A8421AD99DF80200281A241A9DF801009F
:1017C000401CC0B28DF8010000208DF802009DF889
:1017D00001000D2810D101208DF801009DF80300B3
:1017E000401CC0B28DF8030006E09DF802002044C2
:1017F000C0B28DF8020000E0D0E700BF0720B4FBC4
:10180000F0F100FB1140094909780844C0B28DF895
:1018100000009DF80000072805DB9DF80000C01FB0
:10182000C0B28DF8000000983CBD00000801002007
:1018300038B517480078012829DD6FF07F4009F09E
:10184000C3FA0446002009F0BFFA05461048009488
:101850000078801E692202EBC00081B22B469122E3
:101860000CA008F01BFD0A480078401E08490870CB
:10187000002107480078401E074A115404480078A8
:1018800006490978884202D100200449087038BD11
:101890005201002020000000EC060020530100202F
:1018A00038B50446002009F08FFA054614231A01C2
:1018B000022100904FF49B7008F094FA4FF46E40B0
:1018C00009F082FA0546052340F23D1202210090FC
:1018D000101F08F087FA4FF46E4009F075FA0546BC
:1018E00014231A01052100904FF49B7008F04AFC64
:1018F0004FF46E4009F068FA0546132340F23F1298
:101900000621009040F2371008F06CFA192C0DDA1D
:10191000002009F059FA05460F2340F23F12062134
:10192000009040F2371008F05DFA24E0192C0FDB2C
:10193000322C0DDA002009F047FA05460C2340F25C
:101940003F120621009040F2371008F04BFA12E0E7
:10195000322C0FDB4B2C0DDA002009F035FA05464E
:10196000092340F23F120621009040F2371008F0A0
:1019700039FA00E000BF38BD38B5002025490870AD
:1019800009F022FA044608F015FA042002F036F9AC
:10199000002009F019FA04466FF07F4009F014FAAC
:1019A00005462B461E22C8211B48009408F076FCF1
:1019B000002009F009FA04466FF07F4009F004FAAC
:1019C00005462B461E22FA211348801D009408F07C
:1019D00065FC002009F0F8F90446104809F0F4F914
:1019E00005462B461E22C8210B480C30009408F0F7
:1019F00055FC002009F0E8F90446084809F0E4F92C
:101A000005462B463422C82103481230009408F0C2
:101A100045FC38BD450100200E2F010832F0F000D2
:101A2000F8B50446002009F0CFF905464FF47F00D1
:101A300009F0CAF90646601E00EB400101EBC00048
:101A40001E2101EB400082B233468C2102480095F2
:101A500008F024FCF8BD00002F2D010838B5002047
:101A600009F0B2F9044614231A01022100904FF440
:101A70009B7008F0B7F94FF46E4009F0A5F90446E1
:101A800023460522022140F2391008F0CDFB4FF425
:101A90006E4009F099F9044623460522022140F2DE
:101AA0003D1008F0C1FB4FF46E4009F08DF904467B
:101AB00023460B2207214FF49B7008F0DBFA4FF40A
:101AC0006E4009F081F904460F234FF49F720821FC
:101AD0000090901F08F086F94FF46E4009F074F9F9
:101AE000044623460522102140F2391008F0C2FABC
:101AF0004FF46E4009F068F9044623460322112191
:101B00004FF49D7008F0B6FA4FF46E4009F05CF99E
:101B1000044623460422112140F23B1008F084FBC6
:101B200038BD00002DE9FC41614890F840000028D4
:101B300045D1002440E0621C5EA101A80EF0C2FB6A
:101B4000204604EBD0714910A4EB4101C9B100203B
:101B500009F03AF90646594809F036F9074604EB08
:101B6000D470401000EB400101EB00102A2101EB82
:101B7000400082B23B46A82101A8009608F08EFBE7
:101B800018E0002009F020F906464C4809F01CF93D
:101B9000074604EBD470401000EB400101EB00104D
:101BA0002A2101EB400082B23B46082101A80096A1
:101BB00008F074FB601CC4B2082CBCDB76E03C4827
:101BC00090F84000012845D1002440E0621C39A172
:101BD00001A80EF077FB204604EBD0714910A4EB6E
:101BE0004101C9B1002009F0EFF80646334809F079
:101BF000EBF8074604EBD470401000EB400101EB1A
:101C000000103D2101EB800082B23B46A82101A8D3
:101C1000009608F043FB18E0002009F0D5F80646CE
:101C2000264809F0D1F8074604EBD470401000EBC9
:101C3000400101EB00103D2101EB800082B23B46E8
:101C4000082101A8009608F029FB601CC4B2042CEE
:101C5000BCDB2BE0002427E0621C16A101A80EF0DB
:101C600031FB012C0FD1002009F0AEF805461348D6
:101C700009F0AAF8064633465022A82101A800958B
:101C800008F00CFB0EE0002009F09EF805460B481A
:101C900009F09AF8064633465022082101A800951B
:101CA00008F0FCFA601CC4B2022CD5DBBDE8FC8154
:101CB00064050020253032643A00000032F0F00064
:101CC00038B50C49B1F9000000230522012105F0C7
:101CD000BDFE002009F078F804464FF46E4009F08C
:101CE00073F805462B46022264210348009408F04D
:101CF000D5FA38BD9A010020E006002038B54FF42F
:101D00006E4009F061F80446122340F20F120821D8
:101D10000090501E08F066F84FF46E4009F054F839
:101D200004462346062207214FF4867008F0A2F9E4
:101D30004FF46E4009F048F8044623460422062179
:101D400040F20D1008F096F94FF46E4009F03CF89F
:101D500004462346022205214FF4877008F08AF9D1
:101D60004FF46E4009F030F804460F234FF48A72A6
:101D700005210090501E08F035F84FF46E4009F030
:101D800023F8044623460622102140F2111008F0E1
:101D900071F94FF46E4009F017F804462346042207
:101DA00011214FF4897008F065F94FF46E4009F085
:101DB0000BF8044623460222122140F2131008F0C9
:101DC00059F938BD7CB501208549087085490870EE
:101DD0006FF07F4008F0F8FF0546F0234FF4A07243
:101DE00082210090002007F0FDFF6FF07F4008F097
:101DF000EBFF0546002008F0E7FF06467A4900950C
:101E0000097DC1EB0111794A02EB41003346912271
:101E10003C2108F043FA002008F0D6FF0546A32332
:101E2000C8228F210090642008F0ACF943F2FF3003
:101E300008F0CAFF05461A233C228C210090FF209F
:101E400001F084FF43F2FF3008F0BEFF05466FF05B
:101E50007F4008F0B9FF064663490095097DC1EB54
:101E60000111624A02EB4101881D334691224FF471
:101E70008C7108F013FA43F2FF3008F0A5FF054615
:101E80001A233E22D2210090052001F05FFF43F289
:101E9000FF3008F099FF05466FF07F4008F094FF8F
:101EA000064651490095097DC1EB01114F4A02EBED
:101EB000410101F10C003346D722142108F0EEF95C
:101EC00043F2FF3008F080FF05461A233E22D2215C
:101ED0000090E12001F03AFF43F2FF3008F074FF78
:101EE00005466FF07F4008F06FFF06463E490095BB
:101EF000097DC1EB01113D4A02EB410101F11200E4
:101F00003346D722F02108F0C9F9002008F05CFF21
:101F10000546CA2340F23912AA210090072007F093
:101F200061FF00242BE0621C31A101A80EF0CAF968
:101F30004FF47F0008F048FF054604EB0411072228
:101F4000009002EB41001F231A46AA2101F0FEFE79
:101F50004FF47F0008F038FF05466FF07F4008F02F
:101F600033FF064604EB0410132202EB4001334614
:101F7000B12201A8009508F091F9601CC4B2092CA7
:101F8000D1DB002428E043F2FF3008F01DFF0546B6
:101F900004EB04115722009002EB41001F231A4664
:101FA000CC2101F0D3FE43F2FF3008F00DFF0546CF
:101FB0006FF07F4008F008FF064604EB041263232D
:101FC00003EB42010B4A02EB44003346D322009557
:101FD00008F064F9601CC4B2032CD4DB7CBD0000A3
:101FE000510100205201002064050020E830010862
:101FF000256400002431010831B582B01A48007808
:102000000A2830DA1948007818B19DF808002E28FF
:1020100029D002A91648FEF70CF96FF07F4008F0AE
:10202000D3FE0446002008F0CFFE05460E4800947B
:102030000078401E692202EBC00081B22B4691223B
:1020400002A808F02BF90948007838B99DF8080073
:102050002E2803D10448007804490870024800780B
:10206000401C014908703EBD520100205301002070
:10207000EC06002010B500201449087014490870BF
:102080001449087014480078012806D0022807D0A7
:10209000032808D004280CD108E001F071FC09E005
:1020A00000F022FD06E000F089FD03E0FFF764FC8C
:1020B00000E000BF00BF0848007806F029FA074892
:1020C00001780548007800F00BF810BD520100209F
:1020D000510100205301002046010020450100204D
:1020E00003B587B00798012806D0022805D0032839
:1020F0007ED004287DD1E7E2B4E3FE4800780128D1
:1021000017D1FD4808F060FE0390002008F05CFE47
:10211000029003980090F9488078401E00EB800000
:10212000F749084401901E225021029B08F0B6F89E
:1021300016E0002008F048FE0390EF4808F044FE47
:10214000029003980090ED488078401E00EB8000DC
:10215000EB49084401901E225021029B08F09EF892
:10216000E448007802281BD1E34808F02DFE0390D4
:10217000002008F029FE029003980090DF48007DBF
:1021800000EB8000DF4901EBC000DC49C97A00EBBD
:10219000C100019034225021029B08F07FF81AE020
:1021A000002008F011FE0390D34808F00DFE0290C5
:1021B00003980090D148007D00EB8000D14901EBED
:1021C000C000CE49C97A00EBC100019034225021F1
:1021D000029B08F063F8C948B0F90D0000230522FE
:1021E0000121039005F032FCC2480078032801E089
:1021F0001FE136E310D1C04808F0E6FD039000204F
:1022000008F0E2FD0290039800904A225021BE4857
:10221000029B08F043F80FE0002008F0D5FD039082
:10222000B54808F0D1FD0290039800904A22502151
:10223000B548029B08F032F8B048B0F90F0000230F
:1022400005220121039005F001FCAA48007804282A
:1022500010D1A94808F0B8FD0390002008F0B4FDA3
:1022600002900398009060225021A748029B08F03A
:1022700015F80FE0002008F0A7FD03909E4808F035
:10228000A3FD029003980090602250219E48029B7B
:1022900008F004F897480078052816D1964808F009
:1022A00093FD0390002008F08FFD029003980090AA
:1022B0009248807A00EB40009449084401901E2225
:1022C000F021029B07F0EAFF15E0002008F07CFDFA
:1022D0000390894808F078FD0290039800908748A1
:1022E000807A00EB40008949084401901E22F021C9
:1022F000029B07F0D3FF7F48007806281DD17E4857
:1023000008F062FD0390002008F05EFD0290039843
:1023100000907A48007D00EBC00101EB00107C4981
:1023200008447649097B01EB81010844019034227D
:10233000F021029B07F0B2FF1CE0002008F044FDF2
:1023400003906D4808F040FD0290039800906B48A0
:10235000007D00EBC00101EB00106D4908446749A6
:10236000097B01EB8101084401903422F021029B9A
:1023700007F094FF5F480078072816D15E4808F000
:1023800023FD0390002008F01FFD029003980090A9
:102390005A48407C00EB80005E49084401904A2284
:1023A000F021029B07F07AFF15E0002008F00CFDF9
:1023B0000390514808F008FD0290039800904F48A0
:1023C000407C00EB80005349084401904A22F021F0
:1023D000029B07F063FF4948408A02464EA10390E2
:1023E00004A80DF06FFF43480078082810D1424838
:1023F00008F0EAFC0390002008F0E6FC0290039845
:1024000000906022F02104A8029B07F047FF0FE034
:10241000002008F0D9FC0390374808F0D5FC029062
:10242000039800906022F02104A8029B07F036FF79
:1024300018E230480078012817D12F4808F0C4FC72
:102440000390002008F0C0FC0290039800902B48F5
:10245000007D00EB8000324901EB400001908222B8
:102460005021029B07F01AFF16E0002008F0ACFC98
:102470000390214808F0A8FC0290039800901F48A0
:10248000007D00EB8000264901EB40000190822294
:102490005021029B07F002FF16480078022817D14E
:1024A000154808F091FC0390002008F08DFC029084
:1024B000039800901148407D00EB8000194901EB22
:1024C0004000019094225021029B07F0E7FE31E08A
:1024D000002008F079FC0390074808F075FC029092
:1024E000039800900548407D00EB80000D4901EB0A
:1024F000400019E04501002032F0F00064050020A2
:10250000652D0108BA2D0108E00600208D2D010877
:102510000A2E0108782E01082530346400000000DE
:10252000262F0108582F0108019094225021029B68
:1025300007F0B4FECE48007803281FD1CD4808F03C
:1025400043FC0390002008F03FFC029003980090A9
:10255000C948007D00EBC00101EB0010C74901EB49
:102560004000C549897D01EB810100EB41000190EC
:10257000A6225021029B07F091FE1EE0002008F0E9
:1025800023FC0390BB4808F01FFC029003980090C6
:10259000B948007D00EBC00101EB0010B74901EB29
:1025A0004000B549897D01EB810100EB41000190BC
:1025B000A6225021029B07F071FEAD480078042846
:1025C0001FD1AC4808F000FC0390002008F0FCFB91
:1025D000029003980090A848007D00EBC00101EB39
:1025E0000010A64901EB4000A349097E01EB8101DF
:1025F00000EB41000190B8225021029B07F04EFEF3
:102600001EE0002008F0E0FB03909A4808F0DCFB95
:102610000290039800909848007D00EBC00101EB08
:102620000010964901EB40009349097E01EB8101BE
:1026300000EB41000190B8225021029B07F02EFED2
:102640008B48007807281FD18A4808F0BDFB03900B
:10265000002008F0B9FB0290039800908648007DA6
:1026600000EBC00101EB0010854901EB40008249FD
:10267000497E01EB810100EB41000190A622F0218F
:10268000029B07F00BFE1EE0002008F09DFB03906C
:10269000784808F099FB0290039800907648007DF6
:1026A00000EBC00101EB0010754901EB40007249DD
:1026B000497E01EB810100EB41000190A622F0214F
:1026C000029B07F0EBFDCDE06E4800680023052279
:1026D0001946039005F0BAF9002008F075FB039045
:1026E0004FF46E4008F070FB0290039800901E2299
:1026F000FA216548029B07F0D1FD6248406800233B
:1027000004221946039005F0A1F9002008F05CFBB3
:1027100003904FF46E4008F057FB0290039800902E
:102720003422FA215848029B07F0B8FD504800783F
:10273000012810D14F4808F047FB0390002008F013
:1027400043FB0290039800901E2250214F48029BA9
:1027500007F0A4FD0FE0002008F036FB0390454889
:1027600008F032FB0290039800901E225021474847
:10277000029B07F093FD3E480078022811D13D48A6
:1027800008F022FB0390002008F01EFB0290039843
:102790000090342250213D480F30029B07F07EFD0F
:1027A00010E0002008F010FB0390324808F00CFB0A
:1027B0000290039800903422502134480F30029B3D
:1027C00007F06CFD2A480078032811D1294808F049
:1027D000FBFA0390002008F0F7FA029003980090AB
:1027E0004A22502129481E30029B07F057FD10E075
:1027F000002008F0E9FA03901E4808F0E5FA02907C
:10280000039800904A22502120481E30029B07F076
:1028100045FD17480078042811D1164808F0D4FA6D
:102820000390002008F0D0FA0290039800906022F4
:10283000502116482D30029B07F030FD10E000209B
:1028400008F0C2FA03900B4808F0BEFA0290039811
:102850000090602250210D482D30029B07F01EFD94
:1028600000E000BF00BF079805F052FE09B000BDB0
:102870004501002032F0F000640500208A2F010895
:102880005230010810000020E0060020F32C01085F
:10289000F8B5002008F098FA054607F08BFA4FF4D7
:1028A000807416E04FF47F4141EA044008F08CFA4E
:1028B0000646002008F088FA0546334664223C218B
:1028C0000090604807F01CFD03200FF039F9601EEE
:1028D00084B2002CE6DC4FF448700FF031F94FF46D
:1028E00048700FF02DF9002008F06EFA054607F049
:1028F00061FA554890F8400080BB00242BE0002C82
:1029000007DD092C05DA504A9178621ED0B205F035
:1029100037FB002008F058FA05466FF07F4008F0BA
:1029200053FA07464849009591F8411001EB81019F
:10293000464B03EB811101EB441004EBC401490049
:10294000891C8AB23B46022107F0A8FCC82001F08E
:10295000C4FB601C84B20A2CD1DB72E0FFE73A486A
:1029600090F84000012836D100242FE0002C09DD2A
:10297000052C07DA344A9178621E5206100E05F0D3
:10298000FFFA01E00FF0E2F9002008F01DFA054619
:102990006FF07F4008F018FA07462B49009591F830
:1029A000411001EB41012A4B03EB811101EB441073
:1029B00004EBC4014900891C8AB23B46022107F09E
:1029C0006DFCC82001F089FB601C84B2062CCDDBB5
:1029D0000FF0BCF935E000242FE0002C09DD052CB8
:1029E00007DA194A9178621E5206100E05F0C8FAED
:1029F00001E00FF0ABF9002008F0E6F905466FF0B2
:102A00007F4008F0E1F907460F49009591F8411021
:102A100001EB41010F4B03EB811101EB441004EB7F
:102A2000C4014900891C8AB23B46022107F036FCEA
:102A3000C82001F052FB601C84B2042CCDDB0FF0E7
:102A400085F9F8BD433101086405002063310108B0
:102A5000E33301086335010838B54DF6DC4008F072
:102A6000B3F9044612234FF4947209210090901F89
:102A700007F0B8F94DF6DC4008F0A6F90446234605
:102A80000622082140F2231007F0F4FA4DF6DC404C
:102A900008F09AF904462346052207214FF4927064
:102AA00007F0E8FA002008F08FF9044623460222D6
:102AB000092140F2231007F0B7FB002008F084F949
:102AC000044623460322082140F2251007F0ACFB00
:102AD000002008F079F9044623460322082140F239
:102AE000271007F0A1FB38BDF8B500203049087069
:102AF00008F06AF9054607F05DF9022001F07EF85A
:102B0000002451E0204604EBD0714910A4EB4101B0
:102B100021B3002008F058F9064647F2CE1008F01D
:102B200053F9074604EBD471491001EB410303EB61
:102B3000C1011E2303EB41018AB21E490096097DA3
:102B400001EB81011C4B03EB011104EB840301EB4E
:102B500043003B46A82107F0A1FB23E0002008F03A
:102B600033F9064647F2CE1008F02EF9074604EB7B
:102B7000D471491001EB410303EBC1011E2303EBA8
:102B800041018AB20B490096097D01EB81010A4B94
:102B900003EB011104EB840301EB43003B460821E6
:102BA00007F07CFB601CC4B2082CABDBF8BD000056
:102BB0004501002064050020AF2A0108F8B5002077
:102BC0005649087008F000F9054607F0F3F80320AD
:102BD00001F014F8002420E0002008F0F5F8054684
:102BE00047F2CE1008F0F0F806464D490095097DF1
:102BF000C1EB0111C1EBC1014A4B03EB4101C4EB35
:102C00000413C81804EBC401162303EB4102334636
:102C1000082107F043FB601CC4B20A2CDCDB002453
:102C200023E0002008F0D0F8054647F2CE1008F067
:102C3000CBF806463A490095097DC1EB0111C1EB7D
:102C4000C101384B03EB410304F10A01C1EB01114F
:102C50005818A11D01EBC101162303EB41023346B5
:102C6000A82107F01BFB601CC4B2032CD9DB002495
:102C700035E0022C18DA002008F0A6F805466FF0BF
:102C80007F4008F0A1F8064604EBC401162303EBCD
:102C9000410204EB8401244B03EB81003346902175
:102CA000009507F0FBFA18E0002008F08DF80546C3
:102CB0006FF07F4008F088F80646611C01EBC10107
:102CC000162303EB410204EB8401174B03EB810055
:102CD00033469021009507F0E1FA601CC4B2052C40
:102CE000C7DB002008F070F805466FF07F4008F061
:102CF0006BF8064633463A22902109481A3000956F
:102D000007F0CCFA09480A490A880280897881705C
:102D10000848094909680160F8BD00004501002024
:102D2000640500204F2B0108AA2E0108590100203C
:102D30003C010020550100203801002038B500205A
:102D400008F042F804466FF07F4008F03DF8054671
:102D5000064900948978491E01EB8101044A8818CC
:102D60002B4601225F2107F099FA38BD6405002047
:102D7000652D010800B587B000200590FE4890F849
:102D8000400000287ED106902EE20698049000EBC9
:102D9000D07041100498A0EB4100002873D0F7498F
:102DA000069831F9100047F6FF71884245D1069820
:102DB000401CF349097888421FD16FF07F4008F02A
:102DC00003F80390002007F0FFFF029003980090A3
:102DD0000698049000EBD070401000EB400101EB2E
:102DE00000102A2101EB400080B201900246D02160
:102DF000E4A0029B07F0F0F9F2E1002007F0E4FF05
:102E000003906FF07F4007F0DFFF0290039800907F
:102E10000698049000EBD070401000EB400101EBED
:102E200000112A2000EB410080B201900246D0211F
:102E3000D4A0029B07F0D0F9D2E1D049069831F82E
:102E40001020CD483030069900EB41000088104436
:102E500001B2CE4A069822F810101146069831F9B0
:102E60001000002305220121049004F0EFFDC74962
:102E7000069831F91000C049B1F90D1088420BDCF9
:102E8000C24901E0B5E195E0069831F91000BA4970
:102E9000B1F90F10884247DA012005900698401CCE
:102EA000B749097888421FD14FF47F0007F08CFFA3
:102EB0000390002007F088FF029003980090069886
:102EC000049000EBD070401000EB400101EB0010CB
:102ED0002A2101EB400080B201900246D021AC488B
:102EE000029B07F079F97BE1002007F06DFF03906A
:102EF0004FF47F0007F068FF029003980090069857
:102F0000049000EBD070401000EB400101EB00108A
:102F10002A2101EB400080B201900246D0219C485A
:102F2000029B07F059F95BE10698401C9449097827
:102F300088421FD14FF46E4007F046FF03900020F7
:102F400007F042FF0290039800900698049000EB6F
:102F5000D070401000EB400101EB00112A2000EB83
:102F6000410080B201900246D0218948029B07F0BF
:102F700033F935E1002007F027FF03904FF46E404E
:102F800007F022FF0290039800900698049000EB4F
:102F9000D070401000EB400101EB00102A2101EB42
:102FA000400080B201900246D0217948029B07F090
:102FB00013F915E17149069831F9100047F6FF71D0
:102FC000884245D10698401C6D49097888421FD136
:102FD0006FF07F4007F0F8FE0390002007F0F4FE4A
:102FE0000290039800900698049000EBD070401077
:102FF00000EB400101EB00102A2101EB400080B200
:103000000190024630215FA0029B07F0E5F8E7E05F
:10301000002007F0D9FE03906FF07F4007F0D4FE48
:103020000290039800900698049000EBD070401036
:1030300000EB400101EB00102A2101EB400080B2BF
:103040000190024630214FA0029B07F0C5F8C7E06F
:103050004A49069831F8102047483030069900EB6D
:1030600041000088104401B2484A069822F8101026
:103070001146069831F91000002305220121049021
:1030800004F0E4FC4149069831F910003A49B1F9DD
:103090000D10884208DC3D49069831F91000364988
:1030A000B1F90F10884247DA012005900698401CBC
:1030B0003349097888421FD14FF47F0007F084FE1E
:1030C0000390002007F080FE02900398009006987D
:1030D000049000EBD070401000EB400101EB0010B9
:1030E0002A2101EB400080B201900246302128489D
:1030F000029B07F071F873E0002007F065FE039073
:103100004FF47F0007F060FE02900398009006984D
:10311000049000EBD070401000EB400101EB001078
:103120002A2101EB400080B201900246302118486C
:10313000029B07F051F853E00698401C10490978AB
:1031400088422ED14FF46E4007F03EFE03900020DF
:1031500007F03AFE0290039800900698049000EB66
:10316000D070401000EB400101EB00102A2101EB70
:10317000400080B201900DE06405002008070020A7
:10318000450100202D2D2D2D2D2D0000A605002000
:10319000E006002002463021F948029B07F01CF8A7
:1031A0001EE0002007F010FE03904FF46E4007F081
:1031B0000BFE0290039800900698049000EBD070EC
:1031C000401000EB400101EB00102A2101EB400010
:1031D00080B2019002463021E948029B06F0FCFFD4
:1031E0000698401CC0B2069006980828FFF6CDADA0
:1031F000A6E3E44890F8400001287DD10020069025
:1032000031E20698049000EBD07041100498A0EBD6
:103210004100002871D006984000DB4931F91000C8
:1032200047F6FF71884247D10698401CD749097874
:10323000884220D16FF07F4007F0C6FD0390002048
:1032400007F0C2FD0290039800900698049000EBEE
:10325000D070401000EB400101EB00103D2101EB6C
:10326000800080B201900246D021AFF2E800029BBC
:1032700006F0B2FFF3E1002007F0A6FD03906FF027
:103280007F4007F0A1FD02900398009006980490FB
:1032900000EBD070401000EB400101EB00103D212D
:1032A00001EB800080B201900246D021AFF22C10D9
:1032B000029B06F091FFD2E106984000B24931F836
:1032C0001020B0483030069900EB410000881044CF
:1032D00001B2AF4A069822F810101146069831F94B
:1032E0001000002305220121049004F0AFFBA8493F
:1032F000069831F9100001E0BAE19BE0A149B1F96B
:103300000D10884208DCA249069831F910009D4949
:10331000B1F90F10884247DA012005900698401C49
:103320009A49097888421FD14FF47F0007F04CFD7D
:103330000390002007F048FD029003980090069843
:10334000049000EBD070401000EB400101EB001145
:103350003D2000EB810080B201900246D0218848D8
:10336000029B06F039FF7AE1002007F02DFD039063
:103370004FF47F0007F028FD029003980090069814
:10338000049000EBD070401000EB400101EB001006
:103390003D2101EB800080B201900246D0217848A7
:1033A000029B06F019FF5AE10698401C77490978FC
:1033B00088421FD14FF46E4007F006FD03900020B5
:1033C00007F002FD0290039800900698049000EB2D
:1033D000D070401000EB400101EB00103D2101EBEB
:1033E000800080B201900246D0216548029B06F021
:1033F000F3FE34E1002007F0E7FC03904FF46E4049
:1034000007F0E2FC0290039800900698049000EB0D
:10341000D070401000EB400101EB00103D2101EBAA
:10342000800080B201900246D0215548029B06F0F0
:10343000D3FE14E106984000534931F9100047F6D5
:10344000FF71884247D10698401C5049097888424C
:1034500020D16FF07F4007F0B7FC0390002007F009
:10346000B3FC0290039800900698049000EBD07093
:10347000401000EB400101EB00103D2101EB80000A
:1034800080B2019002463021AFF20830029B06F074
:10349000A3FEE4E0002007F097FC03906FF07F406C
:1034A00007F092FC0290039800900698049000EBBD
:1034B000D070411001EB410000EB01103D2101EB08
:1034C000800080B2019002463021AFF24830029B6A
:1034D00006F082FEC3E0069840002B4931F8102028
:1034E00028483030069900EB41000088104401B2B2
:1034F000274A069822F810101146069831F9100054
:10350000002305220121049004F0A0FA2049069826
:1035100031F910001B49B1F90D10884208DC1C4933
:10352000069831F910001749B1F90F10884251DAA5
:10353000012005900698401C14490978884229D139
:103540004FF47F0007F040FC0390002007F03CFCA4
:103550000290039800900698049000EBD070411000
:1035600001EB410000EB01103D2101EB800080B236
:103570000190024630210248029B06F02DFE6EE0CB
:10358000E006002064050020080700204501002017
:10359000A6050020002007F017FC03904FF47F00E1
:1035A00007F012FC0290039800900698049000EB3C
:1035B000D070411001EB410000EB01103D2101EB07
:1035C000800080B2019002463021E748029B06F05D
:1035D00003FE44E00698401CE449097888421FD164
:1035E0004FF46E4007F0F0FB0390002007F0ECFB77
:1035F0000290039800900698049000EBD070401061
:1036000000EB400101EB00103D2101EB800080B296
:10361000019002463021D448029B06F0DDFD1EE0F9
:10362000002007F0D1FB03904FF46E4007F0CCFB75
:103630000290039800900698049000EBD07041101F
:1036400001EB410000EB01103D2101EB800080B255
:10365000019002463021C448029B06F0BDFD069849
:10366000401CC0B2069006980428FFF6CAAD67E178
:10367000BF4890F840000228F9D1002006905BE195
:10368000069801287DD1BB48B0F90A0047F6FF71C2
:1036900088422BD10698401CB4490978884212D13F
:1036A0006FF07F4007F090FB0490002007F08CFB48
:1036B0000390049800905022D021AFF23850039B21
:1036C00006F08AFD34E1002007F07EFB04906FF0E5
:1036D0007F4007F079FB0390049800905022D0219E
:1036E000AFF26050039B06F077FD21E1A1484189CC
:1036F0009F48408E084400B29F4948800846B0F970
:103700000200002305220121049004F09FF99A4849
:10371000B0F902009649B1F90D10884207DC9648CD
:10372000B0F902009249B1F90F1088422DDA012058
:1037300005900698401C8D490978884211D14FF4B4
:103740007F0007F041FB0490002007F03DFB039051
:10375000049800905022D0218348039B06F03CFD42
:10376000E6E0002007F030FB04904FF47F0007F004
:103770002BFB0390049800905022D0217A48039BA1
:1037800000E02CE006F028FDD2E00698401C7749C6
:103790000978884211D14FF46E4007F015FB049070
:1037A000002007F011FB0390049800905022D021D4
:1037B0006D48039B06F010FDBAE0002007F004FB03
:1037C00004904FF46E4007F0FFFA039004980090C5
:1037D0005022D0216448039B06F0FEFCA8E0654817
:1037E000B0F9040047F6FF7188422BD10698401CBF
:1037F0005E490978884212D16FF07F4007F0E4FA01
:103800000490002007F0E0FA039004980090502202
:103810003021AFF29060039B06F0DEFC88E00020D0
:1038200007F0D2FA04906FF07F4007F0CDFA0390D2
:103830000498009050223021AFF2B860039B06F04C
:10384000CBFC75E04B4880884949098E084400B29A
:10385000494908800846B0F90000002305220121EB
:10386000049004F0F3F84448B0F900004049B1F97D
:103870000D10884207DC4048B0F900003C49B1F91E
:103880000F1088422BDA012005900698401C37491A
:103890000978884211D14FF47F0007F095FA04901F
:1038A000002007F091FA03900498009050223021F4
:1038B0002D48039B06F090FC3AE0002007F084FAC4
:1038C00004904FF47F0007F07FFA03900498009073
:1038D000502230212448039B06F07EFC28E0069805
:1038E000401C22490978884211D14FF46E4007F0FC
:1038F0006BFA0490002007F067FA03900498009098
:10390000502230211848039B06F066FC10E000208E
:1039100007F05AFA04904FF46E4007F055FA0390FE
:1039200004980090502230210F48039B06F054FC6D
:103930000698401CC0B2069006980228FFF6A0AE7A
:103940000598012808D10A48007B28B90122D10234
:103950000A4801F04BFB05E000224FF400610748E4
:1039600001F044FB07B000BDE00600204501002047
:103970006405002008070020A6050020000C014077
:1039800070B500203849087007F01EFA054606F0A9
:1039900011FA012000F032F9FFF7D0F900F050F9E8
:1039A000FEF7C0F8002447E0304890F840000128B6
:1039B00017D1204604EBD0714910A4EB410141BB63
:1039C0006FF07F4007F000FA0546262204FB02F064
:1039D00000F11E012B4640F23F12012006F04AFB87
:1039E00028E0224890F84000022813D10CB1042CA2
:1039F00020D16FF07F4007F0E7F90546262204FB4F
:103A000002F000F11E012B4640F23F12012006F0A9
:103A100031FB0FE06FF07F4007F0D6F90546262214
:103A200004FB02F000F11E012B4640F23F12012080
:103A300006F020FB601CC4B2052CB5DB002410E0AE
:103A40006FF07F4007F0C0F9054604EB840149019F
:103A5000491C88B22B4698221E2106F0E5FB601C0B
:103A6000C4B2032CECDB70BD4501002064050020CE
:103A700030B587B051480078012802D003287CD1A6
:103A800036E04F494F4807F0EBF94D4880780090F9
:103A90004B48437802784CA104A80CF013FC494829
:103AA0008078009047484378C2784BA101A80CF079
:103AB00009FC002007F088F904464C4807F084F917
:103AC00005462B460122AA2104A8009406F0E6FB35
:103AD000002007F079F90446444807F075F90546D7
:103AE0002B46C022B42101A8009406F0D7FB61E068
:103AF0003349344807F0B4F93D48807800903C4899
:103B00004378027830A104A80CF0DCFB39488078B7
:103B1000009038484378C2782FA101A80CF0D2FB5E
:103B20003548007805280FD1304807F04DF9044694
:103B3000002007F049F905462B468222F02101A812
:103B4000009406F0ABFB0EE0002007F03DF90446C0
:103B5000264807F039F905462B468222F02101A8B4
:103B6000009406F09BFB24480078062811D11F48DA
:103B700007F02AF90446002000E01AE007F024F9D3
:103B800005462B469422F02104A8009406F086FBFB
:103B90000EE0002007F018F90446144807F014F965
:103BA00005462B469422F02104A8009406F076FBEB
:103BB00000E000BF00BF07B030BD0000460100209C
:103BC0003C01002038010020253032643A25303293
:103BD000643A2530326400003230253032642D25BD
:103BE0003032642D253032640000000032F0F000E5
:103BF000590100205501002045010020F8B5044678
:103C00004FF46E4007F0E0F80546002007F0DCF8BE
:103C1000064609490095097DC1EB011101EB8101BF
:103C2000064A0A44611EC1EB0111501833460122B5
:103C3000114606F033FBF8BD64050020192A01087F
:103C400038B5002007F0C0F804466FF07F4007F059
:103C5000BBF805462B4603227F2115A0009406F0F1
:103C60001DFB002007F0B0F804466FF07F4007F01E
:103C7000ABF805462B4603229F210EA0009406F0C8
:103C80000DFB002007F0A0F804466FF07F4007F01E
:103C90009BF8054608490094897A01EB4101074ADF
:103CA00088182B4601228F2106F0F8FA38BD000053
:103CB0002800000029000000640500208D2D010867
:103CC00038B5214807F080F8044609234FF4807284
:103CD00006210090FA2006F085F8002007F074F81D
:103CE00004460723FC2219460090104606F07AF895
:103CF000002007F069F804460723FE2219460090C9
:103D0000104606F06FF8104807F05EF804461123DD
:103D100040F201120A210090F92006F063F80A48E7
:103D200007F052F80446234607221221FA2006F033
:103D3000A1F9054807F048F8044623460322132159
:103D4000FC2006F097F938BD2176EE002DE9F84306
:103D500004460D4617461E46DDF820806FF07F4072
:103D600007F032F881467B1E9AB26B1C99B2631C35
:103D700098B24B4606F07EF96FF07F4007F024F8CA
:103D80008146731E9AB26B1C99B2631C98B24B4663
:103D900006F04AFA6FF07F4007F016F88146731E6E
:103DA0009AB26B1C99B2A31C98B24B4606F03CFA2F
:103DB000002007F009F881464B463A46294620463E
:103DC00006F058F9002006F0FFFF81464B463246C8
:103DD0002946204606F028FA002006F0F5FF814625
:103DE000E11988B24B463246294606F01DFA0020FA
:103DF00006F0EAFF8146711C8AB2E119491C88B2BB
:103E00004B46294606F010FA002006F0DDFF8146F9
:103E1000781C82B2A81981B24B46204606F02AF9D6
:103E200005EB060CACF1010C1FFA8CF304EB070C4C
:103E3000ACF1010C1FFA8CF205F1020C1FFA8CF1A7
:103E400004F1030C1FFA8CF0CDF8008005F0CAFFD6
:103E5000BDE8F88370B504466FF07F4006F0B4FF0C
:103E6000054605F0A7FF012C06D0022C1BD0032C21
:103E700032D0042C60D146E04FF47F0006F0A4FF5E
:103E800005462B460A221421084606F0F3F84FF4A3
:103E90007F0006F099FF05462B460A220F211920C4
:103EA00006F0C2F948E04FF47F0006F08DFF0546AA
:103EB0002B460A2214214FF4967006F0DBF84FF4DB
:103EC0007F0006F081FF05462B460A220F2140F2B3
:103ED000311006F0A9F92FE04FF47F0006F074FFCF
:103EE00005462B460A22DC21142006F0C3F84FF4C5
:103EF0007F0006F069FF05462B460A22D7211920CC
:103F000006F092F918E04FF47F0006F05DFF0546D9
:103F10002B460A22DC214FF4967006F0ABF84FF4E2
:103F20007F0006F051FF05462B460A22D72140F2BA
:103F3000311006F079F900BF00BF70BD10B5012245
:103F40001021044801F052F800F07CF800F022F84B
:103F500010BD0000001001401FB51020009001208E
:103F6000029000200190022003906946014800F071
:103F700095FE1FBD001001401FB5102000900120CC
:103F80000190022003906946014800F087FE1FBDA2
:103F90000010014010B50024FFF7DEFF04E0601CB4
:103FA000C4B201200DF0EAFD10210F4801F016F80F
:103FB00008B1642CF3DB642C01DB012010BD00246C
:103FC00004E0601CC4B201200DF0D8FD10210648A9
:103FD00001F004F808B9F02CF3DBF02C01DB012030
:103FE000ECE70020EAE700000010014070B5002473
:103FF000002520E0FFF7C0FF00221021104800F04C
:10400000F5FF02200DF0BAFD012210210C4800F04E
:10401000EDFFFFF7A1FF0A200DF0B0FD64101021A5
:10402000074800F0DBFF08B144F080043C200DF0AD
:10403000A5FD681CC5B2082DDCDB204670BD000064
:104040000010014010B5FFF797FF0022102108482B
:1040500000F0CCFF40F2EE200DF090FD0122102187
:10406000034800F0C3FF0F200DF088FD10BD0000D5
:104070000010014070B50446FFF77EFF002526E0E2
:1040800004F00106641086B100221021114800F0EE
:10409000ADFF02200DF072FD012210210D4800F04D
:1040A000A5FF3C200DF06AFD0FE000221021094819
:1040B00000F09CFF46200DF061FD01221021054813
:1040C00000F094FF02200DF059FD681CC5B2082DC8
:1040D000D6DB70BD00100140704706E042F63D019E
:1040E00000E0491E0029FCD1401E0028F6D170478F
:1040F00006E00A2101E04A1ED1B20029FBDC401E85
:104100000028F6D1704772B600BFFEE710B500F088
:104110006FFD00BF34200349C86000BF00F006FDFA
:1041200010BD0000002002400021074AD16107496C
:10413000096941F00401054A11611146096941F01C
:104140004001116170470000C006002000200240BD
:104150000021074AD1610749096941F00201054A76
:10416000116111464861096941F0400111617047D0
:10417000C0060020002002400022054BDA61054AFB
:10418000126942F00102034B1A610180704700007E
:10419000C00600200020024000201E49C96801F02E
:1041A000100139B11C49C96941F002011A4AD161B3
:1041B00040F010001749C96801F0040139B11649EF
:1041C000C96941F00101144AD16140F0040011496C
:1041D000C96901F0010169B10F49C96941F00401E0
:1041E0000D4AD16100BF0B49C96921F00101094A9B
:1041F000D16100BF00BF40F20111884206D10549DC
:10420000C96921F00101034AD16101E00149C86097
:1042100000BF704700200240C006002070B5044671
:1042200000F0EAFE054609E0601C38B124B100F058
:10423000E3FE401BA04201D9032070BD1248C068B4
:1042400000F001000028EFD10F48C06800F0200006
:1042500020B100BF20200C49C86000BF0A48C068D8
:1042600000F0100048B90848C06900F0010020B90A
:104270000548C06800F0040018B1FFF78DFF012069
:10428000DBE70020D9E700000020024070B50446BB
:10429000B3F5804F13D1D1E9000540EA05108D68D0
:1042A00040EA05208D6928438D8940EA054054F88D
:1042B0002250064E3540284344F8220003E06FF0B8
:1042C000704044F82200002070BD00000000F0CFD4
:1042D00070B50246086852F8200020F001000E6810
:1042E00042F826008868082801D1402300E0002316
:1042F000486818438E683043CE6830430E693043B7
:104300004E693043CE6930430E6A30434E6A3043C3
:104310008E6A3043CE6A30430E6B40EA06048869E9
:104320000443486B0443074D45F4806545F4E0259C
:10433000086852F82000A84320430E6842F826007F
:10434000002070BD7FFB080010B50346D1E90004D2
:1043500040EA04108C6840EA04208C8940EA044456
:10436000088A401E44EA0054087D801E44EA00602A
:104370008C692043541C53F8244004F040442043EB
:10438000541C43F82400002010BD00001EB5024656
:1043900012A4D4E90030A468CDE9010400930229F5
:1043A00017D14FF4C87392FBF3F403FB142363B1EA
:1043B000D31702EB93739B10A2EB83033BB96423E7
:1043C00092FBF3F403FB14230BB11D201EBD1C2034
:1043D000FCE7481E1DF80000F8E700001F1C1F1E28
:1043E0001F1E1F1F1E1F1E1F13B500242FE09DF848
:1043F00003009DF8071088420CD19DF801009DF83C
:104400000510884206D19DF806009DF80210401A5A
:1044100004441DE09DF8060004449DF80500401E7C
:10442000C0B28DF805009DF8050040B90C208DF84C
:1044300005009DF80700401EC0B28DF807009DF8EA
:1044400005109DF80700FFF7A1FF8DF80600CEE7E5
:1044500000BF20461CBD000070B50A480468001D5E
:104460000568001D0668344454B1082206492046F8
:1044700004F002F8042204491031284603F0FCFF3E
:1044800070BD0000E8F7FF1F0A02002038B50246A1
:1044900000230020009000BF92F82400012801D1E1
:1044A000022038BD012082F8240000BF4868072898
:1044B00012D21068406B0C79641E04EB84051F2433
:1044C000AC40A0430D796D1E05EB85050C68AC4032
:1044D00020431468606327E048680D2812D21068F2
:1044E000006B0C79E41F04EB84051F24AC40A0434F
:1044F0000D79ED1F05EB85050C68AC402043146871
:10450000206311E01068C06A0C790D3C04EB84054F
:104510001F24AC40A0430D790D3D05EB85050C68CB
:10452000AC4020431468E06208680A2812D310687F
:10453000C0680C780A3C04EB44050724AC40A04357
:104540000D780A3D05EB45058C68AC4020431468A6
:10455000E0600FE0106800690C7804EB4405072464
:10456000AC40A0430D7805EB45058C68AC4020437A
:10457000146820610868102802D00868112827D123
:10458000174C1068A0421ED11068806800F400002B
:10459000F0B91068806840F400001468A0600868F2
:1045A000102815D10F4800680F4CB0FBF4F000EB59
:1045B00080004000009002E00098401E00900098AB
:1045C0000028F9D104E0906A40F0200090620123B5
:1045D00000BF002082F8240000BF184661E70000F9
:1045E000002401403401002040420F000146886A47
:1045F000704701460868C06C704700002DE9F04123
:104600000446002700250026A84614B90120BDE86D
:10461000F081A06810B1207D00B100BFA06A30B960
:104620000020E06284F82400204600F097F820463D
:10463000FCF712FD0746A06A00F01000002873D1B5
:10464000002F7ED1A06A20F4885040F00200A062C2
:104650003F4AD4E90001904208D1E069B0F5402F0B
:1046600002D14FF4002002E0E06900E0E06901437C
:10467000207B41EA40000643A068B0F5807F02D06D
:10468000A068012802D14FF4807000E000200543AB
:10469000207D012811D1207B38B9A069401E4FF43C
:1046A000006141EA4030054307E0A06A40F0200085
:1046B000A062E06A40F00100E0622068406820F4F7
:1046C0006940284321684860206880682149084083
:1046D000304321688860A068B0F5807F02D0A06870
:1046E000012802D14FF4807000E00020B0F5807FF7
:1046F00003D1208A401E4FEA00582068C06A20F487
:10470000700040EA08002168C86220688068124989
:104710000840B04209D10020E062A06A20F0020007
:1047200040F00100A06211E00BE0A06A20F002005E
:1047300040F01000A062E06A40F00100E062012752
:1047400004E0A06A40F01000A062012738465EE74E
:10475000003C0140FDF7E1FFFE0E1FFF10B586B0E3
:1047600004460020029003900490059014492068AC
:10477000884222D100BF1348806940F4007011497B
:1047800088610846806900F40070019000BF00BF96
:1047900000BF0846806940F01000886108468069C3
:1047A00000F01000019000BF00BF01200290032024
:1047B000039002A9044800F071FA06B010BD000091
:1047C000002401400010024000100140F8B50446EA
:1047D0000D46002600200090002700F00DFC064644
:1047E0002068806800F4807050B1A06A40F020001A
:1047F000A06200BF002084F8240000BF0120F8BDA3
:104800002068406800F4807020BB2068C06A00F413
:104810007000F8B917E0681CA8B125B100F0ECFBF6
:10482000801BA8420FD92068006800F0020050B930
:10483000A06A40F00400A06200BF002084F82400B9
:1048400000BF0320DBE72068006800F002000028BA
:10485000E1D053E0022001F0BDFB38490968B1FB0B
:10486000F0F021680969364A114091B92168C96898
:104870009211114069B921680969324A114031B970
:104880002168C9689211114009B9142117E0292142
:1048900015E0216809692B4A114021B92168C968CE
:1048A0009211114041B121680969274A114029B983
:1048B0002168C968114009B9542100E0FC2100FBBE
:1048C00001F718E0681C98B125B100F095FB801B3A
:1048D000A8420DD90098B8420AD2A06A40F004005C
:1048E000A06200BF002084F8240000BF032086E7F8
:1048F0000098401C00900098B842E3D36FF012007B
:1049000021680860A06A40F40070A0622068806896
:1049100000F46020B0F5602F0DD1207B58B9A06A5B
:1049200020F48070A062A06A00F4805018B9A06AD8
:1049300040F00100A062002061E700003401002087
:1049400024499224922449124992240070B50446C5
:10495000002500BF94F82400012801D1022070BD79
:10496000012084F8240000BF2046FCF7A3FB054685
:10497000002D77D1A06A40F20121884340F4807075
:10498000A0623C492068884208D13B48006800F496
:10499000702008B9012002E0002000E0012078B179
:1049A000A06A20F48010A0622068406800F4806053
:1049B00000B3A06A20F4005040F48050A06219E0D7
:1049C000A06A40F48010A0622B49091F2068884229
:1049D00003D028492068884204D12748006800F4A1
:1049E000806000E0002028B1A06A20F4005040F46C
:1049F0008050A062A06A00F4805020B1E06A20F0EC
:104A00000600E06201E00020E06200BF002084F8C0
:104A1000240000BFC01E216808602068806800F480
:104A20006020B0F5602F16D112492068884208D165
:104A30001148006800F4702008B9012002E000204D
:104A400000E0012038B12068806840F4A0002168AF
:104A500088600CE006E02068806840F480102168DF
:104A6000886004E000BF002084F8240000BF2846CE
:104A700075E7000000280140042401402DE9F041C1
:104A800004460E460127002500BF2648007E012867
:104A900002D10220BDE8F08101202249087600BF42
:104AA0002068022813D14CF25030FFF7B7FB90BBBF
:104AB0000120FFF739FB4CF25030FFF7AFFB074600
:104AC0001948006920F004001749086123E04CF2FE
:104AD0005030FFF7A3FBF0B94FF0FF303060A5680E
:104AE00012E02846FFF734FB4CF25030FFF796FBFC
:104AF00007460D48006920F002000B4908610FB11C
:104B0000356007E005F50065D4E9021001EBC0202F
:104B1000A842E6D800BF00BF00200249087600BFC7
:104B20003846B7E7C006002000200240034800696D
:104B300040F08000014908610020704700200240D9
:104B40002DE9FE4F05468B46174698460126002460
:104B50000020029000BF2448007E012802D10220DC
:104B6000BDE8FE8F01202049087600BF4CF250308E
:104B7000FFF754FB064686BB012D02D101200290AF
:104B800006E0022D02D10220029001E004200290F2
:104B900000241EE02201B946C24648465146FBF7B2
:104BA00014FB80B20190022000FB04B00090019938
:104BB000FFF7E2FA4CF25030FFF730FB06460B48A5
:104BC000006920F001000949086106B104E0601C99
:104BD000C4B202988442DDDB00BF00BF002002495E
:104BE000087600BF3046BBE7C00600200020024028
:104BF00000200849096901F0800151B10649054AC0
:104C00005160064951601146096901F0800101B106
:104C1000012070470020024023016745AB89EFCD9A
:104C200000B585B0002001900290039004901748D1
:104C3000006808B105B000BD01201449086000BF3C
:104C40001348406940F48070114948610846406942
:104C500000F48070009000BF00BF4FF6807001909C
:104C6000022002900320049001A90A4800F016F8DF
:104C70004CF6B3700190022002900320049001A929
:104C8000054800F00BF800BFD4E700002001002029
:104C90000010024000180140001401402DE9F847BF
:104CA000024600239C467BE14FF0010808FA03F41A
:104CB000D1F8008008EA0400A0427DD1DFF8F4A218
:104CC000D1F80480A8EB0A09D0453AD014DCB8F139
:104CD000030F50D009DCB8F1000F31D0B8F1010F4B
:104CE0001CD0B8F1020F49D120E0B8F1110F18D053
:104CF000B8F1120F42D11EE0B9F5881F25D006DCAD
:104D0000B9F5803F20D0B9F5801F37D11AE0B9F549
:104D1000001F18D0B9F5041F30D117E0D1F80CC02E
:104D20002DE0D1F80C8008F1040C28E0D1F80C80BB
:104D300008F1080C23E0D1F80C8008F10C0C1EE0FF
:104D400000BF00BF00BF00BF00BF00BFD1F8088098
:104D5000B8F1000F02D14FF0040C0BE0D1F808803D
:104D6000B8F1010F03D14FF0080C146102E04FF0CD
:104D7000080C546103E04FF0000C00E000BF00BFDE
:104D8000FF2801D8904601E002F104084646FF28BA
:104D900002D84FEA830803E0A3F108084FEA880825
:104DA0004746D6F800804FF00F0909FA07F928EABC
:104DB00009080CFA07F900E07AE048EA0908C6F8A1
:104DC0000080D1F8048008F08058B8F1805F6FD17E
:104DD00000BFDFF8E481D8F8188048F00108DFF858
:104DE000D891C9F81880C846D8F8188008F001088A
:104DF000CDF8008000BF00BF4FEAB9384FEA9309F1
:104E000058F829504FEA83784FEA18794FF00F0885
:104E100008FA09F825EA0805DFF8A081424502D121
:104E20004FF0000824E0DFF89881424502D14FF0AE
:104E300001081DE0DFF88C81424502D14FF00208E5
:104E400016E0DFF88481424502D14FF003080FE0FD
:104E5000DFF87881424502D14FF0040808E0DFF81E
:104E60007081424502D14FF0050801E04FF006087D
:104E70004FEA83794FEA197908FA09F848EA0505F3
:104E8000DFF850814FEA930948F82950D1F804809F
:104E900008F48038B8F5803F0BD1DFF83C81D8F8B2
:104EA000008048EA0008DFF83091C9F800800AE085
:104EB00075E0DFF82481D8F8008028EA0008DFF8E0
:104EC0001891C9F80080D1F8048008F40038B8F5CA
:104ED000003F0ED1DFF8008108F10408D8F8008007
:104EE00048EA0008DFF8F09009F10409C9F80080E9
:104EF0000DE0DFF8E48008F10408D8F8008028EA23
:104F00000008DFF8D49009F10409C9F80080D1F84D
:104F1000048008F48018B8F5801F0ED1DFF8B8803F
:104F200008F10808D8F8008048EA0008DFF8A890DF
:104F300009F10809C9F800800DE0DFF89C8008F14C
:104F40000808D8F8008028EA0008DFF88C9009F1FA
:104F50000809C9F80080D1F8048008F40018B8F5F1
:104F6000001F0ED1DFF8708008F10C08D8F800801F
:104F700048EA0008DFF8609009F10C09C9F80080E0
:104F80000DE0DFF8548008F10C08D8F8008028EA1A
:104F90000008DFF8449009F10C09C9F800805B1C97
:104FA000D1F8008028FA03F8B8F1000F7FF47CAE46
:104FB000BDE8F88700001110001002400008014011
:104FC000000C014000100140001401400018014095
:104FD000001C0140080001400004014002469368A3
:104FE0000B400BB1012000E0002070470AB10161C5
:104FF00001E00B040361704701480068704700003E
:105000002801002003480068034909780844014941
:1050100008607047280100203001002010B50848C2
:10502000006840F0100006490860032000F0A8F86E
:10503000002000F007F800F02BF8002010BD000061
:105040000020024070B504460E4800784FF47A7193
:10505000B1FBF0F00C490968B1FBF0F5284602F00D
:1050600021F908B1012070BD102C07D20022214681
:10507000501E00F047F80548046001E00120F2E707
:105080000020F0E730010020340100202C01002036
:1050900008B500BF1148806940F001000F498861E0
:1050A0000846806900F00100009000BF00BF00BF0B
:1050B0000846C06940F08050C8610846C06900F0E9
:1050C0008050009000BF00BF00BF0549486820F035
:1050D000E06040F00070486000BF08BD0010024072
:1050E0000000014001460846002809DB00F01F03CC
:1050F00001229A4043099B0003F1E023C3F80021F9
:1051000000BF70472DE9F05F80460D461646002728
:105110000BF0ECF8074639462A46334601F0070003
:10512000C0F1070ABAF1040F02D94FF0040A01E0F6
:10513000C0F1070AD14600F1040ABAF1070F02D202
:105140004FF0000A01E0A0F1030AD4464FF0010A33
:105150000AFA09FAAAF1010A0AEA020A0AFA0CFA98
:105160004FF0010B0BFA0CFBABF1010B0BEA030B3D
:105170004AEA0B04214640460BF0C0F8BDE8F09F18
:1051800000BF00F00702064B19684FF6FF031940F5
:10519000044B0B4343EA0221014B196000BF7047E7
:1051A0000CED00E00000FA0570B505460C4604F071
:1051B0008000802808D104F0070000EB800605F18C
:1051C000280000EBC60105E004EB840605F5B47089
:1051D00000EBC6011AB900200873CB8004E001205F
:1051E00008730B81180C4881002070BD704770B5A2
:1051F00004460D4605EB850304F1280101EBC301CC
:105200004A692946D4F8E80208F004FC70BD70B57C
:1052100004460D4605EB850304F5B47101EBC301AB
:105220004A692946D4F8E80208F074FC70BD70B5EC
:1052300004460E4606F0800080280AD106F00700DA
:1052400000EB800104F1280000EBC105012068702B
:1052500009E006F0070000EB800104F5B47000EBF4
:10526000C1050020687006F00700287000BF94F8A0
:10527000A802012801D1022070BD012084F8A802F3
:1052800000BF2946206809F0C5FA00BF002084F855
:10529000A80200BF00BFEFE770B504460E4606F057
:1052A0000F006168884201D9012070BD06F08000BE
:1052B00080280AD106F0070000EB800104F12800E5
:1052C00000EBC1050120687009E006F0070000EB63
:1052D000800104F5B47000EBC10500206870002067
:1052E000A87006F00700287000BF94F8A8020128F3
:1052F00001D10220D9E7012084F8A80200BF294685
:10530000206809F0E3FB00BF002084F8A80200BF7A
:1053100000BFCAE72DE9F04105460C46174607F4E1
:105320008040002850D02868B0F85010207801EB59
:10533000C000801C296801F5806131F81000C0F3BD
:105340000906A069B04203D3A069801BA06101E0F7
:105350000020A061A069A8B900BF22785200296886
:1053600031F812104BF68F7201EA020080F40050FF
:1053700040F4004141F0800123785B002A6822F864
:10538000131000BF07F04000A8B100BF00BF227893
:105390005200296831F8121048F68F7201EA0200B3
:1053A00040F4004141F0C00123785B002A6822F8F4
:1053B000131000BF00BF002E55D02289616933460B
:1053C00028680AF0F9F94EE02868B0F85010207803
:1053D00001EBC000801D296801F5806131F81000E3
:1053E000C0F30906A069B04203D3A069801BA06185
:1053F00001E00020A061A069A8B900BF2278520096
:10540000296831F812104BF68F7201EA020080F41D
:10541000005040F4004141F0800123785B002A688D
:1054200022F8131000BF07F04000A8B900BF00BF6A
:1054300022785200296831F8121048F68F7201EA7A
:10544000020040F4004141F0C00123785B002A686B
:1054500022F8131000BF00BF2EB162896169334684
:1054600028680AF0A9F93046BDE8F0812DE9F04737
:1054700005460C46904608F04000002871D0286888
:10548000B0F85010207801EBC000801C296801F5AD
:10549000806131F81000C0F30907A069B84203D950
:1054A000A069C01BA06101E00020A061A0690028E4
:1054B0007ED100BF6078C8B900BF29682A68B2F8F9
:1054C000502011442278022303EBC20201F58063CD
:1054D00003EB420000BF028848F2FF331A4002800B
:1054E000028842F40042028000BF13E06078012885
:1054F00010D100BF28682A68B2F8502010442278E2
:10550000022303EBC20200F5806303EB4201002299
:105510000A8000BF00BF00BF2968607810BB00BFD1
:105520002B68D5F800C0BCF850C0634494F800C0A4
:105530004FF0060909EBCC0C03F5806909EB4C0030
:1055400000BFB0F800C048F2FF390CEA090CA0F81F
:1055500000C0B0F800C04CF4004CA0F800C000BF80
:1055600011E0C0E0607801280DD12868B0F8500043
:1055700001442078062303EBC00001F5806303EBB0
:1055800040020020108000BF21782846FFF72FFE40
:1055900008F48040002816D000BF00BF22785200D7
:1055A000296831F8121048F68F7201EA020000E013
:1055B0000AE040F4004141F4814123785B002A680D
:1055C00022F8131000BFCAE108F48040A8B100BF60
:1055D00000BF22785200296831F8121048F68F7205
:1055E00001EA020040F4004141F4814223785B006B
:1055F000296821F8132000BF00BF94F82400012877
:10560000E1D1606938446061E0693844E061216952
:10561000206A884204D32669206A801B20620BE03E
:10562000206A20B93E46002084F8240004E00020CF
:1056300084F82400266A206200BF6078B8BB00BFEF
:105640002A682968B1F850100A442178022303EB34
:10565000C10102F5806303EB4101084600BF56B962
:10566000038848F2FF3C03EA0C030380038843F4F9
:105670000043038019E03E2E0BD800BF710806F0EE
:10568000010303B1491C4FF6FF7303EA8123038032
:105690000BE000BF710906F01F0303B9491E4FF468
:1056A000004343EA8123038000BF00BF13E0FFE70C
:1056B000607801280FD100BF28682A68B2F850200E
:1056C00010442278022303EBC20200F5806303EB4F
:1056D00042010E8000BF00BFB3B222896169286811
:1056E0000AF099F83BE12868B0F85010207801EBF7
:1056F000C000801D296801F5806131F81000C0F3F9
:105700000907A069B84203D3A069C01BA06101E0EA
:105710000020A061A06900287DD100BF6078C8B9D1
:1057200000BF29682A68B2F8502011442278022369
:1057300003EBC20201F5806303EB420000BF028865
:1057400048F2FF331A400280028842F4004202808D
:1057500000BF13E06078012810D100BF28682A68D4
:10576000B2F8502010442278022303EBC20200F565
:10577000806303EB420100220A8000BF00BF00BF2C
:105780002968607808BB00BF2B68D5F800C0BCF85A
:1057900050C0634494F800C04FF0060909EBCC0CEC
:1057A00003F5806909EB4C0000BFB0F800C048F277
:1057B000FF390CEA090CA0F800C0B0F800C04CF4A6
:1057C000004CA0F800C000BF10E0607801280DD1A7
:1057D0002868B0F8500001442078062303EBC0008D
:1057E00001F5806303EB40020020108000BF2178A8
:1057F0002846FFF7FCFC08F48040002816D100BFC3
:1058000000BF22785200296831F8121048F68F72D2
:1058100001EA020000E00AE040F4004141F4814165
:1058200023785B002A6822F8131000BF97E008F481
:105830008040A8B900BF00BF22785200296831F823
:10584000121048F68F7201EA020040F4004141F460
:10585000814123785B002A6822F8131000BF00BF43
:1058600094F8240001287AD1606938446061E069C5
:105870003844E0612169206A884204D32669206A9D
:10588000801B20620BE0206A20B93E46002084F88D
:10589000240004E0266A0020206284F8240000BF6F
:1058A0002A68607890BB00BFD5F800C02968B1F8BD
:1058B00050108C4421784FF0060909EBC1010CF51A
:1058C000806909EB4101084600BF76B9B0F8009045
:1058D00048F2FF3A09EA0A09A0F80090B0F80090EF
:1058E00049F40049A0F8009020E03E2E0FD800BFF8
:1058F000710806F00109B9F1000F00D0491C4FF6FC
:10590000FF7909EA8129A0F800900FE010E000BFBC
:10591000710906F01F09B9F1000F00D1491E4FF4BB
:10592000004949EA8129A0F8009000BF00BF0FE0BC
:10593000607801280CD12868B0F850000244207823
:10594000062101EBC00002F5806101EB40031E80DF
:1059500000BFB3B262896169286809F05CFF00BFCB
:1059600022785200296831F8121048F6BF7201EA15
:10597000020080F0100080F0200040F4004141F06F
:10598000800123785B002A6822F8131000BF0020F2
:10599000BDE8F087024601F0070000EB800302F546
:1059A000B47000EBC300C06970472DE9F0470546AD
:1059B0000E4690461F464FF0000906F080008028F2
:1059C0000AD106F0070000EB800105F1280000EB8A
:1059D000C1040120607009E006F0070000EB8001BF
:1059E00005F5B47000EBC1040020607006F00700FC
:1059F0002070C4F81080E770607808B12078E081EA
:105A0000022F01D10020207100BF95F8A8020128C3
:105A100002D10220BDE8F087012085F8A80200BF6E
:105A20002146286808F0CCFC00BF002085F8A802B9
:105A300000BF4846EEE72DE9F04105460E46174601
:105A4000984606F0070000EB800105F5B47000EB06
:105A5000C1046761C4F818800020E061607006F03E
:105A60000700207006F0070020B92146286809F0D9
:105A7000C8F803E02146286809F0C3F80020BDE813
:105A8000F08170B504460D4605F007006168884254
:105A900001D9012070BD05F0800080280AD105F0F1
:105AA000070000EB800104F1280000EBC106012093
:105AB000707007E005EB850104F5B47000EBC106DA
:105AC000002070700120B07005F00700307000BF3A
:105AD00094F8A802012801D10220DBE7012084F814
