:020000040800F2
:10000000702500204501000807C40008319700084A
:10001000E9C300080D120008651201080000000085
:10002000000000000000000000000000DDCC00081F
:10003000A53C00080000000049C8000889D000085D
:100040005F0100085F0100085F01000891C9000816
:100050005F0100085F0100085F0100085F01000800
:100060005F0100085F0100085F0100085F010008F0
:100070005F0100085F0100085F0100085F010008E0
:100080005F0100085F0100085F0100085F010008D0
:10009000AD1101085F0100085F0100085F01000861
:1000A0005F0100085F0100085F0100085F010008B0
:1000B00021D100085F0100085F0100085F0100080E
:1000C0005F0100085F0100085F0100085F01000890
:1000D0005F0100085F0100085F0100085F01000880
:1000E0005F0100085F0100085F0100085F01000870
:1000F0005F0100085F0100085F0100085F01000860
:100100005F0100085F0100085F0100085F0100084F
:100110005F0100085F0100085F0100085F0100083F
:100120005F0100085F0100085F0100085F0100082F
:10013000DFF80CD000F020FD004800476D380108C2
:10014000702500200648804706480047FEE7FEE786
:10015000FEE7FEE7FEE7FEE7FEE7FEE7FEE7FEE777
:100160001FD10008310100082DE9F05F054600208D
:1001700092469B4688460646814640241BE0284618
:1001800041464746224600F020F853465A46C01AD8
:10019000914110D311461846224600F081FB2D1ADA
:1001A00067EB01084F4622460120002100F078FB52
:1001B00017EB00094E41201EA4F10104DFDC484684
:1001C00031462A464346BDE8F09F202A04DB203A08
:1001D00021FA02F00021704721FA02F3D040C2F167
:1001E0002002914008431946704740EA01039B07EB
:1001F00003D009E008C9121F08C0042AFAD203E09C
:1002000011F8013B00F8013B521EF9D27047D2B2FF
:1002100001E000F8012B491EFBD270470022F6E7EF
:1002200010B513460A4604461946FFF7F0FF20466C
:1002300010BD421E12F8013F002BFBD111F8013B0B
:1002400002F8013B002BF9D17047421C10F8011B4A
:100250000029FBD1801A704710B5002200E0521C23
:10026000835C8C5CA34201D1002BF8D1D8B2E1B2FF
:10027000401A10BD034611F8012B00F8012B002A8B
:10028000F9D11846704770B5064611F00BFD0468A9
:1002900005460A220021304600F072FB2C6070BD3A
:1002A000F0B480EA0102D40F4200B2EB410F02D257
:1002B0000246084611464A0042D0C30DDDB2C1F3E2
:1002C000C752AD1A202D35DAC1F3160141F40002F0
:1002D00004B15242C5F1200602FA06F12A41104447
:1002E000B3EBD05F23D0C4B1012DA0EBC35009DC28
:1002F000F0BC4FF0004202EAC352DBB200F500004E
:1003000000F07FBB400000F1807000EBC350A0F113
:10031000807040EAD170490009E0490841EAC071A3
:10032000A0EBC35000F50000400800EBC350F0BC48
:1003300000F05EBB6142012202EB4101001BF6E7C7
:10034000F0BC704781F00041AAE780F00040A7E7C9
:1003500080EA010210B502F00043400022D04A00BA
:100360001FD0010E01EB1261C0F35600C2F356021A
:1003700040F4000042F40002A0FB022000047F3998
:10038000140400D0401C50EA124001D44000491E21
:10039000C2B20C0604EBD010401C4008802A02D0E8
:1003A00003E0002010BD20F00100002900DA002049
:1003B000184310BD30B480EA010202F0004530F06D
:1003C000004221F0004013D090B1C30DD40DC2F310
:1003D0001601C0F31600E41A41F4000140F40002D3
:1003E0007D34914201D3641C00E04900002C02DA04
:1003F00030BC002070474FF400000023914201D32D
:10040000891A034340084FEA4101F7D151B19142A3
:1004100002D14FF0004105E002D24FF0010101E0AE
:100420006FF0010103EBC450284430BC00F0E0BA87
:100430002DE9FE4F804681EA0300C00F0C46009074
:1004400021F0004123F00045B8EB0200A94105D29C
:100450004046214690461C460B46024623F000408B
:10046000104347D0270DC7F30A00C3F30A51029087
:10047000401A019040286BDAC3F3130040F4801B4C
:100480000098924620B10023D2EB030A63EB0B0BDA
:1004900001985946C0F14002504600F001FA064664
:1004A0000D4650465946019A00F009FA10EB080033
:1004B0006141002487EA115284EAE7731A4340D06D
:1004C000009A62B3019A012A4FEA075215DC001B19
:1004D00061EB02014FF0004202EA0752CDE900420F
:1004E000001C41F5801132462B4600F0C7FA03B0DC
:1004F000BDE8F08F40462146F9E7001B61EB0201A1
:10050000001C41F5801300185B412018A2F500176C
:1005100047EB030140EAD570B6196D4111E06D0853
:100520004FEA360645EAC0754FEA0752001B61EBF9
:100530000201001C41F5801149084FEA3000001902
:10054000514132462B4603B0BDE8F04F00F087BA68
:100550000098012240000023D0EB020263EBE0731D
:10056000009821464FEAE074B8EB000061EB04010B
:10057000E9E783F000435BE781F0004158E72DE9AC
:10058000FE4F81EA030404F0004421F0004100948E
:100590004FF0000B23F0004350EA01045ED052EA12
:1005A00003045BD0C3F30A54C1F30A552C44A4F2EC
:1005B000F3340194A0FB0254C1F3130141F4801100
:1005C000C3F3130343F4801301FB024400FB034E07
:1005D000840A970A44EA815447EA8357A4FB0768D0
:1005E00002958D0A05FB07854FEA932C04FB0C54FA
:1005F0002705029D4FEA065847EA1637B5EB08056E
:100600006EEB070C870E920E47EA811742EA8312BF
:10061000A7FB0201B6EB0B0164EB00042B0D43EAD0
:100620000C335E1844EB1C50DA465146E7FB0201DE
:10063000C5F313044FEA0B3343EA14534FEA043271
:10064000019C43EA0603A4F10C040294009CCDE94A
:1006500000B400F013FA03B0BDE8F08F00200146AB
:10066000F9E72DE9F04D81EA030404F0004B21F095
:10067000004514464FF0000A23F0004150EA0502FD
:1006800020D054EA01021DD0C5F30A570246C5F333
:100690001303C1F31300C1F30A5640F4801543F469
:1006A0008013A7EB0608101BD64608F2FD3873EB43
:1006B000050002D308F1010801E092185B41B8F18E
:1006C000000F03DA00200146BDE8F08D00204FF452
:1006D0008011064684460EE0171B73EB050705D311
:1006E000121B63EB050306434CEA010C49084FEA71
:1006F000300092185B4150EA0107EDD152EA030045
:1007000012D082EA040083EA0501084305D0101BD9
:10071000AB4106D20122002306E000224FF0004345
:1007200002E06FF0010253101AEB06004CEB085187
:1007300010EB0A0041EB0B01BDE8F04D00F08FB962
:10074000C10F80EAE0700844CA079623002100F038
:1007500058B996230022114600F053B90EB5C10FC7
:1007600080EAE0700844CA07002140F233438DE874
:100770000E000A460B4600F081F903B000BD00F000
:10078000004220F00040C10DC0F3160040F400000C
:100790007F2901DA00207047962903DCC1F1960118
:1007A000C84001E096398840002AF4D040427047A2
:1007B00020F00040C10DC0F3160040F400007F2976
:1007C00001DA00207047962903DCC1F19601C84088
:1007D000704796398840704770B5C1F30A5201F0EE
:1007E00000450024C1F3130140F2FF3341F48011AE
:1007F0009A4201DA002070BD40F233439A42A2F2DD
:10080000334203DC5242FFF7E0FC00E090402C430F
:10081000F1D0404270BD00F0004230F000400AD0FC
:10082000C10D01F56071C0F3160042EA0151C20822
:1008300040071143704700200146704701F0004314
:1008400030B421F0004150EA010206D00A0DA2F5B1
:100850006072C1F31301002A02DC30BC0020704733
:10086000440F44EAC104C100E01830BC00EBC250A0
:1008700000F0BEB830B50B4601460020202201240E
:1008800009E021FA02F59D4205D303FA02F5491B5E
:1008900004FA02F52844151EA2F10102F1DC30BD74
:1008A000202A04DB203A00FA02F100207047914030
:1008B000C2F1200320FA03F3194390407047202A25
:1008C00006DBCB17203A41FA02F043EAE07306E078
:1008D00041FA02F3D040C2F1200291400843194688
:1008E000704700000FB4002300B589B00CA9009137
:1008F0000B996FF00042CB601E4B06931E4B079383
:100900000423CDE901321D4A089202466B460020BD
:1009100000F0E6F909B05DF814FB70B586B0064644
:100920004FF0FF300091CDE90101002015460C4643
:1009300004903246694604A8FFF7D4FF02460498A3
:10094000211825B108B1084600E020462860049827
:1009500000280DD0002A02DD0098884208D0081B2C
:100960000094CDE901043246694604A8FFF7BAFFB6
:1009700006B070BD190F0008370F0008A50B00085E
:100980002DE9F04791460F4680460446002614F8AC
:10099000015B2DB100F002F90068405DC007F6D19F
:1009A0002B2D02D02D2D18D0641E4A4639462046E4
:1009B00000F0D2FA27B13968A14201D1C7F800800E
:1009C00071054FF002040BD54042002803DD11F001
:1009D00069F90460A007BDE8F08746F48066E4E7A3
:1009E0000028F8DA11F05EF904606FF00040F2E7D9
:1009F0000029A8BF7047401C490008BF20F0010033
:100A0000704710B4B0FA80FC00FA0CF050EA010410
:100A100004BF10BC704749B1CCF1200421FA04F4A2
:100A200011FA0CF118BF012121430843A3EB0C017B
:100A3000CB1D4FEA00614FEA102042BF002010BCDE
:100A4000704700EBC35010440029A4BF10BC70478E
:100A5000401C490008BF20F0010010BC704710B5D1
:100A6000141E73F1000408DA401C41F100019218D1
:100A70005B411A4301D120F0010010BD2DE9F04D7A
:100A800092469B4611B1B1FA81F202E0B0FA80F2CF
:100A900020329046FFF704FF04460F4640EA0A0062
:100AA00041EA0B0153465A46084313D0114653EA14
:100AB000010019D0C8F140025046FFF786FB0546F9
:100AC0000E46504659464246FFF7EAFE084305D017
:100AD000012004E020463946BDE8F08D00200543A2
:100AE00046EAE0762C4337430A986305E40AA0EB14
:100AF00008000022FD0A44EA47540A3002D50020CB
:100B00000146E9E7010510196941DDE908450019C9
:100B10006941BDE8F04DA2E7C1F30A52C1F31301E8
:100B200040F2FF3341F480119A4202DA002001467C
:100B3000704740F233439A42A2F2334202DC5242FF
:100B4000FFF743BBFFF7ACBE30B5041E71F10004E4
:100B500004DB4FF00044404264EB0101141E73F1CA
:100B6000000405DB1C464FF00043524263EB0403D4
:100B7000994208BF904230BD064C074D06E0E06840
:100B800040F0010394E8070098471034AC42F6D3D4
:100B9000FFF7D2FAEC6602080C67020800487047BB
:100BA000E866020810B50446FFF7F8FF0068005D2C
:100BB00000F0010010BD00002DE9FF4F087883B060
:100BC0009946FF2805D0491C2D2804D00024002078
:100BD00008E000200BE00124F9E700EB800003EBC4
:100BE0004000491C0B78FF2BF7D104B14042002391
:100BF0000293147819461D462D2C01D02B2C04D1BC
:100C0000521C2D2C13D000240294AA461478FF2CD9
:100C10000FD00A25A3FB057801FB05814FF0000CDE
:100C200003FB0C11521CE3194AEB0101EEE701240E
:100C3000EAE7814453EA010002D019F5C87F06DAD9
:100C400003980021C0E9001107B0BDE8F08F00252E
:100C5000AE4E2F46DFF8B882184600F0DAF9CDE93B
:100C60000001B9F1000002DAC9F1000400E0044615
:100C70000023A74A1AEB030B42EB045A12E0E007E9
:100C800007D02A46334638464146FFF778FC0746E8
:100C900088462A46334610461946FFF770FC05463B
:100CA0000E466410002CEAD1DDE90001B9F1000F15
:100CB0005A46534606DAFFF7D4FC3A464346FFF756
:100CC000D0FC05E0FFF75BFC3A464346FFF757FCD4
:100CD000029A0AB181F00041039AC2E90001B3E728
:100CE0002DE9FF4F1F468DB0D7E901464FF0FF3881
:100CF0002E2045464FF000090B90B9696D1C0E98E7
:100D00008847396A824688470028F6D1BAF1FF3F02
:100D10000AD024F4D064002E11DDBAF12B0F08D0D4
:100D2000BAF12D0F0BD102E0404611B08DE744F42B
:100D30008064B9696D1C0E9888478246761E6946A4
:100D4000600501D52D2000E02B208DF8000001F179
:100D5000010B0DF1200809E0B9696D1C0E98884758
:100D600082460F9844F40074761E0560002E02DD62
:100D7000BAF1300FF0D00B998A453ED144F080048F
:100D800006E00F99681CA9F1010944F40074086099
:100D9000B9696D1C761E0E98884782463028F0D0BF
:100DA0002BE00B998A4505D1200603D444F080043A
:100DB000761E18E0504611F04DF908B30DF11301FD
:100DC000761E44F400748B4508D2AAF130000BF86B
:100DD000010B200607D5A9F1010003E0200602D48B
:100DE00009F101008146A00502D50F99681C086031
:100DF000B9696D1C0E9888478246002ED1DC53E0FD
:100E0000002E51DDBAF1650F02D0BAF1450F4BD17A
:100E1000A00549D5B9696D1C24F44074761E0E985E
:100E200088478246002E0CDD2B2804D0BAF12D0F06
:100E300007D144F48074B9696D1C0E9888478246C6
:100E4000761EE00501D52D2100E02B2108F8011BBD
:100E5000CDF82C8021E00DF12901761E44F40074B8
:100E600088450CD2AAF1300010F0FF0088F800008D
:100E700002D10B99884509D908F1010806E0E0057F
:100E800001D5244801E042F20F708146B9696D1C1A
:100E90000E98884782460F980560002E04DD504664
:100EA00011F0D8F80028D6D1F9690E988847FF20AC
:100EB0008BF8000088F800000020069007904B4651
:100EC0006A4608A906A8FFF777FEA00502D46FF0CE
:100ED00001002AE714F0240F0AD0E00714D1DDE95D
:100EE00006123868031D3B600068C0E900120BE081
:100EF000DDE90601FFF7A2FC0146E00704D13868EE
:100F0000021D3A600068016028460EE700001440A8
:100F10000000F03FF1D8FFFF426842B1016811F8CC
:100F2000013B23B1521EC0E900121846704701214F
:100F3000C160881E704742685AB1C368016843B9EE
:100F400083688B4205D0491E521CC0E90012002064
:100F500070474FF0FF3070472DE9F05F8246007810
:100F6000002715468B460AF10104B946302801D006
:100F70009DB113E014F8010B0127782803D05828FD
:100F800001D045B10AE00DB1102D07D10027102581
:100F900014F8010B02E0082500E00A250026B046FF
:100FA0000EE005FB080005FB06F1012701EB1046EA
:100FB0001FFA80F8B6F5803F00D3B94614F8010B4C
:100FC000294600F018F80028EBDABBF1000F05D035
:100FD0000FB1641E00E05446CBF80040B9F1000F99
:100FE00006D010F05FFE02210160C81EBDE8F09F30
:100FF00048EA0640FAE73A2800D2303820F02002CA
:10100000412A01D3A2F13700884201D34FF0FF30CB
:1010100070470EB540F2334202920022CDE9002221
:101020001346FFF72BFD03B000BD70B58C1810F808
:10103000015B15F0070301D110F8013B2A1106D11D
:1010400010F8012B03E010F8016B01F8016B5B1E37
:10105000F9D12B0705D40023521E0DD401F8013B12
:10106000FAE710F8013BCB1A921C03E013F8015B7E
:1010700001F8015B521EF9D5A142D8D3002070BD02
:1010800070B5044600252068806800F0010018B3A0
:101090002068806820F001002168886005F0F0FE7B
:1010A000054613E005F0ECFE401B02280ED920682F
:1010B000806800F0010048B1A06A40F01000A06212
:1010C000E06A40F00100E062012070BD20688068A5
:1010D00000F001000028E5D10020F6E738B504460D
:1010E0000025002000902068806800F0010078BB97
:1010F0002068806840F00100216888601948006815
:101100001949B0FBF1F0009002E00098401E0090F9
:1011100000980028F9D105F0B3FE054619E005F066
:10112000AFFE401B022814D92068806800F001003F
:1011300078B9A06A40F01000A062E06A40F00100B7
:10114000E06200BF002084F8240000BF012038BD09
:1011500005E02068806800F001000028DFD0002052
:10116000F5E700003401002040420F0010B50022D6
:101170004FF48051014805F07DFE10BD000C014088
:1011800010B501221103024805F074FE10BD0000E5
:10119000000C014010B50122D102064805F06AFE9C
:1011A0000A2012F073F900224FF40061014805F0A3
:1011B00061FE10BD000C01401248407D05281DD283
:1011C000DFE800F003080D12170032200E4909680D
:1011D000486314E03C200C49096848630FE046204E
:1011E0000949096848630AE05020074909684863CB
:1011F00005E0632004490968486300E000BF00BFC0
:101200007047000064050020D404002000BFFEE702
:1012100010B501220421024805F02CFE10BD00008B
:101220000010014010B500220421024805F022FE02
:1012300010BD00000010014010B50122022102483B
:1012400005F018FE10BD00000010014010B500228E
:101250000221024805F00EFE10BD00000010014002
:1012600010B50446392012F017FFE0B212F025FF46
:10127000C4F3072012F021FFC4F3074012F01DFF52
:10128000200E12F01AFF12F0F9FE10F0C9FC10BD8A
:101290002DE9F04107460E4614463C2012F0FCFEB4
:1012A000F0B212F00AFF301212F007FF12F0E6FE61
:1012B0000CB10020208016E010F0B2FC05461E2D77
:1012C0000ED1384600F06CF905463D2012F0E4FEE0
:1012D00012F0D4FE2F4434B120882844208002E04C
:1012E0002846BDE8F081E7E710B50BF0AFFA08B18A
:1012F00000F082F8302000F0E4F810BD10B5312085
:1013000000F0DFF810BD10B504462146362000F08D
:10131000CAF810BD10B5044614B1204600F0F2F82A
:10132000342000F0CEF810BD70B50646304600F00F
:10133000D2F8054685B12946304600F024F8044627
:10134000412C09D0142C01D1432070BD422C01D175
:10135000B320FAE72046F8E77019FFF7DBFFF4E760
:1013600010B50446204600F0CDF820785C2802D065
:1013700020782F2803D10021642000F028F93220A2
:1013800000F09FF810BD2DE9F04105460F460026FC
:10139000012429E001E0601CC4B2285D5C2805D06E
:1013A000285D2F2802D0285D0028F4D1285D10B1D7
:1013B000601CC4B200E00024A819FFF7D1FF064664
:1013C00084B1BC420ED0412E0AD0142E02D143204B
:1013D000BDE8F081422E01D1B320F9E73046F7E7AE
:1013E000264601E03046F3E7D4E710B50446FF2176
:1013F0002046FFF7C8FF10BD10B5222012F04CFEAA
:10140000322012F061F812F03DFE044612F036FE72
:10141000204610BD2DE9F04112F034FE044612F0D2
:1014200031FE054612F02EFE064612F02BFE074650
:1014300012F024FE44EA052040EA064040EA076034
:10144000BDE8F08170B50446272012F025FE12F0A9
:1014500019FE0646054646B100BF12F013FE207085
:10146000641C701EC0B2061EF7D112F007FE28469B
:1014700070BD10B504460C2012F00EFE204612F08E
:101480001CFEFFF7C7FF10BD70B504460A2012F01E
:1014900003FE204612F011FE12F0F4FD054612F094
:1014A000EDFD284670BD70B505460C46284612F085
:1014B000F3FD204612F001FE12F0E0FD10F0B0FB4B
:1014C00070BD10B50446204612F0E6FD12F0D6FDC0
:1014D00010F0A6FB10BD0246114600E0491C08783A
:1014E0000028FBD100E0491E08785C2804D0087869
:1014F0002F2801D09142F6D1914200D0491C881A80
:10150000C0B270472DE9F0410646012012F0C4FD3B
:1015100012F0B8FD43282BDA2B20FFF7B5FF102877
:1015200026DA2F2012F0B8FD002012F0C6FD32207E
:10153000FFF7C7FF0446142C1AD1CF20FFF7A4FFF2
:101540000446ACB14C20FFF794FF00EB042739466A
:101550004C2000F03CF85020FFF78BFF00EB0427F5
:101560003946502000F033F80021702000F02FF8A9
:101570002F2012F091FD3578284612F09EFD09E0EB
:10158000761C35785C2D01D02F2D00D10025284602
:1015900012F093FD002DF3D112F070FDBDE8F08143
:1015A00070B504462D2012F077FD12F06BFD064653
:1015B000054646B100BF207812F07FFD641C701E06
:1015C000C0B2061EF7D112F059FD284670BD70B5A5
:1015D00005460C460D2012F05FFD284612F06DFD09
:1015E000E0B212F06AFDC4F3072012F066FDC4F306
:1015F000074012F062FD200E12F05FFD12F03EFD7A
:1016000070BD000010B500221021024805F032FC28
:1016100010BD00000008014010B501221021024851
:1016200005F028FC10BD00000008014010B50122A3
:101630008021024805F01EFC10BD0000000C014096
:1016400010B500228021024805F014FC10BD0000F6
:10165000000C014010B501224021024805F00AFCAF
:1016600010BD00000014014010B5002240210248C6
:1016700005F000FC10BD00000014014010B501226F
:101680005103024805F0F6FB10BD000000140140B4
:1016900010B500224FF40051014805F0EBFB10BDDE
:1016A0000014014010B501221103024805F0E2FBCD
:1016B00010BD00000014014010B500224FF480510D
:1016C000014805F0D7FB10BD0014014010B5012200
:1016D0001146024805F0CEFB10BD0000000C014091
:1016E00010B500220121024805F0C4FB10BD000026
:1016F000000C014010B501222021024805F0BAFB80
:1017000010BD00000010014010B500222021024849
:1017100005F0B0FB10BD000000100140F0B504461C
:101720000D46FF22FF21002319E0E05C4140002725
:1017300011E001F0010602F0010C52104910BCF159
:10174000000F01D041F080011EB182F0A00281F0B3
:101750000101781CC7B2082FEBDB581CC3B2AB42A7
:10176000E3DB41EA0220F0BD002070470020704713
:101770002DE9F04106460F4601210C480DF09DFD74
:101780000B4908700948D0F8B852002403E0285DDE
:1017900008490855641C064800788442F7DB01209C
:1017A000054908700020BDE8F0810000E418002021
:1017B00024020020E81B00202502002033B50C463F
:1017C00000252DE09DF801109DF8030004F022FD96
:1017D00005469DF802002044A8421AD99DF802004F
:1017E000281A241A9DF80100401CC0B28DF801008F
:1017F00000208DF802009DF801000D2810D1012075
:101800008DF801009DF80300401CC0B28DF8030064
:1018100006E09DF802002044C0B28DF8020000E00E
:10182000D0E700BF0720B4FBF0F100FB11400949ED
:1018300009780844C0B28DF800009DF80000072820
:1018400005DB9DF80000C01FC0B28DF800000098B5
:101850003CBD00000801002038B517480078012879
:1018600029DD6FF07F400BF013F8044600200BF0E9
:101870000FF80546104800940078801E692202EB9C
:10188000C00081B22B4691220CA00AF0DBFA0A4874
:101890000078401E08490870002107480078401E63
:1018A000074A11540448007806490978884202D151
:1018B00000200449087038BD5201002020000000BB
:1018C000EC0600205301002038B5044600200AF041
:1018D000DFFF054614231A01022100904FF49B708C
:1018E0000AF0BCF84FF46E400AF0D2FF054605231B
:1018F00040F23D1202210090101F0AF0AFF84FF4A1
:101900006E400AF0C5FF054614231A010521009018
:101910004FF49B700AF00AFA4FF46E400AF0B8FFD9
:101920000546132340F23F120621009040F2371083
:101930000AF094F8192C0DDA00200AF0A9FF0546E8
:101940000F2340F23F120621009040F237100AF0B8
:1019500085F824E0192C0FDB322C0DDA00200AF078
:1019600097FF05460C2340F23F120621009040F2FB
:1019700037100AF073F812E0322C0FDB4B2C0DDA23
:1019800000200AF085FF0546092340F23F12062198
:10199000009040F237100AF061F800E000BF38BD57
:1019A00038B50020254908700AF072FF04460AF095
:1019B0003DF8042001F010FF00200AF069FF044602
:1019C0006FF07F400AF064FF05462B461E22C821B7
:1019D0001B4800940AF036FA00200AF059FF04462A
:1019E0006FF07F400AF054FF05462B461E22FA2175
:1019F0001348801D00940AF025FA00200AF048FFE1
:101A0000044610480AF044FF05462B461E22C82112
:101A10000B480C3000940AF015FA00200AF038FF49
:101A2000044608480AF034FF05462B463422C821F4
:101A30000348123000940AF005FA38BD4501002031
:101A40004848010832F0F000F8B5044600200AF0DA
:101A50001FFF05464FF47F000AF01AFF0646601E7E
:101A600000EB400101EBC0001E2101EB400082B2FF
:101A700033468C21024800950AF0E4F9F8BD0000D5
:101A80006946010838B500200AF002FF0446142315
:101A90001A01022100904FF49B7009F0DFFF4FF410
:101AA0006E400AF0F5FE044623460522022140F26C
:101AB00039100AF08DF94FF46E400AF0E9FE044641
:101AC00023460522022140F23D100AF081F94FF42D
:101AD0006E400AF0DDFE044623460B2207214FF438
:101AE0009B700AF09BF84FF46E400AF0D1FE04465A
:101AF0000F234FF49F7208210090901F09F0AEFF52
:101B00004FF46E400AF0C4FE04462346052210211D
:101B100040F239100AF082F84FF46E400AF0B8FE35
:101B200004462346032211214FF49D700AF076F8F3
:101B30004FF46E400AF0ACFE044623460422112105
:101B400040F23B100AF044F938BD00002DE9FC4199
:101B5000484890F84000002845D1002440E0621C2D
:101B600045A101A810F06EF8204604EBD071491091
:101B7000A4EB4101C9B100200AF08AFE06464048A4
:101B80000AF086FE074604EBD470401000EB4001DB
:101B900001EB00102A2101EB400082B23B46A82154
:101BA00001A800960AF04EF918E000200AF070FE35
:101BB000064633480AF06CFE074604EBD47040102A
:101BC00000EB400101EB00102A2101EB400082B242
:101BD0003B46082101A800960AF034F9601CC4B203
:101BE000082CBCDB44E0002440E0621C22A101A8D8
:101BF00010F028F8204604EBD0714910A4EB410105
:101C0000C9B100200AF044FE06461D480AF040FE15
:101C1000074604EBD470401000EB400101EB0010CC
:101C20003D2101EB800082B23B46A82101A800962D
:101C30000AF008F918E000200AF02AFE06461048CB
:101C40000AF026FE074604EBD470401000EB40017A
:101C500001EB00103D2101EB800082B23B460821E0
:101C600001A800960AF0EEF8601CC4B2042CBCDB9C
:101C7000BDE8FC8164050020253032643A00000094
:101C800032F0F00038B50C49B1F90000002305220C
:101C9000012107F04FFD00200AF0FAFD04464FF441
:101CA0006E400AF0F5FD05462B46022264210348EA
:101CB00000940AF0C7F838BD9A010020E006002021
:101CC00038B54FF46E400AF0E3FD0446122340F2AB
:101CD0000F1208210090501E09F0C0FE4FF46E4014
:101CE0000AF0D6FD04462346062207214FF48670EB
:101CF00009F094FF4FF46E400AF0CAFD04462346F3
:101D00000422062140F20D1009F088FF4FF46E40C6
:101D10000AF0BEFD04462346022205214FF48770D7
:101D200009F07CFF4FF46E400AF0B2FD04460F2329
:101D30004FF48A7205210090501E09F08FFE4FF477
:101D40006E400AF0A5FD044623460622102140F20B
:101D5000111009F063FF4FF46E400AF099FD04463C
:101D60002346042211214FF4897009F057FF4FF4E4
:101D70006E400AF08DFD044623460222122140F2F5
:101D8000131009F04BFF38BD7CB501208549087060
:101D9000854908706FF07F400AF07AFD0546F02310
:101DA0004FF4A07282210090002009F057FE6FF0DE
:101DB0007F400AF06DFD054600200AF069FD0646E9
:101DC0007A490095097DC1EB0111794A02EB410086
:101DD000334691223C210AF035F800200AF058FDE4
:101DE0000546A323C8228F210090642009F09EFF9E
:101DF00043F2FF300AF04CFD05461A233C228C21A9
:101E00000090FF2001F088FD43F2FF300AF040FD12
:101E100005466FF07F400AF03BFD0646634900959A
:101E2000097DC1EB0111624A02EB4101881D334675
:101E300091224FF48C710AF005F843F2FF300AF05A
:101E400027FD05461A233E22D2210090052001F0ED
:101E500063FD43F2FF300AF01BFD05466FF07F4043
:101E60000AF016FD064651490095097DC1EB0111A6
:101E70004F4A02EB410101F10C003346D7221421F5
:101E800009F0E0FF43F2FF300AF002FD05461A2395
:101E90003E22D2210090E12001F03EFD43F2FF30CE
:101EA0000AF0F6FC05466FF07F400AF0F1FC0646AA
:101EB0003E490095097DC1EB01113D4A02EB41010C
:101EC00001F112003346D722F02109F0BBFF0020B8
:101ED0000AF0DEFC0546CA2340F23912AA2100901E
:101EE000072009F0BBFD00242BE0621C31A101A8F2
:101EF0000FF0A8FE4FF47F000AF0CAFC054604EB81
:101F000004110722009002EB41001F231A46AA2168
:101F100001F002FD4FF47F000AF0BAFC05466FF0B5
:101F20007F400AF0B5FC064604EB0410132202EBD6
:101F300040013346B12201A8009509F083FF601CDF
:101F4000C4B2092CD1DB002428E043F2FF300AF0B0
:101F50009FFC054604EB04115722009002EB410060
:101F60001F231A46CC2101F0D7FC43F2FF300AF0C0
:101F70008FFC05466FF07F400AF08AFC064604EBB2
:101F80000412632303EB42010B4A02EB4400334685
:101F9000D322009509F056FF601CC4B2032CD4DB99
:101FA0007CBD00005101002052010020640500208A
:101FB000224A0108256400005E4A010831B582B05A
:101FC0001A4800780A2830DA1948007818B19DF8C4
:101FD00008002E2829D002A91648FEF72AF96FF02A
:101FE0007F400AF055FC044600200AF051FC0546EB
:101FF0000E4800940078401E692202EBC00081B2B6
:102000002B46912202A809F01DFF0948007838B933
:102010009DF808002E2803D1044800780449087070
:1020200002480078401C014908703EBD5201002062
:1020300053010020EC06002010B500201449087060
:10204000144908701449087014480078012806D013
:10205000022807D0032808D004280CD108E001F09A
:1020600095FA09E000F0B6FC06E000F01DFD03E083
:10207000FFF796FC00E000BF00BF0848007808F0BA
:10208000BBF8074801780548007800F00BF810BD50
:102090005201002051010020530100204601002080
:1020A0004501002003B587B00798012806D0022813
:1020B00005D003287ED004287DD1E7E2B4E3FE48B2
:1020C0000078012817D1FD480AF0E2FB03900020B8
:1020D0000AF0DEFB029003980090F9488078401ED9
:1020E00000EB8000F749084401901E225021029B1A
:1020F00009F0A8FE16E000200AF0CAFB0390EF48A2
:102100000AF0C6FB029003980090ED488078401ECC
:1021100000EB8000EB49084401901E225021029BF5
:1021200009F090FEE448007802281BD1E3480AF049
:10213000AFFB039000200AF0ABFB029003980090E5
:10214000DF48007D00EB8000DF4901EBC000DC4987
:10215000C97A00EBC100019034225021029B09F0A2
:1021600071FE1AE000200AF093FB0390D3480AF0B6
:102170008FFB029003980090D148007D00EB800017
:10218000D14901EBC000CE49C97A00EBC1000190F2
:1021900034225021029B09F055FEC948B0F90D00C8
:1021A000002305220121039007F0C4FAC2480078F9
:1021B000032801E01FE136E310D1C0480AF068FBB4
:1021C000039000200AF064FB0290039800904A22DA
:1021D0005021BE48029B09F035FE0FE000200AF0B6
:1021E00057FB0390B5480AF053FB02900398009008
:1021F0004A225021B548029B09F024FEB048B0F9AC
:102200000F00002305220121039007F093FAAA484A
:102210000078042810D1A9480AF03AFB0390002066
:102220000AF036FB02900398009060225021A748E4
:10223000029B09F007FE0FE000200AF029FB039043
:102240009E480AF025FB02900398009060225021DE
:102250009E48029B09F0F6FD97480078052816D1A4
:1022600096480AF015FB039000200AF011FB02903B
:10227000039800909248807A00EB4000944908440B
:1022800001901E22F021029B09F0DCFD15E00020E8
:102290000AF0FEFA039089480AF0FAFA02900398CD
:1022A00000908748807A00EB4000894908440190FB
:1022B0001E22F021029B09F0C5FD7F480078062808
:1022C0001DD17E480AF0E4FA039000200AF0E0FAFB
:1022D0000290039800907A48007D00EBC00101EB6A
:1022E00000107C4908447649097B01EB81010844D0
:1022F00001903422F021029B09F0A4FD1CE0002093
:102300000AF0C6FA03906D480AF0C2FA02900398E8
:1023100000906B48007D00EBC00101EB00106D499F
:1023200008446749097B01EB81010844019034228C
:10233000F021029B09F086FD5F480078072816D13E
:102340005E480AF0A5FA039000200AF0A1FA029074
:10235000039800905A48407C00EB80005E49084496
:1023600001904A22F021029B09F06CFD15E000204B
:102370000AF08EFA039051480AF08AFA0290039804
:1023800000904F48407C00EB800053490844019086
:102390004A22F021029B09F055FD4948408A024635
:1023A0004EA1039004A80FF04DFC43480078082884
:1023B00010D142480AF06CFA039000200AF068FA43
:1023C0000290039800906022F02104A8029B09F07B
:1023D00039FD0FE000200AF05BFA039037480AF05D
:1023E00057FA0290039800906022F02104A8029B03
:1023F00009F028FD18E230480078012817D12F484D
:102400000AF046FA039000200AF042FA029003987C
:1024100000902B48007D00EB8000324901EB40002A
:10242000019082225021029B09F00CFD16E0002051
:102430000AF02EFA039021480AF02AFA0290039833
:1024400000901F48007D00EB8000264901EB400012
:10245000019082225021029B09F0F4FC164800787A
:10246000022817D115480AF013FA039000200AF049
:102470000FFA0290039800901148407D00EB800015
:10248000194901EB4000019094225021029B09F070
:10249000D9FC31E000200AF0FBF9039007480AF06C
:1024A000F7F90290039800900548407D00EB80000A
:1024B0000D4901EB400019E04501002032F0F00029
:1024C000640500209F460108F4460108E00600204C
:1024D000C746010844470108B24701082530346463
:1024E0000000000060480108924801080190942211
:1024F0005021029B09F0A6FCCE48007803281FD18A
:10250000CD480AF0C5F9039000200AF0C1F9029005
:1025100003980090C948007D00EBC00101EB00105A
:10252000C74901EB4000C549897D01EB810100EB02
:1025300041000190A6225021029B09F083FC1EE07D
:1025400000200AF0A5F90390BB480AF0A1F9029017
:1025500003980090B948007D00EBC00101EB00102A
:10256000B74901EB4000B549897D01EB810100EBE2
:1025700041000190A6225021029B09F063FCAD4866
:10258000007804281FD1AC480AF082F9039000209B
:102590000AF07EF9029003980090A848007D00EBB5
:1025A000C00101EB0010A64901EB4000A349097EE0
:1025B00001EB810100EB41000190B8225021029B08
:1025C00009F040FC1EE000200AF062F903909A48EE
:1025D0000AF05EF90290039800909848007D00EBA5
:1025E000C00101EB0010964901EB40009349097EC0
:1025F00001EB810100EB41000190B8225021029BC8
:1026000009F020FC8B48007807281FD18A480AF07F
:102610003FF9039000200AF03BF9029003980090E4
:102620008648007D00EBC00101EB0010854901EBFD
:1026300040008249497E01EB810100EB410001909D
:10264000A622F021029B09F0FDFB1EE000200AF00B
:102650001FF9039078480AF01BF902900398009044
:102660007648007D00EBC00101EB0010754901EBDD
:1026700040007249497E01EB810100EB410001906D
:10268000A622F021029B09F0DDFBCDE06E48006838
:10269000002305221946039007F04CF800200AF0A9
:1026A000F7F803904FF46E400AF0F2F802900398A6
:1026B00000901E22FA216548029B09F0C3FB624884
:1026C0004068002304221946039007F033F80020E5
:1026D0000AF0DEF803904FF46E400AF0D9F8029049
:1026E000039800903422FA215848029B09F0AAFB73
:1026F00050480078012810D14F480AF0C9F80390DB
:1027000000200AF0C5F80290039800901E22502184
:102710004F48029B09F096FB0FE000200AF0B8F842
:10272000039045480AF0B4F80290039800901E22E6
:1027300050214748029B09F085FB3E48007802285B
:1027400011D13D480AF0A4F8039000200AF0A0F847
:10275000029003980090342250213D480F30029B94
:1027600009F070FB10E000200AF092F80390324864
:102770000AF08EF8029003980090342250213448D9
:102780000F30029B09F05EFB2A480078032811D124
:1027900029480AF07DF8039000200AF079F80290A9
:1027A000039800904A22502129481E30029B09F0CC
:1027B00049FB10E000200AF06BF803901E480AF075
:1027C00067F80290039800904A22502120481E305A
:1027D000029B09F037FB17480078042811D11648EE
:1027E0000AF056F8039000200AF052F8029003987D
:1027F00000906022502116482D30029B09F022FBE8
:1028000010E000200AF044F803900B480AF040F86A
:10281000029003980090602250210D482D30029BB9
:1028200009F010FB00E000BF00BF079807F0E4FCD0
:1028300009B000BD4501002032F0F0006405002021
:10284000C44801088C49010810000020E00600205F
:102850002D460108F8B500200AF01AF8054609F0DF
:10286000E5F89621322001F035FA4FF4487010F067
:102870000DFE00200AF00CF8054609F0D7F82E48A6
:1028800090F8400040BB002423E0002C07DD092C19
:1028900005DA294A9178621ED0B207F0E5F90020E6
:1028A00009F0F6FF05466FF07F4009F0F1FF06469C
:1028B00004EBC40149008A1C204901EB4410334653
:1028C0000221009509F0BEFAC82001F0ECF9601C65
:1028D000C4B20A2CD9DB2DE0002427E0002C09DD4E
:1028E000052C07DA144A9178621E5206100E07F082
:1028F000BBF901E010F0D0FE002009F0C9FF054649
:102900006FF07F4009F0C4FF064604EBC4014900A4
:102910008A1C0B4901EB441033460221009509F053
:1029200091FAC82001F0BFF9601CC4B2062CD5DBB7
:1029300010F0B2FEF8BD0000640500207D4A0108D9
:10294000BD4B010838B54DF6DC4009F0A1FF044647
:1029500012234FF4947209210090901F09F07EF821
:102960004DF6DC4009F094FF044623460622082178
:1029700040F2231009F052F94DF6DC4009F088FFCF
:1029800004462346052207214FF4927009F046F9C8
:10299000002009F07DFF044623460222092140F26F
:1029A000231009F015FA002009F072FF04462346AF
:1029B0000322082140F2251009F00AFA002009F04C
:1029C00067FF044623460322082140F2271009F03E
:1029D000FFF938BDF8B500203049087009F058FFFC
:1029E000054609F023F8022000F0F6FE002451E02D
:1029F000204604EBD0714910A4EB410121B3002023
:102A000009F046FF064647F2CE1009F041FF07469F
:102A100004EBD471491001EB410303EBC1011E2308
:102A200003EB41018AB21E490096097D01EB810149
:102A30001C4B03EB011104EB840301EB43003B4609
:102A4000A82109F0FFF923E0002009F021FF064644
:102A500047F2CE1009F01CFF074604EBD471491071
:102A600001EB410303EBC1011E2303EB41018AB2D9
:102A70000B490096097D01EB81010A4B03EB011123
:102A800004EB840301EB43003B46082109F0DAF92B
:102A9000601CC4B2082CABDBF8BD0000450100206F
:102AA00064050020E9430108F8B500205649087084
:102AB00009F0EEFE054608F0B9FF032000F08CFE99
:102AC000002420E0002009F0E3FE054647F2CE1086
:102AD00009F0DEFE06464D490095097DC1EB011166
:102AE000C1EBC1014A4B03EB4101C4EB0413C8180D
:102AF00004EBC401162303EB41023346082109F01D
:102B0000A1F9601CC4B20A2CDCDB002423E0002005
:102B100009F0BEFE054647F2CE1009F0B9FE0646A2
:102B20003A490095097DC1EB0111C1EBC101384B58
:102B300003EB410304F10A01C1EB01115818A11D77
:102B400001EBC101162303EB41023346A82109F032
:102B500079F9601CC4B2032CD9DB002435E0022CC7
:102B600018DA002009F094FE05466FF07F4009F066
:102B70008FFE064604EBC401162303EB410204EB6F
:102B80008401244B03EB810033469021009509F02A
:102B900059F918E0002009F07BFE05466FF07F40F0
:102BA00009F076FE0646611C01EBC101162303EB1A
:102BB000410204EB8401174B03EB81003346902163
:102BC000009509F03FF9601CC4B2052CC7DB00205A
:102BD00009F05EFE05466FF07F4009F059FE06469B
:102BE00033463A22902109481A30009509F02AF913
:102BF00009480A490A880280897881700848094989
:102C000009680160F8BD000045010020640500204E
:102C100089440108E4470108590100203C010020D3
:102C2000550100203801002038B5002009F030FEA1
:102C300004466FF07F4009F02BFE054606490094DC
:102C40008978491E01EB8101044A88182B4601222C
:102C50005F2109F0F7F838BD640500209F460108A0
:102C600000B587B000200590FE4890F8400000288D
:102C70007ED106902EE20698049000EBD0704110B1
:102C80000498A0EB4100002873D0F749069831F969
:102C9000100047F6FF71884245D10698401CF34961
:102CA000097888421FD16FF07F4009F0F1FD039051
:102CB000002009F0EDFD0290039800900698049022
:102CC00000EBD070401000EB400101EB00102A2116
:102CD00001EB400080B201900246D021E4A0029BAB
:102CE00009F04EF8F2E1002009F0D2FD03906FF0F8
:102CF0007F4009F0CDFD0290039800900698049063
:102D000000EBD070401000EB400101EB00102A21D5
:102D100001EB400080B201900246D021D4A0029B7A
:102D200009F02EF8D2E1D049069831F81020CD48AC
:102D30003030069900EB41000088104401B2CE4AC1
:102D4000069822F810101146069831F91000002359
:102D500005220121049006F0EDFCC749069831F9DF
:102D60001000C049B1F90D1088420BDCC24901E0E6
:102D7000B5E195E0069831F91000BA49B1F90F10A4
:102D8000884247DA012005900698401CB749097827
:102D900088421FD14FF47F0009F07AFD0390002094
:102DA00009F076FD0290039800900698049000EBDD
:102DB000D070401000EB400101EB00102A2101EB24
:102DC000400080B201900246D021AC48029B08F03E
:102DD000D7FF7BE1002009F05BFD03904FF47F00FB
:102DE00009F056FD0290039800900698049000EBBD
:102DF000D070401000EB400101EB00102A2101EBE4
:102E0000400080B201900246D0219C48029B08F00D
:102E1000B7FF5BE10698401C9449097888421FD1AE
:102E20004FF46E4009F034FD0390002009F030FDAE
:102E30000290039800900698049000EBD070401028
:102E400000EB400101EB00112A2000EB410080B2B1
:102E500001900246D0218948029B08F091FF35E19C
:102E6000002009F015FD03904FF46E4009F010FDAD
:102E70000290039800900698049000EBD0704010E8
:102E800000EB400101EB00102A2101EB400080B271
:102E900001900246D0217948029B08F071FF15E1AC
:102EA0007149069831F9100047F6FF71884245D103
:102EB0000698401C6D49097888421FD16FF07F4009
:102EC00009F0E6FC0390002009F0E2FC0290039870
:102ED00000900698049000EBD070411001EB410087
:102EE00000EB01102A2101EB400080B20190024664
:102EF00030215FA0029B08F043FFE7E0002009F0CB
:102F0000C7FC03906FF07F4009F0C2FC0290039869
:102F100000900698049000EBD070411001EB410046
:102F200000EB01102A2101EB400080B20190024623
:102F300030214FA0029B08F023FFC7E04A490698C2
:102F400031F8102047483030069900EB41000088E6
:102F5000104401B2484A069822F81010114606980B
:102F600031F91000002305220121049006F0E2FB54
:102F70004149069831F910003A49B1F90D108842DB
:102F800008DC3D49069831F910003649B1F90F10B7
:102F9000884247DA012005900698401C3349097899
:102FA00088421FD14FF47F0009F072FC039000208B
:102FB00009F06EFC0290039800900698049000EBD4
:102FC000D070411001EB410000EB01102A2101EB10
:102FD000400080B20190024630212848029B08F050
:102FE000CFFE73E0002009F053FC03904FF47F0004
:102FF00009F04EFC0290039800900698049000EBB4
:10300000D070401000EB400101EB00102A2101EBD1
:10301000400080B20190024630211848029B08F01F
:10302000AFFE53E00698401C1049097888422ED123
:103030004FF46E4009F02CFC0390002009F028FCAE
:103040000290039800900698049000EBD070401016
:1030500000EB400101EB00102A2101EB400080B29F
:1030600001900DE0640500200807002045010020C4
:103070002D2D2D2D2D2D0000A6050020E006002071
:1030800002463021F748029B08F07AFE1EE000203D
:1030900009F0FEFB03904FF46E4009F0F9FB02903B
:1030A000039800900698049000EBD070401000EB5D
:1030B000400101EB00102A2101EB400080B2019099
:1030C00002463021E748029B08F05AFE0698401C51
:1030D000C0B2069006980828FFF6CDAD39E2002070
:1030E000069032E20698049000EBD07041100498EC
:1030F000A0EB410000287DD006984000DA4931F964
:10310000100047F6FF71884247D10698401CD74906
:103110000978884220D16FF07F4009F0B9FB039015
:10312000002009F0B5FB02900398009006980490E7
:1031300000EBD070411001EB410000EB01103D218C
:1031400001EB800080B201900246D021AFF2E00096
:10315000029B08F015FEF4E1002009F099FB0390B2
:103160006FF07F4009F094FB02900398009006985E
:10317000049000EBD070401000EB400101EB001018
:103180003D2101EB800080B201900246D021AFF2D8
:103190002010029B08F0F4FDD3E106984000B249EC
:1031A00031F81020B248069900EB41000088104425
:1031B00001B2B04A069822F810101146069831F96B
:1031C0001000002305220121049006F0B3FAA9495A
:1031D000069831F91000A6493039B1F90D1088422E
:1031E0000BDCA449069831F91000A1493039B1F936
:1031F0000F1000E08FE0884247DA01200590069822
:10320000401C9A49097888421FD14FF47F0009F089
:103210003FFB0390002009F03BFB029003980090D5
:103220000698049000EBD070411001EB410000EBD8
:1032300001103D2101EB800080B201900246D021B7
:103240008848029B08F09CFD7BE1002009F020FBF0
:1032500003904FF47F0009F01BFB0290039800904D
:103260000698049000EBD070411001EB410000EB98
:1032700001113D2000EB810080B201900246D02177
:103280007848029B08F07CFD5BE10698401C77497A
:10329000097888421FD14FF46E4009F0F9FA039083
:1032A000002009F0F5FA0290039800900698049027
:1032B00000EBD070411001EB410000EB01103D210B
:1032C00001EB800080B201900246D0216548029B4C
:1032D00008F056FD35E1002009F0DAFA03904FF4CA
:1032E0006E4009F0D5FA0290039800900698049079
:1032F00000EBD070401000EB400101EB00103D21CD
:1033000001EB800080B201900246D0215548029B1B
:1033100008F036FD15E106984000534931F91000D8
:1033200047F6FF71884247D10698401C4F490978FB
:10333000884220D16FF07F4009F0AAFA0390002064
:1033400009F0A6FA0290039800900698049000EB0A
:10335000D070401000EB400101EB00113D2000EB6C
:10336000810080B2019002463021AFF2FC20029B26
:1033700008F006FDE5E0002009F08AFA03906FF0FE
:103380007F4009F085FA0290039800900698049017
:1033900000EBD070411001EB410000EB01103D212A
:1033A00001EB800080B2019002463021AFF2403044
:1033B000029B08F0E5FCC4E0069840002A4931F879
:1033C00010202B48069900EB41000088104401B200
:1033D000284A069822F810101146069831F9100074
:1033E000002305220121049006F0A4F92149069842
:1033F00031F910001E493039B1F90D10884209DC4D
:103400001C49069831F9100019493039B1F90F10EB
:10341000884251DA012005900698401C134909782A
:10342000884229D14FF47F0009F032FA039000203E
:1034300009F02EFA0290039800900698049000EB91
:10344000D070411001EB410000EB01103D2101EB78
:10345000800080B20190024630210248029B08F0B1
:103460008FFC6EE0E00600200807002045010020E8
:1034700094050020A6050020002009F009FA039019
:103480004FF47F0009F004FA029003980090069828
:10349000049000EBD070401000EB400101EB0010F5
:1034A0003D2101EB800080B201900246302133487B
:1034B000029B08F065FC44E00698401C30490978FE
:1034C00088421FD14FF46E4009F0E2F903900020CA
:1034D00009F0DEF90290039800900698049000EB42
:1034E000D070411001EB410000EB01103D2101EBD8
:1034F000800080B20190024630212048029B08F0F3
:103500003FFC1EE0002009F0C3F903904FF46E4029
:1035100009F0BEF90290039800900698049000EB21
:10352000D070411001EB410000EB01103D2101EB97
:10353000800080B20190024630211048029B08F0C2
:103540001FFC0698401CC0B2069006980428FFF69F
:10355000C9AD0598012808D10A48007B28B9012285
:10356000D102094803F086FC05E000224FF4006117
:10357000054803F07FFC07B000BD0000E006002016
:103580004501002064050020000C014070B50020BA
:103590002C49087009F07CF9054608F047FA01202B
:1035A00000F01AF9FFF740FB00F030F9FEF7CEFA11
:1035B00000242EE0244890F84000012817D120462E
:1035C00004EBD0714910A4EB410101BB6FF07F40C7
:1035D00009F05EF90546262204FB02F000F11E0107
:1035E0002B4640F23F12012008F018FB0FE06FF06D
:1035F0007F4009F04DF90546262204FB02F000F158
:103600001E012B4640F23F12012008F007FB601C10
:10361000C4B2052CCEDB002410E06FF07F4009F02F
:1036200037F9054604EB84014901491C88B22B4651
:1036300098221E2108F0CCFB601CC4B2032CECDBEA
:1036400070BD0000450100206405002030B587B042
:1036500051480078012802D003287CD136E04F4938
:103660004F4809F061F94D48807800904B48437805
:1036700002784CA104A80EF0E5FA49488078009041
:1036800047484378C2784BA101A80EF0DBFA00202E
:1036900009F0FEF804464C4809F0FAF805462B46B6
:1036A0000122AA2104A8009408F0CCFB002009F014
:1036B000EFF80446444809F0EBF805462B46C022D3
:1036C000B42101A8009408F0BDFB61E033493448FF
:1036D00009F02AF93D48807800903C484378027808
:1036E00030A104A80EF0AEFA39488078009038482E
:1036F0004378C2782FA101A80EF0A4FA35480078CB
:1037000005280FD1304809F0C3F80446002009F01D
:10371000BFF805462B468222F02101A8009408F04C
:1037200091FB0EE0002009F0B3F80446264809F0AA
:10373000AFF805462B468222F02101A8009408F03C
:1037400081FB24480078062811D11F4809F0A0F811
:103750000446002000E01AE009F09AF805462B46DE
:103760009422F02104A8009408F06CFB0EE00020E5
:1037700009F08EF80446144809F08AF805462B46ED
:103780009422F02104A8009408F05CFB00E000BF44
:1037900000BF07B030BD0000460100203C01002002
:1037A00038010020253032643A253032643A253021
:1037B000326400003230253032642D253032642DE1
:1037C000253032640000000032F0F0005901002082
:1037D0005501002045010020F8B504464FF46E4025
:1037E00009F056F80546002009F052F80646611E19
:1037F000C1EB0111044A8818334601221146009595
:1038000008F020FBF8BD00005343010838B5002044
:1038100009F03EF804466FF07F4009F039F805469C
:103820002B4603227F2115A0009408F00BFB0020FB
:1038300009F02EF804466FF07F4009F029F805469C
:103840002B4603229F210EA0009408F0FBFA0020D3
:1038500009F01EF804466FF07F4009F019F805469C
:1038600008490094897A01EB4101074A88182B46E0
:1038700001228F2108F0E6FA38BD00002800000080
:103880002900000064050020C746010838B521481A
:1038900008F0FEFF044609234FF4807206210090D1
:1038A000FA2008F0DBF8002008F0F2FF04460723B6
:1038B000FC2219460090104608F0D0F8002008F0CD
:1038C000E7FF04460723FE2219460090104608F041
:1038D000C5F8104808F0DCFF0446112340F201123D
:1038E0000A210090F92008F0B9F80A4808F0D0FF42
:1038F0000446234607221221FA2008F08FF90548D2
:1039000008F0C6FF0446234603221321FC2008F0DA
:1039100085F938BD2176EE002DE9F84304460D46C1
:1039200017461E46DDF820806FF07F4008F0B0FF9C
:1039300081467B1E9AB26B1C99B2631C98B24B46AF
:1039400008F06CF96FF07F4008F0A2FF8146731E0B
:103950009AB26B1C99B2631C98B24B4608F038FAC5
:103960006FF07F4008F094FF8146731E9AB26B1C83
:1039700099B2A31C98B24B4608F02AFA002008F02E
:1039800087FF81464B463A462946204608F046F9CD
:10399000002008F07DFF81464B46324629462046EE
:1039A00008F016FA002008F073FF8146E11988B28A
:1039B0004B463246294608F00BFA002008F068FF13
:1039C0008146711C8AB2E119491C88B24B462946CE
:1039D00008F0FEF9002008F05BFF8146781C82B2F7
:1039E000A81981B24B46204608F018F905EB060CE1
:1039F000ACF1010C1FFA8CF304EB070CACF1010CD9
:103A00001FFA8CF205F1020C1FFA8CF104F1030C81
:103A10001FFA8CF0CDF8008008F020F8BDE8F8839C
:103A200070B504466FF07F4008F032FF054607F09E
:103A3000FDFF012C06D0022C1BD0032C32D0042C0D
:103A400060D146E04FF47F0008F022FF05462B4688
:103A50000A221421084608F0E1F84FF47F0008F02C
:103A600017FF05462B460A220F21192008F0B0F94E
:103A700048E04FF47F0008F00BFF05462B460A2272
:103A800014214FF4967008F0C9F84FF47F0008F045
:103A9000FFFE05462B460A220F2140F2311008F0A6
:103AA00097F92FE04FF47F0008F0F2FE05462B4611
:103AB0000A22DC21142008F0B1F84FF47F0008F04E
:103AC000E7FE05462B460A22D721192008F080F987
:103AD00018E04FF47F0008F0DBFE05462B460A2273
:103AE000DC214FF4967008F099F84FF47F0008F04D
:103AF000CFFE05462B460A22D72140F2311008F0AE
:103B000067F900BF00BF70BD10B501221021044845
:103B100003F0B0F900F07CF800F022F810BD0000CE
:103B2000001001401FB510200090012002900020DD
:103B30000190022003906946014802F0F3FF1FBD87
:103B4000001001401FB510200090012001900220BC
:103B500003906946014802F0E5FF1FBD00100140D7
:103B600010B50024FFF7DEFF04E0601CC4B20120A2
:103B70000FF0AAFC10210F4803F074F908B1642C6F
:103B8000F3DB642C01DB012010BD002404E0601C89
:103B9000C4B201200FF098FC1021064803F062F92E
:103BA00008B9F02CF3DBF02C01DB0120ECE700205E
:103BB000EAE700000010014070B50024002520E075
:103BC000FFF7C0FF00221021104803F053F9022034
:103BD0000FF07AFC012210210C4803F04BF9FFF79B
:103BE000A1FF0A200FF070FC64101021074803F0B9
:103BF00039F908B144F080043C200FF065FC681CE2
:103C0000C5B2082DDCDB204670BD0000001001406D
:103C100010B5FFF797FF00221021084803F02AF99A
:103C200040F2EE200FF050FC01221021034803F077
:103C300021F90F200FF048FC10BD000000100140DA
:103C400070B50446FFF77EFF002526E004F001066C
:103C5000641086B100221021114803F00BF90220F4
:103C60000FF032FC012210210D4803F003F93C2033
:103C70000FF02AFC0FE000221021094803F0FAF8A7
:103C800046200FF021FC01221021054803F0F2F834
:103C900002200FF019FC681CC5B2082DD6DB70BDE0
:103CA00000100140704706E042F63D0100E0491E69
:103CB0000029FCD1401E0028F6D1704706E00A21F9
:103CC00001E04A1ED1B20029FBDC401E0028F6D1DB
:103CD0007047000003B587B0FE4808F0D9FD0346E1
:103CE00029220690DDE9070107F098FFF94808F05E
:103CF000CFFD06900898401E80B205900798401EA0
:103D000080B204902C22DDE9051307F087FFF1480B
:103D100008F0BEFD06900898801E80B205900798B6
:103D2000401E80B204902E22DDE9051307F076FFD5
:103D3000E84808F0ADFD06900898C01E80B20590D6
:103D40002E220146DDE9063007F068FFE14808F061
:103D50009FFD06900898001F80B205900798801C70
:103D600080B204902E22DDE9051307F057FFD948F1
:103D700008F08EFD06900898401F80B205900798C5
:103D8000233080B204900E22DDE9051307F046FFD0
:103D9000D04808F07DFD06900898801F80B20590FD
:103DA0000798233080B204900F22DDE9051307F055
:103DB00035FFC84808F06CFD06900898C01F80B217
:103DC00005900798233080B204900F22DDE9051397
:103DD00007F024FFBF4808F05BFD069008980838FC
:103DE00080B205900798243080B204900E22DDE95D
:103DF000051307F013FFB74808F04AFD069008982E
:103E0000093880B205900798243080B204900F22C0
:103E1000DDE9051307F002FFAE4808F039FD069012
:103E200008980A3880B205900798253080B204902F
:103E30000E22DDE9051307F0F1FEA64808F028FD83
:103E4000069008980B3880B205900798253080B20C
:103E500004900E22DDE9051307F0E0FE9D4808F00E
:103E600017FD069008980C3880B205900798253009
:103E700080B204900E22DDE9051307F0CFFE9548CD
:103E800008F006FD069008980D3880B20590079856
:103E9000263080B204900E22DDE9051307F0BEFE45
:103EA0008C4808F0F5FC069008980E3880B2059012
:103EB0000798253080B204900F22DDE9051307F042
:103EC000ADFE844808F0E4FC069008980F3880B2F4
:103ED00005900798263080B204900E22DDE9051384
:103EE00007F09CFE7B4808F0D3FC06900898103839
:103EF00080B205900798263080B204900E22DDE94A
:103F0000051307F08BFE734808F0C2FC0690089872
:103F1000113880B205900798263080B204900F22A5
:103F2000DDE9051307F07AFE6A4808F0B1FC069057
:103F30000898123880B205900798273080B2049014
:103F40000E22DDE9051307F069FE624808F0A0FCC7
:103F500006900898133880B205900798273080B2F1
:103F600004900E22DDE9051307F058FE594808F0C9
:103F70008FFC06900898143880B205900798273077
:103F800080B204900F22DDE9051307F047FE514887
:103F900008F07EFC06900898153880B205900798C6
:103FA000283080B204900E22DDE9051307F036FEBA
:103FB000484808F06DFC06900898163880B20590C5
:103FC0000798283080B204900E22DDE9051307F02F
:103FD00025FE404808F05CFC06900898173880B22F
:103FE00005900798283080B204900E22DDE9051371
:103FF00007F014FE374808F04BFC06900898183874
:1040000080B205900798283080B204900E22DDE936
:10401000051307F003FE2F4808F03AFC06900898B5
:10402000193880B205900798293080B204900D228B
:10403000DDE9051307F0F2FD264808F029FC06909B
:1040400008981A3880B205900798293080B20490F9
:104050000E22DDE9051307F0E1FD1E4808F018FC0B
:10406000069008981B3880B205900798293080B2D6
:1040700004900E22DDE9051307F0D0FD154808F085
:1040800007FC069008981C3880B2059007982A30E3
:1040900080B204900E22DDE9051307F0BFFD0D4844
:1040A00008F0F6FB069008981D3880B20590079836
:1040B0002A3080B204900E22DDE9051307F0AEFD30
:1040C000044808F0E5FB069008981E3880B2059079
:1040D000079801E02176EE002A3080B204900E228B
:1040E000DDE9051307F09AFDFE4808F0D1FB0690C4
:1040F00008981F3880B2059007982A3080B2049043
:104100000F22DDE9051307F089FDF64808F0C0FB32
:1041100006900898203880B2059007982A3080B21F
:1041200004900F22DDE9051307F078FDED4808F053
:10413000AFFB06900898213880B2059007982B3085
:1041400080B204900D22DDE9051307F067FDE54814
:1041500008F09EFB06900898223880B205900798D8
:104160002B3080B204900E22DDE9051307F056FDD6
:10417000DC4808F08DFB06900898233880B2059043
:1041800007982C3080B204900D22DDE9051307F06A
:1041900045FDD44808F07CFB06900898243880B28E
:1041A000059007982C3080B204900E22DDE90513AB
:1041B00007F034FDCB4808F06BFB069008982538D3
:1041C00080B2059007982C3080B204900E22DDE971
:1041D000051307F023FDC34808F05AFB0690089822
:1041E000263880B2059007982C3080B204900F22B8
:1041F000DDE9051307F012FDBA4808F049FB069007
:104200000898273880B2059007982C3080B2049027
:104210000F22DDE9051307F001FDB24808F038FB75
:1042200006900898283880B2059007982D3080B203
:1042300004900E22DDE9051307F0F0FCA94808F010
:1042400027FB06900898293880B2059007982D30F2
:1042500080B204900E22DDE9051307F0DFFCA148CF
:1042600008F016FB069008982A3880B20590079847
:104270002D3080B204900F22DDE9051307F0CEFC4B
:10428000984808F005FB069008982B3880B20590F6
:1042900007982D3080B204900F22DDE9051307F056
:1042A000BDFC904808F0F4FA069008982C3880B2CB
:1042B000059007982E3080B204900E22DDE9051398
:1042C00007F0ACFC874808F0E3FA069008982D3810
:1042D00080B2059007982E3080B204900E22DDE95E
:1042E000051307F09BFC7F4808F0D2FA0690089867
:1042F0002E3880B2059007982E3080B204900F229D
:10430000DDE9051307F08AFC764808F0C1FA06904B
:1043100008982F3880B2059007982F3080B204900B
:104320000E22DDE9051307F079FC6E4808F0B0FABB
:1043300006900898303880B2059007982F3080B2E8
:1043400004900E22DDE9051307F068FC654808F0CB
:104350009FFA06900898313880B2059007982F3060
:1043600080B204900F22DDE9051307F057FC5D4889
:1043700008F08EFA06900898323880B205900798B7
:104380002F3080B204900F22DDE9051307F046FCC0
:10439000544808F07DFA06900898333880B20590AA
:1043A0000798303080B204900E22DDE9051307F043
:1043B00035FC4C4808F06CFA06900898343880B206
:1043C00005900798303080B204900E22DDE9051385
:1043D00007F024FC434808F05BFA0690089835384B
:1043E00080B205900798303080B204900E22DDE94B
:1043F000051307F013FC3B4808F04AFA06900898AA
:10440000363880B205900798313080B204900D2282
:10441000DDE9051307F002FC324808F039FA06908E
:104420000898373880B205900798313080B20490F0
:104430000E22DDE9051307F0F1FB2A4808F028FAFF
:10444000069000900898333880B205900798543051
:1044500080B204900898363880B2039007984830AC
:1044600080B2029003A90EC907F0F8FA1D4808F0BF
:104470000FFA06900898343880B2059007984730B4
:1044800080B204900D22DDE9051307F0C7FB154843
:1044900008F0FEF90690009008982F3880B2059039
:1044A0000798533080B204900898333880B2039054
:1044B0000798473080B2029003A90EC907F0CEFAE0
:1044C000084808F0E5F90690009008982C3880B26A
:1044D00005900798523080B2049008982F3880B227
:1044E000039001E02176EE000798463080B20290FA
:1044F00003A90EC907F0B2FAFE4808F0C9F9069000
:104500000898283880B205900798443080B204900B
:104510000E22DDE9051307F081FBF64808F0B8F933
:1045200006900898273880B205900798453080B2E9
:1045300004900D22DDE9051307F070FBED4808F04B
:10454000A7F906900898263880B20590079844305D
:1045500080B204900D22DDE9051307F05FFBE5480A
:1045600008F096F906900898253880B205900798CB
:10457000443080B204900C22DDE9051307F04EFBB5
:10458000DC4808F085F9069000900898213880B240
:1045900005900798503080B204900898243880B273
:1045A00003900798433080B2029003A90EC907F028
:1045B00055FAD04808F06CF906900898213880B276
:1045C00005900798433080B204900C22DDE9051372
:1045D00007F024FBC74808F05BF9069000900898A4
:1045E0001D3880B2059007984F3080B2049008982B
:1045F000203880B203900798423080B2029003A91D
:104600000EC907F02BFABB4808F042F9069008984B
:104610001D3880B205900798423080B204900C2279
:10462000DDE9051307F0FAFAB24808F031F906900F
:10463000009008981A3880B2059007984E3080B2E2
:10464000049008981C3880B203900798413080B2DB
:10465000029003A90EC907F001FAA64808F018F95C
:10466000069008981A3880B205900798413080B2B9
:1046700004900C22DDE9051307F0D0FA9D4808F0FC
:1046800007F9069000900898163880B205900798B0
:104690004D3080B204900898193880B20390079882
:1046A000403080B2029003A90EC907F0D7F99148B3
:1046B00008F0EEF806900898163880B20590079832
:1046C0003F3080B204900E22DDE9051307F0A6FA10
:1046D000884808F0DDF8069000900898133880B2FA
:1046E000059007984C3080B204900898153880B235
:1046F000039007983F3080B2029003A90EC907F0DB
:10470000ADF97C4808F0C4F806900090089811387C
:1047100080B2059007984B3080B204900898133807
:1047200080B2039007983F3080B2029003A90EC96F
:1047300007F094F96F4808F0ABF806900898113824
:1047400080B2059007983E3080B204900D22DDE9DA
:10475000051307F063FA674808F09AF8069000908E
:1047600008980E3880B2059007984A3080B20490BD
:104770000898103880B2039007983E3080B20290BB
:1047800003A90EC907F06AF95A4808F081F80690A3
:10479000009008980B3880B2059007984A3080B294
:1047A000049008980E3880B2039007983D3080B28C
:1047B000029003A90EC907F051F94E4808F068F8B5
:1047C000069008980B3880B2059007983D3080B26B
:1047D00004900C22DDE9051307F020FA454808F0A3
:1047E00057F8069000900898C01F80B2059007986F
:1047F000493080B2049008980A3880B20390079834
:104800003C3080B2029003A90EC907F027F939485D
:1048100008F03EF8069000900898401F80B205907E
:104820000798483080B204900898C01F80B2039067
:1048300007983B3080B2029003A90EC907F00EF929
:104840002C4808F025F8069000900898C01E80B209
:1048500005900798473080B204900898401F80B2B6
:10486000039007983A3080B2029003A90EC907F06E
:10487000F5F8204808F00CF806900898C01E80B2A1
:10488000059007983A3080B204900E22DDE90513B6
:1048900007F0C4F9174807F0FBFF0690009008984E
:1048A00080B205900798473080B204900898801E27
:1048B00080B2039007983A3080B2029003A90EC9E3
:1048C00007F0CCF80B4807F0E3FF069007983A3062
:1048D00080B205900C22069B089907F09FF90548C5
:1048E00007F0D6FF06900898283880B20590079800
:1048F000583001E02176EE0080B204901722DDE905
:10490000051307F08BF9FE4807F0C2FF06900898E0
:10491000273880B205900798553080B204901B224A
:10492000DDE9051307F07AF9F54807F0B1FF0690C5
:104930000898263880B205900798543080B20490C9
:104940001E22DDE9051307F069F9ED4807F0A0FF25
:1049500006900898253880B205900798533080B2A9
:1049600004902022DDE9051307F058F9E44807F028
:104970008FFF06900898243880B20590079853302E
:1049800080B204900322DDE9051307F047F9DC4803
:1049900007F07EFF06900898243880B205900798AB
:1049A000683080B204900C22DDE9051307F036F977
:1049B000D34807F06DFF06900898233880B2059021
:1049C0000798533080B204900122DDE9051307F007
:1049D00025F9CB4807F05CFF06900898233880B291
:1049E00005900798683080B204900C22DDE9051329
:1049F00007F014F9C24807F04BFF069000900898A2
:104A00001F3880B205900798743080B204900898DF
:104A1000223880B203900798683080B2029003A9D0
:104A20000EC907F01BF8B64807F032FF0690009059
:104A300008981C3880B205900798743080B20490B2
:104A400008981F3880B203900798673080B20290B0
:104A500003A90EC907F002F8A94807F019FF06904C
:104A600008981C3880B205900798663080B2049090
:104A70000D22DDE9051307F0D1F8A14807F008FF82
:104A8000069008981B3880B205900798673080B26E
:104A900004900C22DDE9051307F0C0F8984807F0F0
:104AA000F7FE069008981A3880B20590079866308D
:104AB00080B204900D22DDE9051307F0AFF89048AD
:104AC00007F0E6FE069000900898173880B205902F
:104AD0000798723080B204900898193880B2039019
:104AE0000798653080B2029003A90EC906F0B6FFA0
:104AF000834807F0CDFE069000900898153880B2E4
:104B000005900798713080B204900898173880B2E9
:104B100003900798653080B2029003A90EC906F091
:104B20009DFF774807F0B4FE069000900898123871
:104B300080B205900798713080B2049008981538BB
:104B400080B203900798643080B2029003A90EC926
:104B500006F084FF6A4807F09BFE069000900898D4
:104B60000F3880B205900798703080B20490089892
:104B7000123880B203900798633080B2029003A984
:104B80000EC906F06BFF5E4807F082FE069008989B
:104B90000F3880B205900798633080B204900C22E1
:104BA000DDE9051307F03AF8554807F071FE069065
:104BB000009008980B3880B2059007986F3080B24B
:104BC000049008980E3880B203900798623080B243
:104BD000029003A90EC906F041FF494807F058FEAC
:104BE000069008980B3880B205900798623080B222
:104BF00004900C22DDE9051307F010F8404807F097
:104C000047FE069008980A3880B2059007986130F0
:104C100080B204900D22DDE9051306F0FFFF38484D
:104C200007F036FE069000900898401F80B205906D
:104C300007986D3080B204900898093880B20390CC
:104C40000798613080B2029003A90EC906F006FFF2
:104C50002B4807F01DFE069000900898801E80B239
:104C6000059007986C3080B204900898401F80B27D
:104C700003900798603080B2029003A90EC906F035
:104C8000EDFE1F4807F004FE069000900898401CB7
:104C900080B2059007986C3080B204900898801E0E
:104CA00080B2039007985F3080B2029003A90EC9CA
:104CB00006F0D4FE124807F0EBFD0690089838384D
:104CC00080B2059007987F3080B204900C22DDE915
:104CD000051306F0A3FF0A4807F0DAFD06900090DE
:104CE0000898343880B2059007988B3080B20490D1
:104CF0000898373880B2039007987E3080B201E080
:104D00002176EE00029003A90EC906F0A7FEFE4828
:104D100007F0BEFD069000900898323880B20590EA
:104D200007988A3080B204900898343880B2039093
:104D300007987E3080B2029003A90EC906F08EFE5D
:104D4000F14807F0A5FD069000900898303880B231
:104D500005900798893080B204900898323880B264
:104D6000039007987D3080B2029003A90EC906F027
:104D700075FEE54807F08CFD06900898303880B243
:104D8000059007987C3080B204900D22DDE9051370
:104D900006F044FFDC4807F07BFD069008982F38AA
:104DA00080B2059007987C3080B204900C22DDE937
:104DB000051306F033FFD44807F06AFD0690089803
:104DC0002E3880B2059007987C3080B204900D2276
:104DD000DDE9051306F022FFCB4807F059FD0690E8
:104DE00008982D3880B2059007987C3080B20490E6
:104DF0000C22DDE9051306F011FFC34807F048FD5A
:104E00000690009008982A3880B20590079888305C
:104E100080B2049008982C3880B2039007987B30B9
:104E200080B2029003A90EC906F018FEB64807F03A
:104E30002FFD069000900898273880B205900798BB
:104E4000873080B2049008982A3880B2039007987F
:104E50007B3080B2029003A90EC906F0FFFDAA487C
:104E600007F016FD06900898293880B2059007983B
:104E7000993080B204900C22DDE9051306F0CEFED5
:104E8000A14807F005FD06900898283880B20590E3
:104E90000798973080B204900D22DDE9051306F0E3
:104EA000BDFE994807F0F4FC06900898273880B2B8
:104EB000059007987A3080B204900D22DDE9051341
:104EC00006F0ACFE904807F0E3FC069008982738FF
:104ED00080B205900798963080B204900C22DDE9EC
:104EE000051306F09BFE884807F0D2FC0690009060
:104EF0000898243880B205900798863080B20490D4
:104F00000898263880B2039007987A3080B20290D1
:104F100003A90EC906F0A2FD7B4807F0B9FC069074
:104F20000898263880B205900798943080B2049093
:104F30000D22DDE9051306F071FE734807F0A8FCA9
:104F400006900898253880B205900798933080B273
:104F500004900C22DDE9051306F060FE6A4807F0B4
:104F600097FC069000900898213880B20590079829
:104F7000863080B204900898243880B20390079855
:104F8000793080B2029003A90EC906F067FD5E4831
:104F900007F07EFC06900898243880B205900798A8
:104FA000923080B204900C22DDE9051306F036FE43
:104FB000554807F06DFC06900898233880B205909C
:104FC0000798913080B204900B22DDE9051306F0BA
:104FD00025FE4D4807F05CFC06900898223880B208
:104FE000059007988F3080B204900C22DDE90513FC
:104FF00006F014FE444807F04BFC06900898213850
:1050000080B205900798783080B204900D22DDE9D7
:10501000051306F003FE3C4807F03AFC069008989A
:10502000213880B2059007988D3080B204900D220F
:10503000DDE9051306F0F2FD334807F029FC069080
:105040000898203880B205900798793080B2049093
:105050000C22DDE9051306F0E1FD2B4807F018FCF2
:1050600006900898203880B2059007988C3080B25E
:1050700004900C22DDE9051306F0D0FD224807F06C
:1050800007FC069008981F3880B205900798783082
:1050900080B204900D22DDE9051306F0BFFD1A4829
:1050A00007F0F6FB069008981F3880B20590079825
:1050B0008A3080B204900D22DDE9051306F0AEFDC2
:1050C000114807F0E5FB069008981E3880B205905D
:1050D0000798783080B204900C22DDE9051306F0C1
:1050E0009DFD094807F0D4FB069008981E3880B251
:1050F00005900798893080B204900D22DDE90513F0
:1051000006F08CFD004801E02176EE0007F0C0FBC0
:10511000069008981D3880B205900798773080B2C5
:1051200004900D22DDE9051306F078FDFE4807F036
:10513000AFFB069008981D3880B20590079887301D
:1051400080B204900F22DDE9051306F067FDF648F2
:1051500007F09EFB069008981C3880B205900798CF
:10516000773080B204900C22DDE9051306F056FD7D
:10517000ED4807F08DFB069008981C3880B205902A
:105180000798863080B204901022DDE9051306F0FE
:1051900045FDE54807F07CFB069008981B3880B277
:1051A00005900798773080B204901F22DDE905133F
:1051B00006F034FDDC4807F06BFB069008981A38BF
:1051C00080B205900798763080B204901F22DDE906
:1051D000051306F023FDD44807F05AFB0690089803
:1051E000193880B205900798763080B2049020225A
:1051F000DDE9051306F012FDCB4807F049FB0690E8
:105200000898183880B205900798763080B20490DC
:105210002022DDE9051306F001FDC34807F038FB45
:1052200006900898173880B205900798753080B2BC
:1052300004902122DDE9051306F0F0FCBA4807F0DE
:1052400027FB06900898163880B2059007987630AC
:1052500080B204901322DDE9051306F0DFFCB248AA
:1052600007F016FB06900898163880B2059007984C
:105270008A3080B204900C22DDE9051306F0CEFCE2
:10528000A94807F005FB06900898153880B20590EC
:105290000798753080B204901322DDE9051306F0FB
:1052A000BDFCA14807F0F4FA06900898153880B2C2
:1052B000059007988A3080B204900C22DDE905132E
:1052C00006F0ACFC984807F0E3FA0690089814380A
:1052D00080B205900798753080B204901222DDE903
:1052E000051306F09BFC904807F0D2FA0690089848
:1052F000143880B2059007988A3080B204900D224D
:10530000DDE9051306F08AFC874807F0C1FA06902C
:105310000898133880B205900798743080B20490D2
:105320001122DDE9051306F079FC7F4807F0B0FA99
:1053300006900898133880B2059007988A3080B29A
:1053400004900D22DDE9051306F068FC764807F0AD
:105350009FFA06900898123880B20590079874302A
:1053600080B204901022DDE9051306F057FC6E4868
:1053700007F08EFA06900898123880B205900798C8
:105380008A3080B204900E22DDE9051306F046FC57
:10539000654807F07DFA06900898113880B20590AC
:1053A0000798743080B204900E22DDE9051306F0F0
:1053B00035FC5D4807F06CFA06900898113880B209
:1053C000059007988A3080B204900E22DDE905131B
:1053D00006F024FC544807F05BFA06900898103851
:1053E00080B205900798743080B204900D22DDE9F8
:1053F000051306F013FC4C4807F04AFA069008988B
:10540000103880B2059007988A3080B204900E223E
:10541000DDE9051306F002FC434807F039FA06906F
:10542000009008980C3880B205900798803080B2C0
:10543000049008980F3880B203900798733080B2B8
:10544000029003A90EC906F009FB374807F020FABD
:10545000069008980C3880B205900798733080B297
:1054600004900C22DDE9051306F0D8FB2E4807F066
:105470000FFA069000900898083880B205900798B7
:105480007F3080B2049008980B3880B20390079860
:10549000723080B2029003A90EC906F0DFFA2248EA
:1054A00007F0F6F906900898083880B2059007983A
:1054B000723080B204900C22DDE9051306F0AEFBD9
:1054C000194807F0E5F9069000900898001F80B28F
:1054D000059007987E3080B204900898C01F80B273
:1054E00003900798713080B2029003A90EC906F0AC
:1054F000B5FA0D4807F0CCF906900898001F80B265
:1055000005900798703080B204900E22DDE90513F3
:1055100006F084FB044807F0BBF906900090089859
:1055200080B20590079801E02176EE007D3080B2D0
:1055300004900898C01E80B203900798703080B223
:10554000029003A90EC906F089FAFE4807F0A0F9F7
:1055500006900798703080B205900C22069B08993F
:1055600006F05CFBF74807F093F906900090089866
:105570000C3880B205900798983080B20490089853
:105580000F3880B2039007988B3080B2029003A945
:105590000EC906F063FAEB4807F07AF9069000901E
:1055A00008980A3880B205900798993080B2049024
:1055B00008980C3880B2039007988B3080B2029024
:1055C00003A90EC906F04AFADE4807F061F9069011
:1055D00000900898C01F80B205900798993080B25B
:1055E000049008980A3880B2039007988C3080B2F3
:1055F000029003A90EC906F031FAD24807F048F923
:10560000069000900898001F80B2059007989A3085
:1056100080B204900898C01F80B2039007988C3025
:1056200080B2029003A90EC906F018FAC54807F027
:105630002FF9069000900898801E80B20590079878
:105640009B3080B204900898001F80B203900798A6
:105650008C3080B2029003A90EC906F0FFF9B94858
:1056600007F016F906900898801E80B205900798FA
:105670008D3080B204900E22DDE9051306F0CEFADB
:10568000B04807F005F906900898401E80B20590D2
:1056900007988F3080B204900C22DDE9051306F0E4
:1056A000BDFAA84807F0F4F806900798913080B248
:1056B00005900A22069B089906F0B0FAA14807F067
:1056C000E7F806900898293880B205900798AD3021
:1056D00080B204902322DDE9051306F09FFA994871
:1056E00007F0D6F806900898283880B205900798F9
:1056F000AB3080B204902722DDE9051306F08EFA64
:10570000904807F0C5F806900898273880B20590B1
:105710000798A93080B204902922DDE9051306F02C
:105720007DFA884807F0B4F806900898263880B2C9
:1057300005900798A83080B204902B22DDE905136C
:1057400006F06CFA7F4807F0A3F806900898253811
:1057500080B205900798A73080B204900D22DDE951
:10576000051306F05BFA774807F092F80690089860
:10577000253880B205900798C63080B204900D227B
:10578000DDE9051306F04AFA6E4807F081F8069045
:105790000898243880B205900798A63080B204900B
:1057A0000D22DDE9051306F039FA664807F070F8B6
:1057B00006900898243880B205900798C73080B2C8
:1057C00004900D22DDE9051306F028FA5D4807F084
:1057D0005FF806900898233880B205900798A630A5
:1057E00080B204900C22DDE9051306F017FA554843
:1057F00007F04EF806900898233880B20590079875
:10580000C63080B204900E22DDE9051306F006FAD8
:105810004C4807F03DF806900898223880B2059071
:105820000798A53080B204900D22DDE9051306F03B
:10583000F5F9444807F02CF806900898223880B211
:1058400005900798C63080B204900E22DDE905135A
:1058500006F0E4F93B4807F01BF806900898213859
:1058600080B205900798A53080B204900D22DDE942
:10587000051306F0D3F9334807F00AF806900898A4
:10588000213880B205900798C63080B204900D226E
:10589000DDE9051306F0C2F92A4806F0F9FF069083
:1058A0000898203880B205900798A53080B20490FF
:1058B0000D22DDE9051306F0B1F9224806F0E8FFF4
:1058C00006900898203880B205900798C63080B2BC
:1058D00004900D22DDE9051306F0A0F9194806F041
:1058E000D7FF0690009008981D3880B20590079861
:1058F000B23080B2049008981F3880B203900798A5
:10590000A43080B2029003A90EC906F0A7F80D4892
:1059100006F0BEFF0690009008981D3880B20590F2
:105920000798D33080B2049008981F3880B2039053
:105930000798C53080B2029003A90EC906F08EF810
:10594000004801E02176EE0006F0A2FF06900898DC
:105950001D3880B205900798A43080B204900D22C3
:10596000DDE9051306F05AF9FE4806F091FF0690AE
:1059700008981D3880B205900798C53080B2049011
:105980000D22DDE9051306F049F9F64806F080FF1F
:105990000690009008981A3880B205900798B130A8
:1059A00080B2049008981C3880B203900798A33006
:1059B00080B2029003A90EC906F050F8E94806F03B
:1059C00067FF0690009008981A3880B205900798F3
:1059D000D23080B2049008981C3880B203900798A7
:1059E000C43080B2029003A90EC906F037F8DD4832
:1059F00006F04EFF069008981A3880B20590079876
:105A0000A33080B204900D22DDE9051306F006F9FB
:105A1000D44806F03DFF069008981A3880B20590E9
:105A20000798C43080B204900D22DDE9051306F01A
:105A3000F5F8CC4806F02CFF06900898193880B28B
:105A400005900798A23080B204900E22DDE905137C
:105A500006F0E4F8C34806F01BFF069008981938D2
:105A600080B205900798C43080B204900D22DDE921
:105A7000051306F0D3F8BB4806F00AFF0690089815
:105A8000193880B205900798A23080B204900D2298
:105A9000DDE9051306F0C2F8B24806F0F9FE0690FB
:105AA0000898193880B205900798C33080B20490E6
:105AB0000E22DDE9051306F0B1F8AA4806F0E8FE6B
:105AC00006900898183880B205900798A23080B2E6
:105AD00004900E22DDE9051306F0A0F8A14806F0B7
