:020000040800F2
:10000000702500204501000823C60008D19800088B
:1000100005C600080D120008811401080000000048
:10002000000000000000000000000000F9CE000801
:10003000A53C00080000000065CA0008A5D2000821
:100040005F0100085F0100085F010008ADCB0008F8
:100050005F0100085F0100085F0100085F01000800
:100060005F0100085F0100085F0100085F010008F0
:100070005F0100085F0100085F0100085F010008E0
:100080005F0100085F0100085F0100085F010008D0
:10009000C91301085F0100085F0100085F01000843
:1000A0005F0100085F0100085F0100085F010008B0
:1000B0003DD300085F0100085F0100085F010008F0
:1000C0005F0100085F0100085F0100085F01000890
:1000D0005F0100085F0100085F0100085F01000880
:1000E0005F0100085F0100085F0100085F01000870
:1000F0005F0100085F0100085F0100085F01000860
:100100005F0100085F0100085F0100085F0100084F
:100110005F0100085F0100085F0100085F0100083F
:100120005F0100085F0100085F0100085F0100082F
:10013000DFF80CD000F020FD00480047893A0108A4
:10014000702500200648804706480047FEE7FEE786
:10015000FEE7FEE7FEE7FEE7FEE7FEE7FEE7FEE777
:100160003BD30008310100082DE9F05F054600206F
:1001700092469B4688460646814640241BE0284618
:1001800041464746224600F020F853465A46C01AD8
:10019000914110D311461846224600F081FB2D1ADA
:1001A00067EB01084F4622460120002100F078FB52
:1001B00017EB00094E41201EA4F10104DFDC484684
:1001C00031462A464346BDE8F09F202A04DB203A08
:1001D00021FA02F00021704721FA02F3D040C2F167
:1001E0002002914008431946704740EA01039B07EB
:1001F00003D009E008C9121F08C0042AFAD203E09C
:1002000011F8013B00F8013B521EF9D27047D2B2FF
:1002100001E000F8012B491EFBD270470022F6E7EF
:1002200010B513460A4604461946FFF7F0FF20466C
:1002300010BD421E12F8013F002BFBD111F8013B0B
:1002400002F8013B002BF9D17047421C10F8011B4A
:100250000029FBD1801A704710B5002200E0521C23
:10026000835C8C5CA34201D1002BF8D1D8B2E1B2FF
:10027000401A10BD034611F8012B00F8012B002A8B
:10028000F9D11846704770B5064611F019FE04689A
:1002900005460A220021304600F072FB2C6070BD3A
:1002A000F0B480EA0102D40F4200B2EB410F02D257
:1002B0000246084611464A0042D0C30DDDB2C1F3E2
:1002C000C752AD1A202D35DAC1F3160141F40002F0
:1002D00004B15242C5F1200602FA06F12A41104447
:1002E000B3EBD05F23D0C4B1012DA0EBC35009DC28
:1002F000F0BC4FF0004202EAC352DBB200F500004E
:1003000000F07FBB400000F1807000EBC350A0F113
:10031000807040EAD170490009E0490841EAC071A3
:10032000A0EBC35000F50000400800EBC350F0BC48
:1003300000F05EBB6142012202EB4101001BF6E7C7
:10034000F0BC704781F00041AAE780F00040A7E7C9
:1003500080EA010210B502F00043400022D04A00BA
:100360001FD0010E01EB1261C0F35600C2F356021A
:1003700040F4000042F40002A0FB022000047F3998
:10038000140400D0401C50EA124001D44000491E21
:10039000C2B20C0604EBD010401C4008802A02D0E8
:1003A00003E0002010BD20F00100002900DA002049
:1003B000184310BD30B480EA010202F0004530F06D
:1003C000004221F0004013D090B1C30DD40DC2F310
:1003D0001601C0F31600E41A41F4000140F40002D3
:1003E0007D34914201D3641C00E04900002C02DA04
:1003F00030BC002070474FF400000023914201D32D
:10040000891A034340084FEA4101F7D151B19142A3
:1004100002D14FF0004105E002D24FF0010101E0AE
:100420006FF0010103EBC450284430BC00F0E0BA87
:100430002DE9FE4F804681EA0300C00F0C46009074
:1004400021F0004123F00045B8EB0200A94105D29C
:100450004046214690461C460B46024623F000408B
:10046000104347D0270DC7F30A00C3F30A51029087
:10047000401A019040286BDAC3F3130040F4801B4C
:100480000098924620B10023D2EB030A63EB0B0BDA
:1004900001985946C0F14002504600F001FA064664
:1004A0000D4650465946019A00F009FA10EB080033
:1004B0006141002487EA115284EAE7731A4340D06D
:1004C000009A62B3019A012A4FEA075215DC001B19
:1004D00061EB02014FF0004202EA0752CDE900420F
:1004E000001C41F5801132462B4600F0C7FA03B0DC
:1004F000BDE8F08F40462146F9E7001B61EB0201A1
:10050000001C41F5801300185B412018A2F500176C
:1005100047EB030140EAD570B6196D4111E06D0853
:100520004FEA360645EAC0754FEA0752001B61EBF9
:100530000201001C41F5801149084FEA3000001902
:10054000514132462B4603B0BDE8F04F00F087BA68
:100550000098012240000023D0EB020263EBE0731D
:10056000009821464FEAE074B8EB000061EB04010B
:10057000E9E783F000435BE781F0004158E72DE9AC
:10058000FE4F81EA030404F0004421F0004100948E
:100590004FF0000B23F0004350EA01045ED052EA12
:1005A00003045BD0C3F30A54C1F30A552C44A4F2EC
:1005B000F3340194A0FB0254C1F3130141F4801100
:1005C000C3F3130343F4801301FB024400FB034E07
:1005D000840A970A44EA815447EA8357A4FB0768D0
:1005E00002958D0A05FB07854FEA932C04FB0C54FA
:1005F0002705029D4FEA065847EA1637B5EB08056E
:100600006EEB070C870E920E47EA811742EA8312BF
:10061000A7FB0201B6EB0B0164EB00042B0D43EAD0
:100620000C335E1844EB1C50DA465146E7FB0201DE
:10063000C5F313044FEA0B3343EA14534FEA043271
:10064000019C43EA0603A4F10C040294009CCDE94A
:1006500000B400F013FA03B0BDE8F08F00200146AB
:10066000F9E72DE9F04D81EA030404F0004B21F095
:10067000004514464FF0000A23F0004150EA0502FD
:1006800020D054EA01021DD0C5F30A570246C5F333
:100690001303C1F31300C1F30A5640F4801543F469
:1006A0008013A7EB0608101BD64608F2FD3873EB43
:1006B000050002D308F1010801E092185B41B8F18E
:1006C000000F03DA00200146BDE8F08D00204FF452
:1006D0008011064684460EE0171B73EB050705D311
:1006E000121B63EB050306434CEA010C49084FEA71
:1006F000300092185B4150EA0107EDD152EA030045
:1007000012D082EA040083EA0501084305D0101BD9
:10071000AB4106D20122002306E000224FF0004345
:1007200002E06FF0010253101AEB06004CEB085187
:1007300010EB0A0041EB0B01BDE8F04D00F08FB962
:10074000C10F80EAE0700844CA079623002100F038
:1007500058B996230022114600F053B90EB5C10FC7
:1007600080EAE0700844CA07002140F233438DE874
:100770000E000A460B4600F081F903B000BD00F000
:10078000004220F00040C10DC0F3160040F400000C
:100790007F2901DA00207047962903DCC1F1960118
:1007A000C84001E096398840002AF4D040427047A2
:1007B00020F00040C10DC0F3160040F400007F2976
:1007C00001DA00207047962903DCC1F19601C84088
:1007D000704796398840704770B5C1F30A5201F0EE
:1007E00000450024C1F3130140F2FF3341F48011AE
:1007F0009A4201DA002070BD40F233439A42A2F2DD
:10080000334203DC5242FFF7E0FC00E090402C430F
:10081000F1D0404270BD00F0004230F000400AD0FC
:10082000C10D01F56071C0F3160042EA0151C20822
:1008300040071143704700200146704701F0004314
:1008400030B421F0004150EA010206D00A0DA2F5B1
:100850006072C1F31301002A02DC30BC0020704733
:10086000440F44EAC104C100E01830BC00EBC250A0
:1008700000F0BEB830B50B4601460020202201240E
:1008800009E021FA02F59D4205D303FA02F5491B5E
:1008900004FA02F52844151EA2F10102F1DC30BD74
:1008A000202A04DB203A00FA02F100207047914030
:1008B000C2F1200320FA03F3194390407047202A25
:1008C00006DBCB17203A41FA02F043EAE07306E078
:1008D00041FA02F3D040C2F1200291400843194688
:1008E000704700000FB4002300B589B00CA9009137
:1008F0000B996FF00042CB601E4B06931E4B079383
:100900000423CDE901321D4A089202466B460020BD
:1009100000F0E6F909B05DF814FB70B586B0064644
:100920004FF0FF300091CDE90101002015460C4643
:1009300004903246694604A8FFF7D4FF02460498A3
:10094000211825B108B1084600E020462860049827
:1009500000280DD0002A02DD0098884208D0081B2C
:100960000094CDE901043246694604A8FFF7BAFFB6
:1009700006B070BD190F0008370F0008A50B00085E
:100980002DE9F04791460F4680460446002614F8AC
:10099000015B2DB100F002F90068405DC007F6D19F
:1009A0002B2D02D02D2D18D0641E4A4639462046E4
:1009B00000F0D2FA27B13968A14201D1C7F800800E
:1009C00071054FF002040BD54042002803DD11F001
:1009D00077FA0460A007BDE8F08746F48066E4E794
:1009E0000028F8DA11F06CFA04606FF00040F2E7CA
:1009F0000029A8BF7047401C490008BF20F0010033
:100A0000704710B4B0FA80FC00FA0CF050EA010410
:100A100004BF10BC704749B1CCF1200421FA04F4A2
:100A200011FA0CF118BF012121430843A3EB0C017B
:100A3000CB1D4FEA00614FEA102042BF002010BCDE
:100A4000704700EBC35010440029A4BF10BC70478E
:100A5000401C490008BF20F0010010BC704710B5D1
:100A6000141E73F1000408DA401C41F100019218D1
:100A70005B411A4301D120F0010010BD2DE9F04D7A
:100A800092469B4611B1B1FA81F202E0B0FA80F2CF
:100A900020329046FFF704FF04460F4640EA0A0062
:100AA00041EA0B0153465A46084313D0114653EA14
:100AB000010019D0C8F140025046FFF786FB0546F9
:100AC0000E46504659464246FFF7EAFE084305D017
:100AD000012004E020463946BDE8F08D00200543A2
:100AE00046EAE0762C4337430A986305E40AA0EB14
:100AF00008000022FD0A44EA47540A3002D50020CB
:100B00000146E9E7010510196941DDE908450019C9
:100B10006941BDE8F04DA2E7C1F30A52C1F31301E8
:100B200040F2FF3341F480119A4202DA002001467C
:100B3000704740F233439A42A2F2334202DC5242FF
:100B4000FFF743BBFFF7ACBE30B5041E71F10004E4
:100B500004DB4FF00044404264EB0101141E73F1CA
:100B6000000405DB1C464FF00043524263EB0403D4
:100B7000994208BF904230BD064C074D06E0E06840
:100B800040F0010394E8070098471034AC42F6D3D4
:100B9000FFF7D2FA0C6902082C6902080048704776
:100BA0000869020810B50446FFF7F8FF0068005D09
:100BB00000F0010010BD00002DE9FF4F087883B060
:100BC0009946FF2805D0491C2D2804D00024002078
:100BD00008E000200BE00124F9E700EB800003EBC4
:100BE0004000491C0B78FF2BF7D104B14042002391
:100BF0000293147819461D462D2C01D02B2C04D1BC
:100C0000521C2D2C13D000240294AA461478FF2CD9
:100C10000FD00A25A3FB057801FB05814FF0000CDE
:100C200003FB0C11521CE3194AEB0101EEE701240E
:100C3000EAE7814453EA010002D019F5C87F06DAD9
:100C400003980021C0E9001107B0BDE8F08F00252E
:100C5000AE4E2F46DFF8B882184600F0DAF9CDE93B
:100C60000001B9F1000002DAC9F1000400E0044615
:100C70000023A74A1AEB030B42EB045A12E0E007E9
:100C800007D02A46334638464146FFF778FC0746E8
:100C900088462A46334610461946FFF770FC05463B
:100CA0000E466410002CEAD1DDE90001B9F1000F15
:100CB0005A46534606DAFFF7D4FC3A464346FFF756
:100CC000D0FC05E0FFF75BFC3A464346FFF757FCD4
:100CD000029A0AB181F00041039AC2E90001B3E728
:100CE0002DE9FF4F1F468DB0D7E901464FF0FF3881
:100CF0002E2045464FF000090B90B9696D1C0E98E7
:100D00008847396A824688470028F6D1BAF1FF3F02
:100D10000AD024F4D064002E11DDBAF12B0F08D0D4
:100D2000BAF12D0F0BD102E0404611B08DE744F42B
:100D30008064B9696D1C0E9888478246761E6946A4
:100D4000600501D52D2000E02B208DF8000001F179
:100D5000010B0DF1200809E0B9696D1C0E98884758
:100D600082460F9844F40074761E0560002E02DD62
:100D7000BAF1300FF0D00B998A453ED144F080048F
:100D800006E00F99681CA9F1010944F40074086099
:100D9000B9696D1C761E0E98884782463028F0D0BF
:100DA0002BE00B998A4505D1200603D444F080043A
:100DB000761E18E0504611F05BFA08B30DF11301EE
:100DC000761E44F400748B4508D2AAF130000BF86B
:100DD000010B200607D5A9F1010003E0200602D48B
:100DE00009F101008146A00502D50F99681C086031
:100DF000B9696D1C0E9888478246002ED1DC53E0FD
:100E0000002E51DDBAF1650F02D0BAF1450F4BD17A
:100E1000A00549D5B9696D1C24F44074761E0E985E
:100E200088478246002E0CDD2B2804D0BAF12D0F06
:100E300007D144F48074B9696D1C0E9888478246C6
:100E4000761EE00501D52D2100E02B2108F8011BBD
:100E5000CDF82C8021E00DF12901761E44F40074B8
:100E600088450CD2AAF1300010F0FF0088F800008D
:100E700002D10B99884509D908F1010806E0E0057F
:100E800001D5244801E042F20F708146B9696D1C1A
:100E90000E98884782460F980560002E04DD504664
:100EA00011F0E6F90028D6D1F9690E988847FF209D
:100EB0008BF8000088F800000020069007904B4651
:100EC0006A4608A906A8FFF777FEA00502D46FF0CE
:100ED00001002AE714F0240F0AD0E00714D1DDE95D
:100EE00006123868031D3B600068C0E900120BE081
:100EF000DDE90601FFF7A2FC0146E00704D13868EE
:100F0000021D3A600068016028460EE700001440A8
:100F10000000F03FF1D8FFFF426842B1016811F8CC
:100F2000013B23B1521EC0E900121846704701214F
:100F3000C160881E704742685AB1C368016843B9EE
:100F400083688B4205D0491E521CC0E90012002064
:100F500070474FF0FF3070472DE9F05F8246007810
:100F6000002715468B460AF10104B946302801D006
:100F70009DB113E014F8010B0127782803D05828FD
:100F800001D045B10AE00DB1102D07D10027102581
:100F900014F8010B02E0082500E00A250026B046FF
:100FA0000EE005FB080005FB06F1012701EB1046EA
:100FB0001FFA80F8B6F5803F00D3B94614F8010B4C
:100FC000294600F018F80028EBDABBF1000F05D035
:100FD0000FB1641E00E05446CBF80040B9F1000F99
:100FE00006D010F06DFF02210160C81EBDE8F09F21
:100FF00048EA0640FAE73A2800D2303820F02002CA
:10100000412A01D3A2F13700884201D34FF0FF30CB
:1010100070470EB540F2334202920022CDE9002221
:101020001346FFF72BFD03B000BD70B58C1810F808
:10103000015B15F0070301D110F8013B2A1106D11D
:1010400010F8012B03E010F8016B01F8016B5B1E37
:10105000F9D12B0705D40023521E0DD401F8013B12
:10106000FAE710F8013BCB1A921C03E013F8015B7E
:1010700001F8015B521EF9D5A142D8D3002070BD02
:1010800070B5044600252068806800F0010018B3A0
:101090002068806820F001002168886005F0F0FE7B
:1010A000054613E005F0ECFE401B02280ED920682F
:1010B000806800F0010048B1A06A40F01000A06212
:1010C000E06A40F00100E062012070BD20688068A5
:1010D00000F001000028E5D10020F6E738B504460D
:1010E0000025002000902068806800F0010078BB97
:1010F0002068806840F00100216888601948006815
:101100001949B0FBF1F0009002E00098401E0090F9
:1011100000980028F9D105F0B3FE054619E005F066
:10112000AFFE401B022814D92068806800F001003F
:1011300078B9A06A40F01000A062E06A40F00100B7
:10114000E06200BF002084F8240000BF012038BD09
:1011500005E02068806800F001000028DFD0002052
:10116000F5E700003401002040420F0010B50022D6
:101170004FF48051014805F07DFE10BD000C014088
:1011800010B501221103024805F074FE10BD0000E5
:10119000000C014010B50122D102064805F06AFE9C
:1011A0000A2012F081FA00224FF40061014805F094
:1011B00061FE10BD000C01401248407D05281DD283
:1011C000DFE800F003080D12170032200E4909680D
:1011D000486314E03C200C49096848630FE046204E
:1011E0000949096848630AE05020074909684863CB
:1011F00005E0632004490968486300E000BF00BFC0
:101200007047000064050020D404002000BFFEE702
:1012100010B501220421024805F02CFE10BD00008B
:101220000010014010B500220421024805F022FE02
:1012300010BD00000010014010B50122022102483B
:1012400005F018FE10BD00000010014010B500228E
:101250000221024805F00EFE10BD00000010014002
:1012600010B50446392013F027F8E0B213F035F832
:10127000C4F3072013F031F8C4F3074013F02DF83E
:10128000200E13F02AF813F009F810F0D7FD10BD66
:101290002DE9F04107460E4614463C2013F00CF8A9
:1012A000F0B213F01AF8301213F017F812F0F6FF3C
:1012B0000CB10020208016E010F0C0FD05461E2D68
:1012C0000ED1384600F06CF905463D2012F0F4FFCF
:1012D00012F0E4FF2F4434B120882844208002E03B
:1012E0002846BDE8F081E7E710B50BF0BDFB08B17B
:1012F00000F082F8302000F0E4F810BD10B5312085
:1013000000F0DFF810BD10B504462146362000F08D
:10131000CAF810BD10B5044614B1204600F0F2F82A
:10132000342000F0CEF810BD70B50646304600F00F
:10133000D2F8054685B12946304600F024F8044627
:10134000412C09D0142C01D1432070BD422C01D175
:10135000B320FAE72046F8E77019FFF7DBFFF4E760
:1013600010B50446204600F0CDF820785C2802D065
:1013700020782F2803D10021642000F028F93220A2
:1013800000F09FF810BD2DE9F04105460F460026FC
:10139000012429E001E0601CC4B2285D5C2805D06E
:1013A000285D2F2802D0285D0028F4D1285D10B1D7
:1013B000601CC4B200E00024A819FFF7D1FF064664
:1013C00084B1BC420ED0412E0AD0142E02D143204B
:1013D000BDE8F081422E01D1B320F9E73046F7E7AE
:1013E000264601E03046F3E7D4E710B50446FF2176
:1013F0002046FFF7C8FF10BD10B5222012F05CFF99
:10140000322012F06FF912F04DFF044612F046FF41
:10141000204610BD2DE9F04112F044FF044612F0C1
:1014200041FF054612F03EFF064612F03BFF07461D
:1014300012F034FF44EA052040EA064040EA076023
:10144000BDE8F08170B50446272012F035FF12F098
:1014500029FF0646054646B100BF12F023FF207063
:10146000641C701EC0B2061EF7D112F017FF28468A
:1014700070BD10B504460C2012F01EFF204612F07D
:101480002CFFFFF7C7FF10BD70B504460A2012F00D
:1014900013FF204612F021FF12F004FF054612F060
:1014A000FDFE284670BD70B505460C46284612F074
:1014B00003FF204612F011FF12F0F0FE10F0BEFC08
:1014C00070BD10B50446204612F0F6FE12F0E6FE9E
:1014D00010F0B4FC10BD0246114600E0491C08782B
:1014E0000028FBD100E0491E08785C2804D0087869
:1014F0002F2801D09142F6D1914200D0491C881A80
:10150000C0B270472DE9F0410646012012F0D4FE2A
:1015100012F0C8FE43282BDA2B20FFF7B5FF102866
:1015200026DA2F2012F0C8FE002012F0D6FE32205C
:10153000FFF7C7FF0446142C1AD1CF20FFF7A4FFF2
:101540000446ACB14C20FFF794FF00EB042739466A
:101550004C2000F03CF85020FFF78BFF00EB0427F5
:101560003946502000F033F80021702000F02FF8A9
:101570002F2012F0A1FE3578284612F0AEFE09E0C9
:10158000761C35785C2D01D02F2D00D10025284602
:1015900012F0A3FE002DF3D112F080FEBDE8F08121
:1015A00070B504462D2012F087FE12F07BFE064631
:1015B000054646B100BF207812F08FFE641C701EF5
:1015C000C0B2061EF7D112F069FE284670BD70B594
:1015D00005460C460D2012F06FFE284612F07DFEE7
:1015E000E0B212F07AFEC4F3072012F076FEC4F3E4
:1015F000074012F072FE200E12F06FFE12F04EFE47
:1016000070BD000010B500221021024805F032FC28
:1016100010BD00000008014010B501221021024851
:1016200005F028FC10BD00000008014010B50122A3
:101630008021024805F01EFC10BD0000000C014096
:1016400010B500228021024805F014FC10BD0000F6
:10165000000C014010B501224021024805F00AFCAF
:1016600010BD00000014014010B5002240210248C6
:1016700005F000FC10BD00000014014010B501226F
:101680005103024805F0F6FB10BD000000140140B4
:1016900010B500224FF40051014805F0EBFB10BDDE
:1016A0000014014010B501221103024805F0E2FBCD
:1016B00010BD00000014014010B500224FF480510D
:1016C000014805F0D7FB10BD0014014010B5012200
:1016D0001146024805F0CEFB10BD0000000C014091
:1016E00010B500220121024805F0C4FB10BD000026
:1016F000000C014010B501222021024805F0BAFB80
:1017000010BD00000010014010B500222021024849
:1017100005F0B0FB10BD000000100140F0B504461C
:101720000D46FF22FF21002319E0E05C4140002725
:1017300011E001F0010602F0010C52104910BCF159
:10174000000F01D041F080011EB182F0A00281F0B3
:101750000101781CC7B2082FEBDB581CC3B2AB42A7
:10176000E3DB41EA0220F0BD002070470020704713
:101770002DE9F04106460F4601210C480DF0ABFE65
:101780000B4908700948D0F8B852002403E0285DDE
:1017900008490855641C064800788442F7DB01209C
:1017A000054908700020BDE8F0810000E418002021
:1017B00024020020E81B00202502002033B50C463F
:1017C00000252DE09DF801109DF8030004F022FD96
:1017D00005469DF802002044A8421AD99DF802004F
:1017E000281A241A9DF80100401CC0B28DF801008F
:1017F00000208DF802009DF801000D2810D1012075
:101800008DF801009DF80300401CC0B28DF8030064
:1018100006E09DF802002044C0B28DF8020000E00E
:10182000D0E700BF0720B4FBF0F100FB11400949ED
:1018300009780844C0B28DF800009DF80000072820
:1018400005DB9DF80000C01FC0B28DF800000098B5
:101850003CBD00000801002038B517480078012879
:1018600029DD6FF07F400BF021F9044600200BF0DA
:101870001DF90546104800940078801E692202EB8D
:10188000C00081B22B4691220CA00AF0ABFB0A48A3
:101890000078401E08490870002107480078401E63
:1018A000074A11540448007806490978884202D151
:1018B00000200449087038BD5201002020000000BB
:1018C000EC0600205301002038B5044600200BF040
:1018D000EDF8054614231A01022100904FF49B7085
:1018E0000AF08CF94FF46E400BF0E0F80546052342
:1018F00040F23D1202210090101F0AF07FF94FF4D0
:101900006E400BF0D3F8054614231A010521009010
:101910004FF49B700AF0DAFA4FF46E400BF0C6F801
:101920000546132340F23F120621009040F2371083
:101930000AF064F9192C0DDA00200BF0B7F805460F
:101940000F2340F23F120621009040F237100AF0B8
:1019500055F924E0192C0FDB322C0DDA00200BF0A6
:10196000A5F805460C2340F23F120621009040F2F4
:1019700037100AF043F912E0322C0FDB4B2C0DDA52
:1019800000200BF093F80546092340F23F12062190
:10199000009040F237100AF031F900E000BF38BD86
:1019A00038B50020254908700BF080F804460AF08D
:1019B0000DF9042001F010FF00200BF077F8044629
:1019C0006FF07F400BF072F805462B461E22C821AF
:1019D0001B4800940AF006FB00200BF067F8044651
:1019E0006FF07F400BF062F805462B461E22FA216D
:1019F0001348801D00940AF0F5FA00200BF056F809
:101A0000044610480BF052F805462B461E22C8210A
:101A10000B480C3000940AF0E5FA00200BF046F871
:101A2000044608480BF042F805462B463422C821EC
:101A30000348123000940AF0D5FA38BD4501002061
:101A4000684A010832F0F000F8B5044600200BF0B7
:101A50002DF805464FF47F000BF028F80646601E6F
:101A600000EB400101EBC0001E2101EB400082B2FF
:101A700033468C21024800950AF0B4FAF8BD000004
:101A80008948010838B500200BF010F804461423EB
:101A90001A01022100904FF49B700AF0AFF84FF446
:101AA0006E400BF003F8044623460522022140F263
:101AB00039100AF05DFA4FF46E400AF0F7FF044661
:101AC00023460522022140F23D100AF051FA4FF45C
:101AD0006E400AF0EBFF044623460B2207214FF429
:101AE0009B700AF06BF94FF46E400AF0DFFF04467A
:101AF0000F234FF49F7208210090901F0AF07EF888
:101B00004FF46E400AF0D2FF04462346052210210E
:101B100040F239100AF052F94FF46E400AF0C6FF55
:101B200004462346032211214FF49D700AF046F922
:101B30004FF46E400AF0BAFF0446234604221121F6
:101B400040F23B100AF014FA38BD00002DE9FC41C8
:101B5000484890F84000002845D1002440E0621C2D
:101B600045A101A810F07CF9204604EBD071491082
:101B7000A4EB4101C9B100200AF098FF0646404895
:101B80000AF094FF074604EBD470401000EB4001CC
:101B900001EB00102A2101EB400082B23B46A82154
:101BA00001A800960AF01EFA18E000200AF07EFF55
:101BB000064633480AF07AFF074604EBD47040101B
:101BC00000EB400101EB00102A2101EB400082B242
:101BD0003B46082101A800960AF004FA601CC4B232
:101BE000082CBCDB44E0002440E0621C22A101A8D8
:101BF00010F036F9204604EBD0714910A4EB4101F6
:101C0000C9B100200AF052FF06461D480AF04EFFF7
:101C1000074604EBD470401000EB400101EB0010CC
:101C20003D2101EB800082B23B46A82101A800962D
:101C30000AF0D8F918E000200AF038FF06461048EC
:101C40000AF034FF074604EBD470401000EB40016B
:101C500001EB00103D2101EB800082B23B460821E0
:101C600001A800960AF0BEF9601CC4B2042CBCDBCB
:101C7000BDE8FC8164050020253032643A00000094
:101C800032F0F00038B50C49B1F90000002305220C
:101C9000012107F01FFE00200AF008FF04464FF460
:101CA0006E400AF003FF05462B46022264210348DA
:101CB00000940AF097F938BD9A010020E006002050
:101CC00038B54FF46E400AF0F1FE0446122340F29C
:101CD0000F1208210090501E09F090FF4FF46E4043
:101CE0000AF0E4FE04462346062207214FF48670DC
:101CF0000AF064F84FF46E400AF0D8FE044623461A
:101D00000422062140F20D100AF058F84FF46E40FC
:101D10000AF0CCFE04462346022205214FF48770C8
:101D20000AF04CF84FF46E400AF0C0FE04460F2350
:101D30004FF48A7205210090501E09F05FFF4FF4A6
:101D40006E400AF0B3FE044623460622102140F2FC
:101D500011100AF033F84FF46E400AF0A7FE044663
:101D60002346042211214FF489700AF027F84FF41A
:101D70006E400AF09BFE044623460222122140F2E6
:101D800013100AF01BF838BD7CB501208549087096
:101D9000854908706FF07F400AF088FE0546F02301
:101DA0004FF4A07282210090002009F027FF6FF00D
:101DB0007F400AF07BFE054600200AF077FE0646CB
:101DC0007A490095097DC1EB0111794A02EB410086
:101DD000334691223C210AF005F900200AF066FE04
:101DE0000546A323C8228F21009064200AF06EF8D4
:101DF00043F2FF300AF05AFE05461A233C228C219A
:101E00000090FF2001F088FD43F2FF300AF04EFE03
:101E100005466FF07F400AF049FE0646634900958B
:101E2000097DC1EB0111624A02EB4101881D334675
:101E300091224FF48C710AF0D5F843F2FF300AF08A
:101E400035FE05461A233E22D2210090052001F0DE
:101E500063FD43F2FF300AF029FE05466FF07F4034
:101E60000AF024FE064651490095097DC1EB011197
:101E70004F4A02EB410101F10C003346D7221421F5
:101E80000AF0B0F843F2FF300AF010FE05461A23BC
:101E90003E22D2210090E12001F03EFD43F2FF30CE
:101EA0000AF004FE05466FF07F400AF0FFFD06468B
:101EB0003E490095097DC1EB01113D4A02EB41010C
:101EC00001F112003346D722F0210AF08BF80020EE
:101ED0000AF0ECFD0546CA2340F23912AA2100900F
:101EE000072009F08BFE00242BE0621C31A101A821
:101EF0000FF0B6FF4FF47F000AF0D8FD054604EB63
:101F000004110722009002EB41001F231A46AA2168
:101F100001F002FD4FF47F000AF0C8FD05466FF0A6
:101F20007F400AF0C3FD064604EB0410132202EBC7
:101F300040013346B12201A800950AF053F8601C15
:101F4000C4B2092CD1DB002428E043F2FF300AF0B0
:101F5000ADFD054604EB04115722009002EB410051
:101F60001F231A46CC2101F0D7FC43F2FF300AF0C0
:101F70009DFD05466FF07F400AF098FD064604EB94
:101F80000412632303EB42010B4A02EB4400334685
:101F9000D32200950AF026F8601CC4B2032CD4DBCF
:101FA0007CBD00005101002052010020640500208A
:101FB000424C0108256400007E4C010831B582B016
:101FC0001A4800780A2830DA1948007818B19DF8C4
:101FD00008002E2829D002A91648FEF72AF96FF02A
:101FE0007F400AF063FD044600200AF05FFD0546CD
:101FF0000E4800940078401E692202EBC00081B2B6
:102000002B46912202A809F0EDFF0948007838B963
:102010009DF808002E2803D1044800780449087070
:1020200002480078401C014908703EBD5201002062
:1020300053010020EC06002010B500201449087060
:10204000144908701449087014480078012806D013
:10205000022807D0032808D004280CD108E001F09A
:1020600095FA09E000F0B6FC06E000F01DFD03E083
:10207000FFF796FC00E000BF00BF0848007808F0BA
:102080008BF9074801780548007800F00BF810BD7F
:102090005201002051010020530100204601002080
:1020A0004501002003B587B00798012806D0022813
:1020B00005D003287ED004287DD1E7E2B4E3FE48B2
:1020C0000078012817D1FD480AF0F0FC03900020A9
:1020D0000AF0ECFC029003980090F9488078401ECA
:1020E00000EB8000F749084401901E225021029B1A
:1020F00009F078FF16E000200AF0D8FC0390EF48C2
:102100000AF0D4FC029003980090ED488078401EBD
:1021100000EB8000EB49084401901E225021029BF5
:1021200009F060FFE448007802281BD1E3480AF078
:10213000BDFC039000200AF0B9FC029003980090C7
:10214000DF48007D00EB8000DF4901EBC000DC4987
:10215000C97A00EBC100019034225021029B09F0A2
:1021600041FF1AE000200AF0A1FC0390D3480AF0D6
:102170009DFC029003980090D148007D00EB800008
:10218000D14901EBC000CE49C97A00EBC1000190F2
:1021900034225021029B09F025FFC948B0F90D00F7
:1021A000002305220121039007F094FBC248007828
:1021B000032801E01FE136E310D1C0480AF076FCA5
:1021C000039000200AF072FC0290039800904A22CB
:1021D0005021BE48029B09F005FF0FE000200AF0E5
:1021E00065FC0390B5480AF061FC029003980090EA
:1021F0004A225021B548029B09F0F4FEB048B0F9DC
:102200000F00002305220121039007F063FBAA4879
:102210000078042810D1A9480AF048FC0390002057
:102220000AF044FC02900398009060225021A748D5
:10223000029B09F0D7FE0FE000200AF037FC039064
:102240009E480AF033FC02900398009060225021CF
:102250009E48029B09F0C6FE97480078052816D1D3
:1022600096480AF023FC039000200AF01FFC02901D
:10227000039800909248807A00EB4000944908440B
:1022800001901E22F021029B09F0ACFE15E0002017
:102290000AF00CFC039089480AF008FC02900398AD
:1022A00000908748807A00EB4000894908440190FB
:1022B0001E22F021029B09F095FE7F480078062837
:1022C0001DD17E480AF0F2FB039000200AF0EEFBDD
:1022D0000290039800907A48007D00EBC00101EB6A
:1022E00000107C4908447649097B01EB81010844D0
:1022F00001903422F021029B09F074FE1CE00020C2
:102300000AF0D4FB03906D480AF0D0FB02900398CA
:1023100000906B48007D00EBC00101EB00106D499F
:1023200008446749097B01EB81010844019034228C
:10233000F021029B09F056FE5F480078072816D16D
:102340005E480AF0B3FB039000200AF0AFFB029056
:10235000039800905A48407C00EB80005E49084496
:1023600001904A22F021029B09F03CFE15E000207A
:102370000AF09CFB039051480AF098FB02900398E6
:1023800000904F48407C00EB800053490844019086
:102390004A22F021029B09F025FE4948408A024664
:1023A0004EA1039004A80FF05BFD43480078082875
:1023B00010D142480AF07AFB039000200AF076FB25
:1023C0000290039800906022F02104A8029B09F07B
:1023D00009FE0FE000200AF069FB039037480AF07D
:1023E00065FB0290039800906022F02104A8029BF4
:1023F00009F0F8FD18E230480078012817D12F487D
:102400000AF054FB039000200AF050FB029003985E
:1024100000902B48007D00EB8000324901EB40002A
:10242000019082225021029B09F0DCFD16E0002081
:102430000AF03CFB039021480AF038FB0290039815
:1024400000901F48007D00EB8000264901EB400012
:10245000019082225021029B09F0C4FD16480078A9
:10246000022817D115480AF021FB039000200AF03A
:102470001DFB0290039800901148407D00EB800006
:10248000194901EB4000019094225021029B09F070
:10249000A9FD31E000200AF009FB039007480AF08B
:1024A00005FB0290039800900548407D00EB8000FA
:1024B0000D4901EB400019E04501002032F0F00029
:1024C00064050020BF48010814490108E006002007
:1024D000E748010864490108D249010825303464FD
:1024E00000000000804A0108B24A010801909422CD
:1024F0005021029B09F076FDCE48007803281FD1B9
:10250000CD480AF0D3FA039000200AF0CFFA0290E7
:1025100003980090C948007D00EBC00101EB00105A
:10252000C74901EB4000C549897D01EB810100EB02
:1025300041000190A6225021029B09F053FD1EE0AC
:1025400000200AF0B3FA0390BB480AF0AFFA0290F9
:1025500003980090B948007D00EBC00101EB00102A
:10256000B74901EB4000B549897D01EB810100EBE2
:1025700041000190A6225021029B09F033FDAD4895
:10258000007804281FD1AC480AF090FA039000208C
:102590000AF08CFA029003980090A848007D00EBA6
:1025A000C00101EB0010A64901EB4000A349097EE0
:1025B00001EB810100EB41000190B8225021029B08
:1025C00009F010FD1EE000200AF070FA03909A480E
:1025D0000AF06CFA0290039800909848007D00EB96
:1025E000C00101EB0010964901EB40009349097EC0
:1025F00001EB810100EB41000190B8225021029BC8
:1026000009F0F0FC8B48007807281FD18A480AF0AF
:102610004DFA039000200AF049FA029003980090C6
:102620008648007D00EBC00101EB0010854901EBFD
:1026300040008249497E01EB810100EB410001909D
:10264000A622F021029B09F0CDFC1EE000200AF03A
:102650002DFA039078480AF029FA02900398009026
:102660007648007D00EBC00101EB0010754901EBDD
:1026700040007249497E01EB810100EB410001906D
:10268000A622F021029B09F0ADFCCDE06E48006867
:10269000002305221946039007F01CF900200AF0D8
:1026A00005FA03904FF46E400AF000FA0290039886
:1026B00000901E22FA216548029B09F093FC6248B3
:1026C0004068002304221946039007F003F9002014
:1026D0000AF0ECF903904FF46E400AF0E7F902902B
:1026E000039800903422FA215848029B09F07AFCA2
:1026F00050480078012810D14F480AF0D7F90390CC
:1027000000200AF0D3F90290039800901E22502175
:102710004F48029B09F066FC0FE000200AF0C6F962
:10272000039045480AF0C2F90290039800901E22D7
:1027300050214748029B09F055FC3E48007802288A
:1027400011D13D480AF0B2F9039000200AF0AEF929
:10275000029003980090342250213D480F30029B94
:1027600009F040FC10E000200AF0A0F90390324884
:102770000AF09CF9029003980090342250213448CA
:102780000F30029B09F02EFC2A480078032811D153
:1027900029480AF08BF9039000200AF087F902908B
:1027A000039800904A22502129481E30029B09F0CC
:1027B00019FC10E000200AF079F903901E480AF095
:1027C00075F90290039800904A22502120481E304B
:1027D000029B09F007FC17480078042811D116481D
:1027E0000AF064F9039000200AF060F9029003985F
:1027F00000906022502116482D30029B09F0F2FB18
:1028000010E000200AF052F903900B480AF04EF94C
:10281000029003980090602250210D482D30029BB9
:1028200009F0E0FB00E000BF00BF079807F0B4FD2F
:1028300009B000BD4501002032F0F0006405002021
:10284000E44A0108AC4B010810000020E00600201B
:102850004D480108F8B500200AF028F9054609F0AE
:10286000B5F99621322001F035FA4FF4487010F096
:102870001BFF00200AF01AF9054609F0A7F92E48B7
:1028800090F8400040BB002423E0002C07DD092C19
:1028900005DA294A9178621ED0B207F0B5FA002015
:1028A0000AF004F905466FF07F400AF0FFF806468B
:1028B00004EBC40149008A1C204901EB4410334653
:1028C0000221009509F08EFBC82001F0ECF9601C94
:1028D000C4B20A2CD9DB2DE0002427E0002C09DD4E
:1028E000052C07DA144A9178621E5206100E07F082
:1028F0008BFA01E010F0DEFF00200AF0D7F8054661
:102900006FF07F400AF0D2F8064604EBC40149009C
:102910008A1C0B4901EB441033460221009509F053
:1029200061FBC82001F0BFF9601CC4B2062CD5DBE6
:1029300010F0C0FFF8BD0000640500209D4C0108A8
:10294000DD4D010838B54DF6DC400AF0AFF804461D
:1029500012234FF4947209210090901F09F04EF950
:102960004DF6DC400AF0A2F8044623460622082170
:1029700040F2231009F022FA4DF6DC400AF096F8F6
:1029800004462346052207214FF4927009F016FAF7
:1029900000200AF08BF8044623460222092140F267
:1029A000231009F0E5FA00200AF080F804462346D7
:1029B0000322082140F2251009F0DAFA00200AF07B
:1029C00075F8044623460322082140F2271009F037
:1029D000CFFA38BDF8B50020304908700AF066F823
:1029E000054609F0F3F8022000F0F6FE002451E05D
:1029F000204604EBD0714910A4EB410121B3002023
:102A00000AF054F8064647F2CE100AF04FF807468F
:102A100004EBD471491001EB410303EBC1011E2308
:102A200003EB41018AB21E490096097D01EB810149
:102A30001C4B03EB011104EB840301EB43003B4609
:102A4000A82109F0CFFA23E000200AF02FF806466B
:102A500047F2CE100AF02AF8074604EBD471491069
:102A600001EB410303EBC1011E2303EB41018AB2D9
:102A70000B490096097D01EB81010A4B03EB011123
:102A800004EB840301EB43003B46082109F0AAFA5A
:102A9000601CC4B2082CABDBF8BD0000450100206F
:102AA0006405002009460108F8B500205649087061
:102AB00009F0FCFF054609F089F8032000F08CFEC0
:102AC000002420E0002009F0F1FF054647F2CE1077
:102AD00009F0ECFF06464D490095097DC1EB011157
:102AE000C1EBC1014A4B03EB4101C4EB0413C8180D
:102AF00004EBC401162303EB41023346082109F01D
:102B000071FA601CC4B20A2CDCDB002423E0002034
:102B100009F0CCFF054647F2CE1009F0C7FF064684
:102B20003A490095097DC1EB0111C1EBC101384B58
:102B300003EB410304F10A01C1EB01115818A11D77
:102B400001EBC101162303EB41023346A82109F032
:102B500049FA601CC4B2032CD9DB002435E0022CF6
:102B600018DA002009F0A2FF05466FF07F4009F057
:102B70009DFF064604EBC401162303EB410204EB60
:102B80008401244B03EB810033469021009509F02A
:102B900029FA18E0002009F089FF05466FF07F4010
:102BA00009F084FF0646611C01EBC101162303EB0B
:102BB000410204EB8401174B03EB81003346902163
:102BC000009509F00FFA601CC4B2052CC7DB002089
:102BD00009F06CFF05466FF07F4009F067FF06467D
:102BE00033463A22902109481A30009509F0FAF943
:102BF00009480A490A880280897881700848094989
:102C000009680160F8BD000045010020640500204E
:102C1000A9460108044A0108590100203C0100208E
:102C2000550100203801002038B5002009F03EFF92
:102C300004466FF07F4009F039FF054606490094CD
:102C40008978491E01EB8101044A88182B4601222C
:102C50005F2109F0C7F938BD64050020BF480108AD
:102C600000B587B000200590FE4890F8400000288D
:102C70007ED106902EE20698049000EBD0704110B1
:102C80000498A0EB4100002873D0F749069831F969
:102C9000100047F6FF71884245D10698401CF34961
:102CA000097888421FD16FF07F4009F0FFFE039042
:102CB000002009F0FBFE0290039800900698049013
:102CC00000EBD070401000EB400101EB00102A2116
:102CD00001EB400080B201900246D021E4A0029BAB
:102CE00009F01EF9F2E1002009F0E0FE03906FF018
:102CF0007F4009F0DBFE0290039800900698049054
:102D000000EBD070401000EB400101EB00102A21D5
:102D100001EB400080B201900246D021D4A0029B7A
:102D200009F0FEF8D2E1D049069831F81020CD48DC
:102D30003030069900EB41000088104401B2CE4AC1
:102D4000069822F810101146069831F91000002359
:102D500005220121049006F0BDFDC749069831F90E
:102D60001000C049B1F90D1088420BDCC24901E0E6
:102D7000B5E195E0069831F91000BA49B1F90F10A4
:102D8000884247DA012005900698401CB749097827
:102D900088421FD14FF47F0009F088FE0390002085
:102DA00009F084FE0290039800900698049000EBCE
:102DB000D070401000EB400101EB00102A2101EB24
:102DC000400080B201900246D021AC48029B09F03D
:102DD000A7F87BE1002009F069FE03904FF47F0023
:102DE00009F064FE0290039800900698049000EBAE
:102DF000D070401000EB400101EB00102A2101EBE4
:102E0000400080B201900246D0219C48029B09F00C
:102E100087F85BE10698401C9449097888421FD1E5
:102E20004FF46E4009F042FE0390002009F03EFE90
:102E30000290039800900698049000EBD070401028
:102E400000EB400101EB00112A2000EB410080B2B1
:102E500001900246D0218948029B09F061F835E1D2
:102E6000002009F023FE03904FF46E4009F01EFE8F
:102E70000290039800900698049000EBD0704010E8
:102E800000EB400101EB00102A2101EB400080B271
:102E900001900246D0217948029B09F041F815E1E2
:102EA0007149069831F9100047F6FF71884245D103
:102EB0000698401C6D49097888421FD16FF07F4009
:102EC00009F0F4FD0390002009F0F0FD0290039852
:102ED00000900698049000EBD070411001EB410087
:102EE00000EB01102A2101EB400080B20190024664
:102EF00030215FA0029B09F013F8E7E0002009F001
:102F0000D5FD03906FF07F4009F0D0FD029003984B
:102F100000900698049000EBD070411001EB410046
:102F200000EB01102A2101EB400080B20190024623
:102F300030214FA0029B08F0F3FFC7E04A490698F2
:102F400031F8102047483030069900EB41000088E6
:102F5000104401B2484A069822F81010114606980B
:102F600031F91000002305220121049006F0B2FC83
:102F70004149069831F910003A49B1F90D108842DB
:102F800008DC3D49069831F910003649B1F90F10B7
:102F9000884247DA012005900698401C3349097899
:102FA00088421FD14FF47F0009F080FD039000207C
:102FB00009F07CFD0290039800900698049000EBC5
:102FC000D070411001EB410000EB01102A2101EB10
:102FD000400080B20190024630212848029B08F050
:102FE0009FFF73E0002009F061FD03904FF47F0024
:102FF00009F05CFD0290039800900698049000EBA5
:10300000D070401000EB400101EB00102A2101EBD1
:10301000400080B20190024630211848029B08F01F
:103020007FFF53E00698401C1049097888422ED152
:103030004FF46E4009F03AFD0390002009F036FD90
:103040000290039800900698049000EBD070401016
:1030500000EB400101EB00102A2101EB400080B29F
:1030600001900DE0640500200807002045010020C4
:103070002D2D2D2D2D2D0000A6050020E006002071
:1030800002463021F748029B08F04AFF1EE000206C
:1030900009F00CFD03904FF46E4009F007FD02901B
:1030A000039800900698049000EBD070401000EB5D
:1030B000400101EB00102A2101EB400080B2019099
:1030C00002463021E748029B08F02AFF0698401C80
:1030D000C0B2069006980828FFF6CDAD39E2002070
:1030E000069032E20698049000EBD07041100498EC
:1030F000A0EB410000287DD006984000DA4931F964
:10310000100047F6FF71884247D10698401CD74906
:103110000978884220D16FF07F4009F0C7FC039006
:10312000002009F0C3FC02900398009006980490D8
:1031300000EBD070411001EB410000EB01103D218C
:1031400001EB800080B201900246D021AFF2E00096
:10315000029B08F0E5FEF4E1002009F0A7FC0390D3
:103160006FF07F4009F0A2FC02900398009006984F
:10317000049000EBD070401000EB400101EB001018
:103180003D2101EB800080B201900246D021AFF2D8
:103190002010029B08F0C4FED3E106984000B2491B
:1031A00031F81020B248069900EB41000088104425
:1031B00001B2B04A069822F810101146069831F96B
:1031C0001000002305220121049006F083FBA94989
:1031D000069831F91000A6493039B1F90D1088422E
:1031E0000BDCA449069831F91000A1493039B1F936
:1031F0000F1000E08FE0884247DA01200590069822
:10320000401C9A49097888421FD14FF47F0009F089
:103210004DFC0390002009F049FC029003980090B7
:103220000698049000EBD070411001EB410000EBD8
:1032300001103D2101EB800080B201900246D021B7
:103240008848029B08F06CFE7BE1002009F02EFC10
:1032500003904FF47F0009F029FC0290039800903E
:103260000698049000EBD070411001EB410000EB98
:1032700001113D2000EB810080B201900246D02177
:103280007848029B08F04CFE5BE10698401C7749A9
:10329000097888421FD14FF46E4009F007FC039073
:1032A000002009F003FC0290039800900698049017
:1032B00000EBD070411001EB410000EB01103D210B
:1032C00001EB800080B201900246D0216548029B4C
:1032D00008F026FE35E1002009F0E8FB03904FF4EA
:1032E0006E4009F0E3FB029003980090069804906A
:1032F00000EBD070401000EB400101EB00103D21CD
:1033000001EB800080B201900246D0215548029B1B
:1033100008F006FE15E106984000534931F9100007
:1033200047F6FF71884247D10698401C4F490978FB
:10333000884220D16FF07F4009F0B8FB0390002055
:1033400009F0B4FB0290039800900698049000EBFB
:10335000D070401000EB400101EB00113D2000EB6C
:10336000810080B2019002463021AFF2FC20029B26
:1033700008F0D6FDE5E0002009F098FB03906FF01F
:103380007F4009F093FB0290039800900698049008
:1033900000EBD070411001EB410000EB01103D212A
:1033A00001EB800080B2019002463021AFF2403044
:1033B000029B08F0B5FDC4E0069840002A4931F8A8
:1033C00010202B48069900EB41000088104401B200
:1033D000284A069822F810101146069831F9100074
:1033E000002305220121049006F074FA2149069871
:1033F00031F910001E493039B1F90D10884209DC4D
:103400001C49069831F9100019493039B1F90F10EB
:10341000884251DA012005900698401C134909782A
:10342000884229D14FF47F0009F040FB039000202F
:1034300009F03CFB0290039800900698049000EB82
:10344000D070411001EB410000EB01103D2101EB78
:10345000800080B20190024630210248029B08F0B1
:103460005FFD6EE0E0060020080700204501002017
:1034700094050020A6050020002009F017FB03900A
:103480004FF47F0009F012FB029003980090069819
:10349000049000EBD070401000EB400101EB0010F5
:1034A0003D2101EB800080B201900246302133487B
:1034B000029B08F035FD44E00698401C304909782D
:1034C00088421FD14FF46E4009F0F0FA03900020BB
:1034D00009F0ECFA0290039800900698049000EB33
:1034E000D070411001EB410000EB01103D2101EBD8
:1034F000800080B20190024630212048029B08F0F3
:103500000FFD1EE0002009F0D1FA03904FF46E4049
:1035100009F0CCFA0290039800900698049000EB12
:10352000D070411001EB410000EB01103D2101EB97
:10353000800080B20190024630211048029B08F0C2
:10354000EFFC0698401CC0B2069006980428FFF6CF
:10355000C9AD0598012808D10A48007B28B9012285
:10356000D102094803F086FC05E000224FF4006117
:10357000054803F07FFC07B000BD0000E006002016
:103580004501002064050020000C014070B50020BA
:103590002C49087009F08AFA054608F017FB01204B
:1035A00000F01AF9FFF740FB00F030F9FEF7CEFA11
:1035B00000242EE0244890F84000012817D120462E
:1035C00004EBD0714910A4EB410101BB6FF07F40C7
:1035D00009F06CFA0546262204FB02F000F11E01F8
:1035E0002B4640F23F12012008F0E8FB0FE06FF09D
:1035F0007F4009F05BFA0546262204FB02F000F149
:103600001E012B4640F23F12012008F0D7FB601C40
:10361000C4B2052CCEDB002410E06FF07F4009F02F
:1036200045FA054604EB84014901491C88B22B4642
:1036300098221E2108F09CFC601CC4B2032CECDB19
:1036400070BD0000450100206405002030B587B042
:1036500051480078012802D003287CD136E04F4938
:103660004F4809F06FFA4D48807800904B484378F6
:1036700002784CA104A80EF0F3FB49488078009032
:1036800047484378C2784BA101A80EF0E9FB00201F
:1036900009F00CFA04464C4809F008FA05462B4696
:1036A0000122AA2104A8009408F09CFC002009F043
:1036B000FDF90446444809F0F9F905462B46C022B5
:1036C000B42101A8009408F08DFC61E0334934482E
:1036D00009F038FA3D48807800903C4843780278F9
:1036E00030A104A80EF0BCFB39488078009038481F
:1036F0004378C2782FA101A80EF0B2FB35480078BC
:1037000005280FD1304809F0D1F90446002009F00E
:10371000CDF905462B468222F02101A8009408F03D
:1037200061FC0EE0002009F0C1F90446264809F0CA
:10373000BDF905462B468222F02101A8009408F02D
:1037400051FC24480078062811D11F4809F0AEF931
:103750000446002000E01AE009F0A8F905462B46CF
:103760009422F02104A8009408F03CFC0EE0002014
:1037700009F09CF90446144809F098F905462B46CF
:103780009422F02104A8009408F02CFC00E000BF73
:1037900000BF07B030BD0000460100203C01002002
:1037A00038010020253032643A253032643A253021
:1037B000326400003230253032642D253032642DE1
:1037C000253032640000000032F0F0005901002082
:1037D0005501002045010020F8B504464FF46E4025
:1037E00009F064F90546002009F060F90646611EFB
:1037F000C1EB0111044A8818334601221146009595
:1038000008F0F0FBF8BD00007345010838B5002052
:1038100009F04CF904466FF07F4009F047F905467E
:103820002B4603227F2115A0009408F0DBFB00202B
:1038300009F03CF904466FF07F4009F037F905467E
:103840002B4603229F210EA0009408F0CBFB002002
:1038500009F02CF904466FF07F4009F027F905467E
:1038600008490094897A01EB4101074A88182B46E0
:1038700001228F2108F0B6FB38BD000028000000AF
:103880002900000064050020E748010838B52148F8
:1038900009F00CF9044609234FF4807206210090C8
:1038A000FA2008F0ABF9002009F000F904460723DC
:1038B000FC2219460090104608F0A0F9002009F0FB
:1038C000F5F804460723FE2219460090104608F03A
:1038D00095F9104809F0EAF80446112340F2011264
:1038E0000A210090F92008F089F90A4809F0DEF869
:1038F0000446234607221221FA2008F05FFA054801
:1039000009F0D4F80446234603221321FC2008F0D2
:1039100055FA38BD2176EE002DE9F84304460D46F0
:1039200017461E46DDF820806FF07F4009F0BEF894
:1039300081467B1E9AB26B1C99B2631C98B24B46AF
:1039400008F03CFA6FF07F4009F0B0F88146731E32
:103950009AB26B1C99B2631C98B24B4608F008FBF4
:103960006FF07F4009F0A2F88146731E9AB26B1C7B
:1039700099B2A31C98B24B4608F0FAFA002009F05D
:1039800095F881464B463A462946204608F016FAF5
:10399000002009F08BF881464B46324629462046E6
:1039A00008F0E6FA002009F081F88146E11988B2B2
:1039B0004B463246294608F0DBFA002009F076F83B
:1039C0008146711C8AB2E119491C88B24B462946CE
:1039D00008F0CEFA002009F069F88146781C82B21E
:1039E000A81981B24B46204608F0E8F905EB060C11
:1039F000ACF1010C1FFA8CF304EB070CACF1010CD9
:103A00001FFA8CF205F1020C1FFA8CF104F1030C81
:103A10001FFA8CF0CDF8008008F0F0F8BDE8F883CC
:103A200070B504466FF07F4009F040F8054608F095
:103A3000CDF8012C06D0022C1BD0032C32D0042C44
:103A400060D146E04FF47F0009F030F805462B4680
:103A50000A221421084608F0B1F94FF47F0009F05A
:103A600025F805462B460A220F21192008F080FA76
:103A700048E04FF47F0009F019F805462B460A226A
:103A800014214FF4967008F099F94FF47F0009F073
:103A90000DF805462B460A220F2140F2311008F09E
:103AA00067FA2FE04FF47F0009F000F805462B4637
:103AB0000A22DC21142008F081F94FF47F0008F07D
:103AC000F5FF05462B460A22D721192008F050FAA7
:103AD00018E04FF47F0008F0E9FF05462B460A2264
:103AE000DC214FF4967008F069F94FF47F0008F07C
:103AF000DDFF05462B460A22D72140F2311008F09F
:103B000037FA00BF00BF70BD10B501221021044874
:103B100003F0B0F900F07CF800F022F810BD0000CE
:103B2000001001401FB510200090012002900020DD
:103B30000190022003906946014802F0F3FF1FBD87
:103B4000001001401FB510200090012001900220BC
:103B500003906946014802F0E5FF1FBD00100140D7
:103B600010B50024FFF7DEFF04E0601CC4B20120A2
:103B70000FF0B8FD10210F4803F074F908B1642C60
:103B8000F3DB642C01DB012010BD002404E0601C89
:103B9000C4B201200FF0A6FD1021064803F062F91F
:103BA00008B9F02CF3DBF02C01DB0120ECE700205E
:103BB000EAE700000010014070B50024002520E075
:103BC000FFF7C0FF00221021104803F053F9022034
:103BD0000FF088FD012210210C4803F04BF9FFF78C
:103BE000A1FF0A200FF07EFD64101021074803F0AA
:103BF00039F908B144F080043C200FF073FD681CD3
:103C0000C5B2082DDCDB204670BD0000001001406D
:103C100010B5FFF797FF00221021084803F02AF99A
:103C200040F2EE200FF05EFD01221021034803F068
:103C300021F90F200FF056FD10BD000000100140CB
:103C400070B50446FFF77EFF002526E004F001066C
:103C5000641086B100221021114803F00BF90220F4
:103C60000FF040FD012210210D4803F003F93C2024
:103C70000FF038FD0FE000221021094803F0FAF898
:103C800046200FF02FFD01221021054803F0F2F825
:103C900002200FF027FD681CC5B2082DD6DB70BDD1
:103CA00000100140704706E042F63D0100E0491E69
:103CB0000029FCD1401E0028F6D1704706E00A21F9
:103CC00001E04A1ED1B20029FBDC401E0028F6D1DB
:103CD0007047000003B587B0FE4808F0E7FE0346D2
:103CE00029220690DDE9070108F068F8F94808F094
:103CF000DDFE06900898401E80B205900798401E91
:103D000080B204902C22DDE9051308F057F8F14841
:103D100008F0CCFE06900898801E80B205900798A7
:103D2000401E80B204902E22DDE9051308F046F80B
:103D3000E84808F0BBFE06900898C01E80B20590C7
:103D40002E220146DDE9063008F038F8E14808F097
:103D5000ADFE06900898001F80B205900798801C61
:103D600080B204902E22DDE9051308F027F8D94827
:103D700008F09CFE06900898401F80B205900798B6
:103D8000233080B204900E22DDE9051308F016F806
:103D9000D04808F08BFE06900898801F80B20590EE
:103DA0000798233080B204900F22DDE9051308F054
:103DB00005F8C84808F07AFE06900898C01F80B23F
:103DC00005900798233080B204900F22DDE9051397
:103DD00007F0F4FFBF4808F069FE0690089808381D
:103DE00080B205900798243080B204900E22DDE95D
:103DF000051307F0E3FFB74808F058FE069008984F
:103E0000093880B205900798243080B204900F22C0
:103E1000DDE9051307F0D2FFAE4808F047FE069033
:103E200008980A3880B205900798253080B204902F
:103E30000E22DDE9051307F0C1FFA64808F036FEA3
:103E4000069008980B3880B205900798253080B20C
:103E500004900E22DDE9051307F0B0FF9D4808F03D
:103E600025FE069008980C3880B2059007982530FA
:103E700080B204900E22DDE9051307F09FFF9548FC
:103E800008F014FE069008980D3880B20590079847
:103E9000263080B204900E22DDE9051307F08EFF74
:103EA0008C4808F003FE069008980E3880B2059002
:103EB0000798253080B204900F22DDE9051307F042
:103EC0007DFF844808F0F2FD069008980F3880B214
:103ED00005900798263080B204900E22DDE9051384
:103EE00007F06CFF7B4808F0E1FD06900898103859
:103EF00080B205900798263080B204900E22DDE94A
:103F0000051307F05BFF734808F0D0FD0690089892
:103F1000113880B205900798263080B204900F22A5
:103F2000DDE9051307F04AFF6A4808F0BFFD069077
:103F30000898123880B205900798273080B2049014
:103F40000E22DDE9051307F039FF624808F0AEFDE7
:103F500006900898133880B205900798273080B2F1
:103F600004900E22DDE9051307F028FF594808F0F8
:103F70009DFD06900898143880B205900798273068
:103F800080B204900F22DDE9051307F017FF5148B6
:103F900008F08CFD06900898153880B205900798B7
:103FA000283080B204900E22DDE9051307F006FFE9
:103FB000484808F07BFD06900898163880B20590B6
:103FC0000798283080B204900E22DDE9051307F02F
:103FD000F5FE404808F06AFD06900898173880B250
:103FE00005900798283080B204900E22DDE9051371
:103FF00007F0E4FE374808F059FD06900898183895
:1040000080B205900798283080B204900E22DDE936
:10401000051307F0D3FE2F4808F048FD06900898D6
:10402000193880B205900798293080B204900D228B
:10403000DDE9051307F0C2FE264808F037FD0690BB
:1040400008981A3880B205900798293080B20490F9
:104050000E22DDE9051307F0B1FE1E4808F026FD2B
:10406000069008981B3880B205900798293080B2D6
:1040700004900E22DDE9051307F0A0FE154808F0B4
:1040800015FD069008981C3880B2059007982A30D4
:1040900080B204900E22DDE9051307F08FFE0D4873
:1040A00008F004FD069008981D3880B20590079826
:1040B0002A3080B204900E22DDE9051307F07EFE5F
:1040C000044808F0F3FC069008981E3880B205906A
:1040D000079801E02176EE002A3080B204900E228B
:1040E000DDE9051307F06AFEFE4808F0DFFC0690E4
:1040F00008981F3880B2059007982A3080B2049043
:104100000F22DDE9051307F059FEF64808F0CEFC52
:1041100006900898203880B2059007982A3080B21F
:1041200004900F22DDE9051307F048FEED4808F082
:10413000BDFC06900898213880B2059007982B3076
:1041400080B204900D22DDE9051307F037FEE54843
:1041500008F0ACFC06900898223880B205900798C9
:104160002B3080B204900E22DDE9051307F026FE05
:10417000DC4808F09BFC06900898233880B2059034
:1041800007982C3080B204900D22DDE9051307F06A
:1041900015FED44808F08AFC06900898243880B2AE
:1041A000059007982C3080B204900E22DDE90513AB
:1041B00007F004FECB4808F079FC069008982538F3
:1041C00080B2059007982C3080B204900E22DDE971
:1041D000051307F0F3FDC34808F068FC0690089843
:1041E000263880B2059007982C3080B204900F22B8
:1041F000DDE9051307F0E2FDBA4808F057FC069028
:104200000898273880B2059007982C3080B2049027
:104210000F22DDE9051307F0D1FDB24808F046FC96
:1042200006900898283880B2059007982D3080B203
:1042300004900E22DDE9051307F0C0FDA94808F03F
:1042400035FC06900898293880B2059007982D30E3
:1042500080B204900E22DDE9051307F0AFFDA148FE
:1042600008F024FC069008982A3880B20590079838
:104270002D3080B204900F22DDE9051307F09EFD7A
:10428000984808F013FC069008982B3880B20590E7
:1042900007982D3080B204900F22DDE9051307F056
:1042A0008DFD904808F002FC069008982C3880B2EA
:1042B000059007982E3080B204900E22DDE9051398
:1042C00007F07CFD874808F0F1FB069008982D3830
:1042D00080B2059007982E3080B204900E22DDE95E
:1042E000051307F06BFD7F4808F0E0FB0690089887
:1042F0002E3880B2059007982E3080B204900F229D
:10430000DDE9051307F05AFD764808F0CFFB06906B
:1043100008982F3880B2059007982F3080B204900B
:104320000E22DDE9051307F049FD6E4808F0BEFBDB
:1043300006900898303880B2059007982F3080B2E8
:1043400004900E22DDE9051307F038FD654808F0FA
:10435000ADFB06900898313880B2059007982F3051
:1043600080B204900F22DDE9051307F027FD5D48B8
:1043700008F09CFB06900898323880B205900798A8
:104380002F3080B204900F22DDE9051307F016FDEF
:10439000544808F08BFB06900898333880B205909B
:1043A0000798303080B204900E22DDE9051307F043
:1043B00005FD4C4808F07AFB06900898343880B226
:1043C00005900798303080B204900E22DDE9051385
:1043D00007F0F4FC434808F069FB0690089835386C
:1043E00080B205900798303080B204900E22DDE94B
:1043F000051307F0E3FC3B4808F058FB06900898CB
:10440000363880B205900798313080B204900D2282
:10441000DDE9051307F0D2FC324808F047FB0690AF
:104420000898373880B205900798313080B20490F0
:104430000E22DDE9051307F0C1FC2A4808F036FB1F
:10444000069000900898333880B205900798543051
:1044500080B204900898363880B2039007984830AC
:1044600080B2029003A90EC907F0C8FB1D4808F0EE
:104470001DFB06900898343880B2059007984730A5
:1044800080B204900D22DDE9051307F097FC154872
:1044900008F00CFB0690009008982F3880B2059029
:1044A0000798533080B204900898333880B2039054
:1044B0000798473080B2029003A90EC907F09EFB0F
:1044C000084808F0F3FA0690009008982C3880B25B
:1044D00005900798523080B2049008982F3880B227
:1044E000039001E02176EE000798463080B20290FA
:1044F00003A90EC907F082FBFE4808F0D7FA069020
:104500000898283880B205900798443080B204900B
:104510000E22DDE9051307F051FCF64808F0C6FA53
:1045200006900898273880B205900798453080B2E9
:1045300004900D22DDE9051307F040FCED4808F07A
:10454000B5FA06900898263880B20590079844304E
:1045500080B204900D22DDE9051307F02FFCE54839
:1045600008F0A4FA06900898253880B205900798BC
:10457000443080B204900C22DDE9051307F01EFCE4
:10458000DC4808F093FA069000900898213880B231
:1045900005900798503080B204900898243880B273
:1045A00003900798433080B2029003A90EC907F028
:1045B00025FBD04808F07AFA06900898213880B296
:1045C00005900798433080B204900C22DDE9051372
:1045D00007F0F4FBC74808F069FA069000900898C5
:1045E0001D3880B2059007984F3080B2049008982B
:1045F000203880B203900798423080B2029003A91D
:104600000EC907F0FBFABB4808F050FA069008986C
:104610001D3880B205900798423080B204900C2279
:10462000DDE9051307F0CAFBB24808F03FFA06902F
:10463000009008981A3880B2059007984E3080B2E2
:10464000049008981C3880B203900798413080B2DB
:10465000029003A90EC907F0D1FAA64808F026FA7D
:10466000069008981A3880B205900798413080B2B9
:1046700004900C22DDE9051307F0A0FB9D4808F02B
:1046800015FA069000900898163880B205900798A1
:104690004D3080B204900898193880B20390079882
:1046A000403080B2029003A90EC907F0A7FA9148E2
:1046B00008F0FCF906900898163880B20590079823
:1046C0003F3080B204900E22DDE9051307F076FB3F
:1046D000884808F0EBF9069000900898133880B2EB
:1046E000059007984C3080B204900898153880B235
:1046F000039007983F3080B2029003A90EC907F0DB
:104700007DFA7C4808F0D2F906900090089811389C
:1047100080B2059007984B3080B204900898133807
:1047200080B2039007983F3080B2029003A90EC96F
:1047300007F064FA6F4808F0B9F906900898113844
:1047400080B2059007983E3080B204900D22DDE9DA
:10475000051307F033FB674808F0A8F906900090AE
:1047600008980E3880B2059007984A3080B20490BD
:104770000898103880B2039007983E3080B20290BB
:1047800003A90EC907F03AFA5A4808F08FF90690C3
:10479000009008980B3880B2059007984A3080B294
:1047A000049008980E3880B2039007983D3080B28C
:1047B000029003A90EC907F021FA4E4808F076F9D5
:1047C000069008980B3880B2059007983D3080B26B
:1047D00004900C22DDE9051307F0F0FA454808F0D3
:1047E00065F9069000900898C01F80B20590079860
:1047F000493080B2049008980A3880B20390079834
:104800003C3080B2029003A90EC907F0F7F939488D
:1048100008F04CF9069000900898401F80B205906F
:104820000798483080B204900898C01F80B2039067
:1048300007983B3080B2029003A90EC907F0DEF959
:104840002C4808F033F9069000900898C01E80B2FA
:1048500005900798473080B204900898401F80B2B6
:10486000039007983A3080B2029003A90EC907F06E
:10487000C5F9204808F01AF906900898C01E80B2C1
:10488000059007983A3080B204900E22DDE90513B6
:1048900007F094FA174808F009F906900090089874
:1048A00080B205900798473080B204900898801E27
:1048B00080B2039007983A3080B2029003A90EC9E3
:1048C00007F09CF90B4808F0F1F8069007983A3089
:1048D00080B205900C22069B089907F06FFA0548F4
:1048E00008F0E4F806900898283880B205900798F8
:1048F000583001E02176EE0080B204901722DDE905
:10490000051307F05BFAFE4808F0D0F80690089807
:10491000273880B205900798553080B204901B224A
:10492000DDE9051307F04AFAF54808F0BFF80690EC
:104930000898263880B205900798543080B20490C9
:104940001E22DDE9051307F039FAED4808F0AEF84C
:1049500006900898253880B205900798533080B2A9
:1049600004902022DDE9051307F028FAE44808F056
:104970009DF806900898243880B205900798533027
:1049800080B204900322DDE9051307F017FADC4832
:1049900008F08CF806900898243880B205900798A3
:1049A000683080B204900C22DDE9051307F006FAA6
:1049B000D34808F07BF806900898233880B2059019
:1049C0000798533080B204900122DDE9051307F007
:1049D000F5F9CB4808F06AF806900898233880B2B9
:1049E00005900798683080B204900C22DDE9051329
:1049F00007F0E4F9C24808F059F8069000900898CA
:104A00001F3880B205900798743080B204900898DF
:104A1000223880B203900798683080B2029003A9D0
:104A20000EC907F0EBF8B64808F040F80690009081
:104A300008981C3880B205900798743080B20490B2
:104A400008981F3880B203900798673080B20290B0
:104A500003A90EC907F0D2F8A94808F027F8069074
:104A600008981C3880B205900798663080B2049090
:104A70000D22DDE9051307F0A1F9A14808F016F8A9
:104A8000069008981B3880B205900798673080B26E
:104A900004900C22DDE9051307F090F9984808F01E
:104AA00005F8069008981A3880B205900798663085
:104AB00080B204900D22DDE9051307F07FF99048DC
:104AC00007F0F4FF069000900898173880B2059020
:104AD0000798723080B204900898193880B2039019
:104AE0000798653080B2029003A90EC907F086F8D6
:104AF000834807F0DBFF069000900898153880B2D5
:104B000005900798713080B204900898173880B2E9
:104B100003900798653080B2029003A90EC907F090
:104B20006DF8774807F0C2FF069000900898123899
:104B300080B205900798713080B2049008981538BB
:104B400080B203900798643080B2029003A90EC926
:104B500007F054F86A4807F0A9FF069000900898FB
:104B60000F3880B205900798703080B20490089892
:104B7000123880B203900798633080B2029003A984
:104B80000EC907F03BF85E4807F090FF06900898C2
:104B90000F3880B205900798633080B204900C22E1
:104BA000DDE9051307F00AF9554807F07FFF069085
:104BB000009008980B3880B2059007986F3080B24B
:104BC000049008980E3880B203900798623080B243
:104BD000029003A90EC907F011F8494807F066FFD3
:104BE000069008980B3880B205900798623080B222
:104BF00004900C22DDE9051307F0E0F8404807F0C7
:104C000055FF069008980A3880B2059007986130E1
:104C100080B204900D22DDE9051307F0CFF8384883
:104C200007F044FF069000900898401F80B205905E
:104C300007986D3080B204900898093880B20390CC
:104C40000798613080B2029003A90EC906F0D6FF22
:104C50002B4807F02BFF069000900898801E80B22A
:104C6000059007986C3080B204900898401F80B27D
:104C700003900798603080B2029003A90EC906F035
:104C8000BDFF1F4807F012FF069000900898401CD7
:104C900080B2059007986C3080B204900898801E0E
:104CA00080B2039007985F3080B2029003A90EC9CA
:104CB00006F0A4FF124807F0F9FE0690089838386D
:104CC00080B2059007987F3080B204900C22DDE915
:104CD000051307F073F80A4807F0E8FE0690009005
:104CE0000898343880B2059007988B3080B20490D1
:104CF0000898373880B2039007987E3080B201E080
:104D00002176EE00029003A90EC906F077FFFE4857
:104D100007F0CCFE069000900898323880B20590DB
:104D200007988A3080B204900898343880B2039093
:104D300007987E3080B2029003A90EC906F05EFF8C
:104D4000F14807F0B3FE069000900898303880B222
:104D500005900798893080B204900898323880B264
:104D6000039007987D3080B2029003A90EC906F027
:104D700045FFE54807F09AFE06900898303880B263
:104D8000059007987C3080B204900D22DDE9051370
:104D900007F014F8DC4807F089FE069008982F38D1
:104DA00080B2059007987C3080B204900C22DDE937
:104DB000051307F003F8D44807F078FE069008982A
:104DC0002E3880B2059007987C3080B204900D2276
:104DD000DDE9051306F0F2FFCB4807F067FE069009
:104DE00008982D3880B2059007987C3080B20490E6
:104DF0000C22DDE9051306F0E1FFC34807F056FE7B
:104E00000690009008982A3880B20590079888305C
:104E100080B2049008982C3880B2039007987B30B9
:104E200080B2029003A90EC906F0E8FEB64807F06A
:104E30003DFE069000900898273880B205900798AC
:104E4000873080B2049008982A3880B2039007987F
:104E50007B3080B2029003A90EC906F0CFFEAA48AB
:104E600007F024FE06900898293880B2059007982C
:104E7000993080B204900C22DDE9051306F09EFF04
:104E8000A14807F013FE06900898283880B20590D4
:104E90000798973080B204900D22DDE9051306F0E3
:104EA0008DFF994807F002FE06900898273880B2D7
:104EB000059007987A3080B204900D22DDE9051341
:104EC00006F07CFF904807F0F1FD0690089827381F
:104ED00080B205900798963080B204900C22DDE9EC
:104EE000051306F06BFF884807F0E0FD0690009080
:104EF0000898243880B205900798863080B20490D4
:104F00000898263880B2039007987A3080B20290D1
:104F100003A90EC906F072FE7B4807F0C7FD069094
:104F20000898263880B205900798943080B2049093
:104F30000D22DDE9051306F041FF734807F0B6FDC9
:104F400006900898253880B205900798933080B273
:104F500004900C22DDE9051306F030FF6A4807F0E3
:104F6000A5FD069000900898213880B2059007981A
:104F7000863080B204900898243880B20390079855
:104F8000793080B2029003A90EC906F037FE5E4860
:104F900007F08CFD06900898243880B20590079899
:104FA000923080B204900C22DDE9051306F006FF72
:104FB000554807F07BFD06900898233880B205908D
:104FC0000798913080B204900B22DDE9051306F0BA
:104FD000F5FE4D4807F06AFD06900898223880B229
:104FE000059007988F3080B204900C22DDE90513FC
:104FF00006F0E4FE444807F059FD06900898213871
:1050000080B205900798783080B204900D22DDE9D7
:10501000051306F0D3FE3C4807F048FD06900898BB
:10502000213880B2059007988D3080B204900D220F
:10503000DDE9051306F0C2FE334807F037FD0690A0
:105040000898203880B205900798793080B2049093
:105050000C22DDE9051306F0B1FE2B4807F026FD12
:1050600006900898203880B2059007988C3080B25E
:1050700004900C22DDE9051306F0A0FE224807F09B
:1050800015FD069008981F3880B205900798783073
:1050900080B204900D22DDE9051306F08FFE1A4858
:1050A00007F004FD069008981F3880B20590079815
:1050B0008A3080B204900D22DDE9051306F07EFEF1
:1050C000114807F0F3FC069008981E3880B205904E
:1050D0000798783080B204900C22DDE9051306F0C1
:1050E0006DFE094807F0E2FC069008981E3880B271
:1050F00005900798893080B204900D22DDE90513F0
:1051000006F05CFE004801E02176EE0007F0CEFCE0
:10511000069008981D3880B205900798773080B2C5
:1051200004900D22DDE9051306F048FEFE4807F065
:10513000BDFC069008981D3880B20590079887300E
:1051400080B204900F22DDE9051306F037FEF64821
:1051500007F0ACFC069008981C3880B205900798C0
:10516000773080B204900C22DDE9051306F026FEAC
:10517000ED4807F09BFC069008981C3880B205901B
:105180000798863080B204901022DDE9051306F0FE
:1051900015FEE54807F08AFC069008981B3880B297
:1051A00005900798773080B204901F22DDE905133F
:1051B00006F004FEDC4807F079FC069008981A38DF
:1051C00080B205900798763080B204901F22DDE906
:1051D000051306F0F3FDD44807F068FC0690089824
:1051E000193880B205900798763080B2049020225A
:1051F000DDE9051306F0E2FDCB4807F057FC069009
:105200000898183880B205900798763080B20490DC
:105210002022DDE9051306F0D1FDC34807F046FC66
:1052200006900898173880B205900798753080B2BC
:1052300004902122DDE9051306F0C0FDBA4807F00D
:1052400035FC06900898163880B20590079876309D
:1052500080B204901322DDE9051306F0AFFDB248D9
:1052600007F024FC06900898163880B2059007983D
:105270008A3080B204900C22DDE9051306F09EFD11
:10528000A94807F013FC06900898153880B20590DD
:105290000798753080B204901322DDE9051306F0FB
:1052A0008DFDA14807F002FC06900898153880B2E1
:1052B000059007988A3080B204900C22DDE905132E
:1052C00006F07CFD984807F0F1FB0690089814382A
:1052D00080B205900798753080B204901222DDE903
:1052E000051306F06BFD904807F0E0FB0690089868
:1052F000143880B2059007988A3080B204900D224D
:10530000DDE9051306F05AFD874807F0CFFB06904C
:105310000898133880B205900798743080B20490D2
:105320001122DDE9051306F049FD7F4807F0BEFBB9
:1053300006900898133880B2059007988A3080B29A
:1053400004900D22DDE9051306F038FD764807F0DC
:10535000ADFB06900898123880B20590079874301B
:1053600080B204901022DDE9051306F027FD6E4897
:1053700007F09CFB06900898123880B205900798B9
:105380008A3080B204900E22DDE9051306F016FD86
:10539000654807F08BFB06900898113880B205909D
:1053A0000798743080B204900E22DDE9051306F0F0
:1053B00005FD5D4807F07AFB06900898113880B229
:1053C000059007988A3080B204900E22DDE905131B
:1053D00006F0F4FC544807F069FB06900898103872
:1053E00080B205900798743080B204900D22DDE9F8
:1053F000051306F0E3FC4C4807F058FB06900898AC
:10540000103880B2059007988A3080B204900E223E
:10541000DDE9051306F0D2FC434807F047FB069090
:10542000009008980C3880B205900798803080B2C0
:10543000049008980F3880B203900798733080B2B8
:10544000029003A90EC906F0D9FB374807F02EFBDE
:10545000069008980C3880B205900798733080B297
:1054600004900C22DDE9051306F0A8FC2E4807F095
:105470001DFB069000900898083880B205900798A8
:105480007F3080B2049008980B3880B20390079860
:10549000723080B2029003A90EC906F0AFFB224819
:1054A00007F004FB06900898083880B2059007982A
:1054B000723080B204900C22DDE9051306F07EFC08
:1054C000194807F0F3FA069000900898001F80B280
:1054D000059007987E3080B204900898C01F80B273
:1054E00003900798713080B2029003A90EC906F0AC
:1054F00085FB0D4807F0DAFA06900898001F80B285
:1055000005900798703080B204900E22DDE90513F3
:1055100006F054FC044807F0C9FA06900090089879
:1055200080B20590079801E02176EE007D3080B2D0
:1055300004900898C01E80B203900798703080B223
:10554000029003A90EC906F059FBFE4807F0AEFA17
:1055500006900798703080B205900C22069B08993F
:1055600006F02CFCF74807F0A1FA06900090089886
:105570000C3880B205900798983080B20490089853
:105580000F3880B2039007988B3080B2029003A945
:105590000EC906F033FBEB4807F088FA069000903E
:1055A00008980A3880B205900798993080B2049024
:1055B00008980C3880B2039007988B3080B2029024
:1055C00003A90EC906F01AFBDE4807F06FFA069031
:1055D00000900898C01F80B205900798993080B25B
:1055E000049008980A3880B2039007988C3080B2F3
:1055F000029003A90EC906F001FBD24807F056FA43
:10560000069000900898001F80B2059007989A3085
:1056100080B204900898C01F80B2039007988C3025
:1056200080B2029003A90EC906F0E8FAC54807F057
:105630003DFA069000900898801E80B20590079869
:105640009B3080B204900898001F80B203900798A6
:105650008C3080B2029003A90EC906F0CFFAB94887
:1056600007F024FA06900898801E80B205900798EB
:105670008D3080B204900E22DDE9051306F09EFB0A
:10568000B04807F013FA06900898401E80B20590C3
:1056900007988F3080B204900C22DDE9051306F0E4
:1056A0008DFBA84807F002FA06900798913080B267
:1056B00005900A22069B089906F080FBA14807F096
:1056C000F5F906900898293880B205900798AD3012
:1056D00080B204902322DDE9051306F06FFB9948A0
:1056E00007F0E4F906900898283880B205900798EA
:1056F000AB3080B204902722DDE9051306F05EFB93
:10570000904807F0D3F906900898273880B20590A2
:105710000798A93080B204902922DDE9051306F02C
:105720004DFB884807F0C2F906900898263880B2E9
:1057300005900798A83080B204902B22DDE905136C
:1057400006F03CFB7F4807F0B1F906900898253831
:1057500080B205900798A73080B204900D22DDE951
:10576000051306F02BFB774807F0A0F90690089880
:10577000253880B205900798C63080B204900D227B
:10578000DDE9051306F01AFB6E4807F08FF9069065
:105790000898243880B205900798A63080B204900B
:1057A0000D22DDE9051306F009FB664807F07EF9D6
:1057B00006900898243880B205900798C73080B2C8
:1057C00004900D22DDE9051306F0F8FA5D4807F0B4
:1057D0006DF906900898233880B205900798A63096
:1057E00080B204900C22DDE9051306F0E7FA554873
:1057F00007F05CF906900898233880B20590079866
:10580000C63080B204900E22DDE9051306F0D6FA08
:105810004C4807F04BF906900898223880B2059062
:105820000798A53080B204900D22DDE9051306F03B
:10583000C5FA444807F03AF906900898223880B231
:1058400005900798C63080B204900E22DDE905135A
:1058500006F0B4FA3B4807F029F906900898213879
:1058600080B205900798A53080B204900D22DDE942
:10587000051306F0A3FA334807F018F906900898C4
:10588000213880B205900798C63080B204900D226E
:10589000DDE9051306F092FA2A4807F007F90690A9
:1058A0000898203880B205900798A53080B20490FF
:1058B0000D22DDE9051306F081FA224807F0F6F81B
:1058C00006900898203880B205900798C63080B2BC
:1058D00004900D22DDE9051306F070FA194807F06F
:1058E000E5F80690009008981D3880B2059007985A
:1058F000B23080B2049008981F3880B203900798A5
:10590000A43080B2029003A90EC906F077F90D48C1
:1059100007F0CCF80690009008981D3880B20590EA
:105920000798D33080B2049008981F3880B2039053
:105930000798C53080B2029003A90EC906F05EF93F
:10594000004801E02176EE0007F0B0F806900898D4
:105950001D3880B205900798A43080B204900D22C3
:10596000DDE9051306F02AFAFE4807F09FF80690D5
:1059700008981D3880B205900798C53080B2049011
:105980000D22DDE9051306F019FAF64807F08EF846
:105990000690009008981A3880B205900798B130A8
:1059A00080B2049008981C3880B203900798A33006
:1059B00080B2029003A90EC906F020F9E94807F069
:1059C00075F80690009008981A3880B205900798EC
:1059D000D23080B2049008981C3880B203900798A7
:1059E000C43080B2029003A90EC906F007F9DD4861
:1059F00007F05CF8069008981A3880B2059007986E
:105A0000A33080B204900D22DDE9051306F0D6F92B
:105A1000D44807F04BF8069008981A3880B20590E1
:105A20000798C43080B204900D22DDE9051306F01A
:105A3000C5F9CC4807F03AF806900898193880B2B2
:105A400005900798A23080B204900E22DDE905137C
:105A500006F0B4F9C34807F029F8069008981938F9
:105A600080B205900798C43080B204900D22DDE921
:105A7000051306F0A3F9BB4807F018F8069008983C
:105A8000193880B205900798A23080B204900D2298
:105A9000DDE9051306F092F9B24807F007F8069021
:105AA0000898193880B205900798C33080B20490E6
:105AB0000E22DDE9051306F081F9AA4806F0F6FF8B
:105AC00006900898183880B205900798A23080B2E6
:105AD00004900E22DDE9051306F070F9A14806F0E6
