:020000040800F2
:10000000082500204501000887C1000875980008F0
:1000100069C100080D120008051001080000000069
:100020000000000000000000000000005DCA0008A1
:10003000493C000800000000C9C5000809CE0008BE
:100040005F0100085F0100085F01000811C7000898
:100050005F0100085F0100085F0100085F01000800
:100060005F0100085F0100085F0100085F010008F0
:100070005F0100085F0100085F0100085F010008E0
:100080005F0100085F0100085F0100085F010008D0
:100090004D0F01085F0100085F0100085F010008C3
:1000A0005F0100085F0100085F0100085F010008B0
:1000B000A1CE00085F0100085F0100085F01000891
:1000C0005F0100085F0100085F0100085F01000890
:1000D0005F0100085F0100085F0100085F01000880
:1000E0005F0100085F0100085F0100085F01000870
:1000F0005F0100085F0100085F0100085F01000860
:100100005F0100085F0100085F0100085F0100084F
:100110005F0100085F0100085F0100085F0100083F
:100120005F0100085F0100085F0100085F0100082F
:10013000DFF80CD000F020FD00480047E53401084E
:10014000082500200648804706480047FEE7FEE7EE
:10015000FEE7FEE7FEE7FEE7FEE7FEE7FEE7FEE777
:100160009FCE0008310100082DE9F05F0546002010
:1001700092469B4688460646814640241BE0284618
:1001800041464746224600F020F853465A46C01AD8
:10019000914110D311461846224600F081FB2D1ADA
:1001A00067EB01084F4622460120002100F078FB52
:1001B00017EB00094E41201EA4F10104DFDC484684
:1001C00031462A464346BDE8F09F202A04DB203A08
:1001D00021FA02F00021704721FA02F3D040C2F167
:1001E0002002914008431946704740EA01039B07EB
:1001F00003D009E008C9121F08C0042AFAD203E09C
:1002000011F8013B00F8013B521EF9D27047D2B2FF
:1002100001E000F8012B491EFBD270470022F6E7EF
:1002200010B513460A4604461946FFF7F0FF20466C
:1002300010BD421E12F8013F002BFBD111F8013B0B
:1002400002F8013B002BF9D17047421C10F8011B4A
:100250000029FBD1801A704710B5002200E0521C23
:10026000835C8C5CA34201D1002BF8D1D8B2E1B2FF
:10027000401A10BD034611F8012B00F8012B002A8B
:10028000F9D11846704770B5064611F0AFFB046807
:1002900005460A220021304600F072FB2C6070BD3A
:1002A000F0B480EA0102D40F4200B2EB410F02D257
:1002B0000246084611464A0042D0C30DDDB2C1F3E2
:1002C000C752AD1A202D35DAC1F3160141F40002F0
:1002D00004B15242C5F1200602FA06F12A41104447
:1002E000B3EBD05F23D0C4B1012DA0EBC35009DC28
:1002F000F0BC4FF0004202EAC352DBB200F500004E
:1003000000F07FBB400000F1807000EBC350A0F113
:10031000807040EAD170490009E0490841EAC071A3
:10032000A0EBC35000F50000400800EBC350F0BC48
:1003300000F05EBB6142012202EB4101001BF6E7C7
:10034000F0BC704781F00041AAE780F00040A7E7C9
:1003500080EA010210B502F00043400022D04A00BA
:100360001FD0010E01EB1261C0F35600C2F356021A
:1003700040F4000042F40002A0FB022000047F3998
:10038000140400D0401C50EA124001D44000491E21
:10039000C2B20C0604EBD010401C4008802A02D0E8
:1003A00003E0002010BD20F00100002900DA002049
:1003B000184310BD30B480EA010202F0004530F06D
:1003C000004221F0004013D090B1C30DD40DC2F310
:1003D0001601C0F31600E41A41F4000140F40002D3
:1003E0007D34914201D3641C00E04900002C02DA04
:1003F00030BC002070474FF400000023914201D32D
:10040000891A034340084FEA4101F7D151B19142A3
:1004100002D14FF0004105E002D24FF0010101E0AE
:100420006FF0010103EBC450284430BC00F0E0BA87
:100430002DE9FE4F804681EA0300C00F0C46009074
:1004400021F0004123F00045B8EB0200A94105D29C
:100450004046214690461C460B46024623F000408B
:10046000104347D0270DC7F30A00C3F30A51029087
:10047000401A019040286BDAC3F3130040F4801B4C
:100480000098924620B10023D2EB030A63EB0B0BDA
:1004900001985946C0F14002504600F001FA064664
:1004A0000D4650465946019A00F009FA10EB080033
:1004B0006141002487EA115284EAE7731A4340D06D
:1004C000009A62B3019A012A4FEA075215DC001B19
:1004D00061EB02014FF0004202EA0752CDE900420F
:1004E000001C41F5801132462B4600F0C7FA03B0DC
:1004F000BDE8F08F40462146F9E7001B61EB0201A1
:10050000001C41F5801300185B412018A2F500176C
:1005100047EB030140EAD570B6196D4111E06D0853
:100520004FEA360645EAC0754FEA0752001B61EBF9
:100530000201001C41F5801149084FEA3000001902
:10054000514132462B4603B0BDE8F04F00F087BA68
:100550000098012240000023D0EB020263EBE0731D
:10056000009821464FEAE074B8EB000061EB04010B
:10057000E9E783F000435BE781F0004158E72DE9AC
:10058000FE4F81EA030404F0004421F0004100948E
:100590004FF0000B23F0004350EA01045ED052EA12
:1005A00003045BD0C3F30A54C1F30A552C44A4F2EC
:1005B000F3340194A0FB0254C1F3130141F4801100
:1005C000C3F3130343F4801301FB024400FB034E07
:1005D000840A970A44EA815447EA8357A4FB0768D0
:1005E00002958D0A05FB07854FEA932C04FB0C54FA
:1005F0002705029D4FEA065847EA1637B5EB08056E
:100600006EEB070C870E920E47EA811742EA8312BF
:10061000A7FB0201B6EB0B0164EB00042B0D43EAD0
:100620000C335E1844EB1C50DA465146E7FB0201DE
:10063000C5F313044FEA0B3343EA14534FEA043271
:10064000019C43EA0603A4F10C040294009CCDE94A
:1006500000B400F013FA03B0BDE8F08F00200146AB
:10066000F9E72DE9F04D81EA030404F0004B21F095
:10067000004514464FF0000A23F0004150EA0502FD
:1006800020D054EA01021DD0C5F30A570246C5F333
:100690001303C1F31300C1F30A5640F4801543F469
:1006A0008013A7EB0608101BD64608F2FD3873EB43
:1006B000050002D308F1010801E092185B41B8F18E
:1006C000000F03DA00200146BDE8F08D00204FF452
:1006D0008011064684460EE0171B73EB050705D311
:1006E000121B63EB050306434CEA010C49084FEA71
:1006F000300092185B4150EA0107EDD152EA030045
:1007000012D082EA040083EA0501084305D0101BD9
:10071000AB4106D20122002306E000224FF0004345
:1007200002E06FF0010253101AEB06004CEB085187
:1007300010EB0A0041EB0B01BDE8F04D00F08FB962
:10074000C10F80EAE0700844CA079623002100F038
:1007500058B996230022114600F053B90EB5C10FC7
:1007600080EAE0700844CA07002140F233438DE874
:100770000E000A460B4600F081F903B000BD00F000
:10078000004220F00040C10DC0F3160040F400000C
:100790007F2901DA00207047962903DCC1F1960118
:1007A000C84001E096398840002AF4D040427047A2
:1007B00020F00040C10DC0F3160040F400007F2976
:1007C00001DA00207047962903DCC1F19601C84088
:1007D000704796398840704770B5C1F30A5201F0EE
:1007E00000450024C1F3130140F2FF3341F48011AE
:1007F0009A4201DA002070BD40F233439A42A2F2DD
:10080000334203DC5242FFF7E0FC00E090402C430F
:10081000F1D0404270BD00F0004230F000400AD0FC
:10082000C10D01F56071C0F3160042EA0151C20822
:1008300040071143704700200146704701F0004314
:1008400030B421F0004150EA010206D00A0DA2F5B1
:100850006072C1F31301002A02DC30BC0020704733
:10086000440F44EAC104C100E01830BC00EBC250A0
:1008700000F0BEB830B50B4601460020202201240E
:1008800009E021FA02F59D4205D303FA02F5491B5E
:1008900004FA02F52844151EA2F10102F1DC30BD74
:1008A000202A04DB203A00FA02F100207047914030
:1008B000C2F1200320FA03F3194390407047202A25
:1008C00006DBCB17203A41FA02F043EAE07306E078
:1008D00041FA02F3D040C2F1200291400843194688
:1008E000704700000FB4002300B589B00CA9009137
:1008F0000B996FF00042CB601E4B06931E4B079383
:100900000423CDE901321D4A089202466B460020BD
:1009100000F0E6F909B05DF814FB70B586B0064644
:100920004FF0FF300091CDE90101002015460C4643
:1009300004903246694604A8FFF7D4FF02460498A3
:10094000211825B108B1084600E020462860049827
:1009500000280DD0002A02DD0098884208D0081B2C
:100960000094CDE901043246694604A8FFF7BAFFB6
:1009700006B070BD190F0008370F0008A50B00085E
:100980002DE9F04791460F4680460446002614F8AC
:10099000015B2DB100F002F90068405DC007F6D19F
:1009A0002B2D02D02D2D18D0641E4A4639462046E4
:1009B00000F0D2FA27B13968A14201D1C7F800800E
:1009C00071054FF002040BD54042002803DD11F001
:1009D0000DF80460A007BDE8F08746F48066E4E700
:1009E0000028F8DA11F002F804606FF00040F2E736
:1009F0000029A8BF7047401C490008BF20F0010033
:100A0000704710B4B0FA80FC00FA0CF050EA010410
:100A100004BF10BC704749B1CCF1200421FA04F4A2
:100A200011FA0CF118BF012121430843A3EB0C017B
:100A3000CB1D4FEA00614FEA102042BF002010BCDE
:100A4000704700EBC35010440029A4BF10BC70478E
:100A5000401C490008BF20F0010010BC704710B5D1
:100A6000141E73F1000408DA401C41F100019218D1
:100A70005B411A4301D120F0010010BD2DE9F04D7A
:100A800092469B4611B1B1FA81F202E0B0FA80F2CF
:100A900020329046FFF704FF04460F4640EA0A0062
:100AA00041EA0B0153465A46084313D0114653EA14
:100AB000010019D0C8F140025046FFF786FB0546F9
:100AC0000E46504659464246FFF7EAFE084305D017
:100AD000012004E020463946BDE8F08D00200543A2
:100AE00046EAE0762C4337430A986305E40AA0EB14
:100AF00008000022FD0A44EA47540A3002D50020CB
:100B00000146E9E7010510196941DDE908450019C9
:100B10006941BDE8F04DA2E7C1F30A52C1F31301E8
:100B200040F2FF3341F480119A4202DA002001467C
:100B3000704740F233439A42A2F2334202DC5242FF
:100B4000FFF743BBFFF7ACBE30B5041E71F10004E4
:100B500004DB4FF00044404264EB0101141E73F1CA
:100B6000000405DB1C464FF00043524263EB0403D4
:100B7000994208BF904230BD064C074D06E0E06840
:100B800040F0010394E8070098471034AC42F6D3D4
:100B9000FFF7D2FADC610208FC61020800487047E6
:100BA000D861020810B50446FFF7F8FF0068005D41
:100BB00000F0010010BD00002DE9FF4F087883B060
:100BC0009946FF2805D0491C2D2804D00024002078
:100BD00008E000200BE00124F9E700EB800003EBC4
:100BE0004000491C0B78FF2BF7D104B14042002391
:100BF0000293147819461D462D2C01D02B2C04D1BC
:100C0000521C2D2C13D000240294AA461478FF2CD9
:100C10000FD00A25A3FB057801FB05814FF0000CDE
:100C200003FB0C11521CE3194AEB0101EEE701240E
:100C3000EAE7814453EA010002D019F5C87F06DAD9
:100C400003980021C0E9001107B0BDE8F08F00252E
:100C5000AE4E2F46DFF8B882184600F0DAF9CDE93B
:100C60000001B9F1000002DAC9F1000400E0044615
:100C70000023A74A1AEB030B42EB045A12E0E007E9
:100C800007D02A46334638464146FFF778FC0746E8
:100C900088462A46334610461946FFF770FC05463B
:100CA0000E466410002CEAD1DDE90001B9F1000F15
:100CB0005A46534606DAFFF7D4FC3A464346FFF756
:100CC000D0FC05E0FFF75BFC3A464346FFF757FCD4
:100CD000029A0AB181F00041039AC2E90001B3E728
:100CE0002DE9FF4F1F468DB0D7E901464FF0FF3881
:100CF0002E2045464FF000090B90B9696D1C0E98E7
:100D00008847396A824688470028F6D1BAF1FF3F02
:100D10000AD024F4D064002E11DDBAF12B0F08D0D4
:100D2000BAF12D0F0BD102E0404611B08DE744F42B
:100D30008064B9696D1C0E9888478246761E6946A4
:100D4000600501D52D2000E02B208DF8000001F179
:100D5000010B0DF1200809E0B9696D1C0E98884758
:100D600082460F9844F40074761E0560002E02DD62
:100D7000BAF1300FF0D00B998A453ED144F080048F
:100D800006E00F99681CA9F1010944F40074086099
:100D9000B9696D1C761E0E98884782463028F0D0BF
:100DA0002BE00B998A4505D1200603D444F080043A
:100DB000761E18E0504610F0F1FF08B30DF1130154
:100DC000761E44F400748B4508D2AAF130000BF86B
:100DD000010B200607D5A9F1010003E0200602D48B
:100DE00009F101008146A00502D50F99681C086031
:100DF000B9696D1C0E9888478246002ED1DC53E0FD
:100E0000002E51DDBAF1650F02D0BAF1450F4BD17A
:100E1000A00549D5B9696D1C24F44074761E0E985E
:100E200088478246002E0CDD2B2804D0BAF12D0F06
:100E300007D144F48074B9696D1C0E9888478246C6
:100E4000761EE00501D52D2100E02B2108F8011BBD
:100E5000CDF82C8021E00DF12901761E44F40074B8
:100E600088450CD2AAF1300010F0FF0088F800008D
:100E700002D10B99884509D908F1010806E0E0057F
:100E800001D5244801E042F20F708146B9696D1C1A
:100E90000E98884782460F980560002E04DD504664
:100EA00010F07CFF0028D6D1F9690E988847FF2002
:100EB0008BF8000088F800000020069007904B4651
:100EC0006A4608A906A8FFF777FEA00502D46FF0CE
:100ED00001002AE714F0240F0AD0E00714D1DDE95D
:100EE00006123868031D3B600068C0E900120BE081
:100EF000DDE90601FFF7A2FC0146E00704D13868EE
:100F0000021D3A600068016028460EE700001440A8
:100F10000000F03FF1D8FFFF426842B1016811F8CC
:100F2000013B23B1521EC0E900121846704701214F
:100F3000C160881E704742685AB1C368016843B9EE
:100F400083688B4205D0491E521CC0E90012002064
:100F500070474FF0FF3070472DE9F05F8246007810
:100F6000002715468B460AF10104B946302801D006
:100F70009DB113E014F8010B0127782803D05828FD
:100F800001D045B10AE00DB1102D07D10027102581
:100F900014F8010B02E0082500E00A250026B046FF
:100FA0000EE005FB080005FB06F1012701EB1046EA
:100FB0001FFA80F8B6F5803F00D3B94614F8010B4C
:100FC000294600F018F80028EBDABBF1000F05D035
:100FD0000FB1641E00E05446CBF80040B9F1000F99
:100FE00006D010F003FD02210160C81EBDE8F09F8D
:100FF00048EA0640FAE73A2800D2303820F02002CA
:10100000412A01D3A2F13700884201D34FF0FF30CB
:1010100070470EB540F2334202920022CDE9002221
:101020001346FFF72BFD03B000BD70B58C1810F808
:10103000015B15F0070301D110F8013B2A1106D11D
:1010400010F8012B03E010F8016B01F8016B5B1E37
:10105000F9D12B0705D40023521E0DD401F8013B12
:10106000FAE710F8013BCB1A921C03E013F8015B7E
:1010700001F8015B521EF9D5A142D8D3002070BD02
:1010800070B5044600252068806800F0010018B3A0
:101090002068806820F001002168886005F0C2FEA9
:1010A000054613E005F0BEFE401B02280ED920685D
:1010B000806800F0010048B1A06A40F01000A06212
:1010C000E06A40F00100E062012070BD20688068A5
:1010D00000F001000028E5D10020F6E738B504460D
:1010E0000025002000902068806800F0010078BB97
:1010F0002068806840F00100216888601948006815
:101100001949B0FBF1F0009002E00098401E0090F9
:1011100000980028F9D105F085FE054619E005F094
:1011200081FE401B022814D92068806800F001006D
:1011300078B9A06A40F01000A062E06A40F00100B7
:10114000E06200BF002084F8240000BF012038BD09
:1011500005E02068806800F001000028DFD0002052
:10116000F5E700002C01002040420F0010B50022DE
:101170004FF48051014805F04FFE10BD000C0140B6
:1011800010B501221103024805F046FE10BD000013
:10119000000C014010B50122D102064805F03CFECA
:1011A0000A2012F01DF800224FF40061014805F0FA
:1011B00033FE10BD000C01401248407D05281DD2B1
:1011C000DFE800F003080D12170032200E4909680D
:1011D000486314E03C200C49096848630FE046204E
:1011E0000949096848630AE05020074909684863CB
:1011F00005E0632004490968486300E000BF00BFC0
:101200007047000044050020B404002000BFFEE742
:1012100010B501220421024805F0FEFD10BD0000BA
:101220000010014010B500220421024805F0F4FD31
:1012300010BD00000010014010B50122022102483B
:1012400005F0EAFD10BD00000010014010B50022BD
:101250000221024805F0E0FD10BD00000010014031
:1012600010B50446392012F08FFCE0B212F09DFC5C
:10127000C4F3072012F099FCC4F3074012F095FC68
:10128000200E12F092FC12F071FC10F06DFB10BDFC
:101290002DE9F04107460E4614463C2012F074FC3E
:1012A000F0B212F082FC301212F07FFC12F05EFC01
:1012B0000CB10020208016E010F056FB05461E2DD4
:1012C0000ED1384600F055F905463D2012F05CFC81
:1012D00012F04CFC2F4434B120882844208002E0D6
:1012E0002846BDE8F081E7E710B50BF06FF908B1CB
:1012F00000F082F8302000F0CDF810BD10B531209C
:1013000000F0C8F810BD10B504462146362000F0A4
:10131000B3F810BD10B5044614B1204600F0DBF858
:10132000342000F0B7F810BD70B50646304600F026
:10133000BBF8054685B12946304600F024F804463E
:10134000412C09D0142C01D1432070BD422C01D175
:10135000B320FAE72046F8E77019FFF7DBFFF4E760
:1013600010B50446204600F0B6F820785C2802D07C
:1013700020782F2803D10021642000F011F93220B9
:1013800000F088F810BD2DE9F04105460F46002613
:10139000012429E001E0601CC4B2285D5C2805D06E
:1013A000285D2F2802D0285D0028F4D1285D10B1D7
:1013B000601CC4B200E00024A819FFF7D1FF064664
:1013C00084B1BC420ED0412E0AD0142E02D143204B
:1013D000BDE8F081422E01D1B320F9E73046F7E7AE
:1013E000264601E03046F3E7D4E710B50446FF2176
:1013F0002046FFF7C8FF10BD10B5222012F0C4FB35
:10140000322011F00BFF12F0B5FB044612F0AEFBD8
:10141000204610BD2DE9F04112F0ACFB044612F05D
:10142000A9FB054612F0A6FB064612F0A3FB0746F1
:1014300012F09CFB44EA052040EA064040EA0760BF
:10144000BDE8F08110B504460C2012F09DFB20464B
:1014500012F0ABFBFFF7DEFF10BD70B504460A20AB
:1014600012F092FB204612F0A0FB12F083FB05461F
:1014700012F07CFB284670BD70B505460C46284628
:1014800012F082FB204612F090FB12F06FFB10F07E
:101490006BFA70BD10B50446204612F075FB12F0D1
:1014A00065FB10F061FA10BD0246114600E0491CD0
:1014B00008780028FBD100E0491E08785C2804D099
:1014C00008782F2801D09142F6D1914200D0491CD2
:1014D000881AC0B270472DE9F0410646012012F08B
:1014E00053FB12F047FB43282BDA2B20FFF7B5FF05
:1014F000102826DA2F2012F047FB002012F055FBAF
:101500003220FFF7C7FF0446142C1AD1CF20FFF773
:10151000A4FF0446ACB14C20FFF794FF00EB042776
:1015200039464C2000F03CF85020FFF78BFF00EBD1
:1015300004273946502000F033F80021702000F0D5
:101540002FF82F2012F020FB3578284612F02DFBC3
:1015500009E0761C35785C2D01D02F2D00D10025B7
:10156000284612F022FB002DF3D112F0FFFABDE85D
:10157000F08170B504462D2012F006FB12F0FAFA45
:101580000646054646B100BF207812F00EFB641CEB
:10159000701EC0B2061EF7D112F0E8FA284670BDE0
:1015A00070B505460C460D2012F0EEFA284612F0F2
:1015B000FCFAE0B212F0F9FAC4F3072012F0F5FADF
:1015C000C4F3074012F0F1FA200E12F0EEFA12F016
:1015D000CDFA70BD10B500221021024805F01CFCA8
:1015E00010BD00000008014010B501221021024882
:1015F00005F012FC10BD00000008014010B50122EA
:101600008021024805F008FC10BD0000000C0140DC
:1016100010B500228021024805F0FEFB10BD00003D
:10162000000C014010B501224021024805F0F4FBF6
:1016300010BD00000014014010B5002240210248F6
:1016400005F0EAFB10BD00000014014010B50122B6
:101650005103024805F0E0FB10BD000000140140FA
:1016600010B500224FF40051014805F0D5FB10BD24
:101670000014014010B501221103024805F0CCFB13
:1016800010BD00000014014010B500224FF480513D
:10169000014805F0C1FB10BD0014014010B5012246
:1016A0001146024805F0B8FB10BD0000000C0140D7
:1016B00010B500220121024805F0AEFB10BD00006C
:1016C000000C014010B501222021024805F0A4FBC6
:1016D00010BD00000010014010B50022202102487A
:1016E00005F09AFB10BD000000100140F0B5044663
:1016F0000D46FF22FF21002319E0E05C4140002756
:1017000011E001F0010602F0010C52104910BCF189
:10171000000F01D041F080011EB182F0A00281F0E3
:101720000101781CC7B2082FEBDB581CC3B2AB42D7
:10173000E3DB41EA0220F0BD002070470020704743
:101740002DE9F04106460F4601210C480DF085FCBD
:101750000B4908700948D0F8B852002403E0285D0E
:1017600008490855641C064800788442F7DB0120CC
:10177000054908700020BDE8F08100007C180020B9
:1017800004020020801B00200502002033B50C4617
:1017900000252DE09DF801109DF8030004F00CFDDC
:1017A00005469DF802002044A8421AD99DF802007F
:1017B000281A241A9DF80100401CC0B28DF80100BF
:1017C00000208DF802009DF801000D2810D10120A5
:1017D0008DF801009DF80300401CC0B28DF8030095
:1017E00006E09DF802002044C0B28DF8020000E03F
:1017F000D0E700BF0720B4FBF0F100FB114009491E
:1018000009780844C0B28DF800009DF80000072850
:1018100005DB9DF80000C01FC0B28DF800000098E5
:101820003CBD0000FC00002038B5174800780128B6
:1018300029DD6FF07F400AF0EBFE044600200AF03D
:10184000E7FE0546104800940078801E692202EBEE
:10185000C00081B22B4691220CA00AF07FF90A4801
:101860000078401E08490870002107480078401E93
:10187000074A11540448007806490978884202D181
:1018800000200449087038BD4A01002020000000F3
:10189000840600204B01002038B5044600200AF0E1
:1018A000B7FE054614234FF49B72022100904FF4BB
:1018B000967009F05FFF4FF46E400AF0A9FE0546EE
:1018C000052340F2331202210090101F09F052FF4D
:1018D0004FF46E400AF09CFE054614234FF49B72B1
:1018E000052100904FF496700AF0ACF84FF46E406A
:1018F0000AF08EFE0546132340F2351206210090B1
:1019000040F22D1009F036FF192C0DDA00200AF0F4
:101910007FFE05460F2340F235120621009040F26B
:101920002D1009F027FF24E0192C0FDB322C0DDAE3
:1019300000200AF06DFE05460C2340F23512062108
:10194000009040F22D1009F015FF12E0322C0FDB51
:101950004B2C0DDA00200AF05BFE0546092340F20D
:1019600035120621009040F22D1009F003FF00E02F
:1019700000BF38BD38B50020254908700AF048FE80
:10198000044609F0DFFE042001F0F4FE00200AF016
:101990003FFE04466FF07F400AF03AFE05462B46B4
:1019A0001E22C8211B4800940AF0D8F800200AF033
:1019B0002FFE04466FF07F400AF02AFE05462B46B4
:1019C0001E22FA211348801D00940AF0C7F8002057
:1019D0000AF01EFE044610480AF01AFE05462B4681
:1019E0001E22C8210B480C3000940AF0B7F80020E2
:1019F0000AF00EFE044608480AF00AFE05462B4689
:101A00003422C8210348123000940AF0A7F838BDE8
:101A10003D0100203843010832F0F000F8B50446DB
:101A200000200AF0F5FD05464FF47F000AF0F0FDB6
:101A30000646601E00EB400101EBC0001E2101EBD9
:101A4000400082B233468C21024800950AF086F8A5
:101A5000F8BD00005941010838B500200AF0D8FD52
:101A6000044614234FF49B72022100904FF49670A9
:101A700009F080FE4FF46E400AF0CAFD044623468A
:101A80000522022140F22F100AF02EF84FF46E408A
:101A90000AF0BEFD044623460522022140F233101F
:101AA0000AF022F84FF46E400AF0B2FD04462346D5
:101AB0000B2207214FF4967009F03CFF4FF46E4063
:101AC0000AF0A6FD04460F234FF49A7208210090F5
:101AD000901F09F04FFE4FF46E400AF099FD044646
:101AE00023460522102140F22F1009F023FF4FF466
:101AF0006E400AF08DFD04462346032211214FF467
:101B0000987009F017FF4FF46E400AF081FD04460B
:101B100023460422112140F2311009F0E5FF38BDBF
:101B20002DE9FC41484890F84000002845D10024A8
:101B300040E0621C45A101A80FF028FF204604EBFD
:101B4000D0714910A4EB4101C9B100200AF060FD39
:101B5000064640480AF05CFD074604EBD47040108E
:101B600000EB400101EB00102A2101EB400082B2A2
:101B70003B46A82101A8009609F0F0FF18E00020DC
:101B80000AF046FD064633480AF042FD074604EBDC
:101B9000D470401000EB400101EB00102A2101EB52
:101BA000400082B23B46082101A8009609F0D6FF0A
:101BB000601CC4B2082CBCDB44E0002440E0621C82
:101BC00022A101A80FF0E2FE204604EBD0714910DB
:101BD000A4EB4101C9B100200AF01AFD06461D48D8
:101BE0000AF016FD074604EBD470401000EB4001EC
:101BF00001EB00103D2101EB800082B23B46A821A1
:101C000001A8009609F0AAFF18E000200AF000FDE4
:101C1000064610480AF0FCFC074604EBD47040105E
:101C200000EB400101EB00103D2101EB800082B28E
:101C30003B46082101A8009609F090FF601CC4B241
:101C4000042CBCDBBDE8FC81440500202530326457
:101C50003A00000032F0F00038B511F01FFF0C49D7
:101C6000B1F9000000230522012107F005FE002044
:101C70000AF0CEFC04464FF46E400AF0C9FC05465B
:101C80002B46022264210348009409F067FF38BD07
:101C9000920100207806002038B54FF46E400AF01B
:101CA000B7FC0446122340F20F1208210090501E88
:101CB00009F060FD4FF46E400AF0AAFC044623468A
:101CC000062207214FF4867009F034FE4FF46E406F
:101CD0000AF09EFC044623460422062140F20D1021
:101CE00009F028FE4FF46E400AF092FC04462346A9
:101CF000022205214FF4877009F01CFE4FF46E405C
:101D00000AF086FC04460F234FF48A7205210090E6
:101D1000501E09F02FFD4FF46E400AF079FC044686
:101D200023460622102140F2111009F003FE4FF461
:101D30006E400AF06DFC04462346042211214FF444
:101D4000897009F0F7FD4FF46E400AF061FC04461B
:101D500023460222122140F2131009F0EBFD38BD98
:101D60007CB5012085490870854908706FF07F4077
:101D70000AF04EFC0546F0234FF4A0728221009039
:101D8000002009F0F7FC6FF07F400AF041FC0546A7
:101D900000200AF03DFC06467A490095097DC1EB1A
:101DA0000111794A02EB4100334691223C2109F0AE
:101DB000D5FE00200AF02CFC0546A323C8228F2163
:101DC0000090642009F03EFE43F2FF300AF020FC50
:101DD00005461A233C228C210090FF2001F06AFD69
:101DE00043F2FF300AF014FC05466FF07F400AF022
:101DF0000FFC064663490095097DC1EB0111624A5B
:101E000002EB4101881D334691224FF48C7109F099
:101E1000A5FE43F2FF300AF0FBFB05461A233E22E3
:101E2000D2210090052001F045FD43F2FF300AF079
:101E3000EFFB05466FF07F400AF0EAFB064651498A
:101E40000095097DC1EB01114F4A02EB410101F1FF
:101E50000C003346D722142109F080FE43F2FF30F4
:101E60000AF0D6FB05461A233E22D2210090E1203B
:101E700001F020FD43F2FF300AF0CAFB05466FF087
:101E80007F400AF0C5FB06463E490095097DC1EB3F
:101E900001113D4A02EB410101F112003346D72204
:101EA000F02109F05BFE00200AF0B2FB0546CA23D0
:101EB00040F23912AA210090072009F05BFC0024AF
:101EC0002BE0621C31A101A80FF060FD4FF47F00F0
:101ED0000AF09EFB054604EB04110722009002EB7A
:101EE00041001F231A46AA2101F0E4FC4FF47F00B1
:101EF0000AF08EFB05466FF07F400AF089FB06462C
:101F000004EB0410132202EB40013346B12201A876
:101F1000009509F023FE601CC4B2092CD1DB00241B
:101F200028E043F2FF300AF073FB054604EB04118E
:101F30005722009002EB41001F231A46CC2101F0EA
:101F4000B9FC43F2FF300AF063FB05466FF07F40B7
:101F50000AF05EFB064604EB0412632303EB420126
:101F60000B4A02EB44003346D322009509F0F6FDFC
:101F7000601CC4B2032CD4DB7CBD000049010020EE
:101F80004A01002044050020124501082564000094
:101F90004E45010831B582B01A4800780A2830DA77
:101FA0001948007818B19DF808002E2829D002A9F8
:101FB0001648FEF73EF96FF07F400AF029FB044611
:101FC00000200AF025FB05460E4800940078401ECC
:101FD000692202EBC00081B22B46912202A809F0CF
:101FE000BDFD0948007838B99DF808002E2803D1B6
:101FF000044800780449087002480078401C0149F0
:1020000008703EBD4A0100204B01002084060020DC
:1020100010B500201449087014490870144908705C
:1020200014480078012806D0022807D0032808D0D9
:1020300004280CD108E001F077FA09E000F09AFCDE
:1020400006E000F001FD03E0FFF794FC00E000BFB4
:1020500000BF0848007807F00FFF074801780548DF
:10206000007800F00BF810BD4A0100204901002063
:102070004B0100203E0100203D01002003B587B048
:102080000798012806D0022805D003287ED004280E
:102090007DD12AE3F7E3FE480078012817D1FD48F7
:1020A0000AF0B6FA039000200AF0B2FA0290039800
:1020B0000090F9488078401E00EB8000F749084402
:1020C00001901E225021029B09F048FD16E00020DD
:1020D0000AF09EFA0390EF480AF09AFA02900398E9
:1020E0000090ED488078401E00EB8000EB490844EA
:1020F00001901E225021029B09F030FDE448007837
:1021000002281BD1E3480AF083FA039000200AF06A
:102110007FFA029003980090DF48007D00EB80007A
:10212000DF4901EBC000DC49C97A00EBC100019036
:1021300034225021029B09F011FD1AE000200AF020
:1021400067FA0390D3480AF063FA0290039800906C
:10215000D148007D00EB8000D14901EBC000CE49A1
:10216000C97A00EBC100019034225021029B09F092
:10217000F5FCC948B0F90D000023052201210390A8
:1021800007F07AFBC2480078032801E01FE179E3F9
:1021900010D1C0480AF03CFA039000200AF038FA47
:1021A0000290039800904A225021BE48029B09F0F9
:1021B000D5FC0FE000200AF02BFA0390B5480AF096
:1021C00027FA0290039800904A225021B548029BBA
:1021D00009F0C4FCB048B0F90F000023052201212A
:1021E000039007F049FBAA480078042810D1A948B9
:1021F0000AF00EFA039000200AF00AFA02900398FF
:10220000009060225021A748029B09F0A7FC0FE034
:1022100000200AF0FDF903909E480AF0F9F90290B7
:1022200003980090602250219E48029B09F096FC82
:1022300097480078052816D196480AF0E9F90390E6
:1022400000200AF0E5F90290039800909248807A05
:1022500000EB40009449084401901E22F021029BAB
:1022600009F07CFC15E000200AF0D2F903908948BF
:102270000AF0CEF90290039800908748807A00EB2C
:1022800040008949084401901E22F021029B09F078
:1022900065FC7F48007806281DD17E480AF0B8F911
:1022A000039000200AF0B4F90290039800907A4855
:1022B000007D00EBC00101EB00107C490844764929
:1022C000097B01EB8101084401903422F021029B3B
:1022D00009F044FC1CE000200AF09AF903906D48D4
:1022E0000AF096F90290039800906B48007D00EB8D
:1022F000C00101EB00106D4908446749097B01EBFF
:102300008101084401903422F021029B09F026FC4F
:102310005F480078072816D15E480AF079F90390E3
:1023200000200AF075F90290039800905A48407C0A
:1023300000EB80005E49084401904A22F021029B94
:1023400009F00CFC15E000200AF062F903905148F6
:102350000AF05EF90290039800904F48407C00EB31
:1023600080005349084401904A22F021029B09F061
:10237000F5FB4948408A02464EA1039004A80FF09D
:1023800005FB43480078082810D142480AF040F97C
:10239000039000200AF03CF902900398009060221C
:1023A000F02104A8029B09F0D9FB0FE000200AF0FD
:1023B0002FF9039037480AF02BF902900398009008
:1023C0006022F02104A8029B09F0C8FB5BE23048C0
:1023D0000078012817D12F480AF01AF9039000203D
:1023E0000AF016F90290039800902B48007D00EB4C
:1023F0008000324901EB4000019082225021029B73
:1024000009F0ACFB16E000200AF002F90390214825
:102410000AF0FEF80290039800901F48007D00EB40
:102420008000264901EB4000019082225021029B4E
:1024300009F094FB16480078022817D115480AF0D5
:10244000E7F8039000200AF0E3F802900398009068
:102450001148407D00EB8000194901EB40000190DC
:1024600094225021029B09F079FB31E000200AF010
:10247000CFF8039007480AF0CBF802900398009039
:102480000548407D00EB80000D4901EB400019E05C
:102490003D01002032F0F000440500208F4101088A
:1024A000E441010878060020B741010834420108E0
:1024B000A2420108253034640000000050430108A6
:1024C00082430108019094225021029B09F046FBAF
:1024D000F048007803281FD1EF480AF099F80390DC
:1024E00000200AF095F8029003980090EB48007DD8
:1024F00000EBC00101EB0010E94901EB4000E749A6
:10250000897D01EB810100EB41000190A622502161
:10251000029B09F023FB1EE000200AF079F80390EB
:10252000DD480AF075F8029003980090DB48007DC2
:1025300000EBC00101EB0010D94901EB4000D74985
:10254000897D01EB810100EB41000190A622502121
:10255000029B09F003FBCF48007804281FD1CE4826
:102560000AF056F8039000200AF052F802900398FF
:102570000090CA48007D00EBC00101EB0010C84983
:1025800001EB4000C549097E01EB810100EB4100F0
:102590000190B8225021029B09F0E0FA1EE00020D1
:1025A0000AF036F80390BC480AF032F8029003981B
:1025B0000090BA48007D00EBC00101EB0010B84963
:1025C00001EB4000B549097E01EB810100EB4100C0
:1025D0000190B8225021029B09F0C0FAAD48007862
:1025E00007281FD1AC480AF013F8039000200AF026
:1025F0000FF8029003980090A848007D00EBC001FE
:1026000001EB0010A74901EB4000A449C97D01EB93
:10261000810100EB41000190A622F021029B09F00C
:102620009DFA1EE0002009F0F3FF03909A4809F09C
:10263000EFFF0290039800909848007D00EBC001E6
:1026400001EB0010974901EB40009449C97D01EB73
:10265000810100EB41000190A622F021029B09F0CC
:102660007DFA8C48007808281FD18B4809F0D0FFEC
:102670000390002009F0CCFF029003980090874857
:10268000007D00EBC00101EB0010874901EB400029
:102690008249497E01EB810100EB41000190B822A3
:1026A000F021029B09F05AFA1EE0002009F0B0FF69
:1026B0000390794809F0ACFF0290039800907748A6
:1026C000007D00EBC00101EB0010774901EB4000F9
:1026D0007249497E01EB810100EB41000190B82273
:1026E000F021029B09F03AFACDE07048006800231F
:1026F00005221946039007F0BFF8002009F088FF73
:1027000003904FF46E4009F083FF0290039800900D
:102710001E22FA216648029B09F020FA63484068AD
:10272000002304221946039007F0A6F8002009F0C0
:102730006FFF03904FF46E4009F06AFF0290039818
:1027400000903422FA215A48029B09F007FA5148B6
:102750000078012810D1504809F05AFF039000205A
:1027600009F056FF0290039800901E225021514814
:10277000029B09F0F3F90FE0002009F049FF0390F4
:10278000454809F045FF0290039800901E22502111
:102790004848029B09F0E2F93E480078022811D12E
:1027A0003D4809F035FF0390002009F031FF029009
:1027B00003980090342250213E480F30029B09F0CC
:1027C000CDF910E0002009F023FF0390324809F012
:1027D0001FFF0290039800903422502135480F309B
:1027E000029B09F0BBF92B480078032811D12A4835
:1027F00009F00EFF0390002009F00AFF02900398F1
:1028000000904A2250212B481E30029B09F0A6F965
:1028100010E0002009F0FCFE03901F4809F0F8FECC
:102820000290039800904A22502122481E30029BB9
:1028300009F094F917480078042811D1164809F0D6
:10284000E7FE0390002009F0E3FE02900398009059
:102850006022502117482D30029B09F07FF910E0CB
:10286000002009F0D5FE03900B4809F0D1FE02903C
:1028700003980090602250210E482D30029B09F0F1
:102880006DF900E000BF00BF079807F0F5FA09B046
:1028900000BD00003D01002032F0F00044050020A2
:1028A000B4430108184401087C44010810000020CA
:1028B000780600201D410108F8B5002009F0A8FEA7
:1028C000054608F03FFF9621322001F0D5F94FF47C
:1028D000487010F085FC002009F09AFE054608F0CB
:1028E00031FF214890F84000F0B9002419E00020A1
:1028F00009F08EFE05466FF07F4009F089FE06461E
:1029000004EBC40149008A1C184901EB441033460A
:102910000221009509F022F9C82001F096F9601C07
:10292000C4B20A2CE3DB1DE0002419E0002009F00A
:102930006FFE05466FF07F4009F06AFE064604EB25
:10294000C40149008A1C0A4901EB441033460221A4
:10295000009509F003F9C82001F077F9601CC4B2B2
:10296000062CE3DBF8BD0000440500206D4501089E
:10297000AD460108F8B500203049087009F048FE5E
:10298000054608F0DFFE022000F0F4FE002451E0CE
:10299000204604EBD0714910A4EB410121B3002083
:1029A00009F036FE064647F2CE1009F031FE074622
:1029B00004EBD471491001EB410303EBC1011E2369
:1029C00003EB41018AB21E490096097D01EB8101AA
:1029D0001C4B03EB011104EB840301EB43003B466A
:1029E000A82109F0BBF823E0002009F011FE0646FB
:1029F00047F2CE1009F00CFE074604EBD4714910E3
:102A000001EB410303EBC1011E2303EB41018AB239
:102A10000B490096097D01EB81010A4B03EB011183
:102A200004EB840301EB43003B46082109F096F8D0
:102A3000601CC4B2082CABDBF8BD00003D010020D7
:102A400044050020D93E0108F8B500205649087019
:102A500009F0DEFD054608F075FE032000F08AFE51
:102A6000002420E0002009F0D3FD054647F2CE10F7
:102A700009F0CEFD06464D490095097DC1EB0111D7
:102A8000C1EBC1014A4B03EB4101C4EB0413C8186D
:102A900004EBC401162303EB41023346082109F07D
:102AA0005DF8601CC4B20A2CDCDB002423E00020AB
:102AB00009F0AEFD054647F2CE1009F0A9FD064625
:102AC0003A490095097DC1EB0111C1EBC101384BB9
:102AD00003EB410304F10A01C1EB01115818A11DD8
:102AE00001EBC101162303EB41023346A82109F093
:102AF00035F8601CC4B2042CD9DB002435E0022C6C
:102B000018DA002009F084FD05466FF07F4009F0D7
:102B10007FFD064604EBC401162303EB410204EBE0
:102B20008401244B03EB810033469021009509F08A
:102B300015F818E0002009F06BFD05466FF07F40A6
:102B400009F066FD0646611C01EBC101162303EB8B
:102B5000410204EB8401174B03EB810033469021C3
:102B6000009508F0FBFF601CC4B2052CC7DB0020F9
:102B700009F04EFD05466FF07F4009F049FD06461D
:102B800033463A22902109481A30009508F0E6FFB2
:102B900009480A490A8802808978817008480949E9
:102BA00009680160F8BD00003D01002044050020D7
:102BB000793F0108D442010851010020340100206E
:102BC0004D0100203001002038B5002009F020FD23
:102BD00004466FF07F4009F01BFD0546064900944E
:102BE0008978491E01EB8101044A88182B4601228D
:102BF0005F2108F0B3FF38BD440500208F41010874
:102C000000B587B000200590FE4890F840000028ED
:102C10007ED106902EE20698049000EBD070411011
:102C20000498A0EB4100002873D0F749069831F9C9
:102C3000100047F6FF71884245D10698401CF349C1
:102C4000097888421FD16FF07F4009F0E1FC0390C2
:102C5000002009F0DDFC0290039800900698049093
:102C600000EBD070401000EB400101EB00102A2176
:102C700001EB400080B201900246D021E4A0029B0B
:102C800008F00AFFF2E1002009F0C2FC03906FF0A7
:102C90007F4009F0BDFC02900398009006980490D4
:102CA00000EBD070401000EB400101EB00112A2036
:102CB00000EB410080B201900246D021D4A0029BDB
:102CC00008F0EAFED2E1D049069831F81020CD484C
:102CD0003030069900EB41000088104401B2CE4A22
:102CE000069822F810101146069831F910000023BA
:102CF00005220121049006F0BFFDC749069831F96D
:102D00001000C049B1F90D1088420BDCC24901E046
:102D1000B5E195E0069831F91000BA49B1F90F1004
:102D2000884247DA012005900698401CB749097887
:102D300088421FD14FF47F0009F06AFC0390002005
:102D400009F066FC0290039800900698049000EB4E
:102D5000D070401000EB400101EB00102A2101EB84
:102D6000400080B201900246D021AC48029B08F09E
:102D700093FE7BE1002009F04BFC03904FF47F00B1
:102D800009F046FC0290039800900698049000EB2E
:102D9000D070401000EB400101EB00102A2101EB44
:102DA000400080B201900246D0219C48029B08F06E
:102DB00073FE5BE10698401C9449097888421FD154
:102DC0004FF46E4009F024FC0390002009F020FC31
:102DD0000290039800900698049000EBD070401089
:102DE00000EB400101EB00112A2000EB410080B212
:102DF00001900246D0218948029B08F04DFE35E142
:102E0000002009F005FC03904FF46E4009F000FC2F
:102E10000290039800900698049000EBD070401048
:102E200000EB400101EB00102A2101EB400080B2D1
:102E300001900246D0217948029B08F02DFE15E151
:102E40007149069831F9100047F6FF71884245D163
:102E50000698401C6D49097888421FD16FF07F4069
:102E600009F0D6FB0390002009F0D2FB02900398F2
:102E700000900698049000EBD070411001EB4100E7
:102E800000EB01112A2000EB410080B201900246C4
:102E900030215FA0029B08F0FFFDE7E0002009F071
:102EA000B7FB03906FF07F4009F0B2FB02900398EC
:102EB00000900698049000EBD070401000EB4001A9
:102EC00001EB00102A2101EB400080B20190024684
:102ED00030214FA0029B08F0DFFDC7E04A49069869
:102EE00031F8102047483030069900EB4100008847
:102EF000104401B2484A069822F81010114606986C
:102F000031F91000002305220121049006F0B4FCE1
:102F10004149069831F910003A49B1F90D1088423B
:102F200008DC3D49069831F910003649B1F90F1017
:102F3000884247DA012005900698401C33490978F9
:102F400088421FD14FF47F0009F062FB03900020FC
:102F500009F05EFB0290039800900698049000EB45
:102F6000D070401000EB400101EB00102A2101EB72
:102F7000400080B20190024630212848029B08F0B0
:102F80008BFD73E0002009F043FB03904FF47F00BA
:102F900009F03EFB0290039800900698049000EB25
:102FA000D070401000EB400101EB00102A2101EB32
:102FB000400080B20190024630211848029B08F080
:102FC0006BFD53E00698401C1049097888422ED1C9
:102FD0004FF46E4009F01CFB0390002009F018FB31
:102FE0000290039800900698049000EBD070411076
:102FF00001EB410000EB01102A2101EB400080B2FF
:1030000001900DE044050020A00600203D010020B5
:103010002D2D2D2D2D2D0000860500207806002059
:1030200002463021FE48029B08F036FD1EE00020DB
:1030300009F0EEFA03904FF46E4009F0E9FA0290BD
:10304000039800900698049000EBD070401000EBBD
:10305000400101EB00102A2101EB400080B20190F9
:1030600002463021EE48029B08F016FD0698401CEF
:10307000C0B2069006980828FFF6CDAD37E20020D2
:10308000069030E20698049000EBD070411004984E
:10309000A0EB410000287DD0E249069831F91000EC
:1030A00047F6FF71884247D10698401CDE490978EF
:1030B000884220D16FF07F4009F0AAFA03900020E7
:1030C00009F0A6FA0290039800900698049000EB8D
:1030D000D070411001EB410000EB01103D2101EBEC
:1030E000800080B201900246D021AFF2DC00029B4A
:1030F00008F0D2FCF3E1002009F08AFA03906FF0A7
:103100007F4009F085FA0290039800900698049099
:1031100000EBD070401000EB400101EB00113D20AE
:1031200000EB810080B201900246D021AFF2201066
:10313000029B08F0B1FCD2E1BA49069831F81020A0
:10314000BA48069900EB41000088104401B2B84A21
:10315000069822F810101146069831F91000002345
:1031600005220121049006F087FBB149069831F948
:103170001000AE493039B1F90D10884209DCAC4974
:10318000069831F91000A9493039B1F90F10884279
:1031900049DA00E08DE0012005900698401CA24924
:1031A000097888421FD14FF47F0009F031FA03906B
:1031B000002009F02DFA02900398009006980490E0
:1031C00000EBD070411001EB410000EB01113D20FC
:1031D00000EB810080B201900246D0219048029B12
:1031E00008F05AFC7BE1002009F012FA03904FF43A
:1031F0007F0009F00DFA0290039800900698049061
:1032000000EBD070401000EB400101EB00103D21BD
:1032100001EB800080B201900246D0218048029BE1
:1032200008F03AFC5BE10698401C7F490978884227
:103230001FD14FF46E4009F0EBF90390002009F024
:10324000E7F90290039800900698049000EBD07084
:10325000411001EB410000EB01103D2101EB80002A
:1032600080B201900246D0216D48029B08F014FC08
:1032700035E1002009F0CCF903904FF46E4009F0DD
:10328000C7F90290039800900698049000EBD07064
:10329000401000EB400101EB00103D2101EB8000EC
:1032A00080B201900246D0215D48029B08F0F4FBF9
:1032B00015E15C49069831F9100047F6FF71884224
:1032C00047D10698401C58490978884220D16FF0B0
:1032D0007F4009F09DF90390002009F099F90290D0
:1032E000039800900698049000EBD070401000EB1B
:1032F000400101EB00113D2000EB810080B2019004
:1033000002463021AFF2F820029B08F0C5FBE6E050
:10331000002009F07DF903906FF07F4009F078F903
:103320000290039800900698049000EBD070401033
:1033300000EB400101EB00103D2101EB800080B269
:10334000019002463021AFF23830029B08F0A4FB16
:10335000C5E03449069831F810203448069900EB4E
:1033600041000088104401B2314A069822F810103A
:103370001146069831F9100000230522012104901E
:1033800006F07AFA2A49069831F9100027493039AF
:10339000B1F90D10884209DC2549069831F9100071
:1033A00022493039B1F90F10884253DA01200590D3
:1033B0000698401C1C49097888421FD14FF47F00B1
:1033C00009F026F90390002009F022F902900398F1
:1033D00000900698049000EBD070411001EB410082
:1033E00000EB01103D2101EB800080B2019002460C
:1033F00030210B48029B08F04FFB70E0002009F0E1
:1034000007F903904FF47F0009F002F90290039846
:1034100000900698049000EBD07041100AE0000084
:1034200078060020A00600203D0100207405002041
:103430008605002001EB410000EB01103D2101EB6E
:10344000800080B20190024630213348029B08F090
:1034500023FB44E00698401C3049097888421FD17C
:103460004FF46E4009F0D4F80390002009F0D0F832
:103470000290039800900698049000EBD0704110E1
:1034800001EB410000EB01103D2101EB800080B217
:103490000190024630212048029B08F0FDFA1EE010
:1034A000002009F0B5F803904FF46E4009F0B0F831
:1034B0000290039800900698049000EBD0704110A1
:1034C00001EB410000EB01103D2101EB800080B2D7
:1034D0000190024630211048029B08F0DDFA069860
:1034E000401CC0B2069006980428FFF6CBAD0598A4
:1034F000012808D10A48007B28B90122D1020948D5
:1035000003F08AFC05E000224FF40061054803F057
:1035100083FC07B000BD0000780600203D010020BC
:1035200044050020000C014070B500202C490870B3
:1035300009F06EF8054608F005F9012000F01AF9C7
:10354000FFF742FB00F030F9FEF7EAFA00242EE024
:10355000244890F84000012817D1204604EBD07190
:103560004910A4EB410101BB6FF07F4009F050F816
:103570000546262204FB02F000F11E012B4640F214
:103580003F12012008F0D6F90FE06FF07F4009F0FC
:103590003FF80546262204FB02F000F11E012B46EF
:1035A00040F23F12012008F0C5F9601CC4B2052C9E
:1035B000CEDB002410E06FF07F4009F029F80546CB
:1035C00004EB84014901491C88B22B4698221E2134
:1035D00008F08AFA601CC4B2032CECDB70BD00005A
:1035E0003D0100204405002030B587B051480078E7
:1035F000012802D003287CD136E04F494F4809F01A
:1036000053F84D48807800904B48437802784CA19D
:1036100004A80EF0BBF949488078009047484378E9
:10362000C2784BA101A80EF0B1F9002008F0F0FF1C
:1036300004464C4808F0ECFF05462B460122AA211F
:1036400004A8009408F08AFA002008F0E1FF04467C
:10365000444808F0DDFF05462B46C022B42101A8EE
:10366000009408F07BFA61E03349344809F01CF813
:103670003D48807800903C484378027830A104A807
:103680000EF084F939488078009038484378C27841
:103690002FA101A80EF07AF93548007805280FD13E
:1036A000304808F0B5FF0446002008F0B1FF054699
:1036B0002B468222F02101A8009408F04FFA0EE078
:1036C000002008F0A5FF0446264808F0A1FF0546A3
:1036D0002B468222F02101A8009408F03FFA2448EA
:1036E0000078062811D11F4808F092FF04460020F8
:1036F00000E01AE008F08CFF05462B469422F021EA
:1037000004A8009408F02AFA0EE0002008F080FFD8
:103710000446144808F07CFF05462B469422F0210D
:1037200004A8009408F01AFA00E000BF00BF07B038
:1037300030BD00003E010020340100203001002097
:10374000253032643A253032643A25303264000044
:103750003230253032642D253032642D25303264EC
:103760000000000032F0F000510100204D01002067
:103770003D010020F8B504464FF46E4008F048FFC4
:103780000546002008F044FF0646611EC1EB01110A
:10379000044A8818334601221146009508F0DEF9E4
:1037A000F8BD0000433E010838B5002008F030FFA6
:1037B00004466FF07F4008F02BFF05462B4603229E
:1037C0007F2115A0009408F0C9F9002008F020FF1F
:1037D00004466FF07F4008F01BFF05462B4603228E
:1037E0009F210EA0009408F0B9F9002008F010FF06
:1037F00004466FF07F4008F00BFF0546084900942F
:10380000897A01EB4101074A88182B4601228F2152
:1038100008F0A4F938BD00002800000029000000CD
:1038200044050020B741010838B5214808F0F0FEF2
:10383000044609234FF4807206210090FA2007F015
:1038400099FF002008F0E4FE04460723FC221946F5
:103850000090104607F08EFF002008F0D9FE0446C5
:103860000723FE2219460090104607F083FF1048F8
:1038700008F0CEFE0446112340F201120A21009006
:10388000F92007F077FF0A4808F0C2FE04462346F5
:1038900007221221FA2008F04DF8054808F0B8FE7A
:1038A0000446234603221321FC2008F043F838BDC8
:1038B0002176EE002DE9F84304460D4617461E46D4
:1038C000DDF820806FF07F4008F0A2FE81467B1E6D
:1038D0009AB26B1C99B2631C98B24B4608F02AF856
:1038E0006FF07F4008F094FE8146731E9AB26B1C05
:1038F00099B2631C98B24B4608F0F6F86FF07F401F
:1039000008F086FE8146731E9AB26B1C99B2A31C06
:1039100098B24B4608F0E8F8002008F079FE81469E
:103920004B463A462946204608F004F8002008F0A5
:103930006FFE81464B4632462946204608F0D4F8B1
:10394000002008F065FE8146E11988B24B463246F8
:10395000294608F0C9F8002008F05AFE8146711C7B
:103960008AB2E119491C88B24B46294608F0BCF8D6
:10397000002008F04DFE8146781C82B2A81981B261
:103980004B46204607F0D6FF05EB060CACF1010CC8
:103990001FFA8CF304EB070CACF1010C1FFA8CF24C
:1039A00005F1020C1FFA8CF104F1030C1FFA8CF0E4
:1039B000CDF8008007F0DEFEBDE8F88370B5044660
:1039C0006FF07F4008F024FE054607F0BBFE012C97
:1039D00006D0022C1BD0032C32D0042C60D146E040
:1039E0004FF47F0008F014FE05462B460A221421EE
:1039F000084607F09FFF4FF47F0008F009FE0546D8
:103A00002B460A220F21192008F06EF848E04FF4E7
:103A10007F0008F0FDFD05462B460A2214214FF4D5
:103A2000967007F087FF4FF47F0008F0F1FD054620
:103A30002B460A220F2140F2311008F055F82FE0F2
:103A40004FF47F0008F0E4FD05462B460A22DC21F6
:103A5000142007F06FFF4FF47F0008F0D9FD0546F2
:103A60002B460A22D721192008F03EF818E04FF41F
:103A70007F0008F0CDFD05462B460A22DC214FF4DD
:103A8000967007F057FF4FF47F0008F0C1FD054620
:103A90002B460A22D72140F2311008F025F800BF4A
:103AA00000BF70BD10B501228021044803F0B4F9B5
:103AB00000F080F800F022F810BD00000010014076
:103AC0001FB580200090012002900020019003206B
:103AD00003906946014802F0F7FF1FBD0010014046
:103AE0001FB58020009001200190032003906946BB
:103AF000014802F0E9FF1FBD0010014010B500248D
:103B0000FFF7DEFF04E0601CC4B201200FF086FB6B
:103B100080210F4803F078F908B1642CF3DB642CA2
:103B200001DB012010BD002404E0601CC4B20120B0
:103B30000FF074FB8021064803F066F908B9F02CF9
:103B4000F3DBF02C01DB0120ECE70020EAE70000CA
:103B50000010014010B5FFF7C3FF002280210B4881
:103B600003F05AF90A200FF059FBFFF7A9FF802153
:103B7000064803F049F9012801D1012400E000249E
:103B80002D200FF04BFB204610BD0000001001401F
:103B900070B50026002408E0FFF7DCFF054605FAB3
:103BA00004F03043C6B2601CC4B2082CF4DB3046CB
:103BB00070BD000010B5FFF793FF00228021084878
:103BC00003F02AF940F2EE200FF028FB01228021B9
:103BD000034803F021F90F200FF020FB10BD000077
:103BE0000010014070B50446FFF77AFF002526E07B
:103BF00004F00106641086B100228021114803F010
:103C00000BF908200FF00AFB012280210D4803F078
:103C100003F93A200FF002FB0FE00022802109484F
:103C200003F0FAF846200FF0F9FA01228021054846
:103C300003F0F2F802200FF0F1FA681CC5B2082D6B
:103C4000D6DB70BD00100140704706E042F63D0132
:103C500000E0491E0029FCD1401E0028F6D1704723
:103C600006E00A2101E04A1ED1B20029FBDC401E19
:103C70000028F6D17047000003B587B0FE4808F071
:103C8000C7FC034629220690DDE9070107F052FE32
:103C9000F94808F0BDFC06900898401E80B20590D7
:103CA0000798401E80B204902C22DDE9051307F02E
:103CB00041FEF14808F0ACFC06900898801E80B2E6
:103CC00005900798401E80B204902E22DDE905136E
:103CD00007F030FEE84808F09BFC06900898C01EEC
:103CE00080B205902E220146DDE9063007F022FE63
:103CF000E14808F08DFC06900898001F80B20590FE
:103D00000798801C80B204902E22DDE9051307F08D
:103D100011FED94808F07CFC06900898401F80B23C
:103D200005900798233080B204900E22DDE9051338
:103D300007F000FED04808F06BFC06900898801F42
:103D400080B205900798233080B204900F22DDE9FD
:103D5000051307F0EFFDC84808F05AFC06900898D4
:103D6000C01F80B205900798233080B204900F22C4
:103D7000DDE9051307F0DEFDBF4808F049FC0690B9
:103D80000898083880B205900798243080B20490D3
:103D90000E22DDE9051307F0CDFDB74808F038FC29
:103DA00006900898093880B205900798243080B2B0
:103DB00004900F22DDE9051307F0BCFDAE4808F0C2
:103DC00027FC069008980A3880B20590079825309D
:103DD00080B204900E22DDE9051307F0ABFDA64882
:103DE00008F016FC069008980B3880B205900798EA
:103DF000253080B204900E22DDE9051307F09AFD0C
:103E00009D4808F005FC069008980C3880B2059093
:103E10000798253080B204900E22DDE9051307F0E3
:103E200089FD954808F0F4FB069008980D3880B29B
:103E300005900798263080B204900E22DDE9051324
:103E400007F078FD8C4808F0E3FB069008980E38E0
:103E500080B205900798253080B204900F22DDE9EA
:103E6000051307F067FD844808F0D2FB0690089818
:103E70000F3880B205900798263080B204900E2249
:103E8000DDE9051307F056FD7B4808F0C1FB0690FD
:103E90000898103880B205900798263080B20490B8
:103EA0000E22DDE9051307F045FD734808F0B0FB6D
:103EB00006900898113880B205900798263080B295
:103EC00004900F22DDE9051307F034FD6A4808F07D
:103ED0009FFB06900898123880B20590079827300B
:103EE00080B204900E22DDE9051307F023FD62483D
:103EF00008F08EFB06900898133880B2059007985A
:103F0000273080B204900E22DDE9051307F012FD80
:103F1000594808F07DFB06900898143880B2059047
:103F20000798273080B204900F22DDE9051307F0CF
:103F300001FD514808F06CFB06900898153880B2D6
:103F400005900798283080B204900E22DDE9051311
:103F500007F0F0FC484808F05BFB0690089816381C
:103F600080B205900798283080B204900E22DDE9D7
:103F7000051307F0DFFC404808F04AFB069008985C
:103F8000173880B205900798283080B204900E222E
:103F9000DDE9051307F0CEFC374808F039FB069041
:103FA0000898183880B205900798283080B204909D
:103FB0000E22DDE9051307F0BDFC2F4808F028FBB1
:103FC00006900898193880B205900798293080B279
:103FD00004900D22DDE9051307F0ACFC264808F03B
:103FE00017FB069008981A3880B205900798293078
:103FF00080B204900E22DDE9051307F09BFC1E48F9
:1040000008F006FB069008981B3880B205900798C8
:10401000293080B204900E22DDE9051307F08AFCF6
:10402000154808F0F5FA069008981C3880B20590FB
:1040300007982A3080B204900E22DDE9051307F0BC
:1040400079FC0D4808F0E4FA069008981D3880B213
:10405000059007982A3080B204900E22DDE90513FE
:1040600007F068FC044808F0D3FA069008981E3858
:1040700080B20590079801E02176EE002A3080B2E8
:1040800004900E22DDE9051307F054FCFE4808F009
:10409000BFFA069008981F3880B2059007982A301A
:1040A00080B204900F22DDE9051307F043FCF648C7
:1040B00008F0AEFA06900898203880B2059007986C
:1040C0002A3080B204900F22DDE9051307F032FC9C
:1040D000ED4808F09DFA06900898213880B20590C6
:1040E00007982B3080B204900D22DDE9051307F00C
:1040F00021FCE54808F08CFA06900898223880B236
:10410000059007982B3080B204900E22DDE905134C
:1041100007F010FCDC4808F07BFA0690089823387A
:1041200080B2059007982C3080B204900D22DDE912
:10413000051307F0FFFBD44808F06AFA06900898C8
:10414000243880B2059007982C3080B204900E225B
:10415000DDE9051307F0EEFBCB4808F059FA0690AD
:104160000898253880B2059007982C3080B20490CA
:104170000E22DDE9051307F0DDFBC34808F048FA1D
:1041800006900898263880B2059007982C3080B2A7
:1041900004900F22DDE9051307F0CCFBBA4808F0C4
:1041A00037FA06900898273880B2059007982C3087
:1041B00080B204900F22DDE9051307F0BBFBB24883
:1041C00008F026FA06900898283880B205900798DB
:1041D0002D3080B204900E22DDE9051307F0AAFB12
:1041E000A94808F015FA06900898293880B2059079
:1041F00007982D3080B204900E22DDE9051307F0F8
:1042000099FBA14808F004FA069008982A3880B271
:10421000059007982D3080B204900F22DDE9051338
:1042200007F088FB984808F0F3F9069008982B38B7
:1042300080B2059007982D3080B204900F22DDE9FE
:10424000051307F077FB904808F0E2F9069008980C
:104250002C3880B2059007982E3080B204900E2240
:10426000DDE9051307F066FB874808F0D1F90690F1
:1042700008982D3880B2059007982E3080B20490AF
:104280000E22DDE9051307F055FB7F4808F0C0F961
:10429000069008982E3880B2059007982E3080B28C
:1042A00004900F22DDE9051307F044FB764808F07F
:1042B000AFF9069008982F3880B2059007982F30F4
:1042C00080B204900E22DDE9051307F033FB6E483F
:1042D00008F09EF906900898303880B2059007984B
:1042E0002F3080B204900E22DDE9051307F022FB87
:1042F000654808F08DF906900898313880B205902D
:1043000007982F3080B204900F22DDE9051307F0E3
:1043100011FB5D4808F07CF906900898323880B2AD
:10432000059007982F3080B204900F22DDE9051325
:1043300007F000FB544808F06BF9069008983338F2
:1043400080B205900798303080B204900E22DDE9EB
:10435000051307F0EFFA4C4808F05AF90690089850
:10436000343880B205900798303080B204900E2225
:10437000DDE9051307F0DEFA434808F049F9069035
:104380000898353880B205900798303080B2049094
:104390000E22DDE9051307F0CDFA3B4808F038F9A5
:1043A00006900898363880B205900798313080B270
:1043B00004900D22DDE9051307F0BCFA324808F03D
:1043C00027F906900898373880B205900798313061
:1043D00080B204900E22DDE9051307F0ABFA2A48FB
:1043E00008F016F9069000900898333880B20590CE
:1043F0000798543080B204900898363880B2039001
:104400000798483080B2029003A90EC907F0B2F9AC
:104410001D4808F0FDF806900898343880B20590E1
:104420000798473080B204900D22DDE9051307F0AC
:1044300081FA154808F0ECF80690009008982F389B
:1044400080B205900798533080B2049008983338B2
:1044500080B203900798473080B2029003A90EC93A
:1044600007F088F9084808F0D3F8069000900898FB
:104470002C3880B205900798523080B2049008988A
:104480002F3880B2039001E02176EE000798463085
:1044900080B2029003A90EC907F06CF9FE4808F03B
:1044A000B7F806900898283880B2059007984430ED
:1044B00080B204900E22DDE9051307F03BFAF648BE
:1044C00008F0A6F806900898273880B2059007985B
:1044D000453080B204900D22DDE9051307F02AFA79
:1044E000ED4808F095F806900898263880B20590B7
:1044F0000798443080B204900D22DDE9051307F0DF
:1045000019FAE54808F084F806900898253880B232
:1045100005900798443080B204900C22DDE9051321
:1045200007F008FADC4808F073F806900090089845
:10453000213880B205900798503080B204900898D6
:10454000243880B203900798433080B2029003A9C8
:104550000EC907F00FF9D04808F05AF806900898ED
:10456000213880B205900798433080B204900C2225
:10457000DDE9051307F0DEF9C74808F049F80690B1
:10458000009008981D3880B2059007984F3080B28F
:1045900004900898203880B203900798423080B287
:1045A000029003A90EC907F0E5F8BB4808F030F8FF
:1045B000069008981D3880B205900798423080B266
:1045C00004900C22DDE9051307F0B4F9B24808F0B5
:1045D0001FF80690009008981A3880B20590079846
:1045E0004E3080B2049008981C3880B2039007982F
:1045F000413080B2029003A90EC907F0BBF8A6486B
:1046000008F006F8069008981A3880B205900798C6
:10461000413080B204900C22DDE9051307F08AF9DD
:104620009D4807F0F5FF069000900898163880B274
:10463000059007984D3080B204900898193880B2E0
:1046400003900798403080B2029003A90EC907F08A
:1046500091F8914807F0DCFF06900898163880B270
:10466000059007983F3080B204900E22DDE90513D3
:1046700007F060F9884807F0CBFF06900090089893
:10468000133880B2059007984C3080B20490089897
:10469000153880B2039007983F3080B2029003A98A
:1046A0000EC907F067F87C4807F0B2FF069000904B
:1046B0000898113880B2059007984B3080B204906A
:1046C0000898133880B2039007983F3080B2029068
:1046D00003A90EC907F04EF86F4807F099FF06903E
:1046E0000898113880B2059007983E3080B2049047
:1046F0000D22DDE9051307F01DF9674807F088FF73
:104700000690009008980E3880B2059007984A30BD
:1047100080B204900898103880B2039007983E3019
:1047200080B2029003A90EC907F024F85A4807F096
:104730006FFF0690009008980B3880B2059007989C
:104740004A3080B2049008980E3880B203900798DF
:104750003D3080B2029003A90EC907F00BF84E4815
:1047600007F056FF069008980B3880B2059007981E
:104770003D3080B204900C22DDE9051307F0DAF831
:10478000454807F045FF069000900898C01F80B28A
:1047900005900798493080B2049008980A3880B292
:1047A000039007983C3080B2029003A90EC906F02E
:1047B000E1FF394807F02CFF069000900898401F51
:1047C00080B205900798483080B204900898C01FC6
:1047D00080B2039007983B3080B2029003A90EC9C3
:1047E00006F0C8FF2C4807F013FF069000900898C9
:1047F000C01E80B205900798473080B20490089898
:10480000401F80B2039007983A3080B2029003A90B
:104810000EC906F0AFFF204807F0FAFE0690089890
:10482000C01E80B2059007983A3080B204900E22E4
:10483000DDE9051307F07EF8174807F0E9FE06905A
:104840000090089880B205900798473080B2049095
:104850000898801E80B2039007983A3080B2029088
:1048600003A90EC906F086FF0B4807F0D1FE06909B
:1048700007983A3080B205900C22069B089907F001
:1048800059F8054807F0C4FE06900898283880B209
:1048900005900798583001E02176EE0080B2049030
:1048A0001722DDE9051307F045F8FE4807F0B0FED2
:1048B00006900898273880B205900798553080B246
:1048C00004901B22DDE9051307F034F8F54807F0E2
:1048D0009FFE06900898263880B2059007985430BD
:1048E00080B204901E22DDE9051307F023F8ED489D
:1048F00007F08EFE06900898253880B2059007983C
:10490000533080B204902022DDE9051307F012F83D
:10491000E44807F07DFE06900898243880B20590A0
:104920000798533080B204900322DDE9051307F0A5
:1049300001F8DC4807F06CFE06900898243880B235
:1049400005900798683080B204900C22DDE90513C9
:1049500006F0F0FFD34807F05BFE06900898233876
:1049600080B205900798533080B204900122DDE9AF
:10497000051306F0DFFFCB4807F04AFE06900898C3
:10498000233880B205900798683080B204900C22DA
:10499000DDE9051306F0CEFFC24807F039FE0690A8
:1049A000009008981F3880B205900798743080B244
:1049B00004900898223880B203900798683080B23B
:1049C000029003A90EC906F0D5FEB64807F020FEF6
:1049D0000690009008981C3880B2059007987430B3
:1049E00080B2049008981F3880B20390079867300F
:1049F00080B2029003A90EC906F0BCFEA94807F0D8
:104A000007FE069008981C3880B20590079866301B
:104A100080B204900D22DDE9051306F08BFFA1485A
:104A200007F0F6FD069008981B3880B205900798AD
:104A3000673080B204900C22DDE9051306F07AFF9E
:104A4000984807F0E5FD069008981A3880B205905E
:104A50000798663080B204900D22DDE9051306F058
:104A600069FF904807F0D4FD069000900898173829
:104A700080B205900798723080B204900898193877
:104A800080B203900798653080B2029003A90EC9E6
:104A900006F070FE834807F0BBFD06900090089872
:104AA000153880B205900798713080B2049008984C
:104AB000173880B203900798653080B2029003A93E
:104AC0000EC906F057FE774807F0A2FD0690009049
:104AD0000898123880B205900798713080B204901F
:104AE0000898153880B203900798643080B202901D
:104AF00003A90EC906F03EFE6A4807F089FD06903C
:104B0000009008980F3880B205900798703080B2F6
:104B100004900898123880B203900798633080B2EE
:104B2000029003A90EC906F025FE5E4807F070FD4D
:104B3000069008980F3880B205900798633080B2CD
:104B400004900C22DDE9051306F0F4FE554807F049
:104B50005FFD0690009008980B3880B2059007988A
:104B60006F3080B2049008980E3880B20390079896
:104B7000623080B2029003A90EC906F0FBFD4948DD
:104B800007F046FD069008980B3880B2059007980C
:104B9000623080B204900C22DDE9051306F0CAFEF3
:104BA000404807F035FD069008980A3880B2059015
:104BB0000798613080B204900D22DDE9051306F0FC
:104BC000B9FE384807F024FD069000900898401F71
:104BD00080B2059007986D3080B20490089809382B
:104BE00080B203900798613080B2029003A90EC989
:104BF00006F0C0FD2B4807F00BFD069000900898CA
:104C0000801E80B2059007986C3080B2049008989E
:104C1000401F80B203900798603080B2029003A9D1
:104C20000EC906F0A7FD1F4807F0F2FC06900090A1
:104C30000898401C80B2059007986C3080B20490B0
:104C40000898801E80B2039007985F3080B202906F
:104C500003A90EC906F08EFD124807F0D9FC069094
:104C60000898383880B2059007987F3080B2049059
:104C70000C22DDE9051306F05DFE0A4807F0C8FCCA
:104C8000069000900898343880B2059007988B30D1
:104C900080B204900898373880B2039007987E302D
:104CA00080B201E02176EE00029003A90EC906F061
:104CB00061FDFE4807F0ACFC069000900898323881
:104CC00080B2059007988A3080B2049008983438F2
:104CD00080B2039007987E3080B2029003A90EC97B
:104CE00006F048FDF14807F093FC06900090089804
:104CF000303880B205900798893080B204900898C7
:104D0000323880B2039007987D3080B2029003A9B8
:104D10000EC906F02FFDE54807F07AFC06900898CA
:104D2000303880B2059007987C3080B204900D2214
:104D3000DDE9051306F0FEFDDC4807F069FC06908E
:104D400008982F3880B2059007987C3080B2049084
:104D50000C22DDE9051306F0EDFDD44807F058FC00
:104D6000069008982E3880B2059007987C3080B263
:104D700004900D22DDE9051306F0DCFDCB4807F0B9
:104D800047FC069008982D3880B2059007987C3033
:104D900080B204900C22DDE9051306F0CBFDC34878
:104DA00007F036FC0690009008982A3880B20590EB
:104DB0000798883080B2049008982C3880B203900D
:104DC00007987B3080B2029003A90EC906F0D2FC8E
:104DD000B64807F01DFC069000900898273880B26E
:104DE00005900798873080B2049008982A3880B2DE
:104DF000039007987B3080B2029003A90EC906F099
:104E0000B9FCAA4807F004FC06900898293880B23B
:104E100005900798993080B204900C22DDE90513C3
:104E200006F088FDA14807F0F3FB069008982838A3
:104E300080B205900798973080B204900D22DDE98A
:104E4000051306F077FD994807F0E2FB06900898F5
:104E5000273880B2059007987A3080B204900D22EE
:104E6000DDE9051306F066FD904807F0D1FB0690DA
:104E70000898273880B205900798963080B2049041
:104E80000C22DDE9051306F055FD884807F0C0FB4C
:104E9000069000900898243880B2059007988630D4
:104EA00080B204900898263880B2039007987A3030
:104EB00080B2029003A90EC906F05CFC7B4807F0A3
:104EC000A7FB06900898263880B205900798943082
:104ED00080B204900D22DDE9051306F02BFD734826
:104EE00007F096FB06900898253880B20590079841
:104EF000933080B204900C22DDE9051306F01AFD10
:104F00006A4807F085FB069000900898213880B227
:104F100005900798863080B204900898243880B2B3
:104F200003900798793080B2029003A90EC906F069
:104F300021FC5E4807F06CFB06900898243880B28C
:104F400005900798923080B204900C22DDE9051399
:104F500006F0F0FC554807F05BFB069008982338F4
:104F600080B205900798913080B204900B22DDE961
:104F7000051306F0DFFC4D4807F04AFB0690089841
:104F8000223880B2059007988F3080B204900C22AE
:104F9000DDE9051306F0CEFC444807F039FB069026
:104FA0000898213880B205900798783080B2049034
:104FB0000D22DDE9051306F0BDFC3C4807F028FB97
:104FC00006900898213880B2059007988D3080B2FD
:104FD00004900D22DDE9051306F0ACFC334807F020
:104FE00017FB06900898203880B205900798793012
:104FF00080B204900C22DDE9051306F09BFC2B48DF
:1050000007F006FB06900898203880B205900798B4
:105010008C3080B204900C22DDE9051306F08AFC86
:10502000224807F0F5FA069008981F3880B20590DC
:105030000798783080B204900D22DDE9051306F060
:1050400079FC1A4807F0E4FA069008981F3880B2F5
:10505000059007988A3080B204900D22DDE905138F
:1050600006F068FC114807F0D3FA069008981E383D
:1050700080B205900798783080B204900C22DDE968
:10508000051306F057FC094807F0C2FA0690089885
:105090001E3880B205900798893080B204900D22A6
:1050A000DDE9051306F046FC004801E02176EE003C
:1050B00007F0AEFA069008981D3880B20590079860
:1050C000773080B204900D22DDE9051306F032FC42
:1050D000FE4807F09DFA069008981D3880B20590AA
:1050E0000798873080B204900F22DDE9051306F09F
:1050F00021FCF64807F08CFA069008981C3880B21C
:1051000005900798773080B204900C22DDE90513F2
:1051100006F010FCED4807F07BFA069008981C3862
:1051200080B205900798863080B204901022DDE9A5
:10513000051306F0FFFBE54807F06AFA06900898A9
:105140001B3880B205900798773080B204901F22F8
:10515000DDE9051306F0EEFBDC4807F059FA06908E
:1051600008981A3880B205900798763080B204907B
:105170001F22DDE9051306F0DDFBD44807F048FAED
:1051800006900898193880B205900798763080B25A
:1051900004902022DDE9051306F0CCFBCB4807F094
:1051A00037FA06900898183880B20590079876303C
:1051B00080B204902022DDE9051306F0BBFBC34852
:1051C00007F026FA06900898173880B205900798DD
:1051D000753080B204902122DDE9051306F0AAFBA8
:1051E000BA4807F015FA06900898163880B205906C
:1051F0000798763080B204901322DDE9051306F09B
:1052000099FBB24807F004FA06900898163880B265
:10521000059007988A3080B204900C22DDE90513CE
:1052200006F088FBA94807F0F3F9069008981538AE
:1052300080B205900798753080B204901322DDE9A2
:10524000051306F077FBA14807F0E2F906900898ED
:10525000153880B2059007988A3080B204900C22ED
:10526000DDE9051306F066FB984807F0D1F90690D2
:105270000898143880B205900798753080B2049071
:105280001222DDE9051306F055FB904807F0C0F93E
:1052900006900898143880B2059007988A3080B23A
:1052A00004900D22DDE9051306F044FB874807F062
:1052B000AFF906900898133880B2059007987430BB
:1052C00080B204901122DDE9051306F033FB7F481C
:1052D00007F09EF906900898133880B20590079859
:1052E0008A3080B204900D22DDE9051306F022FB1E
:1052F000764807F08DF906900898123880B205902C
:105300000798743080B204901022DDE9051306F08E
:1053100011FB6E4807F07CF906900898123880B2AD
:10532000059007988A3080B204900E22DDE90513BB
:1053300006F000FB654807F06BF9069008981138F5
:1053400080B205900798743080B204900E22DDE997
:10535000051306F0EFFA5D4807F05AF90690089831
:10536000113880B2059007988A3080B204900E22DE
:10537000DDE9051306F0DEFA544807F049F9069016
:105380000898103880B205900798743080B2049065
:105390000D22DDE9051306F0CDFA4C4807F038F987
:1053A00006900898103880B2059007988A3080B22D
:1053B00004900E22DDE9051306F0BCFA434807F01D
:1053C00027F90690009008980C3880B2059007984D
:1053D000803080B2049008980F3880B2039007980C
:1053E000733080B2029003A90EC906F0C3F93748A2
:1053F00007F00EF9069008980C3880B205900798CF
:10540000733080B204900C22DDE9051306F092FAA5
:105410002E4807F0FDF8069000900898083880B2F2
:10542000059007987F3080B2049008980B3880B2BE
:1054300003900798723080B2029003A90EC906F05B
:1054400099F9224807F0E4F806900898083880B2E5
:1054500005900798723080B204900C22DDE90513A4
:1054600006F068FA194807F0D3F8069000900898FB
:10547000001F80B2059007987E3080B20490089893
:10548000C01F80B203900798713080B2029003A9C8
:105490000EC906F06FF90D4807F0BAF806900898A3
:1054A000001F80B205900798703080B204900E22E1
:1054B000DDE9051306F03EFA044807F0A9F8069066
:1054C0000090089880B20590079801E02176EE00E0
:1054D0007D3080B204900898C01E80B20390079877
:1054E000703080B2029003A90EC906F043F9FE485D
:1054F00007F08EF806900798703080B205900C2265
:10550000069B089906F016FAF74807F081F806900E
:10551000009008980C3880B205900798983080B2B7
:10552000049008980F3880B2039007988B3080B2AF
:10553000029003A90EC906F01DF9EB4807F068F8C0
:105540000690009008980A3880B205900798993024
:1055500080B2049008980C3880B2039007988B3082
:1055600080B2029003A90EC906F004F9DE4807F0E4
:105570004FF8069000900898C01F80B205900798D9
:10558000993080B2049008980A3880B20390079846
:105590008C3080B2029003A90EC906F0EBF8D24815
:1055A00007F036F8069000900898001F80B205902A
:1055B00007989A3080B204900898C01F80B2039078
:1055C00007988C3080B2029003A90EC906F0D2F879
:1055D000C54807F01DF8069000900898801E80B21C
:1055E000059007989B3080B204900898001F80B205
:1055F000039007988C3080B2029003A90EC906F080
:10560000B9F8B94807F004F806900898801E80B2EF
:10561000059007988D3080B204900E22DDE90513C5
:1056200006F088F9B04806F0F3FF06900898401E8F
:1056300080B2059007988F3080B204900C22DDE98B
:10564000051306F077F9A84806F0E2FF06900798E0
:10565000913080B205900A22069B089906F06AF9FB
:10566000A14806F0D5FF06900898293880B2059029
:105670000798AD3080B204902322DDE9051306F0CF
:1056800059F9994806F0C4FF06900898283880B266
:1056900005900798AB3080B204902722DDE905130E
:1056A00006F048F9904806F0B3FF069008982738AE
:1056B00080B205900798A93080B204902922DDE9D4
:1056C000051306F037F9884806F0A2FF06900898FF
:1056D000263880B205900798A83080B204902B221B
:1056E000DDE9051306F026F97F4806F091FF0690E4
:1056F0000898253880B205900798A73080B20490AA
:105700000D22DDE9051306F015F9774806F080FF54
:1057100006900898253880B205900798C63080B268
:1057200004900D22DDE9051306F004F96E4806F039
:105730006FFF06900898243880B205900798A6302D
:1057400080B204900D22DDE9051306F0F3F86648F7
:1057500006F05EFF06900898243880B205900798FE
:10576000C73080B204900D22DDE9051306F0E2F89F
:105770005D4806F04DFF06900898233880B20590EA
:105780000798A63080B204900C22DDE9051306F0DC
:10579000D1F8554806F03CFF06900898233880B2AF
:1057A00005900798C63080B204900E22DDE90513FB
:1057B00006F0C0F84C4806F02BFF069008982238F7
:1057C00080B205900798A53080B204900D22DDE9E3
:1057D000051306F0AFF8444806F01AFF0690089843
:1057E000223880B205900798C63080B204900E220D
:1057F000DDE9051306F09EF83B4806F009FF069028
:105800000898213880B205900798A53080B204909E
:105810000D22DDE9051306F08DF8334806F0F8FE99
:1058200006900898213880B205900798C63080B25B
:1058300004900D22DDE9051306F07CF82A4806F0F5
:10584000E7FE06900898203880B205900798A530AA
:1058500080B204900D22DDE9051306F06BF82248B2
:1058600006F0D6FE06900898203880B2059007987A
:10587000C63080B204900D22DDE9051306F05AF817
:10588000194806F0C5FE0690009008981D3880B2B1
:1058900005900798B23080B2049008981F3880B203
:1058A00003900798A43080B2029003A90EC905F0B6
:1058B00061FF0D4806F0ACFE0690009008981D3878
:1058C00080B205900798D33080B2049008981F38B2
:1058D00080B203900798C53080B2029003A90EC928
:1058E00005F048FF004801E02176EE0006F090FE4A
:1058F000069008981D3880B205900798A43080B2B1
:1059000004900D22DDE9051306F014F8FE4806F0B8
:105910007FFE069008981D3880B205900798C53024
:1059200080B204900D22DDE9051306F003F8F64875
:1059300006F06EFE0690009008981A3880B2059026
:105940000798B13080B2049008981C3880B2039058
:105950000798A33080B2029003A90EC905F00AFF90
:10596000E94806F055FE0690009008981A3880B273
:1059700005900798D23080B2049008981C3880B205
:1059800003900798C43080B2029003A90EC905F0B5
:10599000F1FEDD4806F03CFE069008981A3880B209
:1059A00005900798A33080B204900D22DDE905131D
:1059B00005F0C0FFD44806F02BFE069008981A3870
:1059C00080B205900798C43080B204900D22DDE9C2
:1059D000051305F0AFFFCC4806F01AFE06900898B4
:1059E000193880B205900798A23080B204900E2238
:1059F000DDE9051305F09EFFC34806F009FE069099
:105A00000898193880B205900798C43080B2049085
:105A10000D22DDE9051305F08DFFBB4806F0F8FD0A
:105A200006900898193880B205900798A23080B285
:105A300004900D22DDE9051305F07CFFB24806F065
:105A4000E7FD06900898193880B205900798C33092
:105A500080B204900E22DDE9051305F06BFFAA4821
:105A600006F0D6FD06900898183880B20590079881
:105A7000A23080B204900E22DDE9051305F05AFF32
:105A8000A14806F0C5FD06900898183880B2059028
:105A90000798C33080B204900D22DDE9051305F0AC
:105AA00049FF994806F0B4FD06900898173880B26F
:105AB00005900798A23080B204900D22DDE905130D
:105AC00005F038FF904806F0A3FD069008981738B7
:105AD00080B205900798C33080B204900D22DDE9B2
