:020000040800F2
:10000000702500204501000847C60008D198000867
:1000100029C600080D120008A51401080000000000
:100020000000000000000000000000001DCF0008DC
:10003000A53C00080000000089CA0008C9D20008D9
:100040005F0100085F0100085F010008D1CB0008D4
:100050005F0100085F0100085F0100085F01000800
:100060005F0100085F0100085F0100085F010008F0
:100070005F0100085F0100085F0100085F010008E0
:100080005F0100085F0100085F0100085F010008D0
:10009000ED1301085F0100085F0100085F0100081F
:1000A0005F0100085F0100085F0100085F010008B0
:1000B00061D300085F0100085F0100085F010008CC
:1000C0005F0100085F0100085F0100085F01000890
:1000D0005F0100085F0100085F0100085F01000880
:1000E0005F0100085F0100085F0100085F01000870
:1000F0005F0100085F0100085F0100085F01000860
:100100005F0100085F0100085F0100085F0100084F
:100110005F0100085F0100085F0100085F0100083F
:100120005F0100085F0100085F0100085F0100082F
:10013000DFF80CD000F020FD00480047AD3A010880
:10014000702500200648804706480047FEE7FEE786
:10015000FEE7FEE7FEE7FEE7FEE7FEE7FEE7FEE777
:100160005FD30008310100082DE9F05F054600204B
:1001700092469B4688460646814640241BE0284618
:1001800041464746224600F020F853465A46C01AD8
:10019000914110D311461846224600F081FB2D1ADA
:1001A00067EB01084F4622460120002100F078FB52
:1001B00017EB00094E41201EA4F10104DFDC484684
:1001C00031462A464346BDE8F09F202A04DB203A08
:1001D00021FA02F00021704721FA02F3D040C2F167
:1001E0002002914008431946704740EA01039B07EB
:1001F00003D009E008C9121F08C0042AFAD203E09C
:1002000011F8013B00F8013B521EF9D27047D2B2FF
:1002100001E000F8012B491EFBD270470022F6E7EF
:1002200010B513460A4604461946FFF7F0FF20466C
:1002300010BD421E12F8013F002BFBD111F8013B0B
:1002400002F8013B002BF9D17047421C10F8011B4A
:100250000029FBD1801A704710B5002200E0521C23
:10026000835C8C5CA34201D1002BF8D1D8B2E1B2FF
:10027000401A10BD034611F8012B00F8012B002A8B
:10028000F9D11846704770B5064611F02BFE046888
:1002900005460A220021304600F072FB2C6070BD3A
:1002A000F0B480EA0102D40F4200B2EB410F02D257
:1002B0000246084611464A0042D0C30DDDB2C1F3E2
:1002C000C752AD1A202D35DAC1F3160141F40002F0
:1002D00004B15242C5F1200602FA06F12A41104447
:1002E000B3EBD05F23D0C4B1012DA0EBC35009DC28
:1002F000F0BC4FF0004202EAC352DBB200F500004E
:1003000000F07FBB400000F1807000EBC350A0F113
:10031000807040EAD170490009E0490841EAC071A3
:10032000A0EBC35000F50000400800EBC350F0BC48
:1003300000F05EBB6142012202EB4101001BF6E7C7
:10034000F0BC704781F00041AAE780F00040A7E7C9
:1003500080EA010210B502F00043400022D04A00BA
:100360001FD0010E01EB1261C0F35600C2F356021A
:1003700040F4000042F40002A0FB022000047F3998
:10038000140400D0401C50EA124001D44000491E21
:10039000C2B20C0604EBD010401C4008802A02D0E8
:1003A00003E0002010BD20F00100002900DA002049
:1003B000184310BD30B480EA010202F0004530F06D
:1003C000004221F0004013D090B1C30DD40DC2F310
:1003D0001601C0F31600E41A41F4000140F40002D3
:1003E0007D34914201D3641C00E04900002C02DA04
:1003F00030BC002070474FF400000023914201D32D
:10040000891A034340084FEA4101F7D151B19142A3
:1004100002D14FF0004105E002D24FF0010101E0AE
:100420006FF0010103EBC450284430BC00F0E0BA87
:100430002DE9FE4F804681EA0300C00F0C46009074
:1004400021F0004123F00045B8EB0200A94105D29C
:100450004046214690461C460B46024623F000408B
:10046000104347D0270DC7F30A00C3F30A51029087
:10047000401A019040286BDAC3F3130040F4801B4C
:100480000098924620B10023D2EB030A63EB0B0BDA
:1004900001985946C0F14002504600F001FA064664
:1004A0000D4650465946019A00F009FA10EB080033
:1004B0006141002487EA115284EAE7731A4340D06D
:1004C000009A62B3019A012A4FEA075215DC001B19
:1004D00061EB02014FF0004202EA0752CDE900420F
:1004E000001C41F5801132462B4600F0C7FA03B0DC
:1004F000BDE8F08F40462146F9E7001B61EB0201A1
:10050000001C41F5801300185B412018A2F500176C
:1005100047EB030140EAD570B6196D4111E06D0853
:100520004FEA360645EAC0754FEA0752001B61EBF9
:100530000201001C41F5801149084FEA3000001902
:10054000514132462B4603B0BDE8F04F00F087BA68
:100550000098012240000023D0EB020263EBE0731D
:10056000009821464FEAE074B8EB000061EB04010B
:10057000E9E783F000435BE781F0004158E72DE9AC
:10058000FE4F81EA030404F0004421F0004100948E
:100590004FF0000B23F0004350EA01045ED052EA12
:1005A00003045BD0C3F30A54C1F30A552C44A4F2EC
:1005B000F3340194A0FB0254C1F3130141F4801100
:1005C000C3F3130343F4801301FB024400FB034E07
:1005D000840A970A44EA815447EA8357A4FB0768D0
:1005E00002958D0A05FB07854FEA932C04FB0C54FA
:1005F0002705029D4FEA065847EA1637B5EB08056E
:100600006EEB070C870E920E47EA811742EA8312BF
:10061000A7FB0201B6EB0B0164EB00042B0D43EAD0
:100620000C335E1844EB1C50DA465146E7FB0201DE
:10063000C5F313044FEA0B3343EA14534FEA043271
:10064000019C43EA0603A4F10C040294009CCDE94A
:1006500000B400F013FA03B0BDE8F08F00200146AB
:10066000F9E72DE9F04D81EA030404F0004B21F095
:10067000004514464FF0000A23F0004150EA0502FD
:1006800020D054EA01021DD0C5F30A570246C5F333
:100690001303C1F31300C1F30A5640F4801543F469
:1006A0008013A7EB0608101BD64608F2FD3873EB43
:1006B000050002D308F1010801E092185B41B8F18E
:1006C000000F03DA00200146BDE8F08D00204FF452
:1006D0008011064684460EE0171B73EB050705D311
:1006E000121B63EB050306434CEA010C49084FEA71
:1006F000300092185B4150EA0107EDD152EA030045
:1007000012D082EA040083EA0501084305D0101BD9
:10071000AB4106D20122002306E000224FF0004345
:1007200002E06FF0010253101AEB06004CEB085187
:1007300010EB0A0041EB0B01BDE8F04D00F08FB962
:10074000C10F80EAE0700844CA079623002100F038
:1007500058B996230022114600F053B90EB5C10FC7
:1007600080EAE0700844CA07002140F233438DE874
:100770000E000A460B4600F081F903B000BD00F000
:10078000004220F00040C10DC0F3160040F400000C
:100790007F2901DA00207047962903DCC1F1960118
:1007A000C84001E096398840002AF4D040427047A2
:1007B00020F00040C10DC0F3160040F400007F2976
:1007C00001DA00207047962903DCC1F19601C84088
:1007D000704796398840704770B5C1F30A5201F0EE
:1007E00000450024C1F3130140F2FF3341F48011AE
:1007F0009A4201DA002070BD40F233439A42A2F2DD
:10080000334203DC5242FFF7E0FC00E090402C430F
:10081000F1D0404270BD00F0004230F000400AD0FC
:10082000C10D01F56071C0F3160042EA0151C20822
:1008300040071143704700200146704701F0004314
:1008400030B421F0004150EA010206D00A0DA2F5B1
:100850006072C1F31301002A02DC30BC0020704733
:10086000440F44EAC104C100E01830BC00EBC250A0
:1008700000F0BEB830B50B4601460020202201240E
:1008800009E021FA02F59D4205D303FA02F5491B5E
:1008900004FA02F52844151EA2F10102F1DC30BD74
:1008A000202A04DB203A00FA02F100207047914030
:1008B000C2F1200320FA03F3194390407047202A25
:1008C00006DBCB17203A41FA02F043EAE07306E078
:1008D00041FA02F3D040C2F1200291400843194688
:1008E000704700000FB4002300B589B00CA9009137
:1008F0000B996FF00042CB601E4B06931E4B079383
:100900000423CDE901321D4A089202466B460020BD
:1009100000F0E6F909B05DF814FB70B586B0064644
:100920004FF0FF300091CDE90101002015460C4643
:1009300004903246694604A8FFF7D4FF02460498A3
:10094000211825B108B1084600E020462860049827
:1009500000280DD0002A02DD0098884208D0081B2C
:100960000094CDE901043246694604A8FFF7BAFFB6
:1009700006B070BD190F0008370F0008A50B00085E
:100980002DE9F04791460F4680460446002614F8AC
:10099000015B2DB100F002F90068405DC007F6D19F
:1009A0002B2D02D02D2D18D0641E4A4639462046E4
:1009B00000F0D2FA27B13968A14201D1C7F800800E
:1009C00071054FF002040BD54042002803DD11F001
:1009D00089FA0460A007BDE8F08746F48066E4E782
:1009E0000028F8DA11F07EFA04606FF00040F2E7B8
:1009F0000029A8BF7047401C490008BF20F0010033
:100A0000704710B4B0FA80FC00FA0CF050EA010410
:100A100004BF10BC704749B1CCF1200421FA04F4A2
:100A200011FA0CF118BF012121430843A3EB0C017B
:100A3000CB1D4FEA00614FEA102042BF002010BCDE
:100A4000704700EBC35010440029A4BF10BC70478E
:100A5000401C490008BF20F0010010BC704710B5D1
:100A6000141E73F1000408DA401C41F100019218D1
:100A70005B411A4301D120F0010010BD2DE9F04D7A
:100A800092469B4611B1B1FA81F202E0B0FA80F2CF
:100A900020329046FFF704FF04460F4640EA0A0062
:100AA00041EA0B0153465A46084313D0114653EA14
:100AB000010019D0C8F140025046FFF786FB0546F9
:100AC0000E46504659464246FFF7EAFE084305D017
:100AD000012004E020463946BDE8F08D00200543A2
:100AE00046EAE0762C4337430A986305E40AA0EB14
:100AF00008000022FD0A44EA47540A3002D50020CB
:100B00000146E9E7010510196941DDE908450019C9
:100B10006941BDE8F04DA2E7C1F30A52C1F31301E8
:100B200040F2FF3341F480119A4202DA002001467C
:100B3000704740F233439A42A2F2334202DC5242FF
:100B4000FFF743BBFFF7ACBE30B5041E71F10004E4
:100B500004DB4FF00044404264EB0101141E73F1CA
:100B6000000405DB1C464FF00043524263EB0403D4
:100B7000994208BF904230BD064C074D06E0E06840
:100B800040F0010394E8070098471034AC42F6D3D4
:100B9000FFF7D2FA3069020850690208004870472E
:100BA0002C69020810B50446FFF7F8FF0068005DE5
:100BB00000F0010010BD00002DE9FF4F087883B060
:100BC0009946FF2805D0491C2D2804D00024002078
:100BD00008E000200BE00124F9E700EB800003EBC4
:100BE0004000491C0B78FF2BF7D104B14042002391
:100BF0000293147819461D462D2C01D02B2C04D1BC
:100C0000521C2D2C13D000240294AA461478FF2CD9
:100C10000FD00A25A3FB057801FB05814FF0000CDE
:100C200003FB0C11521CE3194AEB0101EEE701240E
:100C3000EAE7814453EA010002D019F5C87F06DAD9
:100C400003980021C0E9001107B0BDE8F08F00252E
:100C5000AE4E2F46DFF8B882184600F0DAF9CDE93B
:100C60000001B9F1000002DAC9F1000400E0044615
:100C70000023A74A1AEB030B42EB045A12E0E007E9
:100C800007D02A46334638464146FFF778FC0746E8
:100C900088462A46334610461946FFF770FC05463B
:100CA0000E466410002CEAD1DDE90001B9F1000F15
:100CB0005A46534606DAFFF7D4FC3A464346FFF756
:100CC000D0FC05E0FFF75BFC3A464346FFF757FCD4
:100CD000029A0AB181F00041039AC2E90001B3E728
:100CE0002DE9FF4F1F468DB0D7E901464FF0FF3881
:100CF0002E2045464FF000090B90B9696D1C0E98E7
:100D00008847396A824688470028F6D1BAF1FF3F02
:100D10000AD024F4D064002E11DDBAF12B0F08D0D4
:100D2000BAF12D0F0BD102E0404611B08DE744F42B
:100D30008064B9696D1C0E9888478246761E6946A4
:100D4000600501D52D2000E02B208DF8000001F179
:100D5000010B0DF1200809E0B9696D1C0E98884758
:100D600082460F9844F40074761E0560002E02DD62
:100D7000BAF1300FF0D00B998A453ED144F080048F
:100D800006E00F99681CA9F1010944F40074086099
:100D9000B9696D1C761E0E98884782463028F0D0BF
:100DA0002BE00B998A4505D1200603D444F080043A
:100DB000761E18E0504611F06DFA08B30DF11301DC
:100DC000761E44F400748B4508D2AAF130000BF86B
:100DD000010B200607D5A9F1010003E0200602D48B
:100DE00009F101008146A00502D50F99681C086031
:100DF000B9696D1C0E9888478246002ED1DC53E0FD
:100E0000002E51DDBAF1650F02D0BAF1450F4BD17A
:100E1000A00549D5B9696D1C24F44074761E0E985E
:100E200088478246002E0CDD2B2804D0BAF12D0F06
:100E300007D144F48074B9696D1C0E9888478246C6
:100E4000761EE00501D52D2100E02B2108F8011BBD
:100E5000CDF82C8021E00DF12901761E44F40074B8
:100E600088450CD2AAF1300010F0FF0088F800008D
:100E700002D10B99884509D908F1010806E0E0057F
:100E800001D5244801E042F20F708146B9696D1C1A
:100E90000E98884782460F980560002E04DD504664
:100EA00011F0F8F90028D6D1F9690E988847FF208B
:100EB0008BF8000088F800000020069007904B4651
:100EC0006A4608A906A8FFF777FEA00502D46FF0CE
:100ED00001002AE714F0240F0AD0E00714D1DDE95D
:100EE00006123868031D3B600068C0E900120BE081
:100EF000DDE90601FFF7A2FC0146E00704D13868EE
:100F0000021D3A600068016028460EE700001440A8
:100F10000000F03FF1D8FFFF426842B1016811F8CC
:100F2000013B23B1521EC0E900121846704701214F
:100F3000C160881E704742685AB1C368016843B9EE
:100F400083688B4205D0491E521CC0E90012002064
:100F500070474FF0FF3070472DE9F05F8246007810
:100F6000002715468B460AF10104B946302801D006
:100F70009DB113E014F8010B0127782803D05828FD
:100F800001D045B10AE00DB1102D07D10027102581
:100F900014F8010B02E0082500E00A250026B046FF
:100FA0000EE005FB080005FB06F1012701EB1046EA
:100FB0001FFA80F8B6F5803F00D3B94614F8010B4C
:100FC000294600F018F80028EBDABBF1000F05D035
:100FD0000FB1641E00E05446CBF80040B9F1000F99
:100FE00006D010F07FFF02210160C81EBDE8F09F0F
:100FF00048EA0640FAE73A2800D2303820F02002CA
:10100000412A01D3A2F13700884201D34FF0FF30CB
:1010100070470EB540F2334202920022CDE9002221
:101020001346FFF72BFD03B000BD70B58C1810F808
:10103000015B15F0070301D110F8013B2A1106D11D
:1010400010F8012B03E010F8016B01F8016B5B1E37
:10105000F9D12B0705D40023521E0DD401F8013B12
:10106000FAE710F8013BCB1A921C03E013F8015B7E
:1010700001F8015B521EF9D5A142D8D3002070BD02
:1010800070B5044600252068806800F0010018B3A0
:101090002068806820F001002168886005F0F0FE7B
:1010A000054613E005F0ECFE401B02280ED920682F
:1010B000806800F0010048B1A06A40F01000A06212
:1010C000E06A40F00100E062012070BD20688068A5
:1010D00000F001000028E5D10020F6E738B504460D
:1010E0000025002000902068806800F0010078BB97
:1010F0002068806840F00100216888601948006815
:101100001949B0FBF1F0009002E00098401E0090F9
:1011100000980028F9D105F0B3FE054619E005F066
:10112000AFFE401B022814D92068806800F001003F
:1011300078B9A06A40F01000A062E06A40F00100B7
:10114000E06200BF002084F8240000BF012038BD09
:1011500005E02068806800F001000028DFD0002052
:10116000F5E700003401002040420F0010B50022D6
:101170004FF48051014805F07DFE10BD000C014088
:1011800010B501221103024805F074FE10BD0000E5
:10119000000C014010B50122D102064805F06AFE9C
:1011A0000A2012F093FA00224FF40061014805F082
:1011B00061FE10BD000C01401248407D05281DD283
:1011C000DFE800F003080D12170032200E4909680D
:1011D000486314E03C200C49096848630FE046204E
:1011E0000949096848630AE05020074909684863CB
:1011F00005E0632004490968486300E000BF00BFC0
:101200007047000064050020D404002000BFFEE702
:1012100010B501220421024805F02CFE10BD00008B
:101220000010014010B500220421024805F022FE02
:1012300010BD00000010014010B50122022102483B
:1012400005F018FE10BD00000010014010B500228E
:101250000221024805F00EFE10BD00000010014002
:1012600010B50446392013F039F8E0B213F047F80E
:10127000C4F3072013F043F8C4F3074013F03FF81A
:10128000200E13F03CF813F01BF810F0E9FD10BD30
:101290002DE9F04107460E4614463C2013F01EF897
:1012A000F0B213F02CF8301213F029F813F008F80C
:1012B0000CB10020208016E010F0D2FD05461E2D56
:1012C0000ED1384600F06CF905463D2013F006F8C3
:1012D00012F0F6FF2F4434B120882844208002E029
:1012E0002846BDE8F081E7E710B50BF0CFFB08B169
:1012F00000F082F8302000F0E4F810BD10B5312085
:1013000000F0DFF810BD10B504462146362000F08D
:10131000CAF810BD10B5044614B1204600F0F2F82A
:10132000342000F0CEF810BD70B50646304600F00F
:10133000D2F8054685B12946304600F024F8044627
:10134000412C09D0142C01D1432070BD422C01D175
:10135000B320FAE72046F8E77019FFF7DBFFF4E760
:1013600010B50446204600F0CDF820785C2802D065
:1013700020782F2803D10021642000F028F93220A2
:1013800000F09FF810BD2DE9F04105460F460026FC
:10139000012429E001E0601CC4B2285D5C2805D06E
:1013A000285D2F2802D0285D0028F4D1285D10B1D7
:1013B000601CC4B200E00024A819FFF7D1FF064664
:1013C00084B1BC420ED0412E0AD0142E02D143204B
:1013D000BDE8F081422E01D1B320F9E73046F7E7AE
:1013E000264601E03046F3E7D4E710B50446FF2176
:1013F0002046FFF7C8FF10BD10B5222012F06EFF87
:10140000322012F081F912F05FFF044612F058FF0B
:10141000204610BD2DE9F04112F056FF044612F0AF
:1014200053FF054612F050FF064612F04DFF0746E7
:1014300012F046FF44EA052040EA064040EA076011
:10144000BDE8F08170B50446272012F047FF12F086
:101450003BFF0646054646B100BF12F035FF20703F
:10146000641C701EC0B2061EF7D112F029FF284678
:1014700070BD10B504460C2012F030FF204612F06B
:101480003EFFFFF7C7FF10BD70B504460A2012F0FB
:1014900025FF204612F033FF12F016FF054612F02A
:1014A0000FFF284670BD70B505460C46284612F061
:1014B00015FF204612F023FF12F002FF10F0D0FCBF
:1014C00070BD10B50446204612F008FF12F0F8FE79
:1014D00010F0C6FC10BD0246114600E0491C087819
:1014E0000028FBD100E0491E08785C2804D0087869
:1014F0002F2801D09142F6D1914200D0491C881A80
:10150000C0B270472DE9F0410646012012F0E6FE18
:1015100012F0DAFE43282BDA2B20FFF7B5FF102854
:1015200026DA2F2012F0DAFE002012F0E8FE322038
:10153000FFF7C7FF0446142C1AD1CF20FFF7A4FFF2
:101540000446ACB14C20FFF794FF00EB042739466A
:101550004C2000F03CF85020FFF78BFF00EB0427F5
:101560003946502000F033F80021702000F02FF8A9
:101570002F2012F0B3FE3578284612F0C0FE09E0A5
:10158000761C35785C2D01D02F2D00D10025284602
:1015900012F0B5FE002DF3D112F092FEBDE8F081FD
:1015A00070B504462D2012F099FE12F08DFE06460D
:1015B000054646B100BF207812F0A1FE641C701EE3
:1015C000C0B2061EF7D112F07BFE284670BD70B582
:1015D00005460C460D2012F081FE284612F08FFEC3
:1015E000E0B212F08CFEC4F3072012F088FEC4F3C0
:1015F000074012F084FE200E12F081FE12F060FE11
:1016000070BD000010B500221021024805F032FC28
:1016100010BD00000008014010B501221021024851
:1016200005F028FC10BD00000008014010B50122A3
:101630008021024805F01EFC10BD0000000C014096
:1016400010B500228021024805F014FC10BD0000F6
:10165000000C014010B501224021024805F00AFCAF
:1016600010BD00000014014010B5002240210248C6
:1016700005F000FC10BD00000014014010B501226F
:101680005103024805F0F6FB10BD000000140140B4
:1016900010B500224FF40051014805F0EBFB10BDDE
:1016A0000014014010B501221103024805F0E2FBCD
:1016B00010BD00000014014010B500224FF480510D
:1016C000014805F0D7FB10BD0014014010B5012200
:1016D0001146024805F0CEFB10BD0000000C014091
:1016E00010B500220121024805F0C4FB10BD000026
:1016F000000C014010B501222021024805F0BAFB80
:1017000010BD00000010014010B500222021024849
:1017100005F0B0FB10BD000000100140F0B504461C
:101720000D46FF22FF21002319E0E05C4140002725
:1017300011E001F0010602F0010C52104910BCF159
:10174000000F01D041F080011EB182F0A00281F0B3
:101750000101781CC7B2082FEBDB581CC3B2AB42A7
:10176000E3DB41EA0220F0BD002070470020704713
:101770002DE9F04106460F4601210C480DF0BDFE53
:101780000B4908700948D0F8B852002403E0285DDE
:1017900008490855641C064800788442F7DB01209C
:1017A000054908700020BDE8F0810000E418002021
:1017B00024020020E81B00202502002033B50C463F
:1017C00000252DE09DF801109DF8030004F022FD96
:1017D00005469DF802002044A8421AD99DF802004F
:1017E000281A241A9DF80100401CC0B28DF801008F
:1017F00000208DF802009DF801000D2810D1012075
:101800008DF801009DF80300401CC0B28DF8030064
:1018100006E09DF802002044C0B28DF8020000E00E
:10182000D0E700BF0720B4FBF0F100FB11400949ED
:1018300009780844C0B28DF800009DF80000072820
:1018400005DB9DF80000C01FC0B28DF800000098B5
:101850003CBD00000801002038B517480078012879
:1018600029DD6FF07F400BF033F9044600200BF0C8
:101870002FF90546104800940078801E692202EB7B
:10188000C00081B22B4691220CA00AF0BDFB0A4891
:101890000078401E08490870002107480078401E63
:1018A000074A11540448007806490978884202D151
:1018B00000200449087038BD5201002020000000BB
:1018C000EC0600205301002038B5044600200BF040
:1018D000FFF8054614231A01022100904FF49B7073
:1018E0000AF09EF94FF46E400BF0F2F8054605231E
:1018F00040F23D1202210090101F0AF091F94FF4BE
:101900006E400BF0E5F8054614231A0105210090FE
:101910004FF49B700AF0ECFA4FF46E400BF0D8F8DD
:101920000546132340F23F120621009040F2371083
:101930000AF076F9192C0DDA00200BF0C9F80546EB
:101940000F2340F23F120621009040F237100AF0B8
:1019500067F924E0192C0FDB322C0DDA00200BF094
:10196000B7F805460C2340F23F120621009040F2E2
:1019700037100AF055F912E0322C0FDB4B2C0DDA40
:1019800000200BF0A5F80546092340F23F1206217E
:10199000009040F237100AF043F900E000BF38BD74
:1019A00038B50020254908700BF092F804460AF07B
:1019B0001FF9042001F010FF00200BF089F8044605
:1019C0006FF07F400BF084F805462B461E22C8219D
:1019D0001B4800940AF018FB00200BF079F804462D
:1019E0006FF07F400BF074F805462B461E22FA215B
:1019F0001348801D00940AF007FB00200BF068F8E4
:101A0000044610480BF064F805462B461E22C821F8
:101A10000B480C3000940AF0F7FA00200BF058F84D
:101A2000044608480BF054F805462B463422C821DA
:101A30000348123000940AF0E7FA38BD450100204F
:101A40008C4A010832F0F000F8B5044600200BF093
:101A50003FF805464FF47F000BF03AF80646601E4B
:101A600000EB400101EBC0001E2101EB400082B2FF
:101A700033468C21024800950AF0C6FAF8BD0000F2
:101A8000AD48010838B500200BF022F804461423B5
:101A90001A01022100904FF49B700AF0C1F84FF434
:101AA0006E400BF015F8044623460522022140F251
:101AB00039100AF06FFA4FF46E400BF009F8044643
:101AC00023460522022140F23D100AF063FA4FF44A
:101AD0006E400AF0FDFF044623460B2207214FF417
:101AE0009B700AF07DF94FF46E400AF0F1FF044656
:101AF0000F234FF49F7208210090901F0AF090F876
:101B00004FF46E400AF0E4FF0446234605221021FC
:101B100040F239100AF064F94FF46E400AF0D8FF31
:101B200004462346032211214FF49D700AF058F910
:101B30004FF46E400AF0CCFF0446234604221121E4
:101B400040F23B100AF026FA38BD00002DE9FC41B6
:101B5000484890F84000002845D1002440E0621C2D
:101B600045A101A810F08EF9204604EBD071491070
:101B7000A4EB4101C9B100200AF0AAFF0646404883
:101B80000AF0A6FF074604EBD470401000EB4001BA
:101B900001EB00102A2101EB400082B23B46A82154
:101BA00001A800960AF030FA18E000200AF090FF31
:101BB000064633480AF08CFF074604EBD470401009
:101BC00000EB400101EB00102A2101EB400082B242
:101BD0003B46082101A800960AF016FA601CC4B220
:101BE000082CBCDB44E0002440E0621C22A101A8D8
:101BF00010F048F9204604EBD0714910A4EB4101E4
:101C0000C9B100200AF064FF06461D480AF060FFD3
:101C1000074604EBD470401000EB400101EB0010CC
:101C20003D2101EB800082B23B46A82101A800962D
:101C30000AF0EAF918E000200AF04AFF06461048C8
:101C40000AF046FF074604EBD470401000EB400159
:101C500001EB00103D2101EB800082B23B460821E0
:101C600001A800960AF0D0F9601CC4B2042CBCDBB9
:101C7000BDE8FC8164050020253032643A00000094
:101C800032F0F00038B50C49B1F90000002305220C
:101C9000012107F01FFE00200AF01AFF04464FF44E
:101CA0006E400AF015FF05462B46022264210348C8
:101CB00000940AF0A9F938BD9A010020E00600203E
:101CC00038B54FF46E400AF003FF0446122340F289
:101CD0000F1208210090501E09F0A2FF4FF46E4031
:101CE0000AF0F6FE04462346062207214FF48670CA
:101CF0000AF076F84FF46E400AF0EAFE04462346F6
:101D00000422062140F20D100AF06AF84FF46E40EA
:101D10000AF0DEFE04462346022205214FF48770B6
:101D20000AF05EF84FF46E400AF0D2FE04460F232C
:101D30004FF48A7205210090501E09F071FF4FF494
:101D40006E400AF0C5FE044623460622102140F2EA
:101D500011100AF045F84FF46E400AF0B9FE04463F
:101D60002346042211214FF489700AF039F84FF408
:101D70006E400AF0ADFE044623460222122140F2D4
:101D800013100AF02DF838BD7CB501208549087084
:101D9000854908706FF07F400AF09AFE0546F023EF
:101DA0004FF4A07282210090002009F039FF6FF0FB
:101DB0007F400AF08DFE054600200AF089FE0646A7
:101DC0007A490095097DC1EB0111794A02EB410086
:101DD000334691223C210AF017F900200AF078FEE0
:101DE0000546A323C8228F21009064200AF080F8C2
:101DF00043F2FF300AF06CFE05461A233C228C2188
:101E00000090FF2001F088FD43F2FF300AF060FEF1
:101E100005466FF07F400AF05BFE06466349009579
:101E2000097DC1EB0111624A02EB4101881D334675
:101E300091224FF48C710AF0E7F843F2FF300AF078
:101E400047FE05461A233E22D2210090052001F0CC
:101E500063FD43F2FF300AF03BFE05466FF07F4022
:101E60000AF036FE064651490095097DC1EB011185
:101E70004F4A02EB410101F10C003346D7221421F5
:101E80000AF0C2F843F2FF300AF022FE05461A2398
:101E90003E22D2210090E12001F03EFD43F2FF30CE
:101EA0000AF016FE05466FF07F400AF011FE064666
:101EB0003E490095097DC1EB01113D4A02EB41010C
:101EC00001F112003346D722F0210AF09DF80020DC
:101ED0000AF0FEFD0546CA2340F23912AA210090FD
:101EE000072009F09DFE00242BE0621C31A101A80F
:101EF0000FF0C8FF4FF47F000AF0EAFD054604EB3F
:101F000004110722009002EB41001F231A46AA2168
:101F100001F002FD4FF47F000AF0DAFD05466FF094
:101F20007F400AF0D5FD064604EB0410132202EBB5
:101F300040013346B12201A800950AF065F8601C03
:101F4000C4B2092CD1DB002428E043F2FF300AF0B0
:101F5000BFFD054604EB04115722009002EB41003F
:101F60001F231A46CC2101F0D7FC43F2FF300AF0C0
:101F7000AFFD05466FF07F400AF0AAFD064604EB70
:101F80000412632303EB42010B4A02EB4400334685
:101F9000D32200950AF038F8601CC4B2032CD4DBBD
:101FA0007CBD00005101002052010020640500208A
:101FB000664C010825640000A24C010831B582B0CE
:101FC0001A4800780A2830DA1948007818B19DF8C4
:101FD00008002E2829D002A91648FEF72AF96FF02A
:101FE0007F400AF075FD044600200AF071FD0546A9
:101FF0000E4800940078401E692202EBC00081B2B6
:102000002B46912202A809F0FFFF0948007838B951
:102010009DF808002E2803D1044800780449087070
:1020200002480078401C014908703EBD5201002062
:1020300053010020EC06002010B500201449087060
:10204000144908701449087014480078012806D013
:10205000022807D0032808D004280CD108E001F09A
:1020600095FA09E000F0B6FC06E000F01DFD03E083
:10207000FFF796FC00E000BF00BF0848007808F0BA
:102080008BF9074801780548007800F00BF810BD7F
:102090005201002051010020530100204601002080
:1020A0004501002003B587B00798012806D0022813
:1020B00005D003287ED004287DD1E7E2B4E3FE48B2
:1020C0000078012817D1FD480AF002FD0390002096
:1020D0000AF0FEFC029003980090F9488078401EB8
:1020E00000EB8000F749084401901E225021029B1A
:1020F00009F08AFF16E000200AF0EAFC0390EF489E
:102100000AF0E6FC029003980090ED488078401EAB
:1021100000EB8000EB49084401901E225021029BF5
:1021200009F072FFE448007802281BD1E3480AF066
:10213000CFFC039000200AF0CBFC029003980090A3
:10214000DF48007D00EB8000DF4901EBC000DC4987
:10215000C97A00EBC100019034225021029B09F0A2
:1021600053FF1AE000200AF0B3FC0390D3480AF0B2
:10217000AFFC029003980090D148007D00EB8000F6
:10218000D14901EBC000CE49C97A00EBC1000190F2
:1021900034225021029B09F037FFC948B0F90D00E5
:1021A000002305220121039007F094FBC248007828
:1021B000032801E01FE136E310D1C0480AF088FC93
:1021C000039000200AF084FC0290039800904A22B9
:1021D0005021BE48029B09F017FF0FE000200AF0D3
:1021E00077FC0390B5480AF073FC029003980090C6
:1021F0004A225021B548029B09F006FFB048B0F9C9
:102200000F00002305220121039007F063FBAA4879
:102210000078042810D1A9480AF05AFC0390002045
:102220000AF056FC02900398009060225021A748C3
:10223000029B09F0E9FE0FE000200AF049FC039040
:102240009E480AF045FC02900398009060225021BD
:102250009E48029B09F0D8FE97480078052816D1C1
:1022600096480AF035FC039000200AF031FC0290F9
:10227000039800909248807A00EB4000944908440B
:1022800001901E22F021029B09F0BEFE15E0002005
:102290000AF01EFC039089480AF01AFC0290039889
:1022A00000908748807A00EB4000894908440190FB
:1022B0001E22F021029B09F0A7FE7F480078062825
:1022C0001DD17E480AF004FC039000200AF000FCB7
:1022D0000290039800907A48007D00EBC00101EB6A
:1022E00000107C4908447649097B01EB81010844D0
:1022F00001903422F021029B09F086FE1CE00020B0
:102300000AF0E6FB03906D480AF0E2FB02900398A6
:1023100000906B48007D00EBC00101EB00106D499F
:1023200008446749097B01EB81010844019034228C
:10233000F021029B09F068FE5F480078072816D15B
:102340005E480AF0C5FB039000200AF0C1FB029032
:10235000039800905A48407C00EB80005E49084496
:1023600001904A22F021029B09F04EFE15E0002068
:102370000AF0AEFB039051480AF0AAFB02900398C2
:1023800000904F48407C00EB800053490844019086
:102390004A22F021029B09F037FE4948408A024652
:1023A0004EA1039004A80FF06DFD43480078082863
:1023B00010D142480AF08CFB039000200AF088FB01
:1023C0000290039800906022F02104A8029B09F07B
:1023D0001BFE0FE000200AF07BFB039037480AF059
:1023E00077FB0290039800906022F02104A8029BE2
:1023F00009F00AFE18E230480078012817D12F486A
:102400000AF066FB039000200AF062FB029003983A
:1024100000902B48007D00EB8000324901EB40002A
:10242000019082225021029B09F0EEFD16E000206F
:102430000AF04EFB039021480AF04AFB02900398F1
:1024400000901F48007D00EB8000264901EB400012
:10245000019082225021029B09F0D6FD1648007897
:10246000022817D115480AF033FB039000200AF028
:102470002FFB0290039800901148407D00EB8000F4
:10248000194901EB4000019094225021029B09F070
:10249000BBFD31E000200AF01BFB039007480AF067
:1024A00017FB0290039800900548407D00EB8000E8
:1024B0000D4901EB400019E04501002032F0F00029
:1024C00064050020E348010838490108E0060020BF
:1024D0000B49010888490108F64901082530346490
:1024E00000000000A44A0108D64A01080190942285
:1024F0005021029B09F088FDCE48007803281FD1A7
:10250000CD480AF0E5FA039000200AF0E1FA0290C3
:1025100003980090C948007D00EBC00101EB00105A
:10252000C74901EB4000C549897D01EB810100EB02
:1025300041000190A6225021029B09F065FD1EE09A
:1025400000200AF0C5FA0390BB480AF0C1FA0290D5
:1025500003980090B948007D00EBC00101EB00102A
:10256000B74901EB4000B549897D01EB810100EBE2
:1025700041000190A6225021029B09F045FDAD4883
:10258000007804281FD1AC480AF0A2FA039000207A
:102590000AF09EFA029003980090A848007D00EB94
:1025A000C00101EB0010A64901EB4000A349097EE0
:1025B00001EB810100EB41000190B8225021029B08
:1025C00009F022FD1EE000200AF082FA03909A48EA
:1025D0000AF07EFA0290039800909848007D00EB84
:1025E000C00101EB0010964901EB40009349097EC0
:1025F00001EB810100EB41000190B8225021029BC8
:1026000009F002FD8B48007807281FD18A480AF09C
:102610005FFA039000200AF05BFA029003980090A2
:102620008648007D00EBC00101EB0010854901EBFD
:1026300040008249497E01EB810100EB410001909D
:10264000A622F021029B09F0DFFC1EE000200AF028
:102650003FFA039078480AF03BFA02900398009002
:102660007648007D00EBC00101EB0010754901EBDD
:1026700040007249497E01EB810100EB410001906D
:10268000A622F021029B09F0BFFCCDE06E48006855
:10269000002305221946039007F01CF900200AF0D8
:1026A00017FA03904FF46E400AF012FA0290039862
:1026B00000901E22FA216548029B09F0A5FC6248A1
:1026C0004068002304221946039007F003F9002014
:1026D0000AF0FEF903904FF46E400AF0F9F9029007
:1026E000039800903422FA215848029B09F08CFC90
:1026F00050480078012810D14F480AF0E9F90390BA
:1027000000200AF0E5F90290039800901E22502163
:102710004F48029B09F078FC0FE000200AF0D8F93E
:10272000039045480AF0D4F90290039800901E22C5
:1027300050214748029B09F067FC3E480078022878
:1027400011D13D480AF0C4F9039000200AF0C0F905
:10275000029003980090342250213D480F30029B94
:1027600009F052FC10E000200AF0B2F90390324860
:102770000AF0AEF9029003980090342250213448B8
:102780000F30029B09F040FC2A480078032811D141
:1027900029480AF09DF9039000200AF099F9029067
:1027A000039800904A22502129481E30029B09F0CC
:1027B0002BFC10E000200AF08BF903901E480AF071
:1027C00087F90290039800904A22502120481E3039
:1027D000029B09F019FC17480078042811D116480B
:1027E0000AF076F9039000200AF072F9029003983B
:1027F00000906022502116482D30029B09F004FC05
:1028000010E000200AF064F903900B480AF060F928
:10281000029003980090602250210D482D30029BB9
:1028200009F0F2FB00E000BF00BF079807F0B4FD1D
:1028300009B000BD4501002032F0F0006405002021
:10284000084B0108D04B010810000020E0060020D2
:1028500071480108F8B500200AF03AF9054609F078
:10286000C7F99621322001F035FA4FF4487010F084
:102870002DFF00200AF02CF9054609F0B9F92E4881
:1028800090F8400040BB002423E0002C07DD092C19
:1028900005DA294A9178621ED0B207F0B5FA002015
:1028A0000AF016F905466FF07F400AF011F9064666
:1028B00004EBC40149008A1C204901EB4410334653
:1028C0000221009509F0A0FBC82001F0ECF9601C82
:1028D000C4B20A2CD9DB2DE0002427E0002C09DD4E
:1028E000052C07DA144A9178621E5206100E07F082
:1028F0008BFA01E010F0F0FF00200AF0E9F805463D
:102900006FF07F400AF0E4F8064604EBC40149008A
:102910008A1C0B4901EB441033460221009509F053
:1029200073FBC82001F0BFF9601CC4B2062CD5DBD4
:1029300010F0D2FFF8BD000064050020C14C010872
:10294000014E010838B54DF6DC400AF0C1F80446E6
:1029500012234FF4947209210090901F09F060F93E
:102960004DF6DC400AF0B4F804462346062208215E
:1029700040F2231009F034FA4DF6DC400AF0A8F8D2
:1029800004462346052207214FF4927009F028FAE5
:1029900000200AF09DF8044623460222092140F255
:1029A000231009F0F7FA00200AF092F804462346B3
:1029B0000322082140F2251009F0ECFA00200AF069
:1029C00087F8044623460322082140F2271009F025
:1029D000E1FA38BDF8B50020304908700AF078F8FF
:1029E000054609F005F9022000F0F6FE002451E04A
:1029F000204604EBD0714910A4EB410121B3002023
:102A00000AF066F8064647F2CE100AF061F807466B
:102A100004EBD471491001EB410303EBC1011E2308
:102A200003EB41018AB21E490096097D01EB810149
:102A30001C4B03EB011104EB840301EB43003B4609
:102A4000A82109F0E1FA23E000200AF041F8064647
:102A500047F2CE100AF03CF8074604EBD471491057
:102A600001EB410303EBC1011E2303EB41018AB2D9
:102A70000B490096097D01EB81010A4B03EB011123
:102A800004EB840301EB43003B46082109F0BCFA48
:102A9000601CC4B2082CABDBF8BD0000450100206F
:102AA000640500202D460108F8B50020564908703D
:102AB0000AF00EF8054609F09BF8032000F08CFEA2
:102AC000002420E000200AF003F8054647F2CE106B
:102AD00009F0FEFF06464D490095097DC1EB011145
:102AE000C1EBC1014A4B03EB4101C4EB0413C8180D
:102AF00004EBC401162303EB41023346082109F01D
:102B000083FA601CC4B20A2CDCDB002423E0002022
:102B100009F0DEFF054647F2CE1009F0D9FF064660
:102B20003A490095097DC1EB0111C1EBC101384B58
:102B300003EB410304F10A01C1EB01115818A11D77
:102B400001EBC101162303EB41023346A82109F032
:102B50005BFA601CC4B2032CD9DB002435E0022CE4
:102B600018DA002009F0B4FF05466FF07F4009F045
:102B7000AFFF064604EBC401162303EB410204EB4E
:102B80008401244B03EB810033469021009509F02A
:102B90003BFA18E0002009F09BFF05466FF07F40EC
:102BA00009F096FF0646611C01EBC101162303EBF9
:102BB000410204EB8401174B03EB81003346902163
:102BC000009509F021FA601CC4B2052CC7DB002077
:102BD00009F07EFF05466FF07F4009F079FF064659
:102BE00033463A22902109481A30009509F00CFA30
:102BF00009480A490A880280897881700848094989
:102C000009680160F8BD000045010020640500204E
:102C1000CD460108284A0108590100203C01002046
:102C2000550100203801002038B5002009F050FF80
:102C300004466FF07F4009F04BFF054606490094BB
:102C40008978491E01EB8101044A88182B4601222C
:102C50005F2109F0D9F938BD64050020E348010877
:102C600000B587B000200590FE4890F8400000288D
:102C70007ED106902EE20698049000EBD0704110B1
:102C80000498A0EB4100002873D0F749069831F969
:102C9000100047F6FF71884245D10698401CF34961
:102CA000097888421FD16FF07F4009F011FF03902F
:102CB000002009F00DFF0290039800900698049000
:102CC00000EBD070401000EB400101EB00102A2116
:102CD00001EB400080B201900246D021E4A0029BAB
:102CE00009F030F9F2E1002009F0F2FE03906FF0F4
:102CF0007F4009F0EDFE0290039800900698049042
:102D000000EBD070401000EB400101EB00102A21D5
:102D100001EB400080B201900246D021D4A0029B7A
:102D200009F010F9D2E1D049069831F81020CD48C9
:102D30003030069900EB41000088104401B2CE4AC1
:102D4000069822F810101146069831F91000002359
:102D500005220121049006F0BDFDC749069831F90E
:102D60001000C049B1F90D1088420BDCC24901E0E6
:102D7000B5E195E0069831F91000BA49B1F90F10A4
:102D8000884247DA012005900698401CB749097827
:102D900088421FD14FF47F0009F09AFE0390002073
:102DA00009F096FE0290039800900698049000EBBC
:102DB000D070401000EB400101EB00102A2101EB24
:102DC000400080B201900246D021AC48029B09F03D
:102DD000B9F87BE1002009F07BFE03904FF47F00FF
:102DE00009F076FE0290039800900698049000EB9C
:102DF000D070401000EB400101EB00102A2101EBE4
:102E0000400080B201900246D0219C48029B09F00C
:102E100099F85BE10698401C9449097888421FD1D3
:102E20004FF46E4009F054FE0390002009F050FE6C
:102E30000290039800900698049000EBD070401028
:102E400000EB400101EB00112A2000EB410080B2B1
:102E500001900246D0218948029B09F073F835E1C0
:102E6000002009F035FE03904FF46E4009F030FE6B
:102E70000290039800900698049000EBD0704010E8
:102E800000EB400101EB00102A2101EB400080B271
:102E900001900246D0217948029B09F053F815E1D0
:102EA0007149069831F9100047F6FF71884245D103
:102EB0000698401C6D49097888421FD16FF07F4009
:102EC00009F006FE0390002009F002FE029003982C
:102ED00000900698049000EBD070411001EB410087
:102EE00000EB01102A2101EB400080B20190024664
:102EF00030215FA0029B09F025F8E7E0002009F0EF
:102F0000E7FD03906FF07F4009F0E2FD0290039827
:102F100000900698049000EBD070411001EB410046
:102F200000EB01102A2101EB400080B20190024623
:102F300030214FA0029B09F005F8C7E04A490698E6
:102F400031F8102047483030069900EB41000088E6
:102F5000104401B2484A069822F81010114606980B
:102F600031F91000002305220121049006F0B2FC83
:102F70004149069831F910003A49B1F90D108842DB
:102F800008DC3D49069831F910003649B1F90F10B7
:102F9000884247DA012005900698401C3349097899
:102FA00088421FD14FF47F0009F092FD039000206A
:102FB00009F08EFD0290039800900698049000EBB3
:102FC000D070411001EB410000EB01102A2101EB10
:102FD000400080B20190024630212848029B08F050
:102FE000B1FF73E0002009F073FD03904FF47F0000
:102FF00009F06EFD0290039800900698049000EB93
:10300000D070401000EB400101EB00102A2101EBD1
:10301000400080B20190024630211848029B08F01F
:1030200091FF53E00698401C1049097888422ED140
:103030004FF46E4009F04CFD0390002009F048FD6C
:103040000290039800900698049000EBD070401016
:1030500000EB400101EB00102A2101EB400080B29F
:1030600001900DE0640500200807002045010020C4
:103070002D2D2D2D2D2D0000A6050020E006002071
:1030800002463021F748029B08F05CFF1EE000205A
:1030900009F01EFD03904FF46E4009F019FD0290F7
:1030A000039800900698049000EBD070401000EB5D
:1030B000400101EB00102A2101EB400080B2019099
:1030C00002463021E748029B08F03CFF0698401C6E
:1030D000C0B2069006980828FFF6CDAD39E2002070
:1030E000069032E20698049000EBD07041100498EC
:1030F000A0EB410000287DD006984000DA4931F964
:10310000100047F6FF71884247D10698401CD74906
:103110000978884220D16FF07F4009F0D9FC0390F4
:10312000002009F0D5FC02900398009006980490C6
:1031300000EBD070411001EB410000EB01103D218C
:1031400001EB800080B201900246D021AFF2E00096
:10315000029B08F0F7FEF4E1002009F0B9FC0390AF
:103160006FF07F4009F0B4FC02900398009006983D
:10317000049000EBD070401000EB400101EB001018
:103180003D2101EB800080B201900246D021AFF2D8
:103190002010029B08F0D6FED3E106984000B24909
:1031A00031F81020B248069900EB41000088104425
:1031B00001B2B04A069822F810101146069831F96B
:1031C0001000002305220121049006F083FBA94989
:1031D000069831F91000A6493039B1F90D1088422E
:1031E0000BDCA449069831F91000A1493039B1F936
:1031F0000F1000E08FE0884247DA01200590069822
:10320000401C9A49097888421FD14FF47F0009F089
:103210005FFC0390002009F05BFC02900398009093
:103220000698049000EBD070411001EB410000EBD8
:1032300001103D2101EB800080B201900246D021B7
:103240008848029B08F07EFE7BE1002009F040FCEC
:1032500003904FF47F0009F03BFC0290039800902C
:103260000698049000EBD070411001EB410000EB98
:1032700001113D2000EB810080B201900246D02177
:103280007848029B08F05EFE5BE10698401C774997
:10329000097888421FD14FF46E4009F019FC039061
:1032A000002009F015FC0290039800900698049005
:1032B00000EBD070411001EB410000EB01103D210B
:1032C00001EB800080B201900246D0216548029B4C
:1032D00008F038FE35E1002009F0FAFB03904FF4C6
:1032E0006E4009F0F5FB0290039800900698049058
:1032F00000EBD070401000EB400101EB00103D21CD
:1033000001EB800080B201900246D0215548029B1B
:1033100008F018FE15E106984000534931F91000F5
:1033200047F6FF71884247D10698401C4F490978FB
:10333000884220D16FF07F4009F0CAFB0390002043
:1033400009F0C6FB0290039800900698049000EBE9
:10335000D070401000EB400101EB00113D2000EB6C
:10336000810080B2019002463021AFF2FC20029B26
:1033700008F0E8FDE5E0002009F0AAFB03906FF0FB
:103380007F4009F0A5FB02900398009006980490F6
:1033900000EBD070411001EB410000EB01103D212A
:1033A00001EB800080B2019002463021AFF2403044
:1033B000029B08F0C7FDC4E0069840002A4931F896
:1033C00010202B48069900EB41000088104401B200
:1033D000284A069822F810101146069831F9100074
:1033E000002305220121049006F074FA2149069871
:1033F00031F910001E493039B1F90D10884209DC4D
:103400001C49069831F9100019493039B1F90F10EB
:10341000884251DA012005900698401C134909782A
:10342000884229D14FF47F0009F052FB039000201D
:1034300009F04EFB0290039800900698049000EB70
:10344000D070411001EB410000EB01103D2101EB78
:10345000800080B20190024630210248029B08F0B1
:1034600071FD6EE0E0060020080700204501002005
:1034700094050020A6050020002009F029FB0390F8
:103480004FF47F0009F024FB029003980090069807
:10349000049000EBD070401000EB400101EB0010F5
:1034A0003D2101EB800080B201900246302133487B
:1034B000029B08F047FD44E00698401C304909781B
:1034C00088421FD14FF46E4009F002FB03900020A8
:1034D00009F0FEFA0290039800900698049000EB21
:1034E000D070411001EB410000EB01103D2101EBD8
:1034F000800080B20190024630212048029B08F0F3
:1035000021FD1EE0002009F0E3FA03904FF46E4025
:1035100009F0DEFA0290039800900698049000EB00
:10352000D070411001EB410000EB01103D2101EB97
:10353000800080B20190024630211048029B08F0C2
:1035400001FD0698401CC0B2069006980428FFF6BC
:10355000C9AD0598012808D10A48007B28B9012285
:10356000D102094803F086FC05E000224FF4006117
:10357000054803F07FFC07B000BD0000E006002016
:103580004501002064050020000C014070B50020BA
:103590002C49087009F09CFA054608F029FB012027
:1035A00000F01AF9FFF740FB00F030F9FEF7CEFA11
:1035B00000242EE0244890F84000012817D120462E
:1035C00004EBD0714910A4EB410101BB6FF07F40C7
:1035D00009F07EFA0546262204FB02F000F11E01E6
:1035E0002B4640F23F12012008F0FAFB0FE06FF08B
:1035F0007F4009F06DFA0546262204FB02F000F137
:103600001E012B4640F23F12012008F0E9FB601C2E
:10361000C4B2052CCEDB002410E06FF07F4009F02F
:1036200057FA054604EB84014901491C88B22B4630
:1036300098221E2108F0AEFC601CC4B2032CECDB07
:1036400070BD0000450100206405002030B587B042
:1036500051480078012802D003287CD136E04F4938
:103660004F4809F081FA4D48807800904B484378E4
:1036700002784CA104A80EF005FC4948807800901F
:1036800047484378C2784BA101A80EF0FBFB00200D
:1036900009F01EFA04464C4809F01AFA05462B4672
:1036A0000122AA2104A8009408F0AEFC002009F031
:1036B0000FFA0446444809F00BFA05462B46C0228F
:1036C000B42101A8009408F09FFC61E0334934481C
:1036D00009F04AFA3D48807800903C4843780278E7
:1036E00030A104A80EF0CEFB39488078009038480D
:1036F0004378C2782FA101A80EF0C4FB35480078AA
:1037000005280FD1304809F0E3F90446002009F0FC
:10371000DFF905462B468222F02101A8009408F02B
:1037200073FC0EE0002009F0D3F90446264809F0A6
:10373000CFF905462B468222F02101A8009408F01B
:1037400063FC24480078062811D11F4809F0C0F90D
:103750000446002000E01AE009F0BAF905462B46BD
:103760009422F02104A8009408F04EFC0EE0002002
:1037700009F0AEF90446144809F0AAF905462B46AB
:103780009422F02104A8009408F03EFC00E000BF61
:1037900000BF07B030BD0000460100203C01002002
:1037A00038010020253032643A253032643A253021
:1037B000326400003230253032642D253032642DE1
:1037C000253032640000000032F0F0005901002082
:1037D0005501002045010020F8B504464FF46E4025
:1037E00009F076F90546002009F072F90646611ED7
:1037F000C1EB0111044A8818334601221146009595
:1038000008F002FCF8BD00009745010838B500201B
:1038100009F05EF904466FF07F4009F059F905465A
:103820002B4603227F2115A0009408F0EDFB002019
:1038300009F04EF904466FF07F4009F049F905465A
:103840002B4603229F210EA0009408F0DDFB0020F0
:1038500009F03EF904466FF07F4009F039F905465A
:1038600008490094897A01EB4101074A88182B46E0
:1038700001228F2108F0C8FB38BD0000280000009D
:1038800029000000640500200B49010838B52148D3
:1038900009F01EF9044609234FF4807206210090B6
:1038A000FA2008F0BDF9002009F012F904460723B8
:1038B000FC2219460090104608F0B2F9002009F0E9
:1038C00007F904460723FE2219460090104608F027
:1038D000A7F9104809F0FCF80446112340F2011240
:1038E0000A210090F92008F09BF90A4809F0F0F845
:1038F0000446234607221221FA2008F071FA0548EF
:1039000009F0E6F80446234603221321FC2008F0C0
:1039100067FA38BD2176EE002DE9F84304460D46DE
:1039200017461E46DDF820806FF07F4009F0D0F882
:1039300081467B1E9AB26B1C99B2631C98B24B46AF
:1039400008F04EFA6FF07F4009F0C2F88146731E0E
:103950009AB26B1C99B2631C98B24B4608F01AFBE2
:103960006FF07F4009F0B4F88146731E9AB26B1C69
:1039700099B2A31C98B24B4608F00CFB002009F04A
:10398000A7F881464B463A462946204608F028FAD1
:10399000002009F09DF881464B46324629462046D4
:1039A00008F0F8FA002009F093F88146E11988B28E
:1039B0004B463246294608F0EDFA002009F088F817
:1039C0008146711C8AB2E119491C88B24B462946CE
:1039D00008F0E0FA002009F07BF88146781C82B2FA
:1039E000A81981B24B46204608F0FAF905EB060CFF
:1039F000ACF1010C1FFA8CF304EB070CACF1010CD9
:103A00001FFA8CF205F1020C1FFA8CF104F1030C81
:103A10001FFA8CF0CDF8008008F002F9BDE8F883B9
:103A200070B504466FF07F4009F052F8054608F083
:103A3000DFF8012C06D0022C1BD0032C32D0042C32
:103A400060D146E04FF47F0009F042F805462B466E
:103A50000A221421084608F0C3F94FF47F0009F048
:103A600037F805462B460A220F21192008F092FA52
:103A700048E04FF47F0009F02BF805462B460A2258
:103A800014214FF4967008F0ABF94FF47F0009F061
:103A90001FF805462B460A220F2140F2311008F08C
:103AA00079FA2FE04FF47F0009F012F805462B4613
:103AB0000A22DC21142008F093F94FF47F0009F06A
:103AC00007F805462B460A22D721192008F062FA8A
:103AD00018E04FF47F0008F0FBFF05462B460A2252
:103AE000DC214FF4967008F07BF94FF47F0008F06A
:103AF000EFFF05462B460A22D72140F2311008F08D
:103B000049FA00BF00BF70BD10B501221021044862
:103B100003F0B0F900F07CF800F022F810BD0000CE
:103B2000001001401FB510200090012002900020DD
:103B30000190022003906946014802F0F3FF1FBD87
:103B4000001001401FB510200090012001900220BC
:103B500003906946014802F0E5FF1FBD00100140D7
:103B600010B50024FFF7DEFF04E0601CC4B20120A2
:103B70000FF0CAFD10210F4803F074F908B1642C4E
:103B8000F3DB642C01DB012010BD002404E0601C89
:103B9000C4B201200FF0B8FD1021064803F062F90D
:103BA00008B9F02CF3DBF02C01DB0120ECE700205E
:103BB000EAE700000010014070B50024002520E075
:103BC000FFF7C0FF00221021104803F053F9022034
:103BD0000FF09AFD012210210C4803F04BF9FFF77A
:103BE000A1FF0A200FF090FD64101021074803F098
:103BF00039F908B144F080043C200FF085FD681CC1
:103C0000C5B2082DDCDB204670BD0000001001406D
:103C100010B5FFF797FF00221021084803F02AF99A
:103C200040F2EE200FF070FD01221021034803F056
:103C300021F90F200FF068FD10BD000000100140B9
:103C400070B50446FFF77EFF002526E004F001066C
:103C5000641086B100221021114803F00BF90220F4
:103C60000FF052FD012210210D4803F003F93C2012
:103C70000FF04AFD0FE000221021094803F0FAF886
:103C800046200FF041FD01221021054803F0F2F813
:103C900002200FF039FD681CC5B2082DD6DB70BDBF
:103CA00000100140704706E042F63D0100E0491E69
:103CB0000029FCD1401E0028F6D1704706E00A21F9
:103CC00001E04A1ED1B20029FBDC401E0028F6D1DB
:103CD0007047000003B587B0FE4808F0F9FE0346C0
:103CE00029220690DDE9070108F07AF8F94808F082
:103CF000EFFE06900898401E80B205900798401E7F
:103D000080B204902C22DDE9051308F069F8F1482F
:103D100008F0DEFE06900898801E80B20590079895
:103D2000401E80B204902E22DDE9051308F058F8F9
:103D3000E84808F0CDFE06900898C01E80B20590B5
:103D40002E220146DDE9063008F04AF8E14808F085
:103D5000BFFE06900898001F80B205900798801C4F
:103D600080B204902E22DDE9051308F039F8D94815
:103D700008F0AEFE06900898401F80B205900798A4
:103D8000233080B204900E22DDE9051308F028F8F4
:103D9000D04808F09DFE06900898801F80B20590DC
:103DA0000798233080B204900F22DDE9051308F054
:103DB00017F8C84808F08CFE06900898C01F80B21B
:103DC00005900798233080B204900F22DDE9051397
:103DD00008F006F8BF4808F07BFE069008980838FF
:103DE00080B205900798243080B204900E22DDE95D
:103DF000051307F0F5FFB74808F06AFE069008982B
:103E0000093880B205900798243080B204900F22C0
:103E1000DDE9051307F0E4FFAE4808F059FE06900F
:103E200008980A3880B205900798253080B204902F
:103E30000E22DDE9051307F0D3FFA64808F048FE7F
:103E4000069008980B3880B205900798253080B20C
:103E500004900E22DDE9051307F0C2FF9D4808F02B
:103E600037FE069008980C3880B2059007982530E8
:103E700080B204900E22DDE9051307F0B1FF9548EA
:103E800008F026FE069008980D3880B20590079835
:103E9000263080B204900E22DDE9051307F0A0FF62
:103EA0008C4808F015FE069008980E3880B20590F0
:103EB0000798253080B204900F22DDE9051307F042
:103EC0008FFF844808F004FE069008980F3880B2EF
:103ED00005900798263080B204900E22DDE9051384
:103EE00007F07EFF7B4808F0F3FD06900898103835
:103EF00080B205900798263080B204900E22DDE94A
:103F0000051307F06DFF734808F0E2FD069008986E
:103F1000113880B205900798263080B204900F22A5
:103F2000DDE9051307F05CFF6A4808F0D1FD069053
:103F30000898123880B205900798273080B2049014
:103F40000E22DDE9051307F04BFF624808F0C0FDC3
:103F500006900898133880B205900798273080B2F1
:103F600004900E22DDE9051307F03AFF594808F0E6
:103F7000AFFD06900898143880B205900798273056
:103F800080B204900F22DDE9051307F029FF5148A4
:103F900008F09EFD06900898153880B205900798A5
:103FA000283080B204900E22DDE9051307F018FFD7
:103FB000484808F08DFD06900898163880B20590A4
:103FC0000798283080B204900E22DDE9051307F02F
:103FD00007FF404808F07CFD06900898173880B22B
:103FE00005900798283080B204900E22DDE9051371
:103FF00007F0F6FE374808F06BFD06900898183871
:1040000080B205900798283080B204900E22DDE936
:10401000051307F0E5FE2F4808F05AFD06900898B2
:10402000193880B205900798293080B204900D228B
:10403000DDE9051307F0D4FE264808F049FD069097
:1040400008981A3880B205900798293080B20490F9
:104050000E22DDE9051307F0C3FE1E4808F038FD07
:10406000069008981B3880B205900798293080B2D6
:1040700004900E22DDE9051307F0B2FE154808F0A2
:1040800027FD069008981C3880B2059007982A30C2
:1040900080B204900E22DDE9051307F0A1FE0D4861
:1040A00008F016FD069008981D3880B20590079814
:1040B0002A3080B204900E22DDE9051307F090FE4D
:1040C000044808F005FD069008981E3880B2059057
:1040D000079801E02176EE002A3080B204900E228B
:1040E000DDE9051307F07CFEFE4808F0F1FC0690C0
:1040F00008981F3880B2059007982A3080B2049043
:104100000F22DDE9051307F06BFEF64808F0E0FC2E
:1041100006900898203880B2059007982A3080B21F
:1041200004900F22DDE9051307F05AFEED4808F070
:10413000CFFC06900898213880B2059007982B3064
:1041400080B204900D22DDE9051307F049FEE54831
:1041500008F0BEFC06900898223880B205900798B7
:104160002B3080B204900E22DDE9051307F038FEF3
:10417000DC4808F0ADFC06900898233880B2059022
:1041800007982C3080B204900D22DDE9051307F06A
:1041900027FED44808F09CFC06900898243880B28A
:1041A000059007982C3080B204900E22DDE90513AB
:1041B00007F016FECB4808F08BFC069008982538CF
:1041C00080B2059007982C3080B204900E22DDE971
:1041D000051307F005FEC34808F07AFC069008981E
:1041E000263880B2059007982C3080B204900F22B8
:1041F000DDE9051307F0F4FDBA4808F069FC069004
:104200000898273880B2059007982C3080B2049027
:104210000F22DDE9051307F0E3FDB24808F058FC72
:1042200006900898283880B2059007982D3080B203
:1042300004900E22DDE9051307F0D2FDA94808F02D
:1042400047FC06900898293880B2059007982D30D1
:1042500080B204900E22DDE9051307F0C1FDA148EC
:1042600008F036FC069008982A3880B20590079826
:104270002D3080B204900F22DDE9051307F0B0FD68
:10428000984808F025FC069008982B3880B20590D5
:1042900007982D3080B204900F22DDE9051307F056
:1042A0009FFD904808F014FC069008982C3880B2C6
:1042B000059007982E3080B204900E22DDE9051398
:1042C00007F08EFD874808F003FC069008982D380B
:1042D00080B2059007982E3080B204900E22DDE95E
:1042E000051307F07DFD7F4808F0F2FB0690089863
:1042F0002E3880B2059007982E3080B204900F229D
:10430000DDE9051307F06CFD764808F0E1FB069047
:1043100008982F3880B2059007982F3080B204900B
:104320000E22DDE9051307F05BFD6E4808F0D0FBB7
:1043300006900898303880B2059007982F3080B2E8
:1043400004900E22DDE9051307F04AFD654808F0E8
:10435000BFFB06900898313880B2059007982F303F
:1043600080B204900F22DDE9051307F039FD5D48A6
:1043700008F0AEFB06900898323880B20590079896
:104380002F3080B204900F22DDE9051307F028FDDD
:10439000544808F09DFB06900898333880B2059089
:1043A0000798303080B204900E22DDE9051307F043
:1043B00017FD4C4808F08CFB06900898343880B202
:1043C00005900798303080B204900E22DDE9051385
:1043D00007F006FD434808F07BFB06900898353847
:1043E00080B205900798303080B204900E22DDE94B
:1043F000051307F0F5FC3B4808F06AFB06900898A7
:10440000363880B205900798313080B204900D2282
:10441000DDE9051307F0E4FC324808F059FB06908B
:104420000898373880B205900798313080B20490F0
:104430000E22DDE9051307F0D3FC2A4808F048FBFB
:10444000069000900898333880B205900798543051
:1044500080B204900898363880B2039007984830AC
:1044600080B2029003A90EC907F0DAFB1D4808F0DC
:104470002FFB06900898343880B205900798473093
:1044800080B204900D22DDE9051307F0A9FC154860
:1044900008F01EFB0690009008982F3880B2059017
:1044A0000798533080B204900898333880B2039054
:1044B0000798473080B2029003A90EC907F0B0FBFD
:1044C000084808F005FB0690009008982C3880B248
:1044D00005900798523080B2049008982F3880B227
:1044E000039001E02176EE000798463080B20290FA
:1044F00003A90EC907F094FBFE4808F0E9FA0690FC
:104500000898283880B205900798443080B204900B
:104510000E22DDE9051307F063FCF64808F0D8FA2F
:1045200006900898273880B205900798453080B2E9
:1045300004900D22DDE9051307F052FCED4808F068
:10454000C7FA06900898263880B20590079844303C
:1045500080B204900D22DDE9051307F041FCE54827
:1045600008F0B6FA06900898253880B205900798AA
:10457000443080B204900C22DDE9051307F030FCD2
:10458000DC4808F0A5FA069000900898213880B21F
:1045900005900798503080B204900898243880B273
:1045A00003900798433080B2029003A90EC907F028
:1045B00037FBD04808F08CFA06900898213880B272
:1045C00005900798433080B204900C22DDE9051372
:1045D00007F006FCC74808F07BFA069000900898A0
:1045E0001D3880B2059007984F3080B2049008982B
:1045F000203880B203900798423080B2029003A91D
:104600000EC907F00DFBBB4808F062FA0690089847
:104610001D3880B205900798423080B204900C2279
:10462000DDE9051307F0DCFBB24808F051FA06900B
:10463000009008981A3880B2059007984E3080B2E2
:10464000049008981C3880B203900798413080B2DB
:10465000029003A90EC907F0E3FAA64808F038FA59
:10466000069008981A3880B205900798413080B2B9
:1046700004900C22DDE9051307F0B2FB9D4808F019
:1046800027FA069000900898163880B2059007988F
:104690004D3080B204900898193880B20390079882
:1046A000403080B2029003A90EC907F0B9FA9148D0
:1046B00008F00EFA06900898163880B20590079810
:1046C0003F3080B204900E22DDE9051307F088FB2D
:1046D000884808F0FDF9069000900898133880B2D9
:1046E000059007984C3080B204900898153880B235
:1046F000039007983F3080B2029003A90EC907F0DB
:104700008FFA7C4808F0E4F9069000900898113878
:1047100080B2059007984B3080B204900898133807
:1047200080B2039007983F3080B2029003A90EC96F
:1047300007F076FA6F4808F0CBF906900898113820
:1047400080B2059007983E3080B204900D22DDE9DA
:10475000051307F045FB674808F0BAF9069000908A
:1047600008980E3880B2059007984A3080B20490BD
:104770000898103880B2039007983E3080B20290BB
:1047800003A90EC907F04CFA5A4808F0A1F906909F
:10479000009008980B3880B2059007984A3080B294
:1047A000049008980E3880B2039007983D3080B28C
:1047B000029003A90EC907F033FA4E4808F088F9B1
:1047C000069008980B3880B2059007983D3080B26B
:1047D00004900C22DDE9051307F002FB454808F0C0
:1047E00077F9069000900898C01F80B2059007984E
:1047F000493080B2049008980A3880B20390079834
:104800003C3080B2029003A90EC907F009FA39487A
:1048100008F05EF9069000900898401F80B205905D
:104820000798483080B204900898C01F80B2039067
:1048300007983B3080B2029003A90EC907F0F0F947
:104840002C4808F045F9069000900898C01E80B2E8
:1048500005900798473080B204900898401F80B2B6
:10486000039007983A3080B2029003A90EC907F06E
:10487000D7F9204808F02CF906900898C01E80B29D
:10488000059007983A3080B204900E22DDE90513B6
:1048900007F0A6FA174808F01BF906900090089850
:1048A00080B205900798473080B204900898801E27
:1048B00080B2039007983A3080B2029003A90EC9E3
:1048C00007F0AEF90B4808F003F9069007983A3064
:1048D00080B205900C22069B089907F081FA0548E2
:1048E00008F0F6F806900898283880B205900798E6
:1048F000583001E02176EE0080B204901722DDE905
:10490000051307F06DFAFE4808F0E2F806900898E3
:10491000273880B205900798553080B204901B224A
:10492000DDE9051307F05CFAF54808F0D1F80690C8
:104930000898263880B205900798543080B20490C9
:104940001E22DDE9051307F04BFAED4808F0C0F828
:1049500006900898253880B205900798533080B2A9
:1049600004902022DDE9051307F03AFAE44808F044
:10497000AFF806900898243880B205900798533015
:1049800080B204900322DDE9051307F029FADC4820
:1049900008F09EF806900898243880B20590079891
:1049A000683080B204900C22DDE9051307F018FA94
:1049B000D34808F08DF806900898233880B2059007
:1049C0000798533080B204900122DDE9051307F007
:1049D00007FACB4808F07CF806900898233880B294
:1049E00005900798683080B204900C22DDE9051329
:1049F00007F0F6F9C24808F06BF8069000900898A6
:104A00001F3880B205900798743080B204900898DF
:104A1000223880B203900798683080B2029003A9D0
:104A20000EC907F0FDF8B64808F052F8069000905D
:104A300008981C3880B205900798743080B20490B2
:104A400008981F3880B203900798673080B20290B0
:104A500003A90EC907F0E4F8A94808F039F8069050
:104A600008981C3880B205900798663080B2049090
:104A70000D22DDE9051307F0B3F9A14808F028F885
:104A8000069008981B3880B205900798673080B26E
:104A900004900C22DDE9051307F0A2F9984808F00C
:104AA00017F8069008981A3880B205900798663073
:104AB00080B204900D22DDE9051307F091F99048CA
:104AC00008F006F8069000900898173880B2059014
:104AD0000798723080B204900898193880B2039019
:104AE0000798653080B2029003A90EC907F098F8C4
:104AF000834807F0EDFF069000900898153880B2C3
:104B000005900798713080B204900898173880B2E9
:104B100003900798653080B2029003A90EC907F090
:104B20007FF8774807F0D4FF069000900898123875
:104B300080B205900798713080B2049008981538BB
:104B400080B203900798643080B2029003A90EC926
:104B500007F066F86A4807F0BBFF069000900898D7
:104B60000F3880B205900798703080B20490089892
:104B7000123880B203900798633080B2029003A984
:104B80000EC907F04DF85E4807F0A2FF069008989E
:104B90000F3880B205900798633080B204900C22E1
:104BA000DDE9051307F01CF9554807F091FF069061
:104BB000009008980B3880B2059007986F3080B24B
:104BC000049008980E3880B203900798623080B243
:104BD000029003A90EC907F023F8494807F078FFAF
:104BE000069008980B3880B205900798623080B222
:104BF00004900C22DDE9051307F0F2F8404807F0B5
:104C000067FF069008980A3880B2059007986130CF
:104C100080B204900D22DDE9051307F0E1F8384871
:104C200007F056FF069000900898401F80B205904C
:104C300007986D3080B204900898093880B20390CC
:104C40000798613080B2029003A90EC906F0E8FF10
:104C50002B4807F03DFF069000900898801E80B218
:104C6000059007986C3080B204900898401F80B27D
:104C700003900798603080B2029003A90EC906F035
:104C8000CFFF1F4807F024FF069000900898401CB3
:104C900080B2059007986C3080B204900898801E0E
:104CA00080B2039007985F3080B2029003A90EC9CA
:104CB00006F0B6FF124807F00BFF06900898383848
:104CC00080B2059007987F3080B204900C22DDE915
:104CD000051307F085F80A4807F0FAFE06900090E1
:104CE0000898343880B2059007988B3080B20490D1
:104CF0000898373880B2039007987E3080B201E080
:104D00002176EE00029003A90EC906F089FFFE4845
:104D100007F0DEFE069000900898323880B20590C9
:104D200007988A3080B204900898343880B2039093
:104D300007987E3080B2029003A90EC906F070FF7A
:104D4000F14807F0C5FE069000900898303880B210
:104D500005900798893080B204900898323880B264
:104D6000039007987D3080B2029003A90EC906F027
:104D700057FFE54807F0ACFE06900898303880B23F
:104D8000059007987C3080B204900D22DDE9051370
:104D900007F026F8DC4807F09BFE069008982F38AD
:104DA00080B2059007987C3080B204900C22DDE937
:104DB000051307F015F8D44807F08AFE0690089806
:104DC0002E3880B2059007987C3080B204900D2276
:104DD000DDE9051307F004F8CB4807F079FE0690EB
:104DE00008982D3880B2059007987C3080B20490E6
:104DF0000C22DDE9051306F0F3FFC34807F068FE57
:104E00000690009008982A3880B20590079888305C
:104E100080B2049008982C3880B2039007987B30B9
:104E200080B2029003A90EC906F0FAFEB64807F058
:104E30004FFE069000900898273880B2059007989A
:104E4000873080B2049008982A3880B2039007987F
:104E50007B3080B2029003A90EC906F0E1FEAA4899
:104E600007F036FE06900898293880B2059007981A
:104E7000993080B204900C22DDE9051306F0B0FFF2
:104E8000A14807F025FE06900898283880B20590C2
:104E90000798973080B204900D22DDE9051306F0E3
:104EA0009FFF994807F014FE06900898273880B2B3
:104EB000059007987A3080B204900D22DDE9051341
:104EC00006F08EFF904807F003FE069008982738FA
:104ED00080B205900798963080B204900C22DDE9EC
:104EE000051306F07DFF884807F0F2FD069000905C
:104EF0000898243880B205900798863080B20490D4
:104F00000898263880B2039007987A3080B20290D1
:104F100003A90EC906F084FE7B4807F0D9FD069070
:104F20000898263880B205900798943080B2049093
:104F30000D22DDE9051306F053FF734807F0C8FDA5
:104F400006900898253880B205900798933080B273
:104F500004900C22DDE9051306F042FF6A4807F0D1
:104F6000B7FD069000900898213880B20590079808
:104F7000863080B204900898243880B20390079855
:104F8000793080B2029003A90EC906F049FE5E484E
:104F900007F09EFD06900898243880B20590079887
:104FA000923080B204900C22DDE9051306F018FF60
:104FB000554807F08DFD06900898233880B205907B
:104FC0000798913080B204900B22DDE9051306F0BA
:104FD00007FF4D4807F07CFD06900898223880B204
:104FE000059007988F3080B204900C22DDE90513FC
:104FF00006F0F6FE444807F06BFD0690089821384D
:1050000080B205900798783080B204900D22DDE9D7
:10501000051306F0E5FE3C4807F05AFD0690089897
:10502000213880B2059007988D3080B204900D220F
:10503000DDE9051306F0D4FE334807F049FD06907C
:105040000898203880B205900798793080B2049093
:105050000C22DDE9051306F0C3FE2B4807F038FDEE
:1050600006900898203880B2059007988C3080B25E
:1050700004900C22DDE9051306F0B2FE224807F089
:1050800027FD069008981F3880B205900798783061
:1050900080B204900D22DDE9051306F0A1FE1A4846
:1050A00007F016FD069008981F3880B20590079803
:1050B0008A3080B204900D22DDE9051306F090FEDF
:1050C000114807F005FD069008981E3880B205903B
:1050D0000798783080B204900C22DDE9051306F0C1
:1050E0007FFE094807F0F4FC069008981E3880B24D
:1050F00005900798893080B204900D22DDE90513F0
:1051000006F06EFE004801E02176EE0007F0E0FCBC
:10511000069008981D3880B205900798773080B2C5
:1051200004900D22DDE9051306F05AFEFE4807F053
:10513000CFFC069008981D3880B2059007988730FC
:1051400080B204900F22DDE9051306F049FEF6480F
:1051500007F0BEFC069008981C3880B205900798AE
:10516000773080B204900C22DDE9051306F038FE9A
:10517000ED4807F0ADFC069008981C3880B2059009
:105180000798863080B204901022DDE9051306F0FE
:1051900027FEE54807F09CFC069008981B3880B273
:1051A00005900798773080B204901F22DDE905133F
:1051B00006F016FEDC4807F08BFC069008981A38BB
:1051C00080B205900798763080B204901F22DDE906
:1051D000051306F005FED44807F07AFC06900898FF
:1051E000193880B205900798763080B2049020225A
:1051F000DDE9051306F0F4FDCB4807F069FC0690E5
:105200000898183880B205900798763080B20490DC
:105210002022DDE9051306F0E3FDC34807F058FC42
:1052200006900898173880B205900798753080B2BC
:1052300004902122DDE9051306F0D2FDBA4807F0FB
:1052400047FC06900898163880B20590079876308B
:1052500080B204901322DDE9051306F0C1FDB248C7
:1052600007F036FC06900898163880B2059007982B
:105270008A3080B204900C22DDE9051306F0B0FDFF
:10528000A94807F025FC06900898153880B20590CB
:105290000798753080B204901322DDE9051306F0FB
:1052A0009FFDA14807F014FC06900898153880B2BD
:1052B000059007988A3080B204900C22DDE905132E
:1052C00006F08EFD984807F003FC06900898143805
:1052D00080B205900798753080B204901222DDE903
:1052E000051306F07DFD904807F0F2FB0690089844
:1052F000143880B2059007988A3080B204900D224D
:10530000DDE9051306F06CFD874807F0E1FB069028
:105310000898133880B205900798743080B20490D2
:105320001122DDE9051306F05BFD7F4807F0D0FB95
:1053300006900898133880B2059007988A3080B29A
:1053400004900D22DDE9051306F04AFD764807F0CA
:10535000BFFB06900898123880B205900798743009
:1053600080B204901022DDE9051306F039FD6E4885
:1053700007F0AEFB06900898123880B205900798A7
:105380008A3080B204900E22DDE9051306F028FD74
:10539000654807F09DFB06900898113880B205908B
:1053A0000798743080B204900E22DDE9051306F0F0
:1053B00017FD5D4807F08CFB06900898113880B205
:1053C000059007988A3080B204900E22DDE905131B
:1053D00006F006FD544807F07BFB0690089810384D
:1053E00080B205900798743080B204900D22DDE9F8
:1053F000051306F0F5FC4C4807F06AFB0690089888
:10540000103880B2059007988A3080B204900E223E
:10541000DDE9051306F0E4FC434807F059FB06906C
:10542000009008980C3880B205900798803080B2C0
:10543000049008980F3880B203900798733080B2B8
:10544000029003A90EC906F0EBFB374807F040FBBA
:10545000069008980C3880B205900798733080B297
:1054600004900C22DDE9051306F0BAFC2E4807F083
:105470002FFB069000900898083880B20590079896
:105480007F3080B2049008980B3880B20390079860
:10549000723080B2029003A90EC906F0C1FB224807
:1054A00007F016FB06900898083880B20590079818
:1054B000723080B204900C22DDE9051306F090FCF6
:1054C000194807F005FB069000900898001F80B26D
:1054D000059007987E3080B204900898C01F80B273
:1054E00003900798713080B2029003A90EC906F0AC
:1054F00097FB0D4807F0ECFA06900898001F80B261
:1055000005900798703080B204900E22DDE90513F3
:1055100006F066FC044807F0DBFA06900090089855
:1055200080B20590079801E02176EE007D3080B2D0
:1055300004900898C01E80B203900798703080B223
:10554000029003A90EC906F06BFBFE4807F0C0FAF3
:1055500006900798703080B205900C22069B08993F
:1055600006F03EFCF74807F0B3FA06900090089862
:105570000C3880B205900798983080B20490089853
:105580000F3880B2039007988B3080B2029003A945
:105590000EC906F045FBEB4807F09AFA069000901A
:1055A00008980A3880B205900798993080B2049024
:1055B00008980C3880B2039007988B3080B2029024
:1055C00003A90EC906F02CFBDE4807F081FA06900D
:1055D00000900898C01F80B205900798993080B25B
:1055E000049008980A3880B2039007988C3080B2F3
:1055F000029003A90EC906F013FBD24807F068FA1F
:10560000069000900898001F80B2059007989A3085
:1056100080B204900898C01F80B2039007988C3025
:1056200080B2029003A90EC906F0FAFAC54807F045
:105630004FFA069000900898801E80B20590079857
:105640009B3080B204900898001F80B203900798A6
:105650008C3080B2029003A90EC906F0E1FAB94875
:1056600007F036FA06900898801E80B205900798D9
:105670008D3080B204900E22DDE9051306F0B0FBF8
:10568000B04807F025FA06900898401E80B20590B1
:1056900007988F3080B204900C22DDE9051306F0E4
:1056A0009FFBA84807F014FA06900798913080B243
:1056B00005900A22069B089906F092FBA14807F084
:1056C00007FA06900898293880B205900798AD30FF
:1056D00080B204902322DDE9051306F081FB99488E
:1056E00007F0F6F906900898283880B205900798D8
:1056F000AB3080B204902722DDE9051306F070FB81
:10570000904807F0E5F906900898273880B2059090
:105710000798A93080B204902922DDE9051306F02C
:105720005FFB884807F0D4F906900898263880B2C5
:1057300005900798A83080B204902B22DDE905136C
:1057400006F04EFB7F4807F0C3F90690089825380D
:1057500080B205900798A73080B204900D22DDE951
:10576000051306F03DFB774807F0B2F9069008985C
:10577000253880B205900798C63080B204900D227B
:10578000DDE9051306F02CFB6E4807F0A1F9069041
:105790000898243880B205900798A63080B204900B
:1057A0000D22DDE9051306F01BFB664807F090F9B2
:1057B00006900898243880B205900798C73080B2C8
:1057C00004900D22DDE9051306F00AFB5D4807F0A1
:1057D0007FF906900898233880B205900798A63084
:1057E00080B204900C22DDE9051306F0F9FA554861
:1057F00007F06EF906900898233880B20590079854
:10580000C63080B204900E22DDE9051306F0E8FAF6
:105810004C4807F05DF906900898223880B2059050
:105820000798A53080B204900D22DDE9051306F03B
:10583000D7FA444807F04CF906900898223880B20D
:1058400005900798C63080B204900E22DDE905135A
:1058500006F0C6FA3B4807F03BF906900898213855
:1058600080B205900798A53080B204900D22DDE942
:10587000051306F0B5FA334807F02AF906900898A0
:10588000213880B205900798C63080B204900D226E
:10589000DDE9051306F0A4FA2A4807F019F9069085
:1058A0000898203880B205900798A53080B20490FF
:1058B0000D22DDE9051306F093FA224807F008F9F6
:1058C00006900898203880B205900798C63080B2BC
:1058D00004900D22DDE9051306F082FA194807F05D
:1058E000F7F80690009008981D3880B20590079848
:1058F000B23080B2049008981F3880B203900798A5
:10590000A43080B2029003A90EC906F089F90D48AF
:1059100007F0DEF80690009008981D3880B20590D8
:105920000798D33080B2049008981F3880B2039053
:105930000798C53080B2029003A90EC906F070F92D
:10594000004801E02176EE0007F0C2F806900898C2
:105950001D3880B205900798A43080B204900D22C3
:10596000DDE9051306F03CFAFE4807F0B1F80690B1
:1059700008981D3880B205900798C53080B2049011
:105980000D22DDE9051306F02BFAF64807F0A0F822
:105990000690009008981A3880B205900798B130A8
:1059A00080B2049008981C3880B203900798A33006
:1059B00080B2029003A90EC906F032F9E94807F057
:1059C00087F80690009008981A3880B205900798DA
:1059D000D23080B2049008981C3880B203900798A7
:1059E000C43080B2029003A90EC906F019F9DD484F
:1059F00007F06EF8069008981A3880B2059007985C
:105A0000A33080B204900D22DDE9051306F0E8F919
:105A1000D44807F05DF8069008981A3880B20590CF
:105A20000798C43080B204900D22DDE9051306F01A
:105A3000D7F9CC4807F04CF806900898193880B28E
:105A400005900798A23080B204900E22DDE905137C
:105A500006F0C6F9C34807F03BF8069008981938D5
:105A600080B205900798C43080B204900D22DDE921
:105A7000051306F0B5F9BB4807F02AF80690089818
:105A8000193880B205900798A23080B204900D2298
:105A9000DDE9051306F0A4F9B24807F019F80690FD
:105AA0000898193880B205900798C33080B20490E6
:105AB0000E22DDE9051306F093F9AA4807F008F86D
:105AC00006900898183880B205900798A23080B2E6
:105AD00004900E22DDE9051306F082F9A14806F0D4
