:020000040800F2
:10000000F824002045010008DFB80008219100080D
:10001000C1B800080D1200087107010800000000B7
:10002000000000000000000000000000ADC100085A
:10003000ED3400080000000021BD000835C50008AF
:100040005F0100085F0100085F01000869BE000849
:100050005F0100085F0100085F0100085F01000800
:100060005F0100085F0100085F0100085F010008F0
:100070005F0100085F0100085F0100085F010008E0
:100080005F0100085F0100085F0100085F010008D0
:10009000B90601085F0100085F0100085F01000860
:1000A0005F0100085F0100085F0100085F010008B0
:1000B000CDC500085F0100085F0100085F0100086E
:1000C0005F0100085F0100085F0100085F01000890
:1000D0005F0100085F0100085F0100085F01000880
:1000E0005F0100085F0100085F0100085F01000870
:1000F0005F0100085F0100085F0100085F01000860
:100100005F0100085F0100085F0100085F0100084F
:100110005F0100085F0100085F0100085F0100083F
:100120005F0100085F0100085F0100085F0100082F
:10013000DFF80CD000F020FD004800472D2C01080E
:10014000F82400200648804706480047FEE7FEE7FF
:10015000FEE7FEE7FEE7FEE7FEE7FEE7FEE7FEE777
:10016000CBC50008310100082DE9F05F05460020ED
:1001700092469B4688460646814640241BE0284618
:1001800041464746224600F020F853465A46C01AD8
:10019000914110D311461846224600F081FB2D1ADA
:1001A00067EB01084F4622460120002100F078FB52
:1001B00017EB00094E41201EA4F10104DFDC484684
:1001C00031462A464346BDE8F09F202A04DB203A08
:1001D00021FA02F00021704721FA02F3D040C2F167
:1001E0002002914008431946704740EA01039B07EB
:1001F00003D009E008C9121F08C0042AFAD203E09C
:1002000011F8013B00F8013B521EF9D27047D2B2FF
:1002100001E000F8012B491EFBD270470022F6E7EF
:1002200010B513460A4604461946FFF7F0FF20466C
:1002300010BD421E12F8013F002BFBD111F8013B0B
:1002400002F8013B002BF9D17047421C10F8011B4A
:100250000029FBD1801A704710B5002200E0521C23
:10026000835C8C5CA34201D1002BF8D1D8B2E1B2FF
:10027000401A10BD034611F8012B00F8012B002A8B
:10028000F9D11846704770B5064610F063FF046850
:1002900005460A220021304600F072FB2C6070BD3A
:1002A000F0B480EA0102D40F4200B2EB410F02D257
:1002B0000246084611464A0042D0C30DDDB2C1F3E2
:1002C000C752AD1A202D35DAC1F3160141F40002F0
:1002D00004B15242C5F1200602FA06F12A41104447
:1002E000B3EBD05F23D0C4B1012DA0EBC35009DC28
:1002F000F0BC4FF0004202EAC352DBB200F500004E
:1003000000F07FBB400000F1807000EBC350A0F113
:10031000807040EAD170490009E0490841EAC071A3
:10032000A0EBC35000F50000400800EBC350F0BC48
:1003300000F05EBB6142012202EB4101001BF6E7C7
:10034000F0BC704781F00041AAE780F00040A7E7C9
:1003500080EA010210B502F00043400022D04A00BA
:100360001FD0010E01EB1261C0F35600C2F356021A
:1003700040F4000042F40002A0FB022000047F3998
:10038000140400D0401C50EA124001D44000491E21
:10039000C2B20C0604EBD010401C4008802A02D0E8
:1003A00003E0002010BD20F00100002900DA002049
:1003B000184310BD30B480EA010202F0004530F06D
:1003C000004221F0004013D090B1C30DD40DC2F310
:1003D0001601C0F31600E41A41F4000140F40002D3
:1003E0007D34914201D3641C00E04900002C02DA04
:1003F00030BC002070474FF400000023914201D32D
:10040000891A034340084FEA4101F7D151B19142A3
:1004100002D14FF0004105E002D24FF0010101E0AE
:100420006FF0010103EBC450284430BC00F0E0BA87
:100430002DE9FE4F804681EA0300C00F0C46009074
:1004400021F0004123F00045B8EB0200A94105D29C
:100450004046214690461C460B46024623F000408B
:10046000104347D0270DC7F30A00C3F30A51029087
:10047000401A019040286BDAC3F3130040F4801B4C
:100480000098924620B10023D2EB030A63EB0B0BDA
:1004900001985946C0F14002504600F001FA064664
:1004A0000D4650465946019A00F009FA10EB080033
:1004B0006141002487EA115284EAE7731A4340D06D
:1004C000009A62B3019A012A4FEA075215DC001B19
:1004D00061EB02014FF0004202EA0752CDE900420F
:1004E000001C41F5801132462B4600F0C7FA03B0DC
:1004F000BDE8F08F40462146F9E7001B61EB0201A1
:10050000001C41F5801300185B412018A2F500176C
:1005100047EB030140EAD570B6196D4111E06D0853
:100520004FEA360645EAC0754FEA0752001B61EBF9
:100530000201001C41F5801149084FEA3000001902
:10054000514132462B4603B0BDE8F04F00F087BA68
:100550000098012240000023D0EB020263EBE0731D
:10056000009821464FEAE074B8EB000061EB04010B
:10057000E9E783F000435BE781F0004158E72DE9AC
:10058000FE4F81EA030404F0004421F0004100948E
:100590004FF0000B23F0004350EA01045ED052EA12
:1005A00003045BD0C3F30A54C1F30A552C44A4F2EC
:1005B000F3340194A0FB0254C1F3130141F4801100
:1005C000C3F3130343F4801301FB024400FB034E07
:1005D000840A970A44EA815447EA8357A4FB0768D0
:1005E00002958D0A05FB07854FEA932C04FB0C54FA
:1005F0002705029D4FEA065847EA1637B5EB08056E
:100600006EEB070C870E920E47EA811742EA8312BF
:10061000A7FB0201B6EB0B0164EB00042B0D43EAD0
:100620000C335E1844EB1C50DA465146E7FB0201DE
:10063000C5F313044FEA0B3343EA14534FEA043271
:10064000019C43EA0603A4F10C040294009CCDE94A
:1006500000B400F013FA03B0BDE8F08F00200146AB
:10066000F9E72DE9F04D81EA030404F0004B21F095
:10067000004514464FF0000A23F0004150EA0502FD
:1006800020D054EA01021DD0C5F30A570246C5F333
:100690001303C1F31300C1F30A5640F4801543F469
:1006A0008013A7EB0608101BD64608F2FD3873EB43
:1006B000050002D308F1010801E092185B41B8F18E
:1006C000000F03DA00200146BDE8F08D00204FF452
:1006D0008011064684460EE0171B73EB050705D311
:1006E000121B63EB050306434CEA010C49084FEA71
:1006F000300092185B4150EA0107EDD152EA030045
:1007000012D082EA040083EA0501084305D0101BD9
:10071000AB4106D20122002306E000224FF0004345
:1007200002E06FF0010253101AEB06004CEB085187
:1007300010EB0A0041EB0B01BDE8F04D00F08FB962
:10074000C10F80EAE0700844CA079623002100F038
:1007500058B996230022114600F053B90EB5C10FC7
:1007600080EAE0700844CA07002140F233438DE874
:100770000E000A460B4600F081F903B000BD00F000
:10078000004220F00040C10DC0F3160040F400000C
:100790007F2901DA00207047962903DCC1F1960118
:1007A000C84001E096398840002AF4D040427047A2
:1007B00020F00040C10DC0F3160040F400007F2976
:1007C00001DA00207047962903DCC1F19601C84088
:1007D000704796398840704770B5C1F30A5201F0EE
:1007E00000450024C1F3130140F2FF3341F48011AE
:1007F0009A4201DA002070BD40F233439A42A2F2DD
:10080000334203DC5242FFF7E0FC00E090402C430F
:10081000F1D0404270BD00F0004230F000400AD0FC
:10082000C10D01F56071C0F3160042EA0151C20822
:1008300040071143704700200146704701F0004314
:1008400030B421F0004150EA010206D00A0DA2F5B1
:100850006072C1F31301002A02DC30BC0020704733
:10086000440F44EAC104C100E01830BC00EBC250A0
:1008700000F0BEB830B50B4601460020202201240E
:1008800009E021FA02F59D4205D303FA02F5491B5E
:1008900004FA02F52844151EA2F10102F1DC30BD74
:1008A000202A04DB203A00FA02F100207047914030
:1008B000C2F1200320FA03F3194390407047202A25
:1008C00006DBCB17203A41FA02F043EAE07306E078
:1008D00041FA02F3D040C2F1200291400843194688
:1008E000704700000FB4002300B589B00CA9009137
:1008F0000B996FF00042CB601E4B06931E4B079383
:100900000423CDE901321D4A089202466B460020BD
:1009100000F0E6F909B05DF814FB70B586B0064644
:100920004FF0FF300091CDE90101002015460C4643
:1009300004903246694604A8FFF7D4FF02460498A3
:10094000211825B108B1084600E020462860049827
:1009500000280DD0002A02DD0098884208D0081B2C
:100960000094CDE901043246694604A8FFF7BAFFB6
:1009700006B070BD190F0008370F0008A50B00085E
:100980002DE9F04791460F4680460446002614F8AC
:10099000015B2DB100F002F90068405DC007F6D19F
:1009A0002B2D02D02D2D18D0641E4A4639462046E4
:1009B00000F0D2FA27B13968A14201D1C7F800800E
:1009C00071054FF002040BD54042002803DD10F002
:1009D000C1FB0460A007BDE8F08746F48066E4E749
:1009E0000028F8DA10F0B6FB04606FF00040F2E780
:1009F0000029A8BF7047401C490008BF20F0010033
:100A0000704710B4B0FA80FC00FA0CF050EA010410
:100A100004BF10BC704749B1CCF1200421FA04F4A2
:100A200011FA0CF118BF012121430843A3EB0C017B
:100A3000CB1D4FEA00614FEA102042BF002010BCDE
:100A4000704700EBC35010440029A4BF10BC70478E
:100A5000401C490008BF20F0010010BC704710B5D1
:100A6000141E73F1000408DA401C41F100019218D1
:100A70005B411A4301D120F0010010BD2DE9F04D7A
:100A800092469B4611B1B1FA81F202E0B0FA80F2CF
:100A900020329046FFF704FF04460F4640EA0A0062
:100AA00041EA0B0153465A46084313D0114653EA14
:100AB000010019D0C8F140025046FFF786FB0546F9
:100AC0000E46504659464246FFF7EAFE084305D017
:100AD000012004E020463946BDE8F08D00200543A2
:100AE00046EAE0762C4337430A986305E40AA0EB14
:100AF00008000022FD0A44EA47540A3002D50020CB
:100B00000146E9E7010510196941DDE908450019C9
:100B10006941BDE8F04DA2E7C1F30A52C1F31301E8
:100B200040F2FF3341F480119A4202DA002001467C
:100B3000704740F233439A42A2F2334202DC5242FF
:100B4000FFF743BBFFF7ACBE30B5041E71F10004E4
:100B500004DB4FF00044404264EB0101141E73F1CA
:100B6000000405DB1C464FF00043524263EB0403D4
:100B7000994208BF904230BD064C074D06E0E06840
:100B800040F0010394E8070098471034AC42F6D3D4
:100B9000FFF7D2FAE45702080458020800487047E9
:100BA000E057020810B50446FFF7F8FF0068005D43
:100BB00000F0010010BD00002DE9FF4F087883B060
:100BC0009946FF2805D0491C2D2804D00024002078
:100BD00008E000200BE00124F9E700EB800003EBC4
:100BE0004000491C0B78FF2BF7D104B14042002391
:100BF0000293147819461D462D2C01D02B2C04D1BC
:100C0000521C2D2C13D000240294AA461478FF2CD9
:100C10000FD00A25A3FB057801FB05814FF0000CDE
:100C200003FB0C11521CE3194AEB0101EEE701240E
:100C3000EAE7814453EA010002D019F5C87F06DAD9
:100C400003980021C0E9001107B0BDE8F08F00252E
:100C5000AE4E2F46DFF8B882184600F0DAF9CDE93B
:100C60000001B9F1000002DAC9F1000400E0044615
:100C70000023A74A1AEB030B42EB045A12E0E007E9
:100C800007D02A46334638464146FFF778FC0746E8
:100C900088462A46334610461946FFF770FC05463B
:100CA0000E466410002CEAD1DDE90001B9F1000F15
:100CB0005A46534606DAFFF7D4FC3A464346FFF756
:100CC000D0FC05E0FFF75BFC3A464346FFF757FCD4
:100CD000029A0AB181F00041039AC2E90001B3E728
:100CE0002DE9FF4F1F468DB0D7E901464FF0FF3881
:100CF0002E2045464FF000090B90B9696D1C0E98E7
:100D00008847396A824688470028F6D1BAF1FF3F02
:100D10000AD024F4D064002E11DDBAF12B0F08D0D4
:100D2000BAF12D0F0BD102E0404611B08DE744F42B
:100D30008064B9696D1C0E9888478246761E6946A4
:100D4000600501D52D2000E02B208DF8000001F179
:100D5000010B0DF1200809E0B9696D1C0E98884758
:100D600082460F9844F40074761E0560002E02DD62
:100D7000BAF1300FF0D00B998A453ED144F080048F
:100D800006E00F99681CA9F1010944F40074086099
:100D9000B9696D1C761E0E98884782463028F0D0BF
:100DA0002BE00B998A4505D1200603D444F080043A
:100DB000761E18E0504610F0A5FB08B30DF11301A4
:100DC000761E44F400748B4508D2AAF130000BF86B
:100DD000010B200607D5A9F1010003E0200602D48B
:100DE00009F101008146A00502D50F99681C086031
:100DF000B9696D1C0E9888478246002ED1DC53E0FD
:100E0000002E51DDBAF1650F02D0BAF1450F4BD17A
:100E1000A00549D5B9696D1C24F44074761E0E985E
:100E200088478246002E0CDD2B2804D0BAF12D0F06
:100E300007D144F48074B9696D1C0E9888478246C6
:100E4000761EE00501D52D2100E02B2108F8011BBD
:100E5000CDF82C8021E00DF12901761E44F40074B8
:100E600088450CD2AAF1300010F0FF0088F800008D
:100E700002D10B99884509D908F1010806E0E0057F
:100E800001D5244801E042F20F708146B9696D1C1A
:100E90000E98884782460F980560002E04DD504664
:100EA00010F030FB0028D6D1F9690E988847FF2052
:100EB0008BF8000088F800000020069007904B4651
:100EC0006A4608A906A8FFF777FEA00502D46FF0CE
:100ED00001002AE714F0240F0AD0E00714D1DDE95D
:100EE00006123868031D3B600068C0E900120BE081
:100EF000DDE90601FFF7A2FC0146E00704D13868EE
:100F0000021D3A600068016028460EE700001440A8
:100F10000000F03FF1D8FFFF426842B1016811F8CC
:100F2000013B23B1521EC0E900121846704701214F
:100F3000C160881E704742685AB1C368016843B9EE
:100F400083688B4205D0491E521CC0E90012002064
:100F500070474FF0FF3070472DE9F05F8246007810
:100F6000002715468B460AF10104B946302801D006
:100F70009DB113E014F8010B0127782803D05828FD
:100F800001D045B10AE00DB1102D07D10027102581
:100F900014F8010B02E0082500E00A250026B046FF
:100FA0000EE005FB080005FB06F1012701EB1046EA
:100FB0001FFA80F8B6F5803F00D3B94614F8010B4C
:100FC000294600F018F80028EBDABBF1000F05D035
:100FD0000FB1641E00E05446CBF80040B9F1000F99
:100FE00006D010F0B7F802210160C81EBDE8F09FDE
:100FF00048EA0640FAE73A2800D2303820F02002CA
:10100000412A01D3A2F13700884201D34FF0FF30CB
:1010100070470EB540F2334202920022CDE9002221
:101020001346FFF72BFD03B000BD70B58C1810F808
:10103000015B15F0070301D110F8013B2A1106D11D
:1010400010F8012B03E010F8016B01F8016B5B1E37
:10105000F9D12B0705D40023521E0DD401F8013B12
:10106000FAE710F8013BCB1A921C03E013F8015B7E
:1010700001F8015B521EF9D5A142D8D3002070BD02
:1010800070B5044600252068806800F0010018B3A0
:101090002068806820F001002168886005F014FB5A
:1010A000054613E005F010FB401B02280ED920680E
:1010B000806800F0010048B1A06A40F01000A06212
:1010C000E06A40F00100E062012070BD20688068A5
:1010D00000F001000028E5D10020F6E738B504460D
:1010E0000025002000902068806800F0010078BB97
:1010F0002068806840F00100216888601948006815
:101100001949B0FBF1F0009002E00098401E0090F9
:1011100000980028F9D105F0D7FA054619E005F046
:10112000D3FA401B022814D92068806800F001001F
:1011300078B9A06A40F01000A062E06A40F00100B7
:10114000E06200BF002084F8240000BF012038BD09
:1011500005E02068806800F001000028DFD0002052
:10116000F5E700002001002040420F0010B50022EA
:101170004FF48051014805F0A1FA10BD000C014068
:1011800010B501221103024805F098FA10BD0000C5
:10119000000C014010B50122D102064805F08EFA7C
:1011A0000A2011F0C1FB00224FF40061014805F054
:1011B00085FA10BD000C01401248407D05281DD263
:1011C000DFE800F003080D12170032200E4909680D
:1011D000486314E03C200C49096848630FE046204E
:1011E0000949096848630AE05020074909684863CB
:1011F00005E0632004490968486300E000BF00BFC0
:101200007047000034050020A404002000BFFEE762
:1012100010B501220421024805F050FA10BD00006B
:101220000010014010B500220421024805F046FAE2
:1012300010BD00000010014010B50122022102483B
:1012400005F03CFA10BD00000010014010B500226E
:101250000221024805F032FA10BD000000100140E2
:1012600010B50446392012F025F8E0B212F033F838
:10127000C4F3072012F02FF8C4F3074012F02BF844
:10128000200E12F028F812F007F80FF021FF10BD21
:101290002DE9F04107460E4614463C2012F00AF8AC
:1012A000F0B212F018F8301212F015F811F0F4FF45
:1012B0000CB10020208016E00FF00AFF05461E2D1D
:1012C0000ED1384600F055F905463D2011F0F2FFE9
:1012D00011F0E2FF2F4434B120882844208002E03E
:1012E0002846BDE8F081E7E710B50AF01BFD08B11C
:1012F00000F082F8302000F0CDF810BD10B531209C
:1013000000F0C8F810BD10B504462146362000F0A4
:10131000B3F810BD10B5044614B1204600F0DBF858
:10132000342000F0B7F810BD70B50646304600F026
:10133000BBF8054685B12946304600F024F804463E
:10134000412C09D0142C01D1432070BD422C01D175
:10135000B320FAE72046F8E77019FFF7DBFFF4E760
:1013600010B50446204600F0B6F820785C2802D07C
:1013700020782F2803D10021642000F011F93220B9
:1013800000F088F810BD2DE9F04105460F46002613
:10139000012429E001E0601CC4B2285D5C2805D06E
:1013A000285D2F2802D0285D0028F4D1285D10B1D7
:1013B000601CC4B200E00024A819FFF7D1FF064664
:1013C00084B1BC420ED0412E0AD0142E02D143204B
:1013D000BDE8F081422E01D1B320F9E73046F7E7AE
:1013E000264601E03046F3E7D4E710B50446FF2176
:1013F0002046FFF7C8FF10BD10B5222011F05AFF9C
:10140000322011F0AFFA11F04BFF044611F044FF07
:10141000204610BD2DE9F04111F042FF044611F0C5
:101420003FFF054611F03CFF064611F039FF074625
:1014300011F032FF44EA052040EA064040EA076026
:10144000BDE8F08110B504460C2011F033FF2046B2
:1014500011F041FFFFF7DEFF10BD70B504460A2012
:1014600011F028FF204611F036FF11F019FF054654
:1014700011F012FF284670BD70B505460C4628468F
:1014800011F018FF204611F026FF11F005FF0FF0B4
:101490001FFE70BD10B50446204611F00BFF11F081
:1014A000FBFE0FF015FE10BD0246114600E0491C80
:1014B00008780028FBD100E0491E08785C2804D099
:1014C00008782F2801D09142F6D1914200D0491CD2
:1014D000881AC0B270472DE9F0410646012011F08C
:1014E000E9FE11F0DDFE43282BDA2B20FFF7B5FFD4
:1014F000102826DA2F2011F0DDFE002011F0EBFE7F
:101500003220FFF7C7FF0446142C1AD1CF20FFF773
:10151000A4FF0446ACB14C20FFF794FF00EB042776
:1015200039464C2000F03CF85020FFF78BFF00EBD1
:1015300004273946502000F033F80021702000F0D5
:101540002FF82F2011F0B6FE3578284611F0C3FE93
:1015500009E0761C35785C2D01D02F2D00D10025B7
:10156000284611F0B8FE002DF3D111F095FEBDE82C
:10157000F08170B504462D2011F09CFE11F090FE14
:101580000646054646B100BF207811F0A4FE641C53
:10159000701EC0B2061EF7D111F07EFE284670BD47
:1015A00070B505460C460D2011F084FE284611F05A
:1015B00092FEE0B211F08FFEC4F3072011F08BFE13
:1015C000C4F3074011F087FE200E11F084FE11F0E5
:1015D00063FE70BD10B500221021024805F06EF8C0
:1015E00010BD00000008014010B501221021024882
:1015F00005F064F810BD00000008014010B501229C
:101600008021024805F05AF810BD0000000C01408E
:1016100010B500228021024805F050F810BD0000EE
:10162000000C014010B501224021024805F046F8A7
:1016300010BD00000014014010B5002240210248F6
:1016400005F03CF810BD00000014014010B5012267
:101650005103024805F032F810BD000000140140AB
:1016600010B500224FF40051014805F027F810BDD5
:101670000014014010B501221103024805F01EF8C4
:1016800010BD00000014014010B500224FF480513D
:10169000014805F013F810BD0014014010B50122F7
:1016A0001146024805F00AF810BD0000000C014088
:1016B00010B500220121024805F000F810BD00001D
:1016C000000C014010B501222021024804F0F6FF71
:1016D00010BD00000010014010B50022202102487A
:1016E00004F0ECFF10BD000000100140F0B504460E
:1016F0000D46FF22FF21002319E0E05C4140002756
:1017000011E001F0010602F0010C52104910BCF189
:10171000000F01D041F080011EB182F0A00281F0E3
:101720000101781CC7B2082FEBDB581CC3B2AB42D7
:10173000E3DB41EA0220F0BD002070470020704743
:101740002DE9F04106460F4601210C480DF03BF80B
:101750000B4908700948D0F8B852002403E0285D0E
:1017600008490855641C064800788442F7DB0120CC
:10177000054908700020BDE8F08100006C180020C9
:10178000F4010020701B0020F501002033B50C4649
:1017900000252DE09DF801109DF8030004F05EF98E
:1017A00005469DF802002044A8421AD99DF802007F
:1017B000281A241A9DF80100401CC0B28DF80100BF
:1017C00000208DF802009DF801000D2810D10120A5
:1017D0008DF801009DF80300401CC0B28DF8030095
:1017E00006E09DF802002044C0B28DF8020000E03F
:1017F000D0E700BF0720B4FBF0F100FB114009491E
:1018000009780844C0B28DF800009DF80000072850
:1018100005DB9DF80000C01FC0B28DF800000098E5
:101820003CBD0000EE00002038B5174800780128C4
:1018300029DD6FF07F400AF097FA044600200AF095
:1018400093FA0546104800940078801E692202EB46
:10185000C00081B22B4691220CA009F02BFD0A4852
:101860000078401E08490870002107480078401E93
:10187000074A11540448007806490978884202D181
:1018800000200449087038BD3E01002020000000FF
:10189000740600203F01002038B5044600200AF0FD
:1018A00063FA054614234FF49B72022100904FF413
:1018B000967009F00BFB4FF46E400AF055FA05469E
:1018C000052340F2331202210090101F09F0FEFAA6
:1018D0004FF46E400AF048FA054614234FF49B7209
:1018E000052100904FF4967009F058FC4FF46E40BB
:1018F0000AF03AFA0546132340F235120621009009
:1019000040F22D1009F0E2FA192C0DDA00200AF04D
:101910002BFA05460F2340F235120621009040F2C3
:101920002D1009F0D3FA24E0192C0FDB322C0DDA3C
:1019300000200AF019FA05460C2340F23512062160
:10194000009040F22D1009F0C1FA12E0322C0FDBAA
:101950004B2C0DDA00200AF007FA0546092340F265
:1019600035120621009040F22D1009F0AFFA00E088
:1019700000BF38BD10B50020054908700AF0F4F921
:10198000044609F08BFA042001F046FB10BD00006C
:1019900031010020F8B5044600200AF0E5F90546BB
:1019A0004FF47F000AF0E0F90646601E00EB4001AC
:1019B00001EBC0001E2101EB400082B233468C21B6
:1019C0000248009509F076FCF8BD00007D3801085A
:1019D00038B500200AF0C8F9044614234FF49B726E
:1019E000022100904FF4967009F070FA4FF46E40A7
:1019F0000AF0BAF9044623460522022140F22F10CC
:101A000009F01EFC4FF46E400AF0AEF9044623467E
:101A10000522022140F2331009F012FC4FF46E400F
:101A20000AF0A2F9044623460B2207214FF49670D0
:101A300009F02CFB4FF46E400AF096F904460F2390
:101A40004FF49A7208210090901F09F03FFA4FF46A
:101A50006E400AF089F9044623460522102140F21F
:101A60002F1009F013FB4FF46E400AF07DF9044685
:101A70002346032211214FF4987009F007FB4FF41D
:101A80006E400AF071F9044623460422112140F207
:101A9000311009F0D5FB38BD2DE9FC41002440E0B0
:101AA000621C22A101A80FF025FB204604EBD07197
:101AB0004910A4EB4101C9B100200AF055F90646CE
:101AC0001C480AF051F9074604EBD470401000EBB3
:101AD000400101EB00102A2101EB400082B23B469D
:101AE000A82101A8009609F0E5FB18E000200AF003
:101AF0003BF906460F480AF037F9074604EBD47065
:101B0000401000EB400101EB00102A2101EB4000E6
:101B100082B23B46082101A8009609F0CBFB601C6D
:101B2000C4B2082CBCDBBDE8FC8100002530326467
:101B30003A00000032F0F00038B511F045FB0C49D6
:101B4000B1F9000000230522012107F0EBFA002083
:101B50000AF00AF904464FF46E400AF005F905460A
:101B60002B46022264210348009409F0A3FB38BDF0
:101B7000820100206806002038B54FF46E400AF05C
:101B8000F3F80446122340F20F1208210090501E71
:101B900009F09CF94FF46E400AF0E6F8044623463B
:101BA000062207214FF4867009F070FA4FF46E4058
:101BB0000AF0DAF8044623460422062140F20D100A
:101BC00009F064FA4FF46E400AF0CEF8044623465A
:101BD000022205214FF4877009F058FA4FF46E4045
:101BE0000AF0C2F804460F234FF48A7205210090D0
:101BF000501E09F06BF94FF46E400AF0B5F8044638
:101C000023460622102140F2111009F03FFA4FF44A
:101C10006E400AF0A9F804462346042211214FF42D
:101C2000897009F033FA4FF46E400AF09DF80446CB
:101C300023460222122140F2131009F027FA38BD80
:101C40007CB5012085490870854908706FF07F4098
:101C50000AF08AF80546F0234FF4A0728221009022
:101C6000002009F033F96FF07F400AF07DF8054657
:101C700000200AF079F806467A490095097DC1EB03
:101C80000111794A02EB4100334691223C2109F0CF
:101C900011FB00200AF068F80546A323C8228F2113
:101CA0000090642009F07AFA43F2FF300AF05CF801
:101CB00005461A233C228C210090FF2001F04CFAAB
:101CC00043F2FF300AF050F805466FF07F400AF00B
:101CD0004BF8064663490095097DC1EB0111624A44
:101CE00002EB4101881D334691224FF48C7109F0BB
:101CF000E1FA43F2FF300AF037F805461A233E2294
:101D0000D2210090052001F027FA43F2FF300AF0BB
:101D10002BF805466FF07F400AF026F80646514939
:101D20000095097DC1EB01114F4A02EB410101F120
:101D30000C003346D722142109F0BCFA43F2FF30DD
:101D40000AF012F805461A233E22D2210090E12023
:101D500001F002FA43F2FF300AF006F805466FF090
:101D60007F400AF001F806463E490095097DC1EB27
:101D700001113D4A02EB410101F112003346D72225
:101D8000F02109F097FA002009F0EEFF0546CA237A
:101D900040F23912AA210090072009F097F8002498
:101DA0002BE0621C31A101A80FF0A4F94FF47F00D1
:101DB00009F0DAFF054604EB04110722009002EB5C
:101DC00041001F231A46AA2101F0C6F94FF47F00F3
:101DD00009F0CAFF05466FF07F4009F0C5FF0646CF
:101DE00004EB0410132202EB40013346B12201A898
:101DF000009509F05FFA601CC4B2092CD1DB002405
:101E000028E043F2FF3009F0AFFF054604EB041170
:101E10005722009002EB41001F231A46CC2101F00B
:101E20009BF943F2FF3009F09FFF05466FF07F40BA
:101E300009F09AFF064604EB0412632303EB420108
:101E40000B4A02EB44003346D322009509F032FAE4
:101E5000601CC4B2032CD4DB7CBD00003D0100201B
:101E60003E010020340500201E3C010825640000CE
:101E70005A3C010831B582B01A4800780A2830DA95
:101E80001948007818B19DF808002E2829D002A919
:101E90001648FEF7CEF96FF07F4009F065FF044663
:101EA000002009F061FF05460E4800940078401EAE
:101EB000692202EBC00081B22B46912202A809F0F0
:101EC000F9F90948007838B99DF808002E2803D19F
:101ED000044800780449087002480078401C014911
:101EE00008703EBD3E0100203F0100207406002026
:101EF00010B500201449087014490870144908707E
:101F000014480078012806D0022807D0032808D0FA
:101F100004280CD108E000F079FF09E000F03CFC57
:101F200006E000F0A3FC03E0FFF724FD00E000BFA3
:101F300000BF0848007807F0F5FB0748017805481E
:101F4000007800F00BF810BD3E0100203D0100209C
:101F50003F010020320100203101002003B587B08D
:101F60000798012806D0022805D003287ED004282F
:101F70007DD12AE3C5E3FE480078012817D1FD484A
:101F800009F0F2FE0390002009F0EEFE02900398A3
:101F90000090F9488078401E00EB8000F749084423
:101FA00001901E225021029B09F084F916E00020C6
:101FB00009F0DAFE0390EF4809F0D6FE029003988C
:101FC0000090ED488078401E00EB8000EB4908440B
:101FD00001901E225021029B09F06CF9E448007820
:101FE00002281BD1E34809F0BFFE0390002009F04E
:101FF000BBFE029003980090DF48007D00EB80005C
:10200000DF4901EBC000DC49C97A00EBC100019057
:1020100034225021029B09F04DF91AE0002009F00A
:10202000A3FE0390D34809F09FFE0290039800900E
:10203000D148007D00EB8000D14901EBC000CE49C2
:10204000C97A00EBC100019034225021029B09F0B3
:1020500031F9C948B0F90D00002305220121039090
:1020600007F060F8C2480078032801E01FE147E369
:1020700010D1C04809F078FE0390002009F074FEEA
:102080000290039800904A225021BE48029B09F01A
:1020900011F90FE0002009F067FE0390B54809F040
:1020A00063FE0290039800904A225021B548029B9B
:1020B00009F000F9B048B0F90F0000230522012112
:1020C000039007F02FF8AA480078042810D1A948F7
:1020D00009F04AFE0390002009F046FE02900398A2
:1020E000009060225021A748029B09F0E3F80FE01E
:1020F000002009F039FE03909E4809F035FE029059
:1021000003980090602250219E48029B09F0D2F86B
:1021100097480078052816D1964809F025FE0390C7
:10212000002009F021FE0290039800909248807AE6
:1021300000EB40009449084401901E22F021029BCC
:1021400009F0B8F815E0002009F00EFE0390894868
:1021500009F00AFE0290039800908748807A00EB0D
:1021600040008949084401901E22F021029B09F099
:10217000A1F87F48007806281DD17E4809F0F4FDBB
:102180000390002009F0F0FD0290039800907A4837
:10219000007D00EBC00101EB00107C49084476494A
:1021A000097B01EB8101084401903422F021029B5C
:1021B00009F080F81CE0002009F0D6FD03906D487E
:1021C00009F0D2FD0290039800906B48007D00EB6F
:1021D000C00101EB00106D4908446749097B01EB20
:1021E0008101084401903422F021029B09F062F839
:1021F0005F480078072816D15E4809F0B5FD0390C6
:10220000002009F0B1FD0290039800905A48407CEC
:1022100000EB80005E49084401904A22F021029BB5
:1022200009F048F815E0002009F09EFD03905148A0
:1022300009F09AFD0290039800904F48407C00EB13
:1022400080005349084401904A22F021029B09F082
:1022500031F84948408A02464EA1039004A80EF086
:1022600049FF43480078082810D1424809F07CFD16
:102270000390002009F078FD0290039800906022FE
:10228000F02104A8029B09F015F80FE0002009F0E6
:102290006BFD0390374809F067FD029003980090AA
:1022A0006022F02104A8029B09F004F829E23048DA
:1022B0000078012817D12F4809F056FD039000201F
:1022C00009F052FD0290039800902B48007D00EB2E
:1022D0008000324901EB4000019082225021029B94
:1022E00008F0E8FF16E0002009F03EFD03902148C9
:1022F00009F03AFD0290039800901F48007D00EB22
:102300008000264901EB4000019082225021029B6F
:1023100008F0D0FF16480078022817D1154809F0B8
:1023200023FD0390002009F01FFD02900398009008
:102330001148407D00EB8000194901EB40000190FD
:1023400094225021029B08F0B5FF31E0002009F0F3
:102350000BFD0390074809F007FD029003980090D9
:102360000548407D00EB80000D4901EB400019E07D
:102370003101002032F0F00034050020B3380108AC
:102380000839010868060020DB38010858390108BF
:10239000C639010825303464000000005C3A0108A9
:1023A0008E3A0108019094225021029B08F082FF8E
:1023B000D748007803281FD1D64809F0D5FC0390F0
:1023C000002009F0D1FC029003980090D248007DD3
:1023D00000EBC00101EB0010D04901EB4000CE49F9
:1023E000897D01EB810100EB41000190A622502183
:1023F000029B08F05FFF1EE0002009F0B5FC03908F
:10240000C44809F0B1FC029003980090C248007DD6
:1024100000EBC00101EB0010C04901EB4000BE49D8
:10242000897D01EB810100EB41000190A622502142
:10243000029B08F03FFFB648007804281FD1B5483A
:1024400009F092FC0390002009F08EFC02900398A2
:102450000090B148007D00EBC00101EB0010AF49D6
:1024600001EB4000AC49097E01EB810100EB41002A
:102470000190B8225021029B08F01CFF1EE00020B2
:1024800009F072FC0390A34809F06EFC02900398D7
:102490000090A148007D00EBC00101EB00109F49B6
:1024A00001EB40009C49097E01EB810100EB4100FA
:1024B0000190B8225021029B08F0FCFE944800785D
:1024C00007281FD1934809F04FFC0390002009F022
:1024D0004BFC0290039800908F48007D00EBC001F8
:1024E00001EB00108E4901EB40008B49C97D01EBE7
:1024F000810100EB41000190A622F021029B08F02F
:10250000D9FE1EE0002009F02FFC0390814809F05D
:102510002BFC0290039800907F48007D00EBC001E7
:1025200001EB00107E4901EB40007B49C97D01EBC6
:10253000810100EB41000190A622F021029B08F0EE
:10254000B9FE7348007808281FD1724809F00CFCC6
:102550000390002009F008FC0290039800906E4858
:10256000007D00EBC00101EB00106E4901EB400063
:102570006949497E01EB810100EB41000190B822DD
:10258000F021029B08F096FE1EE0002009F0ECFB13
:102590000390604809F0E8FB0290039800905E48C1
:1025A000007D00EBC00101EB00105E4901EB400033
:1025B0005949497E01EB810100EB41000190B822AD
:1025C000F021029B08F076FE9BE05148007801283C
:1025D00010D1504809F0C8FB0390002009F0C4FB5B
:1025E0000290039800901E2250214F48029B08F051
:1025F00061FE0FE0002009F0B7FB0390454809F0A9
:10260000B3FB0290039800901E2250214648029B83
:1026100008F050FE3E480078022811D13D4809F0EC
:10262000A3FB0390002009F09FFB02900398009009
:10263000342250213C480F30029B08F03BFE10E052
:10264000002009F091FB0390324809F08DFB0290C5
:10265000039800903422502133480F30029B08F039
:1026600029FE2B480078032811D12A4809F07CFB69
:102670000390002009F078FB0290039800904A2212
:10268000502129481E30029B08F014FE10E0002063
:1026900009F06AFB03901F4809F066FB029003985B
:1026A00000904A22502120481E30029B08F002FE72
:1026B00017480078042811D1164809F055FB0390FB
:1026C000002009F051FB02900398009060225021F5
:1026D00015482D30029B08F0EDFD10E0002009F0B8
:1026E00043FB03900B4809F03FFB029003980090D6
:1026F000602250210C482D30029B08F0DBFD00E0E9
:1027000000BF00BF079807F00DF809B000BD00003A
:102710003101002032F0F00034050020C03A0108F9
:10272000243B0108883B010841380108F8B5002026
:1027300009F01AFB054608F0B1FB9621322000F0A3
:10274000EDFE4FF4487010F0EFF8002009F00CFB9C
:10275000054608F0A3FB002419E0002009F004FB63
:1027600005466FF07F4009F0FFFA064604EBC4010E
:1027700049008A1C074901EB4410334602210095A9
:1027800008F098FDC82000F0B2FE601CC4B20A2C0C
:10279000E3DBF8BD793C0108F8B50020304908704A
:1027A00009F0E2FA054608F079FB022000F034FC5B
:1027B000002451E0204604EBD0714910A4EB410104
:1027C00021B3002009F0D0FA064647F2CE1009F0F6
:1027D000CBFA074604EBD471491001EB410303EB3C
:1027E000C1011E2303EB41018AB21E490096097DF7
:1027F00001EB81011C4B03EB011104EB840301EBA2
:1028000043003B46A82108F055FD23E0002009F0D5
:10281000ABFA064647F2CE1009F0A6FA074604EBDB
:10282000D471491001EB410303EBC1011E2303EBFB
:1028300041018AB20B490096097D01EB81010A4BE7
:1028400003EB011104EB840301EB43003B46082139
:1028500008F030FD601CC4B2082CABDBF8BD0000F2
:102860003101002034050020FD350108F8B50020B5
:102870005649087009F078FA054608F00FFB032066
:1028800000F0CAFB002420E0002009F06DFA0546A4
:1028900047F2CE1009F068FA06464D490095097DC9
:1028A000C1EB0111C1EBC1014A4B03EB4101C4EB88
:1028B0000413C81804EBC401162303EB410233468A
:1028C000082108F0F7FC601CC4B20A2CDCDB0024F1
:1028D00023E0002009F048FA054647F2CE1009F03F
:1028E00043FA06463A490095097DC1EB0111C1EB57
:1028F000C101384B03EB410304F10A01C1EB0111A3
:102900005818A11D01EBC101162303EB4102334608
:10291000A82108F0CFFC601CC4B2042CD9DB002431
:1029200035E0022C18DA002009F01EFA05466FF097
:102930007F4009F019FA064604EBC401162303EBA5
:10294000410204EB8401244B03EB810033469021C8
:10295000009508F0AFFC18E0002009F005FA0546E4
:102960006FF07F4009F000FA0646611C01EBC101DF
:10297000162303EB410204EB8401174B03EB8100A8
:1029800033469021009508F095FC601CC4B2052CDC
:10299000C7DB002009F0E8F905466FF07F4009F039
:1029A000E3F9064633463A22902109481A30009549
:1029B00008F080FC09480A490A88028089788170F9
:1029C0000848094909680160F8BD0000310100208C
:1029D000340500209D360108F83901084501002022
:1029E00028010020410100202401002038B50020EA
:1029F00009F0BAF904466FF07F4009F0B5F90546D1
:102A0000064900948978491E01EB8101044A88181F
:102A10002B4601225F2108F04DFC38BD3405002013
:102A2000B33801082DE9F84300250024C6E120460B
:102A300004EBD0714910A4EB410100297ED0EB4892
:102A400030F9140047F6FF7188423AD1601CE8491A
:102A5000097888421AD16FF07F4009F085F907465E
:102A6000002009F081F9804604EBD470401000EB9F
:102A7000400101EB00102A2101EB400082B24346E5
:102A8000D021DCA0009708F0B3FB95E1002009F00D
:102A90006BF907466FF07F4009F066F9804604EB5A
:102AA000D470401000EB400101EB00102A2101EB33
:102AB000400082B24346D021CEA0009708F098FB98
:102AC0007AE1CA4830F81410CC4800EB4400008882
:102AD000084400B2CA4921F8140031F91400002357
:102AE0000522012106F01EFBC54830F91400C34938
:102AF0002E39B1F90D10884208DCC14830F91400B4
:102B0000BE492E39B1F90F1088423DDA0125601C0B
:102B1000B749097888421CD14FF47F0009F024F9A5
:102B20000746002009F020F9804604EBD4704010DD
:102B300000EB400101EB00102A2100E05FE001EB17
:102B4000400082B24346D021AE48009708F050FBC7
:102B500032E1002009F008F907464FF47F0009F040
:102B600003F9804604EBD470401000EB400101EB08
:102B700000102A2101EB400082B24346D021A14837
:102B8000009708F035FB17E1601C994909788842E5
:102B90001AD14FF46E4009F0E7F80746002009F01B
:102BA000E3F8804604EBD470401000EB400101EBE9
:102BB00000102A2101EB400082B24346D021914807
:102BC000009708F015FBF7E0002009F0CDF8074664
:102BD0004FF46E4009F0C8F8804604EBD470401002
:102BE00000EB400101EB00102A2101EB400082B212
:102BF0004346D0218348009708F0FAFADCE07B488E
:102C000030F9140047F6FF7188423AD1601C7849C8
:102C1000097888421AD16FF07F4009F0A5F807467D
:102C2000002009F0A1F8804604EBD470401000EBBE
:102C3000400101EB00102A2101EB400082B2434623
:102C400030216CA0009708F0D3FAB5E0002009F01D
:102C50008BF807466FF07F4009F086F8804604EB5A
:102C6000D470401000EB400101EB00102A2101EB71
:102C7000400082B2434630215EA0009708F0B8FAC7
:102C80009AE05A4830F814105C4800EB4400008881
:102C9000084400B25A4921F8140031F91400002305
:102CA0000522012106F03EFA554830F91400534937
:102CB0002E39B1F90D10884208DC514830F9140062
:102CC0004E492E39B1F90F1088423BDA0125601CBC
:102CD0004749097888421AD14FF47F0009F044F837
:102CE0000746002009F040F8804604EBD4704010FD
:102CF00000EB400101EB00102A2101EB400082B201
:102D0000434630213F48009708F072FA54E0002013
:102D100009F02AF807464FF47F0009F025F88046AD
:102D200004EBD470401000EB400101EB00102A21AD
:102D300001EB400082B2434630213248009708F050
:102D400057FA39E0601C2A49097888421AD14FF4B1
:102D50006E4009F009F80746002009F005F88046A2
:102D600004EBD470401000EB400101EB00102A216D
:102D700001EB400082B2434630212248009708F020
:102D800037FA19E0002008F0EFFF07464FF46E40D5
:102D900008F0EAFF804604EBD470401000EB4001DD
:102DA00001EB00102A2101EB400082B243463021A2
:102DB0001448009708F01CFA601CC4B2082CFFF6F7
:102DC00036AE012D09D10D482E38007B28B90122DD
:102DD000D1020D4803F072FC05E000224FF40061BF
:102DE000094803F06BFCBDE8F88300009006002062
:102DF000310100202D2D2D2D2D2D000062050020EC
:102E00007205002068060020000C014070B500200B
:102E10001D49087008F0A8FF054608F03FF801209A
:102E200000F0FAF8FFF7E2FD00F010F9FEF734FECB
:102E3000002411E06FF07F4008F096FF054626223F
:102E400004FB02F000F11E012B4640F23F1201206C
:102E500008F01CF9601CC4B2052CEBDB002410E068
:102E60006FF07F4008F080FF054604EB84014901C4
:102E7000491C88B22B4698221E2108F0E1F9601CFB
:102E8000C4B2032CECDB70BD3101002030B587B03B
:102E900051480078012802D003287CD136E04F4900
:102EA0004F4808F0ADFF4D48807800904B4843787C
:102EB00002784CA104A80EF01DF9494880780090D2
:102EC00047484378C2784BA101A80EF013F90020BF
:102ED00008F04AFF04464C4808F046FF05462B46DA
:102EE0000122AA2104A8009408F0E4F9002008F0C7
:102EF0003BFF0446444808F037FF05462B46C022F6
:102F0000B42101A8009408F0D5F961E033493448B0
:102F100008F076FF3D48807800903C48437802787E
:102F200030A104A80EF0E6F83948807800903848BF
:102F30004378C2782FA101A80EF0DCF8354800785C
:102F400005280FD1304808F00FFF0446002008F094
:102F50000BFF05462B468222F02101A8009408F0C1
:102F6000A9F90EE0002008F0FFFE0446264808F00C
:102F7000FBFE05462B468222F02101A8009408F0B2
:102F800099F924480078062811D11F4808F0ECFE72
:102F90000446002000E01AE008F0E6FE05462B4655
:102FA0009422F02104A8009408F084F90EE0002097
:102FB00008F0DAFE0446144808F0D6FE05462B4613
:102FC0009422F02104A8009408F074F900E000BFF6
:102FD00000BF07B030BD00003201002028010020F2
:102FE00024010020253032643A253032643A2530FD
:102FF000326400003230253032642D253032642DA9
:10300000253032640000000032F0F000450100205D
:103010004101002031010020F8B504464FF46E4014
:1030200008F0A2FE0546002008F09EFE0646611E3E
:10303000C1EB0111044A881833460122114600955C
:1030400008F038F9F8BD00006735010838B50020F0
:1030500008F08AFE04466FF07F4008F085FE0546C2
:103060002B4603227F2115A0009408F023F90020AD
:1030700008F07AFE04466FF07F4008F075FE0546C2
:103080002B4603229F210EA0009408F013F9002084
:1030900008F06AFE04466FF07F4008F065FE0546C2
:1030A00008490094897A01EB4101074A88182B46A8
:1030B00001228F2108F0FEF838BD00002800000032
:1030C0002900000034050020DB38010838B521480C
:1030D00008F04AFE044609234FF48072062100904E
:1030E000FA2007F0F3FE002008F03EFE0446072316
:1030F000FC2219460090104607F0E8FE002008F078
:1031000033FE04460723FE2219460090104607F0BE
:10311000DDFE104808F028FE0446112340F201129B
:103120000A210090F92007F0D1FE0A4808F01CFEA1
:103130000446234607221221FA2007F0A7FF05487C
:1031400008F012FE0446234603221321FC2007F058
:103150009DFF38BD2176EE002DE9F84304460D466B
:1031600017461E46DDF820806FF07F4008F0FCFD1A
:1031700081467B1E9AB26B1C99B2631C98B24B4677
:1031800007F084FF6FF07F4008F0EEFD8146731E6C
:103190009AB26B1C99B2631C98B24B4608F050F877
:1031A0006FF07F4008F0E0FD8146731E9AB26B1C01
:1031B00099B2A31C98B24B4608F042F8002008F0E0
:1031C000D3FD81464B463A462946204607F05EFF2E
:1031D000002008F0C9FD81464B463246294620466C
:1031E00008F02EF8002008F0BFFD8146E11988B2F2
:1031F0004B463246294608F023F8002008F0B4FD7B
:103200008146711C8AB2E119491C88B24B46294695
:1032100008F016F8002008F0A7FD8146781C82B25D
:10322000A81981B24B46204607F030FF05EB060C8B
:10323000ACF1010C1FFA8CF304EB070CACF1010CA0
:103240001FFA8CF205F1020C1FFA8CF104F1030C49
:103250001FFA8CF0CDF8008007F038FEBDE8F88347
:1032600070B504466FF07F4008F07EFD054607F01C
:1032700015FE012C06D0022C1BD0032C32D0042CBE
:1032800060D146E04FF47F0008F06EFD05462B4606
:103290000A221421084607F0F9FE4FF47F0008F0D7
:1032A00063FD05462B460A220F21192007F0C8FFAF
:1032B00048E04FF47F0008F057FD05462B460A22F0
:1032C00014214FF4967007F0E1FE4FF47F0008F0F0
:1032D0004BFD05462B460A220F2140F2311007F024
:1032E000AFFF2FE04FF47F0008F03EFD05462B4670
:1032F0000A22DC21142007F0C9FE4FF47F0008F0F9
:1033000033FD05462B460A22D721192007F098FFE6
:1033100018E04FF47F0008F027FD05462B460A22EF
:10332000DC214FF4967007F0B1FE4FF47F0008F0F7
:103330001BFD05462B460A22D72140F2311007F02B
:103340007FFF00BF00BF70BD10B50122802104487F
:1033500003F0B4F900F080F800F022F810BD00008E
:10336000001001401FB58020009001200290002035
:103370000190032003906946014802F0F7FF1FBD4A
:10338000001001401FB58020009001200190032013
:1033900003906946014802F0E9FF1FBD001001409B
:1033A00010B50024FFF7DEFF04E0601CC4B201206A
:1033B0000FF0D8FA80210F4803F078F908B1642C97
:1033C000F3DB642C01DB012010BD002404E0601C51
:1033D000C4B201200FF0C6FA8021064803F066F956
:1033E00008B9F02CF3DBF02C01DB0120ECE7002026
:1033F000EAE700000010014010B5FFF7C3FF00220C
:1034000080210B4803F05AF90A200FF0ABFAFFF7BE
:10341000A9FF8021064803F049F9012801D10124C0
:1034200000E000242D200FF09DFA204610BD000082
:103430000010014070B50026002408E0FFF7DCFF13
:10344000054605FA04F03043C6B2601CC4B2082C2D
:10345000F4DB304670BD000010B5FFF793FF00228B
:103460008021084803F02AF940F2EE200FF07AFAA2
:1034700001228021034803F021F90F200FF072FA96
:1034800010BD00000010014070B50446FFF77AFF40
:10349000002526E004F00106641086B10022802198
:1034A000114803F00BF908200FF05CFA012280218B
:1034B0000D4803F003F93A200FF054FA0FE0002210
:1034C0008021094803F0FAF846200FF04BFA012258
:1034D0008021054803F0F2F802200FF043FA681C3F
:1034E000C5B2082DD6DB70BD00100140704706E064
:1034F00042F63D0100E0491E0029FCD1401E002893
:10350000F6D1704706E00A2101E04A1ED1B2002937
:10351000FBDC401E0028F6D17047000003B587B0E1
:10352000FE4808F021FC034629220690DDE9070148
:1035300007F0ACFDF94808F017FC06900898401E0B
:1035400080B205900798401E80B204902C22DDE9DD
:10355000051307F09BFDF14808F006FC069008985B
:10356000801E80B205900798401E80B204902E22E3
:10357000DDE9051307F08AFDE84808F0F5FB069041
:103580000898C01E80B205902E220146DDE9063063
:1035900007F07CFDE14808F0E7FB06900898001F63
:1035A00080B205900798801C80B204902E22DDE93D
:1035B000051307F06BFDD94808F0D6FB0690089874
:1035C000401F80B205900798233080B204900E22ED
:1035D000DDE9051307F05AFDD04808F0C5FB069059
:1035E0000898801F80B205900798233080B204901D
:1035F0000F22DDE9051307F049FDC84808F0B4FBC8
:1036000006900898C01F80B205900798233080B2BA
:1036100004900F22DDE9051307F038FDBF4808F0DC
:10362000A3FB06900898083880B2059007982430CC
:1036300080B204900E22DDE9051307F027FDB7489C
:1036400008F092FB06900898093880B20590079818
:10365000243080B204900F22DDE9051307F016FD37
:10366000AE4808F081FB069008980A3880B20590B1
:103670000798253080B204900E22DDE9051307F08B
:1036800005FDA64808F070FB069008980B3880B23C
:1036900005900798253080B204900E22DDE90513CD
:1036A00007F0F4FC9D4808F05FFB069008980C3882
:1036B00080B205900798253080B204900E22DDE993
:1036C000051307F0E3FC954808F04EFB06900898B8
:1036D0000D3880B205900798263080B204900E22F3
:1036E000DDE9051307F0D2FC8C4808F03DFB06909D
:1036F00008980E3880B205900798253080B2049063
:103700000F22DDE9051307F0C1FC844808F02CFB0B
:10371000069008980F3880B205900798263080B23E
:1037200004900E22DDE9051307F0B0FC7B4808F099
:103730001BFB06900898103880B205900798263039
:1037400080B204900E22DDE9051307F09FFC734858
:1037500008F00AFB06900898113880B20590079887
:10376000263080B204900F22DDE9051307F08EFCAD
:103770006A4808F0F9FA06900898123880B2059065
:103780000798273080B204900E22DDE9051307F078
:103790007DFC624808F0E8FA06900898133880B279
:1037A00005900798273080B204900E22DDE90513BA
:1037B00007F06CFC594808F0D7FA069008981438BE
:1037C00080B205900798273080B204900F22DDE97F
:1037D000051307F05BFC514808F0C6FA06900898FC
:1037E000153880B205900798283080B204900E22D8
:1037F000DDE9051307F04AFC484808F0B5FA0690E1
:103800000898163880B205900798283080B2049046
:103810000E22DDE9051307F039FC404808F0A4FA50
:1038200006900898173880B205900798283080B223
:1038300004900E22DDE9051307F028FC374808F054
:1038400093FA06900898183880B2059007982830A7
:1038500080B204900E22DDE9051307F017FC2F4813
:1038600008F082FA06900898193880B205900798F7
:10387000293080B204900D22DDE9051307F006FC23
:10388000264808F071FA069008981A3880B2059018
:103890000798293080B204900E22DDE9051307F065
:1038A000F5FB1E4808F060FA069008981B3880B2B5
:1038B00005900798293080B204900E22DDE90513A7
:1038C00007F0E4FB154808F04FFA069008981C38FA
:1038D00080B2059007982A3080B204900E22DDE96C
:1038E000051307F0D3FB0D4808F03EFA0690089840
:1038F0001D3880B2059007982A3080B204900E22BD
:10390000DDE9051307F0C2FB044808F02DFA069024
:1039100008981E3880B20590079801E02176EE00E5
:103920002A3080B204900E22DDE9051307F0AEFBC9
:10393000FE4808F019FA069008981F3880B20590E2
:1039400007982A3080B204900F22DDE9051307F0B2
:103950009DFBF64808F008FA06900898203880B2D7
:10396000059007982A3080B204900F22DDE90513F4
:1039700007F08CFBED4808F0F7F90690089821381D
:1039800080B2059007982B3080B204900D22DDE9BB
:10399000051307F07BFBE54808F0E6F90690089868
:1039A000223880B2059007982B3080B204900E2206
:1039B000DDE9051307F06AFBDC4808F0D5F906904D
:1039C0000898233880B2059007982C3080B2049074
:1039D0000D22DDE9051307F059FBD44808F0C4F9BE
:1039E00006900898243880B2059007982C3080B251
:1039F00004900E22DDE9051307F048FBCB4808F0E0
:103A0000B3F906900898253880B2059007982C30B5
:103A100080B204900E22DDE9051307F037FBC3489E
:103A200008F0A2F906900898263880B20590079809
:103A30002C3080B204900F22DDE9051307F026FB3D
:103A4000BA4808F091F906900898273880B2059096
:103A500007982C3080B204900F22DDE9051307F09F
:103A600015FBB24808F080F906900898283880B213
:103A7000059007982D3080B204900E22DDE90513E1
:103A800007F004FBA94808F06FF906900898293858
:103A900080B2059007982D3080B204900E22DDE9A7
:103AA000051307F0F3FAA14808F05EF906900898AC
:103AB0002A3880B2059007982D3080B204900F22EA
:103AC000DDE9051307F0E2FA984808F04DF9069091
:103AD00008982B3880B2059007982D3080B204905A
:103AE0000F22DDE9051307F0D1FA904808F03CF900
:103AF000069008982C3880B2059007982E3080B236
:103B000004900E22DDE9051307F0C0FA874808F09B
:103B10002BF9069008982D3880B2059007982E3022
:103B200080B204900E22DDE9051307F0AFFA7F485A
:103B300008F01AF9069008982E3880B20590079878
:103B40002E3080B204900F22DDE9051307F09EFAB3
:103B5000764808F009F9069008982F3880B2059049
:103B600007982F3080B204900E22DDE9051307F08C
:103B70008DFA6E4808F0F8F806900898303880B250
:103B8000059007982F3080B204900E22DDE90513CE
:103B900007F07CFA654808F0E7F806900898313895
:103BA00080B2059007982F3080B204900F22DDE993
:103BB000051307F06BFA5D4808F0D6F806900898F0
:103BC000323880B2059007982F3080B204900F22CF
:103BD000DDE9051307F05AFA544808F0C5F80690D5
:103BE0000898333880B205900798303080B204903E
:103BF0000E22DDE9051307F049FA4C4808F0B4F845
:103C000006900898343880B205900798303080B21A
:103C100004900E22DDE9051307F038FA434808F056
:103C2000A3F806900898353880B205900798303090
:103C300080B204900E22DDE9051307F027FA3B4815
:103C400008F092F806900898363880B205900798E8
:103C5000313080B204900D22DDE9051307F016FA29
:103C6000324808F081F806900898373880B20590FD
:103C70000798313080B204900E22DDE9051307F079
:103C800005FA2A4808F070F8069000900898333832
:103C900080B205900798543080B204900898363866
:103CA00080B203900798483080B2029003A90EC9F1
:103CB00007F00CF91D4808F057F8069008983438BA
:103CC00080B205900798473080B204900D22DDE95C
:103CD000051307F0DBF9154808F046F80690009048
:103CE00008982F3880B205900798533080B204901E
:103CF0000898333880B203900798473080B202901A
:103D000003A90EC907F0E2F8084808F02DF806905C
:103D1000009008982C3880B205900798523080B2F5
:103D2000049008982F3880B2039001E02176EE00CD
:103D30000798463080B2029003A90EC907F0C6F872
:103D4000FE4808F011F806900898283880B20590CF
:103D50000798443080B204900E22DDE9051307F085
:103D600095F9F64808F000F806900898273880B2D0
:103D700005900798453080B204900D22DDE90513C7
:103D800007F084F9ED4807F0EFFF06900898263811
:103D900080B205900798443080B204900D22DDE98E
:103DA000051307F073F9E54807F0DEFF0690089861
:103DB000253880B205900798443080B204900C22D8
:103DC000DDE9051307F062F9DC4807F0CDFF069046
:103DD00000900898213880B205900798503080B242
:103DE00004900898243880B203900798433080B23A
:103DF000029003A90EC907F069F8D04807F0B4FF94
:103E000006900898213880B205900798433080B218
:103E100004900C22DDE9051307F038F9C74807F0D4
:103E2000A3FF0690009008981D3880B2059007986F
:103E30004F3080B204900898203880B203900798E1
:103E4000423080B2029003A90EC907F03FF8BB4888
:103E500007F08AFF069008981D3880B205900798F1
:103E6000423080B204900C22DDE9051307F00EF910
:103E7000B24807F079FF0690009008981A3880B28F
:103E8000059007984E3080B2049008981C3880B294
:103E900003900798413080B2029003A90EC907F041
:103EA00015F8A64807F060FF069008981A3880B207
:103EB00005900798413080B204900C22DDE905138B
:103EC00007F0E4F89D4807F04FFF0690009008982F
:103ED000163880B2059007984D3080B2049008984B
:103EE000193880B203900798403080B2029003A93D
:103EF0000EC906F0EBFF914807F036FF06900898D0
:103F0000163880B2059007983F3080B204900E2298
:103F1000DDE9051307F0BAF8884807F025FF069099
:103F200000900898133880B2059007984C3080B202
:103F300004900898153880B2039007983F3080B2FB
:103F4000029003A90EC906F0C1FF7C4807F00CFFE0
:103F5000069000900898113880B2059007984B3071
:103F600080B204900898133880B2039007983F30CD
:103F700080B2029003A90EC906F0A8FF6F4807F0AF
:103F8000F3FE06900898113880B2059007983E30ED
:103F900080B204900D22DDE9051307F077F8674839
:103FA00007F0E2FE0690009008980E3880B2059067
:103FB00007984A3080B204900898103880B2039075
:103FC00007983E3080B2029003A90EC906F07EFF2A
:103FD0005A4807F0C9FE0690009008980B3880B246
:103FE000059007984A3080B2049008980E3880B245
:103FF000039007983D3080B2029003A90EC906F0E5
:1040000065FF4E4807F0B0FE069008980B3880B266
:10401000059007983D3080B204900C22DDE905132D
:1040200007F034F8454807F09FFE06900090089886
:10403000C01F80B205900798493080B2049008985C
:104040000A3880B2039007983C3080B2029003A9EE
:104050000EC906F03BFF394807F086FE0690009037
:104060000898401F80B205900798483080B20490AD
:104070000898C01F80B2039007983B3080B202902E
:1040800003A90EC906F022FF2C4807F06DFE06902A
:1040900000900898C01E80B205900798473080B203
:1040A00004900898401F80B2039007983A3080B27D
:1040B000029003A90EC906F009FF204807F054FE3C
:1040C00006900898C01E80B2059007983A3080B2DA
:1040D00004900E22DDE9051306F0D8FF174807F01B
:1040E00043FE06900090089880B2059007984730EC
:1040F00080B204900898801E80B2039007983A30EE
:1041000080B2029003A90EC906F0E0FE0B4807F04A
:104110002BFE069007983A3080B205900C22069B41
:10412000089906F0B3FF054807F01EFE06900898B0
:10413000283880B205900798583001E02176EE00CB
:1041400080B204901722DDE9051306F09FFFFE48B8
:1041500007F00AFE06900898273880B20590079865
:10416000553080B204901B22DDE9051306F08EFF66
:10417000F54807F0F9FD06900898263880B20590BA
:104180000798543080B204901E22DDE9051306F032
:104190007DFFED4807F0E8FD06900898253880B2CD
:1041A00005900798533080B204902022DDE9051372
:1041B00006F06CFFE44807F0D7FD06900898243815
:1041C00080B205900798533080B204900322DDE955
:1041D000051306F05BFFDC4807F0C6FD0690089863
:1041E000243880B205900798683080B204900C2281
:1041F000DDE9051306F04AFFD34807F0B5FD069048
:104200000898233880B205900798533080B2049004
:104210000122DDE9051306F039FFCB4807F0A4FDC4
:1042200006900898233880B205900798683080B2CD
:1042300004900C22DDE9051306F028FFC24807F0C0
:1042400093FD0690009008981F3880B2059007985B
:10425000743080B204900898223880B20390079896
:10426000683080B2029003A90EC906F02FFEB6484E
:1042700007F07AFD0690009008981C3880B20590EF
:104280000798743080B2049008981F3880B2039069
:104290000798673080B2029003A90EC906F016FE97
:1042A000A94807F061FD069008981C3880B2059077
:1042B0000798663080B204900D22DDE9051306F000
:1042C000E5FEA14807F050FD069008981B3880B223
:1042D00005900798673080B204900C22DDE9051341
:1042E00006F0D4FE984807F03FFD069008981A386B
:1042F00080B205900798663080B204900D22DDE907
:10430000051306F0C3FE904807F02EFD06900090BE
:104310000898173880B205900798723080B20490E0
:104320000898193880B203900798653080B20290DF
:1043300003A90EC906F0CAFD834807F015FD0690D3
:1043400000900898153880B205900798713080B2B7
:1043500004900898173880B203900798653080B2AF
:10436000029003A90EC906F0B1FD774807F0FCFCE6
:10437000069000900898123880B205900798713026
:1043800080B204900898153880B203900798643082
:1043900080B2029003A90EC906F098FD6A4807F0A2
:1043A000E3FC0690009008980F3880B205900798BB
:1043B000703080B204900898123880B20390079849
:1043C000633080B2029003A90EC906F07FFD5E48FB
:1043D00007F0CAFC069008980F3880B2059007983D
:1043E000633080B204900C22DDE9051306F04EFE26
:1043F000554807F0B9FC0690009008980B3880B239
:10440000059007986F3080B2049008980E3880B2FB
:1044100003900798623080B2029003A90EC906F09B
:1044200055FD494807F0A0FC069008980B3880B26B
:1044300005900798623080B204900C22DDE90513E4
:1044400006F024FE404807F08FFC069008980A38D2
:1044500080B205900798613080B204900D22DDE9AA
:10446000051306F013FE384807F07EFC0690009016
:104470000898401F80B2059007986D3080B2049074
:104480000898093880B203900798613080B2029092
:1044900003A90EC906F01AFD2B4807F065FC06902B
:1044A00000900898801E80B2059007986C3080B20A
:1044B00004900898401F80B203900798603080B243
:1044C000029003A90EC906F001FD1F4807F04CFC3D
:1044D000069000900898401C80B2059007986C30B8
:1044E00080B204900898801E80B2039007985F30D5
:1044F00080B2029003A90EC906F0E8FC124807F04A
:1045000033FC06900898383880B2059007987F30C1
:1045100080B204900C22DDE9051306F0B7FD0A48CD
:1045200007F022FC069000900898343880B205907D
:1045300007988B3080B204900898373880B2039087
:1045400007987E3080B201E02176EE00029003A948
:104550000EC906F0BBFCFE4807F006FC0690009072
:104560000898323880B2059007988A3080B204905B
:104570000898343880B2039007987E3080B2029059
:1045800003A90EC906F0A2FCF14807F0EDFB069066
:1045900000900898303880B205900798893080B232
:1045A00004900898323880B2039007987D3080B22A
:1045B000029003A90EC906F089FCE54807F0D4FB78
:1045C00006900898303880B2059007987C3080B209
:1045D00004900D22DDE9051306F058FDDC4807F0D4
:1045E000C3FB069008982F3880B2059007987C305E
:1045F00080B204900C22DDE9051306F047FDD44893
:1046000007F0B2FB069008982E3880B20590079804
:104610007C3080B204900D22DDE9051306F036FDF2
:10462000CB4807F0A1FB069008982D3880B2059082
:1046300007987C3080B204900C22DDE9051306F067
:1046400025FDC34807F090FB0690009008982A3893
:1046500080B205900798883080B2049008982C3872
:1046600080B2039007987B3080B2029003A90EC9F4
:1046700006F02CFCB64807F077FB069000900898EF
:10468000273880B205900798873080B20490089848
:104690002A3880B2039007987B3080B2029003A939
:1046A0000EC906F013FCAA4807F05EFB06900898B6
:1046B000293880B205900798993080B204900C2276
:1046C000DDE9051306F0E2FCA14807F04DFB06907A
:1046D0000898283880B205900798973080B20490E7
:1046E0000D22DDE9051306F0D1FC994807F03CFBEB
:1046F00006900898273880B2059007987A3080B2E3
:1047000004900D22DDE9051306F0C0FC904807F087
:104710002BFB06900898273880B2059007989630B2
:1047200080B204900C22DDE9051306F0AFFC884846
:1047300007F01AFB069000900898243880B2059084
:104740000798863080B204900898263880B203908B
:1047500007987A3080B2029003A90EC906F0B6FB22
:104760007B4807F001FB06900898263880B2059038
:104770000798943080B204900D22DDE9051306F00D
:1047800085FC734807F0F0FA06900898253880B247
:1047900005900798933080B204900C22DDE9051350
:1047A00006F074FC6A4807F0DFFA0690009008985B
:1047B000213880B205900798863080B2049008981E
:1047C000243880B203900798793080B2029003A910
:1047D0000EC906F07BFB5E4807F0C6FA0690089803
:1047E000243880B205900798923080B204900C2251
:1047F000DDE9051306F04AFC554807F0B5FA0690C6
:104800000898233880B205900798913080B20490C0
:104810000B22DDE9051306F039FC4D4807F0A4FA38
:1048200006900898223880B2059007988F3080B2A1
:1048300004900C22DDE9051306F028FC444807F03B
:1048400093FA06900898213880B20590079878303E
:1048500080B204900D22DDE9051306F017FC3C48F8
:1048600007F082FA06900898213880B205900798E0
:104870008D3080B204900D22DDE9051306F006FCB0
:10488000334807F071FA06900898203880B20590F6
:104890000798793080B204900C22DDE9051306F008
:1048A000F5FB2B4807F060FA06900898203880B294
:1048B000059007988C3080B204900C22DDE9051336
:1048C00006F0E4FB224807F04FFA069008981F38DC
:1048D00080B205900798783080B204900D22DDE90F
:1048E000051306F0D3FB1A4807F03EFA0690089825
:1048F0001F3880B2059007988A3080B204900D224C
:10490000DDE9051306F0C2FB114807F02DFA069009
:1049100008981E3880B205900798783080B20490CD
:104920000C22DDE9051306F0B1FB094807F01CFA7B
:10493000069008981E3880B205900798893080B29A
:1049400004900D22DDE9051306F0A0FB004801E00C
:104950002176EE0007F008FA069008981D3880B21C
:1049600005900798773080B204900D22DDE9051399
:1049700006F08CFBFE4807F0F7F9069008981D3802
:1049800080B205900798873080B204900F22DDE94D
:10499000051306F07BFBF64807F0E6F90690089849
:1049A0001C3880B205900798773080B204900C22B2
:1049B000DDE9051306F06AFBED4807F0D5F906902E
:1049C00008981C3880B205900798863080B2049011
:1049D0001022DDE9051306F059FBE54807F0C4F99C
:1049E000069008981B3880B205900798773080B2FF
:1049F00004901F22DDE9051306F048FBDC4807F0B0
:104A0000B3F9069008981A3880B205900798763066
:104A100080B204901F22DDE9051306F037FBD4486D
:104A200007F0A2F906900898193880B20590079807
:104A3000763080B204902022DDE9051306F026FBD3
:104A4000CB4807F091F906900898183880B2059085
:104A50000798763080B204902022DDE9051306F035
:104A600015FBC34807F080F906900898173880B204
:104A700005900798753080B204902122DDE9051376
:104A800006F004FBBA4807F06FF90690089816384C
:104A900080B205900798763080B204901322DDE949
:104AA000051306F0F3FAB24807F05EF9069008988D
:104AB000163880B2059007988A3080B204900C2294
:104AC000DDE9051306F0E2FAA94807F04DF9069072
:104AD0000898153880B205900798753080B2049018
:104AE0001322DDE9051306F0D1FAA14807F03CF9DD
:104AF00006900898153880B2059007988A3080B2E1
:104B000004900C22DDE9051306F0C0FA984807F07E
:104B10002BF906900898143880B2059007987530E4
:104B200080B204901222DDE9051306F0AFFA904836
:104B300007F01AF906900898143880B20590079883
:104B40008A3080B204900D22DDE9051306F09EFA4A
:104B5000874807F009F906900898133880B2059045
:104B60000798743080B204901122DDE9051306F035
:104B70008DFA7F4807F0F8F806900898133880B24D
:104B8000059007988A3080B204900D22DDE9051364
:104B900006F07CFA764807F0E7F806900898123895
:104BA00080B205900798743080B204901022DDE93D
:104BB000051306F06BFA6E4807F0D6F806900898D1
:104BC000123880B2059007988A3080B204900E2285
:104BD000DDE9051306F05AFA654807F0C5F80690B6
:104BE0000898113880B205900798743080B204900C
:104BF0000E22DDE9051306F049FA5D4807F0B4F826
:104C000006900898113880B2059007988A3080B2D3
:104C100004900E22DDE9051306F038FA544807F037
:104C2000A3F806900898103880B205900798743061
:104C300080B204900D22DDE9051306F027FA4C48F6
:104C400007F092F806900898103880B205900798FF
:104C50008A3080B204900E22DDE9051306F016FAC0
:104C6000434807F081F80690009008980C3880B20D
:104C700005900798803080B2049008980F3880B271
:104C800003900798733080B2029003A90EC906F012
:104C90001DF9374807F068F8069008980C3880B27C
:104CA00005900798733080B204900C22DDE905135B
:104CB00006F0ECF92E4807F057F806900090089897
:104CC000083880B2059007987F3080B20490089829
:104CD0000B3880B203900798723080B2029003A91B
:104CE0000EC906F0F3F8224807F03EF8069008983F
:104CF000083880B205900798723080B204900C2278
:104D0000DDE9051306F0C2F9194807F02DF8069001
:104D100000900898001F80B2059007987E3080B2FE
:104D200004900898C01F80B203900798713080B239
:104D3000029003A90EC906F0C9F80D4807F014F84F
:104D400006900898001F80B205900798703080B2D6
:104D500004900E22DDE9051306F098F9044807F0E7
:104D600003F806900090089880B20590079801E03B
:104D70002176EE007D3080B204900898C01E80B28B
:104D800003900798703080B2029003A90EC906F014
:104D90009DF8FE4806F0E8FF06900798703080B254
:104DA00005900C22069B089906F070F9F74806F06A
:104DB000DBFF0690009008980C3880B205900798A9
:104DC000983080B2049008980F3880B2039007980A
:104DD0008B3080B2029003A90EC906F077F8EB4839
:104DE00006F0C2FF0690009008980A3880B205903D
:104DF0000798993080B2049008980C3880B20390DC
:104E000007988B3080B2029003A90EC906F05EF8B5
:104E1000DE4806F0A9FF069000900898C01F80B2F7
:104E200005900798993080B2049008980A3880B2AB
:104E3000039007988C3080B2029003A90EC906F047
:104E400045F8D24806F090FF069000900898001FA1
:104E500080B2059007989A3080B204900898C01FDD
:104E600080B2039007988C3080B2029003A90EC9DB
:104E700006F02CF8C54806F077FF069000900898D9
:104E8000801E80B2059007989B3080B204900898ED
:104E9000001F80B2039007988C3080B2029003A963
:104EA0000EC906F013F8B94806F05EFF06900898A0
:104EB000801E80B2059007988D3080B204900E223B
:104EC000DDE9051306F0E2F8B04806F04DFF069064
:104ED0000898401E80B2059007988F3080B20490E9
:104EE0000C22DDE9051306F0D1F8A84806F03CFFD6
:104EF00006900798913080B205900A22069B089987
:104F000006F0C4F8A14806F02FFF0690089829384B
:104F100080B205900798AD3080B204902322DDE97D
:104F2000051306F0B3F8994806F01EFF069008989E
:104F3000283880B205900798AB3080B204902722C1
:104F4000DDE9051306F0A2F8904806F00DFF069083
:104F50000898273880B205900798A93080B204904D
:104F60002922DDE9051306F091F8884806F0FCFED9
:104F700006900898263880B205900798A83080B22D
:104F800004902B22DDE9051306F080F87F4806F037
:104F9000EBFE06900898253880B205900798A73058
:104FA00080B204900D22DDE9051306F06FF8774812
:104FB00006F0DAFE06900898253880B2059007982A
:104FC000C63080B204900D22DDE9051306F05EF8CC
:104FD0006E4806F0C9FE06900898243880B2059005
:104FE0000798A63080B204900D22DDE9051306F083
:104FF0004DF8664806F0B8FE06900898243880B24E
:1050000005900798C73080B204900D22DDE90513A2
:1050100006F03CF85D4806F0A7FE06900898233895
:1050200080B205900798A63080B204900C22DDE98A
:10503000051306F02BF8554806F096FE06900898E2
:10504000233880B205900798C63080B204900E22B3
:10505000DDE9051306F01AF84C4806F085FE0690C7
:105060000898223880B205900798A53080B2049045
:105070000D22DDE9051306F009F8444806F074FE38
:1050800006900898223880B205900798C63080B202
:1050900004900E22DDE9051305F0F8FF3B4806F009
:1050A00063FE06900898213880B205900798A530D5
:1050B00080B204900D22DDE9051305F0E7FF3348C7
:1050C00006F052FE06900898213880B205900798A5
:1050D000C63080B204900D22DDE9051305F0D6FF3D
:1050E0002A4806F041FE06900898203880B20590C4
:1050F0000798A53080B204900D22DDE9051305F074
:10510000C5FF224806F030FE06900898203880B28D
:1051100005900798C63080B204900D22DDE9051392
:1051200005F0B4FF194806F01FFE0690009008989D
:105130001D3880B205900798B23080B2049008986C
:105140001F3880B203900798A43080B2029003A960
:105150000EC905F0BBFE0D4806F006FE0690009055
:1051600008981D3880B205900798D33080B204901B
:1051700008981F3880B203900798C53080B202901B
:1051800003A90EC905F0A2FE004801E02176EE0059
:1051900006F0EAFD069008981D3880B20590079841
:1051A000A43080B204900D22DDE9051305F06EFFF6
:1051B000FE4806F0D9FD069008981D3880B205908B
:1051C0000798C53080B204900D22DDE9051305F083
:1051D0005DFFF64806F0C8FD0690009008981A3862
:1051E00080B205900798B13080B2049008981C38BE
:1051F00080B203900798A33080B2029003A90EC931
:1052000005F064FEE94806F0AFFD069000900898AE
:105210001A3880B205900798D23080B2049008986E
:105220001C3880B203900798C43080B2029003A962
:105230000EC905F04BFEDD4806F096FD0690089875
:105240001A3880B205900798A33080B204900D22DE
:10525000DDE9051305F01AFFD44806F085FD069038
:1052600008981A3880B205900798C43080B204902C
:105270000D22DDE9051305F009FFCC4806F074FDA9
:1052800006900898193880B205900798A23080B22D
:1052900004900E22DDE9051305F0F8FEC34806F080
:1052A00063FD06900898193880B205900798C430BD
:1052B00080B204900D22DDE9051305F0E7FEBB483E
:1052C00006F052FD06900898193880B205900798AC
:1052D000A23080B204900D22DDE9051305F0D6FE60
:1052E000B24806F041FD06900898193880B2059042
:1052F0000798C33080B204900E22DDE9051305F053
:10530000C5FEAA4806F030FD06900898183880B20D
:1053100005900798A23080B204900E22DDE90513B3
:1053200005F0B4FEA14806F01FFD06900898183855
:1053300080B205900798C33080B204900D22DDE959
:10534000051305F0A3FE994806F00EFD0690089897
:10535000173880B205900798A23080B204900D22D1
:10536000DDE9051305F092FE904806F0FDFC06907D
:105370000898173880B205900798C33080B204901F
:105380000D22DDE9051305F081FE884806F0ECFCEE
:1053900006900898163880B205900798A13080B220
:1053A00004900E22DDE9051305F070FE7F4806F03B
:1053B000DBFC06900898163880B205900798C2303A
:1053C00080B204900E22DDE9051305F05FFE7748F8
:1053D00006F0CAFC06900898153880B20590079828
:1053E000A13080B204900E22DDE9051305F04EFED7
:1053F0006E4806F0B9FC06900898153880B2059002
:105400000798C23080B204900E22DDE9051305F042
:105410003DFE664806F0A8FC06900898143880B255
:1054200005900798A13080B204900D22DDE90513A4
:1054300005F02CFE5D4806F097FC0690089814389D
:1054400080B205900798C23080B204900D22DDE949
:10545000051305F01BFE554806F086FC06900898DB
:10546000133880B205900798A03080B204900E22C5
:10547000DDE9051305F00AFE4C4806F075FC0690C0
:105480000898133880B205900798C23080B2049013
:105490000D22DDE9051305F0F9FD444806F064FC32
:1054A00006900898123880B205900798A03080B214
:1054B00004900E22DDE9051305F0E8FD3B4806F0F7
:1054C00053FC06900898123880B205900798C130B6
:1054D00080B204900E22DDE9051305F0D7FD3348B4
:1054E00006F042FC06900898113880B205900798A3
:1054F000A03080B204900D22DDE9051305F0C6FD51
:105500002A4806F031FC06900898113880B20590C0
:105510000798C13080B204900E22DDE9051305F032
:10552000B5FD224806F020FC06900898103880B29D
:10553000059007989F3080B204900E22DDE9051394
:1055400005F0A4FD194806F00FFC069008981038E5
:1055500080B205900798C13080B204900E22DDE938
:10556000051305F093FD114806F0FEFB0690089820
:105570000F3880B205900798A03080B204900D22B9
:10558000DDE9051305F082FD084806F0EDFB069005
:1055900008980F3880B205900798C13080B2049007
:1055A0000D22DDE9051305F071FD01E02176EE0025
:1055B000874806F0D9FB0690009008980A3880B218
:1055C00005900798AC3080B2049008980E3880B2ED
:1055D000039007989F3080B2029003A90EC905F08E
:1055E00075FC7B4806F0C0FB069008980E3880B228
:1055F00005900798C03080B204900E22DDE90513B3
:1056000005F044FD724806F0AFFB06900090089844
:105610000A3880B205900798CD3080B2049008987F
:105620000D3880B203900798C03080B2029003A971
:105630000EC905F04BFC664806F096FB06900090FC
:105640000898C01F80B205900798AB3080B20490D4
:1056500008980A3880B2039007989F3080B2029071
:1056600003A90EC905F032FC594806F07DFB0690EF
:1056700000900898083880B205900798CC3080B226
:10568000049008980A3880B203900798BF3080B21F
:10569000029003A90EC905F019FC4D4806F064FB01
:1056A00006900898083880B205900798BE3080B2FE
:1056B00004900D22DDE9051305F0E8FC444806F0EE
:1056C00053FB06900898C01F80B2059007989F3042
:1056D00080B204900E22DDE9051305F0D7FC3C48AA
:1056E00006F042FB06900898C01F80B2059007980C
:1056F000BC3080B204900E22DDE9051305F0C6FC33
:10570000334806F031FB06900898801F80B2059060
:1057100007989F3080B204902B22DDE9051305F035
:10572000B5FC2B4806F020FB06900898401F80B27D
:1057300005900798A03080B204902922DDE9051376
:1057400005F0A4FC224806F00FFB06900898001F05
:1057500080B205900798A13080B204902722DDE93D
:10576000051305F093FC1A4806F0FEFA0690089817
:10577000C01E80B205900798A23080B20490242207
:10578000DDE9051305F082FC114806F0EDFA0690FC
:105790000898801E80B205900798A33080B20490CC
:1057A0002222DDE9051305F071FC094806F0DCFA58
:1057B00006900898401E80B205900798A43080B2E9
:1057C00004902022DDE9051305F060FC09B000BD5E
:1057D0002176EE0072B600BFFEE7000010B500F0C3
:1057E0006FFD00BF34200349C86000BF00F006FD14
:1057F00010BD0000002002400021074AD161074986
:10580000096941F00401054A11611146096941F035
:10581000400111617047000048060020002002404E
:105820000021074AD1610749096941F00201054A8F
:10583000116111464861096941F0400111617047E9
:1058400048060020002002400022054BDA61054A8C
:10585000126942F00102034B1A6101807047000097
:10586000480600200020024000201E49C96801F0BF
:10587000100139B11C49C96941F002011A4AD161CC
:1058800040F010001749C96801F0040139B1164908
:10589000C96941F00101144AD16140F00400114985
:1058A000C96901F0010169B10F49C96941F00401F9
:1058B0000D4AD16100BF0B49C96921F00101094AB4
:1058C000D16100BF00BF40F20111884206D10549F5
:1058D000C96921F00101034AD16101E00149C860B1
:1058E00000BF7047002002404806002070B5044603
:1058F00000F0EAFE054609E0601C38B124B100F072
:10590000E3FE401BA04201D9032070BD1248C068CD
:1059100000F001000028EFD10F48C06800F020001F
:1059200020B100BF20200C49C86000BF0A48C068F1
:1059300000F0100048B90848C06900F0010020B923
:105940000548C06800F0040018B1FFF78DFF012082
:10595000DBE70020D9E700000020024070B50446D4
:10596000B3F5804F13D1D1E9000540EA05108D68E9
:1059700040EA05208D6928438D8940EA054054F8A6
:105980002250064E3540284344F8220003E06FF0D1
:10599000704044F82200002070BD00000000F0CFED
:1059A00070B50246086852F8200020F001000E6829
:1059B00042F826008868082801D1402300E000232F
:1059C000486818438E683043CE6830430E693043D0
:1059D0004E693043CE6930430E6A30434E6A3043DD
:1059E0008E6A3043CE6A30430E6B40EA0604886903
:1059F0000443486B0443074D45F4806545F4E025B6
:105A0000086852F82000A84320430E6842F8260098
:105A1000002070BD7FFB080010B50346D1E90004EB
:105A200040EA04108C6840EA04208C8940EA04446F
:105A3000088A401E44EA0054087D801E44EA006043
:105A40008C692043541C53F8244004F04044204304
:105A5000541C43F82400002010BD00001EB502466F
:105A600012A4D4E90030A468CDE90104009302290E
:105A700017D14FF4C87392FBF3F403FB142363B103
:105A8000D31702EB93739B10A2EB83033BB9642300
:105A900092FBF3F403FB14230BB11D201EBD1C204D
:105AA000FCE7481E1DF80000F8E700001F1C1F1E41
:105AB0001F1E1F1F1E1F1E1F13B500242FE09DF861
:105AC00003009DF8071088420CD19DF801009DF855
:105AD0000510884206D19DF806009DF80210401A74
