:020000040800F2
:1000000070250020450100088FCA0008CD9C00081B
:1000100071CA0008E5110008ED1801080000000091
:1000200000000000000000000000000065D3000890
:10003000A140000800000000D1CE000811D7000840
:100040005F0100085F0100085F01000819D0000887
:100050005F0100085F0100085F0100085F01000800
:100060005F0100085F0100085F0100085F010008F0
:100070005F0100085F0100085F0100085F010008E0
:100080005F0100085F0100085F0100085F010008D0
:10009000351801085F0100085F0100085F010008D2
:1000A0005F0100085F0100085F0100085F010008B0
:1000B000A9D700085F0100085F0100085F01000880
:1000C0005F0100085F0100085F0100085F01000890
:1000D0005F0100085F0100085F0100085F01000880
:1000E0005F0100085F0100085F0100085F01000870
:1000F0005F0100085F0100085F0100085F01000860
:100100005F0100085F0100085F0100085F0100084F
:100110005F0100085F0100085F0100085F0100083F
:100120005F0100085F0100085F0100085F0100082F
:10013000DFF80CD000F020FD00480047293F0108FF
:10014000702500200648804706480047FEE7FEE786
:10015000FEE7FEE7FEE7FEE7FEE7FEE7FEE7FEE777
:10016000A7D70008310100082DE9F05F05460020FF
:1001700092469B4688460646814640241BE0284618
:1001800041464746224600F020F853465A46C01AD8
:10019000914110D311461846224600F081FB2D1ADA
:1001A00067EB01084F4622460120002100F078FB52
:1001B00017EB00094E41201EA4F10104DFDC484684
:1001C00031462A464346BDE8F09F202A04DB203A08
:1001D00021FA02F00021704721FA02F3D040C2F167
:1001E0002002914008431946704740EA01039B07EB
:1001F00003D009E008C9121F08C0042AFAD203E09C
:1002000011F8013B00F8013B521EF9D27047D2B2FF
:1002100001E000F8012B491EFBD270470022F6E7EF
:1002200010B513460A4604461946FFF7F0FF20466C
:1002300010BD421E12F8013F002BFBD111F8013B0B
:1002400002F8013B002BF9D17047421C10F8011B4A
:100250000029FBD1801A704710B5002200E0521C23
:10026000835C8C5CA34201D1002BF8D1D8B2E1B2FF
:10027000401A10BD034611F8012B00F8012B002A8B
:10028000F9D11846704770B5064612F04FF8046869
:1002900005460A220021304600F072FB2C6070BD3A
:1002A000F0B480EA0102D40F4200B2EB410F02D257
:1002B0000246084611464A0042D0C30DDDB2C1F3E2
:1002C000C752AD1A202D35DAC1F3160141F40002F0
:1002D00004B15242C5F1200602FA06F12A41104447
:1002E000B3EBD05F23D0C4B1012DA0EBC35009DC28
:1002F000F0BC4FF0004202EAC352DBB200F500004E
:1003000000F07FBB400000F1807000EBC350A0F113
:10031000807040EAD170490009E0490841EAC071A3
:10032000A0EBC35000F50000400800EBC350F0BC48
:1003300000F05EBB6142012202EB4101001BF6E7C7
:10034000F0BC704781F00041AAE780F00040A7E7C9
:1003500080EA010210B502F00043400022D04A00BA
:100360001FD0010E01EB1261C0F35600C2F356021A
:1003700040F4000042F40002A0FB022000047F3998
:10038000140400D0401C50EA124001D44000491E21
:10039000C2B20C0604EBD010401C4008802A02D0E8
:1003A00003E0002010BD20F00100002900DA002049
:1003B000184310BD30B480EA010202F0004530F06D
:1003C000004221F0004013D090B1C30DD40DC2F310
:1003D0001601C0F31600E41A41F4000140F40002D3
:1003E0007D34914201D3641C00E04900002C02DA04
:1003F00030BC002070474FF400000023914201D32D
:10040000891A034340084FEA4101F7D151B19142A3
:1004100002D14FF0004105E002D24FF0010101E0AE
:100420006FF0010103EBC450284430BC00F0E0BA87
:100430002DE9FE4F804681EA0300C00F0C46009074
:1004400021F0004123F00045B8EB0200A94105D29C
:100450004046214690461C460B46024623F000408B
:10046000104347D0270DC7F30A00C3F30A51029087
:10047000401A019040286BDAC3F3130040F4801B4C
:100480000098924620B10023D2EB030A63EB0B0BDA
:1004900001985946C0F14002504600F001FA064664
:1004A0000D4650465946019A00F009FA10EB080033
:1004B0006141002487EA115284EAE7731A4340D06D
:1004C000009A62B3019A012A4FEA075215DC001B19
:1004D00061EB02014FF0004202EA0752CDE900420F
:1004E000001C41F5801132462B4600F0C7FA03B0DC
:1004F000BDE8F08F40462146F9E7001B61EB0201A1
:10050000001C41F5801300185B412018A2F500176C
:1005100047EB030140EAD570B6196D4111E06D0853
:100520004FEA360645EAC0754FEA0752001B61EBF9
:100530000201001C41F5801149084FEA3000001902
:10054000514132462B4603B0BDE8F04F00F087BA68
:100550000098012240000023D0EB020263EBE0731D
:10056000009821464FEAE074B8EB000061EB04010B
:10057000E9E783F000435BE781F0004158E72DE9AC
:10058000FE4F81EA030404F0004421F0004100948E
:100590004FF0000B23F0004350EA01045ED052EA12
:1005A00003045BD0C3F30A54C1F30A552C44A4F2EC
:1005B000F3340194A0FB0254C1F3130141F4801100
:1005C000C3F3130343F4801301FB024400FB034E07
:1005D000840A970A44EA815447EA8357A4FB0768D0
:1005E00002958D0A05FB07854FEA932C04FB0C54FA
:1005F0002705029D4FEA065847EA1637B5EB08056E
:100600006EEB070C870E920E47EA811742EA8312BF
:10061000A7FB0201B6EB0B0164EB00042B0D43EAD0
:100620000C335E1844EB1C50DA465146E7FB0201DE
:10063000C5F313044FEA0B3343EA14534FEA043271
:10064000019C43EA0603A4F10C040294009CCDE94A
:1006500000B400F013FA03B0BDE8F08F00200146AB
:10066000F9E72DE9F04D81EA030404F0004B21F095
:10067000004514464FF0000A23F0004150EA0502FD
:1006800020D054EA01021DD0C5F30A570246C5F333
:100690001303C1F31300C1F30A5640F4801543F469
:1006A0008013A7EB0608101BD64608F2FD3873EB43
:1006B000050002D308F1010801E092185B41B8F18E
:1006C000000F03DA00200146BDE8F08D00204FF452
:1006D0008011064684460EE0171B73EB050705D311
:1006E000121B63EB050306434CEA010C49084FEA71
:1006F000300092185B4150EA0107EDD152EA030045
:1007000012D082EA040083EA0501084305D0101BD9
:10071000AB4106D20122002306E000224FF0004345
:1007200002E06FF0010253101AEB06004CEB085187
:1007300010EB0A0041EB0B01BDE8F04D00F08FB962
:10074000C10F80EAE0700844CA079623002100F038
:1007500058B996230022114600F053B90EB5C10FC7
:1007600080EAE0700844CA07002140F233438DE874
:100770000E000A460B4600F081F903B000BD00F000
:10078000004220F00040C10DC0F3160040F400000C
:100790007F2901DA00207047962903DCC1F1960118
:1007A000C84001E096398840002AF4D040427047A2
:1007B00020F00040C10DC0F3160040F400007F2976
:1007C00001DA00207047962903DCC1F19601C84088
:1007D000704796398840704770B5C1F30A5201F0EE
:1007E00000450024C1F3130140F2FF3341F48011AE
:1007F0009A4201DA002070BD40F233439A42A2F2DD
:10080000334203DC5242FFF7E0FC00E090402C430F
:10081000F1D0404270BD00F0004230F000400AD0FC
:10082000C10D01F56071C0F3160042EA0151C20822
:1008300040071143704700200146704701F0004314
:1008400030B421F0004150EA010206D00A0DA2F5B1
:100850006072C1F31301002A02DC30BC0020704733
:10086000440F44EAC104C100E01830BC00EBC250A0
:1008700000F0BEB830B50B4601460020202201240E
:1008800009E021FA02F59D4205D303FA02F5491B5E
:1008900004FA02F52844151EA2F10102F1DC30BD74
:1008A000202A04DB203A00FA02F100207047914030
:1008B000C2F1200320FA03F3194390407047202A25
:1008C00006DBCB17203A41FA02F043EAE07306E078
:1008D00041FA02F3D040C2F1200291400843194688
:1008E000704700000FB4002300B589B00CA9009137
:1008F0000B996FF00042CB601E4B06931E4B079383
:100900000423CDE901321D4A089202466B460020BD
:1009100000F0D2F909B05DF814FB70B586B0064658
:100920004FF0FF300091CDE90101002015460C4643
:1009300004903246694604A8FFF7D4FF02460498A3
:10094000211825B108B1084600E020462860049827
:1009500000280DD0002A02DD0098884208D0081B2C
:100960000094CDE901043246694604A8FFF7BAFFB6
:1009700006B070BDF10E00080F0F0008A50B0008AF
:100980002DE9F04791460F4680460446002614F8AC
:10099000015B2DB100F002F90068405DC007F6D19F
:1009A0002B2D02D02D2D18D0641E4A4639462046E4
:1009B00000F0BEFA27B13968A14201D1C7F8008022
:1009C00071054FF002040BD54042002803DD11F001
:1009D000ADFC0460A007BDE8F08746F48066E4E75C
:1009E0000028F8DA11F0A2FC04606FF00040F2E792
:1009F0000029A8BF7047401C490008BF20F0010033
:100A0000704710B4B0FA80FC00FA0CF050EA010410
:100A100004BF10BC704749B1CCF1200421FA04F4A2
:100A200011FA0CF118BF012121430843A3EB0C017B
:100A3000CB1D4FEA00614FEA102042BF002010BCDE
:100A4000704700EBC35010440029A4BF10BC70478E
:100A5000401C490008BF20F0010010BC704710B5D1
:100A6000141E73F1000408DA401C41F100019218D1
:100A70005B411A4301D120F0010010BD2DE9F04D7A
:100A800092469B4611B1B1FA81F202E0B0FA80F2CF
:100A900020329046FFF704FF04460F4640EA0A0062
:100AA00041EA0B0153465A46084313D0114653EA14
:100AB000010019D0C8F140025046FFF786FB0546F9
:100AC0000E46504659464246FFF7EAFE084305D017
:100AD000012004E020463946BDE8F08D00200543A2
:100AE00046EAE0762C4337430A986305E40AA0EB14
:100AF00008000022FD0A44EA47540A3002D50020CB
:100B00000146E9E7010510196941DDE908450019C9
:100B10006941BDE8F04DA2E7C1F30A52C1F31301E8
:100B200040F2FF3341F480119A4202DA002001467C
:100B3000704740F233439A42A2F2334202DC5242FF
:100B4000FFF743BBFFF7ACBE30B5041E71F10004E4
:100B500004DB4FF00044404264EB0101141E73F1CA
:100B6000000405DB1C464FF00043524263EB0403D4
:100B7000994208BF904230BD064C074D06E0E06840
:100B800040F0010394E8070098471034AC42F6D3D4
:100B9000FFF7D2FA3871020858710208004870470E
:100BA0003471020810B50446FFF7F8FF0068005DD5
:100BB00000F0010010BD00002DE9FF4F087881B062
:100BC0009946FF2805D0491C2D2804D00024002375
:100BD00008E000230BE00124F9E703EB830300EBBB
:100BE0004303491C0878FF28F7D104B15B42002079
:100BF0000090147801462D2C01D02B2C04D1521CCE
:100C00002D2C12D00024009400251678FF2E0ED033
:100C10000A24A0FB04C801FB0481002700FB071184
:100C2000521C16EB0C006941EFE70124EBE79944F5
:100C300050EA01020ED00024AA4D2646DFF8A88211
:100C400000F0D3F982468B46B9F1000009DAC9F108
:100C500000071BE001980021C0E9001105B0BDE8C4
:100C6000F08F074612E0F80707D022462B463046A1
:100C70004146FFF784FC0646884622462B4610462E
:100C80001946FFF77CFC04460D467F10002FEAD181
:100C9000B9F1000F324643465046594602DAFFF793
:100CA000E0FC01E0FFF76BFC009A0AB181F0004123
:100CB000019AC2E90001D1E72DE9FF4F1F468DB02F
:100CC000D7E901464FF0FF382E2045464FF0000986
:100CD0000B90B9696D1C0E988847396A824688471F
:100CE0000028F6D1BAF1FF3F0AD024F4D064002ED8
:100CF00011DDBAF12B0F08D0BAF12D0F0BD102E0A4
:100D0000404611B0ABE744F48064B9696D1C0E989D
:100D100088478246761E6946600501D52D2000E091
:100D20002B208DF8000001F1010B0DF1200809E0E6
:100D3000B9696D1C0E98884782460F9844F4007478
:100D4000761E0560002E02DDBAF1300FF0D00B994F
:100D50008A453ED144F0800406E00F99681CA9F151
:100D6000010944F400740860B9696D1C761E0E9880
:100D7000884782463028F0D02BE00B998A4505D170
:100D8000200603D444F08004761E18E0504611F08B
:100D9000A5FC08B30DF11301761E44F400748B45D5
:100DA00008D2AAF130000BF8010B200607D5A9F1F3
:100DB000010003E0200602D409F101008146A005EC
:100DC00002D50F99681C0860B9696D1C0E98884798
:100DD0008246002ED1DC53E0002E51DDBAF1650FC2
:100DE00002D0BAF1450F4BD1A00549D5B9696D1CA8
:100DF00024F44074761E0E9888478246002E0CDD3F
:100E00002B2804D0BAF12D0F07D144F48074B969AE
:100E10006D1C0E9888478246761EE00501D52D216F
:100E200000E02B2108F8011BCDF82C8021E00DF10A
:100E30002901761E44F4007488450CD2AAF13000D2
:100E400010F0FF0088F8000002D10B99884509D9FD
:100E500008F1010806E0E00501D5244801E042F26E
:100E60000F708146B9696D1C0E98884782460F98AD
:100E70000560002E04DD504611F030FC0028D6D16C
:100E8000F9690E988847FF208BF8000088F8000069
:100E90000020069007904B466A4608A906A8FFF76F
:100EA0008BFEA00502D46FF001002AE714F0240F96
:100EB0000AD0E00714D1DDE906123868031D3B6053
:100EC0000068C0E900120BE0DDE90601FFF7B6FC9F
:100ED0000146E00704D13868021D3A6000680160ED
:100EE00028460EE7000024400000F03FF1D8FFFF45
:100EF000426842B1016811F8013B23B1521EC0E9BA
:100F00000012184670470121C160881E7047426870
:100F10005AB1C368016843B983688B4205D0491E42
:100F2000521CC0E90012002070474FF0FF3070479C
:100F30002DE9F05F82460078002715468B460AF1BE
:100F40000104B946302801D09DB113E014F8010B1B
:100F50000127782803D0582801D045B10AE00DB107
:100F6000102D07D10027102514F8010B02E00825E9
:100F700000E00A250026B0460EE005FB080005FB50
:100F800006F1012701EB10461FFA80F8B6F5803F05
:100F900000D3B94614F8010B294600F018F80028D0
:100FA000EBDABBF1000F05D00FB1641E00E0544630
:100FB000CBF80040B9F1000F06D011F0B7F90221CB
:100FC0000160C81EBDE8F09F48EA0640FAE73A28EB
:100FD00000D2303820F02002412A01D3A2F137009C
:100FE000884201D34FF0FF3070470EB540F23342D4
:100FF00002920022CDE900221346FFF73FFD03B025
:1010000000BD70B58C1810F8015B15F0070301D115
:1010100010F8013B2A1106D110F8012B03E010F85B
:10102000016B01F8016B5B1EF9D12B0705D400237E
:10103000521E0DD401F8013BFAE710F8013BCB1A20
:10104000921C03E013F8015B01F8015B521EF9D515
:10105000A142D8D3002070BD70B504460025206899
:10106000806800F0010018B32068806820F001005B
:101070002168886006F002F9054613E006F0FEF8E4
:10108000401B02280ED92068806800F0010048B19A
:10109000A06A40F01000A062E06A40F00100E06247
:1010A000012070BD2068806800F001000028E5D1B3
:1010B0000020F6E738B5044600250020009020689F
:1010C000806800F0010078BB2068806840F0010073
:1010D00021688860194800681949B0FBF1F0009058
:1010E00002E00098401E009000980028F9D106F018
:1010F000C5F8054619E006F0C1F8401B022814D9CE
:101100002068806800F0010078B9A06A40F0100003
:10111000A062E06A40F00100E06200BF002084F8B5
:10112000240000BF012038BD05E02068806800F081
:1011300001000028DFD00020F5E700003401002086
:1011400040420F0010B500224FF48051014806F0D4
:101150008FF810BD000C014010B5012211030248A8
:1011600006F086F810BD0000000C014010B5012209
:10117000D102064806F07CF80A2012F0E5FC0022B5
:101180004FF40061014806F073F810BD000C0140F7
:101190001248407D05281DD2DFE800F003080D123B
:1011A000170032200E490968486314E03C200C49BE
:1011B000096848630FE046200949096848630AE066
:1011C000502007490968486305E06320044909681D
:1011D000486300E000BF00BF7047000064050020C6
:1011E000D404002000BFFEE710B50122042102480C
:1011F00006F03EF810BD00000010014010B50022BE
:101200000421024806F034F810BD0000001001402F
:1012100010B501220221024806F02AF810BD000094
:101220000010014010B500220221024806F020F80B
:1012300010BD00000010014010B50446392013F025
:101240008BFAE0B213F099FAC4F3072013F095FA81
:10125000C4F3074013F091FA200E13F08EFA13F046
:101260006DFA11F021F810BD2DE9F04107460E4648
:1012700014463C2013F070FAF0B213F07EFA3012EC
:1012800013F07BFA13F05AFA0CB10020208016E01C
:1012900011F00AF805461E2D0ED1384600F06CF903
:1012A00005463D2013F058FA13F048FA2F4434B1A4
:1012B00020882844208002E02846BDE8F081E7E746
:1012C00010B50BF007FE08B100F082F8302000F0F6
:1012D000E4F810BD10B5312000F0DFF810BD10B5F6
:1012E00004462146362000F0CAF810BD10B5044669
:1012F00014B1204600F0F2F8342000F0CEF810BD12
:1013000070B50646304600F0D2F8054685B129464C
:10131000304600F024F80446412C09D0142C01D1A9
:10132000432070BD422C01D1B320FAE72046F8E7F4
:101330007019FFF7DBFFF4E710B50446204600F014
:10134000CDF820785C2802D020782F2803D1002106
:10135000642000F028F9322000F09FF810BD2DE93C
:10136000F04105460F460026012429E001E0601CFB
:10137000C4B2285D5C2805D0285D2F2802D0285DE6
:101380000028F4D1285D10B1601CC4B200E0002434
:10139000A819FFF7D1FF064684B1BC420ED0412EFA
:1013A0000AD0142E02D14320BDE8F081422E01D193
:1013B000B320F9E73046F7E7264601E03046F3E789
:1013C000D4E710B50446FF212046FFF7C8FF10BD43
:1013D00010B5222013F0C0F9322012F0D3FB13F025
:1013E000B1F9044613F0AAF9204610BD2DE9F041E9
:1013F00013F0A8F9044613F0A5F9054613F0A2F975
:10140000064613F09FF9074613F098F944EA0520C1
:1014100040EA064040EA0760BDE8F08170B5044646
:10142000272013F099F913F08DF90646054646B1C9
:1014300000BF13F087F92070641C701EC0B2061E36
:10144000F7D113F07BF9284670BD10B504460C2087
:1014500013F082F9204613F090F9FFF7C7FF10BD93
:1014600070B504460A2013F077F9204613F085F989
:1014700013F068F9054613F061F9284670BD70B5A0
:1014800005460C46284613F067F9204613F075F917
:1014900013F054F910F008FF70BD10B50446204653
:1014A00013F05AF913F04AF910F0FEFE10BD02468F
:1014B000114600E0491C08780028FBD100E0491ED5
:1014C00008785C2804D008782F2801D09142F6D102
:1014D000914200D0491C881AC0B270472DE9F041F2
:1014E0000646012013F038F913F02CF943282BDAC3
:1014F0002B20FFF7B5FF102826DA2F2013F02CF948
:10150000002013F03AF93220FFF7C7FF0446142CED
:101510001AD1CF20FFF7A4FF0446ACB14C20FFF74F
:1015200094FF00EB042739464C2000F03CF8502093
:10153000FFF78BFF00EB04273946502000F033F80B
:101540000021702000F02FF82F2013F005F93578D6
:10155000284613F012F909E0761C35785C2D01D08D
:101560002F2D00D10025284613F007F9002DF3D1C7
:1015700013F0E4F8BDE8F08170B504462D2013F0B7
:10158000EBF813F0DFF80646054646B100BF2078B9
:1015900013F0F3F8641C701EC0B2061EF7D113F0EE
:1015A000CDF8284670BD70B505460C460D2013F0E9
:1015B000D3F8284613F0E1F8E0B213F0DEF8C4F3F4
:1015C000072013F0DAF8C4F3074013F0D6F8200E22
:1015D00013F0D3F813F0B2F870BD000010B500227C
:1015E0001021024805F044FE10BD00000008014033
:1015F00010B501221021024805F03AFE10BD00008E
:101600000008014010B501228021024805F030FE9B
:1016100010BD0000000C014010B5002280210248DE
:1016200005F026FE10BD0000000C014010B501229F
:101630004021024805F01CFE10BD000000140140CE
:1016400010B500224021024805F012FE10BD000036
:101650000014014010B501225103024805F008FEB4
:1016600010BD00000014014010B500224FF40051DD
:10167000014805F0FDFD10BD0014014010B5012228
:101680001103024805F0F4FD10BD000000140140F4
:1016900010B500224FF48051014805F0E9FD10BD5E
:1016A0000014014010B501221146024805F0E0FD8A
:1016B00010BD0000000C014010B5002201210248BD
:1016C00005F0D6FD10BD0000000C014010B5012250
:1016D0002021024805F0CCFD10BD000000100140A3
:1016E00010B500222021024805F0C2FD10BD000007
:1016F00000100140F0B504460D46FF22FF210023F3
:1017000019E0E05C4140002711E001F0010602F021
:10171000010C52104910BCF1000F01D041F08001C2
:101720001EB182F0A00281F00101781CC7B2082F1F
:10173000EBDB581CC3B2AB42E3DB41EA0220F0BD55
:1017400000207047002070472DE9F04106460F4603
:1017500001210C480EF0F5F80B4908700948D0F843
:10176000B852002403E0285D08490855641C064867
:1017700000788442F7DB0120054908700020BDE8AD
:10178000F0810000E418002024020020E81B002063
:101790002502002033B50C4600252DE09DF80110F0
:1017A0009DF8030004F034FF05469DF80200204434
:1017B000A8421AD99DF80200281A241A9DF801009F
:1017C000401CC0B28DF8010000208DF802009DF889
:1017D00001000D2810D101208DF801009DF80300B3
:1017E000401CC0B28DF8030006E09DF802002044C2
:1017F000C0B28DF8020000E0D0E700BF0720B4FBC4
:10180000F0F100FB1140094909780844C0B28DF895
:1018100000009DF80000072805DB9DF80000C01FB0
:10182000C0B28DF8000000983CBD00000801002007
:1018300038B517480078012829DD6FF07F400BF09C
:101840006BFB044600200BF067FB05461048009434
:101850000078801E692202EBC00081B22B469122E3
:101860000CA00AF0F5FD0A480078401E08490870EF
:10187000002107480078401E074A115404480078A8
:1018800006490978884202D100200449087038BD11
:101890005201002020000000EC060020530100202F
:1018A00038B5044600200BF037FB054614231A0117
:1018B000022100904FF49B700AF0D6FB4FF46E406B
:1018C0000BF02AFB0546052340F23D120221009051
:1018D000101F0AF0C9FB4FF46E400BF01DFB0546CC
:1018E00014231A01052100904FF49B700AF024FD87
:1018F0004FF46E400BF010FB0546132340F23F12ED
:101900000621009040F237100AF0AEFB192C0DDAD8
:1019100000200BF001FB05460F2340F23F12062189
:10192000009040F237100AF09FFB24E0192C0FDBE7
:10193000322C0DDA00200BF0EFFA05460C2340F2B2
:101940003F120621009040F237100AF08DFB12E0A2
:10195000322C0FDB4B2C0DDA00200BF0DDFA0546A4
:10196000092340F23F120621009040F237100AF09E
:101970007BFB00E000BF38BD38B50020254908706A
:101980000BF0CAFA04460AF057FB042002F01AF9D9
:1019900000200BF0C1FA04466FF07F400BF0BCFA58
:1019A00005462B461E22C8211B4800940AF050FD14
:1019B00000200BF0B1FA04466FF07F400BF0ACFA58
:1019C00005462B461E22FA211348801D00940AF07A
:1019D0003FFD00200BF0A0FA044610480BF09CFAE3
:1019E00005462B461E22C8210B480C3000940AF0F5
:1019F0002FFD00200BF090FA044608480BF08CFAFB
:101A000005462B463422C8210348123000940AF0C0
:101A10001FFD38BD45010020164F010832F0F000CF
:101A2000F8B5044600200BF077FA05464FF47F0026
:101A30000BF072FA0646601E00EB400101EBC0009D
:101A40001E2101EB400082B233468C2102480095F2
:101A50000AF0FEFCF8BD0000374D010838B5002043
:101A60000BF05AFA044614231A01022100904FF495
:101A70009B700AF0F9FA4FF46E400BF04DFA0446F1
:101A800023460522022140F239100AF0A7FC4FF448
:101A90006E400BF041FA044623460522022140F233
:101AA0003D100AF09BFC4FF46E400BF035FA0446F3
:101AB00023460B2207214FF49B700AF0B5FB4FF42D
:101AC0006E400BF029FA04460F234FF49F72082151
:101AD0000090901F0AF0C8FA4FF46E400BF01CFA09
:101AE000044623460522102140F239100AF09CFBDF
:101AF0004FF46E400BF010FA0446234603221121E6
:101B00004FF49D700AF090FB4FF46E400BF004FA16
:101B1000044623460422112140F23B100AF05EFCE9
:101B200038BD00002DE9FC41614890F840000028D4
:101B300045D1002440E0621C5EA101A810F0C6FB64
:101B4000204604EBD0714910A4EB4101C9B100203B
:101B50000BF0E2F9064659480BF0DEF9074604EBB4
:101B6000D470401000EB400101EB00102A2101EB82
:101B7000400082B23B46A82101A800960AF068FC0A
:101B800018E000200BF0C8F906464C480BF0C4F9E9
:101B9000074604EBD470401000EB400101EB00104D
:101BA0002A2101EB400082B23B46082101A80096A1
:101BB0000AF04EFC601CC4B2082CBCDB76E03C484A
:101BC00090F84000012845D1002440E0621C39A172
:101BD00001A810F07BFB204604EBD0714910A4EB68
:101BE0004101C9B100200BF097F9064633480BF0CC
:101BF00093F9074604EBD470401000EB400101EB71
:101C000000103D2101EB800082B23B46A82101A8D3
:101C100000960AF01DFC18E000200BF07DF9064646
:101C200026480BF079F9074604EBD470401000EB1E
:101C3000400101EB00103D2101EB800082B23B46E8
:101C4000082101A800960AF003FC601CC4B2042C11
:101C5000BCDB2BE0002427E0621C16A101A810F0D9
:101C600035FB012C0FD100200BF056F90546134827
:101C70000BF052F9064633465022A82101A80095E0
:101C80000AF0E6FB0EE000200BF046F905460B4893
:101C90000BF042F9064633465022082101A8009570
:101CA0000AF0D6FB601CC4B2022CD5DBBDE8FC8177
:101CB00064050020253032643A00000032F0F00064
:101CC00038B50C49B1F9000000230522012107F0C5
:101CD000FFFF00200BF020F904464FF46E400BF09C
:101CE0001BF905462B4602226421034800940AF0A2
:101CF000AFFB38BD9A010020E006002038B54FF454
:101D00006E400BF009F90446122340F20F1208212D
:101D10000090501E0AF0A8F94FF46E400BF0FCF84A
:101D200004462346062207214FF486700AF07CFA07
:101D30004FF46E400BF0F0F80446234604220621CF
:101D400040F20D100AF070FA4FF46E400BF0E4F818
:101D500004462346022205214FF487700AF064FAF4
:101D60004FF46E400BF0D8F804460F234FF48A72FC
:101D700005210090501E0AF077F94FF46E400BF0E9
:101D8000CBF8044623460622102140F211100AF037
:101D90004BFA4FF46E400BF0BFF804462346042282
:101DA00011214FF489700AF03FFA4FF46E400BF0A6
:101DB000B3F8044623460222122140F213100AF01F
:101DC00033FA38BD7CB50120854908708549087013
:101DD0006FF07F400BF0A0F80546F0234FF4A0729F
:101DE0008221009000200AF03FF96FF07F400BF055
:101DF00093F8054600200BF08FF806467A490095C7
:101E0000097DC1EB0111794A02EB41003346912271
:101E10003C210AF01DFB00200BF07EF80546A323B1
:101E2000C8228F21009064200AF086FA43F2FF3026
:101E30000BF072F805461A233C228C210090FF20FB
:101E400001F068FF43F2FF300BF066F805466FF0D3
:101E50007F400BF061F8064663490095097DC1EBB0
:101E60000111624A02EB4101881D334691224FF471
:101E70008C710AF0EDFA43F2FF300BF04DF8054695
:101E80001A233E22D2210090052001F043FF43F2A5
:101E9000FF300BF041F805466FF07F400BF03CF847
:101EA000064651490095097DC1EB01114F4A02EBED
:101EB000410101F10C003346D72214210AF0C8FA7F
:101EC00043F2FF300BF028F805461A233E22D221B8
:101ED0000090E12001F01EFF43F2FF300BF01CF8F0
:101EE00005466FF07F400BF017F806463E49009517
:101EF000097DC1EB01113D4A02EB410101F11200E4
:101F00003346D722F0210AF0A3FA00200BF004F8A0
:101F10000546CA2340F23912AA21009007200AF090
:101F2000A3F800242BE0621C31A101A810F0CEF927
:101F30004FF47F000AF0F0FF054604EB041107227E
:101F4000009002EB41001F231A46AA2101F0E2FE95
:101F50004FF47F000AF0E0FF05466FF07F400AF083
:101F6000DBFF064604EB0410132202EB400133466C
:101F7000B12201A800950AF06BFA601CC4B2092CCA
:101F8000D1DB002428E043F2FF300AF0C5FF05460C
:101F900004EB04115722009002EB41001F231A4664
:101FA000CC2101F0B7FE43F2FF300AF0B5FF054641
:101FB0006FF07F400AF0B0FF064604EB0412632383
:101FC00003EB42010B4A02EB44003346D322009557
:101FD0000AF03EFA601CC4B2032CD4DB7CBD0000C6
:101FE000510100205201002064050020F05001083A
:101FF000256400002C51010831B582B01A480078E0
:102000000A2830DA1948007818B19DF808002E28FF
:1020100029D002A91648FEF70CF96FF07F400AF0AC
:102020007BFF044600200AF077FF05460E48009427
:102030000078401E692202EBC00081B22B4691223B
:1020400002A80AF005FA0948007838B99DF8080096
:102050002E2803D10448007804490870024800780B
:10206000401C014908703EBD520100205301002070
:10207000EC06002010B500201449087014490870BF
:102080001449087014480078012806D0022807D0A7
:10209000032808D004280CD108E001F055FC09E021
:1020A00000F006FD06E000F06DFD03E0FFF764FCC4
:1020B00000E000BF00BF0848007808F06BFB07484D
:1020C00001780548007800F00BF810BD520100209F
:1020D000510100205301002046010020450100204D
:1020E00003B587B00798012806D0022805D0032839
:1020F0007ED004287DD1E7E2B4E3FE4800780128D1
:1021000017D1FD480AF008FF039000200AF004FFF1
:10211000029003980090F9488078401E00EB800000
:10212000F749084401901E225021029B0AF090F9C1
:1021300016E000200AF0F0FE0390EF480AF0ECFEF3
:10214000029003980090ED488078401E00EB8000DC
:10215000EB49084401901E225021029B0AF078F9B5
:10216000E448007802281BD1E3480AF0D5FE03902A
:1021700000200AF0D1FE029003980090DF48007D15
:1021800000EB8000DF4901EBC000DC49C97A00EBBD
:10219000C100019034225021029B0AF059F91AE043
:1021A00000200AF0B9FE0390D3480AF0B5FE029071
:1021B00003980090D148007D00EB8000D14901EBED
:1021C000C000CE49C97A00EBC100019034225021F1
:1021D000029B0AF03DF9C948B0F90D000023052221
:1021E0000121039007F074FDC2480078032801E044
:1021F0001FE136E310D1C0480AF08EFE03900020A4
:102200000AF08AFE0290039800904A225021BE48AC
:10221000029B0AF01DF90FE000200AF07DFE0390FA
:10222000B5480AF079FE0290039800904A225021A6
:10223000B548029B0AF00CF9B048B0F90F00002332
:1022400005220121039007F043FDAA4800780428E5
:1022500010D1A9480AF060FE039000200AF05CFE4D
:1022600002900398009060225021A748029B0AF038
:10227000EFF80FE000200AF04FFE03909E480AF0AE
:102280004BFE029003980090602250219E48029BD2
:102290000AF0DEF897480078052816D196480AF02B
:1022A0003BFE039000200AF037FE02900398009056
:1022B0009248807A00EB40009449084401901E2225
:1022C000F021029B0AF0C4F815E000200AF024FE79
:1022D000039089480AF020FE0290039800908748F6
:1022E000807A00EB40008949084401901E22F021C9
:1022F000029B0AF0ADF87F48007806281DD17E4881
:102300000AF00AFE039000200AF006FE02900398ED
:1023100000907A48007D00EBC00101EB00107C4981
:1023200008447649097B01EB81010844019034227D
:10233000F021029B0AF08CF81CE000200AF0ECFD72
:1023400003906D480AF0E8FD0290039800906B48F6
:10235000007D00EBC00101EB00106D4908446749A6
:10236000097B01EB8101084401903422F021029B9A
:102370000AF06EF85F480078072816D15E480AF028
:10238000CBFD039000200AF0C7FD02900398009057
:102390005A48407C00EB80005E49084401904A2284
:1023A000F021029B0AF054F815E000200AF0B4FD79
:1023B000039051480AF0B0FD0290039800904F48F6
:1023C000407C00EB80005349084401904A22F021F0
:1023D000029B0AF03DF84948408A02464EA103900C
:1023E00004A80FF073FF43480078082810D1424832
:1023F0000AF092FD039000200AF08EFD02900398EF
:1024000000906022F02104A8029B0AF021F80FE05E
:1024100000200AF081FD039037480AF07DFD02900C
:10242000039800906022F02104A8029B0AF010F8A3
:1024300018E230480078012817D12F480AF06CFDC7
:10244000039000200AF068FD0290039800902B484A
:10245000007D00EB8000324901EB400001908222B8
:102460005021029B09F0F4FF16E000200AF054FD11
:10247000039021480AF050FD0290039800901F48F5
:10248000007D00EB8000264901EB40000190822294
:102490005021029B09F0DCFF16480078022817D172
:1024A00015480AF039FD039000200AF035FD02902E
:1024B000039800901148407D00EB8000194901EB22
:1024C0004000019094225021029B09F0C1FF31E0AD
:1024D00000200AF021FD039007480AF01DFD02903C
:1024E000039800900548407D00EB80000D4901EB0A
:1024F000400019E04501002032F0F00064050020A2
:102500006D4D0108C24D0108E0060020954D0108FF
:10251000124E0108804E010825303464000000008E
:102520002E4F0108604F0108019094225021029B18
:1025300009F08EFFCE48007803281FD1CD480AF05D
:10254000EBFC039000200AF0E7FC02900398009057
:10255000C948007D00EBC00101EB0010C74901EB49
:102560004000C549897D01EB810100EB41000190EC
:10257000A6225021029B09F06BFF1EE000200AF00A
:10258000CBFC0390BB480AF0C7FC02900398009074
:10259000B948007D00EBC00101EB0010B74901EB29
:1025A0004000B549897D01EB810100EB41000190BC
:1025B000A6225021029B09F04BFFAD480078042869
:1025C0001FD1AC480AF0A8FC039000200AF0A4FC3C
:1025D000029003980090A848007D00EBC00101EB39
:1025E0000010A64901EB4000A349097E01EB8101DF
:1025F00000EB41000190B8225021029B09F028FF16
:102600001EE000200AF088FC03909A480AF084FC3F
:102610000290039800909848007D00EBC00101EB08
:102620000010964901EB40009349097E01EB8101BE
:1026300000EB41000190B8225021029B09F008FFF5
:102640008B48007807281FD18A480AF065FC039060
:1026500000200AF061FC0290039800908648007DFB
:1026600000EBC00101EB0010854901EB40008249FD
:10267000497E01EB810100EB41000190A622F0218F
:10268000029B09F0E5FE1EE000200AF045FC0390E5
:1026900078480AF041FC0290039800907648007D4B
:1026A00000EBC00101EB0010754901EB40007249DD
:1026B000497E01EB810100EB41000190A622F0214F
:1026C000029B09F0C5FECDE06E480068002305229C
:1026D0001946039007F0FCFA00200AF01DFC039055
:1026E0004FF46E400AF018FC0290039800901E22EE
:1026F000FA216548029B09F0ABFE6248406800235E
:1027000004221946039007F0E3FA00200AF004FCC3
:1027100003904FF46E400AF0FFFB02900398009084
:102720003422FA215848029B09F092FE5048007862
:10273000012810D14F480AF0EFFB039000200AF067
:10274000EBFB0290039800901E2250214F48029B01
:1027500009F07EFE0FE000200AF0DEFB0390454802
:102760000AF0DAFB0290039800901E22502147489D
:10277000029B09F06DFE3E480078022811D13D48C9
:102780000AF0CAFB039000200AF0C6FB02900398EF
:102790000090342250213D480F30029B09F058FE32
:1027A00010E000200AF0B8FB039032480AF0B4FBB6
:1027B0000290039800903422502134480F30029B3D
:1027C00009F046FE2A480078032811D129480AF06A
:1027D000A3FB039000200AF09FFB02900398009057
:1027E0004A22502129481E30029B09F031FE10E098
:1027F00000200AF091FB03901E480AF08DFB029026
:10280000039800904A22502120481E30029B09F074
:102810001FFE17480078042811D116480AF07CFBE7
:10282000039000200AF078FB029003980090602249
:10283000502116482D30029B09F00AFE10E00020BE
:102840000AF06AFB03900B480AF066FB02900398BB
:102850000090602250210D482D30029B09F0F8FDB8
:1028600000E000BF00BF079807F094FF09B000BD6B
:102870004501002032F0F00064050020924F01086D
:102880005A50010810000020E0060020FB4C01080F
:10289000F8B500200AF040FB054609F0CDFB5C4886
:1028A00090F8410018B99621322001F011FC4FF444
:1028B000487011F049F900200AF02EFB054609F096
:1028C000BBFB534890F8400078BB00242AE0002C62
:1028D00007DD092C05DA4E4A9178621ED0B207F066
:1028E00091FC00200AF018FB05466FF07F400AF0CB
:1028F00013FB06464649009591F8411001EB810112
:10290000444B03EB811101EB441004EBC40149007B
:102910008A1C3346022109F09BFDC82001F0C1FB4F
:10292000601CC4B20A2CD2DB70E0FFE7384890F894
:102930004000012835D100242EE0002C09DD052CB3
:1029400007DA334A9178621E5206100E07F05AFCDD
:1029500001E011F0FFF900200AF0DEFA05466FF001
:102960007F400AF0D9FA06462949009591F84110AE
:1029700001EB4101284B03EB811101EB441004EB07
:10298000C40149008A1C3346022109F061FDC820B8
:1029900001F087FB601CC4B2062CCEDB11F0DAF923
:1029A00034E000242EE0002C09DD052C07DA184A5B
:1029B0009178621E5206100E07F024FC01E011F01F
:1029C000C9F900200AF0A8FA05466FF07F400AF026
:1029D000A3FA06460E49009591F8411001EB41011A
:1029E0000E4B03EB811101EB441004EBC4014900D1
:1029F0008A1C3346022109F02BFDC82001F051FB4F
:102A0000601CC4B2042CCEDB11F0A4F9F8BD0000A8
:102A1000640500204B510108CB5301084B550108B8
:102A200038B54DF6DC400AF077FA044612234FF42D
:102A3000947209210090901F09F016FB4DF6DC40BE
:102A40000AF06AFA044623460622082140F22310BF
:102A500009F0EAFB4DF6DC400AF05EFA0446234634
:102A6000052207214FF4927009F0DEFB00200AF0E6
:102A700053FA044623460222092140F2231009F0AA
:102A8000ADFC00200AF048FA044623460322082140
:102A900040F2251009F0A2FC00200AF03DFA04469D
:102AA00023460322082140F2271009F097FC38BD85
:102AB000F8B50020304908700AF02EFA054609F0F2
:102AC000BBFA022001F07EF8002451E0204604EB1E
:102AD000D0714910A4EB410121B300200AF01CFA87
:102AE000064647F2CE100AF017FA074604EBD471F7
:102AF000491001EB410303EBC1011E2303EB41012C
:102B00008AB21E490096097D01EB81011C4B03EB43
:102B1000011104EB840301EB43003B46A82109F0BB
:102B200097FC23E000200AF0F7F9064647F2CE10A2
:102B30000AF0F2F9074604EBD471491001EB4103A6
:102B400003EBC1011E2303EB41018AB20B4900963E
:102B5000097D01EB81010A4B03EB011104EB8403B6
:102B600001EB43003B46082109F072FC601CC4B233
:102B7000082CABDBF8BD00004501002064050020F7
:102B8000B74A0108F8B50020564908700AF0C4F9A0
:102B9000054609F051FA032001F014F8002420E062
:102BA00000200AF0B9F9054647F2CE100AF0B4F950
:102BB00006464D490095097DC1EB0111C1EBC101EC
:102BC0004A4B03EB4101C4EB0413C81804EBC401E6
:102BD000162303EB41023346082109F039FC601C3F
:102BE000C4B20A2CDCDB002423E000200AF094F9B4
:102BF000054647F2CE100AF08FF906463A4900958D
:102C0000097DC1EB0111C1EBC101384B03EB41035D
:102C100004F10A01C1EB01115818A11D01EBC1011A
:102C2000162303EB41023346A82109F011FC601C76
:102C3000C4B2032CD9DB002435E0022C18DA0020C2
:102C40000AF06AF905466FF07F400AF065F906461A
:102C500004EBC401162303EB410204EB8401244B73
:102C600003EB810033469021009509F0F1FB18E059
:102C700000200AF051F905466FF07F400AF04CF948
:102C80000646611C01EBC101162303EB410204EB74
:102C90008401174B03EB810033469021009509F026
:102CA000D7FB601CC4B2052CC7DB00200AF034F946
:102CB00005466FF07F400AF02FF9064633463A2268
:102CC000902109481A30009509F0C2FB09480A49C9
:102CD0000A8802808978817008480949096801607A
:102CE000F8BD00004501002064050020574B010895
:102CF000B24E0108590100203C010020550100207E
:102D00003801002038B500200AF006F904466FF0BB
:102D10007F400AF001F90546064900948978491E6A
:102D200001EB8101044A88182B4601225F2109F03A
:102D30008FFB38BD640500206D4D010800B587B0DC
:102D400000200590FE4890F8400000287ED10690B3
:102D50002EE20698049000EBD07041100498A0EB8E
:102D60004100002873D0F749069831F9100047F662
:102D7000FF71884245D10698401CF3490978884282
:102D80001FD16FF07F400AF0C7F8039000200AF0CF
:102D9000C3F80290039800900698049000EBD0705E
:102DA000401000EB400101EB00102A2101EB400034
:102DB00080B201900246D021E4A0029B09F0E6FA1D
:102DC000F2E100200AF0A8F803906FF07F400AF0CB
:102DD000A3F80290039800900698049000EBD0703E
:102DE000401000EB400101EB00112A2000EB4100F4
:102DF00080B201900246D021D4A0029B09F0C6FA0D
:102E0000D2E1D049069831F81020CD4830300699EB
:102E100000EB41000088104401B2CE4A069822F827
:102E200010101146069831F91000002305220121E7
:102E3000049006F04DFFC749069831F91000C049CB
:102E4000B1F90D1088420BDCC24901E0B5E195E013
:102E5000069831F91000BA49B1F90F10884247DAE3
:102E6000012005900698401CB749097888421FD177
:102E70004FF47F000AF050F8039000200AF04CF85D
:102E80000290039800900698049000EBD0704010D8
:102E900000EB400101EB00102A2101EB400080B261
:102EA00001900246D021AC48029B09F06FFA7BE109
:102EB00000200AF031F803904FF47F000AF02CF85C
:102EC0000290039800900698049000EBD070401098
:102ED00000EB400101EB00102A2101EB400080B221
:102EE00001900246D0219C48029B09F04FFA5BE119
:102EF0000698401C9449097888421FD14FF46E40CF
:102F00000AF00AF8039000200AF006F802900398ED
:102F100000900698049000EBD070401000EB400148
:102F200001EB00112A2000EB410080B20190024623
:102F3000D0218948029B09F029FA35E1002009F0E7
:102F4000EBFF03904FF46E4009F0E6FF0290039808
:102F500000900698049000EBD070401000EB400108
:102F600001EB00102A2101EB400080B201900246E3
:102F7000D0217948029B09F009FA15E171490698B8
:102F800031F9100047F6FF71884245D10698401C80
:102F90006D49097888421FD16FF07F4009F0BCFF6E
:102FA0000390002009F0B8FF029003980090069863
:102FB000049000EBD070401000EB400101EB0010DA
:102FC0002A2101EB400080B20190024630215FA02F
:102FD000029B09F0DBF9E7E0002009F09DFF039078
:102FE0006FF07F4009F098FF0290039800900698D8
:102FF000049000EBD070401000EB400101EB00109A
:103000002A2101EB400080B20190024630214FA0FE
:10301000029B09F0BBF9C7E04A49069831F8102035
:1030200047483030069900EB41000088104401B257
:10303000484A069822F810101146069831F91000F7
:10304000002305220121049006F042FE4149069822
:1030500031F910003A49B1F90D10884208DC3D49B8
:10306000069831F910003649B1F90F10884247DA55
:10307000012005900698401C3349097888421FD1E9
:103080004FF47F0009F048FF0390002009F044FF4F
:103090000290039800900698049000EBD0704010C6
:1030A00000EB400101EB00102A2101EB400080B24F
:1030B0000190024630212848029B09F067F973E02D
:1030C000002009F029FF03904FF47F0009F024FF4E
:1030D0000290039800900698049000EBD070401086
:1030E00000EB400101EB00102A2101EB400080B20F
:1030F0000190024630211848029B09F047F953E03D
:103100000698401C1049097888422ED14FF46E4031
:1031100009F002FF0390002009F0FEFE02900398E0
:1031200000900698049000EBD070401000EB400136
:1031300001EB00102A2101EB400080B201900DE06C
:103140006405002008070020450100202D2D2D2DAD
:103150002D2D0000A6050020E006002002463021AB
:10316000F948029B09F012F91EE0002009F0D4FE94
:1031700003904FF46E4009F0CFFE02900398009048
:103180000698049000EBD070401000EB400101EB7A
:1031900000102A2101EB400080B20190024630214C
:1031A000E948029B09F0F2F80698401CC0B206906C
:1031B00006980828FFF6CDADA6E3E44890F8400055
:1031C00001287DD10020069031E20698049000EBA2
:1031D000D07041100498A0EB4100002871D00698EF
:1031E0004000DB4931F9100047F6FF71884247D1B2
:1031F0000698401CD7490978884220D16FF07F405B
:1032000009F08AFE0390002009F086FE02900398E0
:1032100000900698049000EBD070401000EB400145
:1032200001EB00103D2101EB800080B201900246CD
:10323000D021AFF2E800029B09F0A8F8F3E10020EA
:1032400009F06AFE03906FF07F4009F065FE02907E
:10325000039800900698049000EBD070401000EBAB
:10326000400101EB00103D2101EB800080B2019094
:103270000246D021AFF22C10029B09F087F8D2E170
:1032800006984000B24931F81020B0483030069915
:1032900000EB41000088104401B2AF4A069822F8C2
:1032A00010101146069831F9100000230522012163
:1032B000049006F00DFDA849069831F9100001E0D0
:1032C000BAE19BE0A149B1F90D10884208DCA2499E
:1032D000069831F910009D49B1F90F10884247DA7C
:1032E000012005900698401C9A49097888421FD110
:1032F0004FF47F0009F010FE0390002009F00CFE4F
:103300000290039800900698049000EBD070401053
:1033100000EB400101EB00113D2000EB810080B289
:1033200001900246D0218848029B09F02FF87AE1EB
:10333000002009F0F1FD03904FF47F0009F0ECFD4F
:103340000290039800900698049000EBD070401013
:1033500000EB400101EB00103D2101EB800080B249
:1033600001900246D0217848029B09F00FF85AE1FB
:103370000698401C7749097888421FD14FF46E4067
:1033800009F0CAFD0390002009F0C6FD02900398E1
:1033900000900698049000EBD070401000EB4001C4
:1033A00001EB00103D2101EB800080B2019002464C
:1033B000D0216548029B08F0E9FF34E1002009F0C4
:1033C000ABFD03904FF46E4009F0A6FD0290039808
:1033D00000900698049000EBD070401000EB400184
:1033E00001EB00103D2101EB800080B2019002460C
:1033F000D0215548029B08F0C9FF14E1069840000F
:10340000534931F9100047F6FF71884247D10698B9
:10341000401C50490978884220D16FF07F4009F064
:103420007BFD0390002009F077FD02900398009047
:103430000698049000EBD070401000EB400101EBC7
:1034400000103D2101EB800080B201900246302146
:10345000AFF20830029B08F099FFE4E0002009F089
:103460005BFD03906FF07F4009F056FD02900398DA
:1034700000900698049000EBD070411001EB4100E1
:1034800000EB01103D2101EB800080B2019002466B
:103490003021AFF24830029B08F078FFC3E0069875
:1034A00040002B4931F8102028483030069900EBB5
:1034B00041000088104401B2274A069822F81010F3
:1034C0001146069831F910000023052201210490CD
:1034D00006F0FEFB2049069831F910001B49B1F9AE
:1034E0000D10884208DC1C49069831F91000174974
:1034F000B1F90F10884251DA012005900698401C5E
:1035000014490978884229D14FF47F0009F004FD5D
:103510000390002009F000FD0290039800900698A7
:10352000049000EBD070411001EB410000EB011062
:103530003D2101EB800080B201900246302102481B
:10354000029B08F023FF6EE0E006002064050020E7
:103550000807002045010020A6050020002009F0F2
:10356000DBFC03904FF47F0009F0D6FC0290039837
:1035700000900698049000EBD070411001EB4100E0
:1035800000EB01103D2101EB800080B2019002466A
:103590003021E748029B08F0F9FE44E00698401C01
:1035A000E449097888421FD14FF46E4009F0B4FC19
:1035B0000390002009F0B0FC029003980090069858
:1035C000049000EBD070401000EB400101EB0010C4
:1035D0003D2101EB800080B2019002463021D448A9
:1035E000029B08F0D3FE1EE0002009F095FC03903A
:1035F0004FF46E4009F090FC0290039800900698FA
:10360000049000EBD070411001EB410000EB011081
:103610003D2101EB800080B2019002463021C44878
:10362000029B08F0B3FE0698401CC0B206900698B4
:103630000428FFF6CAAD67E1BF4890F840000228B1
:10364000F9D1002006905BE1069801287DD1BB48A6
:10365000B0F90A0047F6FF7188422BD10698401C4A
:10366000B4490978884212D16FF07F4009F054FCC8
:103670000490002009F050FC039004980090502220
:10368000D021AFF23850039B08F080FE34E10020D7
:1036900009F042FC04906FF07F4009F03DFC03907C
:1036A000049800905022D021AFF26050039B08F0A4
:1036B0006DFE21E1A14841899F48408E084400B237
:1036C0009F4948800846B0F90200002305220121E5
:1036D000049006F0FDFA9A48B0F902009649B1F953
:1036E0000D10884207DC9648B0F902009249B1F902
:1036F0000F1088422DDA012005900698401C8D4954
:103700000978884211D14FF47F0009F005FC04903C
:10371000002009F001FC0390049800905022D02171
:103720008348039B08F032FEE6E0002009F0F4FB3A
:1037300004904FF47F0009F0EFFB03900498009091
:103740005022D0217A48039B00E02CE008F01EFEB6
:10375000D2E00698401C77490978884211D14FF48D
:103760006E4009F0D9FB0490002009F0D5FB0390CE
:10377000049800905022D0216D48039B08F006FE6B
:10378000BAE0002009F0C8FB04904FF46E4009F045
:10379000C3FB0390049800905022D0216448039BFF
:1037A00008F0F4FDA8E06548B0F9040047F6FF71A1
:1037B00088422BD10698401C5E490978884212D174
:1037C0006FF07F4009F0A8FB0490002009F0A4FBF3
:1037D00003900498009050223021AFF29060039B38
:1037E00008F0D4FD88E0002009F096FB04906FF00B
:1037F0007F4009F091FB0390049800905022302103
:10380000AFF2B860039B08F0C1FD75E04B488088BB
:103810004949098E084400B2494908800846B0F970
:103820000000002305220121049006F051FA4448CB
:10383000B0F900004049B1F90D10884207DC40485A
:10384000B0F900003C49B1F90F1088422BDA012091
:1038500005900698401C37490978884211D14FF4E9
:103860007F0009F059FB0490002009F055FB0390FC
:1038700004980090502230212D48039B08F086FDCB
:103880003AE0002009F048FB04904FF47F0009F073
:1038900043FB039004980090502230212448039B5E
:1038A00008F074FD28E00698401C224909788842F7
:1038B00011D14FF46E4009F02FFB0490002009F065
:1038C0002BFB039004980090502230211848039B52
:1038D00008F05CFD10E0002009F01EFB04904FF49E
:1038E0006E4009F019FB039004980090502230219B
:1038F0000F48039B08F04AFD0698401CC0B2069092
:1039000006980228FFF6A0AE0598012808D10A48BB
:10391000007B28B90122D1020A4803F0A9FC05E086
:1039200000224FF40061074803F0A2FC07B000BD7D
:10393000E006002045010020640500200807002063
:10394000A6050020000C014070B500203849087021
:1039500009F0E2FA054608F06FFB012000F032F9A9
:10396000FFF7D0F900F050F9FEF7DCF8002447E04B
:10397000304890F84000012817D1204604EBD07160
:103980004910A4EB410141BB6FF07F4009F0C4FA3C
:103990000546262204FB02F000F11E012B4640F2F0
:1039A0003F12012008F040FC28E0224890F8400037
:1039B000022813D10CB1042C20D16FF07F4009F004
:1039C000ABFA0546262204FB02F000F11E012B464D
:1039D00040F23F12012008F027FC0FE06FF07F401B
:1039E00009F09AFA0546262204FB02F000F11E01B6
:1039F0002B4640F23F12012008F016FC601CC4B2B6
:103A0000052CB5DB002410E06FF07F4009F084FA4C
:103A1000054604EB84014901491C88B22B469822D3
:103A20001E2108F0DBFC601CC4B2032CECDB70BD73
:103A3000450100206405002030B587B0514800786A
:103A4000012802D003287CD136E04F494F4809F0C5
:103A5000AFFA4D48807800904B48437802784CA1EB
:103A600004A80EF033FC494880780090474843781A
:103A7000C2784BA101A80EF029FC002009F04CFAF5
:103A800004464C4809F048FA05462B460122AA2173
:103A900004A8009408F0DCFC002009F03DFA04467C
:103AA000444809F039FA05462B46C022B42101A842
:103AB000009408F0CDFC61E03349344809F078FA0D
:103AC0003D48807800903C484378027830A104A8B3
:103AD0000EF0FCFB39488078009038484378C27873
:103AE0002FA101A80EF0F2FB3548007805280FD170
:103AF000304809F011FA0446002009F00DFA054695
:103B00002B468222F02101A8009408F0A1FC0EE0CF
:103B1000002009F001FA0446264809F0FDF905469F
:103B20002B468222F02101A8009408F091FC244841
:103B30000078062811D11F4809F0EEF9044600204C
:103B400000E01AE009F0E8F905462B469422F0213E
:103B500004A8009408F07CFC0EE0002009F0DCF9D9
:103B60000446144809F0D8F905462B469422F02162
:103B700004A8009408F06CFC00E000BF00BF07B090
:103B800030BD0000460100203C010020380100202B
:103B9000253032643A253032643A253032640000F0
:103BA0003230253032642D253032642D2530326498
:103BB0000000000032F0F000590100205501002003
:103BC00045010020F8B504464FF46E4009F0A4F911
:103BD0000546002009F0A0F9064609490095097D2F
:103BE000C1EB011101EB8101064A0A44611EC1EBE0
:103BF0000111501833460122114608F029FCF8BD86
:103C000064050020214A010838B5002009F084F934
:103C100004466FF07F4009F07FF905462B460322EA
:103C20007F2115A0009408F013FC002009F074F91E
:103C300004466FF07F4009F06FF905462B460322DA
:103C40009F210EA0009408F003FC002009F064F905
:103C500004466FF07F4009F05FF90546084900947B
:103C6000897A01EB4101074A88182B4601228F21EE
:103C700008F0EEFB38BD000028000000290000001D
:103C800064050020954D010838B5214809F044F934
:103C9000044609234FF4807206210090FA2008F0B0
:103CA000E3F9002009F038F904460723FC221946FD
:103CB0000090104608F0D8F9002009F02DF90446CC
:103CC0000723FE2219460090104608F0CDF910484F
:103CD00009F022F90446112340F201120A21009052
:103CE000F92008F0C1F90A4809F016F904462346FC
:103CF00007221221FA2008F097FA054809F00CF97A
:103D00000446234603221321FC2008F08DFA38BD17
:103D10002176EE002DE9F84304460D4617461E466F
:103D2000DDF820806FF07F4009F0F6F881467B1EB9
:103D30009AB26B1C99B2631C98B24B4608F074FAA5
:103D40006FF07F4009F0E8F88146731E9AB26B1C51
:103D500099B2631C98B24B4608F040FB6FF07F406D
:103D600009F0DAF88146731E9AB26B1C99B2A31C53
:103D700098B24B4608F032FB002009F0CDF881469E
:103D80004B463A462946204608F04EFA002009F0F4
:103D9000C3F881464B4632462946204608F01EFBB2
:103DA000002009F0B9F88146E11988B24B46324645
:103DB000294608F013FB002009F0AEF88146711C7B
:103DC0008AB2E119491C88B24B46294608F006FB25
:103DD000002009F0A1F88146781C82B2A81981B2AE
:103DE0004B46204608F020FA05EB060CACF1010C1E
:103DF0001FFA8CF304EB070CACF1010C1FFA8CF2E8
:103E000005F1020C1FFA8CF104F1030C1FFA8CF07F
:103E1000CDF8008008F028F9BDE8F88370B50446B5
:103E20006FF07F4009F078F8054608F005F9012C9D
:103E300006D0022C1BD0032C32D0042C60D146E0DB
:103E40004FF47F0009F068F805462B460A2214213A
:103E5000084608F0E9F94FF47F0009F05DF80546DF
:103E60002B460A220F21192008F0B8FA48E04FF437
:103E70007F0009F051F805462B460A2214214FF421
:103E8000967008F0D1F94FF47F0009F045F8054627
:103E90002B460A220F2140F2311008F09FFA2FE042
:103EA0004FF47F0009F038F805462B460A22DC2142
:103EB000142008F0B9F94FF47F0009F02DF80546F9
:103EC0002B460A22D721192008F088FA18E04FF46F
:103ED0007F0009F021F805462B460A22DC214FF429
:103EE000967008F0A1F94FF47F0009F015F8054627
:103EF0002B460A22D72140F2311008F06FFA00BF9A
:103F000000BF70BD10B501221021044803F0B0F9C4
:103F100000F07CF800F022F810BD00000010014015
:103F20001FB5102000900120029000200190022077
:103F300003906946014802F0F3FF1FBD00100140E5
:103F40001FB51020009001200190022003906946C7
:103F5000014802F0E5FF1FBD0010014010B500242C
:103F6000FFF7DEFF04E0601CC4B201200FF00AFE80
:103F700010210F4803F074F908B1642CF3DB642CB2
:103F800001DB012010BD002404E0601CC4B201204C
:103F90000FF0F8FD1021064803F062F908B9F02C83
:103FA000F3DBF02C01DB0120ECE70020EAE7000066
:103FB0000010014070B50024002520E0FFF7C0FF8D
:103FC00000221021104803F053F902200FF0DAFD0F
:103FD000012210210C4803F04BF9FFF7A1FF0A2042
:103FE0000FF0D0FD64101021074803F039F908B133
:103FF00044F080043C200FF0C5FD681CC5B2082DBC
:10400000DCDB204670BD00000010014010B5FFF75A
:1040100097FF00221021084803F02AF940F2EE2011
:104020000FF0B0FD01221021034803F021F90F2009
:104030000FF0A8FD10BD00000010014070B504464F
:10404000FFF77EFF002526E004F00106641086B12C
:1040500000221021114803F00BF902200FF092FD0D
:10406000012210210D4803F003F93C200FF08AFDD6
:104070000FE000221021094803F0FAF846200FF063
:1040800081FD01221021054803F0F2F802200FF013
:1040900079FD681CC5B2082DD6DB70BD001001404B
:1040A000704706E042F63D0100E0491E0029FCD1C0
:1040B000401E0028F6D1704706E00A2101E04A1EA2
:1040C000D1B20029FBDC401E0028F6D17047000069
:1040D00003B587B0FE4808F01FFF0346292206906B
:1040E000DDE9070108F0A0F8F94808F015FF06908F
:1040F0000898401E80B205900798401E80B2049038
:104100002C22DDE9051308F08FF8F14808F004FFD0
:1041100006900898801E80B205900798401E80B2D5
:1041200004902E22DDE9051308F07EF8E84808F037
:10413000F3FE06900898C01E80B205902E2201461C
:10414000DDE9063008F070F8E14808F0E5FE069079
:104150000898001F80B205900798801C80B20490D8
:104160002E22DDE9051308F05FF8D94808F0D4FEE7
:1041700006900898401F80B205900798233080B2BF
:1041800004900E22DDE9051308F04EF8D04808F03F
:10419000C3FE06900898801F80B2059007982330D0
:1041A00080B204900F22DDE9051308F03DF8C848FD
:1041B00008F0B2FE06900898C01F80B205900798DC
:1041C000233080B204900F22DDE9051308F02CF8AB
:1041D000BF4808F0A1FE06900898083880B2059004
:1041E0000798243080B204900E22DDE9051308F010
:1041F0001BF8B74808F090FE06900898093880B27E
:1042000005900798243080B204900F22DDE9051351
:1042100008F00AF8AE4808F07FFE069008980A38C1
:1042200080B205900798253080B204900E22DDE917
:10423000051307F0F9FFA64808F06EFE06900898EF
:104240000B3880B205900798253080B204900E227A
:10425000DDE9051307F0E8FF9D4808F05DFE0690D4
:1042600008980C3880B205900798253080B20490E9
:104270000E22DDE9051307F0D7FF954808F04CFE44
:10428000069008980D3880B205900798263080B2C5
:1042900004900E22DDE9051307F0C6FF8C4808F0F4
:1042A0003BFE069008980E3880B20590079825309E
:1042B00080B204900F22DDE9051307F0B5FF8448B2
:1042C00008F02AFE069008980F3880B205900798EB
:1042D000263080B204900E22DDE9051307F0A4FF1A
:1042E0007B4808F019FE06900898103880B20590B7
:1042F0000798263080B204900E22DDE9051307F0FE
:1043000093FF734808F008FE06900898113880B2B1
:1043100005900798263080B204900F22DDE905133E
:1043200007F082FF6A4808F0F7FD069008981238F7
:1043300080B205900798273080B204900E22DDE904
:10434000051307F071FF624808F0E6FD0690089833
:10435000133880B205900798273080B204900E225F
:10436000DDE9051307F060FF594808F0D5FD069018
:104370000898143880B205900798273080B20490CE
:104380000F22DDE9051307F04FFF514808F0C4FD87
:1043900006900898153880B205900798283080B2AA
:1043A00004900E22DDE9051307F03EFF484808F0AF
:1043B000B3FD06900898163880B20590079828300B
:1043C00080B204900E22DDE9051307F02DFF40486E
:1043D00008F0A2FD06900898173880B2059007985B
:1043E000283080B204900E22DDE9051307F01CFF8F
:1043F000374808F091FD06900898183880B205906B
:104400000798283080B204900E22DDE9051307F0EA
:104410000BFF2F4808F080FD06900898193880B2ED
:1044200005900798293080B204900D22DDE905132C
:1044300007F0FAFE264808F06FFD069008981A3833
:1044400080B205900798293080B204900E22DDE9F1
:10445000051307F0E9FE1E4808F05EFD0690089877
:104460001B3880B205900798293080B204900E2244
:10447000DDE9051307F0D8FE154808F04DFD06905C
:1044800008981C3880B2059007982A3080B20490B2
:104490000E22DDE9051307F0C7FE0D4808F03CFDCC
:1044A000069008981D3880B2059007982A3080B28F
:1044B00004900E22DDE9051307F0B6FE044808F06B
:1044C0002BFD069008981E3880B20590079801E0F1
:1044D0002176EE002A3080B204900E22DDE9051329
:1044E00007F0A2FEFE4808F017FD069008981F3856
:1044F00080B2059007982A3080B204900F22DDE93F
:10450000051307F091FEF64808F006FD069008989E
:10451000203880B2059007982A3080B204900F228C
:10452000DDE9051307F080FEED4808F0F5FC069084
:104530000898213880B2059007982B3080B20490FB
:104540000D22DDE9051307F06FFEE54808F0E4FCF5
:1045500006900898223880B2059007982B3080B2D8
:1045600004900E22DDE9051307F05EFEDC4808F03A
:10457000D3FC06900898233880B2059007982C3019
:1045800080B204900D22DDE9051307F04DFED448FA
:1045900008F0C2FC06900898243880B2059007986D
:1045A0002C3080B204900E22DDE9051307F03CFEAA
:1045B000CB4808F0B1FC06900898253880B20590E9
:1045C00007982C3080B204900E22DDE9051307F025
:1045D0002BFEC34808F0A0FC06900898263880B24D
:1045E000059007982C3080B204900F22DDE9051366
:1045F00007F01AFEBA4808F08FFC06900898273892
:1046000080B2059007982C3080B204900F22DDE92B
:10461000051307F009FEB24808F07EFC06900898E2
:10462000283880B2059007982D3080B204900E2271
:10463000DDE9051307F0F8FDA94808F06DFC0690C8
:104640000898293880B2059007982D3080B20490E0
:104650000E22DDE9051307F0E7FDA14808F05CFC38
:10466000069008982A3880B2059007982D3080B2BD
:1046700004900F22DDE9051307F0D6FD984808F0F5
:104680004BFC069008982B3880B2059007982D3087
:1046900080B204900F22DDE9051307F0C5FD9048B4
:1046A00008F03AFC069008982C3880B205900798DC
:1046B0002E3080B204900E22DDE9051307F0B4FD20
:1046C000874808F029FC069008982D3880B205909C
:1046D00007982E3080B204900E22DDE9051307F012
:1046E000A3FD7F4808F018FC069008982E3880B289
:1046F000059007982E3080B204900F22DDE9051353
:1047000007F092FD764808F007FC069008982F38CD
:1047100080B2059007982F3080B204900E22DDE918
:10472000051307F081FD6E4808F0F6FB0690089827
:10473000303880B2059007982F3080B204900E2256
:10474000DDE9051307F070FD654808F0E5FB06900C
:104750000898313880B2059007982F3080B20490C5
:104760000F22DDE9051307F05FFD5D4808F0D4FB7B
:1047700006900898323880B2059007982F3080B2A2
:1047800004900F22DDE9051307F04EFD544808F0B0
:10479000C3FB06900898333880B2059007983030F4
:1047A00080B204900E22DDE9051307F03DFD4C4870
:1047B00008F0B2FB06900898343880B2059007984C
:1047C000303080B204900E22DDE9051307F02CFD95
:1047D000434808F0A1FB06900898353880B2059050
:1047E0000798303080B204900E22DDE9051307F0FF
:1047F0001BFD3B4808F090FB06900898363880B2C5
:1048000005900798313080B204900D22DDE9051340
:1048100007F00AFD324808F07FFB06900898373809
:1048200080B205900798313080B204900E22DDE905
:10483000051307F0F9FC2A4808F06EFB069000907B
:104840000898333880B205900798543080B20490AD
:104850000898363880B203900798483080B20290AA
:1048600003A90EC907F000FC1D4808F055FB06908F
:104870000898343880B205900798473080B2049089
:104880000D22DDE9051307F0CFFC154808F044FBC5
:104890000690009008982F3880B205900798533002
:1048A00080B204900898333880B20390079847305C
:1048B00080B2029003A90EC907F0D6FB084808F0A1
:1048C0002BFB0690009008982C3880B20590079832
:1048D000523080B2049008982F3880B2039001E0E3
:1048E0002176EE000798463080B2029003A90EC9E7
:1048F00007F0BAFBFE4808F00FFB0690089828382E
:1049000080B205900798443080B204900E22DDE911
:10491000051307F089FCF64808F0FEFA069008989F
:10492000273880B205900798453080B204900D2258
:10493000DDE9051307F078FCED4808F0EDFA069084
:104940000898263880B205900798443080B20490C9
:104950000D22DDE9051307F067FCE54808F0DCFAF5
:1049600006900898253880B205900798443080B2A8
:1049700004900C22DDE9051307F056FCDC4808F032
:10498000CBFA069000900898213880B205900798DD
:10499000503080B204900898243880B20390079871
:1049A000433080B2029003A90EC907F05DFBD048E6
:1049B00008F0B2FA06900898213880B2059007985E
:1049C000433080B204900C22DDE9051307F02CFC83
:1049D000C74808F0A1FA0690009008981D3880B2E8
:1049E000059007984F3080B204900898203880B224
:1049F00003900798423080B2029003A90EC907F0D5
:104A000033FBBB4808F088FA069008981D3880B23E
:104A100005900798423080B204900C22DDE905131E
:104A200007F002FCB24808F077FA06900090089868
:104A30001A3880B2059007984E3080B204900898DA
:104A40001C3880B203900798413080B2029003A9CD
:104A50000EC907F009FBA64808F05EFA0690089810
:104A60001A3880B205900798413080B204900C2229
:104A7000DDE9051307F0D8FB9D4808F04DFA0690D4
:104A800000900898163880B2059007984D3080B293
:104A900004900898193880B203900798403080B28B
:104AA000029003A90EC907F0DFFA914808F034FA22
:104AB00006900898163880B2059007983F3080B26B
:104AC00004900E22DDE9051307F0AEFB884808F0DC
:104AD00023FA069000900898133880B20590079842
:104AE0004C3080B204900898153880B20390079833
:104AF0003F3080B2029003A90EC907F0B5FA7C4896
:104B000008F00AFA069000900898113880B20590D3
:104B100007984B3080B204900898133880B2039005
:104B200007983F3080B2029003A90EC907F09CFAA3
:104B30006F4808F0F1F906900898113880B2059096
:104B400007983E3080B204900D22DDE9051307F08E
:104B50006BFB674808F0E0F90690009008980E3863
:104B600080B2059007984A3080B2049008981038B7
:104B700080B2039007983E3080B2029003A90EC91C
:104B800007F072FA5A4808F0C7F9069000900898A2
:104B90000B3880B2059007984A3080B2049008988C
:104BA0000E3880B2039007983D3080B2029003A97E
:104BB0000EC907F059FA4E4808F0AEF90690089869
:104BC0000B3880B2059007983D3080B204900C22DB
:104BD000DDE9051307F028FB454808F09DF906902C
:104BE00000900898C01F80B205900798493080B2A5
:104BF000049008980A3880B2039007983C3080B23D
:104C0000029003A90EC907F02FFA394808F084F979
:104C1000069000900898401F80B205900798483091
:104C200080B204900898C01F80B2039007983B3070
:104C300080B2029003A90EC907F016FA2C4808F0BA
:104C40006BF9069000900898C01E80B205900798F6
:104C5000473080B204900898401F80B203900798B4
:104C60003A3080B2029003A90EC907F0FDF920483E
:104C700008F052F906900898C01E80B20590079877
:104C80003A3080B204900E22DDE9051307F0CCFA29
:104C9000174808F041F906900090089880B20590F6
:104CA0000798473080B204900898801E80B2039025
:104CB00007983A3080B2029003A90EC907F0D4F9E0
:104CC0000B4808F029F9069007983A3080B2059011
:104CD0000C22069B089907F0A7FA054808F01CF972
:104CE00006900898283880B205900798583001E05F
:104CF0002176EE0080B204901722DDE9051307F05B
:104D000093FAFE4808F008F906900898273880B210
:104D100005900798553080B204901B22DDE90513F9
:104D200007F082FAF54808F0F7F806900898263858
:104D300080B205900798543080B204901E22DDE9BD
:104D4000051307F071FAED4808F0E6F806900898A8
:104D5000253880B205900798533080B20490202205
:104D6000DDE9051307F060FAE44808F0D5F806908D
:104D70000898243880B205900798533080B2049088
:104D80000322DDE9051307F04FFADC4808F0C4F808
:104D900006900898243880B205900798683080B251
:104DA00004900C22DDE9051307F03EFAD34808F021
:104DB000B3F806900898233880B2059007985330CE
:104DC00080B204900122DDE9051307F02DFACB48EB
:104DD00008F0A2F806900898233880B2059007984A
:104DE000683080B204900C22DDE9051307F01CFA4C
:104DF000C24808F091F80690009008981F3880B2D9
:104E000005900798743080B204900898223880B2D8
:104E100003900798683080B2029003A90EC907F08A
:104E200023F9B64808F078F80690009008981C38E6
:104E300080B205900798743080B2049008981F38AB
:104E400080B203900798673080B2029003A90EC920
:104E500007F00AF9A94808F05FF8069008981C388E
:104E600080B205900798663080B204900D22DDE98B
:104E7000051307F0D9F9A14808F04EF806900898F4
:104E80001B3880B205900798673080B204900C22DE
:104E9000DDE9051307F0C8F9984808F03DF80690D9
:104EA00008981A3880B205900798663080B204904E
:104EB0000D22DDE9051307F0B7F9904808F02CF84A
:104EC000069000900898173880B2059007987230C5
:104ED00080B204900898193880B203900798653022
:104EE00080B2029003A90EC907F0BEF8834808F00B
:104EF00013F8069000900898153880B2059007982E
:104F0000713080B204900898173880B203900798E7
:104F1000653080B2029003A90EC907F0A5F8774862
:104F200007F0FAFF069000900898123880B20590BA
:104F30000798713080B204900898153880B20390B9
:104F40000798643080B2029003A90EC907F08CF86C
:104F50006A4807F0E1FF0690009008980F3880B289
:104F600005900798703080B204900898123880B28B
:104F700003900798633080B2029003A90EC907F02E
:104F800073F85E4807F0C8FF069008980F3880B2A3
:104F900005900798633080B204900C22DDE9051378
:104FA00007F042F9554807F0B7FF069000900898BF
:104FB0000B3880B2059007986F3080B20490089843
:104FC0000E3880B203900798623080B2029003A935
:104FD0000EC907F049F8494807F09EFF0690089867
:104FE0000B3880B205900798623080B204900C2292
:104FF000DDE9051307F018F9404807F08DFF06902A
:1050000008980A3880B205900798613080B2049001
:105010000D22DDE9051307F007F9384807F07CFF9A
:10502000069000900898401F80B2059007986D3058
:1050300080B204900898093880B2039007986130D4
:1050400080B2029003A90EC907F00EF82B4807F0B2
:1050500063FF069000900898801E80B20590079824
:105060006C3080B204900898401F80B2039007987B
:10507000603080B2029003A90EC906F0F5FF1F4808
:1050800007F04AFF069000900898401C80B20590F7
:1050900007986C3080B204900898801E80B203900C
:1050A00007985F3080B2029003A90EC906F0DCFFBA
:1050B000124807F031FF06900898383880B2059002
:1050C00007987F3080B204900C22DDE9051307F0C9
:1050D000ABF80A4807F020FF069000900898343893
:1050E00080B2059007988B3080B2049008983738CA
:1050F00080B2039007987E3080B201E02176EE0006
:10510000029003A90EC906F0AFFFFE4807F004FFA6
:10511000069000900898323880B2059007988A303F
:1051200080B204900898343880B2039007987E309B
:1051300080B2029003A90EC906F096FFF14807F06D
:10514000EBFE069000900898303880B205900798E2
:10515000893080B204900898323880B20390079862
:105160007D3080B2029003A90EC906F07DFFE548AC
:1051700007F0D2FE06900898303880B20590079864
:105180007C3080B204900D22DDE9051307F04CF865
:10519000DC4807F0C1FE069008982F3880B20590D1
:1051A00007987C3080B204900C22DDE9051307F0EB
:1051B0003BF8D44807F0B0FE069008982E3880B22D
:1051C000059007987C3080B204900D22DDE905132C
:1051D00007F02AF8CB4807F09FFE069008982D3874
:1051E00080B2059007987C3080B204900C22DDE9F3
:1051F000051307F019F8C34807F08EFE06900090DB
:1052000008982A3880B205900798883080B20490B8
:1052100008982C3880B2039007987B3080B20290B7
:1052200003A90EC906F020FFB64807F075FE0690E8
:1052300000900898273880B205900798873080B290
:10524000049008982A3880B2039007987B3080B287
:10525000029003A90EC906F007FFAA4807F05CFEFA
:1052600006900898293880B205900798993080B246
:1052700004900C22DDE9051306F0D6FFA14807F0E3
:105280004BFE06900898283880B205900798973012
:1052900080B204900D22DDE9051306F0C5FF9948A0
:1052A00007F03AFE06900898273880B205900798D4
:1052B0007A3080B204900D22DDE9051306F0B4FFC8
:1052C000904807F029FE06900898273880B205908C
:1052D0000798963080B204900C22DDE9051306F0A1
:1052E000A3FF884807F018FE06900090089824381D
:1052F00080B205900798863080B2049008982638CE
:1053000080B2039007987A3080B2029003A90EC948
:1053100006F0AAFE7B4807F0FFFD069008982638A5
:1053200080B205900798943080B204900D22DDE998
:10533000051306F079FF734807F0EEFD0690089814
:10534000253880B205900798933080B204900C22E3
:10535000DDE9051306F068FF6A4807F0DDFD0690F9
:1053600000900898213880B205900798863080B266
:1053700004900898243880B203900798793080B25E
:10538000029003A90EC906F06FFE5E4807F0C4FD47
:1053900006900898243880B205900798923080B221
:1053A00004900C22DDE9051306F03EFF554807F096
:1053B000B3FD06900898233880B205900798913085
:1053C00080B204900B22DDE9051306F02DFF4D4855
:1053D00007F0A2FD06900898223880B20590079841
:1053E0008F3080B204900C22DDE9051306F01CFF1B
:1053F000444807F091FD06900898213880B2059046
:105400000798783080B204900D22DDE9051306F08C
:105410000BFF3C4807F080FD06900898213880B2C9
:10542000059007988D3080B204900D22DDE90513B8
:1054300006F0FAFE334807F06FFD06900898203812
:1054400080B205900798793080B204900C22DDE993
:10545000051306F0E9FE2B4807F05EFD069008985C
:10546000203880B2059007988C3080B204900C22CE
:10547000DDE9051306F0D8FE224807F04DFD069041
:1054800008981F3880B205900798783080B2049051
:105490000D22DDE9051306F0C7FE1A4807F03CFDB2
:1054A000069008981F3880B2059007988A3080B21D
:1054B00004900D22DDE9051306F0B6FE114807F051
:1054C0002BFD069008981E3880B20590079878301A
:1054D00080B204900C22DDE9051306F0A5FE094810
:1054E00007F01AFD069008981E3880B205900798BC
:1054F000893080B204900D22DDE9051306F094FE98
:10550000004801E02176EE0007F006FD06900898BD
:105510001D3880B205900798773080B204900D2234
:10552000DDE9051306F080FEFE4807F0F5FC069065
:1055300008981D3880B205900798873080B2049093
:105540000F22DDE9051306F06FFEF64807F0E4FCD4
:10555000069008981C3880B205900798773080B282
:1055600004900C22DDE9051306F05EFEED4807F01D
:10557000D3FC069008981C3880B2059007988630B6
:1055800080B204901022DDE9051306F04DFEE548D7
:1055900007F0C2FC069008981B3880B20590079867
:1055A000773080B204901F22DDE9051306F03CFE3F
:1055B000DC4807F0B1FC069008981A3880B20590D4
:1055C0000798763080B204901F22DDE9051306F0BB
:1055D0002BFED44807F0A0FC06900898193880B23A
:1055E00005900798763080B204902022DDE90513FB
:1055F00006F01AFECB4807F08FFC06900898183882
:1056000080B205900798763080B204902022DDE9C0
:10561000051306F009FEC34807F07EFC06900898C3
:10562000173880B205900798753080B20490212217
:10563000DDE9051306F0F8FDBA4807F06DFC0690A9
:105640000898163880B205900798763080B204909A
:105650001322DDE9051306F0E7FDB24807F05CFC14
:1056600006900898163880B2059007988A3080B264
:1056700004900C22DDE9051306F0D6FDA94807F0D9
:105680004BFC06900898153880B205900798753045
:1056900080B204901322DDE9051306F0C5FDA14890
:1056A00007F03AFC06900898153880B205900798E4
:1056B0008A3080B204900C22DDE9051306F0B4FDB7
:1056C000984807F029FC06900898143880B2059095
:1056D0000798753080B204901222DDE9051306F0B8
:1056E000A3FD904807F018FC06900898143880B283
:1056F000059007988A3080B204900D22DDE90513E9
:1057000006F092FD874807F007FC069008981338CA
:1057100080B205900798743080B204901122DDE9C0
:10572000051306F081FD7F4807F0F6FB0690089808
:10573000133880B2059007988A3080B204900D2209
:10574000DDE9051306F070FD764807F0E5FB0690ED
:105750000898123880B205900798743080B204908F
:105760001022DDE9051306F05FFD6E4807F0D4FB5B
:1057700006900898123880B2059007988A3080B257
:1057800004900E22DDE9051306F04EFD654807F092
:10579000C3FB06900898113880B2059007987430C2
:1057A00080B204900E22DDE9051306F03DFD5D4850
:1057B00007F0B2FB06900898113880B20590079860
:1057C0008A3080B204900E22DDE9051306F02CFD2C
:1057D000544807F0A1FB06900898103880B2059055
:1057E0000798743080B204900D22DDE9051306F0AD
:1057F0001BFD4C4807F090FB06900898103880B2CB
:10580000059007988A3080B204900E22DDE90513D6
:1058100006F00AFD434807F07FFB069000900898C9
:105820000C3880B205900798803080B204900898B8
:105830000F3880B203900798733080B2029003A9AA
:105840000EC906F011FC374807F066FB0690089871
:105850000C3880B205900798733080B204900C2207
:10586000DDE9051306F0E0FC2E4807F055FB069035
:1058700000900898083880B2059007987F3080B271
:10588000049008980B3880B203900798723080B269
:10589000029003A90EC906F0E7FB224807F03CFB83
:1058A00006900898083880B205900798723080B248
:1058B00004900C22DDE9051306F0B6FC194807F048
:1058C0002BFB069000900898001F80B20590079867
:1058D0007E3080B204900898C01F80B20390079871
:1058E000713080B2029003A90EC906F0BDFB0D48CD
:1058F00007F012FB06900898001F80B205900798E9
:10590000703080B204900E22DDE9051306F08CFCA5
:10591000044807F001FB06900090089880B20590BB
:10592000079801E02176EE007D3080B2049008985F
:10593000C01E80B203900798703080B2029003A915
:105940000EC906F091FBFE4807F0E6FA06900798AC
:10595000703080B205900C22069B089906F064FC1A
:10596000F74807F0D9FA0690009008980C3880B2F2
:1059700005900798983080B2049008980F3880B24C
:10598000039007988B3080B2029003A90EC906F0ED
:105990006BFBEB4807F0C0FA0690009008980A38B5
:1059A00080B205900798993080B2049008980C381E
:1059B00080B2039007988B3080B2029003A90EC981
:1059C00006F052FBDE4807F0A7FA06900090089810
:1059D000C01F80B205900798993080B20490089853
:1059E0000A3880B2039007988C3080B2029003A9E5
:1059F0000EC906F039FBD24807F08EFA06900090E7
:105A00000898001F80B2059007989A3080B20490E1
:105A10000898C01F80B2039007988C3080B2029023
:105A200003A90EC906F020FBC54807F075FA0690D9
:105A300000900898801E80B2059007989B3080B235
:105A400004900898001F80B2039007988C3080B2B1
:105A5000029003A90EC906F007FBB94807F05CFAEB
:105A600006900898801E80B2059007988D3080B20D
:105A700004900E22DDE9051306F0D6FBB04807F0CE
:105A80004BFA06900898401E80B2059007988F3018
:105A900080B204900C22DDE9051306F0C5FBA8488E
:105AA00007F03AFA06900798913080B205900A22E2
:105AB000069B089906F0B8FBA14807F02DFA06905E
:105AC0000898293880B205900798AD3080B20490CC
:105AD0002322DDE9051306F0A7FB994807F01CFA1D
