:020000040800F2
:10000000702500204501000847C700085D990008D9
:1000100029C700080D120008C115010800000000E2
:100020000000000000000000000000001DD00008DB
:10003000313D00080000000089CB0008C9D300084A
:100040005F0100085F0100085F010008D1CC0008D3
:100050005F0100085F0100085F0100085F01000800
:100060005F0100085F0100085F0100085F010008F0
:100070005F0100085F0100085F0100085F010008E0
:100080005F0100085F0100085F0100085F010008D0
:10009000091501085F0100085F0100085F01000801
:1000A0005F0100085F0100085F0100085F010008B0
:1000B00061D400085F0100085F0100085F010008CB
:1000C0005F0100085F0100085F0100085F01000890
:1000D0005F0100085F0100085F0100085F01000880
:1000E0005F0100085F0100085F0100085F01000870
:1000F0005F0100085F0100085F0100085F01000860
:100100005F0100085F0100085F0100085F0100084F
:100110005F0100085F0100085F0100085F0100083F
:100120005F0100085F0100085F0100085F0100082F
:10013000DFF80CD000F020FD00480047C93B010863
:10014000702500200648804706480047FEE7FEE786
:10015000FEE7FEE7FEE7FEE7FEE7FEE7FEE7FEE777
:100160005FD40008310100082DE9F05F054600204A
:1001700092469B4688460646814640241BE0284618
:1001800041464746224600F020F853465A46C01AD8
:10019000914110D311461846224600F081FB2D1ADA
:1001A00067EB01084F4622460120002100F078FB52
:1001B00017EB00094E41201EA4F10104DFDC484684
:1001C00031462A464346BDE8F09F202A04DB203A08
:1001D00021FA02F00021704721FA02F3D040C2F167
:1001E0002002914008431946704740EA01039B07EB
:1001F00003D009E008C9121F08C0042AFAD203E09C
:1002000011F8013B00F8013B521EF9D27047D2B2FF
:1002100001E000F8012B491EFBD270470022F6E7EF
:1002200010B513460A4604461946FFF7F0FF20466C
:1002300010BD421E12F8013F002BFBD111F8013B0B
:1002400002F8013B002BF9D17047421C10F8011B4A
:100250000029FBD1801A704710B5002200E0521C23
:10026000835C8C5CA34201D1002BF8D1D8B2E1B2FF
:10027000401A10BD034611F8012B00F8012B002A8B
:10028000F9D11846704770B5064611F0B9FE0468FA
:1002900005460A220021304600F072FB2C6070BD3A
:1002A000F0B480EA0102D40F4200B2EB410F02D257
:1002B0000246084611464A0042D0C30DDDB2C1F3E2
:1002C000C752AD1A202D35DAC1F3160141F40002F0
:1002D00004B15242C5F1200602FA06F12A41104447
:1002E000B3EBD05F23D0C4B1012DA0EBC35009DC28
:1002F000F0BC4FF0004202EAC352DBB200F500004E
:1003000000F07FBB400000F1807000EBC350A0F113
:10031000807040EAD170490009E0490841EAC071A3
:10032000A0EBC35000F50000400800EBC350F0BC48
:1003300000F05EBB6142012202EB4101001BF6E7C7
:10034000F0BC704781F00041AAE780F00040A7E7C9
:1003500080EA010210B502F00043400022D04A00BA
:100360001FD0010E01EB1261C0F35600C2F356021A
:1003700040F4000042F40002A0FB022000047F3998
:10038000140400D0401C50EA124001D44000491E21
:10039000C2B20C0604EBD010401C4008802A02D0E8
:1003A00003E0002010BD20F00100002900DA002049
:1003B000184310BD30B480EA010202F0004530F06D
:1003C000004221F0004013D090B1C30DD40DC2F310
:1003D0001601C0F31600E41A41F4000140F40002D3
:1003E0007D34914201D3641C00E04900002C02DA04
:1003F00030BC002070474FF400000023914201D32D
:10040000891A034340084FEA4101F7D151B19142A3
:1004100002D14FF0004105E002D24FF0010101E0AE
:100420006FF0010103EBC450284430BC00F0E0BA87
:100430002DE9FE4F804681EA0300C00F0C46009074
:1004400021F0004123F00045B8EB0200A94105D29C
:100450004046214690461C460B46024623F000408B
:10046000104347D0270DC7F30A00C3F30A51029087
:10047000401A019040286BDAC3F3130040F4801B4C
:100480000098924620B10023D2EB030A63EB0B0BDA
:1004900001985946C0F14002504600F001FA064664
:1004A0000D4650465946019A00F009FA10EB080033
:1004B0006141002487EA115284EAE7731A4340D06D
:1004C000009A62B3019A012A4FEA075215DC001B19
:1004D00061EB02014FF0004202EA0752CDE900420F
:1004E000001C41F5801132462B4600F0C7FA03B0DC
:1004F000BDE8F08F40462146F9E7001B61EB0201A1
:10050000001C41F5801300185B412018A2F500176C
:1005100047EB030140EAD570B6196D4111E06D0853
:100520004FEA360645EAC0754FEA0752001B61EBF9
:100530000201001C41F5801149084FEA3000001902
:10054000514132462B4603B0BDE8F04F00F087BA68
:100550000098012240000023D0EB020263EBE0731D
:10056000009821464FEAE074B8EB000061EB04010B
:10057000E9E783F000435BE781F0004158E72DE9AC
:10058000FE4F81EA030404F0004421F0004100948E
:100590004FF0000B23F0004350EA01045ED052EA12
:1005A00003045BD0C3F30A54C1F30A552C44A4F2EC
:1005B000F3340194A0FB0254C1F3130141F4801100
:1005C000C3F3130343F4801301FB024400FB034E07
:1005D000840A970A44EA815447EA8357A4FB0768D0
:1005E00002958D0A05FB07854FEA932C04FB0C54FA
:1005F0002705029D4FEA065847EA1637B5EB08056E
:100600006EEB070C870E920E47EA811742EA8312BF
:10061000A7FB0201B6EB0B0164EB00042B0D43EAD0
:100620000C335E1844EB1C50DA465146E7FB0201DE
:10063000C5F313044FEA0B3343EA14534FEA043271
:10064000019C43EA0603A4F10C040294009CCDE94A
:1006500000B400F013FA03B0BDE8F08F00200146AB
:10066000F9E72DE9F04D81EA030404F0004B21F095
:10067000004514464FF0000A23F0004150EA0502FD
:1006800020D054EA01021DD0C5F30A570246C5F333
:100690001303C1F31300C1F30A5640F4801543F469
:1006A0008013A7EB0608101BD64608F2FD3873EB43
:1006B000050002D308F1010801E092185B41B8F18E
:1006C000000F03DA00200146BDE8F08D00204FF452
:1006D0008011064684460EE0171B73EB050705D311
:1006E000121B63EB050306434CEA010C49084FEA71
:1006F000300092185B4150EA0107EDD152EA030045
:1007000012D082EA040083EA0501084305D0101BD9
:10071000AB4106D20122002306E000224FF0004345
:1007200002E06FF0010253101AEB06004CEB085187
:1007300010EB0A0041EB0B01BDE8F04D00F08FB962
:10074000C10F80EAE0700844CA079623002100F038
:1007500058B996230022114600F053B90EB5C10FC7
:1007600080EAE0700844CA07002140F233438DE874
:100770000E000A460B4600F081F903B000BD00F000
:10078000004220F00040C10DC0F3160040F400000C
:100790007F2901DA00207047962903DCC1F1960118
:1007A000C84001E096398840002AF4D040427047A2
:1007B00020F00040C10DC0F3160040F400007F2976
:1007C00001DA00207047962903DCC1F19601C84088
:1007D000704796398840704770B5C1F30A5201F0EE
:1007E00000450024C1F3130140F2FF3341F48011AE
:1007F0009A4201DA002070BD40F233439A42A2F2DD
:10080000334203DC5242FFF7E0FC00E090402C430F
:10081000F1D0404270BD00F0004230F000400AD0FC
:10082000C10D01F56071C0F3160042EA0151C20822
:1008300040071143704700200146704701F0004314
:1008400030B421F0004150EA010206D00A0DA2F5B1
:100850006072C1F31301002A02DC30BC0020704733
:10086000440F44EAC104C100E01830BC00EBC250A0
:1008700000F0BEB830B50B4601460020202201240E
:1008800009E021FA02F59D4205D303FA02F5491B5E
:1008900004FA02F52844151EA2F10102F1DC30BD74
:1008A000202A04DB203A00FA02F100207047914030
:1008B000C2F1200320FA03F3194390407047202A25
:1008C00006DBCB17203A41FA02F043EAE07306E078
:1008D00041FA02F3D040C2F1200291400843194688
:1008E000704700000FB4002300B589B00CA9009137
:1008F0000B996FF00042CB601E4B06931E4B079383
:100900000423CDE901321D4A089202466B460020BD
:1009100000F0E6F909B05DF814FB70B586B0064644
:100920004FF0FF300091CDE90101002015460C4643
:1009300004903246694604A8FFF7D4FF02460498A3
:10094000211825B108B1084600E020462860049827
:1009500000280DD0002A02DD0098884208D0081B2C
:100960000094CDE901043246694604A8FFF7BAFFB6
:1009700006B070BD190F0008370F0008A50B00085E
:100980002DE9F04791460F4680460446002614F8AC
:10099000015B2DB100F002F90068405DC007F6D19F
:1009A0002B2D02D02D2D18D0641E4A4639462046E4
:1009B00000F0D2FA27B13968A14201D1C7F800800E
:1009C00071054FF002040BD54042002803DD11F001
:1009D00017FB0460A007BDE8F08746F48066E4E7F3
:1009E0000028F8DA11F00CFB04606FF00040F2E729
:1009F0000029A8BF7047401C490008BF20F0010033
:100A0000704710B4B0FA80FC00FA0CF050EA010410
:100A100004BF10BC704749B1CCF1200421FA04F4A2
:100A200011FA0CF118BF012121430843A3EB0C017B
:100A3000CB1D4FEA00614FEA102042BF002010BCDE
:100A4000704700EBC35010440029A4BF10BC70478E
:100A5000401C490008BF20F0010010BC704710B5D1
:100A6000141E73F1000408DA401C41F100019218D1
:100A70005B411A4301D120F0010010BD2DE9F04D7A
:100A800092469B4611B1B1FA81F202E0B0FA80F2CF
:100A900020329046FFF704FF04460F4640EA0A0062
:100AA00041EA0B0153465A46084313D0114653EA14
:100AB000010019D0C8F140025046FFF786FB0546F9
:100AC0000E46504659464246FFF7EAFE084305D017
:100AD000012004E020463946BDE8F08D00200543A2
:100AE00046EAE0762C4337430A986305E40AA0EB14
:100AF00008000022FD0A44EA47540A3002D50020CB
:100B00000146E9E7010510196941DDE908450019C9
:100B10006941BDE8F04DA2E7C1F30A52C1F31301E8
:100B200040F2FF3341F480119A4202DA002001467C
:100B3000704740F233439A42A2F2334202DC5242FF
:100B4000FFF743BBFFF7ACBE30B5041E71F10004E4
:100B500004DB4FF00044404264EB0101141E73F1CA
:100B6000000405DB1C464FF00043524263EB0403D4
:100B7000994208BF904230BD064C074D06E0E06840
:100B800040F0010394E8070098471034AC42F6D3D4
:100B9000FFF7D2FA4C6A02086C6A020800487047F4
:100BA000486A020810B50446FFF7F8FF0068005DC8
:100BB00000F0010010BD00002DE9FF4F087883B060
:100BC0009946FF2805D0491C2D2804D00024002078
:100BD00008E000200BE00124F9E700EB800003EBC4
:100BE0004000491C0B78FF2BF7D104B14042002391
:100BF0000293147819461D462D2C01D02B2C04D1BC
:100C0000521C2D2C13D000240294AA461478FF2CD9
:100C10000FD00A25A3FB057801FB05814FF0000CDE
:100C200003FB0C11521CE3194AEB0101EEE701240E
:100C3000EAE7814453EA010002D019F5C87F06DAD9
:100C400003980021C0E9001107B0BDE8F08F00252E
:100C5000AE4E2F46DFF8B882184600F0DAF9CDE93B
:100C60000001B9F1000002DAC9F1000400E0044615
:100C70000023A74A1AEB030B42EB045A12E0E007E9
:100C800007D02A46334638464146FFF778FC0746E8
:100C900088462A46334610461946FFF770FC05463B
:100CA0000E466410002CEAD1DDE90001B9F1000F15
:100CB0005A46534606DAFFF7D4FC3A464346FFF756
:100CC000D0FC05E0FFF75BFC3A464346FFF757FCD4
:100CD000029A0AB181F00041039AC2E90001B3E728
:100CE0002DE9FF4F1F468DB0D7E901464FF0FF3881
:100CF0002E2045464FF000090B90B9696D1C0E98E7
:100D00008847396A824688470028F6D1BAF1FF3F02
:100D10000AD024F4D064002E11DDBAF12B0F08D0D4
:100D2000BAF12D0F0BD102E0404611B08DE744F42B
:100D30008064B9696D1C0E9888478246761E6946A4
:100D4000600501D52D2000E02B208DF8000001F179
:100D5000010B0DF1200809E0B9696D1C0E98884758
:100D600082460F9844F40074761E0560002E02DD62
:100D7000BAF1300FF0D00B998A453ED144F080048F
:100D800006E00F99681CA9F1010944F40074086099
:100D9000B9696D1C761E0E98884782463028F0D0BF
:100DA0002BE00B998A4505D1200603D444F080043A
:100DB000761E18E0504611F0FBFA08B30DF113014E
:100DC000761E44F400748B4508D2AAF130000BF86B
:100DD000010B200607D5A9F1010003E0200602D48B
:100DE00009F101008146A00502D50F99681C086031
:100DF000B9696D1C0E9888478246002ED1DC53E0FD
:100E0000002E51DDBAF1650F02D0BAF1450F4BD17A
:100E1000A00549D5B9696D1C24F44074761E0E985E
:100E200088478246002E0CDD2B2804D0BAF12D0F06
:100E300007D144F48074B9696D1C0E9888478246C6
:100E4000761EE00501D52D2100E02B2108F8011BBD
:100E5000CDF82C8021E00DF12901761E44F40074B8
:100E600088450CD2AAF1300010F0FF0088F800008D
:100E700002D10B99884509D908F1010806E0E0057F
:100E800001D5244801E042F20F708146B9696D1C1A
:100E90000E98884782460F980560002E04DD504664
:100EA00011F086FA0028D6D1F9690E988847FF20FC
:100EB0008BF8000088F800000020069007904B4651
:100EC0006A4608A906A8FFF777FEA00502D46FF0CE
:100ED00001002AE714F0240F0AD0E00714D1DDE95D
:100EE00006123868031D3B600068C0E900120BE081
:100EF000DDE90601FFF7A2FC0146E00704D13868EE
:100F0000021D3A600068016028460EE700001440A8
:100F10000000F03FF1D8FFFF426842B1016811F8CC
:100F2000013B23B1521EC0E900121846704701214F
:100F3000C160881E704742685AB1C368016843B9EE
:100F400083688B4205D0491E521CC0E90012002064
:100F500070474FF0FF3070472DE9F05F8246007810
:100F6000002715468B460AF10104B946302801D006
:100F70009DB113E014F8010B0127782803D05828FD
:100F800001D045B10AE00DB1102D07D10027102581
:100F900014F8010B02E0082500E00A250026B046FF
:100FA0000EE005FB080005FB06F1012701EB1046EA
:100FB0001FFA80F8B6F5803F00D3B94614F8010B4C
:100FC000294600F018F80028EBDABBF1000F05D035
:100FD0000FB1641E00E05446CBF80040B9F1000F99
:100FE00006D011F00DF802210160C81EBDE8F09F87
:100FF00048EA0640FAE73A2800D2303820F02002CA
:10100000412A01D3A2F13700884201D34FF0FF30CB
:1010100070470EB540F2334202920022CDE9002221
:101020001346FFF72BFD03B000BD70B58C1810F808
:10103000015B15F0070301D110F8013B2A1106D11D
:1010400010F8012B03E010F8016B01F8016B5B1E37
:10105000F9D12B0705D40023521E0DD401F8013B12
:10106000FAE710F8013BCB1A921C03E013F8015B7E
:1010700001F8015B521EF9D5A142D8D3002070BD02
:1010800070B5044600252068806800F0010018B3A0
:101090002068806820F001002168886005F036FF34
:1010A000054613E005F032FF401B02280ED92068E8
:1010B000806800F0010048B1A06A40F01000A06212
:1010C000E06A40F00100E062012070BD20688068A5
:1010D00000F001000028E5D10020F6E738B504460D
:1010E0000025002000902068806800F0010078BB97
:1010F0002068806840F00100216888601948006815
:101100001949B0FBF1F0009002E00098401E0090F9
:1011100000980028F9D105F0F9FE054619E005F020
:10112000F5FE401B022814D92068806800F00100F9
:1011300078B9A06A40F01000A062E06A40F00100B7
:10114000E06200BF002084F8240000BF012038BD09
:1011500005E02068806800F001000028DFD0002052
:10116000F5E700003401002040420F0010B50022D6
:101170004FF48051014805F0C3FE10BD000C014042
:1011800010B501221103024805F0BAFE10BD00009F
:10119000000C014010B50122D102064805F0B0FE56
:1011A0000A2012F021FB00224FF40061014805F0F3
:1011B000A7FE10BD000C01401248407D05281DD23D
:1011C000DFE800F003080D12170032200E4909680D
:1011D000486314E03C200C49096848630FE046204E
:1011E0000949096848630AE05020074909684863CB
:1011F00005E0632004490968486300E000BF00BFC0
:101200007047000064050020D404002000BFFEE702
:1012100010B501220421024805F072FE10BD000045
:101220000010014010B500220421024805F068FEBC
:1012300010BD00000010014010B50122022102483B
:1012400005F05EFE10BD00000010014010B5002248
:101250000221024805F054FE10BD000000100140BC
:1012600010B50446392013F0C7F8E0B213F0D5F8F2
:10127000C4F3072013F0D1F8C4F3074013F0CDF8FE
:10128000200E13F0CAF813F0A9F810F077FE10BD85
:101290002DE9F04107460E4614463C2013F0ACF809
:1012A000F0B213F0BAF8301213F0B7F813F096F862
:1012B0000CB10020208016E010F060FE05461E2DC7
:1012C0000ED1384600F06CF905463D2013F094F835
:1012D00013F084F82F4434B120882844208002E0A1
:1012E0002846BDE8F081E7E710B50BF04FFC08B1E8
:1012F00000F082F8302000F0E4F810BD10B5312085
:1013000000F0DFF810BD10B504462146362000F08D
:10131000CAF810BD10B5044614B1204600F0F2F82A
:10132000342000F0CEF810BD70B50646304600F00F
:10133000D2F8054685B12946304600F024F8044627
:10134000412C09D0142C01D1432070BD422C01D175
:10135000B320FAE72046F8E77019FFF7DBFFF4E760
:1013600010B50446204600F0CDF820785C2802D065
:1013700020782F2803D10021642000F028F93220A2
:1013800000F09FF810BD2DE9F04105460F460026FC
:10139000012429E001E0601CC4B2285D5C2805D06E
:1013A000285D2F2802D0285D0028F4D1285D10B1D7
:1013B000601CC4B200E00024A819FFF7D1FF064664
:1013C00084B1BC420ED0412E0AD0142E02D143204B
:1013D000BDE8F081422E01D1B320F9E73046F7E7AE
:1013E000264601E03046F3E7D4E710B50446FF2176
:1013F0002046FFF7C8FF10BD10B5222012F0FCFFF9
:10140000322012F00FFA12F0EDFF044612F0E6FF60
:10141000204610BD2DE9F04112F0E4FF044612F021
:10142000E1FF054612F0DEFF064612F0DBFF07463D
:1014300012F0D4FF44EA052040EA064040EA076083
:10144000BDE8F08170B50446272012F0D5FF12F0F8
:10145000C9FF0646054646B100BF12F0C3FF207023
:10146000641C701EC0B2061EF7D112F0B7FF2846EA
:1014700070BD10B504460C2012F0BEFF204612F0DD
:10148000CCFFFFF7C7FF10BD70B504460A2012F06D
:10149000B3FF204612F0C1FF12F0A4FF054612F080
:1014A0009DFF284670BD70B505460C46284612F0D3
:1014B000A3FF204612F0B1FF12F090FF10F05EFD86
:1014C00070BD10B50446204612F096FF12F086FF5C
:1014D00010F054FD10BD0246114600E0491C08788A
:1014E0000028FBD100E0491E08785C2804D0087869
:1014F0002F2801D09142F6D1914200D0491C881A80
:10150000C0B270472DE9F0410646012012F074FF89
:1015100012F068FF43282BDA2B20FFF7B5FF1028C5
:1015200026DA2F2012F068FF002012F076FF32201A
:10153000FFF7C7FF0446142C1AD1CF20FFF7A4FFF2
:101540000446ACB14C20FFF794FF00EB042739466A
:101550004C2000F03CF85020FFF78BFF00EB0427F5
:101560003946502000F033F80021702000F02FF8A9
:101570002F2012F041FF3578284612F04EFF09E087
:10158000761C35785C2D01D02F2D00D10025284602
:1015900012F043FF002DF3D112F020FFBDE8F081DF
:1015A00070B504462D2012F027FF12F01BFF0646EF
:1015B000054646B100BF207812F02FFF641C701E54
:1015C000C0B2061EF7D112F009FF284670BD70B5F3
:1015D00005460C460D2012F00FFF284612F01DFFA5
:1015E000E0B212F01AFFC4F3072012F016FFC4F3A2
:1015F000074012F012FF200E12F00FFF12F0EEFE65
:1016000070BD000010B500221021024805F078FCE2
:1016100010BD00000008014010B501221021024851
:1016200005F06EFC10BD00000008014010B501225D
:101630008021024805F064FC10BD0000000C014050
:1016400010B500228021024805F05AFC10BD0000B0
:10165000000C014010B501224021024805F050FC69
:1016600010BD00000014014010B5002240210248C6
:1016700005F046FC10BD00000014014010B5012229
:101680005103024805F03CFC10BD0000001401406D
:1016900010B500224FF40051014805F031FC10BD97
:1016A0000014014010B501221103024805F028FC86
:1016B00010BD00000014014010B500224FF480510D
:1016C000014805F01DFC10BD0014014010B50122B9
:1016D0001146024805F014FC10BD0000000C01404A
:1016E00010B500220121024805F00AFC10BD0000DF
:1016F000000C014010B501222021024805F000FC39
:1017000010BD00000010014010B500222021024849
:1017100005F0F6FB10BD000000100140F0B50446D6
:101720000D46FF22FF21002319E0E05C4140002725
:1017300011E001F0010602F0010C52104910BCF159
:10174000000F01D041F080011EB182F0A00281F0B3
:101750000101781CC7B2082FEBDB581CC3B2AB42A7
:10176000E3DB41EA0220F0BD002070470020704713
:101770002DE9F04106460F4601210C480DF04BFFC4
:101780000B4908700948D0F8B852002403E0285DDE
:1017900008490855641C064800788442F7DB01209C
:1017A000054908700020BDE8F0810000E418002021
:1017B00024020020E81B00202502002033B50C463F
:1017C00000252DE09DF801109DF8030004F068FD50
:1017D00005469DF802002044A8421AD99DF802004F
:1017E000281A241A9DF80100401CC0B28DF801008F
:1017F00000208DF802009DF801000D2810D1012075
:101800008DF801009DF80300401CC0B28DF8030064
:1018100006E09DF802002044C0B28DF8020000E00E
:10182000D0E700BF0720B4FBF0F100FB11400949ED
:1018300009780844C0B28DF800009DF80000072820
:1018400005DB9DF80000C01FC0B28DF800000098B5
:101850003CBD00000801002038B517480078012879
:1018600029DD6FF07F400BF0B3F9044600200BF048
:10187000AFF90546104800940078801E692202EBFB
:10188000C00081B22B4691220CA00AF03DFC0A4810
:101890000078401E08490870002107480078401E63
:1018A000074A11540448007806490978884202D151
:1018B00000200449087038BD5201002020000000BB
:1018C000EC0600205301002038B5044600200BF040
:1018D0007FF9054614231A01022100904FF49B70F2
:1018E0000AF01EFA4FF46E400BF072F9054605231C
:1018F00040F23D1202210090101F0AF011FA4FF43D
:101900006E400BF065F9054614231A01052100907D
:101910004FF49B700AF06CFB4FF46E400BF058F9DB
:101920000546132340F23F120621009040F2371083
:101930000AF0F6F9192C0DDA00200BF049F90546EA
:101940000F2340F23F120621009040F237100AF0B8
:10195000E7F924E0192C0FDB322C0DDA00200BF014
:1019600037F905460C2340F23F120621009040F261
:1019700037100AF0D5F912E0322C0FDB4B2C0DDAC0
:1019800000200BF025F90546092340F23F120621FD
:10199000009040F237100AF0C3F900E000BF38BDF4
:1019A00038B50020254908700BF012F904460AF0FA
:1019B0009FF9042001F056FF00200BF009F90446BE
:1019C0006FF07F400BF004F905462B461E22C8211C
:1019D0001B4800940AF098FB00200BF0F9F804462D
:1019E0006FF07F400BF0F4F805462B461E22FA21DB
:1019F0001348801D00940AF087FB00200BF0E8F8E4
:101A0000044610480BF0E4F805462B461E22C82178
:101A10000B480C3000940AF077FB00200BF0D8F84C
:101A2000044608480BF0D4F805462B463422C8215A
:101A30000348123000940AF067FB38BD45010020CE
:101A4000A84B010832F0F000F8B5044600200BF076
:101A5000BFF805464FF47F000BF0BAF80646601E4B
:101A600000EB400101EBC0001E2101EB400082B2FF
:101A700033468C21024800950AF046FBF8BD000071
:101A8000C949010838B500200BF0A2F80446142318
:101A90001A01022100904FF49B700AF041F94FF4B3
:101AA0006E400BF095F8044623460522022140F2D1
:101AB00039100AF0EFFA4FF46E400BF089F8044643
:101AC00023460522022140F23D100AF0E3FA4FF4CA
:101AD0006E400BF07DF8044623460B2207214FF49D
:101AE0009B700AF0FDF94FF46E400BF071F804465C
:101AF0000F234FF49F7208210090901F0AF010F9F5
:101B00004FF46E400BF064F8044623460522102182
:101B100040F239100AF0E4F94FF46E400BF058F837
:101B200004462346032211214FF49D700AF0D8F990
:101B30004FF46E400BF04CF804462346042211216A
:101B400040F23B100AF0A6FA38BD00002DE9FC4136
:101B5000484890F84000002845D1002440E0621C2D
:101B600045A101A810F01CFA204604EBD0714910E1
:101B7000A4EB4101C9B100200BF02AF80646404809
:101B80000BF026F8074604EBD470401000EB400140
:101B900001EB00102A2101EB400082B23B46A82154
:101BA00001A800960AF0B0FA18E000200BF010F837
:101BB000064633480BF00CF8074604EBD47040108F
:101BC00000EB400101EB00102A2101EB400082B242
:101BD0003B46082101A800960AF096FA601CC4B2A0
:101BE000082CBCDB44E0002440E0621C22A101A8D8
:101BF00010F0D6F9204604EBD0714910A4EB410156
:101C0000C9B100200AF0E4FF06461D480AF0E0FFD3
:101C1000074604EBD470401000EB400101EB0010CC
:101C20003D2101EB800082B23B46A82101A800962D
:101C30000AF06AFA18E000200AF0CAFF06461048C7
:101C40000AF0C6FF074604EBD470401000EB4001D9
:101C500001EB00103D2101EB800082B23B460821E0
:101C600001A800960AF050FA601CC4B2042CBCDB38
:101C7000BDE8FC8164050020253032643A00000094
:101C800032F0F00038B50C49B1F90000002305220C
:101C9000012107F065FE00200AF09AFF04464FF488
:101CA0006E400AF095FF05462B4602226421034848
:101CB00000940AF029FA38BD9A010020E0060020BD
:101CC00038B54FF46E400AF083FF0446122340F209
:101CD0000F1208210090501E0AF022F84FF46E40B7
:101CE0000AF076FF04462346062207214FF4867049
:101CF0000AF0F6F84FF46E400AF06AFF04462346F5
:101D00000422062140F20D100AF0EAF84FF46E406A
:101D10000AF05EFF04462346022205214FF4877035
:101D20000AF0DEF84FF46E400AF052FF04460F232B
:101D30004FF48A7205210090501E09F0F1FF4FF414
:101D40006E400AF045FF044623460622102140F269
:101D500011100AF0C5F84FF46E400AF039FF04463E
:101D60002346042211214FF489700AF0B9F84FF488
:101D70006E400AF02DFF044623460222122140F253
:101D800013100AF0ADF838BD7CB501208549087004
:101D9000854908706FF07F400AF01AFF0546F0236E
:101DA0004FF4A07282210090002009F0B9FF6FF07B
:101DB0007F400AF00DFF054600200AF009FF0646A5
:101DC0007A490095097DC1EB0111794A02EB410086
:101DD000334691223C210AF097F900200AF0F8FEE0
:101DE0000546A323C8228F21009064200AF000F941
:101DF00043F2FF300AF0ECFE05461A233C228C2108
:101E00000090FF2001F0CEFD43F2FF300AF0E0FE2B
:101E100005466FF07F400AF0DBFE064663490095F9
:101E2000097DC1EB0111624A02EB4101881D334675
:101E300091224FF48C710AF067F943F2FF300AF0F7
:101E4000C7FE05461A233E22D2210090052001F04C
:101E5000A9FD43F2FF300AF0BBFE05466FF07F405C
:101E60000AF0B6FE064651490095097DC1EB011105
:101E70004F4A02EB410101F10C003346D7221421F5
:101E80000AF042F943F2FF300AF0A2FE05461A2397
:101E90003E22D2210090E12001F084FD43F2FF3088
:101EA0000AF096FE05466FF07F400AF091FE064666
:101EB0003E490095097DC1EB01113D4A02EB41010C
:101EC00001F112003346D722F0210AF01DF900205B
:101ED0000AF07EFE0546CA2340F23912AA2100907C
:101EE000072009F01DFF00242BE0621C31A101A88E
:101EF00010F056F84FF47F000AF06AFE054604EB36
:101F000004110722009002EB41001F231A46AA2168
:101F100001F048FD4FF47F000AF05AFE05466FF0CD
:101F20007F400AF055FE064604EB0410132202EB34
:101F300040013346B12201A800950AF0E5F8601C83
:101F4000C4B2092CD1DB002428E043F2FF300AF0B0
:101F50003FFE054604EB04115722009002EB4100BE
:101F60001F231A46CC2101F01DFD43F2FF300AF079
:101F70002FFE05466FF07F400AF02AFE064604EB6E
:101F80000412632303EB42010B4A02EB4400334685
:101F9000D32200950AF0B8F8601CC4B2032CD4DB3D
:101FA0007CBD00005101002052010020640500208A
:101FB000824D010825640000BE4D010831B582B094
:101FC0001A4800780A2830DA1948007818B19DF8C4
:101FD00008002E2829D002A91648FEF72AF96FF02A
:101FE0007F400AF0F5FD044600200AF0F1FD0546A9
:101FF0000E4800940078401E692202EBC00081B2B6
:102000002B46912202A80AF07FF80948007838B9D7
:102010009DF808002E2803D1044800780449087070
:1020200002480078401C014908703EBD5201002062
:1020300053010020EC06002010B500201449087060
:10204000144908701449087014480078012806D013
:10205000022807D0032808D004280CD108E001F09A
:10206000DBFA09E000F0FCFC06E000F063FD03E0B1
:10207000FFF796FC00E000BF00BF0848007808F0BA
:10208000D1F9074801780548007800F00BF810BD39
:102090005201002051010020530100204601002080
:1020A0004501002003B587B00798012806D0022813
:1020B00005D003287ED004287DD12AE3F7E3FE482B
:1020C0000078012817D1FD480AF082FD0390002016
:1020D0000AF07EFD029003980090F9488078401E37
:1020E00000EB8000F749084401901E225021029B1A
:1020F0000AF00AF816E000200AF06AFD0390EF48A3
:102100000AF066FD029003980090ED488078401E2A
:1021100000EB8000EB49084401901E225021029BF5
:1021200009F0F2FFE448007802281BD1E3480AF0E6
:102130004FFD039000200AF04BFD029003980090A1
:10214000DF48007D00EB8000DF4901EBC000DC4987
:10215000C97A00EBC100019034225021029B09F0A2
:10216000D3FF1AE000200AF033FD0390D3480AF0B1
:102170002FFD029003980090D148007D00EB800075
:10218000D14901EBC000CE49C97A00EBC1000190F2
:1021900034225021029B09F0B7FFC948B0F90D0065
:1021A000002305220121039007F0DAFBC2480078E2
:1021B000032801E01FE179E310D1C0480AF008FDCF
:1021C000039000200AF004FD0290039800904A2238
:1021D0005021BE48029B09F097FF0FE000200AF053
:1021E000F7FC0390B5480AF0F3FC029003980090C6
:1021F0004A225021B548029B09F086FFB048B0F949
:102200000F00002305220121039007F0A9FBAA4833
:102210000078042810D1A9480AF0DAFC03900020C5
:102220000AF0D6FC02900398009060225021A74843
:10223000029B09F069FF0FE000200AF0C9FC03903F
:102240009E480AF0C5FC029003980090602250213D
:102250009E48029B09F058FF97480078052816D140
:1022600096480AF0B5FC039000200AF0B1FC0290F9
:10227000039800909248807A00EB4000944908440B
:1022800001901E22F021029B09F03EFF15E0002084
:102290000AF09EFC039089480AF09AFC0290039889
:1022A00000908748807A00EB4000894908440190FB
:1022B0001E22F021029B09F027FF7F4800780628A4
:1022C0001DD17E480AF084FC039000200AF080FCB7
:1022D0000290039800907A48007D00EBC00101EB6A
:1022E00000107C4908447649097B01EB81010844D0
:1022F00001903422F021029B09F006FF1CE000202F
:102300000AF066FC03906D480AF062FC02900398A4
:1023100000906B48007D00EBC00101EB00106D499F
:1023200008446749097B01EB81010844019034228C
:10233000F021029B09F0E8FE5F480078072816D1DB
:102340005E480AF045FC039000200AF041FC029030
:10235000039800905A48407C00EB80005E49084496
:1023600001904A22F021029B09F0CEFE15E00020E8
:102370000AF02EFC039051480AF02AFC02900398C0
:1023800000904F48407C00EB800053490844019086
:102390004A22F021029B09F0B7FE4948408A0246D2
:1023A0004EA1039004A80FF0FBFD434800780828D5
:1023B00010D142480AF00CFC039000200AF008FCFF
:1023C0000290039800906022F02104A8029B09F07B
:1023D0009BFE0FE000200AF0FBFB039037480AF059
:1023E000F7FB0290039800906022F02104A8029B62
:1023F00009F08AFE5BE230480078012817D12F48A7
:102400000AF0E6FB039000200AF0E2FB029003983A
:1024100000902B48007D00EB8000324901EB40002A
:10242000019082225021029B09F06EFE16E00020EE
:102430000AF0CEFB039021480AF0CAFB02900398F1
:1024400000901F48007D00EB8000264901EB400012
:10245000019082225021029B09F056FE1648007816
:10246000022817D115480AF0B3FB039000200AF0A8
:10247000AFFB0290039800901148407D00EB800074
:10248000194901EB4000019094225021029B09F070
:102490003BFE31E000200AF09BFB039007480AF066
:1024A00097FB0290039800900548407D00EB800068
:1024B0000D4901EB400019E04501002032F0F00029
:1024C00064050020FF490108544A0108E006002085
:1024D000274A0108A44A0108124B01082530346438
:1024E00000000000C04B0108F24B0108019094224B
:1024F0005021029B09F008FEF048007803281FD104
:10250000EF480AF065FB039000200AF061FB02909F
:1025100003980090EB48007D00EBC00101EB001038
:10252000E94901EB4000E749897D01EB810100EBBE
:1025300041000190A6225021029B09F0E5FD1EE01A
:1025400000200AF045FB0390DD480AF041FB0290B1
:1025500003980090DB48007D00EBC00101EB001008
:10256000D94901EB4000D749897D01EB810100EB9E
:1025700041000190A6225021029B09F0C5FDCF48E1
:10258000007804281FD1CE480AF022FB03900020D7
:102590000AF01EFB029003980090CA48007D00EBF1
:1025A000C00101EB0010C84901EB4000C549097E9C
:1025B00001EB810100EB41000190B8225021029B08
:1025C00009F0A2FD1EE000200AF002FB0390BC48C7
:1025D0000AF0FEFA029003980090BA48007D00EBE2
:1025E000C00101EB0010B84901EB4000B549097E7C
:1025F00001EB810100EB41000190B8225021029BC8
:1026000009F082FDAD48007807281FD1AC480AF0D8
:10261000DFFA039000200AF0DBFA029003980090A2
:10262000A848007D00EBC00101EB0010A74901EBB9
:102630004000A449C97D01EB810100EB41000190FC
:10264000A622F021029B09F05FFD1EE000200AF0A7
:10265000BFFA03909A480AF0BBFA029003980090E0
:102660009848007D00EBC00101EB0010974901EB99
:1026700040009449C97D01EB810100EB41000190CC
:10268000A622F021029B09F03FFD8C480078082823
:102690001FD18B480AF09CFA039000200AF098FAA8
:1026A0000290039800908748007D00EBC00101EB89
:1026B0000010874901EB40008249497E01EB81010E
:1026C00000EB41000190B822F021029B09F01CFDB3
:1026D0001EE000200AF07CFA039079480AF078FAAC
:1026E0000290039800907748007D00EBC00101EB59
:1026F0000010774901EB40007249497E01EB8101EE
:1027000000EB41000190B822F021029B09F0FCFC93
:10271000CDE070480068002305221946039007F0B9
:102720001FF900200AF054FA03904FF46E400AF0AB
:102730004FFA0290039800901E22FA216648029BED
:1027400009F0E2FC63484068002304221946039024
:1027500007F006F900200AF03BFA03904FF46E40B0
:102760000AF036FA0290039800903422FA215A486F
:10277000029B09F0C9FC51480078012810D150484B
:102780000AF026FA039000200AF022FA0290039839
:1027900000901E2250215148029B09F0B5FC0FE029
:1027A00000200AF015FA039045480AF011FA029049
:1027B000039800901E2250214848029B09F0A4FC77
:1027C0003E480078022811D13D480AF001FA0390F2
:1027D00000200AF0FDF90290039800903422502165
:1027E0003E480F30029B09F08FFC10E000200AF0F9
:1027F000EFF9039032480AF0EBF902900398009049
:102800003422502135480F30029B09F07DFC2B48C3
:102810000078032811D12A480AF0DAF90390002041
:102820000AF0D6F90290039800904A2250212B48D2
:102830001E30029B09F068FC10E000200AF0C8F985
:1028400003901F480AF0C4F90290039800904A22AE
:10285000502122481E30029B09F056FC1748007890
:10286000042811D116480AF0B3F9039000200AF0A9
:10287000AFF90290039800906022502117482D3044
:10288000029B09F041FC10E000200AF0A1F903903E
:102890000B480AF09DF902900398009060225021A5
:1028A0000E482D30029B09F02FFC00E000BF00BF56
:1028B000079807F0B7FD09B000BD000045010020F2
:1028C00032F0F00064050020244C0108884C010817
:1028D000EC4C010810000020E00600208D490108A2
:1028E000F8B500200AF074F9054609F001FA9621BE
:1028F000322001F035FA4FF4487010F075FF0020D7
:102900000AF066F9054609F0F3F92E4890F8400000
:1029100040BB002423E0002C07DD092C05DA294AFE
:102920009178621ED0B207F0B5FA00200AF050F993
:1029300005466FF07F400AF04BF9064604EBC401F0
:1029400049008A1C204901EB4410334602210095BE
:1029500009F0DAFBC82001F0ECF9601CC4B20A2CC3
:10296000D9DB2DE0002427E0002C09DD052C07DA57
:10297000144A9178621E5206100E07F08BFA01E09D
:1029800011F038F800200AF023F905466FF07F4077
:102990000AF01EF9064604EBC40149008A1C0B49E3
:1029A00001EB441033460221009509F0ADFBC8202D
:1029B00001F0BFF9601CC4B2062CD5DB11F01AF887
:1029C000F8BD000064050020DD4D01081D4F010821
:1029D00038B54DF6DC400AF0FBF8044612234FF4FC
:1029E000947209210090901F09F09AF94DF6DC408D
:1029F0000AF0EEF8044623460622082140F223108E
:102A000009F06EFA4DF6DC400AF0E2F8044623467F
:102A1000052207214FF4927009F062FA00200AF0B3
:102A2000D7F8044623460222092140F2231009F078
:102A300031FB00200AF0CCF804462346032208218B
:102A400040F2251009F026FB00200AF0C1F80446E8
:102A500023460322082140F2271009F01BFB38BD52
:102A6000F8B50020304908700AF0B2F8054609F0C0
:102A70003FF9022000F0F6FE002451E0204604EB6E
:102A8000D0714910A4EB410121B300200AF0A0F855
:102A9000064647F2CE100AF09BF8074604EBD471C5
:102AA000491001EB410303EBC1011E2303EB41017C
:102AB0008AB21E490096097D01EB81011C4B03EB94
:102AC000011104EB840301EB43003B46A82109F00C
:102AD0001BFB23E000200AF07BF8064647F2CE10ED
:102AE0000AF076F8074604EBD471491001EB410374
:102AF00003EBC1011E2303EB41018AB20B4900968F
:102B0000097D01EB81010A4B03EB011104EB840306
:102B100001EB43003B46082109F0F6FA601CC4B201
:102B2000082CABDBF8BD0000450100206405002047
:102B300049470108F8B50020564908700AF048F8DE
:102B4000054609F0D5F8032000F08CFE002420E0B3
:102B500000200AF03DF8054647F2CE100AF038F89A
:102B600006464D490095097DC1EB0111C1EBC1013C
:102B70004A4B03EB4101C4EB0413C81804EBC40136
:102B8000162303EB41023346082109F0BDFA601C0D
:102B9000C4B20A2CDCDB002423E000200AF018F881
:102BA000054647F2CE100AF013F806463A4900955A
:102BB000097DC1EB0111C1EBC101384B03EB4103AE
:102BC00004F10A01C1EB01115818A11D01EBC1016B
:102BD000162303EB41023346A82109F095FA601C45
:102BE000C4B2042CD9DB002435E0022C18DA002012
:102BF00009F0EEFF05466FF07F4009F0E9FF064659
:102C000004EBC401162303EB410204EB8401244BC3
:102C100003EB810033469021009509F075FA18E026
:102C2000002009F0D5FF05466FF07F4009F0D0FF86
:102C30000646611C01EBC101162303EB410204EBC4
:102C40008401174B03EB810033469021009509F076
:102C50005BFA601CC4B2052CC7DB002009F0B8FF8A
:102C600005466FF07F4009F0B3FF064633463A222F
:102C7000902109481A30009509F046FA09480A4996
:102C80000A880280897881700848094909680160CA
:102C9000F8BD00004501002064050020E947010857
:102CA000444B0108590100203C010020550100203F
:102CB0003801002038B5002009F08AFF04466FF083
:102CC0007F4009F085FF0546064900948978491E32
:102CD00001EB8101044A88182B4601225F2109F08B
:102CE00013FA38BD64050020FF49010800B587B01C
:102CF00000200590FE4890F8400000287ED1069004
:102D00002EE20698049000EBD07041100498A0EBDE
:102D10004100002873D0F749069831F9100047F6B2
:102D2000FF71884245D10698401CF34909788842D2
:102D30001FD16FF07F4009F04BFF0390002009F096
:102D400047FF0290039800900698049000EBD07023
:102D5000401000EB400101EB00102A2101EB400084
:102D600080B201900246D021E4A0029B09F06AF9EA
:102D7000F2E1002009F02CFF03906FF07F4009F092
:102D800027FF0290039800900698049000EBD07003
:102D9000401000EB400101EB00102A2101EB400044
:102DA00080B201900246D021D4A0029B09F04AF9DA
:102DB000D2E1D049069831F81020CD48303006993C
:102DC00000EB41000088104401B2CE4A069822F878
:102DD00010101146069831F9100000230522012138
:102DE000049006F0BDFDC749069831F91000C049AE
:102DF000B1F90D1088420BDCC24901E0B5E195E064
:102E0000069831F91000BA49B1F90F10884247DA33
:102E1000012005900698401CB749097888421FD1C7
:102E20004FF47F0009F0D4FE0390002009F0D0FE9B
:102E30000290039800900698049000EBD070401028
:102E400000EB400101EB00102A2101EB400080B2B1
:102E500001900246D021AC48029B09F0F3F87BE1D7
:102E6000002009F0B5FE03904FF47F0009F0B0FE9A
:102E70000290039800900698049000EBD0704010E8
:102E800000EB400101EB00102A2101EB400080B271
:102E900001900246D0219C48029B09F0D3F85BE1E7
:102EA0000698401C9449097888421FD14FF46E401F
:102EB00009F08EFE0390002009F08AFE029003982C
:102EC00000900698049000EBD070401000EB400199
:102ED00001EB00112A2000EB410080B20190024674
:102EE000D0218948029B09F0ADF835E1002009F0B6
:102EF0006FFE03904FF46E4009F06AFE0290039853
:102F000000900698049000EBD070401000EB400158
:102F100001EB00102A2101EB400080B20190024633
:102F2000D0217948029B09F08DF815E17149069886
:102F300031F9100047F6FF71884245D10698401CD0
:102F40006D49097888421FD16FF07F4009F040FE3B
:102F50000390002009F03CFE029003980090069830
:102F6000049000EBD070411001EB410000EB011028
:102F70002A2101EB400080B20190024630215FA07F
:102F8000029B09F05FF8E7E0002009F021FE0390C2
:102F90006FF07F4009F01CFE0290039800900698A5
:102FA000049000EBD070411001EB410000EB0110E8
:102FB0002A2101EB400080B20190024630214FA04F
:102FC000029B09F03FF8C7E04A49069831F8102003
:102FD00047483030069900EB41000088104401B2A8
:102FE000484A069822F810101146069831F9100048
:102FF000002305220121049006F0B2FC4149069805
:1030000031F910003A49B1F90D10884208DC3D4908
:10301000069831F910003649B1F90F10884247DAA5
:10302000012005900698401C3349097888421FD139
:103030004FF47F0009F0CCFD0390002009F0C8FD9B
:103040000290039800900698049000EBD070411015
:1030500001EB410000EB01102A2101EB400080B29E
:103060000190024630212848029B08F0EBFF73E0F4
:10307000002009F0ADFD03904FF47F0009F0A8FD9A
:103080000290039800900698049000EBD0704010D6
:1030900000EB400101EB00102A2101EB400080B25F
:1030A0000190024630211848029B08F0CBFF53E004
:1030B0000698401C1049097888422ED14FF46E4082
:1030C00009F086FD0390002009F082FD029003982C
:1030D00000900698049000EBD070401000EB400187
:1030E00001EB00102A2101EB400080B201900DE0BD
:1030F0006405002008070020450100202D2D2D2DFE
:103100002D2D0000A6050020E006002002463021FB
:10311000F748029B08F096FF1EE0002009F058FDDA
:1031200003904FF46E4009F053FD02900398009015
:103130000698049000EBD070401000EB400101EBCA
:1031400000102A2101EB400080B20190024630219C
:10315000E748029B08F076FF0698401CC0B2069034
:1031600006980828FFF6CDAD39E20020069032E23D
:103170000698049000EBD07041100498A0EB410039
:1031800000287DD006984000DA4931F9100047F652
:10319000FF71884247D10698401CD7490978884278
:1031A00020D16FF07F4009F013FD0390002009F05B
:1031B0000FFD0290039800900698049000EBD070E9
:1031C000411001EB410000EB01103D2101EB8000BB
:1031D00080B201900246D021AFF2E000029B08F0DD
:1031E00031FFF4E1002009F0F3FC03906FF07F4021
:1031F00009F0EEFC0290039800900698049000EB12
:10320000D070401000EB400101EB00103D2101EBBC
:10321000800080B201900246D021AFF22010029BC4
:1032200008F010FFD3E106984000B24931F81020B1
:10323000B248069900EB41000088104401B2B04A40
:10324000069822F810101146069831F91000002354
:1032500005220121049006F083FBA949069831F963
:103260001000A6493039B1F90D1088420BDCA44991
:10327000069831F91000A1493039B1F90F1000E07A
:103280008FE0884247DA012005900698401C9A4951
:10329000097888421FD14FF47F0009F099FC039010
:1032A000002009F095FC0290039800900698049085
:1032B00000EBD070411001EB410000EB01103D210B
:1032C00001EB800080B201900246D0218848029B29
:1032D00008F0B8FE7BE1002009F07AFC03904FF47F
:1032E0007F0009F075FC0290039800900698049006
:1032F00000EBD070411001EB410000EB01113D20CB
:1033000000EB810080B201900246D0217848029BF8
:1033100008F098FE5BE10698401C774909788842DE
:103320001FD14FF46E4009F053FC0390002009F0C8
:103330004FFC0290039800900698049000EBD07028
:10334000411001EB410000EB01103D2101EB800039
:1033500080B201900246D0216548029B08F072FEBF
:1033600035E1002009F034FC03904FF46E4009F081
:103370002FFC0290039800900698049000EBD07008
:10338000401000EB400101EB00103D2101EB8000FB
:1033900080B201900246D0215548029B08F052FEAF
:1033A00015E106984000534931F9100047F6FF71C6
:1033B000884247D10698401C4F490978884220D15D
:1033C0006FF07F4009F004FC0390002009F000FC3E
:1033D0000290039800900698049000EBD070401083
:1033E00000EB400101EB00113D2000EB810080B2B9
:1033F000019002463021AFF2FC20029B08F022FE31
:10340000E5E0002009F0E4FB03906FF07F4009F055
:10341000DFFB0290039800900698049000EBD070B8
:10342000411001EB410000EB01103D2101EB800058
:1034300080B2019002463021AFF24030029B08F08A
:1034400001FEC4E0069840002A4931F810202B48BC
:10345000069900EB41000088104401B2284A069802
:1034600022F810101146069831F9100000230522A9
:103470000121049006F074FA2149069831F91000F0
:103480001E493039B1F90D10884209DC1C490698F3
:1034900031F9100019493039B1F90F10884251DA69
:1034A000012005900698401C13490978884229D1CB
:1034B0004FF47F0009F08CFB0390002009F088FB9B
:1034C0000290039800900698049000EBD070411091
:1034D00001EB410000EB01103D2101EB800080B2C7
:1034E0000190024630210248029B08F0ABFD6EE0DD
:1034F000E006002008070020450100209405002078
:10350000A6050020002009F063FB03904FF47F0024
:1035100009F05EFB0290039800900698049000EB7F
:10352000D070401000EB400101EB00103D2101EB99
:10353000800080B20190024630213348029B08F09F
:1035400081FD44E00698401C3049097888421FD12B
:103550004FF46E4009F03CFB0390002009F038FB6B
:103560000290039800900698049000EBD0704110F0
:1035700001EB410000EB01103D2101EB800080B226
:103580000190024630212048029B08F05BFD1EE0BE
:10359000002009F01DFB03904FF46E4009F018FB6A
:1035A0000290039800900698049000EBD0704110B0
:1035B00001EB410000EB01103D2101EB800080B2E6
:1035C0000190024630211048029B08F03BFD06980E
:1035D000401CC0B2069006980428FFF6C9AD0598B5
:1035E000012808D10A48007B28B90122D1020948E4
:1035F00003F086FC05E000224FF40061054803F06B
:103600007FFC07B000BD0000E0060020450100205F
:1036100064050020000C014070B500202C490870A2
:1036200009F0D6FA054608F063FB012000F01AF90C
:10363000FFF740FB00F030F9FEF788FA00242EE097
:10364000244890F84000012817D1204604EBD0719F
:103650004910A4EB410101BB6FF07F4009F0B8FABB
:103660000546262204FB02F000F11E012B4640F223
:103670003F12012008F034FC0FE06FF07F4009F0AA
:10368000A7FA0546262204FB02F000F11E012B4694
:1036900040F23F12012008F023FC601CC4B2052C4C
:1036A000CEDB002410E06FF07F4009F091FA054670
:1036B00004EB84014901491C88B22B4698221E2143
:1036C00008F0E8FC601CC4B2032CECDB70BD000009
:1036D000450100206405002030B587B051480078CE
:1036E000012802D003287CD136E04F494F4809F029
:1036F000BBFA4D48807800904B48437802784CA143
:1037000004A80EF04DFC4948807800904748437863
:10371000C2784BA101A80EF043FC002009F058FA32
:1037200004464C4809F054FA05462B460122AA21CA
:1037300004A8009408F0E8FC002009F049FA0446C7
:10374000444809F045FA05462B46C022B42101A899
:10375000009408F0D9FC61E03349344809F084FA58
:103760003D48807800903C484378027830A104A816
:103770000EF016FC39488078009038484378C278BB
:103780002FA101A80EF00CFC3548007805280FD1B8
:10379000304809F01DFA0446002009F019FA0546E0
:1037A0002B468222F02101A8009408F0ADFC0EE027
:1037B000002009F00DFA0446264809F009FA0546EA
:1037C0002B468222F02101A8009408F09DFC244899
:1037D0000078062811D11F4809F0FAF904460020A4
:1037E00000E01AE009F0F4F905462B469422F02196
:1037F00004A8009408F088FC0EE0002009F0E8F925
:103800000446144809F0E4F905462B469422F021B9
:1038100004A8009408F078FC00E000BF00BF07B0E7
:1038200030BD0000460100203C010020380100208E
:10383000253032643A253032643A25303264000053
:103840003230253032642D253032642D25303264FB
:103850000000000032F0F000590100205501002066
:1038600045010020F8B504464FF46E4009F0B0F968
:103870000546002009F0ACF90646611EC1EB0111B6
:10388000044A8818334601221146009508F03CFC92
:10389000F8BD0000B346010838B5002009F098F9DA
:1038A00004466FF07F4009F093F905462B4603224A
:1038B0007F2115A0009408F027FC002009F088F96A
:1038C00004466FF07F4009F083F905462B4603223A
:1038D0009F210EA0009408F017FC002009F078F951
:1038E00004466FF07F4009F073F9054608490094DB
:1038F000897A01EB4101074A88182B4601228F2162
:1039000008F002FC38BD000028000000290000007B
:1039100064050020274A010838B5214809F058F904
:10392000044609234FF4807206210090FA2008F023
:10393000F7F9002009F04CF904460723FC22194648
:103940000090104608F0ECF9002009F041F9044617
:103950000723FE2219460090104608F0E1F91048AE
:1039600009F036F90446112340F201120A210090B1
:10397000F92008F0D5F90A4809F02AF90446234647
:1039800007221221FA2008F0ABFA054809F020F9C5
:103990000446234603221321FC2008F0A1FA38BD77
:1039A0002176EE002DE9F84304460D4617461E46E3
:1039B000DDF820806FF07F4009F00AF981467B1E18
:1039C0009AB26B1C99B2631C98B24B4608F088FA05
:1039D0006FF07F4009F0FCF88146731E9AB26B1CB1
:1039E00099B2631C98B24B4608F054FB6FF07F40CD
:1039F00009F0EEF88146731E9AB26B1C99B2A31CB3
:103A000098B24B4608F046FB002009F0E1F88146E9
:103A10004B463A462946204608F062FA002009F053
:103A2000D7F881464B4632462946204608F032FBFD
:103A3000002009F0CDF88146E11988B24B463246A4
:103A4000294608F027FB002009F0C2F88146711CC6
:103A50008AB2E119491C88B24B46294608F01AFB84
:103A6000002009F0B5F88146781C82B2A81981B20D
:103A70004B46204608F034FA05EB060CACF1010C7D
:103A80001FFA8CF304EB070CACF1010C1FFA8CF25B
:103A900005F1020C1FFA8CF104F1030C1FFA8CF0F3
:103AA000CDF8008008F03CF9BDE8F88370B5044615
:103AB0006FF07F4009F08CF8054608F019F9012CE9
:103AC00006D0022C1BD0032C32D0042C60D146E04F
:103AD0004FF47F0009F07CF805462B460A2214219A
:103AE000084608F0FDF94FF47F0009F071F805462B
:103AF0002B460A220F21192008F0CCFA48E04FF497
:103B00007F0009F065F805462B460A2214214FF480
:103B1000967008F0E5F94FF47F0009F059F8054672
:103B20002B460A220F2140F2311008F0B3FA2FE0A1
:103B30004FF47F0009F04CF805462B460A22DC21A1
:103B4000142008F0CDF94FF47F0009F041F8054644
:103B50002B460A22D721192008F09CFA18E04FF4CE
:103B60007F0009F035F805462B460A22DC214FF488
:103B7000967008F0B5F94FF47F0009F029F8054672
:103B80002B460A22D72140F2311008F083FA00BFF9
:103B900000BF70BD10B501221021044803F0B0F938
:103BA00000F07CF800F022F810BD00000010014089
:103BB0001FB51020009001200290002001900220EB
:103BC00003906946014802F0F3FF1FBD0010014059
:103BD0001FB510200090012001900220039069463B
:103BE000014802F0E5FF1FBD0010014010B50024A0
:103BF000FFF7DEFF04E0601CC4B201200FF012FEEC
:103C000010210F4803F074F908B1642CF3DB642C25
:103C100001DB012010BD002404E0601CC4B20120BF
:103C20000FF000FE1021064803F062F908B9F02CED
:103C3000F3DBF02C01DB0120ECE70020EAE70000D9
:103C40000010014070B50024002520E0FFF7C0FF00
:103C500000221021104803F053F902200FF0E2FD7A
:103C6000012210210C4803F04BF9FFF7A1FF0A20B5
:103C70000FF0D8FD64101021074803F039F908B19E
:103C800044F080043C200FF0CDFD681CC5B2082D27
:103C9000DCDB204670BD00000010014010B5FFF7CE
:103CA00097FF00221021084803F02AF940F2EE2085
:103CB0000FF0B8FD01221021034803F021F90F2075
:103CC0000FF0B0FD10BD00000010014070B50446BB
:103CD000FFF77EFF002526E004F00106641086B1A0
:103CE00000221021114803F00BF902200FF09AFD79
:103CF000012210210D4803F003F93C200FF092FD42
:103D00000FE000221021094803F0FAF846200FF0D6
:103D100089FD01221021054803F0F2F802200FF07E
:103D200081FD681CC5B2082DD6DB70BD00100140B6
:103D3000704706E042F63D0100E0491E0029FCD133
:103D4000401E0028F6D1704706E00A2101E04A1E15
:103D5000D1B20029FBDC401E0028F6D170470000DC
:103D600003B587B0FE4808F033FF034629220690CA
:103D7000DDE9070108F0B4F8F94808F029FF0690DA
:103D80000898401E80B205900798401E80B20490AB
:103D90002C22DDE9051308F0A3F8F14808F018FF1C
:103DA00006900898801E80B205900798401E80B249
:103DB00004902E22DDE9051308F092F8E84808F097
:103DC00007FF06900898C01E80B205902E2201467B
:103DD000DDE9063008F084F8E14808F0F9FE0690C5
:103DE0000898001F80B205900798801C80B204904C
:103DF0002E22DDE9051308F073F8D94808F0E8FE33
:103E000006900898401F80B205900798233080B232
:103E100004900E22DDE9051308F062F8D04808F09E
:103E2000D7FE06900898801F80B20590079823302F
:103E300080B204900F22DDE9051308F051F8C8485C
:103E400008F0C6FE06900898C01F80B2059007983B
:103E5000233080B204900F22DDE9051308F040F80A
:103E6000BF4808F0B5FE06900898083880B2059063
:103E70000798243080B204900E22DDE9051308F083
:103E80002FF8B74808F0A4FE06900898093880B2C9
:103E900005900798243080B204900F22DDE90513C5
:103EA00008F01EF8AE4808F093FE069008980A380D
:103EB00080B205900798253080B204900E22DDE98B
:103EC000051308F00DF8A64808F082FE0690089841
:103ED0000B3880B205900798253080B204900E22EE
:103EE000DDE9051307F0FCFF9D4808F071FE069020
:103EF00008980C3880B205900798253080B204905D
:103F00000E22DDE9051307F0EBFF954808F060FE8F
:103F1000069008980D3880B205900798263080B238
:103F200004900E22DDE9051307F0DAFF8C4808F053
:103F30004FFE069008980E3880B2059007982530FD
:103F400080B204900F22DDE9051307F0C9FF844811
:103F500008F03EFE069008980F3880B2059007984A
:103F6000263080B204900E22DDE9051307F0B8FF79
:103F70007B4808F02DFE06900898103880B2059016
:103F80000798263080B204900E22DDE9051307F071
:103F9000A7FF734808F01CFE06900898113880B2FD
:103FA00005900798263080B204900F22DDE90513B2
:103FB00007F096FF6A4808F00BFE06900898123842
:103FC00080B205900798273080B204900E22DDE978
:103FD000051307F085FF624808F0FAFD069008987F
:103FE000133880B205900798273080B204900E22D3
:103FF000DDE9051307F074FF594808F0E9FD069064
:104000000898143880B205900798273080B2049041
:104010000F22DDE9051307F063FF514808F0D8FDD2
:1040200006900898153880B205900798283080B21D
:1040300004900E22DDE9051307F052FF484808F00E
:10404000C7FD06900898163880B20590079828306A
:1040500080B204900E22DDE9051307F041FF4048CD
:1040600008F0B6FD06900898173880B205900798BA
:10407000283080B204900E22DDE9051307F030FFEE
:10408000374808F0A5FD06900898183880B20590CA
:104090000798283080B204900E22DDE9051307F05E
:1040A0001FFF2F4808F094FD06900898193880B239
:1040B00005900798293080B204900D22DDE90513A0
:1040C00007F00EFF264808F083FD069008981A387E
:1040D00080B205900798293080B204900E22DDE965
:1040E000051307F0FDFE1E4808F072FD06900898C3
:1040F0001B3880B205900798293080B204900E22B8
:10410000DDE9051307F0ECFE154808F061FD0690A7
:1041100008981C3880B2059007982A3080B2049025
:104120000E22DDE9051307F0DBFE0D4808F050FD17
:10413000069008981D3880B2059007982A3080B202
:1041400004900E22DDE9051307F0CAFE044808F0CA
:104150003FFD069008981E3880B20590079801E050
:104160002176EE002A3080B204900E22DDE905139C
:1041700007F0B6FEFE4808F02BFD069008981F38A1
:1041800080B2059007982A3080B204900F22DDE9B2
:10419000051307F0A5FEF64808F01AFD06900898EA
:1041A000203880B2059007982A3080B204900F2200
:1041B000DDE9051307F094FEED4808F009FD0690CF
:1041C0000898213880B2059007982B3080B204906F
:1041D0000D22DDE9051307F083FEE54808F0F8FC41
:1041E00006900898223880B2059007982B3080B24C
:1041F00004900E22DDE9051307F072FEDC4808F09A
:10420000E7FC06900898233880B2059007982C3078
:1042100080B204900D22DDE9051307F061FED44859
:1042200008F0D6FC06900898243880B205900798CC
:104230002C3080B204900E22DDE9051307F050FE09
:10424000CB4808F0C5FC06900898253880B2059048
:1042500007982C3080B204900E22DDE9051307F098
:104260003FFEC34808F0B4FC06900898263880B298
:10427000059007982C3080B204900F22DDE90513D9
:1042800007F02EFEBA4808F0A3FC069008982738DD
:1042900080B2059007982C3080B204900F22DDE99F
:1042A000051307F01DFEB24808F092FC069008982E
:1042B000283880B2059007982D3080B204900E22E5
:1042C000DDE9051307F00CFEA94808F081FC069013
:1042D0000898293880B2059007982D3080B2049054
:1042E0000E22DDE9051307F0FBFDA14808F070FC84
:1042F000069008982A3880B2059007982D3080B231
:1043000004900F22DDE9051307F0EAFD984808F054
:104310005FFC069008982B3880B2059007982D30E6
:1043200080B204900F22DDE9051307F0D9FD904813
:1043300008F04EFC069008982C3880B2059007983B
:104340002E3080B204900E22DDE9051307F0C8FD7F
:10435000874808F03DFC069008982D3880B20590FB
:1043600007982E3080B204900E22DDE9051307F085
:10437000B7FD7F4808F02CFC069008982E3880B2D4
:10438000059007982E3080B204900F22DDE90513C6
:1043900007F0A6FD764808F01BFC069008982F3819
:1043A00080B2059007982F3080B204900E22DDE98C
:1043B000051307F095FD6E4808F00AFC0690089872
:1043C000303880B2059007982F3080B204900E22CA
:1043D000DDE9051307F084FD654808F0F9FB069058
:1043E0000898313880B2059007982F3080B2049039
:1043F0000F22DDE9051307F073FD5D4808F0E8FBC7
:1044000006900898323880B2059007982F3080B215
:1044100004900F22DDE9051307F062FD544808F00F
:10442000D7FB06900898333880B205900798303053
:1044300080B204900E22DDE9051307F051FD4C48CF
:1044400008F0C6FB06900898343880B205900798AB
:10445000303080B204900E22DDE9051307F040FDF4
:10446000434808F0B5FB06900898353880B20590AF
:104470000798303080B204900E22DDE9051307F072
:104480002FFD3B4808F0A4FB06900898363880B210
:1044900005900798313080B204900D22DDE90513B4
:1044A00007F01EFD324808F093FB06900898373855
:1044B00080B205900798313080B204900E22DDE979
:1044C000051307F00DFD2A4808F082FB06900090C6
:1044D0000898333880B205900798543080B2049021
:1044E0000898363880B203900798483080B202901E
:1044F00003A90EC907F014FC1D4808F069FB0690DB
:104500000898343880B205900798473080B20490FC
:104510000D22DDE9051307F0E3FC154808F058FB10
:104520000690009008982F3880B205900798533075
:1045300080B204900898333880B2039007984730CF
:1045400080B2029003A90EC907F0EAFB084808F000
:104550003FFB0690009008982C3880B20590079891
:10456000523080B2049008982F3880B2039001E056
:104570002176EE000798463080B2029003A90EC95A
:1045800007F0CEFBFE4808F023FB06900898283879
:1045900080B205900798443080B204900E22DDE985
:1045A000051307F09DFCF64808F012FB06900898EA
:1045B000273880B205900798453080B204900D22CC
:1045C000DDE9051307F08CFCED4808F001FB0690CF
:1045D0000898263880B205900798443080B204903D
:1045E0000D22DDE9051307F07BFCE54808F0F0FA41
:1045F00006900898253880B205900798443080B21C
:1046000004900C22DDE9051307F06AFCDC4808F091
:10461000DFFA069000900898213880B2059007983C
:10462000503080B204900898243880B203900798E4
:10463000433080B2029003A90EC907F071FBD04845
:1046400008F0C6FA06900898213880B205900798BD
:10465000433080B204900C22DDE9051307F040FCE2
:10466000C74808F0B5FA0690009008981D3880B247
:10467000059007984F3080B204900898203880B297
:1046800003900798423080B2029003A90EC907F048
:1046900047FBBB4808F09CFA069008981D3880B28A
:1046A00005900798423080B204900C22DDE9051392
:1046B00007F016FCB24808F08BFA069000900898B4
:1046C0001A3880B2059007984E3080B2049008984E
:1046D0001C3880B203900798413080B2029003A941
:1046E0000EC907F01DFBA64808F072FA069008985C
:1046F0001A3880B205900798413080B204900C229D
:10470000DDE9051307F0ECFB9D4808F061FA06901F
:1047100000900898163880B2059007984D3080B206
:1047200004900898193880B203900798403080B2FE
:10473000029003A90EC907F0F3FA914808F048FA6D
:1047400006900898163880B2059007983F3080B2DE
:1047500004900E22DDE9051307F0C2FB884808F03B
:1047600037FA069000900898133880B205900798A1
:104770004C3080B204900898153880B203900798A6
:104780003F3080B2029003A90EC907F0C9FA7C48F5
:1047900008F01EFA069000900898113880B2059033
:1047A00007984B3080B204900898133880B2039079
:1047B00007983F3080B2029003A90EC907F0B0FA03
:1047C0006F4808F005FA06900898113880B20590F5
:1047D00007983E3080B204900D22DDE9051307F002
:1047E0007FFB674808F0F4F90690009008980E38AF
:1047F00080B2059007984A3080B20490089810382B
:1048000080B2039007983E3080B2029003A90EC98F
:1048100007F086FA5A4808F0DBF9069000900898ED
:104820000B3880B2059007984A3080B204900898FF
:104830000E3880B2039007983D3080B2029003A9F1
:104840000EC907F06DFA4E4808F0C2F906900898B4
:104850000B3880B2059007983D3080B204900C224E
:10486000DDE9051307F03CFB454808F0B1F9069077
:1048700000900898C01F80B205900798493080B218
:10488000049008980A3880B2039007983C3080B2B0
:10489000029003A90EC907F043FA394808F098F9C5
:1048A000069000900898401F80B205900798483005
:1048B00080B204900898C01F80B2039007983B30E4
:1048C00080B2029003A90EC907F02AFA2C4808F01A
:1048D0007FF9069000900898C01E80B20590079856
:1048E000473080B204900898401F80B20390079828
:1048F0003A3080B2029003A90EC907F011FA20489D
:1049000008F066F906900898C01E80B205900798D6
:104910003A3080B204900E22DDE9051307F0E0FA88
:10492000174808F055F906900090089880B2059055
:104930000798473080B204900898801E80B2039098
:1049400007983A3080B2029003A90EC907F0E8F93F
:104950000B4808F03DF9069007983A3080B2059070
:104960000C22069B089907F0BBFA054808F030F9BD
:1049700006900898283880B205900798583001E0D2
:104980002176EE0080B204901722DDE9051307F0CE
:10499000A7FAFE4808F01CF906900898273880B25C
:1049A00005900798553080B204901B22DDE905136D
:1049B00007F096FAF54808F00BF9069008982638A3
:1049C00080B205900798543080B204901E22DDE931
:1049D000051307F085FAED4808F0FAF806900898F4
:1049E000253880B205900798533080B20490202279
:1049F000DDE9051307F074FAE44808F0E9F80690D9
:104A00000898243880B205900798533080B20490FB
:104A10000322DDE9051307F063FADC4808F0D8F853
:104A200006900898243880B205900798683080B2C4
:104A300004900C22DDE9051307F052FAD34808F080
:104A4000C7F806900898233880B20590079853302D
:104A500080B204900122DDE9051307F041FACB484A
:104A600008F0B6F806900898233880B205900798A9
:104A7000683080B204900C22DDE9051307F030FAAB
:104A8000C24808F0A5F80690009008981F3880B238
:104A900005900798743080B204900898223880B24C
:104AA00003900798683080B2029003A90EC907F0FE
:104AB00037F9B64808F08CF80690009008981C3832
:104AC00080B205900798743080B2049008981F381F
:104AD00080B203900798673080B2029003A90EC994
:104AE00007F01EF9A94808F073F8069008981C38DA
:104AF00080B205900798663080B204900D22DDE9FF
:104B0000051307F0EDF9A14808F062F8069008983F
:104B10001B3880B205900798673080B204900C2251
:104B2000DDE9051307F0DCF9984808F051F8069024
:104B300008981A3880B205900798663080B20490C1
:104B40000D22DDE9051307F0CBF9904808F040F895
:104B5000069000900898173880B205900798723038
:104B600080B204900898193880B203900798653095
:104B700080B2029003A90EC907F0D2F8834808F06A
:104B800027F8069000900898153880B2059007988D
:104B9000713080B204900898173880B2039007985B
:104BA000653080B2029003A90EC907F0B9F87748C2
:104BB00008F00EF8069000900898123880B2059020
:104BC0000798713080B204900898153880B203902D
:104BD0000798643080B2029003A90EC907F0A0F8CC
:104BE0006A4807F0F5FF0690009008980F3880B2E9
:104BF00005900798703080B204900898123880B2FF
:104C000003900798633080B2029003A90EC907F0A1
:104C100087F85E4807F0DCFF069008980F3880B2EE
:104C200005900798633080B204900C22DDE90513EB
:104C300007F056F9554807F0CBFF0690009008980A
:104C40000B3880B2059007986F3080B204900898B6
:104C50000E3880B203900798623080B2029003A9A8
:104C60000EC907F05DF8494807F0B2FF06900898B2
:104C70000B3880B205900798623080B204900C2205
:104C8000DDE9051307F02CF9404807F0A1FF069075
:104C900008980A3880B205900798613080B2049075
:104CA0000D22DDE9051307F01BF9384807F090FFE6
:104CB000069000900898401F80B2059007986D30CC
:104CC00080B204900898093880B203900798613048
:104CD00080B2029003A90EC907F022F82B4807F012
:104CE00077FF069000900898801E80B20590079884
:104CF0006C3080B204900898401F80B203900798EF
:104D0000603080B2029003A90EC907F009F81F486D
:104D100007F05EFF069000900898401C80B2059056
:104D200007986C3080B204900898801E80B203907F
:104D300007985F3080B2029003A90EC906F0F0FF19
:104D4000124807F045FF06900898383880B2059061
:104D500007987F3080B204900C22DDE9051307F03C
:104D6000BFF80A4807F034FF0690009008983438DE
:104D700080B2059007988B3080B20490089837383D
:104D800080B2039007987E3080B201E02176EE0079
:104D9000029003A90EC906F0C3FFFE4807F018FFF2
:104DA000069000900898323880B2059007988A30B3
:104DB00080B204900898343880B2039007987E300F
:104DC00080B2029003A90EC906F0AAFFF14807F0CD
:104DD000FFFE069000900898303880B20590079842
:104DE000893080B204900898323880B203900798D6
:104DF0007D3080B2029003A90EC906F091FFE5480C
:104E000007F0E6FE06900898303880B205900798C3
:104E10007C3080B204900D22DDE9051307F060F8C4
:104E2000DC4807F0D5FE069008982F3880B2059030
:104E300007987C3080B204900C22DDE9051307F05E
:104E40004FF8D44807F0C4FE069008982E3880B278
:104E5000059007987C3080B204900D22DDE905139F
:104E600007F03EF8CB4807F0B3FE069008982D38BF
:104E700080B2059007987C3080B204900C22DDE966
:104E8000051307F02DF8C34807F0A2FE0690009026
:104E900008982A3880B205900798883080B204902C
:104EA00008982C3880B2039007987B3080B202902B
:104EB00003A90EC906F034FFB64807F089FE069034
:104EC00000900898273880B205900798873080B204
:104ED000049008982A3880B2039007987B3080B2FB
:104EE000029003A90EC906F01BFFAA4807F070FE46
:104EF00006900898293880B205900798993080B2BA
:104F000004900C22DDE9051306F0EAFFA14807F042
:104F10005FFE06900898283880B205900798973071
:104F200080B204900D22DDE9051306F0D9FF9948FF
:104F300007F04EFE06900898273880B20590079833
:104F40007A3080B204900D22DDE9051306F0C8FF27
:104F5000904807F03DFE06900898273880B20590EB
:104F60000798963080B204900C22DDE9051306F014
:104F7000B7FF884807F02CFE069000900898243868
:104F800080B205900798863080B204900898263841
:104F900080B2039007987A3080B2029003A90EC9BC
:104FA00006F0BEFE7B4807F013FE069008982638F0
:104FB00080B205900798943080B204900D22DDE90C
:104FC000051306F08DFF734807F002FE069008985F
:104FD000253880B205900798933080B204900C2257
:104FE000DDE9051306F07CFF6A4807F0F1FD069045
:104FF00000900898213880B205900798863080B2DA
:1050000004900898243880B203900798793080B2D1
:10501000029003A90EC906F083FE5E4807F0D8FD92
:1050200006900898243880B205900798923080B294
:1050300004900C22DDE9051306F052FF554807F0F5
:10504000C7FD06900898233880B2059007989130E4
:1050500080B204900B22DDE9051306F041FF4D48B4
:1050600007F0B6FD06900898223880B205900798A0
:105070008F3080B204900C22DDE9051306F030FF7A
:10508000444807F0A5FD06900898213880B20590A5
:105090000798783080B204900D22DDE9051306F000
:1050A0001FFF3C4807F094FD06900898213880B215
:1050B000059007988D3080B204900D22DDE905132C
:1050C00006F00EFF334807F083FD0690089820385D
:1050D00080B205900798793080B204900C22DDE907
:1050E000051306F0FDFE2B4807F072FD06900898A8
:1050F000203880B2059007988C3080B204900C2242
:10510000DDE9051306F0ECFE224807F061FD06908C
:1051100008981F3880B205900798783080B20490C4
:105120000D22DDE9051306F0DBFE1A4807F050FDFD
:10513000069008981F3880B2059007988A3080B290
:1051400004900D22DDE9051306F0CAFE114807F0B0
:105150003FFD069008981E3880B205900798783079
:1051600080B204900C22DDE9051306F0B9FE09486F
:1051700007F02EFD069008981E3880B2059007981B
:10518000893080B204900D22DDE9051306F0A8FEF7
:10519000004801E02176EE0007F01AFD069008981D
:1051A0001D3880B205900798773080B204900D22A8
:1051B000DDE9051306F094FEFE4807F009FD0690B0
:1051C00008981D3880B205900798873080B2049007
:1051D0000F22DDE9051306F083FEF64807F0F8FC20
:1051E000069008981C3880B205900798773080B2F6
:1051F00004900C22DDE9051306F072FEED4807F07D
:10520000E7FC069008981C3880B205900798863015
:1052100080B204901022DDE9051306F061FEE54836
:1052200007F0D6FC069008981B3880B205900798C6
:10523000773080B204901F22DDE9051306F050FE9E
:10524000DC4807F0C5FC069008981A3880B2059033
:105250000798763080B204901F22DDE9051306F02E
:105260003FFED44807F0B4FC06900898193880B285
:1052700005900798763080B204902022DDE905136E
:1052800006F02EFECB4807F0A3FC069008981838CD
:1052900080B205900798763080B204902022DDE934
:1052A000051306F01DFEC34807F092FC069008980F
:1052B000173880B205900798753080B2049021228B
:1052C000DDE9051306F00CFEBA4807F081FC0690F4
:1052D0000898163880B205900798763080B204900E
:1052E0001322DDE9051306F0FBFDB24807F070FC60
:1052F00006900898163880B2059007988A3080B2D8
:1053000004900C22DDE9051306F0EAFDA94807F038
:105310005FFC06900898153880B2059007987530A4
:1053200080B204901322DDE9051306F0D9FDA148EF
:1053300007F04EFC06900898153880B20590079843
:105340008A3080B204900C22DDE9051306F0C8FD16
:10535000984807F03DFC06900898143880B20590F4
:105360000798753080B204901222DDE9051306F02B
:10537000B7FD904807F02CFC06900898143880B2CE
:10538000059007988A3080B204900D22DDE905135C
:1053900006F0A6FD874807F01BFC06900898133816
:1053A00080B205900798743080B204901122DDE934
:1053B000051306F095FD7F4807F00AFC0690089853
:1053C000133880B2059007988A3080B204900D227D
:1053D000DDE9051306F084FD764807F0F9FB069039
:1053E0000898123880B205900798743080B2049003
:1053F0001022DDE9051306F073FD6E4807F0E8FBA7
:1054000006900898123880B2059007988A3080B2CA
:1054100004900E22DDE9051306F062FD654807F0F1
:10542000D7FB06900898113880B205900798743021
:1054300080B204900E22DDE9051306F051FD5D48AF
:1054400007F0C6FB06900898113880B205900798BF
:105450008A3080B204900E22DDE9051306F040FD8B
:10546000544807F0B5FB06900898103880B20590B4
:105470000798743080B204900D22DDE9051306F020
:105480002FFD4C4807F0A4FB06900898103880B216
:10549000059007988A3080B204900E22DDE905134A
:1054A00006F01EFD434807F093FB06900090089815
:1054B0000C3880B205900798803080B2049008982C
:1054C0000F3880B203900798733080B2029003A91E
:1054D0000EC906F025FC374807F07AFB06900898BD
:1054E0000C3880B205900798733080B204900C227B
:1054F000DDE9051306F0F4FC2E4807F069FB069081
:1055000000900898083880B2059007987F3080B2E4
:10551000049008980B3880B203900798723080B2DC
:10552000029003A90EC906F0FBFB224807F050FBCE
:1055300006900898083880B205900798723080B2BB
:1055400004900C22DDE9051306F0CAFC194807F0A7
:105550003FFB069000900898001F80B205900798C6
:105560007E3080B204900898C01F80B203900798E4
:10557000713080B2029003A90EC906F0D1FB0D482C
:1055800007F026FB06900898001F80B20590079848
:10559000703080B204900E22DDE9051306F0A0FC05
:1055A000044807F015FB06900090089880B205901B
:1055B000079801E02176EE007D3080B204900898D3
:1055C000C01E80B203900798703080B2029003A989
:1055D0000EC906F0A5FBFE4807F0FAFA06900798F8
:1055E000703080B205900C22069B089906F078FC7A
:1055F000F74807F0EDFA0690009008980C3880B252
:1056000005900798983080B2049008980F3880B2BF
:10561000039007988B3080B2029003A90EC906F060
:105620007FFBEB4807F0D4FA0690009008980A3800
:1056300080B205900798993080B2049008980C3891
:1056400080B2039007988B3080B2029003A90EC9F4
:1056500006F066FBDE4807F0BBFA0690009008985B
:10566000C01F80B205900798993080B204900898C6
:105670000A3880B2039007988C3080B2029003A958
:105680000EC906F04DFBD24807F0A2FA0690009032
:105690000898001F80B2059007989A3080B2049055
:1056A0000898C01F80B2039007988C3080B2029097
:1056B00003A90EC906F034FBC54807F089FA069025
:1056C00000900898801E80B2059007989B3080B2A9
:1056D00004900898001F80B2039007988C3080B225
:1056E000029003A90EC906F01BFBB94807F070FA37
:1056F00006900898801E80B2059007988D3080B281
:1057000004900E22DDE9051306F0EAFBB04807F02D
:105710005FFA06900898401E80B2059007988F3077
:1057200080B204900C22DDE9051306F0D9FBA848ED
:1057300007F04EFA06900798913080B205900A2241
:10574000069B089906F0CCFBA14807F041FA0690A9
:105750000898293880B205900798AD3080B204903F
:105760002322DDE9051306F0BBFB994807F030FA68
:1057700006900898283880B205900798AB3080B220
:1057800004902722DDE9051306F0AAFB904807F0F4
:105790001FFA06900898273880B205900798A9301C
:1057A00080B204902922DDE9051306F099FB8848B0
:1057B00007F00EFA06900898263880B205900798F0
:1057C000A83080B204902B22DDE9051306F088FB97
:1057D0007F4807F0FDF906900898253880B20590BB
:1057E0000798A73080B204900D22DDE9051306F07A
:1057F00077FB774807F0ECF906900898253880B2D7
:1058000005900798C63080B204900D22DDE905139B
:1058100006F066FB6E4807F0DBF90690089824381E
:1058200080B205900798A63080B204900D22DDE981
:10583000051306F055FB664807F0CAF9069008986C
:10584000243880B205900798C73080B204900D22AA
:10585000DDE9051306F044FB5D4807F0B9F9069051
:105860000898233880B205900798A63080B204903B
:105870000C22DDE9051306F033FB554807F0A8F9C3
:1058800006900898233880B205900798C63080B2F9
:1058900004900E22DDE9051306F022FB4C4807F0C8
:1058A00097F906900898223880B205900798A5309D
:1058B00080B204900D22DDE9051306F011FB444887
:1058C00007F086F906900898223880B2059007986C
:1058D000C63080B204900E22DDE9051306F000FB0D
:1058E0003B4807F075F906900898213880B205907A
:1058F0000798A53080B204900D22DDE9051306F06B
:10590000EFFA334807F064F906900898213880B21E
:1059100005900798C63080B204900D22DDE905138A
:1059200006F0DEFA2A4807F053F906900898203866
:1059300080B205900798A53080B204900D22DDE971
:10594000051306F0CDFA224807F042F906900898B0
:10595000203880B205900798C63080B204900D229E
:10596000DDE9051306F0BCFA194807F031F9069095
:10597000009008981D3880B205900798B23080B228
:10598000049008981F3880B203900798A43080B222
:10599000029003A90EC906F0C3F90D4807F018F9E3
:1059A0000690009008981D3880B205900798D33073
:1059B00080B2049008981F3880B203900798C530D1
:1059C00080B2029003A90EC906F0AAF9004801E0CE
:1059D0002176EE0007F0FCF8069008981D3880B29A
:1059E00005900798A43080B204900D22DDE90513DC
:1059F00006F076FAFE4807F0EBF8069008981D3896
:105A000080B205900798C53080B204900D22DDE980
:105A1000051306F065FAF64807F0DAF806900090EC
:105A200008981A3880B205900798B13080B2049077
:105A300008981C3880B203900798A33080B2029077
:105A400003A90EC906F06CF9E94807F0C1F8069001
:105A5000009008981A3880B205900798D23080B22A
:105A6000049008981C3880B203900798C43080B224
:105A7000029003A90EC906F053F9DD4807F0A8F813
:105A8000069008981A3880B205900798A33080B223
:105A900004900D22DDE9051306F022FAD44807F040
:105AA00097F8069008981A3880B205900798C43085
:105AB00080B204900D22DDE9051306F011FACC48FE
:105AC00007F086F806900898193880B20590079874
:105AD000A23080B204900E22DDE9051306F000FA30
