:020000040800F2
:10000000702500204501000883C60008CD9800082F
:1000100065C60008E5110008E114010800000000B1
:1000200000000000000000000000000059CF0008A0
:10003000A13C000800000000C5CA000805D3000864
:100040005F0100085F0100085F0100080DCC000897
:100050005F0100085F0100085F0100085F01000800
:100060005F0100085F0100085F0100085F010008F0
:100070005F0100085F0100085F0100085F010008E0
:100080005F0100085F0100085F0100085F010008D0
:10009000291401085F0100085F0100085F010008E2
:1000A0005F0100085F0100085F0100085F010008B0
:1000B0009DD300085F0100085F0100085F01000890
:1000C0005F0100085F0100085F0100085F01000890
:1000D0005F0100085F0100085F0100085F01000880
:1000E0005F0100085F0100085F0100085F01000870
:1000F0005F0100085F0100085F0100085F01000860
:100100005F0100085F0100085F0100085F0100084F
:100110005F0100085F0100085F0100085F0100083F
:100120005F0100085F0100085F0100085F0100082F
:10013000DFF80CD000F020FD00480047E93A010844
:10014000702500200648804706480047FEE7FEE786
:10015000FEE7FEE7FEE7FEE7FEE7FEE7FEE7FEE777
:100160009BD30008310100082DE9F05F054600200F
:1001700092469B4688460646814640241BE0284618
:1001800041464746224600F020F853465A46C01AD8
:10019000914110D311461846224600F081FB2D1ADA
:1001A00067EB01084F4622460120002100F078FB52
:1001B00017EB00094E41201EA4F10104DFDC484684
:1001C00031462A464346BDE8F09F202A04DB203A08
:1001D00021FA02F00021704721FA02F3D040C2F167
:1001E0002002914008431946704740EA01039B07EB
:1001F00003D009E008C9121F08C0042AFAD203E09C
:1002000011F8013B00F8013B521EF9D27047D2B2FF
:1002100001E000F8012B491EFBD270470022F6E7EF
:1002200010B513460A4604461946FFF7F0FF20466C
:1002300010BD421E12F8013F002BFBD111F8013B0B
:1002400002F8013B002BF9D17047421C10F8011B4A
:100250000029FBD1801A704710B5002200E0521C23
:10026000835C8C5CA34201D1002BF8D1D8B2E1B2FF
:10027000401A10BD034611F8012B00F8012B002A8B
:10028000F9D11846704770B5064611F049FE04686A
:1002900005460A220021304600F072FB2C6070BD3A
:1002A000F0B480EA0102D40F4200B2EB410F02D257
:1002B0000246084611464A0042D0C30DDDB2C1F3E2
:1002C000C752AD1A202D35DAC1F3160141F40002F0
:1002D00004B15242C5F1200602FA06F12A41104447
:1002E000B3EBD05F23D0C4B1012DA0EBC35009DC28
:1002F000F0BC4FF0004202EAC352DBB200F500004E
:1003000000F07FBB400000F1807000EBC350A0F113
:10031000807040EAD170490009E0490841EAC071A3
:10032000A0EBC35000F50000400800EBC350F0BC48
:1003300000F05EBB6142012202EB4101001BF6E7C7
:10034000F0BC704781F00041AAE780F00040A7E7C9
:1003500080EA010210B502F00043400022D04A00BA
:100360001FD0010E01EB1261C0F35600C2F356021A
:1003700040F4000042F40002A0FB022000047F3998
:10038000140400D0401C50EA124001D44000491E21
:10039000C2B20C0604EBD010401C4008802A02D0E8
:1003A00003E0002010BD20F00100002900DA002049
:1003B000184310BD30B480EA010202F0004530F06D
:1003C000004221F0004013D090B1C30DD40DC2F310
:1003D0001601C0F31600E41A41F4000140F40002D3
:1003E0007D34914201D3641C00E04900002C02DA04
:1003F00030BC002070474FF400000023914201D32D
:10040000891A034340084FEA4101F7D151B19142A3
:1004100002D14FF0004105E002D24FF0010101E0AE
:100420006FF0010103EBC450284430BC00F0E0BA87
:100430002DE9FE4F804681EA0300C00F0C46009074
:1004400021F0004123F00045B8EB0200A94105D29C
:100450004046214690461C460B46024623F000408B
:10046000104347D0270DC7F30A00C3F30A51029087
:10047000401A019040286BDAC3F3130040F4801B4C
:100480000098924620B10023D2EB030A63EB0B0BDA
:1004900001985946C0F14002504600F001FA064664
:1004A0000D4650465946019A00F009FA10EB080033
:1004B0006141002487EA115284EAE7731A4340D06D
:1004C000009A62B3019A012A4FEA075215DC001B19
:1004D00061EB02014FF0004202EA0752CDE900420F
:1004E000001C41F5801132462B4600F0C7FA03B0DC
:1004F000BDE8F08F40462146F9E7001B61EB0201A1
:10050000001C41F5801300185B412018A2F500176C
:1005100047EB030140EAD570B6196D4111E06D0853
:100520004FEA360645EAC0754FEA0752001B61EBF9
:100530000201001C41F5801149084FEA3000001902
:10054000514132462B4603B0BDE8F04F00F087BA68
:100550000098012240000023D0EB020263EBE0731D
:10056000009821464FEAE074B8EB000061EB04010B
:10057000E9E783F000435BE781F0004158E72DE9AC
:10058000FE4F81EA030404F0004421F0004100948E
:100590004FF0000B23F0004350EA01045ED052EA12
:1005A00003045BD0C3F30A54C1F30A552C44A4F2EC
:1005B000F3340194A0FB0254C1F3130141F4801100
:1005C000C3F3130343F4801301FB024400FB034E07
:1005D000840A970A44EA815447EA8357A4FB0768D0
:1005E00002958D0A05FB07854FEA932C04FB0C54FA
:1005F0002705029D4FEA065847EA1637B5EB08056E
:100600006EEB070C870E920E47EA811742EA8312BF
:10061000A7FB0201B6EB0B0164EB00042B0D43EAD0
:100620000C335E1844EB1C50DA465146E7FB0201DE
:10063000C5F313044FEA0B3343EA14534FEA043271
:10064000019C43EA0603A4F10C040294009CCDE94A
:1006500000B400F013FA03B0BDE8F08F00200146AB
:10066000F9E72DE9F04D81EA030404F0004B21F095
:10067000004514464FF0000A23F0004150EA0502FD
:1006800020D054EA01021DD0C5F30A570246C5F333
:100690001303C1F31300C1F30A5640F4801543F469
:1006A0008013A7EB0608101BD64608F2FD3873EB43
:1006B000050002D308F1010801E092185B41B8F18E
:1006C000000F03DA00200146BDE8F08D00204FF452
:1006D0008011064684460EE0171B73EB050705D311
:1006E000121B63EB050306434CEA010C49084FEA71
:1006F000300092185B4150EA0107EDD152EA030045
:1007000012D082EA040083EA0501084305D0101BD9
:10071000AB4106D20122002306E000224FF0004345
:1007200002E06FF0010253101AEB06004CEB085187
:1007300010EB0A0041EB0B01BDE8F04D00F08FB962
:10074000C10F80EAE0700844CA079623002100F038
:1007500058B996230022114600F053B90EB5C10FC7
:1007600080EAE0700844CA07002140F233438DE874
:100770000E000A460B4600F081F903B000BD00F000
:10078000004220F00040C10DC0F3160040F400000C
:100790007F2901DA00207047962903DCC1F1960118
:1007A000C84001E096398840002AF4D040427047A2
:1007B00020F00040C10DC0F3160040F400007F2976
:1007C00001DA00207047962903DCC1F19601C84088
:1007D000704796398840704770B5C1F30A5201F0EE
:1007E00000450024C1F3130140F2FF3341F48011AE
:1007F0009A4201DA002070BD40F233439A42A2F2DD
:10080000334203DC5242FFF7E0FC00E090402C430F
:10081000F1D0404270BD00F0004230F000400AD0FC
:10082000C10D01F56071C0F3160042EA0151C20822
:1008300040071143704700200146704701F0004314
:1008400030B421F0004150EA010206D00A0DA2F5B1
:100850006072C1F31301002A02DC30BC0020704733
:10086000440F44EAC104C100E01830BC00EBC250A0
:1008700000F0BEB830B50B4601460020202201240E
:1008800009E021FA02F59D4205D303FA02F5491B5E
:1008900004FA02F52844151EA2F10102F1DC30BD74
:1008A000202A04DB203A00FA02F100207047914030
:1008B000C2F1200320FA03F3194390407047202A25
:1008C00006DBCB17203A41FA02F043EAE07306E078
:1008D00041FA02F3D040C2F1200291400843194688
:1008E000704700000FB4002300B589B00CA9009137
:1008F0000B996FF00042CB601E4B06931E4B079383
:100900000423CDE901321D4A089202466B460020BD
:1009100000F0D2F909B05DF814FB70B586B0064658
:100920004FF0FF300091CDE90101002015460C4643
:1009300004903246694604A8FFF7D4FF02460498A3
:10094000211825B108B1084600E020462860049827
:1009500000280DD0002A02DD0098884208D0081B2C
:100960000094CDE901043246694604A8FFF7BAFFB6
:1009700006B070BDF10E00080F0F0008A50B0008AF
:100980002DE9F04791460F4680460446002614F8AC
:10099000015B2DB100F002F90068405DC007F6D19F
:1009A0002B2D02D02D2D18D0641E4A4639462046E4
:1009B00000F0BEFA27B13968A14201D1C7F8008022
:1009C00071054FF002040BD54042002803DD11F001
:1009D000A7FA0460A007BDE8F08746F48066E4E764
:1009E0000028F8DA11F09CFA04606FF00040F2E79A
:1009F0000029A8BF7047401C490008BF20F0010033
:100A0000704710B4B0FA80FC00FA0CF050EA010410
:100A100004BF10BC704749B1CCF1200421FA04F4A2
:100A200011FA0CF118BF012121430843A3EB0C017B
:100A3000CB1D4FEA00614FEA102042BF002010BCDE
:100A4000704700EBC35010440029A4BF10BC70478E
:100A5000401C490008BF20F0010010BC704710B5D1
:100A6000141E73F1000408DA401C41F100019218D1
:100A70005B411A4301D120F0010010BD2DE9F04D7A
:100A800092469B4611B1B1FA81F202E0B0FA80F2CF
:100A900020329046FFF704FF04460F4640EA0A0062
:100AA00041EA0B0153465A46084313D0114653EA14
:100AB000010019D0C8F140025046FFF786FB0546F9
:100AC0000E46504659464246FFF7EAFE084305D017
:100AD000012004E020463946BDE8F08D00200543A2
:100AE00046EAE0762C4337430A986305E40AA0EB14
:100AF00008000022FD0A44EA47540A3002D50020CB
:100B00000146E9E7010510196941DDE908450019C9
:100B10006941BDE8F04DA2E7C1F30A52C1F31301E8
:100B200040F2FF3341F480119A4202DA002001467C
:100B3000704740F233439A42A2F2334202DC5242FF
:100B4000FFF743BBFFF7ACBE30B5041E71F10004E4
:100B500004DB4FF00044404264EB0101141E73F1CA
:100B6000000405DB1C464FF00043524263EB0403D4
:100B7000994208BF904230BD064C074D06E0E06840
:100B800040F0010394E8070098471034AC42F6D3D4
:100B9000FFF7D2FA746B0208946B020800487047A2
:100BA000706B020810B50446FFF7F8FF0068005D9F
:100BB00000F0010010BD00002DE9FF4F087881B062
:100BC0009946FF2805D0491C2D2804D00024002375
:100BD00008E000230BE00124F9E703EB830300EBBB
:100BE0004303491C0878FF28F7D104B15B42002079
:100BF0000090147801462D2C01D02B2C04D1521CCE
:100C00002D2C12D00024009400251678FF2E0ED033
:100C10000A24A0FB04C801FB0481002700FB071184
:100C2000521C16EB0C006941EFE70124EBE79944F5
:100C300050EA01020ED00024AA4D2646DFF8A88211
:100C400000F0D3F982468B46B9F1000009DAC9F108
:100C500000071BE001980021C0E9001105B0BDE8C4
:100C6000F08F074612E0F80707D022462B463046A1
:100C70004146FFF784FC0646884622462B4610462E
:100C80001946FFF77CFC04460D467F10002FEAD181
:100C9000B9F1000F324643465046594602DAFFF793
:100CA000E0FC01E0FFF76BFC009A0AB181F0004123
:100CB000019AC2E90001D1E72DE9FF4F1F468DB02F
:100CC000D7E901464FF0FF382E2045464FF0000986
:100CD0000B90B9696D1C0E988847396A824688471F
:100CE0000028F6D1BAF1FF3F0AD024F4D064002ED8
:100CF00011DDBAF12B0F08D0BAF12D0F0BD102E0A4
:100D0000404611B0ABE744F48064B9696D1C0E989D
:100D100088478246761E6946600501D52D2000E091
:100D20002B208DF8000001F1010B0DF1200809E0E6
:100D3000B9696D1C0E98884782460F9844F4007478
:100D4000761E0560002E02DDBAF1300FF0D00B994F
:100D50008A453ED144F0800406E00F99681CA9F151
:100D6000010944F400740860B9696D1C761E0E9880
:100D7000884782463028F0D02BE00B998A4505D170
:100D8000200603D444F08004761E18E0504611F08B
:100D90009FFA08B30DF11301761E44F400748B45DD
:100DA00008D2AAF130000BF8010B200607D5A9F1F3
:100DB000010003E0200602D409F101008146A005EC
:100DC00002D50F99681C0860B9696D1C0E98884798
:100DD0008246002ED1DC53E0002E51DDBAF1650FC2
:100DE00002D0BAF1450F4BD1A00549D5B9696D1CA8
:100DF00024F44074761E0E9888478246002E0CDD3F
:100E00002B2804D0BAF12D0F07D144F48074B969AE
:100E10006D1C0E9888478246761EE00501D52D216F
:100E200000E02B2108F8011BCDF82C8021E00DF10A
:100E30002901761E44F4007488450CD2AAF13000D2
:100E400010F0FF0088F8000002D10B99884509D9FD
:100E500008F1010806E0E00501D5244801E042F26E
:100E60000F708146B9696D1C0E98884782460F98AD
:100E70000560002E04DD504611F02AFA0028D6D174
:100E8000F9690E988847FF208BF8000088F8000069
:100E90000020069007904B466A4608A906A8FFF76F
:100EA0008BFEA00502D46FF001002AE714F0240F96
:100EB0000AD0E00714D1DDE906123868031D3B6053
:100EC0000068C0E900120BE0DDE90601FFF7B6FC9F
:100ED0000146E00704D13868021D3A6000680160ED
:100EE00028460EE7000024400000F03FF1D8FFFF45
:100EF000426842B1016811F8013B23B1521EC0E9BA
:100F00000012184670470121C160881E7047426870
:100F10005AB1C368016843B983688B4205D0491E42
:100F2000521CC0E90012002070474FF0FF3070479C
:100F30002DE9F05F82460078002715468B460AF1BE
:100F40000104B946302801D09DB113E014F8010B1B
:100F50000127782803D0582801D045B10AE00DB107
:100F6000102D07D10027102514F8010B02E00825E9
:100F700000E00A250026B0460EE005FB080005FB50
:100F800006F1012701EB10461FFA80F8B6F5803F05
:100F900000D3B94614F8010B294600F018F80028D0
:100FA000EBDABBF1000F05D00FB1641E00E0544630
:100FB000CBF80040B9F1000F06D010F0B1FF0221CC
:100FC0000160C81EBDE8F09F48EA0640FAE73A28EB
:100FD00000D2303820F02002412A01D3A2F137009C
:100FE000884201D34FF0FF3070470EB540F23342D4
:100FF00002920022CDE900221346FFF73FFD03B025
:1010000000BD70B58C1810F8015B15F0070301D115
:1010100010F8013B2A1106D110F8012B03E010F85B
:10102000016B01F8016B5B1EF9D12B0705D400237E
:10103000521E0DD401F8013BFAE710F8013BCB1A20
:10104000921C03E013F8015B01F8015B521EF9D515
:10105000A142D8D3002070BD70B504460025206899
:10106000806800F0010018B32068806820F001005B
:101070002168886005F002FF054613E005F0FEFEDA
:10108000401B02280ED92068806800F0010048B19A
:10109000A06A40F01000A062E06A40F00100E06247
:1010A000012070BD2068806800F001000028E5D1B3
:1010B0000020F6E738B5044600250020009020689F
:1010C000806800F0010078BB2068806840F0010073
:1010D00021688860194800681949B0FBF1F0009058
:1010E00002E00098401E009000980028F9D105F019
:1010F000C5FE054619E005F0C1FE401B022814D9C3
:101100002068806800F0010078B9A06A40F0100003
:10111000A062E06A40F00100E06200BF002084F8B5
:10112000240000BF012038BD05E02068806800F081
:1011300001000028DFD00020F5E700003401002086
:1011400040420F0010B500224FF48051014805F0D5
:101150008FFE10BD000C014010B5012211030248A2
:1011600005F086FE10BD0000000C014010B5012204
:10117000D102064805F07CFE0A2012F0C5FA0022D2
:101180004FF40061014805F073FE10BD000C0140F2
:101190001248407D05281DD2DFE800F003080D123B
:1011A000170032200E490968486314E03C200C49BE
:1011B000096848630FE046200949096848630AE066
:1011C000502007490968486305E06320044909681D
:1011D000486300E000BF00BF7047000064050020C6
:1011E000D404002000BFFEE710B50122042102480C
:1011F00005F03EFE10BD00000010014010B50022B9
:101200000421024805F034FE10BD0000001001402A
:1012100010B501220221024805F02AFE10BD00008F
:101220000010014010B500220221024805F020FE06
:1012300010BD00000010014010B50446392013F025
:101240006BF8E0B213F079F8C4F3072013F075F8E7
:10125000C4F3074013F071F8200E13F06EF813F08A
:101260004DF810F01BFE10BD2DE9F04107460E466B
:1012700014463C2013F050F8F0B213F05EF8301230
:1012800013F05BF813F03AF80CB10020208016E060
:1012900010F004FE05461E2D0ED1384600F06CF904
:1012A00005463D2013F038F813F028F82F4434B1E8
:1012B00020882844208002E02846BDE8F081E7E746
:1012C00010B50BF001FC08B100F082F8302000F0FE
:1012D000E4F810BD10B5312000F0DFF810BD10B5F6
:1012E00004462146362000F0CAF810BD10B5044669
:1012F00014B1204600F0F2F8342000F0CEF810BD12
:1013000070B50646304600F0D2F8054685B129464C
:10131000304600F024F80446412C09D0142C01D1A9
:10132000432070BD422C01D1B320FAE72046F8E7F4
:101330007019FFF7DBFFF4E710B50446204600F014
:10134000CDF820785C2802D020782F2803D1002106
:10135000642000F028F9322000F09FF810BD2DE93C
:10136000F04105460F460026012429E001E0601CFB
:10137000C4B2285D5C2805D0285D2F2802D0285DE6
:101380000028F4D1285D10B1601CC4B200E0002434
:10139000A819FFF7D1FF064684B1BC420ED0412EFA
:1013A0000AD0142E02D14320BDE8F081422E01D193
:1013B000B320F9E73046F7E7264601E03046F3E789
:1013C000D4E710B50446FF212046FFF7C8FF10BD43
:1013D00010B5222012F0A0FF322012F0B3F912F063
:1013E00091FF044612F08AFF204610BD2DE9F0411E
:1013F00012F088FF044612F085FF054612F082FFC6
:10140000064612F07FFF074612F078FF44EA0520F7
:1014100040EA064040EA0760BDE8F08170B5044646
:10142000272012F079FF12F06DFF0646054646B1FF
:1014300000BF12F067FF2070641C701EC0B2061E51
:10144000F7D112F05BFF284670BD10B504460C20A2
:1014500012F062FF204612F070FFFFF7C7FF10BDC9
:1014600070B504460A2012F057FF204612F065FFBF
:1014700012F048FF054612F041FF284670BD70B5D6
:1014800005460C46284612F047FF204612F055FF4D
:1014900012F034FF10F002FD70BD10B50446204676
:1014A00012F03AFF12F02AFF10F0F8FC10BD0246CD
:1014B000114600E0491C08780028FBD100E0491ED5
:1014C00008785C2804D008782F2801D09142F6D102
:1014D000914200D0491C881AC0B270472DE9F041F2
:1014E0000646012012F018FF12F00CFF43282BDAF9
:1014F0002B20FFF7B5FF102826DA2F2012F00CFF63
:10150000002012F01AFF3220FFF7C7FF0446142C08
:101510001AD1CF20FFF7A4FF0446ACB14C20FFF74F
:1015200094FF00EB042739464C2000F03CF8502093
:10153000FFF78BFF00EB04273946502000F033F80B
:101540000021702000F02FF82F2012F0E5FE3578F2
:10155000284612F0F2FE09E0761C35785C2D01D0A9
:101560002F2D00D10025284612F0E7FE002DF3D1E3
:1015700012F0C4FEBDE8F08170B504462D2012F0D3
:10158000CBFE12F0BFFE0646054646B100BF2078EE
:1015900012F0D3FE641C701EC0B2061EF7D112F00A
:1015A000ADFE284670BD70B505460C460D2012F004
:1015B000B3FE284612F0C1FEE0B212F0BEFEC4F344
:1015C000072012F0BAFEC4F3074012F0B6FE200E58
:1015D00012F0B3FE12F092FE70BD000010B50022B2
:1015E0001021024805F044FC10BD00000008014035
:1015F00010B501221021024805F03AFC10BD000090
:101600000008014010B501228021024805F030FC9D
:1016100010BD0000000C014010B5002280210248DE
:1016200005F026FC10BD0000000C014010B50122A1
:101630004021024805F01CFC10BD000000140140D0
:1016400010B500224021024805F012FC10BD000038
:101650000014014010B501225103024805F008FCB6
:1016600010BD00000014014010B500224FF40051DD
:10167000014805F0FDFB10BD0014014010B501222A
:101680001103024805F0F4FB10BD000000140140F6
:1016900010B500224FF48051014805F0E9FB10BD60
:1016A0000014014010B501221146024805F0E0FB8C
:1016B00010BD0000000C014010B5002201210248BD
:1016C00005F0D6FB10BD0000000C014010B5012252
:1016D0002021024805F0CCFB10BD000000100140A5
:1016E00010B500222021024805F0C2FB10BD000009
:1016F00000100140F0B504460D46FF22FF210023F3
:1017000019E0E05C4140002711E001F0010602F021
:10171000010C52104910BCF1000F01D041F08001C2
:101720001EB182F0A00281F00101781CC7B2082F1F
:10173000EBDB581CC3B2AB42E3DB41EA0220F0BD55
:1017400000207047002070472DE9F04106460F4603
:1017500001210C480DF0EFFE0B4908700948D0F844
:10176000B852002403E0285D08490855641C064867
:1017700000788442F7DB0120054908700020BDE8AD
:10178000F0810000E418002024020020E81B002063
:101790002502002033B50C4600252DE09DF80110F0
:1017A0009DF8030004F034FD05469DF80200204436
:1017B000A8421AD99DF80200281A241A9DF801009F
:1017C000401CC0B28DF8010000208DF802009DF889
:1017D00001000D2810D101208DF801009DF80300B3
:1017E000401CC0B28DF8030006E09DF802002044C2
:1017F000C0B28DF8020000E0D0E700BF0720B4FBC4
:10180000F0F100FB1140094909780844C0B28DF895
:1018100000009DF80000072805DB9DF80000C01FB0
:10182000C0B28DF8000000983CBD00000801002007
:1018300038B517480078012829DD6FF07F400BF09C
:1018400065F9044600200BF061F905461048009444
:101850000078801E692202EBC00081B22B469122E3
:101860000CA00AF0EFFB0A480078401E08490870F7
:10187000002107480078401E074A115404480078A8
:1018800006490978884202D100200449087038BD11
:101890005201002020000000EC060020530100202F
:1018A00038B5044600200BF031F9054614231A011F
:1018B000022100904FF49B700AF0D0F94FF46E4073
:1018C0000BF024F90546052340F23D120221009059
:1018D000101F0AF0C3F94FF46E400BF017F90546DC
:1018E00014231A01052100904FF49B700AF01EFB8F
:1018F0004FF46E400BF00AF90546132340F23F12F5
:101900000621009040F237100AF0A8F9192C0DDAE0
:1019100000200BF0FBF805460F2340F23F12062192
:10192000009040F237100AF099F924E0192C0FDBEF
:10193000322C0DDA00200BF0E9F805460C2340F2BA
:101940003F120621009040F237100AF087F912E0AA
:10195000322C0FDB4B2C0DDA00200BF0D7F80546AC
:10196000092340F23F120621009040F237100AF09E
:1019700075F900E000BF38BD38B500202549087072
:101980000BF0C4F804460AF051F9042001F022FFDC
:1019900000200BF0BBF804466FF07F400BF0B6F868
:1019A00005462B461E22C8211B4800940AF04AFB1C
:1019B00000200BF0ABF804466FF07F400BF0A6F868
:1019C00005462B461E22FA211348801D00940AF07A
:1019D00039FB00200BF09AF8044610480BF096F8FB
:1019E00005462B461E22C8210B480C3000940AF0F5
:1019F00029FB00200BF08AF8044608480BF086F813
:101A000005462B463422C8210348123000940AF0C0
:101A100019FB38BD45010020D24A010832F0F00020
:101A2000F8B5044600200BF071F805464FF47F002E
:101A30000BF06CF80646601E00EB400101EBC000A5
:101A40001E2101EB400082B233468C2102480095F2
:101A50000AF0F8FAF8BD0000F348010838B5002094
:101A60000BF054F8044614231A01022100904FF49D
:101A70009B700AF0F3F84FF46E400BF047F8044601
:101A800023460522022140F239100AF0A1FA4FF450
:101A90006E400BF03BF8044623460522022140F23B
:101AA0003D100AF095FA4FF46E400BF02FF8044603
:101AB00023460B2207214FF49B700AF0AFF94FF435
:101AC0006E400BF023F804460F234FF49F72082159
:101AD0000090901F0AF0C2F84FF46E400BF016F819
:101AE000044623460522102140F239100AF096F9E7
:101AF0004FF46E400BF00AF80446234603221121EE
:101B00004FF49D700AF08AF94FF46E400AF0FEFF20
:101B1000044623460422112140F23B100AF058FAF1
:101B200038BD00002DE9FC41484890F840000028ED
:101B300045D1002440E0621C45A101A810F0C0F985
:101B4000204604EBD0714910A4EB4101C9B100203B
:101B50000AF0DCFF064640480AF0D8FF074604EBCF
:101B6000D470401000EB400101EB00102A2101EB82
:101B7000400082B23B46A82101A800960AF062FA12
:101B800018E000200AF0C2FF064633480AF0BEFF04
:101B9000074604EBD470401000EB400101EB00104D
:101BA0002A2101EB400082B23B46082101A80096A1
:101BB0000AF048FA601CC4B2082CBCDB44E00024E4
:101BC00040E0621C22A101A810F07AF9204604EB43
:101BD000D0714910A4EB4101C9B100200AF096FF71
:101BE00006461D480AF092FF074604EBD4704010E9
:101BF00000EB400101EB00103D2101EB800082B2BF
:101C00003B46A82101A800960AF01CFA18E0002023
:101C10000AF07CFF064610480AF078FF074604EBFE
:101C2000D470401000EB400101EB00103D2101EBAE
:101C3000800082B23B46082101A800960AF002FA11
:101C4000601CC4B2042CBCDBBDE8FC816405002030
:101C5000253032643A00000032F0F00038B50C490B
:101C6000B1F9000000230522012107F031FE002018
:101C70000AF04CFF04464FF46E400AF047FF054659
:101C80002B4602226421034800940AF0DBF938BD98
:101C90009A010020E006002038B54FF46E400AF0AB
:101CA00035FF0446122340F20F1208210090501E07
:101CB00009F0D4FF4FF46E400AF028FF0446234693
:101CC000062207214FF486700AF0A8F84FF46E4000
:101CD0000AF01CFF044623460422062140F20D10A0
:101CE0000AF09CF84FF46E400AF010FF04462346B9
:101CF000022205214FF487700AF090F84FF46E40ED
:101D00000AF004FF04460F234FF48A720521009065
:101D1000501E09F0A3FF4FF46E400AF0F7FE044690
:101D200023460622102140F211100AF077F84FF4F2
:101D30006E400AF0EBFE04462346042211214FF4C4
:101D400089700AF06BF84FF46E400AF0DFFE04462B
:101D500023460222122140F213100AF05FF838BD28
:101D60007CB5012085490870854908706FF07F4077
:101D70000AF0CCFE0546F0234FF4A07282210090B9
:101D8000002009F06BFF6FF07F400AF0BFFE0546B0
:101D900000200AF0BBFE06467A490095097DC1EB9A
:101DA0000111794A02EB4100334691223C210AF0AD
:101DB00049F900200AF0AAFE0546A323C8228F2174
:101DC000009064200AF0B2F843F2FF300AF09EFE61
:101DD00005461A233C228C210090FF2001F09AFD39
:101DE00043F2FF300AF092FE05466FF07F400AF0A2
:101DF0008DFE064663490095097DC1EB0111624ADB
:101E000002EB4101881D334691224FF48C710AF098
:101E100019F943F2FF300AF079FE05461A233E22F3
:101E2000D2210090052001F075FD43F2FF300AF049
:101E30006DFE05466FF07F400AF068FE0646514988
:101E40000095097DC1EB01114F4A02EB410101F1FF
:101E50000C003346D72214210AF0F4F843F2FF3085
:101E60000AF054FE05461A233E22D2210090E120BA
:101E700001F050FD43F2FF300AF048FE05466FF0D6
:101E80007F400AF043FE06463E490095097DC1EBBE
:101E900001113D4A02EB410101F112003346D72204
:101EA000F0210AF0CFF800200AF030FE0546CA23E0
:101EB00040F23912AA210090072009F0CFFE002439
:101EC0002BE0621C31A101A80FF0FAFF4FF47F0054
:101ED0000AF01CFE054604EB04110722009002EBF9
:101EE00041001F231A46AA2101F014FD4FF47F0080
:101EF0000AF00CFE05466FF07F400AF007FE06462A
:101F000004EB0410132202EB40013346B12201A876
:101F100000950AF097F8601CC4B2092CD1DB0024AC
:101F200028E043F2FF300AF0F1FD054604EB04110E
:101F30005722009002EB41001F231A46CC2101F0EA
:101F4000E9FC43F2FF300AF0E1FD05466FF07F4007
:101F50000AF0DCFD064604EB0412632303EB4201A6
:101F60000B4A02EB44003346D32200950AF06AF88C
:101F7000601CC4B2032CD4DB7CBD000051010020E6
:101F80005201002064050020AC4C010825640000CB
:101F9000E84C010831B582B01A4800780A2830DAD6
:101FA0001948007818B19DF808002E2829D002A9F8
:101FB0001648FEF73EF96FF07F400AF0A7FD044691
:101FC00000200AF0A3FD05460E4800940078401E4C
:101FD000692202EBC00081B22B46912202A80AF0CE
:101FE00031F80948007838B99DF808002E2803D147
:101FF000044800780449087002480078401C0149F0
:1020000008703EBD5201002053010020EC06002064
:1020100010B500201449087014490870144908705C
:1020200014480078012806D0022807D0032808D0D9
:1020300004280CD108E001F0A7FA09E000F0C8FC80
:1020400006E000F02FFD03E0FFF796FC00E000BF84
:1020500000BF0848007808F09DF907480178054856
:10206000007800F00BF810BD520100205101002053
:1020700053010020460100204501002003B587B030
:102080000798012806D0022805D003287ED004280E
:102090007DD1E7E2B4E3FE480078012817D1FD487E
:1020A0000AF034FD039000200AF030FD02900398FE
:1020B0000090F9488078401E00EB8000F749084402
:1020C00001901E225021029B09F0BCFF16E0002067
:1020D0000AF01CFD0390EF480AF018FD02900398E7
:1020E0000090ED488078401E00EB8000EB490844EA
:1020F00001901E225021029B09F0A4FFE4480078C1
:1021000002281BD1E3480AF001FD039000200AF0E9
:10211000FDFC029003980090DF48007D00EB8000FA
:10212000DF4901EBC000DC49C97A00EBC100019036
:1021300034225021029B09F085FF1AE000200AF0AA
:10214000E5FC0390D3480AF0E1FC0290039800906C
:10215000D148007D00EB8000D14901EBC000CE49A1
:10216000C97A00EBC100019034225021029B09F092
:1021700069FFC948B0F90D00002305220121039031
:1021800007F0A6FBC2480078032801E01FE136E310
:1021900010D1C0480AF0BAFC039000200AF0B6FC47
:1021A0000290039800904A225021BE48029B09F0F9
:1021B00049FF0FE000200AF0A9FC0390B5480AF09F
:1021C000A5FC0290039800904A225021B548029B3A
:1021D00009F038FFB048B0F90F00002305220121B3
:1021E000039007F075FBAA480078042810D1A9488D
:1021F0000AF08CFC039000200AF088FC02900398FF
:10220000009060225021A748029B09F01BFF0FE0BD
:1022100000200AF07BFC03909E480AF077FC0290B5
:1022200003980090602250219E48029B09F00AFF0B
:1022300097480078052816D196480AF067FC039065
:1022400000200AF063FC0290039800909248807A84
:1022500000EB40009449084401901E22F021029BAB
:1022600009F0F0FE15E000200AF050FC03908948C8
:102270000AF04CFC0290039800908748807A00EBAB
:1022800040008949084401901E22F021029B09F078
:10229000D9FE7F48007806281DD17E480AF036FC1A
:1022A000039000200AF032FC0290039800907A48D4
:1022B000007D00EBC00101EB00107C490844764929
:1022C000097B01EB8101084401903422F021029B3B
:1022D00009F0B8FE1CE000200AF018FC03906D48DD
:1022E0000AF014FC0290039800906B48007D00EB0C
:1022F000C00101EB00106D4908446749097B01EBFF
:102300008101084401903422F021029B09F09AFED9
:102310005F480078072816D15E480AF0F7FB039063
:1023200000200AF0F3FB0290039800905A48407C8A
:1023300000EB80005E49084401904A22F021029B94
:1023400009F080FE15E000200AF0E0FB0390514800
:102350000AF0DCFB0290039800904F48407C00EBB1
:1023600080005349084401904A22F021029B09F061
:1023700069FE4948408A02464EA1039004A80FF026
:102380009FFD43480078082810D142480AF0BEFB60
:10239000039000200AF0BAFB02900398009060229C
:1023A000F02104A8029B09F04DFE0FE000200AF086
:1023B000ADFB039037480AF0A9FB02900398009008
:1023C0006022F02104A8029B09F03CFE18E230488C
:1023D0000078012817D12F480AF098FB03900020BD
:1023E0000AF094FB0290039800902B48007D00EBCC
:1023F0008000324901EB4000019082225021029B73
:1024000009F020FE16E000200AF080FB039021482E
:102410000AF07CFB0290039800901F48007D00EBBF
:102420008000264901EB4000019082225021029B4E
:1024300009F008FE16480078022817D115480AF05E
:1024400065FB039000200AF061FB02900398009066
:102450001148407D00EB8000194901EB40000190DC
:1024600094225021029B09F0EDFD31E000200AF09A
:102470004DFB039007480AF049FB02900398009037
:102480000548407D00EB80000D4901EB400019E05C
:102490004501002032F0F0006405002029490108C0
:1024A0007E490108E006002051490108CE49010893
:1024B0003C4A01082530346400000000EA4A010863
:1024C0001C4B0108019094225021029B09F0BAFD97
:1024D000CE48007803281FD1CD480AF017FB03909F
:1024E00000200AF013FB029003980090C948007D79
:1024F00000EBC00101EB0010C74901EB4000C549EA
:10250000897D01EB810100EB41000190A622502161
:10251000029B09F097FD1EE000200AF0F7FA0390F5
:10252000BB480AF0F3FA029003980090B948007D86
:1025300000EBC00101EB0010B74901EB4000B549C9
:10254000897D01EB810100EB41000190A622502121
:10255000029B09F077FDAD48007804281FD1AC48F4
:102560000AF0D4FA039000200AF0D0FA02900398FF
:102570000090A848007D00EBC00101EB0010A649C7
:1025800001EB4000A349097E01EB810100EB410012
:102590000190B8225021029B09F054FD1EE000205A
:1025A0000AF0B4FA03909A480AF0B0FA029003983D
:1025B00000909848007D00EBC00101EB00109649A7
:1025C00001EB40009349097E01EB810100EB4100E2
:1025D0000190B8225021029B09F034FD8B4800780D
:1025E00007281FD18A480AF091FA039000200AF0C8
:1025F0008DFA0290039800908648007D00EBC001A0
:1026000001EB0010854901EB40008249497E01EB56
:10261000810100EB41000190A622F021029B09F00C
:1026200011FD1EE000200AF071FA039078480AF0CC
:102630006DFA0290039800907648007D00EBC0018F
:1026400001EB0010754901EB40007249497E01EB36
:10265000810100EB41000190A622F021029B09F0CC
:10266000F1FCCDE06E480068002305221946039076
:1026700007F02EF900200AF049FA03904FF46E405B
:102680000AF044FA0290039800901E22FA2165484D
:10269000029B09F0D7FC62484068002304221946D7
:1026A000039007F015F900200AF030FA03904FF478
:1026B0006E400AF02BFA0290039800903422FA211F
:1026C0005848029B09F0BEFC50480078012810D100
:1026D0004F480AF01BFA039000200AF017FA029004
:1026E000039800901E2250214F48029B09F0AAFC3B
:1026F0000FE000200AF00AFA039045480AF006FAB3
:102700000290039800901E2250214748029B09F036
:1027100099FC3E480078022811D13D480AF0F6F9AC
:10272000039000200AF0F2F90290039800903422FE
:1027300050213D480F30029B09F084FC10E000203E
:102740000AF0E4F9039032480AF0E0F902900398A5
:1027500000903422502134480F30029B09F072FC63
:102760002A480078032811D129480AF0CFF90390AC
:1027700000200AF0CBF90290039800904A225021E1
:1027800029481E30029B09F05DFC10E000200AF091
:10279000BDF903901E480AF0B9F902900398009021
:1027A0004A22502120481E30029B09F04BFC17485A
:1027B0000078042811D116480AF0A8F903900020E7
:1027C0000AF0A4F902900398009060225021164864
:1027D0002D30029B09F036FC10E000200AF096F93B
:1027E00003900B480AF092F902900398009060223F
:1027F00050210D482D30029B09F024FC00E000BF61
:1028000000BF079807F0C6FD09B000BD45010020D4
:1028100032F0F000640500204E4B0108164C010810
:1028200010000020E0060020B7480108F8B500209D
:102830000AF06CF9054609F0F9F93E4890F84100B4
:1028400018B99621322001F043FA4FF4487010F085
:102850005BFF00200AF05AF9054609F0E7F9354810
:1028600090F8400078BB00242AE0002C07DD092CFA
:1028700005DA304A9178621ED0B207F0C3FA002020
:102880000AF044F905466FF07F400AF03FF906462A
:102890002849009591F8411001EB8101264B03EB8B
:1028A000811101EB441004EBC40149008A1C33463A
:1028B000022109F0C7FBC82001F0F3F9601CC4B283
:1028C0000A2CD2DB35E0FFE700242EE0002C09DDE6
:1028D000052C07DA174A9178621E5206100E07F08F
:1028E00091FA01E011F016F800200AF00FF9054600
:1028F0006FF07F400AF00AF906460E49009591F8FC
:10290000411001EB41010D4B03EB811101EB441030
:1029100004EBC40149008A1C3346022109F092FBF2
:10292000C82001F0BEF9601CC4B2062CCEDB10F04A
:10293000F1FFF8BD64050020074D0108874F01082D
:1029400038B54DF6DC400AF0E1F8044612234FF4A6
:10295000947209210090901F09F080F94DF6DC4037
:102960000AF0D4F8044623460622082140F2231038
:1029700009F054FA4DF6DC400AF0C8F80446234644
:10298000052207214FF4927009F048FA00200AF05E
:10299000BDF8044623460222092140F2231009F023
:1029A00017FB00200AF0B2F8044623460322082150
:1029B00040F2251009F00CFB00200AF0A7F80446AD
:1029C00023460322082140F2271009F001FB38BDFD
:1029D000F8B50020304908700AF098F8054609F06B
:1029E00025F9022000F0F6FE002451E0204604EB19
:1029F000D0714910A4EB410121B300200AF086F800
:102A0000064647F2CE100AF081F8074604EBD4716F
:102A1000491001EB410303EBC1011E2303EB41010C
:102A20008AB21E490096097D01EB81011C4B03EB24
:102A3000011104EB840301EB43003B46A82109F09C
:102A400001FB23E000200AF061F8064647F2CE10B1
:102A50000AF05CF8074604EBD471491001EB41031E
:102A600003EBC1011E2303EB41018AB20B4900961F
:102A7000097D01EB81010A4B03EB011104EB840397
:102A800001EB43003B46082109F0DCFA601CC4B2AC
:102A9000082CABDBF8BD00004501002064050020D8
:102AA00073460108F8B50020564908700AF02EF860
:102AB000054609F0BBF8032000F08CFE002420E05E
:102AC00000200AF023F8054647F2CE100AF01EF85F
:102AD00006464D490095097DC1EB0111C1EBC101CD
:102AE0004A4B03EB4101C4EB0413C81804EBC401C7
:102AF000162303EB41023346082109F0A3FA601CB8
:102B0000C4B20A2CDCDB002423E0002009F0FEFF25
:102B1000054647F2CE1009F0F9FF06463A490095FE
:102B2000097DC1EB0111C1EBC101384B03EB41033E
:102B300004F10A01C1EB01115818A11D01EBC101FB
:102B4000162303EB41023346A82109F07BFA601CEF
:102B5000C4B2032CD9DB002435E0022C18DA0020A3
:102B600009F0D4FF05466FF07F4009F0CFFF06461D
:102B700004EBC401162303EB410204EB8401244B54
:102B800003EB810033469021009509F05BFA18E0D1
:102B9000002009F0BBFF05466FF07F4009F0B6FF4B
:102BA0000646611C01EBC101162303EB410204EB55
:102BB0008401174B03EB810033469021009509F007
:102BC00041FA601CC4B2052CC7DB002009F09EFF4F
:102BD00005466FF07F4009F099FF064633463A22DA
:102BE000902109481A30009509F02CFA09480A4941
:102BF0000A8802808978817008480949096801605B
:102C0000F8BD0000450100206405002013470108BD
:102C10006E4A0108590100203C01002055010020A6
:102C20003801002038B5002009F070FF04466FF02D
:102C30007F4009F06BFF0546064900948978491EDC
:102C400001EB8101044A88182B4601225F2109F01B
:102C5000F9F938BD640500202949010800B587B09D
:102C600000200590FE4890F8400000287ED1069094
:102C70002EE20698049000EBD07041100498A0EB6F
:102C80004100002873D0F749069831F9100047F643
:102C9000FF71884245D10698401CF3490978884263
:102CA0001FD16FF07F4009F031FF0390002009F041
:102CB0002DFF0290039800900698049000EBD070CE
:102CC000401000EB400101EB00102A2101EB400015
:102CD00080B201900246D021E4A0029B09F050F995
:102CE000F2E1002009F012FF03906FF07F4009F03D
:102CF0000DFF0290039800900698049000EBD070AE
:102D0000401000EB400101EB00102A2101EB4000D4
:102D100080B201900246D021D4A0029B09F030F984
:102D2000D2E1D049069831F81020CD4830300699CC
:102D300000EB41000088104401B2CE4A069822F808
:102D400010101146069831F91000002305220121C8
:102D5000049006F0BDFDC749069831F91000C0493E
:102D6000B1F90D1088420BDCC24901E0B5E195E0F4
:102D7000069831F91000BA49B1F90F10884247DAC4
:102D8000012005900698401CB749097888421FD158
:102D90004FF47F0009F0BAFE0390002009F0B6FE60
:102DA0000290039800900698049000EBD0704010B9
:102DB00000EB400101EB00102A2101EB400080B242
:102DC00001900246D021AC48029B09F0D9F87BE182
:102DD000002009F09BFE03904FF47F0009F096FE5F
:102DE0000290039800900698049000EBD070401079
:102DF00000EB400101EB00102A2101EB400080B202
:102E000001900246D0219C48029B09F0B9F85BE191
:102E10000698401C9449097888421FD14FF46E40AF
:102E200009F074FE0390002009F070FE02900398F0
:102E300000900698049000EBD070401000EB400129
:102E400001EB00112A2000EB410080B20190024604
:102E5000D0218948029B09F093F835E1002009F060
:102E600055FE03904FF46E4009F050FE0290039817
:102E700000900698049000EBD070401000EB4001E9
:102E800001EB00102A2101EB400080B201900246C4
:102E9000D0217948029B09F073F815E17149069831
:102EA00031F9100047F6FF71884245D10698401C61
:102EB0006D49097888421FD16FF07F4009F026FEE6
:102EC0000390002009F022FE0290039800900698DB
:102ED000049000EBD070411001EB410000EB0110B9
:102EE0002A2101EB400080B20190024630215FA010
:102EF000029B09F045F8E7E0002009F007FE039087
:102F00006FF07F4009F002FE02900398009006984F
:102F1000049000EBD070411001EB410000EB011078
:102F20002A2101EB400080B20190024630214FA0DF
:102F3000029B09F025F8C7E04A49069831F81020AD
:102F400047483030069900EB41000088104401B238
:102F5000484A069822F810101146069831F91000D8
:102F6000002305220121049006F0B2FC4149069895
:102F700031F910003A49B1F90D10884208DC3D4999
:102F8000069831F910003649B1F90F10884247DA36
:102F9000012005900698401C3349097888421FD1CA
:102FA0004FF47F0009F0B2FD0390002009F0AEFD60
:102FB0000290039800900698049000EBD0704110A6
:102FC00001EB410000EB01102A2101EB400080B22F
:102FD0000190024630212848029B08F0D1FF73E09F
:102FE000002009F093FD03904FF47F0009F08EFD5F
:102FF0000290039800900698049000EBD070401067
:1030000000EB400101EB00102A2101EB400080B2EF
:103010000190024630211848029B08F0B1FF53E0AE
:103020000698401C1049097888422ED14FF46E4012
:1030300009F06CFD0390002009F068FD02900398F0
:1030400000900698049000EBD070401000EB400117
:1030500001EB00102A2101EB400080B201900DE04D
:103060006405002008070020450100202D2D2D2D8E
:103070002D2D0000A6050020E0060020024630218C
:10308000F748029B08F07CFF1EE0002009F03EFD9F
:1030900003904FF46E4009F039FD029003980090C0
:1030A0000698049000EBD070401000EB400101EB5B
:1030B00000102A2101EB400080B20190024630212D
:1030C000E748029B08F05CFF0698401CC0B20690DF
:1030D00006980828FFF6CDAD39E20020069032E2CE
:1030E0000698049000EBD07041100498A0EB4100CA
:1030F00000287DD006984000DA4931F9100047F6E3
:10310000FF71884247D10698401CD7490978884208
:1031100020D16FF07F4009F0F9FC0390002009F006
:10312000F5FC0290039800900698049000EBD07094
:10313000411001EB410000EB01103D2101EB80004B
:1031400080B201900246D021AFF2E000029B08F06D
:1031500017FFF4E1002009F0D9FC03906FF07F40E5
:1031600009F0D4FC0290039800900698049000EBBC
:10317000D070401000EB400101EB00103D2101EB4D
:10318000800080B201900246D021AFF22010029B55
:1031900008F0F6FED3E106984000B24931F810205D
:1031A000B248069900EB41000088104401B2B04AD1
:1031B000069822F810101146069831F910000023E5
:1031C00005220121049006F083FBA949069831F9F4
:1031D0001000A6493039B1F90D1088420BDCA44922
:1031E000069831F91000A1493039B1F90F1000E00B
:1031F0008FE0884247DA012005900698401C9A49E2
:10320000097888421FD14FF47F0009F07FFC0390BA
:10321000002009F07BFC029003980090069804902F
:1032200000EBD070411001EB410000EB01103D219B
:1032300001EB800080B201900246D0218848029BB9
:1032400008F09EFE7BE1002009F060FC03904FF443
:103250007F0009F05BFC02900398009006980490B0
:1032600000EBD070411001EB410000EB01113D205B
:1032700000EB810080B201900246D0217848029B89
:1032800008F07EFE5BE10698401C77490978884289
:103290001FD14FF46E4009F039FC0390002009F073
:1032A00035FC0290039800900698049000EBD070D3
:1032B000411001EB410000EB01103D2101EB8000CA
:1032C00080B201900246D0216548029B08F058FE6A
:1032D00035E1002009F01AFC03904FF46E4009F02C
:1032E00015FC0290039800900698049000EBD070B3
:1032F000401000EB400101EB00103D2101EB80008C
:1033000080B201900246D0215548029B08F038FE59
:1033100015E106984000534931F9100047F6FF7156
:10332000884247D10698401C4F490978884220D1ED
:103330006FF07F4009F0EAFB0390002009F0E6FB04
:103340000290039800900698049000EBD070401013
:1033500000EB400101EB00113D2000EB810080B249
:10336000019002463021AFF2FC20029B08F008FEDB
:10337000E5E0002009F0CAFB03906FF07F4009F000
:10338000C5FB0290039800900698049000EBD07063
:10339000411001EB410000EB01103D2101EB8000E9
:1033A00080B2019002463021AFF24030029B08F01B
:1033B000E7FDC4E0069840002A4931F810202B4868
:1033C000069900EB41000088104401B2284A069893
:1033D00022F810101146069831F91000002305223A
:1033E0000121049006F074FA2149069831F9100081
:1033F0001E493039B1F90D10884209DC1C49069884
:1034000031F9100019493039B1F90F10884251DAF9
:10341000012005900698401C13490978884229D15B
:103420004FF47F0009F072FB0390002009F06EFB5F
:103430000290039800900698049000EBD070411021
:1034400001EB410000EB01103D2101EB800080B257
:103450000190024630210248029B08F091FD6EE087
:10346000E006002008070020450100209405002008
:10347000A6050020002009F049FB03904FF47F00CF
:1034800009F044FB0290039800900698049000EB2A
:10349000D070401000EB400101EB00103D2101EB2A
:1034A000800080B20190024630213348029B08F030
:1034B00067FD44E00698401C3049097888421FD1D6
:1034C0004FF46E4009F022FB0390002009F01EFB30
:1034D0000290039800900698049000EBD070411081
:1034E00001EB410000EB01103D2101EB800080B2B7
:1034F0000190024630212048029B08F041FD1EE069
:10350000002009F003FB03904FF46E4009F0FEFA2F
:103510000290039800900698049000EBD070411040
:1035200001EB410000EB01103D2101EB800080B276
:103530000190024630211048029B08F021FD0698B8
:10354000401CC0B2069006980428FFF6C9AD059845
:10355000012808D10A48007B28B90122D102094874
:1035600003F086FC05E000224FF40061054803F0FB
:103570007FFC07B000BD0000E006002045010020F0
:1035800064050020000C014070B500202C49087033
:1035900009F0BCFA054608F049FB012000F01AF9D1
:1035A000FFF740FB00F030F9FEF7BCFA00242EE0F4
:1035B000244890F84000012817D1204604EBD07130
:1035C0004910A4EB410101BB6FF07F4009F09EFA66
:1035D0000546262204FB02F000F11E012B4640F2B4
:1035E0003F12012008F01AFC0FE06FF07F4009F055
:1035F0008DFA0546262204FB02F000F11E012B463F
:1036000040F23F12012008F009FC601CC4B2052CF6
:10361000CEDB002410E06FF07F4009F077FA05461A
:1036200004EB84014901491C88B22B4698221E21D3
:1036300008F0CEFC601CC4B2032CECDB70BD0000B3
:10364000450100206405002030B587B0514800785E
:10365000012802D003287CD136E04F494F4809F0B9
:10366000A1FA4D48807800904B48437802784CA1ED
:1036700004A80EF025FC494880780090474843781C
:10368000C2784BA101A80EF01BFC002009F03EFA05
:1036900004464C4809F03AFA05462B460122AA2175
:1036A00004A8009408F0CEFC002009F02FFA04468C
:1036B000444809F02BFA05462B46C022B42101A844
:1036C000009408F0BFFC61E03349344809F06AFA1D
:1036D0003D48807800903C484378027830A104A8A7
:1036E0000EF0EEFB39488078009038484378C27875
:1036F0002FA101A80EF0E4FB3548007805280FD172
:10370000304809F003FA0446002009F0FFF90546A5
:103710002B468222F02101A8009408F093FC0EE0D1
:10372000002009F0F3F90446264809F0EFF90546B0
:103730002B468222F02101A8009408F083FC244843
:103740000078062811D11F4809F0E0F9044600204E
:1037500000E01AE009F0DAF905462B469422F02140
:1037600004A8009408F06EFC0EE0002009F0CEF9E9
:103770000446144809F0CAF905462B469422F02164
:1037800004A8009408F05EFC00E000BF00BF07B092
:1037900030BD0000460100203C010020380100201F
:1037A000253032643A253032643A253032640000E4
:1037B0003230253032642D253032642D253032648C
:1037C0000000000032F0F0005901002055010020F7
:1037D00045010020F8B504464FF46E4009F096F913
:1037E0000546002009F092F90646611EC1EB011161
:1037F000044A8818334601221146009508F022FC3D
:10380000F8BD0000DD45010838B5002009F07EF95B
:1038100004466FF07F4009F079F905462B460322F4
:103820007F2115A0009408F00DFC002009F06EF92E
:1038300004466FF07F4009F069F905462B460322E4
:103840009F210EA0009408F0FDFB002009F05EF916
:1038500004466FF07F4009F059F905460849009485
:10386000897A01EB4101074A88182B4601228F21F2
:1038700008F0E8FB38BD0000280000002900000027
:10388000640500205149010838B5214809F03EF986
:10389000044609234FF4807206210090FA2008F0B4
:1038A000DDF9002009F032F904460723FC2219460D
:1038B0000090104608F0D2F9002009F027F90446DC
:1038C0000723FE2219460090104608F0C7F9104859
:1038D00009F01CF90446112340F201120A2100905C
:1038E000F92008F0BBF90A4809F010F9044623460C
:1038F00007221221FA2008F091FA054809F006F98A
:103900000446234603221321FC2008F087FA38BD21
:103910002176EE002DE9F84304460D4617461E4673
:10392000DDF820806FF07F4009F0F0F881467B1EC3
:103930009AB26B1C99B2631C98B24B4608F06EFAAF
:103940006FF07F4009F0E2F88146731E9AB26B1C5B
:1039500099B2631C98B24B4608F03AFB6FF07F4077
:1039600009F0D4F88146731E9AB26B1C99B2A31C5D
:1039700098B24B4608F02CFB002009F0C7F88146AE
:103980004B463A462946204608F048FA002009F0FE
:10399000BDF881464B4632462946204608F018FBC2
:1039A000002009F0B3F88146E11988B24B4632464F
:1039B000294608F00DFB002009F0A8F88146711C8B
:1039C0008AB2E119491C88B24B46294608F000FB2F
:1039D000002009F09BF88146781C82B2A81981B2B8
:1039E0004B46204608F01AFA05EB060CACF1010C28
:1039F0001FFA8CF304EB070CACF1010C1FFA8CF2EC
:103A000005F1020C1FFA8CF104F1030C1FFA8CF083
:103A1000CDF8008008F022F9BDE8F88370B50446BF
:103A20006FF07F4009F072F8054608F0FFF8012CAE
:103A300006D0022C1BD0032C32D0042C60D146E0DF
:103A40004FF47F0009F062F805462B460A22142144
:103A5000084608F0E3F94FF47F0009F057F80546EF
:103A60002B460A220F21192008F0B2FA48E04FF441
:103A70007F0009F04BF805462B460A2214214FF42B
:103A8000967008F0CBF94FF47F0009F03FF8054637
:103A90002B460A220F2140F2311008F099FA2FE04C
:103AA0004FF47F0009F032F805462B460A22DC214C
:103AB000142008F0B3F94FF47F0009F027F8054609
:103AC0002B460A22D721192008F082FA18E04FF479
:103AD0007F0009F01BF805462B460A22DC214FF433
:103AE000967008F09BF94FF47F0009F00FF8054637
:103AF0002B460A22D72140F2311008F069FA00BFA4
:103B000000BF70BD10B501221021044803F0B0F9C8
:103B100000F07CF800F022F810BD00000010014019
:103B20001FB510200090012002900020019002207B
:103B300003906946014802F0F3FF1FBD00100140E9
:103B40001FB51020009001200190022003906946CB
:103B5000014802F0E5FF1FBD0010014010B5002430
:103B6000FFF7DEFF04E0601CC4B201200FF0EAFDA5
:103B700010210F4803F074F908B1642CF3DB642CB6
:103B800001DB012010BD002404E0601CC4B2012050
:103B90000FF0D8FD1021064803F062F908B9F02CA7
:103BA000F3DBF02C01DB0120ECE70020EAE700006A
:103BB0000010014070B50024002520E0FFF7C0FF91
:103BC00000221021104803F053F902200FF0BAFD33
:103BD000012210210C4803F04BF9FFF7A1FF0A2046
:103BE0000FF0B0FD64101021074803F039F908B157
:103BF00044F080043C200FF0A5FD681CC5B2082DE0
:103C0000DCDB204670BD00000010014010B5FFF75E
:103C100097FF00221021084803F02AF940F2EE2015
:103C20000FF090FD01221021034803F021F90F202D
:103C30000FF088FD10BD00000010014070B5044673
:103C4000FFF77EFF002526E004F00106641086B130
:103C500000221021114803F00BF902200FF072FD31
:103C6000012210210D4803F003F93C200FF06AFDFA
:103C70000FE000221021094803F0FAF846200FF067
:103C800061FD01221021054803F0F2F802200FF037
:103C900059FD681CC5B2082DD6DB70BD001001406F
:103CA000704706E042F63D0100E0491E0029FCD1C4
:103CB000401E0028F6D1704706E00A2101E04A1EA6
:103CC000D1B20029FBDC401E0028F6D1704700006D
:103CD00003B587B0FE4808F019FF03462922069075
:103CE000DDE9070108F09AF8F94808F00FFF06909F
:103CF0000898401E80B205900798401E80B204903C
:103D00002C22DDE9051308F089F8F14808F0FEFEE1
:103D100006900898801E80B205900798401E80B2D9
:103D200004902E22DDE9051308F078F8E84808F041
:103D3000EDFE06900898C01E80B205902E22014626
:103D4000DDE9063008F06AF8E14808F0DFFE069089
:103D50000898001F80B205900798801C80B20490DC
:103D60002E22DDE9051308F059F8D94808F0CEFEF7
:103D700006900898401F80B205900798233080B2C3
:103D800004900E22DDE9051308F048F8D04808F049
:103D9000BDFE06900898801F80B2059007982330DA
:103DA00080B204900F22DDE9051308F037F8C84807
:103DB00008F0ACFE06900898C01F80B205900798E6
:103DC000233080B204900F22DDE9051308F026F8B5
:103DD000BF4808F09BFE06900898083880B205900E
:103DE0000798243080B204900E22DDE9051308F014
:103DF00015F8B74808F08AFE06900898093880B28E
:103E000005900798243080B204900F22DDE9051355
:103E100008F004F8AE4808F079FE069008980A38D1
:103E200080B205900798253080B204900E22DDE91B
:103E3000051307F0F3FFA64808F068FE06900898FF
:103E40000B3880B205900798253080B204900E227E
:103E5000DDE9051307F0E2FF9D4808F057FE0690E4
:103E600008980C3880B205900798253080B20490ED
:103E70000E22DDE9051307F0D1FF954808F046FE54
:103E8000069008980D3880B205900798263080B2C9
:103E900004900E22DDE9051307F0C0FF8C4808F0FE
:103EA00035FE069008980E3880B2059007982530A8
:103EB00080B204900F22DDE9051307F0AFFF8448BC
:103EC00008F024FE069008980F3880B205900798F5
:103ED000263080B204900E22DDE9051307F09EFF24
:103EE0007B4808F013FE06900898103880B20590C1
:103EF0000798263080B204900E22DDE9051307F002
:103F00008DFF734808F002FE06900898113880B2C1
:103F100005900798263080B204900F22DDE9051342
:103F200007F07CFF6A4808F0F1FD06900898123807
:103F300080B205900798273080B204900E22DDE908
:103F4000051307F06BFF624808F0E0FD0690089843
:103F5000133880B205900798273080B204900E2263
:103F6000DDE9051307F05AFF594808F0CFFD069028
:103F70000898143880B205900798273080B20490D2
:103F80000F22DDE9051307F049FF514808F0BEFD97
:103F900006900898153880B205900798283080B2AE
:103FA00004900E22DDE9051307F038FF484808F0B9
:103FB000ADFD06900898163880B205900798283015
:103FC00080B204900E22DDE9051307F027FF404878
:103FD00008F09CFD06900898173880B20590079865
:103FE000283080B204900E22DDE9051307F016FF99
:103FF000374808F08BFD06900898183880B2059075
:104000000798283080B204900E22DDE9051307F0EE
:1040100005FF2F4808F07AFD06900898193880B2FD
:1040200005900798293080B204900D22DDE9051330
:1040300007F0F4FE264808F069FD069008981A3843
:1040400080B205900798293080B204900E22DDE9F5
:10405000051307F0E3FE1E4808F058FD0690089887
:104060001B3880B205900798293080B204900E2248
:10407000DDE9051307F0D2FE154808F047FD06906C
:1040800008981C3880B2059007982A3080B20490B6
:104090000E22DDE9051307F0C1FE0D4808F036FDDC
:1040A000069008981D3880B2059007982A3080B293
:1040B00004900E22DDE9051307F0B0FE044808F075
:1040C00025FD069008981E3880B20590079801E0FB
:1040D0002176EE002A3080B204900E22DDE905132D
:1040E00007F09CFEFE4808F011FD069008981F3866
:1040F00080B2059007982A3080B204900F22DDE943
:10410000051307F08BFEF64808F000FD06900898AE
:10411000203880B2059007982A3080B204900F2290
:10412000DDE9051307F07AFEED4808F0EFFC069094
:104130000898213880B2059007982B3080B20490FF
:104140000D22DDE9051307F069FEE54808F0DEFC05
:1041500006900898223880B2059007982B3080B2DC
:1041600004900E22DDE9051307F058FEDC4808F044
:10417000CDFC06900898233880B2059007982C3023
:1041800080B204900D22DDE9051307F047FED44804
:1041900008F0BCFC06900898243880B20590079877
:1041A0002C3080B204900E22DDE9051307F036FEB4
:1041B000CB4808F0ABFC06900898253880B20590F3
:1041C00007982C3080B204900E22DDE9051307F029
:1041D00025FEC34808F09AFC06900898263880B25D
:1041E000059007982C3080B204900F22DDE905136A
:1041F00007F014FEBA4808F089FC069008982738A2
:1042000080B2059007982C3080B204900F22DDE92F
:10421000051307F003FEB24808F078FC06900898F2
:10422000283880B2059007982D3080B204900E2275
:10423000DDE9051307F0F2FDA94808F067FC0690D8
:104240000898293880B2059007982D3080B20490E4
:104250000E22DDE9051307F0E1FDA14808F056FC48
:10426000069008982A3880B2059007982D3080B2C1
:1042700004900F22DDE9051307F0D0FD984808F0FF
:1042800045FC069008982B3880B2059007982D3091
:1042900080B204900F22DDE9051307F0BFFD9048BE
:1042A00008F034FC069008982C3880B205900798E6
:1042B0002E3080B204900E22DDE9051307F0AEFD2A
:1042C000874808F023FC069008982D3880B20590A6
:1042D00007982E3080B204900E22DDE9051307F016
:1042E0009DFD7F4808F012FC069008982E3880B299
:1042F000059007982E3080B204900F22DDE9051357
:1043000007F08CFD764808F001FC069008982F38DD
:1043100080B2059007982F3080B204900E22DDE91C
:10432000051307F07BFD6E4808F0F0FB0690089837
:10433000303880B2059007982F3080B204900E225A
:10434000DDE9051307F06AFD654808F0DFFB06901C
:104350000898313880B2059007982F3080B20490C9
:104360000F22DDE9051307F059FD5D4808F0CEFB8B
:1043700006900898323880B2059007982F3080B2A6
:1043800004900F22DDE9051307F048FD544808F0BA
:10439000BDFB06900898333880B2059007983030FE
:1043A00080B204900E22DDE9051307F037FD4C487A
:1043B00008F0ACFB06900898343880B20590079856
:1043C000303080B204900E22DDE9051307F026FD9F
:1043D000434808F09BFB06900898353880B205905A
:1043E0000798303080B204900E22DDE9051307F003
:1043F00015FD3B4808F08AFB06900898363880B2D5
:1044000005900798313080B204900D22DDE9051344
:1044100007F004FD324808F079FB06900898373819
:1044200080B205900798313080B204900E22DDE909
:10443000051307F0F3FC2A4808F068FB069000908B
:104440000898333880B205900798543080B20490B1
:104450000898363880B203900798483080B20290AE
:1044600003A90EC907F0FAFB1D4808F04FFB0690A0
:104470000898343880B205900798473080B204908D
:104480000D22DDE9051307F0C9FC154808F03EFBD5
:104490000690009008982F3880B205900798533006
:1044A00080B204900898333880B203900798473060
:1044B00080B2029003A90EC907F0D0FB084808F0AB
:1044C00025FB0690009008982C3880B2059007983C
:1044D000523080B2049008982F3880B2039001E0E7
:1044E0002176EE000798463080B2029003A90EC9EB
:1044F00007F0B4FBFE4808F009FB0690089828383E
:1045000080B205900798443080B204900E22DDE915
:10451000051307F083FCF64808F0F8FA06900898AF
:10452000273880B205900798453080B204900D225C
:10453000DDE9051307F072FCED4808F0E7FA069094
:104540000898263880B205900798443080B20490CD
:104550000D22DDE9051307F061FCE54808F0D6FA05
:1045600006900898253880B205900798443080B2AC
:1045700004900C22DDE9051307F050FCDC4808F03C
:10458000C5FA069000900898213880B205900798E7
:10459000503080B204900898243880B20390079875
:1045A000433080B2029003A90EC907F057FBD048F0
:1045B00008F0ACFA06900898213880B20590079868
:1045C000433080B204900C22DDE9051307F026FC8D
:1045D000C74808F09BFA0690009008981D3880B2F2
:1045E000059007984F3080B204900898203880B228
:1045F00003900798423080B2029003A90EC907F0D9
:104600002DFBBB4808F082FA069008981D3880B24E
:1046100005900798423080B204900C22DDE9051322
:1046200007F0FCFBB24808F071FA06900090089879
:104630001A3880B2059007984E3080B204900898DE
:104640001C3880B203900798413080B2029003A9D1
:104650000EC907F003FBA64808F058FA0690089820
:104660001A3880B205900798413080B204900C222D
:10467000DDE9051307F0D2FB9D4808F047FA0690E4
:1046800000900898163880B2059007984D3080B297
:1046900004900898193880B203900798403080B28F
:1046A000029003A90EC907F0D9FA914808F02EFA32
:1046B00006900898163880B2059007983F3080B26F
:1046C00004900E22DDE9051307F0A8FB884808F0E6
:1046D0001DFA069000900898133880B2059007984C
:1046E0004C3080B204900898153880B20390079837
:1046F0003F3080B2029003A90EC907F0AFFA7C48A0
:1047000008F004FA069000900898113880B20590DD
:1047100007984B3080B204900898133880B2039009
:1047200007983F3080B2029003A90EC907F096FAAD
:104730006F4808F0EBF906900898113880B20590A0
:1047400007983E3080B204900D22DDE9051307F092
:1047500065FB674808F0DAF90690009008980E3873
:1047600080B2059007984A3080B2049008981038BB
:1047700080B2039007983E3080B2029003A90EC920
:1047800007F06CFA5A4808F0C1F9069000900898B2
:104790000B3880B2059007984A3080B20490089890
:1047A0000E3880B2039007983D3080B2029003A982
:1047B0000EC907F053FA4E4808F0A8F90690089879
:1047C0000B3880B2059007983D3080B204900C22DF
:1047D000DDE9051307F022FB454808F097F906903C
:1047E00000900898C01F80B205900798493080B2A9
:1047F000049008980A3880B2039007983C3080B241
:10480000029003A90EC907F029FA394808F07EF989
:10481000069000900898401F80B205900798483095
:1048200080B204900898C01F80B2039007983B3074
:1048300080B2029003A90EC907F010FA2C4808F0C4
:1048400065F9069000900898C01E80B20590079800
:10485000473080B204900898401F80B203900798B8
:104860003A3080B2029003A90EC907F0F7F9204848
:1048700008F04CF906900898C01E80B20590079881
:104880003A3080B204900E22DDE9051307F0C6FA33
:10489000174808F03BF906900090089880B2059000
:1048A0000798473080B204900898801E80B2039029
:1048B00007983A3080B2029003A90EC907F0CEF9EA
:1048C0000B4808F023F9069007983A3080B205901B
:1048D0000C22069B089907F0A1FA054808F016F982
:1048E00006900898283880B205900798583001E063
:1048F0002176EE0080B204901722DDE9051307F05F
:104900008DFAFE4808F002F906900898273880B220
:1049100005900798553080B204901B22DDE90513FD
:1049200007F07CFAF54808F0F1F806900898263868
:1049300080B205900798543080B204901E22DDE9C1
:10494000051307F06BFAED4808F0E0F806900898B8
:10495000253880B205900798533080B20490202209
:10496000DDE9051307F05AFAE44808F0CFF806909D
:104970000898243880B205900798533080B204908C
:104980000322DDE9051307F049FADC4808F0BEF818
:1049900006900898243880B205900798683080B255
:1049A00004900C22DDE9051307F038FAD34808F02B
:1049B000ADF806900898233880B2059007985330D8
:1049C00080B204900122DDE9051307F027FACB48F5
:1049D00008F09CF806900898233880B20590079854
:1049E000683080B204900C22DDE9051307F016FA56
:1049F000C24808F08BF80690009008981F3880B2E3
:104A000005900798743080B204900898223880B2DC
:104A100003900798683080B2029003A90EC907F08E
:104A20001DF9B64808F072F80690009008981C38F6
:104A300080B205900798743080B2049008981F38AF
:104A400080B203900798673080B2029003A90EC924
:104A500007F004F9A94808F059F8069008981C389E
:104A600080B205900798663080B204900D22DDE98F
:104A7000051307F0D3F9A14808F048F80690089804
:104A80001B3880B205900798673080B204900C22E2
:104A9000DDE9051307F0C2F9984808F037F80690E9
:104AA00008981A3880B205900798663080B2049052
:104AB0000D22DDE9051307F0B1F9904808F026F85A
:104AC000069000900898173880B2059007987230C9
:104AD00080B204900898193880B203900798653026
:104AE00080B2029003A90EC907F0B8F8834808F015
:104AF0000DF8069000900898153880B20590079838
:104B0000713080B204900898173880B203900798EB
:104B1000653080B2029003A90EC907F09FF877486C
:104B200007F0F4FF069000900898123880B20590C4
:104B30000798713080B204900898153880B20390BD
:104B40000798643080B2029003A90EC907F086F876
:104B50006A4807F0DBFF0690009008980F3880B293
:104B600005900798703080B204900898123880B28F
:104B700003900798633080B2029003A90EC907F032
:104B80006DF85E4807F0C2FF069008980F3880B2B3
:104B900005900798633080B204900C22DDE905137C
:104BA00007F03CF9554807F0B1FF069000900898CF
:104BB0000B3880B2059007986F3080B20490089847
:104BC0000E3880B203900798623080B2029003A939
:104BD0000EC907F043F8494807F098FF0690089877
:104BE0000B3880B205900798623080B204900C2296
:104BF000DDE9051307F012F9404807F087FF06903A
:104C000008980A3880B205900798613080B2049005
:104C10000D22DDE9051307F001F9384807F076FFAA
:104C2000069000900898401F80B2059007986D305C
:104C300080B204900898093880B2039007986130D8
:104C400080B2029003A90EC907F008F82B4807F0BC
:104C50005DFF069000900898801E80B2059007982E
:104C60006C3080B204900898401F80B2039007987F
:104C7000603080B2029003A90EC906F0EFFF1F4812
:104C800007F044FF069000900898401C80B2059001
:104C900007986C3080B204900898801E80B2039010
:104CA00007985F3080B2029003A90EC906F0D6FFC4
:104CB000124807F02BFF06900898383880B205900C
:104CC00007987F3080B204900C22DDE9051307F0CD
:104CD000A5F80A4807F01AFF0690009008983438A3
:104CE00080B2059007988B3080B2049008983738CE
:104CF00080B2039007987E3080B201E02176EE000A
:104D0000029003A90EC906F0A9FFFE4807F0FEFEB7
:104D1000069000900898323880B2059007988A3043
:104D200080B204900898343880B2039007987E309F
:104D300080B2029003A90EC906F090FFF14807F077
:104D4000E5FE069000900898303880B205900798EC
:104D5000893080B204900898323880B20390079866
:104D60007D3080B2029003A90EC906F077FFE548B6
:104D700007F0CCFE06900898303880B2059007986E
:104D80007C3080B204900D22DDE9051307F046F86F
:104D9000DC4807F0BBFE069008982F3880B20590DB
:104DA00007987C3080B204900C22DDE9051307F0EF
:104DB00035F8D44807F0AAFE069008982E3880B23D
:104DC000059007987C3080B204900D22DDE9051330
:104DD00007F024F8CB4807F099FE069008982D3884
:104DE00080B2059007987C3080B204900C22DDE9F7
:104DF000051307F013F8C34807F088FE06900090EB
:104E000008982A3880B205900798883080B20490BC
:104E100008982C3880B2039007987B3080B20290BB
:104E200003A90EC906F01AFFB64807F06FFE0690F8
:104E300000900898273880B205900798873080B294
:104E4000049008982A3880B2039007987B3080B28B
:104E5000029003A90EC906F001FFAA4807F056FE0A
:104E600006900898293880B205900798993080B24A
:104E700004900C22DDE9051306F0D0FFA14807F0ED
:104E800045FE06900898283880B20590079897301C
:104E900080B204900D22DDE9051306F0BFFF9948AA
:104EA00007F034FE06900898273880B205900798DE
:104EB0007A3080B204900D22DDE9051306F0AEFFD2
:104EC000904807F023FE06900898273880B2059096
:104ED0000798963080B204900C22DDE9051306F0A5
:104EE0009DFF884807F012FE06900090089824382D
:104EF00080B205900798863080B2049008982638D2
:104F000080B2039007987A3080B2029003A90EC94C
:104F100006F0A4FE7B4807F0F9FD069008982638B5
:104F200080B205900798943080B204900D22DDE99C
:104F3000051306F073FF734807F0E8FD0690089824
:104F4000253880B205900798933080B204900C22E7
:104F5000DDE9051306F062FF6A4807F0D7FD069009
:104F600000900898213880B205900798863080B26A
:104F700004900898243880B203900798793080B262
:104F8000029003A90EC906F069FE5E4807F0BEFD57
:104F900006900898243880B205900798923080B225
:104FA00004900C22DDE9051306F038FF554807F0A0
:104FB000ADFD06900898233880B20590079891308F
:104FC00080B204900B22DDE9051306F027FF4D485F
:104FD00007F09CFD06900898223880B2059007984B
:104FE0008F3080B204900C22DDE9051306F016FF25
:104FF000444807F08BFD06900898213880B2059050
:105000000798783080B204900D22DDE9051306F090
:1050100005FF3C4807F07AFD06900898213880B2D9
:10502000059007988D3080B204900D22DDE90513BC
:1050300006F0F4FE334807F069FD06900898203822
:1050400080B205900798793080B204900C22DDE997
:10505000051306F0E3FE2B4807F058FD069008986C
:10506000203880B2059007988C3080B204900C22D2
:10507000DDE9051306F0D2FE224807F047FD069051
:1050800008981F3880B205900798783080B2049055
:105090000D22DDE9051306F0C1FE1A4807F036FDC2
:1050A000069008981F3880B2059007988A3080B221
:1050B00004900D22DDE9051306F0B0FE114807F05B
:1050C00025FD069008981E3880B205900798783024
:1050D00080B204900C22DDE9051306F09FFE09481A
:1050E00007F014FD069008981E3880B205900798C6
:1050F000893080B204900D22DDE9051306F08EFEA2
:10510000004801E02176EE0007F000FD06900898C7
:105110001D3880B205900798773080B204900D2238
:10512000DDE9051306F07AFEFE4807F0EFFC069075
:1051300008981D3880B205900798873080B2049097
:105140000F22DDE9051306F069FEF64807F0DEFCE4
:10515000069008981C3880B205900798773080B286
:1051600004900C22DDE9051306F058FEED4807F027
:10517000CDFC069008981C3880B2059007988630C0
:1051800080B204901022DDE9051306F047FEE548E1
:1051900007F0BCFC069008981B3880B20590079871
:1051A000773080B204901F22DDE9051306F036FE49
:1051B000DC4807F0ABFC069008981A3880B20590DE
:1051C0000798763080B204901F22DDE9051306F0BF
:1051D00025FED44807F09AFC06900898193880B24A
:1051E00005900798763080B204902022DDE90513FF
:1051F00006F014FECB4807F089FC06900898183892
:1052000080B205900798763080B204902022DDE9C4
:10521000051306F003FEC34807F078FC06900898D3
:10522000173880B205900798753080B2049021221B
:10523000DDE9051306F0F2FDBA4807F067FC0690B9
:105240000898163880B205900798763080B204909E
:105250001322DDE9051306F0E1FDB24807F056FC24
:1052600006900898163880B2059007988A3080B268
:1052700004900C22DDE9051306F0D0FDA94807F0E3
:1052800045FC06900898153880B20590079875304F
:1052900080B204901322DDE9051306F0BFFDA1489A
:1052A00007F034FC06900898153880B205900798EE
:1052B0008A3080B204900C22DDE9051306F0AEFDC1
:1052C000984807F023FC06900898143880B205909F
:1052D0000798753080B204901222DDE9051306F0BC
:1052E0009DFD904807F012FC06900898143880B293
:1052F000059007988A3080B204900D22DDE90513ED
:1053000006F08CFD874807F001FC069008981338DA
:1053100080B205900798743080B204901122DDE9C4
:10532000051306F07BFD7F4807F0F0FB0690089818
:10533000133880B2059007988A3080B204900D220D
:10534000DDE9051306F06AFD764807F0DFFB0690FD
:105350000898123880B205900798743080B2049093
:105360001022DDE9051306F059FD6E4807F0CEFB6B
:1053700006900898123880B2059007988A3080B25B
:1053800004900E22DDE9051306F048FD654807F09C
:10539000BDFB06900898113880B2059007987430CC
:1053A00080B204900E22DDE9051306F037FD5D485A
:1053B00007F0ACFB06900898113880B2059007986A
:1053C0008A3080B204900E22DDE9051306F026FD36
:1053D000544807F09BFB06900898103880B205905F
:1053E0000798743080B204900D22DDE9051306F0B1
:1053F00015FD4C4807F08AFB06900898103880B2DB
:10540000059007988A3080B204900E22DDE90513DA
:1054100006F004FD434807F079FB069000900898D9
:105420000C3880B205900798803080B204900898BC
:105430000F3880B203900798733080B2029003A9AE
:105440000EC906F00BFC374807F060FB0690089881
:105450000C3880B205900798733080B204900C220B
:10546000DDE9051306F0DAFC2E4807F04FFB069045
:1054700000900898083880B2059007987F3080B275
:10548000049008980B3880B203900798723080B26D
:10549000029003A90EC906F0E1FB224807F036FB93
:1054A00006900898083880B205900798723080B24C
:1054B00004900C22DDE9051306F0B0FC194807F052
:1054C00025FB069000900898001F80B20590079871
:1054D0007E3080B204900898C01F80B20390079875
:1054E000713080B2029003A90EC906F0B7FB0D48D7
:1054F00007F00CFB06900898001F80B205900798F3
:10550000703080B204900E22DDE9051306F086FCAF
:10551000044807F0FBFA06900090089880B20590C6
:10552000079801E02176EE007D3080B20490089863
:10553000C01E80B203900798703080B2029003A919
:105540000EC906F08BFBFE4807F0E0FA06900798BC
:10555000703080B205900C22069B089906F05EFC24
:10556000F74807F0D3FA0690009008980C3880B2FC
:1055700005900798983080B2049008980F3880B250
:10558000039007988B3080B2029003A90EC906F0F1
:1055900065FBEB4807F0BAFA0690009008980A38C5
:1055A00080B205900798993080B2049008980C3822
:1055B00080B2039007988B3080B2029003A90EC985
:1055C00006F04CFBDE4807F0A1FA06900090089820
:1055D000C01F80B205900798993080B20490089857
:1055E0000A3880B2039007988C3080B2029003A9E9
:1055F0000EC906F033FBD24807F088FA06900090F7
:105600000898001F80B2059007989A3080B20490E5
:105610000898C01F80B2039007988C3080B2029027
:1056200003A90EC906F01AFBC54807F06FFA0690E9
:1056300000900898801E80B2059007989B3080B239
:1056400004900898001F80B2039007988C3080B2B5
:10565000029003A90EC906F001FBB94807F056FAFB
:1056600006900898801E80B2059007988D3080B211
:1056700004900E22DDE9051306F0D0FBB04807F0D8
:1056800045FA06900898401E80B2059007988F3022
:1056900080B204900C22DDE9051306F0BFFBA84898
:1056A00007F034FA06900798913080B205900A22EC
:1056B000069B089906F0B2FBA14807F027FA06906E
:1056C0000898293880B205900798AD3080B20490D0
:1056D0002322DDE9051306F0A1FB994807F016FA2D
:1056E00006900898283880B205900798AB3080B2B1
:1056F00004902722DDE9051306F090FB904807F09F
:1057000005FA06900898273880B205900798A930C6
:1057100080B204902922DDE9051306F07FFB88485A
:1057200007F0F4F906900898263880B2059007989B
:10573000A83080B204902B22DDE9051306F06EFB41
:105740007F4807F0E3F906900898253880B2059065
:105750000798A73080B204900D22DDE9051306F00A
:105760005DFB774807F0D2F906900898253880B29B
:1057700005900798C63080B204900D22DDE905132C
:1057800006F04CFB6E4807F0C1F9069008982438E3
:1057900080B205900798A63080B204900D22DDE912
:1057A000051306F03BFB664807F0B0F90690089831
:1057B000243880B205900798C73080B204900D223B
:1057C000DDE9051306F02AFB5D4807F09FF9069016
:1057D0000898233880B205900798A63080B20490CC
:1057E0000C22DDE9051306F019FB554807F08EF988
:1057F00006900898233880B205900798C63080B28A
:1058000004900E22DDE9051306F008FB4C4807F072
:105810007DF906900898223880B205900798A53047
:1058200080B204900D22DDE9051306F0F7FA444832
:1058300007F06CF906900898223880B20590079816
:10584000C63080B204900E22DDE9051306F0E6FAB8
:105850003B4807F05BF906900898213880B2059024
:105860000798A53080B204900D22DDE9051306F0FB
:10587000D5FA334807F04AF906900898213880B2E3
:1058800005900798C63080B204900D22DDE905131B
:1058900006F0C4FA2A4807F039F90690089820382B
:1058A00080B205900798A53080B204900D22DDE902
:1058B000051306F0B3FA224807F028F90690089875
:1058C000203880B205900798C63080B204900D222F
:1058D000DDE9051306F0A2FA194807F017F906905A
:1058E000009008981D3880B205900798B23080B2B9
:1058F000049008981F3880B203900798A43080B2B3
:10590000029003A90EC906F0A9F90D4807F0FEF8A8
:105910000690009008981D3880B205900798D33003
:1059200080B2049008981F3880B203900798C53061
:1059300080B2029003A90EC906F090F9004801E078
:105940002176EE0007F0E2F8069008981D3880B244
:1059500005900798A43080B204900D22DDE905136C
:1059600006F05CFAFE4807F0D1F8069008981D385A
:1059700080B205900798C53080B204900D22DDE911
:10598000051306F04BFAF64807F0C0F806900090B1
:1059900008981A3880B205900798B13080B2049008
:1059A00008981C3880B203900798A33080B2029008
:1059B00003A90EC906F052F9E94807F0A7F80690C6
:1059C000009008981A3880B205900798D23080B2BB
:1059D000049008981C3880B203900798C43080B2B5
:1059E000029003A90EC906F039F9DD4807F08EF8D8
:1059F000069008981A3880B205900798A33080B2B4
:105A000004900D22DDE9051306F008FAD44807F0EA
:105A10007DF8069008981A3880B205900798C4302F
:105A200080B204900D22DDE9051306F0F7F9CC48A9
:105A300007F06CF806900898193880B2059007981E
:105A4000A23080B204900E22DDE9051306F0E6F9DB
:105A5000C34807F05BF806900898193880B20590A3
:105A60000798C43080B204900D22DDE9051306F0DA
:105A7000D5F9BB4807F04AF806900898193880B263
:105A800005900798A23080B204900D22DDE905133D
:105A900006F0C4F9B24807F039F8069008981938AA
:105AA00080B205900798C33080B204900E22DDE9E1
:105AB000051306F0B3F9AA4807F028F806900898ED
:105AC000183880B205900798A23080B204900E2258
:105AD000DDE9051306F0A2F9A14807F017F80690D2
