:020000040800F2
:100000007025002045010008C7A50008CD7600082E
:10001000A9A500080D12000841F400080000000026
:100020000000000000000000000000009DAE00087D
:100030005D3D00080000000009AA000849B2000860
:100040005F0100085F0100085F01000851AB000874
:100050005F0100085F0100085F0100085F01000800
:100060005F0100085F0100085F0100085F010008F0
:100070005F0100085F0100085F0100085F010008E0
:100080005F0100085F0100085F0100085F010008D0
:1000900089F300085F0100085F0100085F010008A4
:1000A0005F0100085F0100085F0100085F010008B0
:1000B000E1B200085F0100085F0100085F0100086D
:1000C0005F0100085F0100085F0100085F01000890
:1000D0005F0100085F0100085F0100085F01000880
:1000E0005F0100085F0100085F0100085F01000870
:1000F0005F0100085F0100085F0100085F01000860
:100100005F0100085F0100085F0100085F0100084F
:100110005F0100085F0100085F0100085F0100083F
:100120005F0100085F0100085F0100085F0100082F
:10013000DFF80CD000F020FD00480047491A010804
:10014000702500200648804706480047FEE7FEE786
:10015000FEE7FEE7FEE7FEE7FEE7FEE7FEE7FEE777
:10016000DFB20008310100082DE9F05F05460020EC
:1001700092469B4688460646814640241BE0284618
:1001800041464746224600F020F853465A46C01AD8
:10019000914110D311461846224600F081FB2D1ADA
:1001A00067EB01084F4622460120002100F078FB52
:1001B00017EB00094E41201EA4F10104DFDC484684
:1001C00031462A464346BDE8F09F202A04DB203A08
:1001D00021FA02F00021704721FA02F3D040C2F167
:1001E0002002914008431946704740EA01039B07EB
:1001F00003D009E008C9121F08C0042AFAD203E09C
:1002000011F8013B00F8013B521EF9D27047D2B2FF
:1002100001E000F8012B491EFBD270470022F6E7EF
:1002200010B513460A4604461946FFF7F0FF20466C
:1002300010BD421E12F8013F002BFBD111F8013B0B
:1002400002F8013B002BF9D17047421C10F8011B4A
:100250000029FBD1801A704710B5002200E0521C23
:10026000835C8C5CA34201D1002BF8D1D8B2E1B2FF
:10027000401A10BD034611F8012B00F8012B002A8B
:10028000F9D11846704770B506460FF0F9FD0468BD
:1002900005460A220021304600F072FB2C6070BD3A
:1002A000F0B480EA0102D40F4200B2EB410F02D257
:1002B0000246084611464A0042D0C30DDDB2C1F3E2
:1002C000C752AD1A202D35DAC1F3160141F40002F0
:1002D00004B15242C5F1200602FA06F12A41104447
:1002E000B3EBD05F23D0C4B1012DA0EBC35009DC28
:1002F000F0BC4FF0004202EAC352DBB200F500004E
:1003000000F07FBB400000F1807000EBC350A0F113
:10031000807040EAD170490009E0490841EAC071A3
:10032000A0EBC35000F50000400800EBC350F0BC48
:1003300000F05EBB6142012202EB4101001BF6E7C7
:10034000F0BC704781F00041AAE780F00040A7E7C9
:1003500080EA010210B502F00043400022D04A00BA
:100360001FD0010E01EB1261C0F35600C2F356021A
:1003700040F4000042F40002A0FB022000047F3998
:10038000140400D0401C50EA124001D44000491E21
:10039000C2B20C0604EBD010401C4008802A02D0E8
:1003A00003E0002010BD20F00100002900DA002049
:1003B000184310BD30B480EA010202F0004530F06D
:1003C000004221F0004013D090B1C30DD40DC2F310
:1003D0001601C0F31600E41A41F4000140F40002D3
:1003E0007D34914201D3641C00E04900002C02DA04
:1003F00030BC002070474FF400000023914201D32D
:10040000891A034340084FEA4101F7D151B19142A3
:1004100002D14FF0004105E002D24FF0010101E0AE
:100420006FF0010103EBC450284430BC00F0E0BA87
:100430002DE9FE4F804681EA0300C00F0C46009074
:1004400021F0004123F00045B8EB0200A94105D29C
:100450004046214690461C460B46024623F000408B
:10046000104347D0270DC7F30A00C3F30A51029087
:10047000401A019040286BDAC3F3130040F4801B4C
:100480000098924620B10023D2EB030A63EB0B0BDA
:1004900001985946C0F14002504600F001FA064664
:1004A0000D4650465946019A00F009FA10EB080033
:1004B0006141002487EA115284EAE7731A4340D06D
:1004C000009A62B3019A012A4FEA075215DC001B19
:1004D00061EB02014FF0004202EA0752CDE900420F
:1004E000001C41F5801132462B4600F0C7FA03B0DC
:1004F000BDE8F08F40462146F9E7001B61EB0201A1
:10050000001C41F5801300185B412018A2F500176C
:1005100047EB030140EAD570B6196D4111E06D0853
:100520004FEA360645EAC0754FEA0752001B61EBF9
:100530000201001C41F5801149084FEA3000001902
:10054000514132462B4603B0BDE8F04F00F087BA68
:100550000098012240000023D0EB020263EBE0731D
:10056000009821464FEAE074B8EB000061EB04010B
:10057000E9E783F000435BE781F0004158E72DE9AC
:10058000FE4F81EA030404F0004421F0004100948E
:100590004FF0000B23F0004350EA01045ED052EA12
:1005A00003045BD0C3F30A54C1F30A552C44A4F2EC
:1005B000F3340194A0FB0254C1F3130141F4801100
:1005C000C3F3130343F4801301FB024400FB034E07
:1005D000840A970A44EA815447EA8357A4FB0768D0
:1005E00002958D0A05FB07854FEA932C04FB0C54FA
:1005F0002705029D4FEA065847EA1637B5EB08056E
:100600006EEB070C870E920E47EA811742EA8312BF
:10061000A7FB0201B6EB0B0164EB00042B0D43EAD0
:100620000C335E1844EB1C50DA465146E7FB0201DE
:10063000C5F313044FEA0B3343EA14534FEA043271
:10064000019C43EA0603A4F10C040294009CCDE94A
:1006500000B400F013FA03B0BDE8F08F00200146AB
:10066000F9E72DE9F04D81EA030404F0004B21F095
:10067000004514464FF0000A23F0004150EA0502FD
:1006800020D054EA01021DD0C5F30A570246C5F333
:100690001303C1F31300C1F30A5640F4801543F469
:1006A0008013A7EB0608101BD64608F2FD3873EB43
:1006B000050002D308F1010801E092185B41B8F18E
:1006C000000F03DA00200146BDE8F08D00204FF452
:1006D0008011064684460EE0171B73EB050705D311
:1006E000121B63EB050306434CEA010C49084FEA71
:1006F000300092185B4150EA0107EDD152EA030045
:1007000012D082EA040083EA0501084305D0101BD9
:10071000AB4106D20122002306E000224FF0004345
:1007200002E06FF0010253101AEB06004CEB085187
:1007300010EB0A0041EB0B01BDE8F04D00F08FB962
:10074000C10F80EAE0700844CA079623002100F038
:1007500058B996230022114600F053B90EB5C10FC7
:1007600080EAE0700844CA07002140F233438DE874
:100770000E000A460B4600F081F903B000BD00F000
:10078000004220F00040C10DC0F3160040F400000C
:100790007F2901DA00207047962903DCC1F1960118
:1007A000C84001E096398840002AF4D040427047A2
:1007B00020F00040C10DC0F3160040F400007F2976
:1007C00001DA00207047962903DCC1F19601C84088
:1007D000704796398840704770B5C1F30A5201F0EE
:1007E00000450024C1F3130140F2FF3341F48011AE
:1007F0009A4201DA002070BD40F233439A42A2F2DD
:10080000334203DC5242FFF7E0FC00E090402C430F
:10081000F1D0404270BD00F0004230F000400AD0FC
:10082000C10D01F56071C0F3160042EA0151C20822
:1008300040071143704700200146704701F0004314
:1008400030B421F0004150EA010206D00A0DA2F5B1
:100850006072C1F31301002A02DC30BC0020704733
:10086000440F44EAC104C100E01830BC00EBC250A0
:1008700000F0BEB830B50B4601460020202201240E
:1008800009E021FA02F59D4205D303FA02F5491B5E
:1008900004FA02F52844151EA2F10102F1DC30BD74
:1008A000202A04DB203A00FA02F100207047914030
:1008B000C2F1200320FA03F3194390407047202A25
:1008C00006DBCB17203A41FA02F043EAE07306E078
:1008D00041FA02F3D040C2F1200291400843194688
:1008E000704700000FB4002300B589B00CA9009137
:1008F0000B996FF00042CB601E4B06931E4B079383
:100900000423CDE901321D4A089202466B460020BD
:1009100000F0E6F909B05DF814FB70B586B0064644
:100920004FF0FF300091CDE90101002015460C4643
:1009300004903246694604A8FFF7D4FF02460498A3
:10094000211825B108B1084600E020462860049827
:1009500000280DD0002A02DD0098884208D0081B2C
:100960000094CDE901043246694604A8FFF7BAFFB6
:1009700006B070BD190F0008370F0008A50B00085E
:100980002DE9F04791460F4680460446002614F8AC
:10099000015B2DB100F002F90068405DC007F6D19F
:1009A0002B2D02D02D2D18D0641E4A4639462046E4
:1009B00000F0D2FA27B13968A14201D1C7F800800E
:1009C00071054FF002040BD54042002803DD0FF003
:1009D00057FA0460A007BDE8F08746F48066E4E7B4
:1009E0000028F8DA0FF04CFA04606FF00040F2E7EC
:1009F0000029A8BF7047401C490008BF20F0010033
:100A0000704710B4B0FA80FC00FA0CF050EA010410
:100A100004BF10BC704749B1CCF1200421FA04F4A2
:100A200011FA0CF118BF012121430843A3EB0C017B
:100A3000CB1D4FEA00614FEA102042BF002010BCDE
:100A4000704700EBC35010440029A4BF10BC70478E
:100A5000401C490008BF20F0010010BC704710B5D1
:100A6000141E73F1000408DA401C41F100019218D1
:100A70005B411A4301D120F0010010BD2DE9F04D7A
:100A800092469B4611B1B1FA81F202E0B0FA80F2CF
:100A900020329046FFF704FF04460F4640EA0A0062
:100AA00041EA0B0153465A46084313D0114653EA14
:100AB000010019D0C8F140025046FFF786FB0546F9
:100AC0000E46504659464246FFF7EAFE084305D017
:100AD000012004E020463946BDE8F08D00200543A2
:100AE00046EAE0762C4337430A986305E40AA0EB14
:100AF00008000022FD0A44EA47540A3002D50020CB
:100B00000146E9E7010510196941DDE908450019C9
:100B10006941BDE8F04DA2E7C1F30A52C1F31301E8
:100B200040F2FF3341F480119A4202DA002001467C
:100B3000704740F233439A42A2F2334202DC5242FF
:100B4000FFF743BBFFF7ACBE30B5041E71F10004E4
:100B500004DB4FF00044404264EB0101141E73F1CA
:100B6000000405DB1C464FF00043524263EB0403D4
:100B7000994208BF904230BD064C074D06E0E06840
:100B800040F0010394E8070098471034AC42F6D3D4
:100B9000FFF7D2FA88600208A86002080048704790
:100BA0008460020810B50446FFF7F8FF0068005D96
:100BB00000F0010010BD00002DE9FF4F087883B060
:100BC0009946FF2805D0491C2D2804D00024002078
:100BD00008E000200BE00124F9E700EB800003EBC4
:100BE0004000491C0B78FF2BF7D104B14042002391
:100BF0000293147819461D462D2C01D02B2C04D1BC
:100C0000521C2D2C13D000240294AA461478FF2CD9
:100C10000FD00A25A3FB057801FB05814FF0000CDE
:100C200003FB0C11521CE3194AEB0101EEE701240E
:100C3000EAE7814453EA010002D019F5C87F06DAD9
:100C400003980021C0E9001107B0BDE8F08F00252E
:100C5000AE4E2F46DFF8B882184600F0DAF9CDE93B
:100C60000001B9F1000002DAC9F1000400E0044615
:100C70000023A74A1AEB030B42EB045A12E0E007E9
:100C800007D02A46334638464146FFF778FC0746E8
:100C900088462A46334610461946FFF770FC05463B
:100CA0000E466410002CEAD1DDE90001B9F1000F15
:100CB0005A46534606DAFFF7D4FC3A464346FFF756
:100CC000D0FC05E0FFF75BFC3A464346FFF757FCD4
:100CD000029A0AB181F00041039AC2E90001B3E728
:100CE0002DE9FF4F1F468DB0D7E901464FF0FF3881
:100CF0002E2045464FF000090B90B9696D1C0E98E7
:100D00008847396A824688470028F6D1BAF1FF3F02
:100D10000AD024F4D064002E11DDBAF12B0F08D0D4
:100D2000BAF12D0F0BD102E0404611B08DE744F42B
:100D30008064B9696D1C0E9888478246761E6946A4
:100D4000600501D52D2000E02B208DF8000001F179
:100D5000010B0DF1200809E0B9696D1C0E98884758
:100D600082460F9844F40074761E0560002E02DD62
:100D7000BAF1300FF0D00B998A453ED144F080048F
:100D800006E00F99681CA9F1010944F40074086099
:100D9000B9696D1C761E0E98884782463028F0D0BF
:100DA0002BE00B998A4505D1200603D444F080043A
:100DB000761E18E050460FF03BFA08B30DF1130110
:100DC000761E44F400748B4508D2AAF130000BF86B
:100DD000010B200607D5A9F1010003E0200602D48B
:100DE00009F101008146A00502D50F99681C086031
:100DF000B9696D1C0E9888478246002ED1DC53E0FD
:100E0000002E51DDBAF1650F02D0BAF1450F4BD17A
:100E1000A00549D5B9696D1C24F44074761E0E985E
:100E200088478246002E0CDD2B2804D0BAF12D0F06
:100E300007D144F48074B9696D1C0E9888478246C6
:100E4000761EE00501D52D2100E02B2108F8011BBD
:100E5000CDF82C8021E00DF12901761E44F40074B8
:100E600088450CD2AAF1300010F0FF0088F800008D
:100E700002D10B99884509D908F1010806E0E0057F
:100E800001D5244801E042F20F708146B9696D1C1A
:100E90000E98884782460F980560002E04DD504664
:100EA0000FF0C6F90028D6D1F9690E988847FF20BF
:100EB0008BF8000088F800000020069007904B4651
:100EC0006A4608A906A8FFF777FEA00502D46FF0CE
:100ED00001002AE714F0240F0AD0E00714D1DDE95D
:100EE00006123868031D3B600068C0E900120BE081
:100EF000DDE90601FFF7A2FC0146E00704D13868EE
:100F0000021D3A600068016028460EE700001440A8
:100F10000000F03FF1D8FFFF426842B1016811F8CC
:100F2000013B23B1521EC0E900121846704701214F
:100F3000C160881E704742685AB1C368016843B9EE
:100F400083688B4205D0491E521CC0E90012002064
:100F500070474FF0FF3070472DE9F05F8246007810
:100F6000002715468B460AF10104B946302801D006
:100F70009DB113E014F8010B0127782803D05828FD
:100F800001D045B10AE00DB1102D07D10027102581
:100F900014F8010B02E0082500E00A250026B046FF
:100FA0000EE005FB080005FB06F1012701EB1046EA
:100FB0001FFA80F8B6F5803F00D3B94614F8010B4C
:100FC000294600F018F80028EBDABBF1000F05D035
:100FD0000FB1641E00E05446CBF80040B9F1000F99
:100FE00006D00EF04DFF02210160C81EBDE8F09F43
:100FF00048EA0640FAE73A2800D2303820F02002CA
:10100000412A01D3A2F13700884201D34FF0FF30CB
:1010100070470EB540F2334202920022CDE9002221
:101020001346FFF72BFD03B000BD70B58C1810F808
:10103000015B15F0070301D110F8013B2A1106D11D
:1010400010F8012B03E010F8016B01F8016B5B1E37
:10105000F9D12B0705D40023521E0DD401F8013B12
:10106000FAE710F8013BCB1A921C03E013F8015B7E
:1010700001F8015B521EF9D5A142D8D3002070BD02
:1010800070B5044600252068806800F0010018B3A0
:101090002068806820F001002168886003F0EEFD80
:1010A000054613E003F0EAFD401B02280ED9206834
:1010B000806800F0010048B1A06A40F01000A06212
:1010C000E06A40F00100E062012070BD20688068A5
:1010D00000F001000028E5D10020F6E738B504460D
:1010E0000025002000902068806800F0010078BB97
:1010F0002068806840F00100216888601948006815
:101100001949B0FBF1F0009002E00098401E0090F9
:1011100000980028F9D103F0B1FD054619E003F06D
:10112000ADFD401B022814D92068806800F0010042
:1011300078B9A06A40F01000A062E06A40F00100B7
:10114000E06200BF002084F8240000BF012038BD09
:1011500005E02068806800F001000028DFD0002052
:10116000F5E700003401002040420F0010B50022D6
:101170004FF48051014803F07BFD10BD000C01408D
:1011800010B501221103024803F072FD10BD0000EA
:10119000000C014010B50122D102064803F068FDA1
:1011A0000A2010F061FA00224FF40061014803F0B8
:1011B0005FFD10BD000C01401248407D05281DD286
:1011C000DFE800F003080D12170032200E4909680D
:1011D000486314E03C200C49096848630FE046204E
:1011E0000949096848630AE05020074909684863CB
:1011F00005E0632004490968486300E000BF00BFC0
:101200007047000064050020D404002000BFFEE702
:1012100010B501220421024803F02AFD10BD000090
:101220000010014010B500220421024803F020FD07
:1012300010BD00000010014010B50122022102483B
:1012400003F016FD10BD00000010014010B5002293
:101250000221024803F00CFD10BD00000010014007
:1012600010B50446392011F007F8E0B211F015F876
:10127000C4F3072011F011F8C4F3074011F00DF882
:10128000200E11F00AF810F0E9FF0EF0B7FD10BDC6
:101290002DE9F04107460E4614463C2010F0ECFFC5
:1012A000F0B210F0FAFF301210F0F7FF10F0D6FF96
:1012B0000CB10020208016E00EF0A0FD05461E2D8A
:1012C0000ED1384600F06CF905463D2010F0D4FFF1
:1012D00010F0C4FF2F4434B120882844208002E05D
:1012E0002846BDE8F081E7E710B509F08FFB08B1AB
:1012F00000F082F8302000F0E4F810BD10B5312085
:1013000000F0DFF810BD10B504462146362000F08D
:10131000CAF810BD10B5044614B1204600F0F2F82A
:10132000342000F0CEF810BD70B50646304600F00F
:10133000D2F8054685B12946304600F024F8044627
:10134000412C09D0142C01D1432070BD422C01D175
:10135000B320FAE72046F8E77019FFF7DBFFF4E760
:1013600010B50446204600F0CDF820785C2802D065
:1013700020782F2803D10021642000F028F93220A2
:1013800000F09FF810BD2DE9F04105460F460026FC
:10139000012429E001E0601CC4B2285D5C2805D06E
:1013A000285D2F2802D0285D0028F4D1285D10B1D7
:1013B000601CC4B200E00024A819FFF7D1FF064664
:1013C00084B1BC420ED0412E0AD0142E02D143204B
:1013D000BDE8F081422E01D1B320F9E73046F7E7AE
:1013E000264601E03046F3E7D4E710B50446FF2176
:1013F0002046FFF7C8FF10BD10B5222010F03CFFBB
:10140000322010F04FF910F02DFF044610F026FFA7
:10141000204610BD2DE9F04110F024FF044610F0E5
:1014200021FF054610F01EFF064610F01BFF074681
:1014300010F014FF44EA052040EA064040EA076045
:10144000BDE8F08170B50446272010F015FF10F0BC
:1014500009FF0646054646B100BF10F003FF2070A5
:10146000641C701EC0B2061EF7D110F0F7FE2846AD
:1014700070BD10B504460C2010F0FEFE204610F0A2
:101480000CFFFFF7C7FF10BD70B504460A2010F02F
:10149000F3FE204610F001FF10F0E4FE054610F0C8
:1014A000DDFE284670BD70B505460C46284610F096
:1014B000E3FE204610F0F1FE10F0D0FE0EF09EFC90
:1014C00070BD10B50446204610F0D6FE10F0C6FEE2
:1014D0000EF094FC10BD0246114600E0491C08784D
:1014E0000028FBD100E0491E08785C2804D0087869
:1014F0002F2801D09142F6D1914200D0491C881A80
:10150000C0B270472DE9F0410646012010F0B4FE4C
:1015100010F0A8FE43282BDA2B20FFF7B5FF102888
:1015200026DA2F2010F0A8FE002010F0B6FE3220A0
:10153000FFF7C7FF0446142C1AD1CF20FFF7A4FFF2
:101540000446ACB14C20FFF794FF00EB042739466A
:101550004C2000F03CF85020FFF78BFF00EB0427F5
:101560003946502000F033F80021702000F02FF8A9
:101570002F2010F081FE3578284610F08EFE09E00D
:10158000761C35785C2D01D02F2D00D10025284602
:1015900010F083FE002DF3D110F060FEBDE8F08165
:1015A00070B504462D2010F067FE10F05BFE064675
:1015B000054646B100BF207810F06FFE641C701E17
:1015C000C0B2061EF7D110F049FE284670BD70B5B6
:1015D00005460C460D2010F04FFE284610F05DFE2B
:1015E000E0B210F05AFEC4F3072010F056FEC4F328
:1015F000074010F052FE200E10F04FFE10F02EFEAD
:1016000070BD000010B500221021024803F030FB2D
:1016100010BD00000008014010B501221021024851
:1016200003F026FB10BD00000008014010B50122A8
:101630008021024803F01CFB10BD0000000C01409B
:1016400010B500228021024803F012FB10BD0000FB
:10165000000C014010B501224021024803F008FBB4
:1016600010BD00000014014010B5002240210248C6
:1016700003F0FEFA10BD00000014014010B5012275
:101680005103024803F0F4FA10BD000000140140B9
:1016900010B500224FF40051014803F0E9FA10BDE3
:1016A0000014014010B501221103024803F0E0FAD2
:1016B00010BD00000014014010B500224FF480510D
:1016C000014803F0D5FA10BD0014014010B5012205
:1016D0001146024803F0CCFA10BD0000000C014096
:1016E00010B500220121024803F0C2FA10BD00002B
:1016F000000C014010B501222021024803F0B8FA85
:1017000010BD00000010014010B500222021024849
:1017100003F0AEFA10BD000000100140F0B5044621
:101720000D46FF22FF21002319E0E05C4140002725
:1017300011E001F0010602F0010C52104910BCF159
:10174000000F01D041F080011EB182F0A00281F0B3
:101750000101781CC7B2082FEBDB581CC3B2AB42A7
:10176000E3DB41EA0220F0BD002070470020704713
:101770002DE9F04106460F4601210C480BF08BFE87
:101780000B4908700948D0F8B852002403E0285DDE
:1017900008490855641C064800788442F7DB01209C
:1017A000054908700020BDE8F0810000E418002021
:1017B00024020020E81B00202502002033B50C463F
:1017C00000252DE09DF801109DF8030002F020FC9B
:1017D00005469DF802002044A8421AD99DF802004F
:1017E000281A241A9DF80100401CC0B28DF801008F
:1017F00000208DF802009DF801000D2810D1012075
:101800008DF801009DF80300401CC0B28DF8030064
:1018100006E09DF802002044C0B28DF8020000E00E
:10182000D0E700BF0720B4FBF0F100FB11400949ED
:1018300009780844C0B28DF800009DF80000072820
:1018400005DB9DF80000C01FC0B28DF800000098B5
:101850003CBD00000801002038B517480078012879
:1018600029DD6FF07F4009F0F3F80446002009F00D
:10187000EFF80546104800940078801E692202EBBC
:10188000C00081B22B4691220CA008F04BFB0A4805
:101890000078401E08490870002107480078401E63
:1018A000074A11540448007806490978884202D151
:1018B00000200449087038BD5201002020000000BB
:1018C000EC0600205301002038B50446002009F042
:1018D000BFF8054614231A01022100904FF49B70B3
:1018E00008F0C4F84FF46E4009F0B2F8054605233D
:1018F00040F23D1202210090101F08F0B7F84FF49B
:101900006E4009F0A5F8054614231A010521009040
:101910004FF49B7008F07AFA4FF46E4009F098F893
:101920000546132340F23F120621009040F2371083
:1019300008F09CF8192C0DDA002009F089F805460A
:101940000F2340F23F120621009040F2371008F0BA
:101950008DF824E0192C0FDB322C0DDA002009F071
:1019600077F805460C2340F23F120621009040F222
:10197000371008F07BF812E0322C0FDB4B2C0DDA1D
:10198000002009F065F80546092340F23F120621C0
:10199000009040F2371008F069F800E000BF38BD51
:1019A00038B500202549087009F052F8044608F0BF
:1019B00045F8042001F06CFF002009F049F80446C6
:1019C0006FF07F4009F044F805462B461E22C821DF
:1019D0001B48009408F0A6FA002009F039F80446E4
:1019E0006FF07F4009F034F805462B461E22FA219D
:1019F0001348801D009408F095FA002009F028F89B
:101A00000446104809F024F805462B461E22C8213A
:101A10000B480C30009408F085FA002009F018F803
:101A20000446084809F014F805462B463422C8211C
:101A300003481230009408F075FA38BD45010020C3
:101A4000282A010832F0F000F8B50446002008F01A
:101A5000FFFF05464FF47F0008F0FAFF0646601EC0
:101A600000EB400101EBC0001E2101EB400082B2FF
:101A700033468C210248009508F054FAF8BD000066
:101A80004928010838B5002008F0E2FF0446142375
:101A90001A01022100904FF49B7007F0E7FF4FF40A
:101AA0006E4008F0D5FF044623460522022140F28D
:101AB000391008F0FDF94FF46E4008F0C9FF0446F4
:101AC00023460522022140F23D1008F0F1F94FF4BF
:101AD0006E4008F0BDFF044623460B2207214FF459
:101AE0009B7008F00BF94FF46E4008F0B1FF04460C
:101AF0000F234FF49F7208210090901F07F0B6FF4C
:101B00004FF46E4008F0A4FF04462346052210213E
:101B100040F2391008F0F2F84FF46E4008F098FFE8
:101B200004462346032211214FF49D7008F0E6F885
:101B30004FF46E4008F08CFF044623460422112126
:101B400040F23B1008F0B4F938BD00002DE9FC412B
:101B5000484890F84000002845D1002440E0621C2D
:101B600045A101A80EF05CF9204604EBD0714910A4
:101B7000A4EB4101C9B1002008F06AFF06464048C5
:101B800008F066FF074604EBD470401000EB4001FC
:101B900001EB00102A2101EB400082B23B46A82154
:101BA00001A8009608F0BEF918E0002008F050FFE8
:101BB0000646334808F04CFF074604EBD47040104B
:101BC00000EB400101EB00102A2101EB400082B242
:101BD0003B46082101A8009608F0A4F9601CC4B295
:101BE000082CBCDB44E0002440E0621C22A101A8D8
:101BF0000EF016F9204604EBD0714910A4EB410118
:101C0000C9B1002008F024FF06461D4808F020FF57
:101C1000074604EBD470401000EB400101EB0010CC
:101C20003D2101EB800082B23B46A82101A800962D
:101C300008F078F918E0002008F00AFF064610487E
:101C400008F006FF074604EBD470401000EB40019B
:101C500001EB00103D2101EB800082B23B460821E0
:101C600001A8009608F05EF9601CC4B2042CBCDB2D
:101C7000BDE8FC8164050020253032643A00000094
:101C800032F0F00038B50C49B1F90000002305220C
:101C9000012105F01DFD002008F0DAFE04464FF496
:101CA0006E4008F0D5FE05462B460222642103480B
:101CB000009408F037F938BD9A010020E0060020B2
:101CC00038B54FF46E4008F0C3FE0446122340F2CC
:101CD0000F1208210090501E07F0C8FE4FF46E400E
:101CE00008F0B6FE04462346062207214FF486700C
:101CF00008F004F84FF46E4008F0AAFE04462346AC
:101D00000422062140F20D1007F0F8FF4FF46E4058
:101D100008F09EFE04462346022205214FF48770F8
:101D200007F0ECFF4FF46E4008F092FE04460F23DC
:101D30004FF48A7205210090501E07F097FE4FF471
:101D40006E4008F085FE044623460622102140F22C
:101D5000111007F0D3FF4FF46E4008F079FE0446EF
:101D60002346042211214FF4897007F0C7FF4FF476
:101D70006E4008F06DFE044623460222122140F216
:101D8000131007F0BBFF38BD7CB5012085490870F2
:101D9000854908706FF07F4008F05AFE0546F02331
:101DA0004FF4A07282210090002007F05FFE6FF0D8
:101DB0007F4008F04DFE0546002008F049FE06462B
:101DC0007A490095097DC1EB0111794A02EB410086
:101DD000334691223C2108F0A5F8002008F038FE97
:101DE0000546A323C8228F210090642008F00EF836
:101DF00043F2FF3008F02CFE05461A233C228C21CA
:101E00000090FF2001F0E4FD43F2FF3008F020FED7
:101E100005466FF07F4008F01BFE064663490095BB
:101E2000097DC1EB0111624A02EB4101881D334675
:101E300091224FF48C7108F075F843F2FF3008F0EE
:101E400007FE05461A233E22D2210090052001F00C
:101E5000BFFD43F2FF3008F0FBFD05466FF07F4009
:101E600008F0F6FD064651490095097DC1EB0111C8
:101E70004F4A02EB410101F10C003346D7221421F5
:101E800008F050F843F2FF3008F0E2FD05461A234F
:101E90003E22D2210090E12001F09AFD43F2FF3072
:101EA00008F0D6FD05466FF07F4008F0D1FD0646EC
:101EB0003E490095097DC1EB01113D4A02EB41010C
:101EC00001F112003346D722F02108F02BF8002050
:101ED00008F0BEFD0546CA2340F23912AA2100903F
:101EE000072007F0C3FD00242BE0621C31A101A8EC
:101EF0000DF096FF4FF47F0008F0AAFD054604EBB5
:101F000004110722009002EB41001F231A46AA2168
:101F100001F05EFD4FF47F0008F09AFD05466FF07A
:101F20007F4008F095FD064604EB0410132202EBF7
:101F300040013346B12201A8009507F0F3FF601C71
:101F4000C4B2092CD1DB002428E043F2FF3008F0B2
:101F50007FFD054604EB04115722009002EB41007F
:101F60001F231A46CC2101F033FD43F2FF3008F065
:101F70006FFD05466FF07F4008F06AFD064604EBF2
:101F80000412632303EB42010B4A02EB4400334685
:101F9000D322009507F0C6FF601CC4B2032CD4DB2B
:101FA0007CBD00005101002052010020640500208A
:101FB000022C0108256400003E2C010831B582B0D6
:101FC0001A4800780A2830DA1948007818B19DF8C4
:101FD00008002E2829D002A91648FEF72AF96FF02A
:101FE0007F4008F035FD0446002008F031FD05462D
:101FF0000E4800940078401E692202EBC00081B2B6
:102000002B46912202A807F08DFF0948007838B9C5
:102010009DF808002E2803D1044800780449087070
:1020200002480078401C014908703EBD5201002062
:1020300053010020EC06002010B500201449087060
:10204000144908701449087014480078012806D013
:10205000022807D0032808D004280CD108E001F09A
:10206000F1FA09E000F012FD06E000F079FD03E06E
:10207000FFF796FC00E000BF00BF0848007806F0BC
:1020800077F8074801780548007800F00BF810BD94
:102090005201002051010020530100204601002080
:1020A0004501002003B587B00798012806D0022813
:1020B00005D003287ED004287DD12AE3F7E3FE482B
:1020C0000078012817D1FD4808F0C2FC03900020D9
:1020D00008F0BEFC029003980090F9488078401EFA
:1020E00000EB8000F749084401901E225021029B1A
:1020F00007F018FF16E0002008F0AAFC0390EF4854
:1021000008F0A6FC029003980090ED488078401EED
:1021100000EB8000EB49084401901E225021029BF5
:1021200007F000FFE448007802281BD1E34808F0DC
:102130008FFC0390002008F08BFC02900398009025
:10214000DF48007D00EB8000DF4901EBC000DC4987
:10215000C97A00EBC100019034225021029B07F0A4
:10216000E1FE1AE0002008F073FC0390D34808F069
:102170006FFC029003980090D148007D00EB800036
:10218000D14901EBC000CE49C97A00EBC1000190F2
:1021900034225021029B07F0C5FEC948B0F90D005A
:1021A000002305220121039005F092FAC24800782D
:1021B000032801E01FE179E310D1C04808F048FC92
:1021C0000390002008F044FC0290039800904A22FB
:1021D0005021BE48029B07F0A5FE0FE0002008F04A
:1021E00037FC0390B54808F033FC02900398009048
:1021F0004A225021B548029B07F094FEB048B0F93E
:102200000F00002305220121039005F061FAAA487E
:102210000078042810D1A94808F01AFC0390002087
:1022200008F016FC02900398009060225021A74805
:10223000029B07F077FE0FE0002008F009FC0390F6
:102240009E4808F005FC02900398009060225021FF
:102250009E48029B07F066FE97480078052816D135
:10226000964808F0F5FB0390002008F0F1FB02907F
:10227000039800909248807A00EB4000944908440B
:1022800001901E22F021029B07F04CFE15E0002079
:1022900008F0DEFB0390894808F0DAFB029003980F
:1022A00000908748807A00EB4000894908440190FB
:1022B0001E22F021029B07F035FE7F480078062899
:1022C0001DD17E4808F0C4FB0390002008F0C0FB3D
:1022D0000290039800907A48007D00EBC00101EB6A
:1022E00000107C4908447649097B01EB81010844D0
:1022F00001903422F021029B07F014FE1CE0002024
:1023000008F0A6FB03906D4808F0A2FB029003982A
:1023100000906B48007D00EBC00101EB00106D499F
:1023200008446749097B01EB81010844019034228C
:10233000F021029B07F0F6FD5F480078072816D1D0
:102340005E4808F085FB0390002008F081FB0290B6
:10235000039800905A48407C00EB80005E49084496
:1023600001904A22F021029B07F0DCFD15E00020DD
:1023700008F06EFB0390514808F06AFB0290039846
:1023800000904F48407C00EB800053490844019086
:102390004A22F021029B07F0C5FD4948408A0246C7
:1023A0004EA1039004A80DF03BFD43480078082897
:1023B00010D1424808F04CFB0390002008F048FB85
:1023C0000290039800906022F02104A8029B07F07D
:1023D000A9FD0FE0002008F03BFB0390374808F010
:1023E00037FB0290039800906022F02104A8029B22
:1023F00007F098FD5BE230480078012817D12F489C
:1024000008F026FB0390002008F022FB02900398BE
:1024100000902B48007D00EB8000324901EB40002A
:10242000019082225021029B07F07CFD16E00020E3
:1024300008F00EFB0390214808F00AFB0290039875
:1024400000901F48007D00EB8000264901EB400012
:10245000019082225021029B07F064FD164800780B
:10246000022817D1154808F0F3FA0390002008F06D
:10247000EFFA0290039800901148407D00EB800035
:10248000194901EB4000019094225021029B07F072
:1024900049FD31E0002008F0DBFA0390074808F01E
:1024A000D7FA0290039800900548407D00EB800029
:1024B0000D4901EB400019E04501002032F0F00029
:1024C000640500207F280108D4280108E0060020C8
:1024D000A72801082429010892290108253034641D
:1024E00000000000402A0108722A0108019094228D
:1024F0005021029B07F016FDF048007803281FD1F9
:10250000EF4808F0A5FA0390002008F0A1FA029025
:1025100003980090EB48007D00EBC00101EB001038
:10252000E94901EB4000E749897D01EB810100EBBE
:1025300041000190A6225021029B07F0F3FC1EE00F
:10254000002008F085FA0390DD4808F081FA029037
:1025500003980090DB48007D00EBC00101EB001008
:10256000D94901EB4000D749897D01EB810100EB9E
:1025700041000190A6225021029B07F0D3FCCF48D6
:10258000007804281FD1CE4808F062FA039000209A
:1025900008F05EFA029003980090CA48007D00EBB4
:1025A000C00101EB0010C84901EB4000C549097E9C
:1025B00001EB810100EB41000190B8225021029B08
:1025C00007F0B0FC1EE0002008F042FA0390BC487F
:1025D00008F03EFA029003980090BA48007D00EBA4
:1025E000C00101EB0010B84901EB4000B549097E7C
:1025F00001EB810100EB41000190B8225021029BC8
:1026000007F090FCAD48007807281FD1AC4808F0CF
:102610001FFA0390002008F01BFA02900398009024
:10262000A848007D00EBC00101EB0010A74901EBB9
:102630004000A449C97D01EB810100EB41000190FC
:10264000A622F021029B07F06DFC1EE0002008F09E
:10265000FFF903909A4808F0FBF902900398009064
:102660009848007D00EBC00101EB0010974901EB99
:1026700040009449C97D01EB810100EB41000190CC
:10268000A622F021029B07F04DFC8C480078082818
:102690001FD18B4808F0DCF90390002008F0D8F92E
:1026A0000290039800908748007D00EBC00101EB89
:1026B0000010874901EB40008249497E01EB81010E
:1026C00000EB41000190B822F021029B07F02AFCA8
:1026D0001EE0002008F0BCF90390794808F0B8F932
:1026E0000290039800907748007D00EBC00101EB59
:1026F0000010774901EB40007249497E01EB8101EE
:1027000000EB41000190B822F021029B07F00AFC87
:10271000CDE070480068002305221946039004F0BC
:10272000D7FF002008F094F903904FF46E4008F0B2
:102730008FF90290039800901E22FA216648029BAE
:1027400007F0F0FB63484068002304221946039019
:1027500004F0BEFF002008F07BF903904FF46E40B8
:1027600008F076F90290039800903422FA215A4832
:10277000029B07F0D7FB51480078012810D1504840
:1027800008F066F90390002008F062F902900398BF
:1027900000901E2250215148029B07F0C3FB0FE01E
:1027A000002008F055F90390454808F051F90290CF
:1027B000039800901E2250214848029B07F0B2FB6C
:1027C0003E480078022811D13D4808F041F90390B5
:1027D000002008F03DF90290039800903422502127
:1027E0003E480F30029B07F09DFB10E0002008F0F0
:1027F0002FF90390324808F02BF9029003980090CB
:102800003422502135480F30029B07F08BFB2B48B8
:102810000078032811D12A4808F01AF90390002003
:1028200008F016F90290039800904A2250212B4894
:102830001E30029B07F076FB10E0002008F008F93C
:1028400003901F4808F004F90290039800904A2270
:10285000502122481E30029B07F064FB1748007885
:10286000042811D1164808F0F3F80390002008F06E
:10287000EFF80290039800906022502117482D3005
:10288000029B07F04FFB10E0002008F0E1F80390F6
:102890000B4808F0DDF80290039800906022502168
:1028A0000E482D30029B07F03DFB00E000BF00BF4B
:1028B000079805F05DFC09B000BD0000450100204F
:1028C00032F0F00064050020A42A0108082B01085A
:1028D0006C2B010810000020E00600200D280108E4
:1028E000F8B5002008F0B4F8064607F0A7F84FF452
:1028F000807415E04FF47F4141EA044008F0A8F8E5
:102900000546002008F0A4F806462B4664223C2128
:102910000090364807F038FB03200EF0A5FE641E39
:10292000002CE7D14FF448700EF09EFE002008F016
:102930008FF8064607F082F82D4890F8400038BB23
:1029400000BF22E03CB1092C05D2294A9178621ED1
:10295000D0B205F045F9002008F07AF806466FF08D
:102960007F4008F075F8074604EBC4014900891C54
:102970008AB2204901EB44103B460221009607F041
:10298000D1FAC82001F0EBF9641C0A2CDAD32CE050
:10299000002426E04CB1052C07D2154A9178621E1E
:1029A0005206100E05F01CF901E00EF063FF002046
:1029B00008F04EF806466FF07F4008F049F80746E9
:1029C00004EBC4014900891C8AB20B4901EB441095
:1029D0003B460221009607F0A5FAC82001F0BFF996
:1029E000641C062CD6D30EF045FFF8BD5D2C010803
:1029F000640500207D2C0108BD2D010838B54DF679
:102A0000DC4008F025F8044612234FF494720921A3
:102A10000090901F07F02AF84DF6DC4008F018F8F7
:102A2000044623460622082140F2231007F066F9E7
:102A30004DF6DC4008F00CF8044623460522072139
:102A40004FF4927007F05AF9002008F001F804469C
:102A500023460222092140F2231007F029FA002020
:102A600007F0F6FF044623460322082140F2251012
:102A700007F01EFA002007F0EBFF0446234603226E
:102A8000082140F2271007F013FA38BDF8B50020EE
:102A90003049087007F0DCFF054606F0CFFF022042
:102AA00000F0F6FE002451E0204604EBD0714910FE
:102AB000A4EB410121B3002007F0CAFF064647F20C
:102AC000CE1007F0C5FF074604EBD471491001EBA7
:102AD000410303EBC1011E2303EB41018AB21E49EE
:102AE0000096097D01EB81011C4B03EB011104EB06
:102AF000840301EB43003B46A82107F013FA23E0CF
:102B0000002007F0A5FF064647F2CE1007F0A0FF11
:102B1000074604EBD471491001EB410303EBC101FB
:102B20001E2303EB41018AB20B490096097D01EB9C
:102B300081010A4B03EB011104EB840301EB430019
:102B40003B46082107F0EEF9601CC4B2082CABDB51
:102B5000F8BD00004501002064050020C9250108DA
:102B6000F8B500205649087007F072FF054606F0D8
:102B700065FF032000F08CFE002420E0002007F019
:102B800067FF054647F2CE1007F062FF06464D4943
:102B90000095097DC1EB0111C1EBC1014A4B03EB6B
:102BA0004101C4EB0413C81804EBC401162303EB62
:102BB00041023346082107F0B5F9601CC4B20A2C63
:102BC000DCDB002423E0002007F042FF054647F24B
:102BD000CE1007F03DFF06463A490095097DC1EB4E
:102BE0000111C1EBC101384B03EB410304F10A01B0
:102BF000C1EB01115818A11D01EBC101162303EB14
:102C000041023346A82107F08DF9601CC4B2042CA0
:102C1000D9DB002435E0022C18DA002007F018FF79
:102C200005466FF07F4007F013FF064604EBC40132
:102C3000162303EB410204EB8401244B03EB8100D8
:102C400033469021009507F06DF918E0002007F059
:102C5000FFFE05466FF07F4007F0FAFE0646611C56
:102C600001EBC101162303EB410204EB8401174B76
:102C700003EB810033469021009507F053F9601C67
:102C8000C4B2052CC7DB002007F0E2FE05466FF05A
:102C90007F4007F0DDFE064633463A229021094880
:102CA0001A30009507F03EF909480A490A8802805F
:102CB000897881700848094909680160F8BD0000F9
:102CC000450100206405002069260108C429010887
:102CD000590100203C01002055010020380100204E
:102CE00038B5002007F0B4FE04466FF07F4007F0CF
:102CF000AFFE0546064900948978491E01EB810123
:102D0000044A88182B4601225F2107F00BF938BDD1
:102D1000640500207F28010800B587B000200590D9
:102D2000FE4890F8400000287ED106902EE20698DA
:102D3000049000EBD07041100498A0EB41000028F3
:102D400073D0F749069831F9100047F6FF718842B1
:102D500045D10698401CF349097888421FD16FF08D
:102D60007F4007F075FE0390002007F071FE02908F
:102D7000039800900698049000EBD070401000EB90
:102D8000400101EB00102A2101EB400080B20190CC
:102D90000246D021E4A0029B07F062F8F2E1002095
:102DA00007F056FE03906FF07F4007F051FE02904F
:102DB000039800900698049000EBD070401000EB50
:102DC000400101EB00102A2101EB400080B201908C
:102DD0000246D021D4A0029B07F042F8D2E1D049AC
:102DE000069831F81020CD483030069900EB4100AC
:102DF0000088104401B2CE4A069822F810101146FD
:102E0000069831F91000002305220121049004F0F6
:102E10005FFCC749069831F91000C049B1F90D109F
:102E200088420BDCC24901E0B5E195E0069831F932
:102E30001000BA49B1F90F10884247DA0120059015
:102E40000698401CB749097888421FD14FF47F008B
:102E500007F0FEFD0390002007F0FAFD02900398B2
:102E600000900698049000EBD070401000EB4001F9
:102E700001EB00102A2101EB400080B201900246D4
:102E8000D021AC48029B06F0EBFF7BE1002007F06D
:102E9000DFFD03904FF47F0007F0DAFD0290039806
:102EA00000900698049000EBD070401000EB4001B9
:102EB00001EB00102A2101EB400080B20190024694
:102EC000D0219C48029B06F0CBFF5BE10698401C9A
:102ED0009449097888421FD14FF46E4007F0B8FD3D
:102EE0000390002007F0B4FD02900398009006982C
:102EF000049000EBD070401000EB400101EB00119A
:102F00002A2000EB410080B201900246D02189487E
:102F1000029B06F0A5FF35E1002007F099FD039024
:102F20004FF46E4007F094FD0290039800900698CD
:102F3000049000EBD070401000EB400101EB00105A
:102F40002A2101EB400080B201900246D02179484D
:102F5000029B06F085FF15E17149069831F91000D2
:102F600047F6FF71884245D10698401C6D490978A3
:102F700088421FD16FF07F4007F06AFD0390002068
:102F800007F066FD0290039800900698049000EB0D
:102F9000D070411001EB410000EB01102A2101EB40
:102FA000400080B20190024630215FA0029B06F0F3
:102FB00057FFE7E0002007F04BFD03906FF07F40E4
:102FC00007F046FD0290039800900698049000EBED
:102FD000D070411001EB410000EB01102A2101EB00
:102FE000400080B20190024630214FA0029B06F0C3
:102FF00037FFC7E04A49069831F81020474830307B
:10300000069900EB41000088104401B2484A069836
:1030100022F810101146069831F9100000230522FD
:103020000121049004F054FB4149069831F9100045
:103030003A49B1F90D10884208DC3D49069831F94A
:1030400010003649B1F90F10884247DA0120059087
:103050000698401C3349097888421FD14FF47F00FD
:1030600007F0F6FC0390002007F0F2FC02900398B2
:1030700000900698049000EBD070411001EB4100E5
:1030800000EB01102A2101EB400080B201900246C2
:1030900030212848029B06F0E3FE73E0002007F091
:1030A000D7FC03904FF47F0007F0D2FC0290039806
:1030B00000900698049000EBD070401000EB4001A7
:1030C00001EB00102A2101EB400080B20190024682
:1030D00030211848029B06F0C3FE53E00698401CBE
:1030E0001049097888422ED14FF46E4007F0B0FCA9
:1030F0000390002007F0ACFC029003980090069823
:10310000049000EBD070401000EB400101EB001088
:103110002A2101EB400080B201900DE064050020FF
:1031200008070020450100202D2D2D2D2D2D0000FC
:10313000A6050020E006002002463021F748029B49
:1031400006F08EFE1EE0002007F082FC03904FF494
:103150006E4007F07DFC0290039800900698049062
:1031600000EBD070401000EB400101EB00102A2171
:1031700001EB400080B2019002463021E748029BFB
:1031800006F06EFE0698401CC0B20690069808280D
:10319000FFF6CDAD39E20020069032E206980490A9
:1031A00000EBD07041100498A0EB410000287DD0C6
:1031B00006984000DA4931F9100047F6FF7188425D
:1031C00047D10698401CD7490978884220D16FF032
:1031D0007F4007F03DFC0390002007F039FC02908F
:1031E000039800900698049000EBD070411001EB1A
:1031F000410000EB01103D2101EB800080B2019005
:103200000246D021AFF2E000029B06F029FEF4E175
:10321000002007F01DFC03906FF07F4007F018FCC2
:103220000290039800900698049000EBD070401034
:1032300000EB400101EB00103D2101EB800080B26A
:1032400001900246D021AFF22010029B06F008FE4A
:10325000D3E106984000B24931F81020B2480699EF
:1032600000EB41000088104401B2B04A069822F8F1
:1032700010101146069831F9100000230522012193
:10328000049004F025FAA949069831F91000A649DE
:103290003039B1F90D1088420BDCA449069831F998
:1032A0001000A1493039B1F90F1000E08FE08842D9
:1032B00047DA012005900698401C9A49097888420F
:1032C0001FD14FF47F0007F0C3FB0390002007F0ED
:1032D000BFFB0290039800900698049000EBD0701A
:1032E000411001EB410000EB01103D2101EB80009A
:1032F00080B201900246D0218848029B06F0B0FDC2
:103300007BE1002007F0A4FB03904FF47F0007F05F
:103310009FFB0290039800900698049000EBD070F9
:10332000411001EB410000EB01113D2000EB810059
:1033300080B201900246D0217848029B06F090FDB1
:103340005BE10698401C7749097888421FD14FF409
:103350006E4007F07DFB0390002007F079FB0290A0
:10336000039800900698049000EBD070411001EB98
:10337000410000EB01103D2101EB800080B2019083
:103380000246D0216548029B06F06AFD35E1002027
:1033900007F05EFB03904FF46E4007F059FB02907C
:1033A000039800900698049000EBD070401000EB5A
:1033B000400101EB00103D2101EB800080B2019043
:1033C0000246D0215548029B06F04AFD15E10698B9
:1033D0004000534931F9100047F6FF71884247D148
:1033E0000698401C4F490978884220D16FF07F40F1
:1033F00007F02EFB0390002007F02AFB02900398B1
:1034000000900698049000EBD070401000EB400153
:1034100001EB00113D2000EB810080B201900246DB
:103420003021AFF2FC20029B06F01AFDE5E00020FF
:1034300007F00EFB03906FF07F4007F009FB02904E
:10344000039800900698049000EBD070411001EBB7
:10345000410000EB01103D2101EB800080B20190A2
:1034600002463021AFF24030029B06F0F9FCC4E086
:10347000069840002A4931F810202B48069900EBA5
:1034800041000088104401B2284A069822F8101022
:103490001146069831F910000023052201210490FD
:1034A00004F016F92149069831F910001E49303907
:1034B000B1F90D10884209DC1C49069831F9100059
:1034C00019493039B1F90F10884251DA01200590BD
:1034D0000698401C13490978884229D14FF47F008F
:1034E00007F0B6FA0390002007F0B2FA02900398B2
:1034F00000900698049000EBD070411001EB410061
:1035000000EB01103D2101EB800080B201900246EA
:1035100030210248029B06F0A3FC6EE0E00600208A
:10352000080700204501002094050020A605002082
:10353000002007F08DFA03904FF47F0007F088FA1F
:103540000290039800900698049000EBD070401011
:1035500000EB400101EB00103D2101EB800080B247
:103560000190024630213348029B06F079FC44E08A
:103570000698401C3049097888421FD14FF46E40AC
:1035800007F066FA0390002007F062FA02900398B1
:1035900000900698049000EBD070411001EB4100C0
:1035A00000EB01103D2101EB800080B2019002464A
:1035B00030212048029B06F053FC1EE0002007F05B
:1035C00047FA03904FF46E4007F042FA02900398D6
:1035D00000900698049000EBD070411001EB410080
:1035E00000EB01103D2101EB800080B2019002460A
:1035F00030211048029B06F033FC0698401CC0B2F4
:10360000069006980428FFF6C9AD0598012808D150
:103610000A48007B28B90122D102094801F028FBA1
:1036200005E000224FF40061054801F021FB07B0DE
:1036300000BD0000E00600204501002064050020D8
:10364000000C014070B500202C49087007F000FA0A
:10365000054606F0F3F9012000F01AF9FFF740FBE8
:1036600000F030F9FEF772FA00242EE0244890F8BA
:103670004000012817D1204604EBD0714910A4EB7B
:10368000410101BB6FF07F4007F0E2F905462622B9
:1036900004FB02F000F11E012B4640F23F12012014
:1036A00006F02CFB0FE06FF07F4007F0D1F90546E4
:1036B000262204FB02F000F11E012B4640F23F12CD
:1036C000012006F01BFB601CC4B2052CCEDB0024DD
:1036D00010E06FF07F4007F0BBF9054604EB840172
:1036E0004901491C88B22B4698221E2106F0E0FBB6
:1036F000601CC4B2032CECDB70BD0000450100204F
:103700006405002030B587B051480078012802D008
:1037100003287CD136E04F494F4807F0E5F94D4882
:10372000807800904B48437802784CA104A80CF0B4
:1037300077FB49488078009047484378C2784BA18E
:1037400001A80CF06DFB002007F082F904464C48FC
:1037500007F07EF905462B460122AA2104A8009411
:1037600006F0E0FB002007F073F90446444807F038
:103770006FF905462B46C022B42101A8009406F03B
:10378000D1FB61E03349344807F0AEF93D48807819
:1037900000903C484378027830A104A80CF040FB2C
:1037A00039488078009038484378C2782FA101A822
:1037B0000CF036FB3548007805280FD1304807F06B
:1037C00047F90446002007F043F905462B468222BC
:1037D000F02101A8009406F0A5FB0EE0002007F000
:1037E00037F90446264807F033F905462B4682226E
:1037F000F02101A8009406F095FB244800780628E3
:1038000011D11F4807F024F90446002000E01AE017
:1038100007F01EF905462B469422F02104A80094D7
:1038200006F080FB0EE0002007F012F90446144871
:1038300007F00EF905462B469422F02104A80094C7
:1038400006F070FB00E000BF00BF07B030BD000015
:10385000460100203C010020380100202530326460
:103860003A253032643A2530326400003230253057
:1038700032642D253032642D253032640000000082
:1038800032F0F000590100205501002045010020D0
:10389000F8B504464FF46E4007F0DAF8054600200C
:1038A00007F0D6F80646611EC1EB0111044A8818DC
:1038B000334601221146009506F034FBF8BD0000A6
:1038C0003325010838B5002007F0C2F804466FF030
:1038D0007F4007F0BDF805462B4603227F2115A047
:1038E000009406F01FFB002007F0B2F804466FF0CA
:1038F0007F4007F0ADF805462B4603229F210EA01E
:10390000009406F00FFB002007F0A2F804466FF0C9
:103910007F4007F09DF8054608490094897A01EB3D
:103920004101074A88182B4601228F2106F0FAFA36
:1039300038BD0000280000002900000064050020B8
:10394000A728010838B5214807F082F80446092362
:103950004FF4807206210090FA2006F087F80020CC
:1039600007F076F804460723FC221946009010461B
:1039700006F07CF8002007F06BF804460723FE22CF
:1039800019460090104606F071F8104807F060F8EC
:103990000446112340F201120A210090F92006F09A
:1039A00065F80A4807F054F8044623460722122116
:1039B000FA2006F0A3F9054807F04AF80446234622
:1039C00003221321FC2006F099F938BD2176EE0080
:1039D0002DE9F84304460D4617461E46DDF82080C3
:1039E0006FF07F4007F034F881467B1E9AB26B1C63
:1039F00099B2631C98B24B4606F080F96FF07F4095
:103A000007F026F88146731E9AB26B1C99B2631CAC
:103A100098B24B4606F04CFA6FF07F4007F018F86A
:103A20008146731E9AB26B1C99B2A31C98B24B4686
:103A300006F03EFA002007F00BF881464B463A4666
:103A40002946204606F05AF9002007F001F8814681
:103A50004B4632462946204606F02AFA002006F058
:103A6000F7FF8146E11988B24B463246294606F0F7
:103A70001FFA002006F0ECFF8146711C8AB2E119A2
:103A8000491C88B24B46294606F012FA002006F07F
:103A9000DFFF8146781C82B2A81981B24B462046CE
:103AA00006F02CF905EB060CACF1010C1FFA8CF3B7
:103AB00004EB070CACF1010C1FFA8CF205F1020CBF
:103AC0001FFA8CF104F1030C1FFA8CF0CDF8008082
:103AD00005F0CCFFBDE8F88370B504466FF07F4079
:103AE00006F0B6FF054605F0A9FF012C06D0022C12
:103AF0001BD0032C32D0042C60D146E04FF47F0061
:103B000006F0A6FF05462B460A221421084606F0B9
:103B1000F5F84FF47F0006F09BFF05462B460A227E
:103B20000F21192006F0C4F948E04FF47F0006F099
:103B30008FFF05462B460A2214214FF4967006F09B
:103B4000DDF84FF47F0006F083FF05462B460A227E
:103B50000F2140F2311006F0ABF92FE04FF47F0057
:103B600006F076FF05462B460A22DC21142006F0DB
:103B7000C5F84FF47F0006F06BFF05462B460A227E
:103B8000D721192006F094F918E04FF47F0006F0D1
:103B90005FFF05462B460A22DC214FF4967006F0A3
:103BA000ADF84FF47F0006F053FF05462B460A227E
:103BB000D72140F2311006F07BF900BF00BF70BD85
:103BC00010B501221021044801F052F800F07CF8F1
:103BD00000F022F810BD0000001001401FB51020B9
:103BE000009001200290002001900220039069467D
:103BF000014800F095FE1FBD001001401FB51020C8
:103C0000009001200190022003906946014800F0D5
:103C100087FE1FBD0010014010B50024FFF7DEFF36
:103C200004E0601CC4B201200DF03CFD10210F48DF
:103C300001F016F808B1642CF3DB642C01DB0120E1
:103C400010BD002404E0601CC4B201200DF02AFD68
:103C50001021064801F004F808B9F02CF3DBF02C31
:103C600001DB0120ECE70020EAE700000010014042
:103C700070B50024002520E0FFF7C0FF00221021CE
:103C8000104800F0F5FF02200DF00CFD012210217C
:103C90000C4800F0EDFFFFF7A1FF0A200DF002FD38
:103CA00064101021074800F0DBFF08B144F08004E5
:103CB0003C200DF0F7FC681CC5B2082DDCDB20466B
:103CC00070BD00000010014010B5FFF797FF002203
:103CD0001021084800F0CCFF40F2EE200DF0E2FC8D
:103CE00001221021034800F0C3FF0F200DF0DAFC81
:103CF00010BD00000010014070B50446FFF77EFFC4
:103D0000002526E004F00106641086B1002210218F
:103D1000114800F0ADFF02200DF0C4FC012210217B
:103D20000D4800F0A5FF3C200DF0BCFC0FE0002288
:103D30001021094800F09CFF46200DF0B3FC012241
:103D40001021054800F094FF02200DF0ABFC681C28
:103D5000C5B2082DD6DB70BD00100140704706E0EB
:103D600042F63D0100E0491E0029FCD1401E00281A
:103D7000F6D1704706E00A2101E04A1ED1B20029BF
:103D8000FBDC401E0028F6D1704772B600BFFEE78C
:103D900010B500F06FFD00BF34200349C86000BFBC
:103DA00000F006FD10BD0000002002400021074A7F
:103DB000D1610749096941F00401054A11611146C1
:103DC000096941F04001116170470000C006002000
:103DD000002002400021074AD1610749096941F0EA
:103DE0000201054A116111464861096941F040012B
:103DF00011617047C0060020002002400022054BE0
:103E0000DA61054A126942F00102034B1A6101802E
:103E100070470000C00600200020024000201E491C
:103E2000C96801F0100139B11C49C96941F00201AA
:103E30001A4AD16140F010001749C96801F0040125
:103E400039B11649C96941F00101144AD16140F004
:103E500004001149C96901F0010169B10F49C9693B
:103E600041F004010D4AD16100BF0B49C96921F03D
:103E70000101094AD16100BF00BF40F2011188422F
:103E800006D10549C96921F00101034AD16101E068
:103E90000149C86000BF704700200240C0060020F2
:103EA00070B5044600F0EAFE054609E0601C38B132
:103EB00024B100F0E3FE401BA04201D9032070BDF5
:103EC0001248C06800F001000028EFD10F48C06818
:103ED00000F0200020B100BF20200C49C86000BFC6
:103EE0000A48C06800F0100048B90848C06900F0EE
:103EF000010020B90548C06800F0040018B1FFF7C0
:103F00008DFF0120DBE70020D9E700000020024000
:103F100070B50446B3F5804F13D1D1E9000540EAEE
:103F200005108D6840EA05208D6928438D8940EA97
:103F3000054054F82250064E3540284344F82200EC
:103F400003E06FF0704044F82200002070BD0000D4
:103F50000000F0CF70B50246086852F8200020F04B
:103F600001000E6842F826008868082801D1402325
:103F700000E00023486818438E683043CE68304321
:103F80000E6930434E693043CE6930430E6A304388
:103F90004E6A30438E6A3043CE6A30430E6B40EA3D
:103FA000060488690443486B0443074D45F4806563
:103FB00045F4E025086852F82000A84320430E6825
:103FC00042F82600002070BD7FFB080010B50346B4
:103FD000D1E9000440EA04108C6840EA04208C898E
:103FE00040EA0444088A401E44EA0054087D801ECA
:103FF00044EA00608C692043541C53F8244004F0C8
:1040000040442043541C43F82400002010BD00000D
:104010001EB5024612A4D4E90030A468CDE901041B
:104020000093022917D14FF4C87392FBF3F403FBFA
:10403000142363B1D31702EB93739B10A2EB83039A
:104040003BB9642392FBF3F403FB14230BB11D2053
:104050001EBD1C20FCE7481E1DF80000F8E700000C
:104060001F1C1F1E1F1E1F1F1E1F1E1F13B50024F7
:104070002FE09DF803009DF8071088420CD19DF8B1
:1040800001009DF80510884206D19DF806009DF8B4
:104090000210401A04441DE09DF8060004449DF8F7
:1040A0000500401EC0B28DF805009DF8050040B91E
:1040B0000C208DF805009DF80700401EC0B28DF859
:1040C00007009DF805109DF80700FFF7A1FF8DF888
:1040D0000600CEE700BF20461CBD000070B50A48B0
:1040E0000468001D0568001D0668344454B10822A8
:1040F0000649204603F0F0FF042204491031284607
:1041000003F0EAFF70BD0000E8F7FF1F0A0200207D
:1041100038B5024600230020009000BF92F824002A
:10412000012801D1022038BD012082F8240000BFFF
:104130004868072812D21068406B0C79641E04EBA3
:1041400084051F24AC40A0430D796D1E05EB850549
:104150000C68AC4020431468606327E048680D2871
:1041600012D21068006B0C79E41F04EB84051F2445
:10417000AC40A0430D79ED1F05EB85050C68AC4004
:1041800020431468206311E01068C06A0C790D3C6C
:1041900004EB84051F24AC40A0430D790D3D05EBD5
:1041A00085050C68AC4020431468E06208680A2862
:1041B00012D31068C0680C780A3C04EB440507244D
:1041C000AC40A0430D780A3D05EB45058C68AC403A
:1041D00020431468E0600FE0106800690C7804EB7D
:1041E00044050724AC40A0430D7805EB45058C68D9
:1041F000AC402043146820610868102802D0086889
:10420000112827D1174C1068A0421ED11068806871
:1042100000F40000F0B91068806840F400001468F1
:10422000A0600868102815D10F4800680F4CB0FB3B
:10423000F4F000EB80004000009002E00098401E87
:10424000009000980028F9D104E0906A40F0200026
:104250009062012300BF002082F8240000BF1846AE
:1042600061E70000002401403401002040420F00BB
:104270000146886A704701460868C06C70470000B4
:104280002DE9F0410446002700250026A84614B970
:104290000120BDE8F081A06810B1207D00B100BF11
:1042A000A06A30B90020E06284F82400204600F0C3
:1042B00097F82046FCF7E4FE0746A06A00F01000DD
:1042C000002873D1002F7ED1A06A20F4885040F0DE
:1042D0000200A0623F4AD4E90001904208D1E0699F
:1042E000B0F5402F02D14FF4002002E0E06900E079
:1042F000E0690143207B41EA40000643A068B0F535
:10430000807F02D0A068012802D14FF4807000E0C5
:1043100000200543207D012811D1207B38B9A069F8
:10432000401E4FF4006141EA4030054307E0A06AB7
:1043300040F02000A062E06A40F00100E0622068E6
:10434000406820F4694028432168486020688068FC
:1043500021490840304321688860A068B0F5807F1B
:1043600002D0A068012802D14FF4807000E0002044
:10437000B0F5807F03D1208A401E4FEA00582068A4
:10438000C06A20F4700040EA08002168C862206812
:10439000806812490840B04209D10020E062A06A5A
:1043A00020F0020040F00100A06211E00BE0A06AE2
:1043B00020F0020040F01000A062E06A40F001002E
:1043C000E062012704E0A06A40F01000A06201272B
:1043D00038465EE7003C0140FDF7E1FFFE0E1FFF9F
:1043E00010B586B00446002002900390049005901A
:1043F00014492068884222D100BF1348806940F4E4
:104400000070114988610846806900F400700190CD
:1044100000BF00BF00BF0846806940F010008861FF
:104420000846806900F01000019000BF00BF012025
:1044300002900320039002A9044800F071FA06B02C
:1044400010BD000000240140001002400010014097
:10445000F8B504460D46002600200090002700F025
:104460000DFC06462068806800F4807050B1A06A98
:1044700040F02000A06200BF002084F8240000BFAC
:104480000120F8BD2068406800F4807020BB2068DF
:10449000C06A00F47000F8B917E0681CA8B125B133
:1044A00000F0ECFB801BA8420FD92068006800F0E8
:1044B000020050B9A06A40F00400A06200BF0020D2
:1044C00084F8240000BF0320DBE72068006800F0C8
:1044D00002000028E1D053E0022001F0BDFB384982
:1044E0000968B1FBF0F021680969364A114091B9B9
:1044F0002168C9689211114069B921680969324A75
:10450000114031B92168C9689211114009B91421CB
:1045100017E0292115E0216809692B4A114021B9CA
:104520002168C9689211114041B121680969274A7F
:10453000114029B92168C968114009B9542100E026
:10454000FC2100FB01F718E0681C98B125B100F0D0
:1045500095FB801BA8420DD90098B8420AD2A06AE8
:1045600040F00400A06200BF002084F8240000BFD7
:10457000032086E70098401C00900098B842E3D3DF
:104580006FF0120021680860A06A40F40070A06219
:104590002068806800F46020B0F5602F0DD1207B8A
:1045A00058B9A06A20F48070A062A06A00F480501C
:1045B00018B9A06A40F00100A062002061E7000085
:1045C0003401002024499224922449124992240063
:1045D00070B50446002500BF94F82400012801D1DD
:1045E000022070BD012084F8240000BF2046FCF7A3
:1045F00075FD0546002D77D1A06A40F20121884360
:1046000040F48070A0623C492068884208D13B4851
:10461000006800F4702008B9012002E0002000E0EA
:10462000012078B1A06A20F48010A0622068406860
:1046300000F4806000B3A06A20F4005040F4805081
:10464000A06219E0A06A40F48010A0622B49091F03
:104650002068884203D028492068884204D127482E
:10466000006800F4806000E0002028B1A06A20F417
:10467000005040F48050A062A06A00F4805020B145
:10468000E06A20F00600E06201E00020E06200BF86
:10469000002084F8240000BFC01E21680860206844
:1046A000806800F46020B0F5602F16D112492068B0
:1046B000884208D11148006800F4702008B9012030
:1046C00002E0002000E0012038B12068806840F45A
:1046D000A000216888600CE006E02068806840F453
:1046E00080102168886004E000BF002084F8240066
:1046F00000BF284675E7000000280140042401405F
:104700002DE9F04104460E460127002500BF26484A
:10471000007E012802D10220BDE8F081012022495B
:10472000087600BF2068022813D14CF25030FFF702
:10473000B7FB90BB0120FFF739FB4CF25030FFF77D
:10474000AFFB07461948006920F0040017490861CB
:1047500023E04CF25030FFF7A3FBF0B94FF0FF30ED
:104760003060A56812E02846FFF734FB4CF2503069
:10477000FFF796FB07460D48006920F002000B4941
:1047800008610FB1356007E005F50065D4E9021056
:1047900001EBC020A842E6D800BF00BF00200249BC
:1047A000087600BF3846B7E7C00600200020024068
:1047B0000348006940F0800001490861002070470B
:1047C000002002402DE9FE4F05468B4617469846CD
:1047D000012600240020029000BF2448007E01280A
:1047E00002D10220BDE8FE8F01202049087600BFDB
:1047F0004CF25030FFF754FB064686BB012D02D128
:104800000120029006E0022D02D10220029001E078
:104810000420029000241EE02201B946C246484608
:104820005146FBF7D2FC80B20190022000FB04B09D
:1048300000900199FFF7E2FA4CF25030FFF730FB9D
:1048400006460B48006920F001000949086106B1DD
:1048500004E0601CC4B202988442DDDB00BF00BFEC
:1048600000200249087600BF3046BBE7C0060020A2
:104870000020024000200849096901F0800151B17F
:104880000649054A5160064951601146096901F01F
:10489000800101B1012070470020024023016745DB
:1048A000AB89EFCD00B585B0002001900290039058
:1048B00004901748006808B105B000BD01201449F4
:1048C000086000BF1348406940F480701149486196
:1048D0000846406900F48070009000BF00BF4FF6AA
:1048E00080700190022002900320049001A90A48E0
:1048F00000F016F84CF6B3700190022002900320ED
:10490000049001A9054800F00BF800BFD4E70000AF
:104910002001002000100240001801400014014056
:104920002DE9F847024600239C467BE14FF0010841
:1049300008FA03F4D1F8008008EA0400A0427DD10F
:10494000DFF8F4A2D1F80480A8EB0A09D0453AD0E8
:1049500014DCB8F1030F50D009DCB8F1000F31D0EE
:10496000B8F1010F1CD0B8F1020F49D120E0B8F125
:10497000110F18D0B8F1120F42D11EE0B9F5881FFF
:1049800025D006DCB9F5803F20D0B9F5801F37D19E
:104990001AE0B9F5001F18D0B9F5041F30D117E09F
:1049A000D1F80CC02DE0D1F80C8008F1040C28E0FF
:1049B000D1F80C8008F1080C23E0D1F80C8008F144
:1049C0000C0C1EE000BF00BF00BF00BF00BF00BF57
:1049D000D1F80880B8F1000F02D14FF0040C0BE0C1
:1049E000D1F80880B8F1010F03D14FF0080C146121
:1049F00002E04FF0080C546103E04FF0000C00E0BF
:104A000000BF00BFFF2801D8904601E002F1040872
:104A10004646FF2802D84FEA830803E0A3F10808BE
:104A20004FEA88084746D6F800804FF00F0909FA88
:104A300007F928EA09080CFA07F900E07AE048EAE1
:104A40000908C6F80080D1F8048008F08058B8F151
:104A5000805F6FD100BFDFF8E481D8F8188048F09C
:104A60000108DFF8D891C9F81880C846D8F818802E
:104A700008F00108CDF8008000BF00BF4FEAB93848
:104A80004FEA930958F829504FEA83784FEA18798A
:104A90004FF00F0808FA09F825EA0805DFF8A081A9
:104AA000424502D14FF0000824E0DFF898814245EA
:104AB00002D14FF001081DE0DFF88C81424502D1A0
:104AC0004FF0020816E0DFF88481424502D14FF032
:104AD00003080FE0DFF87881424502D14FF0040867
:104AE00008E0DFF87081424502D14FF0050801E08F
:104AF0004FF006084FEA83794FEA197908FA09F866
:104B000048EA0505DFF850814FEA930948F8295033
:104B1000D1F8048008F48038B8F5803F0BD1DFF875
:104B20003C81D8F8008048EA0008DFF83091C9F8E5
:104B300000800AE075E0DFF82481D8F8008028EAD8
:104B40000008DFF81891C9F80080D1F8048008F453
:104B50000038B8F5003F0ED1DFF8008108F10408F5
:104B6000D8F8008048EA0008DFF8F09009F104095D
:104B7000C9F800800DE0DFF8E48008F10408D8F8F7
:104B8000008028EA0008DFF8D49009F10409C9F888
:104B90000080D1F8048008F48018B8F5801F0ED189
:104BA000DFF8B88008F10808D8F8008048EA000863
:104BB000DFF8A89009F10809C9F800800DE0DFF8D6
:104BC0009C8008F10808D8F8008028EA0008DFF87F
:104BD0008C9009F10809C9F80080D1F8048008F424
:104BE0000018B8F5001F0ED1DFF8708008F10C082E
:104BF000D8F8008048EA0008DFF8609009F10C0955
:104C0000C9F800800DE0DFF8548008F10C08D8F8EE
:104C1000008028EA0008DFF8449009F10C09C9F87F
:104C200000805B1CD1F8008028FA03F8B8F1000F6F
:104C30007FF47CAEBDE8F887000011100010024040
:104C400000080140000C0140001001400014014028
:104C500000180140001C0140080001400004014010
:104C6000024693680B400BB1012000E00020704722
:104C70000AB1016101E00B0403617047014800685B
:104C800070470000280100200348006803490978A4
:104C900008440149086070472801002030010020C5
:104CA00010B50848006840F010000649086003206D
:104CB00000F0A8F8002000F007F800F02BF8002022
:104CC00010BD00000020024070B504460E48007878
:104CD0004FF47A71B1FBF0F00C490968B1FBF0F5C3
:104CE000284602F021F908B1012070BD102C07D22E
:104CF00000222146501E00F047F80548046001E0FC
:104D00000120F2E70020F0E730010020340100200C
:104D10002C01002008B500BF1148806940F0010057
:104D20000F4988610846806900F00100009000BFCB
:104D300000BF00BF0846C06940F08050C861084607
:104D4000C06900F08050009000BF00BF00BF05495F
:104D5000486820F0E06040F00070486000BF08BD87
:104D6000001002400000014001460846002809DB0F
:104D700000F01F0301229A4043099B0003F1E02346
:104D8000C3F8002100BF70472DE9F05F80460D4653
:104D9000164600270BF058F8074639462A46334690
:104DA00001F00700C0F1070ABAF1040F02D94FF071
:104DB000040A01E0C0F1070AD14600F1040ABAF181
:104DC000070F02D24FF0000A01E0A0F1030AD44617
:104DD0004FF0010A0AFA09FAAAF1010A0AEA020ADC
:104DE0000AFA0CFA4FF0010B0BFA0CFBABF1010BBA
:104DF0000BEA030B4AEA0B04214640460BF02CF861
:104E0000BDE8F09F00BF00F00702064B19684FF69F
:104E1000FF031940044B0B4343EA0221014B196085
:104E200000BF70470CED00E00000FA0570B50546C4
:104E30000C4604F08000802808D104F0070000EB45
:104E4000800605F1280000EBC60105E004EB8406AE
:104E500005F5B47000EBC6011AB900200873CB80C9
:104E600004E0012008730B81180C4881002070BDFC
:104E7000704770B504460D4605EB850304F1280123
:104E800001EBC3014A692946D4F8E80208F0B6FBF1
:104E900070BD70B504460D4605EB850304F5B4718D
:104EA00001EBC3014A692946D4F8E80208F026FC60
:104EB00070BD70B504460E4606F0800080280AD109
:104EC00006F0070000EB800104F1280000EBC105AB
:104ED0000120687009E006F0070000EB800104F58E
:104EE000B47000EBC1050020687006F00700287060
:104EF00000BF94F8A802012801D1022070BD012052
:104F000084F8A80200BF2946206809F077FA00BF9C
:104F1000002084F8A80200BF00BFEFE770B5044688
:104F20000E4606F00F006168884201D9012070BD6D
:104F300006F0800080280AD106F0070000EB80010F
:104F400004F1280000EBC1050120687009E006F0BB
:104F5000070000EB800104F5B47000EBC1050020F0
:104F600068700020A87006F00700287000BF94F851
:104F7000A802012801D10220D9E7012084F8A80263
:104F800000BF2946206809F095FB00BF002084F887
:104F9000A80200BF00BFCAE72DE9F04105460C4654
:104FA000174607F48040002850D02868B0F8501009
:104FB000207801EBC000801C296801F5806131F880
:104FC0001000C0F30906A069B04203D3A069801B9A
:104FD000A06101E00020A061A069A8B900BF22780B
:104FE0005200296831F812104BF68F7201EA020064
:104FF00080F4005040F4004141F0800123785B00D0
:105000002A6822F8131000BF07F04000A8B100BFC3
:1050100000BF22785200296831F8121048F68F72CA
:1050200001EA020040F4004141F0C00123785B0036
:105030002A6822F8131000BF00BF002E55D0228925
:105040006169334628680AF0ABF94EE02868B0F889
:105050005010207801EBC000801D296801F58061A7
:1050600031F81000C0F30906A069B04203D3A0696B
:10507000801BA06101E00020A061A069A8B900BF69
:1050800022785200296831F812104BF68F7201EA2B
:10509000020080F4005040F4004141F08001237888
:1050A0005B002A6822F8131000BF07F04000A8B97F
:1050B00000BF00BF22785200296831F8121048F66C
:1050C0008F7201EA020040F4004141F0C0012378F0
:1050D0005B002A6822F8131000BF00BF2EB162895E
:1050E0006169334628680AF05BF93046BDE8F08113
:1050F0002DE9F04705460C46904608F04000002890
:1051000071D02868B0F85010207801EBC000801CE6
:10511000296801F5806131F81000C0F30907A06922
:10512000B84203D9A069C01BA06101E00020A061C2
:10513000A06900287ED100BF6078C8B900BF296887
:105140002A68B2F8502011442278022303EBC202ED
:1051500001F5806303EB420000BF028848F2FF3391
:105160001A400280028842F40042028000BF13E02D
:105170006078012810D100BF28682A68B2F8502052
:1051800010442278022303EBC20200F5806303EB94
:10519000420100220A8000BF00BF00BF296860787A
:1051A00010BB00BF2B68D5F800C0BCF850C06344EA
:1051B00094F800C04FF0060909EBCC0C03F58069A8
:1051C00009EB4C0000BFB0F800C048F2FF390CEA10
:1051D000090CA0F800C0B0F800C04CF4004CA0F8D6
:1051E00000C000BF11E0C0E0607801280DD1286840
:1051F000B0F8500001442078062303EBC00001F50D
:10520000806303EB40020020108000BF2178284615
:10521000FFF72FFE08F48040002816D000BF00BF23
:1052200022785200296831F8121048F68F7201EA8C
:10523000020000E00AE040F4004141F4814123789B
:105240005B002A6822F8131000BFCAE108F480400E
:10525000A8B100BF00BF22785200296831F81210AF
:1052600048F68F7201EA020040F4004141F48142A5
:1052700023785B00296821F8132000BF00BF94F851
:1052800024000128E1D1606938446061E069384454
:10529000E0612169206A884204D32669206A801B64
:1052A00020620BE0206A20B93E46002084F82400EA
:1052B00004E0002084F82400266A206200BF6078A1
:1052C000B8BB00BF2A682968B1F850100A44217899
:1052D000022303EBC10102F5806303EB41010846A1
:1052E00000BF56B9038848F2FF3C03EA0C03038071
:1052F000038843F40043038019E03E2E0BD800BF1F
:10530000710806F0010303B1491C4FF6FF7303EA6D
:10531000812303800BE000BF710906F01F0303B96E
:10532000491E4FF4004343EA8123038000BF00BFBE
:1053300013E0FFE7607801280FD100BF28682A68D2
:10534000B2F8502010442278022303EBC20200F589
:10535000806303EB42010E8000BF00BFB3B222891D
:10536000616928680AF04BF83BE12868B0F85010F2
:10537000207801EBC000801D296801F5806131F8BB
:105380001000C0F30907A069B84203D3A069C01B8D
:10539000A06101E00020A061A06900287DD100BFCC
:1053A0006078C8B900BF29682A68B2F85020114453
:1053B0002278022303EBC20201F5806303EB420073
:1053C00000BF028848F2FF331A400280028842F48C
:1053D0000042028000BF13E06078012810D100BFB6
:1053E00028682A68B2F8502010442278022303EB80
:1053F000C20200F5806303EB420100220A8000BF75
:1054000000BF00BF2968607808BB00BF2B68D5F8D3
:1054100000C0BCF850C0634494F800C04FF00609C7
:1054200009EBCC0C03F5806909EB4C0000BFB0F828
:1054300000C048F2FF390CEA090CA0F800C0B0F82F
:1054400000C04CF4004CA0F800C000BF10E0607831
:1054500001280DD12868B0F85000014420780623B7
:1054600003EBC00001F5806303EB400200201080D5
:1054700000BF21782846FFF7FCFC08F48040002894
:1054800016D100BF00BF22785200296831F81210EF
:1054900048F68F7201EA020000E00AE040F40041A1
:1054A00041F4814123785B002A6822F8131000BF81
:1054B00097E008F48040A8B900BF00BF22785200EE
:1054C000296831F8121048F68F7201EA020040F4A0
:1054D000004141F4814123785B002A6822F81310CF
:1054E00000BF00BF94F8240001287AD160693844D5
:1054F0006061E0693844E0612169206A884204D330
:105500002669206A801B20620BE0206A20B93E4693
:10551000002084F8240004E0266A0020206284F839
:10552000240000BF2A68607890BB00BFD5F800C097
:105530002968B1F850108C4421784FF0060909EB26
:10554000C1010CF5806909EB4101084600BF76B93D
:10555000B0F8009048F2FF3A09EA0A09A0F8009072
:10556000B0F8009049F40049A0F8009020E03E2EE9
:105570000FD800BF710806F00109B9F1000F00D083
:10558000491C4FF6FF7909EA8129A0F800900FE045
:1055900010E000BF710906F01F09B9F1000F00D13A
:1055A000491E4FF4004949EA8129A0F8009000BF44
:1055B00000BF0FE0607801280CD12868B0F85000D7
:1055C00002442078062101EBC00002F5806101EB66
:1055D00040031E8000BFB3B262896169286809F088
:1055E0000EFF00BF22785200296831F8121048F6E9
:1055F000BF7201EA020080F0100080F0200040F449
:10560000004141F0800123785B002A6822F81310E2
:1056100000BF0020BDE8F087024601F0070000EB64
:10562000800302F5B47000EBC300C06970472DE938
:10563000F04705460E4690461F464FF0000906F01B
:10564000800080280AD106F0070000EB800105F1F8
:10565000280000EBC1040120607009E006F007009B
:1056600000EB800105F5B47000EBC1040020607010
:1056700006F007002070C4F81080E770607808B169
:105680002078E081022F01D10020207100BF95F821
:10569000A802012802D10220BDE8F087012085F888
:1056A000A80200BF2146286808F07EFC00BF002049
:1056B00085F8A80200BF4846EEE72DE9F04105460F
:1056C0000E461746984606F0070000EB800105F5E8
:1056D000B47000EBC1046761C4F818800020E06179
:1056E000607006F00700207006F0070020B9214620
:1056F000286809F07AF803E02146286809F075F86F
:105700000020BDE8F08170B504460D4605F00700A5
:105710006168884201D9012070BD05F080008028B1
:105720000AD105F0070000EB800104F1280000EB2E
:10573000C1060120707007E005EB850104F5B47027
:1057400000EBC106002070700120B07005F007006A
:10575000307000BF94F8A802012801D10220DBE7D5
:10576000012084F8A80200BF3146206809F00FF834
:1057700005F0070020B904F52C71206808F097FFA8
:1057800000BF002084F8A80200BF00BFC4E72DE9D5
:10579000F04105460E4690461F4606F0070000EB16
:1057A000800105F1280000EBC104C4F81480A76152
:1057B000012084F8240027620020E061012060704D
:1057C00006F00700207006F0070020B9214628687F
:1057D00009F00BF803E02146286809F006F80020DC
:1057E000BDE8F0817FB50446206809F0D5FD00F4DE
:1057F0000040B0F5004F02D1204604F0E6FE2068DC
:1058000009F0CAFD00F48060B0F5806F0FD1206808
:10581000B0F844004FF6FF3108402168A1F8440079
:10582000204600F09FF90021204600F0BBF92068D7
:1058300009F0B2FD00F48040B0F5804F08D1206837
:10584000B0F844004BF6FF7108402168A1F844000D
:10585000206809F0A1FD00F40050B0F5005F08D108
:105860002068B0F844004DF6FF7108402168A1F8A7
:105870004400206809F090FD00F48050B0F5805F8E
:105880001DD12068B0F840004FF6FB710840216838
:10589000A1F840002068B0F840004FF6F7710840CA
:1058A0002168A1F84000204600F06EF92068B0F8A9
:1058B00044004EF6FF7108402168A1F844002068BA
:1058C00009F06AFD00F40060B0F5006F55D10025C5
:1058D00007E06900206830F811002DF81500681CF9
:1058E000C5B2082DF5D32068B0F8400040F00100A3
:1058F0002168A1F840002068B0F840004FF6FE7122
:1059000008402168A1F8400000BF2068B0F84400BA
:1059100000F480600028F8D02068B0F844004FF60A
:10592000FF3108402168A1F84400002507E03DF858
:1059300015006A00216821F81200681CC5B2082D04
:10594000F5D32068B0F8400040F008002168A1F8C5
:1059500040002068B0F844004FF2FF710840216811
:10596000A1F844002068B0F8400040F0040021682D
:10597000A1F84000204600F057F9206809F00CFD1E
:1059800000F40070B0F5007F0BD12068B0F844003F
:105990004FF6FF5108402168A1F84400204600F06E
:1059A000FAF8206809F0F8FC00F48070B0F5807F08
:1059B00008D12068B0F844004FF6FF610840216824
:1059C000A1F844007FBD30B585B0044614B901206C
:1059D00005B030BD94F8A90228B9002084F8A802C7
:1059E000204600F09DF8032084F8A902206808F002
:1059F00054FE142204F110016846FAF7F6FB94E80D
:105A00000F0008F0F7FC20B1022084F8A902012061
:105A1000DEE70021206809F0E8FC002531E00121E3
:105A200005EB850204F1280000EBC200417005EB94
:105A3000850104F1280000F8315005EB850100EBE9
:105A4000C100C581002105EB850204F1280000EBAF
:105A5000C200C17005EB850204F1280000EBC20012
:105A6000016105EB850204F1280000EBC2004161F1
:105A700005EB850204F1280000EBC2008161681C7F
:105A8000C5B26068A842CAD800252AE0002105EB0B
:105A9000850204F5B47000EBC200417005EB85018E
:105AA00004F5B47000F83150002105EB850200EBDD
:105AB000C200C17005EB850204F5B47000EBC200B2
:105AC000016105EB850204F5B47000EBC200416191
:105AD00005EB850204F5B47000EBC2008161681C1F
